S00C00006D61696E2E7372656373
S214010094971109009381C1E51701FF03130141F686
S2140100A41385019817F630001306C6983306A64042
S2140100B493050000EFC0406717C5000013054561AE
S2140100C4EFB00037EFC0C05613050000930541009A
S2140100D413060000EF00800E6FB0C03637050A0025
S2140100E437070A009307C56E1307C76E630AF7003E
S2140100F493070000638607001305C56E6780070033
S2140101046780000037050A009307C56E37070A00A3
S2140101149305C76EB385F54093D7254093D5F5016E
S214010124B385F50093D51540638A0500930700004F
S214010134638607001305C56E6780070067800000A5
S214010144130101FF2324810083C701AB2326110079
S21401015463940702EFF09FF893070000638A070091
S21401016437050A001305050097000000E7000000A4
S214010174930710002388F1AA8320C1000324810079
S21401018413010101678000009307000063860702DC
S21401019437050A00130101FF938541AB13050500DA
S2140101A42326110097000000E70000008320C10009
S2140101B4130101016FF01FF56FF0DFF4130101FE67
S2140101C4232E1100232C8100232A910023282101A8
S2140101D423263101EF209026EF208067EF2090310F
S2140101E413088002930700141307800C930600007B
S2140101F413060000B70905009385895A138501A6DD
S214010204EF20000913088002930700141307800CDB
S214010214930600001306000037A904009305891A03
S2140102241385C1A5EF20C0061308800293070014A6
S2140102341307800C9306000013060000B74404005D
S214010244938584DA138581A5EF2080041308800240
S214010254930700141307800C93060000130600008E
S21401026437E403009305849A138541A5EF204002E1
S21401027413088002930700141307800C93060014D6
S214010284130600009385895A138501A5EF204000C3
S21401029413088002930700141307800C93060014B6
S2140102A4130600009305891A1385C1A4EF10507E26
S2140102B413088002930700141307800C9306001496
S2140102C413060000938584DA138581A4EF10507C0D
S2140102D413088002930700141307800C9306001476
S2140102E4130600009305849A138541A4EF10507AEF
S2140102F413088002930700141307800C9306002842
S214010304130600009385895A138501A4EF105078CB
S21401031413088002930700141307800C9306002821
S214010324130600009305891A1385C1A3EF105076AE
S21401033413088002930700141307800C9306002801
S21401034413060000938584DA138581A3EF10507495
S21401035413088002930700141307800C93060028E1
S214010364130600009305849A138541A3EF10507277
S214010374130880079307000A13070000930600007A
S2140103841306000037540200930584F5138541A72C
S214010394EF10107003A541A7EF10006B03A541A74A
S2140103A4EF200002130880079307000A13070000D2
S2140103B49306000A13060000930584F5138501A726
S2140103C4EF10106D03A501A7EF10006803A501A7A0
S2140103D4EF10107F130880079307000A130780079E
S2140103E49306000013060000930584F51385C1A641
S2140103F4EF10106A03A5C1A6EF10006503A5C1A6F8
S214010404EF10107C130880079307000A1307800770
S2140104149306000A13060000930584F5138581A646
S214010424EF10106703A581A6EF10006203A581A64D
S214010434EF1010791308D0089307100D1307E00185
S2140104449306800313060000B7F502009385C536AC
S2140104541385C1A7EF10D06303A5C1A7EF10C05E33
S21401046403A5C1A7EF10D075130810019307A006C2
S2140104741307800C9306B00613060000B7E50200C6
S21401048493858555138581A7EF10906003A581A7F1
S214010494EF10805B03A581A7EF109072EF60904781
S2140104A4130500008320C101032481018324410133
S2140104B4032901018329C100130101026780000099
S2140104C4130101FF23261100377505001305859ACC
S2140104D4EFB05051377505001305459CEFB09050A9
S2140104E403A3419583C6919803C68198B7880000F3
S2140104F49305000F130EA0056F00800193060600F6
S21401050413F6F70F23A2F19823A0E198638AB600A5
S2140105148327030033F71701E30607FE6FF01FFE78
S214010524E318C6FF23840198A384019823850198C0
S214010534377505001305C59DEFB0D04A8320C10069
S2140105441301010167800000130101FF2326110036
S2140105549300000003AE419583C6819803C6919823
S214010564930F0000930200009303000037830000FA
S2140105749305100013056001930EE001130F000F9D
S2140105846F0080006308E60783270E0033F76700D1
S214010594630E0700930006001386060093F6F70F12
S2140105A4938F0500938205009383050023A2F19897
S2140105B423A0E198E388A6FCE398D6FDE316E6FDBE
S2140105C463860F001307E0012384E1986384020025
S2140105D42385119863860300130700FFA384E1981B
S2140105E437750500130505A0EFB0D03F13051000BD
S2140105F46F00400363860F00130760012384E198AC
S214010604638402002385119863860300130700FFA1
S214010614A384E198377505001305C59EEFB0903C99
S2140106241305000023840198A38401982385019867
S2140106348320C1001301010167800000130101FF3B
S214010644232611009300000003AE419583C68198CA
S21401065403C69198930F00009302000093030000D1
S214010664378300009305100013056001930EE00123
S214010674130F000F6F0080006308E60783270E0040
S21401068433F76700630E070093000600138606001F
S21401069493F6F70F938F0500938205009383050065
S2140106A423A2F19823A0E198E388A6FCE398D6FD5B
S2140106B4E316E6FD63860F001307E0012384E19841
S2140106C4638402002385119863860300130700FFE1
S2140106D4A384E19837750500130505A0EFB09030A3
S2140106E4130510006F00400363860F0013076001B3
S2140106F42384E198638402002385119863860300AA
S214010704130700FFA384E19837750500130545A177
S214010714EFB0502D1305000023840198A38401989B
S214010724238501988320C10013010101678000001D
S21401073483A7419583A7070023A2F1983787000072
S21401074433F7E70023A0E19813050000630C0702C2
S21401075403C791982385E19883C68198A384D19889
S21401076493F7F70F2384F1981306000E630EC70060
S2140107749307E001130500006316F7009307000FC3
S2140107846384F60C67800000130750076384E6064B
S2140107946362D7029307B0066384F606930740079D
S2140107A46398F600B7070A0003A5470167800000AF
S2140107B4678000001307000F639AE60213075007C9
S2140107C46386E704130720076388E7041307B00664
S2140107D46386E7061307400713050000E394E7FA68
S2140107E4B7070A0003A50702678000001305000087
S2140107F467800000B7070A0003A587016780000029
S214010804B7070A0003A5070167800000B7070A00B7
S21401081403A5470267800000130101FF2326110088
S21401082437750500130505A3EFB0D01B13050000AB
S2140108348320C1001301010167800000B7070A0085
S21401084403A5C70167800000B7070A0003A587024E
S2140108546780000083A7419583A7070023A2F19828
S2140108643787000033F7E70023A0E198130500005B
S2140108746308070683C691982385D19803C7819890
S214010884A384E19893F7F70F2384F1981306000ED7
S2140108946380C60293079002130500006392F60470
S2140108A46304F70A9307000F6300F71067800000DC
S2140108B4930640076308D70663F6E60293065007D5
S2140108C46306D7049306000F631ED7021307500767
S2140108D46380E70613072007130500006380E70615
S2140108E4678000009307B0066308F70293072007A2
S2140108F46318F700B7070A0003A5C703678000005B
S214010904678000001305000067800000B7070A002F
S21401091403A5470367800000B7070A0003A507037A
S21401092467800000B7070A0003A5C70267800000B6
S214010934B7070A0003A5870367800000B7070A0004
S21401094403A5070467800000130101FF2326110095
S21401095423248100B7070A0003A6076F83A6476FFF
S21401096403A501A883A541A8EF80C06323A0A1A87D
S21401097423A2B1A803A6818083A6C180EF90C06795
S214010984631E0500B7070A0003A587048320C10078
S214010994032481001301010167800000B7070A00E0
S2140109A403A547046FF09FFEB7070A0003A5870453
S2140109B467800000130101FF232611002324810010
S2140109C423229100930405001384050013060000F6
S2140109D4930600001385040093050400EF90806AD3
S2140109E46340050213850400930504008320C100B7
S2140109F40324810083244100130101016780000060
S214010A04B707008033C487006FF0DFFD130101FAD6
S214010A14232E1104232C8104232A9104232821053F
S214010A24232631052324410523225105232061056C
S214010A34232E7103232C8103232A91032328A10344
S214010A442326B10313040500938405001309060045
S214010A54138D06002328E100232AF100232C01012B
S214010A64232E1101834D010613050040EFA05020EB
S214010A742320A10013050040EFA0901F2322A1000C
S214010A8413050040EFA0D01E2324A1001305004047
S214010A94EFA0101E2326A10013050040EFA0501D51
S214010AA4930C050013054000EFA0901C930B050062
S214010AB42320A40213054000EFA0901B130B05008E
S214010AC42322A40213058000EFA0901A930A0500BE
S214010AD42324A40213058000EFA09019130A05002D
S214010AE42326A40213054000EFA09018130C05005A
S214010AF42328A40213054000EFA0901793090500CC
S214010B042320A404232A040293071000232CF404AC
S214010B14232E0402930700012322F4049307000200
S214010B242324F40413050002EFA090141307F01312
S214010B349307000063589700938704ECB337F700D4
S214010B4493871700232AA404032741062322E406D5
S214010B54232E0404232004062328F40493071000F8
S214010B642320FC0023A09B0023202B011307000055
S214010B749307000023A0EA0023A2FA002320EA0038
S214010B842322FA009307400623A0F90093071006D0
S214010B94638EFD189308A0001308D9FF93873400C9
S214010BA41307A00093062000130610009385819472
S214010BB4EF70C06E13054003EFA0900B930405007D
S214010BC42320A4002322A50393090002232A350126
S214010BD41309000123282501232495031305400343
S214010BE4EFA01009130A05002322A400832701019C
S214010BF42322F502232A3501232825018327010010
S214010C042324F50213054003EFA09006930A05007A
S214010C142324A400832741012322F502232A350134
S214010C2423282501832741002324F50213054003C5
S214010C34EFA01004130B05002326A40083278101CB
S214010C442322F502232A350123282501832781003F
S214010C542324F50213054003EFA090012328A400E2
S214010C648327C1012322F502232A350123282501DE
S214010C748327C1002324F5028325040223A0B4009C
S214010C840326440223A2C4008326840223AED4008E
S214010C940327C40223A0E4028327040323ACF4003D
S214010CA42320BA002322CA00232EDA002320EA02D4
S214010CB4232CFA0023A0BA0023A2CA0023AEDA002A
S214010CC423A0EA0223ACFA002320BB002322CB0094
S214010CD4232EDB002320EB02232CFB002320B5006C
S214010CE42322C500232ED5002320E502232CF5005C
S214010CF48320C105032481058324410503290105B5
S214010D048329C104032A8104832A4104032B010491
S214010D14832BC103032C8103832C4103032D01037D
S214010D24832DC10213010106678000009308A00009
S214010D341308D9FF938734001307A00093062000F5
S214010D44130610009385C194EF7040556FF09FE62B
S214010D54130101FF23261100232481001304050037
S214010D64630005048327040283A5070003254404BE
S214010D743385A5008327440283A6070083278404BA
S214010D84B386F60083A7C19863980702232E04024C
S214010D948320C10003248100130101016780000040
S214010DA4377505001305C5B4EFB0C0436FF09FFB5C
S214010DB483A70701E38C07FC03A74700E3CAE6FE03
S214010DC403A6C700E346D6FE03A68700E342B6FEA3
S214010DD403A60700E34EC5FC93071000232EF40276
S214010DE48327C402130600009306000023A0C7004D
S214010DF423A2D70083274402832684043307D740DB
S214010E0423A0E7006FF0DFF8930705000327050327
S214010E14032507006302050603A705030325070048
S214010E24630C050403A707028326070003A705022C
S214010E340326070003A745043307E600130500004D
S214010E4463DCE60203A74704B386E6006356D602CC
S214010E5403A747028326070003A7450203260700C4
S214010E6403A785043307E60063D8E60083A787044F
S214010E74B386F6003325D600678000009307050085
S214010E8403270503032507006302050603A7850157
S214010E9403250700630C050403A70702832607003E
S214010EA403A705000326070003A705013307E60089
S214010EB41305000063DCE60203A74704B386E600D5
S214010EC46356D60203A747028326070003A74500F5
S214010ED40326070003A745013307E60063D8E600A7
S214010EE483A78704B386F6003325D60067800000FF
S214010EF4032705028327070083A6050003A6060029
S214010F049386570063D4C7009386B7FF2320D70080
S214010F14032745028327070083A6450003A6060088
S214010F249386570063D4C7009386B7FF2320D70060
S214010F3467800000130101FF2326110003278503A0
S214010F449307700063E0E7069317270037770500D9
S214010F541307C706B387E70083A707006780070060
S214010F6403250500EF00107D8320C1001301010154
S214010F746780000003254500EF00D07B6FF0DFFE9D
S214010F8403258500EF00107B6FF01FFE0325C500C7
S214010F94EF00507A6FF05FFD03250501EF009079AD
S214010FA46FF09FFC37750500130585B6EFB08023F7
S214010FB46FF09FFB6306050A130101FF2326110048
S214010FC42324810013040500EFF0DFF683270400D1
S214010FD403A58702EFA0804A8327440003A587025E
S214010FE4EFA0C0498327840003A58702EFA0004928
S214010FF48327C40003A58702EFA040488327040182
S21401100403A58702EFA080470325040263040500B5
S214011014EFA0C0460325440263040500EFA0004682
S2140110240325840263040500EFA040450325C4029A
S21401103463040500EFA0804403250403630405004C
S214011044EFA0C0430325040463040500EFA0004396
S2140110548320C1000324810013010101678000007D
S21401106467800000130101FF232611002324810059
S2140110742322910023202101930405001304000078
S2140110841309800283A7440583A70700B387870053
S21401109403A50700EF00501B13044400E31424FFC8
S2140110A49305A00003A54405EF7080438320C10087
S2140110B40324810083244100032901001301010153
S2140110C467800000130101FE232E1100232C8100EA
S2140110D4232A9100232821011304050083274505AB
S2140110E403A7C7016356E0029304000083A7070021
S2140110F413972400B387E70003A50700EF00906366
S214011104938414008327440503A7C701E3C0E4FEC0
S21401111403A747008327040283A7070093873700A2
S2140111242320F7008327440503A787008327440267
S21401113483A707009387D7FF2320F70093070000B0
S2140111441308A000032744051396270083260700E7
S214011154B386C60083A6060083A5060003254700BA
S21401116483260701B386D702032705003307D70072
S21401117423A0E5008326440503A706003307C7001A
S214011184032707000327470083A6860083A60600D5
S2140111942320D70093871700E39607FB83270404CD
S2140111A403A50700EFA0C01403A6018183A641810D
S2140111B4EF80C06B03A6818183A6C181EF90000DE9
S2140111C4EFA0C00A130905006356A00623263101C1
S2140111D42324410123225101930400009309600052
S2140111E4130A1000930A70006F00C0009384140061
S2140111F4630C990203274403E30A37FF8327840316
S2140112049387A7FFE374FAFEE30257FF8327440597
S21401121483A7070013972400B387E70003A50700F5
S214011224EF0090026FF09FFC8329C100032A81001E
S214011234832A41009305090003254405EF70402ADB
S2140112448320C1010324810183244101032901016F
S2140112541301010267800000130101FF2326110018
S21401126423248100130405006384050203278403F1
S2140112749307700063E6E7029317270037770500A4
S2140112841307C708B387E70083A70700678007002B
S214011294EFF05FE36FF09FFD03250400EF00904934
S2140112A4032744039307700063EAE70493172700B0
S2140112B4377705001307C70AB387E70083A7070034
S2140112C46780070003254400EF00D0466FF05FFDFA
S2140112D403258400EF0010466FF09FFC0325C4002D
S2140112E4EF0050456FF0DFFB03250401EF00904447
S2140112F46FF01FFB03250400EF0000758320C10077
S21401130403248100130101016780000003254400C2
S214011314EF0080736FF09FFE03258400EF00C07218
S2140113246FF0DFFD0325C400EF0000726FF01FFDB0
S21401133403250401EF0040716FF05FFC130101FF08
S2140113442326110023248100232221012320310195
S214011354930710006388F504032485020329040017
S2140113648329440003A6818383A6C1831305090048
S21401137493850900EF8010616358050A03A78183EA
S21401138483A7C1832320E4002322F4008320C10021
S214011394032481000329410083290100130101016B
S2140113A4678000000324850203290400832944007E
S2140113B403A6018283A641821305090093850900C9
S2140113C4EF80504C635CA00003A7018283A741828F
S2140113D42320E4002322F4006FF05FFB03A681823E
S2140113E483A6C1821305090093850900EF809059ED
S2140113F4635C050003A7818283A7C1822320E400DE
S2140114042322F4006FF09FF803A6018383A6418389
S2140114141305090093850900EF70D0382320A40032
S2140114242322B4006FF09FF603A6018483A64184A9
S2140114341305090093850900EF80D044635CA0007E
S21401144403A7018483A741842320E4002322F40014
S2140114546FF0DFF303A6018383A641831305090016
S21401146493850900EF9000502320A4002322B400A2
S2140114746FF0DFF1130101FE232E1100232C8100EE
S214011484232A910023282101130405006302052061
S214011494232631012324410123225101938405008B
S2140114A41309060083274503232CF502B7070A0010
S2140114B483A5070113850400EFB0803D630605008C
S2140114C483A781956390070623AC019493091000C2
S2140114D4232A34039305000013050400EFF01FE6E6
S2140114E4032A0402832A840203250A00EF9050602B
S2140114F403A60A0083A64A00EF70D02AEF9010577D
S2140115042320AA008327840203A5070083A5470096
S214011514EF90D05583270900B387A7002320F9004D
S214011524232C3405B7070A0083A547011385040055
S214011534EFB000366306050083A7C19563900706DE
S21401154423AE019493092000232A34039305100043
S21401155413050400EFF09FDE032A0402832A8402A3
S21401156403250A00EF90D05803A60A0083A64A0072
S214011574EF705023EF90904F2320AA008327840214
S21401158403A5070083A54700EF90504E8327090063
S214011594B387A7002320F900232C3405B7070A00D4
S2140115A483A5870113850400EFB0802E6318050018
S2140115B40327C4049307100063D4E70EB7070A0091
S2140115C483A5C70113850400EFB0802C63100502C0
S2140115D483278402130600009306000023A0C70095
S2140115E423A2D7001307100023ACE194B7070A001F
S2140115F483A5070213850400EFB08029631C050E3A
S21401160483278402130600009306000023A0C70064
S21401161423A2D7001307100023AEE1948329C10047
S214011624032A8100832A41008327840203A5070035
S21401163483A54700EF909043631E05008324C402EC
S21401164403A5040083A54400EF905042631C050AD9
S214011654232A04028324C40203A5040083A54400A8
S214011664EF90D0406310050A8327C403639E070ADC
S2140116748327840513072000638EE70C13071000E5
S214011684639EE70C93076000232AF4026F00000DA3
S214011694377505001305C5B4EFA0D0346FF0DFF835
S2140116A48327840513072000638AE70213071000C3
S2140116B4638CE7028327C40203A6818383A6C183BE
S2140116C423A0C70023A2D700232E04028327C40421
S2140116D4938717002326F4046FF05FEE93077000D8
S2140116E4232AF4026FF01FFD93076000232AF402F5
S2140116F46FF05FFC8329C100032A8100832A41001D
S2140117046FF09FF28327C403130710006382E70276
S21401171403278405930620006308D7029306100066
S2140117246304D70C638C0702232604046F00400766
S214011734130700009307000023A0E40023A2F4008B
S214011744232A04026FF05FF213077000232AE402CF
S214011754E39C07FC93077000232AF4028324C40243
S21401176403A6818483A6C18403A5040083A544003B
S214011774EF70500323A0A40023A2B40083244402E0
S2140117840329C40203A50400EF909036032609003A
S21401179483264900EF701001EF90502D23A0A4007A
S2140117A48327040203A707009306F0139307000098
S2140117B463DAE600130707EC9307F013B3B7E70001
S2140117C4938717002328F40413050400EFF04FD879
S2140117D48320C101032481018324410103290101DA
S2140117E4130101026780000013076000232AE40244
S2140117F4E38A07E86FF05FF39307100023ACF194D4
S21401180423AEF19467800000130101FE232E11001C
S214011814232C8100232A9100232821012326310128
S21401182423244101232251011304050093040600D5
S2140118346386051293050000EFF05FB0832A040265
S2140118448327840203A6018583A6418503A5070091
S21401185483A54700EF8090239309050013890500AB
S21401186403A50A00EF90D028130605009386050009
S2140118741385090093050900EF70C072EF90101FDD
S21401188423A0AA0003250406EF90902693090500D9
S214011894138905008327840203A6018583A641854F
S2140118A403A5070083A54700EF80501E1306050015
S2140118B4938605001385090093050900EF90800AB5
S2140118C4EF90D01A2320A406639404048324C4024C
S2140118D403A6818583A6C18503A5040083A54400C8
S2140118E4EF70406C23A0A40023A2B4008324440216
S2140118F40329C40203A50400EF90901F03260900E0
S21401190483264900EF70006AEF90501623A0A400C6
S2140119148327040203A707009306F0139307000026
S21401192463DAE600130707EC9307F013B3B7E7008F
S214011934938717002328F4048320C101032481011B
S21401194483244101032901018329C100032A81005B
S214011954832A4100130101026780000093051000E9
S214011964EFF0DF9D832A04028327840203A6018500
S21401197483A6418503A5070083A54700EF801011C0
S214011984930905001389050003A50A00EF90501674
S21401199413060500938605001385090093050900BF
S2140119A4EF704060EF90900C23A0AA008327840276
S2140119B403A6018583A6418503A5070083A54700E1
S2140119C4EF80D00C9309050013890500032504064E
S2140119D4EF9010121306050093860500138509007F
S2140119E493050900EF70005CEF9050086FF09FEDCF
S2140119F483274501130600009305F0FF634CF002AC
S214011A0467800000B387C702B387E7008326850291
S214011A1493971700B387F6002390B70013071700B0
S214011A2483270501E340F7FE1306160083274501C5
S214011A34635AF6008327050113070000E344F0FC0C
S214011A446FF09FFE67800000130101FE232E110034
S214011A54232C8100130405008327050083A70700B0
S214011A642324F5008327450083A707002326F500D2
S214011A74EFF01FF8930710002326F402832744018E
S214011A846352F04A232A9100232821012326310197
S214011A942324410123225101130600001303000FDE
S214011AA41305003C1308F0FF93021000130EF01305
S214011AB4378F2800130FCF1BB72E1F00938ECE1B14
S214011AC4930420001309F027B72F1800938FCF9B98
S214011AD46F0000428329440003AA0900330A460121
S214011AE493194A00B389494193996900B386D90089
S214011AF493961600B386DF00839906008326840234
S214011B04B387F600239037018327440083A6070092
S214011B14B306D6008329040093974600B387D740BB
S214011B249397670083A60900B306D700B387D70047
S214011B3493971700B387FF002390B7006F00C00088
S214011B44638E590C638A99261307170083270401A9
S214011B54635AF7388326040083A60600B306D70023
S214011B64E364D5FEB387C702B387E70093971700EC
S214011B7483254402B385F50083950500E38605FDB8
S214011B8483A94199E39E09FAE346DEF403AA8199FF
S214011B948326C400B306D600939696008329840050
S214011BA4B3093701B386360193961600B386460108
S214011BB483D9060083268402B387F600239037016F
S214011BC48327440083A70700B307F600939797007B
S214011BD48326040083A60600B306D700B387D7007E
S214011BE493971700B387E7012390B7008327440030
S214011BF483A70700B307F60093979700832604008C
S214011C0483A60600B306D700B387D70093971700B9
S214011C14B387D7012390B7006FF01FF3635ADE0A28
S214011C246342D91203AA81998326C400B306D60057
S214011C3493969600938606EC83298400B3093701AC
S214011C44B386360193961600B386460183D90600F9
S214011C5483268402B387F600239037018327440042
S214011C6483A70700B307F60093979700938707ECBB
S214011C748326040083A60600B306D700B387D700DD
S214011C8493971700B78628009386C61BB387D70099
S214011C942390B7008327440083A70700B307F60001
S214011CA493979700938707EC8326040083A6060080
S214011CB4B306D700B387D70093971700B7261F003C
S214011CC49386C61BB387D7002390B7006FF0DFE770
S214011CD4372A1800130ACA9B8329440083AA0900D9
S214011CE4B30A560193994A00B389594193996900F5
S214011CF4B386D90093961600B306DA0083990600D4
S214011D0483268402B387F600239037018327440091
S214011D1483A60700B306D6008329040093974600DA
S214011D24B387D7409397670083A60900B306D70005
S214011D34B387D70093971700330AFA002310BA0023
S214011D446FF09FE0372A1800130ACA9B83294400C0
S214011D5483AA0900B30A560193994A00B3895941E3
S214011D6493996900B386D90093961600B306DA00F0
S214011D748399060083268402B387F60023903701ED
S214011D848327440083A60700B306D60083290400EC
S214011D9493974600B387D7409397670083A60900B5
S214011DA4B306D700B387D70093971700330AFA0010
S214011DB42310BA006FF05FD9635CD90A9309003C1B
S214011DC4E38436D903AA81998326C400B306D600D0
S214011DD493969600938606D883298400B30937011F
S214011DE4B386360193961600B386460183D9060058
S214011DF483268402B387F6002390370183274400A1
S214011E0483A70700B307F60093979700938707D82D
S214011E148326040083A60600B306D700B387D7003B
S214011E2493971700B78628009386C61BB387D700F7
S214011E342390B7008327440083A70700B307F6005F
S214011E4493979700938707D88326040083A60600F2
S214011E54B306D700B387D70093971700B7261F009A
S214011E649386C61BB387D7002390B7006FF0DFCDE8
S214011E74372A1800130ACA9B8329440083AA090037
S214011E84B30A560193994A00B38959419399690053
S214011E94B386D90093961600B306DA008399060032
S214011EA483268402B387F6002390370183274400F0
S214011EB483A60700B306D600832904009397460039
S214011EC4B387D7409397670083A60900B306D70064
S214011ED4B387D70093971700330AFA002310BA0082
S214011EE46FF09FC613061600832744016352F60259
S214011EF48327440083A70700B307F600E364F3FED1
S214011F0483270401E350F0FE130700006FF09FC41B
S214011F1483244101032901018329C100032A810085
S214011F24832A41008320C101032481011301010294
S214011F34678000000327C502930710006306F700B5
S214011F442326050267800000832745016354F02891
S214011F54130101FF2326810023249100232221015A
S214011F642320310183A5419913060000130F000FA6
S214011F741308F0FF13031000930F20009308F013C7
S214011F84B78E2800938ECE1B372E1F00130ECE1B42
S214011F949303F0271304F03BB72218009382C29BE5
S214011FA46F0000200329C500330926019316490052
S214011FB4B386264193966600B386960093961600DA
S214011FC4B386D2002390F6006F00C00063846508D0
S214011FD4638CF5131307170083270501635CF71A4F
S214011FE4B387C702B387E700832685029397170052
S214011FF4B387F60083970700E38E07FDE39805FC95
S21401200483248500B3049700E3C604FCE3CC98F864
S2140120148326C500B306D60093969600B38696002B
S21401202493961600B386D6012390F6008326C50040
S214012034B306D6009396960083248500B3049700CE
S214012044B386960093961600B386C6012390F600CF
S2140120546FF05FF883248500B304970063DA98046D
S21401206463CC93068326C500B306D60093969600E2
S214012074938606ECB386960093961600B386D6012D
S2140120842390F6008326C500B306D60093969600E1
S214012094938606EC83248500B3049700B3869600E2
S2140120A493961600B386C6012390F6006FF09FF24E
S2140120B40329C5003309260193164900B386264130
S2140120C493966600B386960093961600B386D2005E
S2140120D42390F6006FF01FF0372918008329C500F6
S2140120E4B309360193964900B38636419396660042
S2140120F4B3869600939616009304C99BB386D400C0
S2140121042390F6006FF01FED83248500B304970037
S21401211463DA9304E34094EC8326C500B306D60041
S21401212493969600938606D8B386960093961600E1
S214012134B386D6012390F6008326C500B306D600DF
S21401214493969600938606D883248500B304970055
S214012154B386960093961600B386C6012390F600BE
S2140121646FF05FE7372918008329C500B3093601E4
S21401217493964900B386364193966600B3869600D5
S214012184939616009304C99BB386D4002390F60055
S2140121946FF05FE413061600832745016350F602C9
S2140121A48327C500B307F600E366FFFE8327050110
S2140121B4E352F0FE130700006FF09FE20324C10010
S2140121C483248100032941008329010013010101AD
S2140121D467800000678000009307050003278501D8
S2140121E4032507006302050603A7850103250700E7
S2140121F4630C050403A707008326070003A705004D
S2140122040326070003A705013307E60013050000AC
S21401221463DCE60203A70701B386E6006356D6022B
S21401222403A747008326070003A7450003260700E4
S21401223403A745013307E60063D8E60083A74701F1
S214012244B386F6003325D600678000000327050011
S2140122548327070083A6050003A606009386570076
S21401226463D4C7009386B7FF2320D700032745000E
S2140122748327070083A6450003A606009386570016
S21401228463D4C7009386B7FF2320D7006780000076
S214012294130101FC232E1102232C8102232A91020D
S2140122A42328210323263103232441032322510314
S2140122B423206103232E7101232C8101232A9101FA
S2140122C42328A1012326B10193040500938D05005B
S2140122D4930C0600138C0600930B0700138B070060
S2140122E4930A080013054003EF90801813040500B1
S2140122F423A0A40033055B0313151500EF904017C4
S214012304130D050013054000EF908016130A05000F
S2140123142320A40013054000EF90801593090500BF
S2140123242322A40013058000EF90801413090500EE
S214012334232EA40013058000EF9080139304050058
S2140123442320A40213054000EF908012232CA4003E
S21401235423286401232A54012322B4032324A40337
S2140123642320950123208A0123A079011307000065
S214012374930700002320E9002322F90023A0E400A8
S21401238423A2F4008320C10303248103832441038D
S214012394032901038329C102032A8102832A4102F4
S2140123A4032B0102832BC101032C8101832C4101E0
S2140123B4032D0101832DC100130101046780000070
S2140123C4630E0504130101FF232611002324810053
S2140123D41304050003250500EF90400A0325440075
S2140123E4EF90C0090325C401EF90400903250402B8
S2140123F4EF90C00803258401EF904008032584026A
S214012404EF90C00713050400EF9040078320C10036
S2140124140324810013010101678000006780000026
S214012424130101FC232E1102232C8102232A91027B
S2140124342328210323263103232441032322510382
S21401244423206103232E7101232C8101232A910168
S2140124542328A1012326B10113040500938C05004A
S214012464930D0600138D0600130B0700938B0700CC
S2140124743305F70213151500EF80907F130C050042
S21401248413054000EF80D07E930A05002322A400A2
S21401249413054000EF80D07D130A05002324A40011
S2140124A413058000EF80D07C930905002326A40041
S2140124B413058000EF80D07B130905002328A400B0
S2140124C413054000EF80D07A93040500232AA40064
S2140124D4232C6401232E7401930710002320F50096
S2140124E423A0BA012320AA011307000093070000C2
S2140124F423A0E90023A2F9002320E9002322F900FE
S21401250413054003EF80D0762320A40023229503ED
S214012514232A7501232865012324850323205501D5
S21401252423224501232E350123202503232C950040
S2140125348320C10303248103832441030329010364
S2140125448329C102032A8102832A4102032B010241
S214012554832BC101032C8101832C4101032D01012D
S214012564832DC10013010104678000006302050A7C
S214012574130101FF23261100232481002322910045
S2140125841304050013054001EF80906E93040500C3
S214012594630805068327440003A7070023A0E40075
S2140125A4032784008326070023A2D40083A70700F9
S2140125B483268401B387D70023A4F4008326C401A9
S2140125C49307900063C6D7009307A000232EF40058
S2140125D4832707000327C401B387E70023A6F40073
S2140125E403A7C19823A8E40023A691988320C100D9
S2140125F40324810083244100130101016780000044
S21401260437750500130585B7EF90D03D6FF09FF839
S21401261467800000130101FF232611002324810093
S2140126241304050003250500EFF00FC2130504008B
S214012634EFF0DFF38320C1000324810013010101BD
S21401264467800000130101FF232611002324810063
S21401265403A4C198630204042322910023202101C8
S2140126649304000037790500938504008327C4008A
S214012674032784008326440003260400938414005D
S214012684130549B9EF90D02303240401E31E04FC87
S21401269483244100032901008320C100032481000F
S2140126A41301010167800000130101FE232E1100AE
S2140126B483A7C198638E070A232C8100232A9100DD
S2140126C423282101232631011304050093840500E0
S2140126D41309060093890600130500006F00000223
S2140126E483A6070123A6D1986F00000403A7070158
S2140126F413850700630607069307070003A7070069
S214012704E31687FE03A74700E31297FE03A7870095
S214012714E31E27FD03A7C700E31A37FDE30205FC02
S21401272403A707012328E50013850700EF8010554A
S2140127341387090093060900138604009305040011
S21401274437750500130545BBEF90901703248101E7
S21401275483244101032901018329C1006F0000027A
S2140127640324810183244101032901018329C10032
S21401277437750500130505BEEF90D0268320C101E9
S2140127841301010267800000130101FF23261100D3
S214012794232481001304050003250500EFF08FF9B7
S2140127A48327440003A507008327840083A5070025
S2140127B48326C40103268401B386D5003306C500E7
S2140127C4EFF09FEE8320C100032481001301010171
S2140127D467800000630C0506130101FF2326110020
S2140127E42324810013040500EFF01FFA8327040055
S2140127F403A58702EF80904803254400630405007F
S214012804EF80D0470325840063040500EF8010475A
S2140128140325C40063040500EF8050460325040124
S21401282463040500EF809045032544016304050015
S214012834EF80D04413050400EF8050448320C10088
S21401284403248100130101016780000067800000F2
S214012854372318001303C3C3B7C80E009388C89B55
S21401286437180A001308C89B377513001305C5EB00
S214012874130E0000B78E0300938E0E40130705B0A7
S214012884130608009386080093070300938507D868
S2140128942320B70023A0F600938507282320B6003B
S2140128A413074700938727009386460013064600BE
S2140128B4E31EA7FC130303789388085013080850F3
S2140128C4130E0E3C13050550E31ADEFB6780000069
S2140128D4B77813009388C89B930500281308000053
S2140128E437E30100931718009386080003A781991C
S2140128F43307F70003A60600035707002310E60074
S2140129049387270093864600E392B7FE9388085080
S2140129141308082093850540E31668FC67800000C9
S214012924B7C80E009388C89B9305002813080000B7
S21401293437E30100931718009386080003A78199CB
S2140129443307F70003A60600035707002310E60023
S2140129549387270093864600E392B7FE9388085030
S2140129641308082093850540E31668FC6780000079
S214012974B7180A009388C89B93050028130800001B
S21401298437E30100931718009386080003A781997B
S2140129943307F70003A60600035707002310E600D3
S2140129A49387270093864600E392B7FE93880850E0
S2140129B41308082093850540E31668FC6780000029
S2140129C493959500B385A50093951500B7872800C0
S2140129D49387C71BB387F5002390C700B7271F004B
S2140129E49387C71BB385F5002390C5006780000055
S2140129F4130101FE232E1100232C8100232A9100AA
S214012A0423282101232631012324410123225101B4
S214012A14377A1300130ACA9BB7BA0400B30A5A01D9
S214012A24130900009309001493040A001304000018
S214012A3483A7040003960700930509001305040001
S214012A44EFF01FF81304140093844400E31234FFD8
S214012A5413091900130A0A50E3185AFD8320C10109
S214012A640324810183244101032901018329C1002F
S214012A74032A8100832A41001301010267800000B2
S214012A84130101FE232E1100232C8100232A910019
S214012A942328210123263101232441012322510124
S214012AA437CA0E00130ACA9BB7BA0400B30A5A01FE
S214012AB4130900009309001493040A001304000088
S214012AC483A7040003960700930509001305040071
S214012AD4EFF01FEF1304140093844400E31234FF51
S214012AE413091900130A0A50E3185AFD8320C10179
S214012AF40324810183244101032901018329C1009F
S214012B04032A8100832A4100130101026780000021
S214012B14130101FE232E1100232C8100232A910088
S214012B242328210123263101232441012322510193
S214012B34371A0A00130ACA9BB7BA0400B30A5A0121
S214012B44130900009309001493040A0013040000F7
S214012B5483A70400039607009305090013050400E0
S214012B64EFF01FE61304140093844400E31234FFC9
S214012B7413091900130A0A50E3185AFD8320C101E8
S214012B840324810183244101032901018329C1000E
S214012B94032A8100832A4100130101026780000091
S214012BA4130101FE232E1100232C8100232A9100F8
S214012BB42328210123263101930400001309000F61
S214012BC4930900141304000013060000930504007F
S214012BD413850400EFF0DFDE13041400E31624FF6C
S214012BE493841400E39034FF8320C10103248101FC
S214012BF483244101032901018329C1001301010230
S214012C0467800000B73720FF1307100023A0E702F0
S214012C14B73720FF9387C70283A7070093F71700E8
S214012C24638C0700373720FF1307C7028327070083
S214012C3493F71700E39C07FE67800000130101FF6A
S214012C4423261100232481002322910003A7019641
S214012C54B78728009387C71B2322F700EFF09FFA54
S214012C6483A7019683A7070023ACF198EFF05FF3DF
S214012C7403A70196B7271F009387C71B2322F700D4
S214012C848327470023ACF198EFF09FF18320C1001E
S214012C94032481008324410013010101678000009D
S214012CA4130101FF2326110023248100232291000E
S214012CB4232021011309050093840500EF80005B9E
S214012CC413040500EF80C06213060900938604000E
S214012CD4EF70404B132505003305A4008320C10083
S214012CE40324810083244100032901001301010107
S214012CF46780000003A7C199930610062300D70036
S214012D0483A7C19923A2070023A4070023860700EB
S214012D146780000013060500938715009385450018
S214012D24930830009306800033E517031317250034
S214012D343307E60003270700032847036318D80070
S214012D44232CD70293871700E390B7FE6780000011
S214012D5437E731001307C71B9306C700138806001D
S214012D64930500001306000013058000832707005F
S214012D7483A74703B387A74093B717003306F60024
S214012D8483A7060083A74703B387A74093B7170013
S214012D94B385F5001307470093864600E31807FD3D
S214012DA49307200063C0C7021305900663DAB700D1
S214012DB49307300013058007638CF50267800000D3
S214012DC46780000093073000E314F6FE638AF5007B
S214012DD483A7C199238607001305C00667800000F0
S214012DE483A7C1992386070013054007678000005F
S214012DF483A7C1992386070013057007678000001F
S214012E04130101FF2326110083A74199639A070240
S214012E1483A70199638E070213071000638CE700EA
S214012E24130720006396E702EFF09FB4EFF05FBC50
S214012E346F000002EFF0DFAEEFF09FBB6F004001C2
S214012E44130710006380E702130720006380E7047A
S214012E5403A7419923A8E1988320C1001301010126
S214012E646780000083A70199638C0700130720007D
S214012E74E390E7FEEFF0DFAFEFF09FC06FF05FFD8A
S214012E84EFF01FA5EFF0DFBF6FF09FFC83A701995A
S214012E94638C070013071000E39CE7FAEFF05FA8C2
S214012EA4EFF01FC76FF0DFFAEFF09FA2EFF05FC6F7
S214012EB46FF01FFAB7E731009387C71B1385C70066
S214012EC4930580006F00C000938747006386A702BE
S214012ED403A7070083264703E388B6FE03260704F1
S214012EE403260600E342C0FE232CD7029306800085
S214012EF4232AD7026FF05FFDB7E631009386C61B1F
S214012F049387C60093868601130580006F00C00070
S214012F14938747006384D70203A707000326470362
S214012F24E308A6FE8325070483A50500E342B0FE55
S214012F34232CC702232AA7026FF09FFD6780000097
S214012F4437E731001307C71B9306C70093850600AE
S214012F5413050000130610008327070083A7C7057F
S214012F64B387C74093B717003305F50083A7060058
S214012F7483A7C705B387C74093B717003305F50082
S214012F841307470093864600E318B7FC67800000E2
S214012F94130101F4232E110A232C810A232A910AF0
S214012FA42328210B2326310B2324410B2322510BE7
S214012FB423850198A38401982384019883A7C19942
S214012FC483C6070013071006638CE60E03A7870063
S214012FD413172700B7E731009387C71BB387E700AA
S214012FE483A7C70003A7070523AAE198EFF05FE1CB
S214012FF483A7C19983A78700639407006F20C02223
S214013004130710006394E7006F20C02813072000FD
S2140130146394E7006F20C02E03A501A6EFE0DFA2AC
S21401302403A501A5EFE05FA203A501A4EFE0DFA1DC
S2140130340325C105EFE05FA103250106EFE0DFA04C
S21401304403254106EFE05FA0377505001305C5E0CB
S214013054EF90401983A7C19903A6870083C507008B
S21401306437750500130505C0EF908005EFD0CFCD69
S2140130742320A104631405006F20402F03A9C199DE
S214013084B7E431001385C41B832589001305C500E5
S214013094EFF05FC82324A90083A7C199130710067C
S2140130A42380E7009384C41B130400009309800063
S2140130B4377A0500B77A0500130930006F30105DC2
S2140130C403A7470013172700B7E731009387C71BE9
S2140130D4B387E70083A7070003A7070523AAE19898
S2140130E4EFF01FD283A7C19983A74700638A070A13
S2140130F413071000638AE71013072000638CE71692
S21401310403A501A6EFE05F9403A501A5EFE0DF9315
S21401311403A501A4EFE05F930325C105EFE0DF9269
S21401312403250106EFE05F9203254106EFE0DF91F8
S21401313437750500130505BFEF90C00A83A7C1992B
S21401314403A6470083C5070037750500130505C0A8
S214013154EF801077EFD04FBF2320A1046302051838
S21401316403A9C199B7E43100832549001385C41B1B
S214013174EFF05FBA2322A90083A7C199130720069B
S2140131842380E7009384C41B130400009309800082
S214013194377A0500B77A0500130930006F2040001E
S2140131A43774050013080002930700011307B00CD7
S2140131B493066012130600009305C40C1305C1059B
S2140131C4EFF00F8D13080002930700011307B00CEC
S2140131D493066026130600009305C40C1305010626
S2140131E4EFF00F8B13080002930700011307B00CCE
S2140131F49306603A130600009305C40C13054106B2
S214013204EFF00F896FF0DFEF377405001304C44C39
S21401321413080002930700011307B00C930660120B
S21401322413060000930504001305C105EFF04F864D
S21401323413080002930700011307B00C93066026D7
S214013244130600009305040013050106EFF04F84EE
S21401325413080002930700011307B00C9306603AA3
S214013264130600009305040013054106EFF04F8290
S2140132746FF01FE9378405001304C48C1308000299
S214013284930700011307B00C93066012130600009F
S214013294930504001305C105EFE09FFF1308000220
S2140132A4930700011307B00C93066026130600006B
S2140132B49305040013050106EFE09FFD13080002C1
S2140132C4930700011307B00C9306603A1306000037
S2140132D49305040013054106EFE09FFB6FF05FE2E0
S2140132E42320610B232E7109232C8109232A91099A
S2140132F42328A1092326B10903A581A5EFE0CFF46C
S21401330403A581A4EFE04FF403A581A3EFE0CFF377
S2140133140325C105EFE04FF303250106EFE0CFF2E5
S21401332403254106EFE04FF237750500130585C303
S214013334EF80506BB78405009384C4CC37E4310026
S2140133441304C41B930800001308E00D9307A00C94
S214013354130790019306E0001306200093850400EA
S21401336413058401EF409073930800001308E00DE1
S2140133749307A020130790019306E000130620008C
S2140133849385040013058403EF40507193080000ED
S2140133941308E00D9307A034130790019306E00089
S2140133A4130620009385040013058405EF40106F6F
S2140133B4377505001305C5C5EF80D06283A7C1998B
S2140133C483A74700939727003304F4008327040058
S2140133D483A7070283A70700232EF100930C00009E
S2140133E4B7E73100938DC71B83A7018603A84186DF
S2140133F42324F1022326010337070A008327076FD4
S2140134040328476F2328F102232A01038327076F22
S2140134142324F1048327476F2326F10483A781809D
S21401342403A8C180232CF102232E010393878D0167
S2140134342322F1046F00802B83274703232CF702F2
S21401344403A7460013172700B7E731009387C71B66
S214013454B387E70083A707001307800023AAE702C0
S21401346483A746006386070A130710006380E70EE6
S21401347413072000930610002320D1046386E71067
S21401348437E431001304C41B832544031309840160
S2140134949385F5FF13050900EF50000583254403C2
S2140134A4930484039385F5FF13850400EF50C0034A
S2140134B483254403130484059385F5FF130504004B
S2140134C4EF50800213050900EF50400813850400ED
S2140134D4EF50C00713050400EF504007EFE0CFB1EB
S2140134E423840198A38401982385019883270104E2
S2140134F46380074A032B010A832BC109032C810924
S214013504832C4109032D0109832DC1086FF05FC582
S21401351403A5419EEFE04FD303A5819DEFE0CFD2F3
S21401352403A5C19CEFE04FD203A5419EEFE05FE9FE
S21401353403A5819DEFE0DFE803A5C19CEFE05FE80A
S214013544930710002320F1046FF09FF303A5019E57
S214013554EFE08FCF03A5419DEFE00FCF03A5819C3C
S214013564EFE08FCE03A5019EEFE09FE503A5419D05
S214013574EFE01FE503A5819CEFE09FE493071000AD
S2140135842320F1046FF0DFEF03A5C19DEFE0CFCB5D
S21401359403A5019DEFE04FCB03A5419CEFE0CFCA05
S2140135A403A5C19DEFE0DFE103A5019DEFE05FE127
S2140135B403A5419CEFE0DFE0930710002320F1040C
S2140135C46FF01FEC83A7C19983A747009397270041
S2140135D4B387FD0083A5040003A50700EFD0DF82AF
S2140135E46306050023268A01930B0C00130444008A
S2140135F4130A4A0093844400630CA40383A7C19965
S21401360483A7470093972700B387FD0003A5070008
S21401361483250400E308B5FAEFD00FFFE30405FAA7
S214013624930710002320FA00930B10006FF09FF904
S21401363463940B1883A7C19983A747009397270020
S214013644B387FD009305000003A50700EFD0DFC094
S21401365483A7C19983A7470093972700B387FD00E3
S21401366483A7070003A7070523AAE19803290104F2
S21401367463C60C2813850C00EF709047032681025D
S2140136848326C102EF60801E93040500138405009F
S2140136940326010383264103EF60D01E6356A00070
S2140136A4832481040324C104032681038326C103DE
S2140136B41385040093050400EF60503DEF70103B42
S2140136C49309050083A44D036344952463C2A42887
S2140136D49385090003254104EF40906063040900C3
S2140136E4B30C9041EFF00FD2EFF08FF113850C007D
S2140136F4EF701040EFD00FAC03A6018683A6418677
S214013704EF605028E35E05D6EFD08F82930505005F
S214013714B7070A009387070183A78701E382A7D621
S21401372483A7C19983A7470093972700B387FD0012
S2140137341306000003A50700EFD0DFD383A6C199C3
S21401374483A7460093972700B387FD0003A70700C6
S2140137548327470203A607009307D011E3CEC7CCFD
S2140137648327070283A707002320F1020327C10149
S214013774B38CE740232401062326010623280106E9
S214013784232A0106232C0106232E0106B7E731005E
S214013794938AC71B130981069389CA00138D0900EE
S2140137A493840900130A09001384C71B930B0000B2
S2140137B4130C10006FF09FE4938B0A00138B09001F
S2140137C4130A090093045000130C20006F004006EE
S2140137D4138D0B0003A54B018327450503A7C701DA
S2140137E46358E0021304000083A70700131724009C
S2140137F4B387E70003A50700EFE0CFF31304140033
S21401380403254D018327450503A7C701E34EE4FCC1
S214013814EFD04FF26F00800283274A01639E0702AE
S2140138249384F4FF130ACAFF130BCBFF938BCBFFCE
S214013834E3449CFE83274A01E39C07F89384F4FF40
S2140138449307F0FF638EF404130ACAFF130BCBFF2E
S214013854938BCBFF6FF0DFFD130D0B0003258B005D
S2140138648327450503A7C7016358E0021304000034
S21401387483A7070013172400B387E70003A50700EF
S214013884EFE04FEB1304140003258D008327450551
S21401389403A7C701E34EE4FCEFD0CFE96FF05FF86E
S2140138A483A7C19983A7470093972700B387FD0091
S2140138B49305000003A50700EFD01F9A1304000028
S2140138C493042000130A60006F30C0768327090032
S2140138D4639E070013041400E30C44D7938A4A003A
S2140138E493894900130949006F30C0749305000099
S2140138F403A549FFEFD05F966FF0DFFD8327C10173
S21401390403270102B38CE740130910006FF09FD61A
S2140139141394240083A78D01B387870003A50700AA
S214013924EFE04FE183A78D03B387870003A5070064
S214013934EFE04FE083A78D05B387870003A5070053
S214013944EFE04FDF9384F4FFE3D434FD6FF05FD8E8
S2140139541394240083A78D01B387870003A507006A
S214013964EFE08F8E83A78D03B387870003A5070037
S214013974EFE08F8D83A78D05B387870003A5070026
S214013984EFE08F8C93841400E39499FC6FF05FD47A
S21401399483A7C19903A6470083C5070037750500A9
S2140139A4130505C8EF80C07103A5C1A5EFE0CF8953
S2140139B403A5C1A4EFE04F8903A5C1A3EFE0CF8817
S2140139C40325C105EFE04F8803250106EFE0CF8705
S2140139D403254106EFE04F87EFC05FC66304050089
S2140139E46F10C07803A541A5EFE00F8603A541A497
S2140139F4EFE08F8503A541A3EFE00F8583A74199E7
S214013A046384070E13071000638EE7101307200064
S214013A146388E71437750500130545CEEF80807C6F
S214013A24130700009307000023A4E1A823A6F1A826
S214013A3423A0E1A823A2F1A883A7C19903A747005D
S214013A4413172700B7E731009387C71BB387E7002F
S214013A5483A7070003A7470283A7070283A60700D5
S214013A64130800029307000203270700938686FFC4
S214013A7413060000B75507009385858B1385819E31
S214013A84EFE01F8103A5819EEFD01FFC130C1000ED
S214013A94930400001304000003AB818183ABC1814E
S214013AA403A8C18683A781862320F102232201036A
S214013AB403A8418783A701872324F1022326010350
S214013AC403AD018A83AD418AB7070A0003AA076FCB
S214013AD483AA476F03A7076F232EE10083A7476FC7
S214013AE42320F1046F00401D37750500130505CC2E
S214013AF4EF80406F930800001308D00D9307201041
S214013B04130790019306E00013062000B78505000D
S214013B149385C5CC37E5310013054523EF4000787E
S214013B246FF05FEF377505001305C5CCEF80806B2A
S214013B34930800001308D00D93072024130790015F
S214013B449306E00013062000B78505009385C5CCCF
S214013B5437E5310013054523EF4040746FF09FEBC2
S214013B6437750500130585CDEF80C06793080000FF
S214013B741308D00D93072038130790019306E0002D
S214013B8413062000B78505009385C5CC37E53100BB
S214013B9413054523EF4080706FF0DFE703A5819E90
S214013BA4EFE04FB903A5819EEFE09F8163120C28D5
S214013BB483A7C19903A7470013172700B7E7310066
S214013BC49387C71BB387E70083A7070003A74702AA
S214013BD483A7070283A607001308000293070002BF
S214013BE403270700938686FF13060000B7C5060061
S214013BF49385858B1385819EEFE08FE903A5819ECE
S214013C04EFD09FE493840C0013840900B7070A00DD
S214013C1483A78703E3862701B7070A0083A7070458
S214013C24E38A2705B7070A0083A7C702E38E270995
S214013C34B7070A0083A70703E38C2711B7070A000F
S214013C4483A78704E38A271903A6818083A6C180F4
S214013C5403A501A883A541A8EF5050411309050007
S214013C649389050013060A0093860A00EF608041D3
S214013C746356A0000329C1018329010403A6818098
S214013C8483A6C1801305090093850900EF600060CF
S214013C94EF70C05D93090500B7E7310003A9072556
S214013CA4E34E2531E340A9349385090037E5310015
S214013CB413054523EF40D002EFC0DFB91309050011
S214013CC483AC81A883A9C1A81386040093060400C3
S214013CD413850C0093850900EF600032E30805F2B2
S214013CE4130600009306000013850C009385090053
S214013CF4EF608030E30405EA13060B0093860B009D
S214013D0413850C0093850900EF60002F630A0516DE
S214013D14032601028326410213850C0093850900BC
S214013D24EF60802D63080520032681028326C102E5
S214013D3413850C0093850900EF60002C6306052AA1
S214013D4403A6818783A6C18713850C009385090082
S214013D54EF60802A6304053403A6018883A641889C
S214013D6413850C0093850900EF6000296302053E64
S214013D7403A6818883A6C18813850C009385090050
S214013D84EF6080276300054803A6018983A641895D
S214013D9413850C0093850900EF600026630E055019
S214013DA403A6818983A6C18913850C00938509001E
S214013DB4EF608024630C055A03A6018A83A6418A10
S214013DC413850C0093850900EF600023E31805E2D0
S214013DD403A5819EEFE00F9603A5819EEFE04FDEDB
S214013DE483A7C19903A7470013172700B7E7310034
S214013DF49387C71BB387E70083A7070003A7470278
S214013E0483A7070283A6070013080002930700028C
S214013E1403270700938686FF13060000B7050700ED
S214013E249385850B1385819EEFE08FC66FF01FDDAA
S214013E3483A7C19903A7470013172700B7E73100E3
S214013E449387C71BB387E70083A7070003A7470227
S214013E5483A7070283A6070013080002930700023C
S214013E6403270700938686FF13060000B75507004D
S214013E749385858B1385819EEFE08FC16FF01FD8E4
S214013E8403A5819EEFE00F8B03A5819EEFE04FD340
S214013E94631A0C0483A7C19903A7470013172700C5
S214013EA4B7E731009387C71BB387E70083A70700EB
S214013EB403A7470283A7070283A607001308000285
S214013EC49307000203270700938686FF1306000064
S214013ED4B7C506009385850B1385819EEFE04FBB1E
S214013EE46FF0DFD183A7C19903A7470013172700F3
S214013EF4B7E731009387C71BB387E70083A707009B
S214013F0403A7470283A7070283A607001308000234
S214013F149307000203270700938686FF1306000013
S214013F24B74507009385850B1385819EEFE04FB651
S214013F346FF0DFCC03A5819EEFD0DFFF03A5819E42
S214013F44EFE00FC8631A0C0483A7C19903A74700BF
S214013F5413172700B7E731009387C71BB387E7001A
S214013F6483A7070003A7470283A7070283A60700C0
S214013F74130800029307000203270700938686FFAF
S214013F8413060000B7D506009385858B1385819E9D
S214013F94EFE00FB06FF09FC683A7C19903A7470050
S214013FA413172700B7E731009387C71BB387E700CA
S214013FB483A7070003A7470283A7070283A6070070
S214013FC4130800029307000203270700938686FF5F
S214013FD413060000B74507009385858B1385819EDC
S214013FE4EFE00FAB6FF09FC103A5819EEFD09FF466
S214013FF403A5819EEFE0CFBC631A0C0483A7C19985
S21401400403A7470013172700B7E731009387C71B99
S214014014B387E70083A7070003A7470283A707021E
S21401402483A607001308000293070002032707006C
S214014034938686FF13060000B7D506009385850B85
S2140140441385819EEFE0CFA46FF05FBB83A7C19970
S21401405403A7470013172700B7E731009387C71B49
S214014064B387E70083A7070003A7470283A70702CE
S21401407483A607001308000293070002032707001C
S214014084938686FF13060000B73507009385850BD4
S2140140941385819EEFE0CF9F6FF05FB603A5819EE7
S2140140A4EFD05FE903A5819EEFE08FB1631A0C049C
S2140140B483A7C19903A7470013172700B7E7310061
S2140140C49387C71BB387E70083A7070003A74702A5
S2140140D483A7070283A607001308000293070002BA
S2140140E403270700938686FF13060000B7E506003C
S2140140F49385858B1385819EEFE08F996FF01FB0B2
S21401410483A7C19903A7470013172700B7E7310010
S2140141149387C71BB387E70083A7070003A7470254
S21401412483A7070283A60700130800029307000269
S21401413403270700938686FF13060000B73507009A
S2140141449385858B1385819EEFE08F946FF01FAB6B
S21401415403A5819EEFD01FDE03A5819EEFE04FA647
S214014164631A0C0483A7C19903A7470013172700F2
S214014174B7E731009387C71BB387E70083A7070018
S21401418403A7470283A7070283A6070013080002B2
S2140141949307000203270700938686FF1306000091
S2140141A4B7E506009385850B1385819EEFE04F8E58
S2140141B46FF0DFA483A7C19903A74700131727004D
S2140141C4B7E731009387C71BB387E70083A70700C8
S2140141D403A7470283A7070283A607001308000262
S2140141E49307000203270700938686FF1306000041
S2140141F4B72507009385850B1385819EEFE04F89CC
S2140142046FF0DF9F03A5819EEFD0DFD203A5819EC9
S214014214EFE00F9B631A0C0483A7C19903A7470019
S21401422413172700B7E731009387C71BB387E70047
S21401423483A7070003A7470283A7070283A60700ED
S214014244130800029307000203270700938686FFDC
S21401425413060000B7F506009385858B1385819EAA
S214014264EFE00F836FF09F9983A7C19903A74700D7
S21401427413172700B7E731009387C71BB387E700F7
S21401428483A7070003A7470283A7070283A607009D
S214014294130800029307000203270700938686FF8C
S2140142A413060000B72507009385858B1385819E29
S2140142B4EFD01FFE6FF09F9403A5819EEFD09FC79A
S2140142C403A5819EEFE0CF8F631A0C0483A7C199DF
S2140142D403A7470013172700B7E731009387C71BC7
S2140142E4B387E70083A7070003A7470283A707024C
S2140142F483A607001308000293070002032707009A
S214014304938686FF13060000B7F506009385850B92
S2140143141385819EEFD0DFF76FF05F8E83A7C19977
S21401432403A7470013172700B7E731009387C71B76
S214014334B387E70083A7070003A7470283A70702FB
S21401434483A6070013080002930700020327070049
S214014354938686FF13060000B71507009385850B21
S2140143641385819EEFD0DFF26FF05F8903A5819EEE
S214014374EFD05FBC03A5819EEFE08F84631A0C0423
S21401438483A7C19903A7470013172700B7E731008E
S2140143949387C71BB387E70083A7070003A74702D2
S2140143A483A7070283A607001308000293070002E7
S2140143B403270700938686FF13060000B705070048
S2140143C49385858B1385819EEFD09FEC6FF01F83B9
S2140143D483A7C19903A7470013172700B7E731003E
S2140143E49387C71BB387E70083A7070003A7470282
S2140143F483A7070283A60700130800029307000297
S21401440403270700938686FF13060000B7150700E7
S2140144149385858B1385819EEFD09FE76FF00FFE02
S21401442403A981A883A9C1A813060D0093860D00CC
S2140144341305090093850900EF50103CE306058037
S21401444403A6818183A6C18113050900938509000A
S214014454EF40503523A4A1A823A6B1A8130605004E
S2140144649386050037750500130545D0EF70504552
S2140144746FF08FFD03A981A883A9C1A813060000C4
S214014484930600001305090093850900EF50D03602
S214014494630C05FA03A6818183A6C181130509006D
S2140144A493850900EF60004C23A4A1A823A6B1A814
S2140144B4130605009386050037750500130545D0D8
S2140144C4EF7010406FF04FF81306000093060000DB
S2140144D423A4C1A823A6D1A837750500130585D141
S2140144E4EF70505003A5819EEFD0DFA403A5819EF3
S2140144F4EFD01FED83A7C19903A747001317270021
S214014504B7E731009387C71BB387E70083A7070084
S21401451403A7470283A7070283A60700130800021E
S2140145249307000203270700938686FF13060000FD
S214014534B75507009385858B1385819EEFD05FD58C
S21401454403A5819EEFD04FD0130C10006FF0CFEF70
S214014554130600009306000023A4C1A823A6D1A82D
S21401456403A5819EEFD01F9D03A5819EEFD05FE535
S21401457483A7C19903A7470013172700B7E731009C
S2140145849387C71BB387E70083A7070003A74702E0
S21401459483A7070283A607001308000293070002F5
S2140145A403270700938686FF13060000B7C5060097
S2140145B49385858B1385819EEFD09FCD03A5819E20
S2140145C4EFD08FC8377505001305C5D2EF7090413B
S2140145D4130C00006FF04FE703A601A883A641A8B9
S2140145E437750500130505D4EF70902D03A601A8B1
S2140145F483A641A837750500130585D6EF70502CA0
S21401460437E431001304C41B83A7C19983A7470069
S21401461493972700B307F40083A7070003A747026D
S2140146240326070083A7070283A507002320810129
S21401463403A801A883A841A803A781A883A7C1A8A2
S214014644B7860500938646D01306760093858500C3
S21401465413058409EF40802A8325440993048407BB
S2140146649385F5FF13850400EF301068032584094C
S214014674EFD08FBD03A5819EEFD0DF8B03A5819E6E
S214014684EFD01FD423840198A3840198238501982D
S21401469413850400EF30906B23A801A89304800CC3
S2140146A4138A07009309200037E431001304C41B5E
S2140146B413098409930A403D83A701A963C8F90431
S2140146C403258409EFD01F8713050900EF40404FE7
S2140146D413050900EF40805D03258409832705003F
S2140146E483A707009387A70063F4FA006F201010CE
S2140146F4EFD08FB58327440A23AAF198EFE04FF051
S214014704EFE04FD09384F4FFE39804FA377505007D
S2140147141305C5E1EF70102D37E431001304C41BF3
S21401472403258409EFD01F810329840983274900BF
S21401473403A50700EF60D03B03A6818083A6C18052
S214014744EF604022EF6090321304050083270900CE
S21401475403A50700EF60D03903A6818083A6C18034
S214014764EF604020EF6090309306050013082003A5
S214014774930720031307040013060000B755070028
S2140147849385850B1385C1A2EFD09FB003A5C1A263
S214014794EFD08FABEFE00FC71304C00003A5C1A28F
S2140147A4EFD04FF91304F4FF6302040603A5C1A274
S2140147B4EFD08FA9EFE00FC56FF05FFEB7EC3100C5
S2140147C4938CCC1B83A78C0713172900B387E700A8
S2140147D403A50700EFD00FF61309F9FFE35439FFD9
S2140147E46FF08FCCB7EC3100938CCC1B83A78C076E
S2140147F413172900B387E70003A50700EFD0CFA45A
S21401480413091900E39429FF6FF00FCAEFE08FBF75
S21401481403A5C1A2EFD0DFBA377505001305C5D7C6
S214014824EF70501C37E431001305C41B9304C50014
S214014834138604009305C41B13058509EF404059EC
S214014844EFE04FE7EFE0CFEF930505002320A10249
S21401485437750500130585D9EF709006130BC41B35
S214014864232091041304C41B130900009309800038
S214014874130A3000930A10006F0040118327C50500
S214014884639C5711EFC00FEB630A090293071000EC
S2140148946300F906930720006306F90803A50400DC
S2140148A40327450393078000630EF70E13091900C7
S2140148B413044400938444006F00400D03A5419EF5
S2140148C4EFD08F9803A5819DEFD00F9803A5C19CC7
S2140148D4EFD08F9703A5419EEFD09FAE03A5819D90
S2140148E4EFD01FAE03A5C19CEFD09FAD6FF01FFBA9
S2140148F403A5019EEFD04F9503A5419DEFD0CF941C
S21401490403A5819CEFD04F9403A5019EEFD05FAB26
S21401491403A5419DEFD0DFAA03A5819CEFD05FAA32
S2140149246FF0DFF703A5C19DEFD00F9203A5019D9C
S214014934EFD08F9103A5419CEFD00F9103A5C19DA4
S214014944EFD01FA803A5019DEFD09FA703A5419C07
S214014954EFD01FA703A50400032745039307800090
S2140149646304F7006F2040660327C505930710000C
S2140149746314F7006F2000621309190063144901D8
S2140149846F208064130444009384440003250400C8
S21401499483274503E38437EF03A5040083274503F0
S2140149A4E39C37FD8327C505E39857FDEFC08FD8F1
S2140149B46304090293071000630AF90493072000AD
S2140149C46314F9006F20405D1309190013044400B1
S2140149D4938444006FF09FFB03A5019CEFD0CF8620
S2140149E403A5419BEFD04F8603A5819AEFD0CF85CF
S2140149F403A5019CEFD0DF9C03A5419BEFD05F9CF0
S214014A0403A5819AEFD0DF9B6FF01FFC03A5C19B22
S214014A14EFD08F8303A5019BEFD00F8303A5419AA3
S214014A24EFD08F8203A5C19BEFD09F9903A5019B6D
S214014A34EFD01F9903A5419AEFD09F986FF0DFF846
S214014A44EFC00FB18325040003A745039307800035
S214014A54630EF70003A7C503930710006312F70458
S214014A6403A705069307300163DCE702130B1B005B
S214014A74232401062326010623280106232A0106E8
S214014A84232C0106232E0106130C8106832C010414
S214014A94930D0C00832BC101232401026F00C01166
S214014AA403258103EF40C04D930505000325090046
S214014AB40326C503EFC05FD58327090003A7470272
S214014AC4832607001307D011E354D7FA03A7470335
S214014AD423ACE7021307800023AAE70263840404D5
S214014AE493071000638AF40693072000E392F4F810
S214014AF403A5C19DEFC05FF503A5019DEFC0DFF4DB
S214014B0403A5419CEFC05FF403A5C19DEFD05F8B65
S214014B1403A5019DEFD0DF8A03A5419CEFD05F8AF0
S214014B246FF01FF503A5419EEFC01FF203A5819DFB
S214014B34EFC09FF103A5C19CEFC01FF103A5419EE1
S214014B44EFD01F8803A5819DEFD09F8703A5C19C45
S214014B54EFD01F876FF0DFF103A5019EEFC0DFEEF4
S214014B6403A5419DEFC05FEE03A5819CEFC0DFED79
S214014B7403A5019EEFD0DF8403A5419DEFD05F849A
S214014B8403A5819CEFD0DF836FF09FEE83A50C0015
S214014B9403250900EFC04FA763080500930710001B
S214014BA423A6FD0023245103938B4B00938D4D00C4
S214014BB4938C4C0063047D030325090083A50B0035
S214014BC4E306B5FCEFC04FA4E30205FC930710000F
S214014BD423A0FD00232451036FF05FFB832781028A
S214014BE4639A07009305000003250900EFC0CFE68A
S214014BF46F00004A832DC101832701042324F10297
S214014C04930C0C00930B50006F0000072328B1038C
S214014C1403A54D018327450503A7C701635AE0028F
S214014C24930A000083A7070013972A00B387E700B7
S214014C3403A50700EFD00FB0938A1A008327010358
S214014C4403A547018327450503A7C701E3CCEAFC6F
S214014C54EFC04FAE6F00400383A74C01639807046F
S214014C64938BFBFF938CCCFF832781029387C7FF2B
S214014C742324F102938DCDFF93072000E3CE77FD25
S214014C8483A74C01E39407F8938BFBFF9307F0FF8C
S214014C946386FB06938CCCFF832781029387C7FF29
S214014CA42324F102938DCDFF6FF01FFD832781022C
S214014CB42328F10203A587008327450503A7C70117
S214014CC4635AE002930A000083A7070013972A0099
S214014CD4B387E70003A50700EFD0CFA5938A1A0090
S214014CE48327010303A587008327450503A7C70177
S214014CF4E3CCEAFCEFC00FA46FF09FF69305000027
S214014D0403250900EFC04FD5832B0104832AC10173
S214014D1413090000930C20006F20C02583270C0084
S214014D246390070213091900930760006302F936BA
S214014D34938A4A00938B4B00130C4C006F208023FC
S214014D449305000003A54BFFEFC00FD16FF09FFD45
S214014D54EFC00F808325040003A745039307800053
S214014D64630EF70003A7C503930710006312F70445
S214014D7403A705069307300163DCE702130B1B0048
S214014D84232401062326010623280106232A0106D5
S214014D94232C0106232E0106130C8106832C010401
S214014DA4930D0C00832BC101232401026F00001014
S214014DB403258103EF40C01C930505000325090064
S214014DC40326C503EFC05FA48327090003A7470290
S214014DD4832607001307D011E354D7FA03A7470322
S214014DE423ACE7021307800023AAE70263840404C2
S214014DF493071000638AF40693072000E392F4F8FD
S214014E0403A5819BEFC05FC403A5C19AEFC0DFC3AE
S214014E1403A5019AEFC05FC303A5819BEFD04FDAC8
S214014E2403A5C19AEFD0CFD903A5019AEFD04FD9E4
S214014E346FF01FF503A5019CEFC01FC103A5419B9D
S214014E44EFC09FC003A5819AEFC01FC003A5019CB4
S214014E54EFD00FD703A5419BEFD08FD603A5819A38
S214014E64EFD00FD66FF0DFF103A5C19BEFC0DFBD16
S214014E7403A5019BEFC05FBD03A5419AEFC0DFBC4C
S214014E8403A5C19BEFD0CFD303A5019BEFD04FD38E
S214014E9403A5419AEFD0CFD26FF09FEE938B4B00D0
S214014EA4938D4D00938C4C0063027D0583A50B0006
S214014EB403250900EFB05FF56308050093071000AA
S214014EC423A0FD00232451030325090083A50C0018
S214014ED4E306B5FCEFB05FF3E30205FC93071000AD
S214014EE423A6FD00232451036FF05FFB8327810271
S214014EF4639A07009305000003250900EFC0CFB5A8
S214014F046F00C01B832DC101832701042324F102F2
S214014F14930C0C00930B50006F0000072328B10379
S214014F2403A54D018327450503A7C701635AE0027C
S214014F34930A000083A7070013972A00B387E700A4
S214014F4403A50700EFC01FFF938A1A0083270103F6
S214014F5403A547018327450503A7C701E3CCEAFC5C
S214014F64EFB05FFD6F00400383A74C01639807040D
S214014F74938BFBFF938CCCFF832781029387C7FF18
S214014F842324F102938DCDFF93072000E3CE77FD12
S214014F9483A74C01E39407F8938BFBFF9307F0FF79
S214014FA46386FB06938CCCFF832781029387C7FF16
S214014FB42324F102938DCDFF6FF01FFD8327810219
S214014FC42328F10203A587008327450503A7C70104
S214014FD4635AE002930A000083A7070013972A0086
S214014FE4B387E70003A50700EFC0DFF4938A1A002E
S214014FF48327010303A587008327450503A7C70164
S214015004E3CCEAFCEFB01FF36FF09FF693050000C4
S21401501403250900EFC04FA4832B0104832AC10191
S21401502413090000930C20006F10D07183270C0025
S2140150346390070213091900930760006300F908D7
S214015044938A4A00938B4B00130C4C006F10906F9D
S2140150549305000003A54BFFEFC00FA06FF09FFD63
S214015064EFD05FBA832701026302FB060324C10162
S21401507493040000130B0000130A10009309300078
S2140150841309040003250400832AC505E38A4A9B01
S2140150949384140013044400E39434FF03240104AA
S2140150A493040000130A1000930930001309040046
S2140150B403250400832AC505E38C4AC99384140096
S2140150C413044400E39434FF6FF09FF9032BC101EA
S2140150D437E5310013054525EF3080591306CB001B
S2140150E4130710001305000093050000832701042D
S2140150F46F00C00223AE060483A6860223A0A60080
S21401510423A2B60083260B0023A006066F00C00167
S214015114130B4B0093874700630C660383260B002F
S21401512403A8C605E308E8FC83A6070003A8C6058A
S214015134E310E8FE23AE060483A6860223A0A60097
S21401514423A2B60083A6070023A006066FF05FFC21
S214015154032B010A832BC109032C8109832C4109E2
S214015164032D0109832DC1086FD09FFF032B010A6C
S214015174832BC109032C8109832C4109032D0109C1
S214015184832DC1086FD0DFFD9305040013850ADB68
S214015194EF60107313041400938444006300240323
S2140151A483A7040083A74703E38037FF930504001E
S2140151B413050ADCEF60D0706FF0DFFDB7E4310051
S2140151C49384841C1304000093098000377A050035
S2140151D4B77A0500130930006F00C0019305040077
S2140151E413850ADDEF60D06D130414009384440024
S2140151F46300240383A7040083A74703E38037FFE0
S2140152049305040013050ADEEF60906B6FF0DFFD73
S214015214EFD01FB49305050037750500130505DFA8
S214015224EF60106A6F10D04E37840500130444D221
S21401523413080002930700011307B00C93066012CB
S21401524413060000930504001305C105EFD04F842F
S21401525413080002930700011307B00C9306602697
S214015264130600009305040013050106EFD04F82D0
S21401527413080002930700011307B00C9306603A63
S214015284130600009305040013054106EFD04F8072
S2140152946FD09FD837840500130444121308000204
S2140152A4930700011307B00C93066012130600005F
S2140152B4930504001305C105EFC09FFD1308000202
S2140152C4930700011307B00C93066026130600002B
S2140152D49305040013050106EFC09FFB13080002A3
S2140152E4930700011307B00C9306603A13060000F7
S2140152F49305040013054106EFC09FF96FD0DFD173
S214015304378405001304445213080002930700016E
S2140153141307B00C930660121306000093050400ED
S2140153241305C105EFC0DFF6130800029307000159
S2140153341307B00C930660261306000093050400B9
S21401534413050106EFC0DFF41308000293070001FA
S2140153541307B00C9306603A130600009305040085
S21401536413054106EFC0DFF26FD01FCB2320610B7C
S214015374232E7109232C8109232A91092328A109A3
S2140153842326B10903A581A5EFC00FEC03A581A4CB
S214015394EFC08FEB03A581A3EFC00FEB0325C10577
S2140153A4EFC08FEA03250106EFC00FEA0325410685
S2140153B4EFC08FE9B78405009384C4CC37E4310089
S2140153C41304C41B930800001308E00D9307A00CF4
S2140153D4130790019306E00013062000938504004A
S2140153E413058401EF20906B930800001308E00D69
S2140153F49307A020130790019306E00013062000EC
S2140154049385040013058403EF2050699308000074
S2140154141308E00D9307A034130790019306E000E8
S214015424130620009385040013058405EF201067F6
S21401543483A7C19983A78700939727003304F400B1
S2140154448327C40083A7070283A70700232EF1003E
S214015454930C0000B7E73100938DC71B83A7018621
S21401546403A841862324F1022326010337070A00F1
S2140154748327076F0328476F2328F102232A010392
S2140154848327076F2324F1048327476F2326F10418
S21401549483A7818003A8C180232CF102232E010354
S2140154A493878D012322F1046F00C01E83274703CF
S2140154B4232CF70203A7860013172700B7E731004A
S2140154C49387C71BB387E70083A7C700130780002A
S2140154D423AAE702930710002320F10437E43100DE
S2140154E41304C41B83254403130984019385F5FF20
S2140154F413050900EF20507F832544039304840396
S2140155049385F5FF13850400EF20107E832544035D
S214015514130484059385F5FF13050400EF20D07C5E
S21401552413050900EF30800213850400EF300002F2
S21401553413050400EF308001EFC00FAC23840198FB
S214015544A384019823850198832701046386073E73
S214015554032B010A832BC109032C8109832C4109DE
S214015564032D0109832DC1086FD05FB113044400D4
S214015574130A4A00938444006300A40783A7C199CD
S21401558483A7870093972700B387FD00832504002C
S21401559403A5C700EFB05F876306050023208A01D1
S2140155A4930B0C0083A7C19983A7870093972700C1
S2140155B4B387FD0003A5C70083A50400E308B5FA75
S2140155C4EFB09F84E30405FA930710002326FA003C
S2140155D4930B10006FF09FF963940B1883A7C1997E
S2140155E483A7870093972700B387FD0093050000E0
S2140155F403A5C700EFB05FC683A7C19983A7870039
S21401560493972700B387FD0083A7C70003A7070561
S21401561423AAE1980329010463C60C2813850C0008
S214015624EF50104D032681028326C102EF40002469
S214015634930405001384050003260103832641030E
S214015644EF4050246356A000832481040324C1043C
S214015654032681038326C1031385040093050400EE
S214015664EF40D042EF5090409309050083A44D03C8
S2140156746344952463C2A428938509000325410441
S214015684EF20106663040900B30C9041EFD08FD766
S214015694EFD00FF713850C00EF509045EFB08FB1A4
S2140156A403A6018683A64186EF40D02DE35805E282
S2140156B4EFB00F8893050500B7070A009387070123
S2140156C483A78701E38CA7E083A7C19983A78700F3
S2140156D493972700B387FD001306000003A5C700B0
S2140156E4EFB05FD983A6C19983A786009397270055
S2140156F4B387FD0003A7C7008327470203A6070055
S2140157049307D011E3C4C7DA8327070283A70700E8
S2140157142320F1020327C101B38CE74023240106A9
S2140157242326010623280106232A0106232C010623
S214015734232E0106B7E73100938AC71B1309810696
S2140157449389CA00138D090093840900130A09007A
S2140157541384C71B930B0000130C10006FF01FE299
S214015764938B0A00138B0900130A09009304500053
S214015774130C20006F004006138D0B0003A54B018C
S2140157848327450503A7C7016358E00213040000F5
S21401579483A7070013172400B387E70003A50700B0
S2140157A4EFC04FF91304140003254D018327450563
S2140157B403A7C701E34EE4FCEFB0CFF76F00800206
S2140157C483274A01639E07029384F4FF130ACAFFE0
S2140157D4130BCBFF938BCBFFE3449CFE83274A0139
S2140157E4E39C07F89384F4FF9307F0FF638EF404B5
S2140157F4130ACAFF130BCBFF938BCBFF6FF0DFFDAE
S214015804130D0B0003258B008327450503A7C7014A
S2140158146358E0021304000083A70700131724004B
S214015824B387E70003A50700EFC0CFF01304140005
S21401583403258D008327450503A7C701E34EE4FC32
S214015844EFB04FEF6FF05FF883A7C19983A7870086
S21401585493972700B387FD009305000003A5C700AF
S214015864EFB09F9F1304000093042000130A600006
S2140158746F10500883270900639E07001304140061
S214015884E30C44D7938A4A009389490013094900D3
S2140158946F1050069305000003A549FFEFB0DF9B88
S2140158A46FF0DFFD8327C10103270102B38CE740B4
S2140158B4130910006FF09FD61394240083A78D015B
S2140158C4B387870003A50700EFC0CFE683A78D0340
S2140158D4B387870003A50700EFC0CFE583A78D052F
S2140158E4B387870003A50700EFC0CFE49384F4FFD2
S2140158F4E3D434FD6FF05FD81394240083A78D019D
S214015904B387870003A50700EFC00F9483A78D0311
S214015914B387870003A50700EFC00F9383A78D0500
S214015924B387870003A50700EFC00F929384140082
S214015934E39499FC6FF05FD483A7C19903A687000B
S21401594483C5070037750500130505C8EF60407762
S21401595403A5C1A5EFC04F8F03A5C1A4EFC0CF8E89
