S00C00006D61696E2E7372656373
S21401009497110800938141171701FF03130141F6D5
S2140100A41385019717F62F001306C6C13306A6401B
S2140100B493050000EF90904417A50000130585BE34
S2140100C4EF805014EF90103413050000930541009F
S2140100D413060000EF00800E6F8010143715090018
S2140100E437170900930745A0130747A0630AF700CB
S2140100F49307000063860700130545A06780070081
S2140101046780000037150900930745A037170900D3
S214010114930547A0B385F54093D7254093D5F501BC
S214010124B385F50093D51540638A0500930700004F
S21401013463860700130545A06780070067800000F3
S214010144130101FF2324810083C701A42326110080
S21401015463940702EFF09FF893070000638A070091
S214010164370509001305853197000000E7000000F4
S214010174930710002380F1A48320C1000324810087
S21401018413010101678000009307000063860702DC
S21401019437050900130101FF938541A41305853131
S2140101A42326110097000000E70000008320C10009
S2140101B4130101016FF01FF56FF0DFF4130101FE67
S2140101C4232E1100232C8100232A910023282101A8
S2140101D423263101EF10D021EF10C062EF10D02C8E
S2140101E413088002930700141307800C930600007B
S2140101F413060000B7E90400938589B71385C19EE9
S214010204EF60801E13088002930700141307800C06
S21401021493060000130600003779040093058977D6
S2140102241385819EEF60401C130880029307001417
S2140102341307800C9306000013060000B71404008D
S214010244938584371385419EEF60001A1308800254
S214010254930700141307800C93060000130600008E
S21401026437B40300930584F71385019EEF60C01726
S21401027413088002930700141307800C93060014D6
S21401028413060000938589B71385C19DEF60C015D9
S21401029413088002930700141307800C93060014B6
S2140102A413060000930589771385819DEF60C013BB
S2140102B413088002930700141307800C9306001496
S2140102C413060000938584371385419DEF60C011A2
S2140102D413088002930700141307800C9306001476
S2140102E413060000930584F71385019DEF60C00F84
S2140102F413088002930700141307800C9306002842
S21401030413060000938589B71385C19CEF60C00D61
S21401031413088002930700141307800C9306002821
S21401032413060000930589771385819CEF60C00B43
S21401033413088002930700141307800C9306002801
S21401034413060000938584371385419CEF60C0092A
S21401035413088002930700141307800C93060028E1
S21401036413060000930584F71385019CEF60C0070C
S214010374130880079307000A13070000930600007A
S214010384130600003724020093058452138501A046
S214010394EF60800503A501A0EF50900003A501A01E
S2140103A4EF608017130880079307000A13070000FD
S2140103B49306000A13060000930584521385C19F11
S2140103C4EF60800203A5C19FEF50807D03A5C19F06
S2140103D4EF608014130880079307000A1307800749
S2140103E49306000013060000930584521385819F2B
S2140103F4EF50907F03A5819FEF50807A03A5819FDC
S214010404EF608011130880079307000A130780071B
S2140104149306000A13060000930584521385419F30
S214010424EF50907C03A5419FEF50807703A5419F31
S214010434EF60800E1308D0089307100D1307E00130
S2140104449306800313060000B7D502009385C5936F
S214010454138581A0EF50507903A581A0EF50407415
S21401046403A581A0EF60400B130810019307A006B3
S2140104741307800C9306B00613060000B7C50200E6
S214010484938585B2138541A0EF50107603A541A04C
S214010494EF50007103A541A0EF600008EF3050252E
S2140104A4130500008320C101032481018324410133
S2140104B4032901018329C100130101026780000099
S2140104C4130101FF2326110037450500130585F79F
S2140104D4EF90802E37450500130545F9EF90C02DA2
S2140104E403A3419483C6919703C68197B7880000F6
S2140104F49305000F130EA0056F00800193060600F6
S21401050413F6F70F23AAF19623A8E196638AB60099
S2140105148327030033F71701E30607FE6FF01FFE78
S214010524E318C6FF238C0196A38C0196238D0196AE
S214010534374505001305C5FAEF9000288320C1004E
S2140105441301010167800000130101FF2326110036
S2140105549300000003AE419483C6819703C6919726
S214010564930F0000930200009303000037830000FA
S2140105749305100013056001930EE001130F000F9D
S2140105846F0080006308E60783270E0033F76700D1
S214010594630E0700930006001386060093F6F70F12
S2140105A4938F0500938205009383050023AAF19691
S2140105B423A8E196E388A6FCE398D6FDE316E6FDB8
S2140105C463860F001307E001238CE196638402001F
S2140105D4238D119663860300130700FFA38CE1960F
S2140105E437450500130505FDEF90001D13051000A2
S2140105F46F00400363860F0013076001238CE196A6
S21401060463840200238D119663860300130700FF9B
S214010614A38CE196374505001305C5FBEF90C01979
S21401062413050000238C0196A38C0196238D019655
S2140106348320C1001301010167800000130101FF3B
S214010644232611009300000003AE419483C68197CC
S21401065403C69197930F00009302000093030000D2
S214010664378300009305100013056001930EE00123
S214010674130F000F6F0080006308E60783270E0040
S21401068433F76700630E070093000600138606001F
S21401069493F6F70F938F0500938205009383050065
S2140106A423AAF19623A8E196E388A6FCE398D6FD4F
S2140106B4E316E6FD63860F001307E001238CE1963B
S2140106C463840200238D119663860300130700FFDB
S2140106D4A38CE19637450500130505FDEF90C00D83
S2140106E4130510006F00400363860F0013076001B3
S2140106F4238CE19663840200238D1196638603009E
S214010704130700FFA38CE19637450500130545FE44
S214010714EF90800A13050000238C0196A38C0196A2
S214010724238D01968320C100130101016780000017
S21401073483A7419483A7070023AAF196378700006D
S21401074433F7E70023A8E19613050000630C0702BC
S21401075403C79197238DE19683C68197A38CD1967F
S21401076493F7F70F238CF1961306000E630EC7005A
S2140107749307E001130500006316F7009307000FC3
S2140107846384F60C67800000130750076384E6064B
S2140107946362D7029307B0066384F606930740079D
S2140107A46398F600B707090003A5C73267800000FF
S2140107B4678000001307000F639AE60213075007C9
S2140107C46386E704130720076388E7041307B00664
S2140107D46386E7061307400713050000E394E7FA68
S2140107E4B707090003A587336780000013050000D7
S2140107F467800000B707090003A507336780000078
S214010804B707090003A5873267800000B707090008
S21401081403A5C73367800000130101FF23261100D7
S2140108243745050013050500EF8010791305000010
S2140108348320C1001301010167800000B707090086
S21401084403A5473367800000B707090003A50734EB
S2140108546780000083A7419483A7070023AAF19623
S2140108643787000033F7E70023A8E1961305000055
S2140108746308070683C69197238DD19603C781978C
S214010884A38CE19693F7F70F238CF1961306000ECB
S2140108946380C60293079002130500006392F60470
S2140108A46304F70A9307000F6300F71067800000DC
S2140108B4930640076308D70663F6E60293065007D5
S2140108C46306D7049306000F631ED7021307500767
S2140108D46380E70613072007130500006380E70615
S2140108E4678000009307B0066308F70293072007A2
S2140108F46318F700B707090003A5473567800000AA
S214010904678000001305000067800000B707090030
S21401091403A5C73467800000B707090003A5873419
S21401092467800000B707090003A547346780000005
S214010934B707090003A5073567800000B707090054
S21401094403A5873567800000130101FF23261100E4
S21401095423248100B717090003A687A083A6C7A08E
S21401096403A501A183A541A1EF50104123A8A1A08D
S21401097423AAB1A003A6818083A6C180EF60104597
S214010984631E0500B707090003A507368320C100C7
S214010994032481001301010167800000B7070900E1
S2140109A403A5C7356FF09FFEB707090003A50736F1
S2140109B467800000130101FF232611002324810010
S2140109C423229100930405001384050013060000F6
S2140109D4930600001385040093050400EF60D047D6
S2140109E46340050213850400930504008320C100B7
S2140109F40324810083244100130101016780000060
S214010A04B707008033C487006FF0DFFD130101FAD6
S214010A14232E1104232C8104232A9104232821053F
S214010A24232631052324410523225105232061056C
S214010A34232E7103232C8103232A91032328A10344
S214010A442326B10313040500938405001309060045
S214010A54138D06002328E100232AF100232C01012B
S214010A64232E1101834D010613050040EF70907D7E
S214010A742320A10013050040EF70D07C2322A1009F
S214010A8413050040EF70107C2324A10013050040D9
S214010A94EF70507B2326A10013050040EF70907A77
S214010AA4930C050013054000EF70D079930B0500F5
S214010AB42320A40213054000EF70D078130B050021
S214010AC42322A40213058000EF70D077930A050051
S214010AD42324A40213058000EF70D076130A0500C0
S214010AE42326A40213054000EF70D075130C0500ED
S214010AF42328A40213054000EF70D074930905005F
S214010B042320A404232A040293071000232CF404AC
S214010B14232E0402930700012322F4049307000200
S214010B242324F40413050002EF70D0711307F013A5
S214010B349307000063589700938704ECB337F700D4
S214010B4493871700232AA404032741062320E406D7
S214010B54232E04042328F404930710002320FC0006
S214010B6423A09B0023202B011307000093070000FA
S214010B7423A0EA0023A2FA002320EA002322FA0093
S214010B849307400623A0F90093071006638EFD1809
S214010B949308A0001308D9FF938734001307A00015
S214010BA4930620001306100093858193EF400032CC
S214010BB413054003EF701069930405002320A40075
S214010BC42322A50393090002232A350113090001F0
S214010BD4232825012324950313054003EF7090660B
S214010BE4130A05002322A400832701012322F50208
S214010BF4232A350123282501832701002324F5020E
S214010C0413054003EF701064930A05002324A4001F
S214010C14832741012322F502232A350123282501AE
S214010C24832741002324F50213054003EF709061E6
S214010C34130B05002326A400832781012322F50232
S214010C44232A350123282501832781002324F5023D
S214010C5413054003EF70105F2328A4008327C10106
S214010C642322F502232A3501232825018327C100DF
S214010C742324F5028325040223A0B4000326440298
S214010C8423A2C4008326840223AED4000327C4020D
S214010C9423A0E4028327040323ACF4002320BA0030
S214010CA42322CA00232EDA002320EA02232CFA0088
S214010CB423A0BA0023A2CA0023AEDA0023A0EA02C4
S214010CC423ACFA002320BB002322CB00232EDB0017
S214010CD42320EB02232CFB002320B5002322C5008E
S214010CE4232ED5002320E502232CF5008320C105FD
S214010CF40324810583244105032901058329C104AD
S214010D04032A8104832A4104032B0104832BC10390
S214010D14032C8103832C4103032D0103832DC1027C
S214010D2413010106678000009308A0001308D9FF89
S214010D34938734001307A0009306200013061000BF
S214010D449385C193EF4080186FF09FE6130101FF6E
S214010D5423261100232481001304050063000504DF
S214010D648327040283A50700032544043385A500CD
S214010D748327440283A6070083278404B386F600E8
S214010D8483A7C1A063980702232E04028320C1000F
S214010D940324810013010101678000003745050023
S214010DA41305C511EF8050216FF09FFB83A7070140
S214010DB4E38C07FC03A74700E3CAE6FE03A6C700C5
S214010DC4E346D6FE03A68700E342B6FE03A6070063
S214010DD4E34EC5FC93071000232EF4028327C402B6
S214010DE4130600009306000023A0C70023A2D70021
S214010DF483274402832684043307D74023A0E700CD
S214010E046FF0DFF8930705000327050303250700A2
S214010E146302050603A7050303250700630C0504FF
S214010E2403A707028326070003A705020326070074
S214010E3403A745043307E6001305000063DCE60256
S214010E4403A74704B386E6006356D60203A7470200
S214010E548326070003A745020326070003A7850484
S214010E643307E60063D8E60083A78704B386F60053
S214010E743325D60067800000930705000327050382
S214010E84032507006302050603A78501032507005A
S214010E94630C050403A707028326070003A70500BE
S214010EA40326070003A705013307E6001305000020
S214010EB463DCE60203A74704B386E6006356D6025C
S214010EC403A747028326070003A745000326070056
S214010ED403A745013307E60063D8E60083A7870422
S214010EE4B386F6003325D600678000000327050283
S214010EF48327070083A6050003A6060093865700EA
S214010F0463D4C7009386B7FF2320D700032745027F
S214010F148327070083A6450003A606009386570089
S214010F2463D4C7009386B7FF2320D70067800000E9
S214010F34130101FF2326110003278503930770007D
S214010F4463E0E7069317270037470500130707638F
S214010F54B387E70083A7070067800700032505001A
S214010F64EF50C0128320C100130101016780000005
S214010F7403254500EF5080116FF0DFFE0325850041
S214010F84EF50C0106FF01FFE0325C500EF50001090
S214010F946FF05FFD03250501EF50400F6FF09FFCD6
S214010FA43745050013058513EF8010016FF09FFB8D
S214010FB46306050A130101FF232611002324810079
S214010FC413040500EFF0DFF68327040003A5870268
S214010FD4EF7010288327440003A58702EF7050277B
S214010FE48327840003A58702EF7090268327C40015
S214010FF403A58702EF70D0258327040103A5870282
S214011004EF7010250325040263040500EF705024D5
S2140110140325440263040500EF709023032584022C
S21401102463040500EF70D0220325C402630405009F
S214011034EF7010220325040363040500EF705021AA
S2140110440325040463040500EF7090208320C10087
S21401105403248100130101016780000067800000FA
S214011064130101FF2326110023248100232291006A
S21401107423202101930405001304000013098002B0
S21401108483A7440583A70700B387870003A5070042
S214011094EF40103113044400E31424FF9305A00029
S2140110A403A54405EF40C0068320C1000324810044
S2140110B48324410003290100130101016780000014
S2140110C4130101FE232E1100232C8100232A9100F3
S2140110D423282101130405008327450503A7C70117
S2140110E46356E0029304000083A7070013972400C5
S2140110F4B387E70003A50700EF40507993841400F3
S2140111048327440503A7C701E3C0E4FE03A74700FA
S2140111148327040283A70700938737002320F70059
S2140111248327440503A787008327440283A7070070
S2140111349387D7FF2320F700930700001308A00026
S214011144032744051396270083260700B386C600A3
S21401115483A6060083A50600032547008326070108
S214011164B386D702032705003307D70023A0E5007B
S2140111748326440503A706003307C7000327070091
S2140111840327470083A6860083A606002320D700EC
S21401119493871700E39607FB8327040403A5070038
S2140111A4EF70407203A6018183A64181EF50504936
S2140111B403A6818183A6C181EF60806AEF704068CF
S2140111C4130905006356A006232631012324410191
S2140111D4232251019304000093096000130A1000AE
S2140111E4930A70006F00C00093841400630C990284
S2140111F403274403E30A37FF832784039387A7FF60
S214011204E374FAFEE30257FF8327440583A7070026
S21401121413972400B387E70003A50700EF4050188F
S2140112246FF09FFC8329C100032A8100832A4100B1
S2140112349305090003254405EF30906D8320C10111
S21401124403248101832441010329010113010102BD
S21401125467800000130101FF232611002324810067
S21401126413040500638405020327840393077000AF
S21401127463E6E70293172700374705001307076558
S214011284B387E70083A7070067800700EFF05FE3F3
S2140112946FF09FFD03250400EF40505F03274403CE
S2140112A49307700063EAE70493172700374705009E
S2140112B413070767B387E70083A70700678007005C
S2140112C403254400EF40905C6FF05FFD0325840026
S2140112D4EF40D05B6FF09FFC0325C400EF40105B2A
S2140112E46FF0DFFB03250401EF40505A6FF01FFB3C
S2140112F403250400EF40D00A8320C10003248100A3
S214011304130101016780000003254400EF405009E2
S2140113146FF09FFE03258400EF4090086FF0DFFD19
S2140113240325C400EF40D0076FF01FFD0325040119
S214011334EF4010076FF05FFC130101FF2326110035
S2140113442324810023222101232031019307100045
S2140113546388F504032485020329040083294400D1
S21401136403A6818383A6C183130509009385090017
S214011374EF60803E6358050A03A7818383A7C18370
S2140113842320E4002322F4008320C10003248100E7
S214011394032941008329010013010101678000002C
S2140113A403248502032904008329440003A6018239
S2140113B483A641821305090093850900EF60C029BD
S2140113C4635CA00003A7018283A741822320E40073
S2140113D42322F4006FF05FFB03A6818283A6C182F9
S2140113E41305090093850900EF600037635C050067
S2140113F403A7818283A7C1822320E4002322F40069
S2140114046FF09FF803A6018383A6418313050900A1
S21401141493850900EF5040162320A4002322B4002C
S2140114246FF09FF603A6018483A641841305090081
S21401143493850900EF604022635CA00003A7018442
S21401144483A741842320E4002322F4006FF0DFF312
S21401145403A6018383A64183130509009385090026
S214011464EF60902D2320A4002322B4006FF0DFF157
S214011474130101FE232E1100232C8100232A91003F
S21401148423282101130405006302052023263101C4
S21401149423244101232251019384050013090600E4
S2140114A483274503232CF502B707090083A5873252
S2140114B413850400EF80101B6306050083A781943F
S2140114C46390070623A4019493091000232A340386
S2140114D49305000013050400EFF01FE6032A040237
S2140114E4832A840203250A00EF70C03D03A60A007E
S2140114F483A64A00EF504008EF7080342320AA00E8
S2140115048327840203A5070083A54700EF704033B1
S21401151483270900B387A7002320F900232C340569
S214011524B707090083A5C73213850400EF8090131B
S2140115346306050083A7C1946390070623A6019456
S21401154493092000232A340393051000130504008D
S214011554EFF09FDE032A0402832A840203250A008D
S214011564EF70403603A60A0083A64A00EF50C00077
S214011574EF70002D2320AA008327840203A5070009
S21401158483A54700EF70C02B83270900B387A70004
S2140115942320F900232C3405B707090083A5073354
S2140115A413850400EF80100C631805000327C40498
S2140115B49307100063D4E70EB707090083A54733E2
S2140115C413850400EF80100A631005028327840242
S2140115D4130600009306000023A0C70023A2D70029
S2140115E41307100023A4E194B707090083A58733E2
S2140115F413850400EF801007631C050E83278402FD
S214011604130600009306000023A0C70023A2D700F8
S2140116141307100023A6E1948329C100032A81003D
S214011624832A41008327840203A5070083A5470074
S214011634EF700021631E05008324C40203A5040081
S21401164483A54400EF70C01F631C050A232A040205
S2140116548324C40203A5040083A54400EF70401E3E
S2140116646310050A8327C403639E070A8327840538
S21401167413072000638EE70C13071000639EE70C24
S21401168493076000232AF4026F00000D3745050016
S2140116941305C511EF8040126FF0DFF88327840528
S2140116A413072000638AE70213071000638CE7021E
S2140116B48327C40203A6818383A6C18323A0C7000C
S2140116C423A2D700232E04028327C404938717007A
S2140116D42326F4046FF05FEE93077000232AF402C6
S2140116E46FF01FFD93076000232AF4026FF05FFC7E
S2140116F48329C100032A8100832A41006FF09FF2E7
S2140117048327C403130710006382E70203278405B3
S214011714930620006308D702930610006304D70CCF
S214011724638C0702232604046F0040071307000096
S2140117349307000023A0E40023A2F400232A040252
S2140117446FF05FF213077000232AE402E39C07FCA0
S21401175493077000232AF4028324C40203A6818417
S21401176483A6C18403A5040083A54400EF40D0608A
S21401177423A0A40023A2B400832444020329C402A0
S21401178403A50400EF70001403260900832649000C
S214011794EF40905EEF70C00A23A0A40083270402E2
S2140117A403A707009306F0139307000063DAE60025
S2140117B4130707EC9307F013B3B7E70093871700F3
S2140117C42328F40413050400EFF04FD88320C10145
S2140117D40324810183244101032901011301010228
S2140117E46780000013076000232AE402E38A07E8FF
S2140117F46FF05FF39307100023A4F19423A6F194EA
S2140118046780000037231700130343EEB7C80D00A3
S214011814938848C637180900130848C63775120056
S21401182413054516130E0000B78E0300938E0E4063
S214011834130705B0130608009386080093070300F0
S214011844938507D82320B70023A0F600938507289D
S2140118542320B60013074700938727009386460084
S21401186413064600E31EA7FC130303789388085067
S21401187413080850130E0E3C13050550E31ADEFB3D
S21401188467800000B7781200938848C6930500283D
S2140118941308000037E30100931718009386080025
S2140118A403A741983307F70003A60600035707006A
S2140118B42310E6009387270093864600E392B7FE3B
S2140118C4938808501308082093850540E31668FC9E
S2140118D467800000B7C80D00938848C693050028A2
S2140118E41308000037E301009317180093860800D5
S2140118F403A741983307F70003A60600035707001A
S2140119042310E6009387270093864600E392B7FEEA
S214011914938808501308082093850540E31668FC4D
S21401192467800000B7180900938848C69305002805
S2140119341308000037E30100931718009386080084
S21401194403A741983307F70003A6060003570700C9
S2140119542310E6009387270093864600E392B7FE9A
S214011964938808501308082093850540E31668FCFD
S2140119746780000093959500B385A500939515009F
S214011984B787270093874746B387F5002390C70098
S214011994B7271E0093874746B385F5002390C500F5
S2140119A467800000130101FE232E1100232C810001
S2140119B4232A9100232821012326310123244101CE
S2140119C423225101377A1200130A4AC6B7BA040011
S2140119D4B30A5A01130900009309001493040A0078
S2140119E41304000083A70400039607009305090067
S2140119F413050400EFF01FF8130414009384440045
S214011A04E31234FF13091900130A0A50E3185AFDA6
S214011A148320C10103248101832441010329010197
S214011A248329C100032A8100832A4100130101028C
S214011A3467800000130101FE232E1100232C810070
S214011A44232A91002328210123263101232441013D
S214011A542322510137CA0D00130A4AC6B7BA040035
S214011A64B30A5A01130900009309001493040A00E7
S214011A741304000083A704000396070093050900D6
S214011A8413050400EFF01FEF1304140093844400BD
S214011A94E31234FF13091900130A0A50E3185AFD16
S214011AA48320C10103248101832441010329010107
S214011AB48329C100032A8100832A410013010102FC
S214011AC467800000130101FE232E1100232C8100E0
S214011AD4232A9100232821012326310123244101AD
S214011AE423225101371A0900130A4AC6B7BA040059
S214011AF4B30A5A01130900009309001493040A0057
S214011B041304000083A70400039607009305090045
S214011B1413050400EFF01FE6130414009384440035
S214011B24E31234FF13091900130A0A50E3185AFD85
S214011B348320C10103248101832441010329010176
S214011B448329C100032A8100832A4100130101026B
S214011B5467800000130101FE232E1100232C81004F
S214011B64232A91002328210123263101930400000E
S214011B741309000F93090014130400001306000050
S214011B849305040013850400EFF0DFDE130414004C
S214011B94E31624FF93841400E39034FF8320C101E9
S214011BA40324810183244101032901018329C100FE
S214011BB41301010267800000B73720FF13071000E6
S214011BC423A0E702B73720FF9387C70283A707003E
S214011BD493F71700638C0700373720FF1307C702F4
S214011BE48327070093F71700E39C07FE678000002E
S214011BF4130101FF232611002324810023229100CF
S214011C0403A70195B7872700938747462322F70042
S214011C14EFF09FFA83A7019583A7070023A2F19803
S214011C24EFF05FF303A70195B7271E009387474696
S214011C342322F7008327470023A2F198EFF09FF1B0
S214011C448320C10003248100832441001301010180
S214011C5467800000130101FF23261100232481005D
S214011C6423229100232021011309050093840500F2
S214011C74EF60103D13040500EF60D044130609001D
S214011C8493860400EF50502D132505003305A40058
S214011C948320C10003248100832441000329010019
S214011CA4130101016780000003A7819893061006BB
S214011CB42300D70083A7819823A2070023A4070043
S214011CC423860700678000009306050093871500A6
S214011CD493854500130830001306800033E5070397
S214011CE4131725003387E600032707000327470356
S214011CF46316C70093871700E392B7FE6780000058
S214011D041305900667800000130101FF23261100C6
S214011D1483A70198639A070283A7C197638E070274
S214011D2413071000638CE700130720006396E7028D
S214011D34EFF05FBFEFF01FC76F000002EFF09FB92F
S214011D44EFF05FC66F004001130710006380E702DF
S214011D54130720006380E70403A7019823AEE196E6
S214011D648320C100130101016780000083A7C19786
S214011D74638C070013072000E390E7FEEFF09FBA99
S214011D84EFF05FCB6FF05FFDEFF0DFAFEFF09FCAD0
S214011D946FF09FFC83A7C197638C0700130710009D
S214011DA4E39CE7FAEFF01FB3EFF0DFD16FF0DFFA51
S214011DB4EFF05FADEFF01FD16FF01FFA130101F5DD
S214011DC42326110A2324810A238D0196A38C0196C6
S214011DD4238C019683A7819883C6070013071006F0
S214011DE4638CE60E03A7870013172700B7E73000B6
S214011DF493874746B387E70083A7C70603A7070564
S214011E0423A0E198EFF05FF083A7819883A787006A
S214011E14639407006F101013130710006394E70010
S214011E246F101019130720006394E7006F10101F3A
S214011E3403A5C19EEF30D05603A5C19DEF30505681
S214011E4403A5C19CEF30D0550325C104EF3050558E
S214011E5403250105EF30D05403254105EF305054D6
S214011E643745050013050537EF70101583A78198CC
S214011E7403A6870083C507003745050013058515A6
S214011E84EF705001EFE04FEC2328A1006314050026
S214011E946F10901F03A481988325840037E53000D2
S214011EA41305054DEFF05FE22324A4009307100603
S214011EB42300F400EFF0DFE4930505003745050041
S214011EC413054535EF70007D8320C10A0324810A7A
S214011ED41301010B6780000003A7470013172700AF
S214011EE4B7E7300093874746B387E70083A7070021
S214011EF403A7070523A0E198EFF01FE183A78198C4
S214011F0483A747006386070A130710006386E71052
S214011F14130720006388E71603A5C19EEF305048D7
S214011F2403A5C19DEF30D04703A5C19CEF305047B0
S214011F340325C104EF30D04603250105EF30504692
S214011F4403254105EF30D0453745050013058514B3
S214011F54EF70900683A7819803A6470083C5070000
S214011F643745050013058515EF70C072EFE0CFDD28
S214011F742328A100630E051603A481988325440033
S214011F8437E5300013054546EFF01FD42322A4009D
S214011F94930720062300F400EFF09FD6930505006F
S214011FA43745050013054535EF70C06E6FF0DFF158
S214011FB43744050013080002930700011307B00C09
S214011FC49306601213060000930504691305C10401
S214011FD4EF40804113080002930700011307B00C79
S214011FE4930660261306000093050469130501058C
S214011FF4EF40803F13080002930700011307B00C5B
S2140120049306603A13060000930504691305410517
S214012014EF40803D6FF05FF037540500130404A9C8
S21401202413080002930700011307B00C930660120D
S21401203413060000930504001305C104EF40C03ADB
S21401204413080002930700011307B00C93066026D9
S214012054130600009305040013050105EF40C0387C
S21401206413080002930700011307B00C9306603AA5
S214012074130600009305040013054105EF40C0361E
S2140120846FF09FE937540500130404E913080002AE
S214012094930700011307B00C9306601213060000A1
S2140120A4930504001305C104EF400034130800022D
S2140120B4930700011307B00C93066026130600006D
S2140120C49305040013050105EF40003213080002CE
S2140120D4930700011307B00C9306603A1306000039
S2140120E49305040013054105EF4000306FF0DFE26D
S2140120F42322910A2320210B232E3109232C410963
S214012104232A5109232861092326710923248109D5
S214012114232291092320A109232EB10703A5419E59
S214012124EF30102803A5419DEF30902703A5419C6D
S214012134EF3010270325C104EF309026032501054F
S214012144EF30102603254105EF309025374505006D
S21401215413050519EF704066B754050093840429E6
S21401216437E4300013044446930800001308E00DD6
S2140121749307A00C130790019306E00013062000B2
S214012184938504001305C400EF20505493080000FF
S2140121941308E00D9307A020130790019306E000AF
S2140121A413062000938504001305C402EF20105281
S2140121B4930800001308E00D9307A0341307900159
S2140121C49306E00013062000938504001305C40457
S2140121D4EF20D04F374505001305451BEF70C05D52
S2140121E483A7819883A74700939727003304F400B5
S2140121F48327040083A7070283A707002328F10285
S214012204930C0000B7E73000938D474683A70185FA
S21401221403A84185232CF100232E01013717090059
S214012224832787A00328C7A02320F10223220103C2
S214012234832787A0232CF1028327C7A0232EF1022C
S21401224483A7818003A8C1802324F10223260103E6
S2140122549387CD00232AF1026F00C01283A78198C9
S21401226483A7470093972700B387FD0083A504003F
S21401227403A50700EFE01FB96306050023268A01BC
S214012284930B0C0013044400130A4A00938444007D
S214012294630CA40383A7819883A747009397270019
S2140122A4B387FD0003A5070083250400E308B5FAF8
S2140122B4EFE05FB5E30405FA930710002320FA0064
S2140122C4930B10006FF09FF9639C0B1683A78198FC
S2140122D483A7470093972700B387FD009305000063
S2140122E403A50700EFE01FF783A7819883A747009C
S2140122F493972700B387FD0083A7070003A7070565
S21401230423A0E1980329010163CE0C2613850C0052
S214012314EF60405B032681018326C101EF40503202
S2140123249304050013840500032601028326410253
S214012334EF5080326356A000832481030324C10333
S214012344032681028326C102138504009305040033
S214012354EF500051EF60C04E9309050083A48D022F
S214012364634C952263CAA426938509000325410379
S214012374EF20105A63040900B30C9041EFF0DF9884
S214012384EFF09F8313850C00EF60C053EFE08FE2FC
S21401239403A6018583A64185EF50003C635E0526AE
S2140123A4EFE00FB993050500B70709009387873255
S2140123B483A787016382A72683A7819883A74700FB
S2140123C493972700B387FD001306000003A50700B3
S2140123D4EFF00F8A83A7819883A747009397270076
S2140123E4B387FD0083A7070083A7070283A7070017
S2140123F42324F10003270103B38CE740232C0104B3
S214012404232E010423200106232201062324010688
S21401241423260106B7E73000938947461309810549
S214012424938AC906138DC90093840A00130A090006
S21401243413844746930B0000130C10006FF09FE5BE
S214012444938B0900138B0A00130A090093045000A6
S214012454130C20006F004006138D0B0003A54B01DF
S2140124648327450503A7C7016358E0021304000048
S21401247483A7070013172400B387E70003A5070003
S214012484EF30D0401304140003254D01832745057E
S21401249403A7C701E34EE4FCEFE09FA96F008002A7
S2140124A483274A01639E07029384F4FF130ACAFF33
S2140124B4130BCBFF938BCBFFE3449CFE83274A018C
S2140124C4E39C07F89384F4FF9307F0FF638EF40408
S2140124D4130ACAFF130BCBFF938BCBFF6FF0DFFD01
S2140124E4130D0B0003258B008327450503A7C7019E
S2140124F46358E0021304000083A70700131724009F
S214012504B387E70003A50700EF305038130414001F
S21401251403258D008327450503A7C701E34EE4FC85
S214012524EFE01FA16FF05FF883A7819883A74700A8
S21401253493972700B387FD009305000003A50700C2
S214012544EFE05FD11304000093042000130A600037
S2140125546F10501583270900639E070013041400A7
S214012564E30444D993894900938A4A00130949002C
S2140125746F1050139305000003A54AFFEFE09FCDAB
S2140125846FF0DFFD8327010303278100B38CE74047
S214012594130910006FF09FD71394240083A7CD006E
S2140125A4B387870003A50700EF30502E83A7CD021B
S2140125B4B387870003A50700EF30502D83A7CD040A
S2140125C4B387870003A50700EF30502C9384F4FFEC
S2140125D4E3D434FD6FF05FD91394240083A7CD00B0
S2140125E4B387870003A50700EF30805B83A7CD027E
S2140125F4B387870003A50700EF30805A83A7CD046D
S214012604B387870003A50700EF308059938414002D
S214012614E39499FC6FF05FD5238C0196A38C019605
S214012624238D019637E4300013044446832584023F
S2140126349385F5FF1305C400EF20102E832584022D
S2140126449385F5FF1305C402EF20102D832584021C
S2140126549385F5FF1305C404EF20102CEFF08F9932
S214012664238C0196A38C0196238D019683A78198CA
S21401267403A6470083C50700374505001305851DD6
S214012684EF70400103A5819EEF30805103A5819D23
S214012694EF30005103A5819CEF3080500325C1041F
S2140126A4EF30005003250105EF30804F0325410527
S2140126B4EF30004FEFD09FF8630A05028324410AE6
S2140126C40329010A8329C109032A8109832A4109A5
S2140126D4032B0109832BC108032C8108832C410891
S2140126E4032D0108832DC1076FF01F8903A5019EE1
S2140126F4EF30004B03A5019DEF30804A03A5019CF2
S214012704EF30004A83A701986388070E1307100069
S2140127146382E71213072000638CE714374505002C
S2140127241305C523EF704009130700009307000043
S21401273423ACE1A023AEF1A023A8E1A023AAF1A033
S21401274403A5C198EF30901403A5C198EF30D05C6F
S21401275483A7819803A7470013172700B7E730001C
S21401276493874746B387E70083A7070003A7470273
S21401277483A7070283A60700130800029307000233
S21401278403270700938686FF13060000B735060065
S2140127949385455E1385C198EF30104503A5C1980E
S2140127A4EF300040930C0000130C000003A9818154
S2140127B483A9C18103A8C18583A781852324F10048
S2140127C42326010103A8418683A701862328F10055
S2140127D4232A010103AA018983AA4189B71709009B
S2140127E403A487A083A4C7A083AD87A083A7C7A09B
S2140127F42328F1026F00001D3745050013058521C6
S214012804EF60907B930800001308D00D9307201007
S214012814130790019306E00013062000B755050040
S2140128249385052937E530001305C54DEF20006A69
S2140128346FF0DFEE3745050013054522EF60D077CC
S214012844930800001308D00D930720241307900162
S2140128549306E00013062000B75505009385052965
S21401286437E530001305C54DEF2040666FF01FEBCA
S2140128743745050013050523EF601074930800001F
S2140128841308D00D93072038130790019306E00030
S21401289413062000B75505009385052937E5300052
S2140128A41305C54DEF2080626FF05FE703A5C1985D
S2140128B4EF30C07D03A5C198EF30104683A78198F9
S2140128C403A7470013172700B7E730009387474647
S2140128D4B387E70083A7070003A7470283A7070276
S2140128E483A60700130800029307000203270700C4
S2140128F4938686FF13060000B73506009385455E6A
S2140129041385C198EF30502E03A5C198EF304029A6
S214012914930C0D00138C0B00B707090083A707352A
S214012924638E6751B707090083A7873563826757A4
S214012934B707090083A747346386675BB7070900AF
S21401294483A78734638A6761B707090083A70736B5
S214012954638E676703A6818083A6C18003A501A150
S21401296483A541A1EF40C04D130B0500938B0500D1
S2140129741306040093860400EF40104E6356A0002D
S214012984138B0D00832B010303A6818083A6C180CC
S21401299413050B0093850B00EF40906CEF50506AC3
S2140129A4930B0500B7E7300003AB874F6342657F9F
S2140129B4E344AB0093850B0037E530001305C54DA2
S2140129C4EF200075EFD01FE9130B050003AD81A1BD
S2140129D483ABC1A113860C0093060C0013050D00EE
S2140129E493850B00EF40903EE30805F213060000C2
S2140129F49306000013050D0093850B00EF40103D70
S214012A04E30605EA130609009386090013050D007B
S214012A1493850B00EF40903B630205120326810069
S214012A248326C10013050D0093850B00EF40103A71
S214012A3463060516032601018326410113050D00CD
S214012A4493850B00EF409038630A051A03A6818626
S214012A5483A6C18613050D0093850B00EF4010373E
S214012A64630E051E03A6018783A6418713050D0081
S214012A7493850B00EF4090356302052403A68187F6
S214012A8483A6C18713050D0093850B00EF40103410
S214012A946306052803A6018883A6418813050D004D
S214012AA493850B00EF409032630A052C03A68188B8
S214012AB483A6C18813050D0093850B00EF401031E2
S214012AC4630E053003A6018983A6418913050D000B
S214012AD493850B00EF40902FE31805E203A5C198F8
S214012AE4EF30C05A03A5C198EF30102383A781980D
S214012AF403A7470013172700B7E730009387474615
S214012B04B387E70083A7070003A7470283A7070243
S214012B1483A6070013080002930700020327070091
S214012B24938686FF13060000B7F50500938545DEF8
S214012B341385C198EF30500B6FF01FDD03A5C198C4
S214012B44EF30C05403A5C198EF30101D83A78198B8
S214012B5403A7470013172700B7E7300093874746B4
S214012B64B387E70083A7070003A7470283A70702E3
S214012B7483A6070013080002930700020327070031
S214012B84938686FF13060000B7350600938545DE57
S214012B941385C198EF3050056FF01FD703A5C19870
S214012BA4EF30C04E03A5C198EF30101783A7819864
S214012BB403A7470013172700B7E730009387474654
S214012BC4B387E70083A7070003A7470283A7070283
S214012BD483A60700130800029307000203270700D1
S214012BE4938686FF13060000B72506009385455E87
S214012BF41385C198EF30407F6FF01FD103A5C198AC
S214012C04EF30C04803A5C198EF30101183A781980F
S214012C1403A7470013172700B7E7300093874746F3
S214012C24B387E70083A7070003A7470283A7070222
S214012C3483A6070013080002930700020327070070
S214012C44938686FF13060000B7250600938545DEA6
S214012C541385C198EF3040796FF01FCB03A5C19857
S214012C64EF30C04203A5C198EF30100B83A78198BB
S214012C7403A7470013172700B7E730009387474693
S214012C84B387E70083A7070003A7470283A70702C2
S214012C9483A6070013080002930700020327070010
S214012CA4938686FF13060000B71506009385455ED6
S214012CB41385C198EF3040736FF01FC503A5C19803
S214012CC4EF30C03C03A5C198EF30100583A7819867
S214012CD403A7470013172700B7E730009387474633
S214012CE4B387E70083A7070003A7470283A7070262
S214012CF483A60700130800029307000203270700B0
S214012D04938686FF13060000B7150600938545DEF5
S214012D141385C198EF30406D6FF01FBF03A5C198AE
S214012D24EF30C03603A5C198EF30007F83A78198A2
S214012D3403A7470013172700B7E7300093874746D2
S214012D44B387E70083A7070003A7470283A7070201
S214012D5483A607001308000293070002032707004F
S214012D64938686FF13060000B70506009385455E25
S214012D741385C198EF3040676FF01FB903A5C1985A
S214012D84EF30C03003A5C198EF30007983A781984E
S214012D9403A7470013172700B7E730009387474672
S214012DA4B387E70083A7070003A7470283A70702A1
S214012DB483A60700130800029307000203270700EF
S214012DC4938686FF13060000B7050600938545DE45
S214012DD41385C198EF3040616FF01FB303A5C19806
S214012DE4EF30C02A03A5C198EF30007383A78198FA
S214012DF403A7470013172700B7E730009387474612
S214012E04B387E70083A7070003A7470283A7070240
S214012E1483A607001308000293070002032707008E
S214012E24938686FF13060000B7F505009385455E75
S214012E341385C198EF30405B6FF01FAD03AB81A1E2
S214012E4483ABC1A113060A0093860A0013050B007F
S214012E5493850B00EF408077E30E05AE03A68181D0
S214012E6483A6C18113050B0093850B00EF30C07058
S214012E7423ACA1A023AEB1A01306050093860500DA
S214012E84374505001305C525EF60D0006FF09FACEC
S214012E9403AB81A183ABC1A1130600009306000016
S214012EA413050B0093850B00EF404072E30405AA5B
S214012EB403A6818183A6C18113050B0093850B00AC
S214012EC4EF50800723ACA1A023AEB1A013060500E2
S214012ED493860500374505001305C525EF60807BFD
S214012EE46FF05FA7130600009306000023ACC1A091
S214012EF423AED1A03745050013050527EF60D00B97
S214012F0403A7819837EB3000130B4B468327470002
S214012F1493972700B307FB0083A7070093062000B7
S214012F2423AAD7028327470093972700B307FB00FA
S214012F3403A50700EFD0DFFF83A7819883A7470087
S214012F4493972700330BFB009305000003250B0022
S214012F54EFE04FB06FF01FA01306000093060000C9
S214012F6423ACC1A023AED1A03745050013054528DF
S214012F74EF60900403A7819837EB3000130B4B46A0
S214012F848327470093972700B307FB0083A707000F
S214012F949306100023AAD702832747009397270096
S214012FA4B307FB0003A50700EFD09FF883A781981A
S214012FB483A7470093972700330BFB009305000074
S214012FC403250B00EFE00FA96FF0DF9803A601A11C
S214012FD483A641A13745050013058529EF60806B5B
S214012FE403A6818983A6C18923A8C1A023AAD1A047
S214012FF4374505001305052CEF60C06937E430003A
S2140130041304444683A7819883A747009397270010
S214013014B307F40083A7070003A7470203260700A4
S21401302483A7070283A5070003A801A183A841A1DA
S21401303403A781A183A7C1A1B75605009386862C51
S214013044130676009385850013058409EF20004E48
S214013054832544099385F5FF13058407EF20C00BE8
S21401306403258409EF20D03303A5C198EF3000026D
S21401307403A5C198EF30404A238C0196A38C019690
S214013084238D019623A001A29304800C138A0700C2
S2140130949309200037E430001304444613098409D5
S2140130A483A701A263CEF90203258409EF20107ECB
S2140130B413050900EF20406D13050900EF20807BFE
S2140130C403258409EF20D02D8327440A23A0F198F1
S2140130D4EFE09FC3EFE05FAE9384F4FFE39204FC5A
S2140130E4374505001305852DEF60006D37E4300084
S2140130F41304444603258409EF20507903298409DF
S2140131048327490003A50700EF50C07B03A68180EF
S21401311483A6C180EF405062EF508072130405000D
S2140131248327090003A50700EF50C07903A6818011
S21401313483A6C180EF405060EF508070930605006F
S2140131441308200393072003130704001306000043
S214013154B7450600938545DE1385819BEF30C0286D
S21401316403A5819BEF20D023EFE01FA51304C00025
S21401317403A5819BEF2090711304F4FF63020406F8
S21401318403A5819BEF20D021EFE01FA36FF05FFE24
S21401319437ED3000130D4D4683278D0713172B008B
S2140131A4B387E70003A50700EF20506E130BFBFF60
S2140131B4E3547BFF6FF01F8037ED3000130D4D464F
S2140131C483278D0713172B00B387E70003A5070092
S2140131D4EF20101D130B1B00E3946BFF6FF08FFDA4
S2140131E4EFE09F9D03A5819BEF3000333745050033
S2140131F41305052FEF60405C37E4300013054446A1
S2140132041306C5069305444613058509EF20C078C1
S214013214930444461304444613090000130B100098
S214013224130D8000930A30006F00800783250C007D
S21401323403250A00EFD01FBD63080500930710009D
S21401324423A6FC0023243101938B4B00938C4C0062
S214013254130C4C00832701016384FB0203250A0037
S21401326483A50B00E304B5FCEFD0DFB9E30005FC4E
S2140132749307100023A0FC00232431016FF01FFBE9
S21401328483278100639607089305000003250A0037
S214013294EFD05FFC1309190013044400630C591D95
S2140132A4130A04008327040083A9C705E39469FF6E
S2140132B403A74703E300A7FF83A7070403A60700A2
S2140132C493050900374505001305C530EF60803CBA
S2140132D4232C0104232E01042320010623220106A4
S2140132E42324010623260106930D8105B7E7300042
S2140132F4138C074D232881039387C4002328F100E8
S214013304938C0D00938B0400232401006FF01FF5AA
S214013314938C0400832701032324F100138C0D00EE
S214013324930B50006F0000072328910103A54C015D
S2140133348327450503A7C701635AE00293090000E2
S21401334483A7070013972900B387E70003A507009F
S214013354EF20D053938919008327010103A5470160
S2140133648327450503A7C701E3CCE9FCEFD05FBC7F
S2140133746F00400383274C0163980704938BFBFF7C
S214013384130CCCFF832781009387C7FF2324F10006
S214013394938CCCFF93072000E3CE77FD83274C0163
S2140133A4E39407F8938BFBFF9307F0FF6386FB0612
S2140133B4130CCCFF832781009387C7FF2324F100D6
S2140133C4938CCCFF6FF01FFD832781002328F10027
S2140133D403A587008327450503A7C701635AE002AF
S2140133E49309000083A7070013972900B387E70012
S2140133F403A50700EF20904993891900832701014B
S21401340403A587008327450503A7C701E3CCE9FC89
S214013414EFD01FB26FF09FF69305000003250A0054
S214013424EFD05FE3138A040093090000930B200096
S214013434130C60006F00502483A70D0063920702EB
S21401344493891900E38889E5130A4A00832701034F
S214013454938747002328F102938D4D006F00D021F6
S214013464930500008327010303A547FFEFD09FDEE2
S2140134746FF01FFD37E430001304044D13090400F4
S21401348493090000930B1000130B30006F008007A4
S214013494938C4C00938D4D00130D4D0083278100B2
S2140134A46382970583A50C0003250A00EFD09F9538
S2140134B4630805009307100023A0FD002328510389
S2140134C403250A0083250D00E304B5FCEFD09F9382
S2140134D4E30005FC9307100023A6FD0023285103EF
S2140134E46FF01FFB8327010363940708930500000D
S2140134F403250A00EFD01FD6938919001309490042
S2140135046384691D130A09008327090083AAC70572
S214013514E3947AFF03A7470393068000E30ED7FCE0
S21401352483A7070403A6070093850900374505000A
S21401353413050533EF600016232C0104232E010422
S214013544232001062322010623240106232601063D
S214013554130C81059387C4002324F100130D040082
S214013564930D0C00938C0400232801026FF09FF343
S214013574938D040023288102130D0C00930C500034
S2140135846F0000072324B10103A54D0183274505D8
S21401359403A7C701635AE002930A000083A7070042
S2140135A413972A00B387E70003A50700EF20102E20
S2140135B4938A1A008327810003A5470183274505BB
S2140135C403A7C701E3CCEAFCEFD09F966F00400344
S2140135D483274D0163980704938CFCFF130DCDFFDD
S2140135E4832701039387C7FF2328F102938DCDFF19
S2140135F493072000E3CE97FD83274D01E39407F854
S214013604938CFCFF9307F0FF6386FC06130DCDFF36
S214013614832701039387C7FF2328F102938DCDFFE8
S2140136246FF01FFD832701032324F10003A5870000
S2140136348327450503A7C701635AE002930A0000DE
S21401364483A7070013972A00B387E70003A507009B
S214013654EF20D023938A1A008327810003A58700CD
S2140136648327450503A7C701E3CCEAFCEFD05F8CAB
S2140136746FF09FF69305000003250A00EFD09FBD67
S214013684930C0400938A0400130A0000130D20000F
S214013694930D60006F00007B83270C00639E070078
S2140136A4130A1A00E30ABAE5938A4A00938C4C007B
S2140136B4130C4C006F0000799305000003A54CFF22
S2140136C4EFD05FB96FF0DFFD37E530001305C54F66
S2140136D4EF10103D1386C4009306800083A70400F0
S2140136E403A747036304D70023AE07049384440067
S2140136F4E31696FE1306C40093068000832704008F
S21401370403A747036304D70023AE07041304440046
S214013714E31686FE8324410A0329010A8329C10983
S214013724032A8109832A4109032B0109832BC10832
S214013734032C8108832C4108032D0108832DC1071E
S2140137446FE09F83375405001304842E1308000288
S214013754930700011307B00C9306601213060000CA
S214013764930504001305C104EF2010481308000252
S214013774930700011307B00C930660261306000096
S2140137849305040013050105EF20104613080002F3
S214013794930700011307B00C9306603A1306000062
S2140137A49305040013054105EF2010446FE04FE82C
S2140137B4375405001304846E1308000293070001AE
S2140137C41307B00C93066012130600009305040059
S2140137D41305C104EF2050411308000293070001AA
S2140137E41307B00C93066026130600009305040025
S2140137F413050105EF20503F13080002930700014B
S2140138041307B00C9306603A1306000093050400F0
S21401381413054105EF20503D6FE08FE13764050045
S214013824130484AE13080002930700011307B00CB7
S2140138349306601213060000930504001305C104E1
S214013844EF20903A13080002930700011307B00C07
S214013854930660261306000093050400130501056C
S214013864EF20903813080002930700011307B00CE9
S2140138749306603A130600009305040013054105F8
S214013884EF2090366FE0CFDA2322910A2320210B12
S214013894232E3109232C4109232A5109232861099E
S2140138A42326710923248109232291092320A109AE
S2140138B4232EB10703A5419EEF20802E03A5419D2B
S2140138C4EF20002E03A5419CEF20802D0325C10483
S2140138D4EF20002D03250105EF20802C032541054B
S2140138E4EF20002C83A7819803A7870013172700CE
S2140138F4B7E7300093874746B387E70083A7C70631
S21401390483A7070283A707002328F102930C00006C
S214013914B7E73000938D474683A7018503A8418501
S214013924232CF100232E010137170900832787A0D2
S2140139340328C7A02320F10223220103832787A09B
S214013944232CF1028327C7A0232EF10283A78180AB
S21401395403A8C1802324F102232601039387CD0003
S214013964232AF1026F00C01213044400130A4A000A
S214013974938444006300A40783A7819883A78700E0
S21401398493972700B387FD008325040003A5C70684
S214013994EFD04FC76306050023208A01930B0C0062
S2140139A483A7819883A7870093972700B387FD0091
S2140139B403A5C70683A50400E308B5FAEFD08FC4B0
S2140139C4E30405FA930710002326FA00930B10006C
S2140139D46FF09FF9639C0B1683A7819883A78700D2
S2140139E493972700B387FD009305000003A5C70638
S2140139F4EFD05F8683A7819883A7870093972700D4
S214013A04B387FD0083A7C70603A7070523A0E1988C
S214013A140329010163CE0C2613850C00EF40906A3E
S214013A24032681018326C101EF30804193040500FA
S214013A34138405000326010283264102EF30D04198
S214013A446356A000832481030324C1030326810251
S214013A548326C1021385040093050400EF305060E9
S214013A64EF40105E9309050083A48D02634C9522F2
S214013A7463CAA4269385090003254103EF10406910
S214013A8463040900B30C9041EFE00FA8EFE0CF9276
S214013A9413850C00EF401063EFC0DFF103A6018528
S214013AA483A64185EF30504B635E0526EFC05FC8A1
S214013AB493050500B70709009387873283A7870113
S214013AC46382A72683A7819883A7870093972700F5
S214013AD4B387FD001306000003A5C706EFD05F9960
S214013AE483A7819883A7870093972700B387FD0050
S214013AF483A7C70683A7070283A707002324F10029
S214013B0403270103B38CE740232C0104232E01046D
S214013B142320010623220106232401062326010667
S214013B24B7E730009389474613098105938AC90686
S214013B34138DC90093840A00130A090013844746A7
S214013B44930B0000130C10006FF01FE3938B090016
S214013B54138B0A00130A090093045000130C200067
S214013B646F004006138D0B0003A54B018327450503
S214013B7403A7C7016358E0021304000083A70700E4
S214013B8413172400B387E70003A50700EF200050AE
S214013B941304140003254D018327450503A7C70114
S214013BA4E34EE4FCEFD0CFB86F00800283274A01CE
S214013BB4639E07029384F4FF130ACAFF130BCBFF19
S214013BC4938BCBFFE3449CFE83274A01E39C07F8CF
S214013BD49384F4FF9307F0FF638EF404130ACAFF79
S214013BE4130BCBFF938BCBFF6FF0DFFD130D0B0095
S214013BF403258B008327450503A7C7016358E00205
S214013C041304000083A7070013172400B387E700F3
S214013C1403A50700EF2080471304140003258D0035
S214013C248327450503A7C701E34EE4FCEFD04FB055
S214013C346FF05FF883A7819883A78700939727007F
S214013C44B387FD009305000003A5C706EFD08FE0F8
S214013C541304000093042000130A60006F008027F9
S214013C6483270900639E070013041400E30444D960
S214013C7493894900938A4A00130949006F008025F5
S214013C849305000003A54AFFEFD0CFDC6FF0DFFDFC
S214013C948327010303278100B38CE740130910002F
S214013CA46FF09FD71394240083A7CD00B3878700B2
S214013CB403A50700EF20803D83A7CD02B3878700C5
S214013CC403A50700EF20803C83A7CD04B3878700B4
S214013CD403A50700EF20803B9384F4FFE3D434FD6F
S214013CE46FF05FD91394240083A7CD00B3878700B0
S214013CF403A50700EF10D06A83A7CD02B387870018
S214013D0403A50700EF10D06983A7CD04B387870006
S214013D1403A50700EF10D06893841400E39499FC7C
S214013D246FF05FD537E430001304444683258402DC
S214013D349385F5FF1305C400EF10003E8325840226
S214013D449385F5FF1305C402EF10003D8325840215
S214013D549385F5FF1305C404EF10003CEFD09FA92B
S214013D64238C0196A38C0196238D019683A78198B3
S214013D7403A6870083C50700374505001305851D7F
S214013D84EF50501103A5819EEF10906103A5819D0C
S214013D94EF10106103A5819CEF1090600325C10408
S214013DA4EF10106003250105EF10905F0325410510
S214013DB4EF10105FEFC09F88630A05028324410A4F
S214013DC40329010A8329C109032A8109832A41098E
S214013DD4032B0109832BC108032C8108832C41087A
S214013DE4032D0108832DC1076FE0CF8A37450500EF
S214013DF41305C523EF50501C374505001305053838
S214013E04EF50901B8324410A0329010A8329C1091F
S214013E14032A8109832A4109032B0109832BC1083B
S214013E24032C8108832C4108032D0108832DC10727
S214013E346FE04F86130A1A00938A4A00938C4C004B
S214013E44130C4C00E34A4D8583270C00E38407FEDC
S214013E549305000003A50A00EFD0CFBF6FF09FFDC6
S214013E6493891900130A4A0083270103938747009D
S214013E742328F102938D4D0063C03BDD83A70D001B
S214013E84E38007FE9305000003250A00EFD08FBCEC
S214013E946FF01FFD1304140093894900938A4A00A6
S214013EA41309490063D484006FE0CFEA832709002D
S214013EB4E38207FE9305000003A50900EFD08FB93E
S214013EC46FF05FFD1304140093894900938A4A0036
S214013ED413094900E3C684D883270900E38407FE4F
S214013EE49305000003A50900EFD0CFB66FF09FFD40
S214013EF4130101FC232E1102232C8102232A910291
S214013F042328210323263103232441032322510397
S214013F1423206103232E7101232C8101232A91017D
S214013F24B748050093840869B76605009386066951
S214013F3437E4300013044446130B040B2322010018
S214013F44130910062320210193880869138886859E
S214013F54938786C513878605938686451306F008D8
S214013F649305400713050B00EFC05FAAB77605005B
S214013F7493860669930A4411930C10002322910137
S214013F84232021019388044013888685938786C558
S214013F9413878605938686451306F0089305600AFB
S214013FA413850A00EFC09FA6B754050093840469DD
S214013FB4B786050093860669130A841793072000BB
S214013FC42322F10023202101938804801388868507
S214013FD4938786C513878605938686451306F00858
S214013FE49305800D13050A00EFC05FA2B79605007E
S214013FF4938606699309C41D930730002322F100B2
S214014004130C200623208101938884C51388868592
S214014014938786C513878605938686451306F00817
S2140140249305C03913850900EFC05F9EB7A6050046
S2140140349386066913090424930740002322F1009A
S214014044232081019388840513888685938786C5F2
S21401405413878605938686451306F0089305A036CE
S21401406413050900EFC09F9AB7B605009386066943
S214014074930B442A930750002322F1002320810145
S2140140849388844513888685938786C51387860512
S214014094938686451306F0089305803313850B0033
S2140140A4EFC0DF96EFD05FC02320640123225401C2
S2140140B4232444012326340723282407232A7407A8
S2140140C4EFC00FC083A781982386970137F5300088
S2140140D41305059BEF00904D03A581A0EF10107BFF
S2140140E49306800213068002B7E50800938505024D
S2140140F4B7F430001385C498EF00D0181385C4981C
S214014104EF00503A1385C498EF00504AB7C405002F
S214014114938404691308500193075001130770022E
S2140141249306A01113061000938584851385419B7D
S214014134EF20802B03A5419BEF10902603A5419BFE
S214014144EF20803D13081002930720031307C008CD
S2140141549306B00413061000B7D508009385C5333B
S2140141641385019BEF20402803A5019BEF105023E4
S21401417403A5019BEF20403A1308B0019307003CC6
S2140141841307D00A9306000013061000B71508009B
S2140141949385C58B1385C19AEF20002503A5C19A83
S2140141A4EF10102003A5C19AEF2000371308500A18
S2140141B4930740051307B0009306C02813061000A2
S2140141C4B7A50700938545C71385819AEF20C021BB
S2140141D403A5819AEF10D01C03A5819AEF20C03362
S2140141E41308C00593070007130780059306900874
S2140141F413061000B7850600938545EF13850199CC
S214014204EF20801E03A50199EF10901903A50199CB
S214014214EF208030130880039307D0051307200886
S2140142249306603013061000B7D50600938545F74C
S21401423413858199EF20401B03A58199EF10501631
S21401424403A58199EF20402D1308A00193072002AE
S214014254130790099306A020130610009385C4BC87
S21401426413854199EF20401803A54199EF10501387
S21401427403A54199EF20402A130840049307E01050
S2140142841307D0019306D01513061000B7150700BF
S214014294938545D01385419AEF20001503A5419ACD
S2140142A4EF10101003A5419AEF200027130890057C
S2140142B49307F0001307F005930600151306100084
S2140142C4B7050700938545291385019AEF20C01188
S2140142D403A5019AEF10D00C03A5019AEF20C02381
S2140142E4130890059307F0001307F005930690262C
S2140142F413061000B7050700938545821385C199F7
S214014304EF20800E03A5C199EF10900903A5C1996A
S214014314EF208020930C84309307900013075001FC
S2140143249306D0021306A0119385442B13850C0023
S214014334EF00403213850C00EF000051930C8432D9
S2140143449307700013070002930690091306A02032
S2140143549385044313850C00EF00C02F13850C00CE
S214014364EF00804E930C8434930740001307C00279
S2140143749306A0091306E0049385045F13850C00D5
S214014384EF00402D13850C00EF00004C930C84368F
S21401439493073000130780139306D00A1306000010
S2140143A49385047513850C00EF00C02A13850C0051
S2140143B4EF00804993048438930750001307E015EF
S2140143C49306D00A13062026B7750600938585142E
S2140143D413850400EF00002813850400EF00C0468F
S2140143E4B7D4050093840469930C843A9307500068
S2140143F41307C0089306200B1306C013938504EA1B
S21401440413850C00EF00002513850C00EF00C04354
S214014414930C843C930760001307F0069306200B65
S2140144241306501F9385844113850C00EF008022E8
S21401443413850C00EF004041B7E40500938404693A
S214014444930C843E9307A0001307200493063004BC
S2140144541306A0289385C49413850C00EF00801FCF
S21401446413850C00EF00403E930C844093078000B4
S214014474130760019306F0041306C02A938544E7E4
S21401448413850C00EF00001D13850C00EF00C03BE4
S214014494930C844293078000130790019306100639
S2140144A41306C02A938544FD13850C00EF00801A79
S2140144B413850C00EF004039930C84449307800065
S2140144C41307C001930630071306B02A93854416D2
S2140144D413850C00EF00001813850C00EF00C0369E
S2140144E4930C844693078000130700029306300852
S2140144F41306A02A9385443213850C00EF00801519
S21401450413850C00EF004034930C84489307800015
S21401451413073002930660091306A02A93854452B2
S21401452413850C00EF00001313850C00EF00C03157
S2140145349304844A9307B000130700109306D0012E
S21401454413064016B75506009385C5161385040051
S214014554EF00401013850400EF00002F1304844C71
S2140145649307D00013071006930610061306400996
S214014574B76506009385C57613050400EF00800D24
S21401458413050400EF00402C9305100013050B00DF
S214014594EFC05FCC9305100013850A00EFC09FCBD4
S2140145A49305100013050A00EFC0DFCA9305100037
S2140145B413850900EFC01FCA9305100013050900EF
S2140145C4EFC05FC99305100013850B00EFC09FC8A9
S2140145D413050B00EFC0DFA813850A00EFC05FA820
S2140145E413050A00EFC0DFA713850900EFC05FA714
S2140145F413050900EFC0DFA613850B00EFC05FA605
S21401460483A7819883C7C700638C070013040C0033
S214014614EFD0CFFA83A7819883C7C700E39A07FE32
S2140146248320C10303248103832441030329010353
S2140146348329C102032A8102832A4102032B010230
S214014644832BC101032C8101832C41011301010435
S21401465467800000130101FC232E1102232C810222
S214014664232A9102232821032326310323244103E9
S2140146742322510323206103232E7101232C81015C
S214014684232A91012328A1012326B101130405003D
S214014694938C0500930D0600138D0600130B07007B
S2140146A4938B07003305F70213151500EF40803985
S2140146B4130C050013054000EF40C038930A0500AB
S2140146C42322A40013054000EF40C037130A050057
S2140146D42324A40013058000EF40C0369309050087
S2140146E42326A40013058000EF40C03513090500F6
S2140146F42328A40013054000EF40C03493040500AA
S214014704232AA400232C6401232E7401930710008A
S2140147142320F50023A0BA012320AA0113070000D1
S2140147249307000023A0E90023A2F9002320E9004F
S2140147342322F90013054003EF40C0302320A400D0
S21401474423229503232A750123286501232485033F
S2140147542320550123224501232E35012320250339
S214014764232C95008320C10303248103832441035E
S214014774032901038329C102032A8102832A4102F0
S214014784032B0102832BC101032C8101832C4101DC
S214014794032D0101832DC10013010104678000006C
S2140147A46302050A130101FF232611002324810055
S2140147B4232291001304050013054001EF408028CD
S2140147C493040500630805068327440003A707002E
S2140147D423A0E400032784008326070023A2D40031
S2140147E483A7070083268401B387D70023A4F40094
S2140147F48326C4019307900063C6D7009307A000DD
S214014804232EF400832707000327C401B387E70098
S21401481423A6F40003A7C1A023A8E40023A691A01D
S2140148248320C10003248100832441001301010174
S21401483467800000374505001305C539EF40D0777A
S2140148446FF09FF867800000130101FF2326110013
S214014854232481001304050003250500EF104034CA
S21401486413050400EFF0DFF38320C1000324810065
S2140148741301010167800000130101FF23261100C3
S2140148842324810003A4C1A063020404232291000B
S2140148942320210193040000374905009385040071
S2140148A48327C400032784008326440003260400C8
S2140148B4938414001305893BEF40D05D032404015F
S2140148C4E31E04FC83244100032901008320C10064
S2140148D4032481001301010167800000130101FE16
S2140148E4232E110083A7C1A0638E070A232C8100FF
S2140148F4232A9100232821012326310113040500CC
S2140149049384050013090600938906001305000025
S2140149146F00000283A6070123A6D1A06F0000043E
S21401492403A7070113850700630607069307070015
S21401493403A70700E31687FE03A74700E31297FEC3
S21401494403A78700E31E27FD03A7C700E31A37FD65
S214014954E30205FC03A707012328E50013850700E6
S214014964EF40000F1387090093060900138604001D
S21401497493050400374505001305853DEF40905126
S2140149840324810183244101032901018329C100F0
S2140149946F000002032481018324410103290101DC
S2140149A48329C1003745050013054540EF40D06013
S2140149B48320C1011301010267800000130101FF76
S2140149C42326110023248100130405000325050072
S2140149D4EF10C06B8327440003A5070083278400D8
S2140149E483A507008326C40103268401B386D50064
S2140149F43306C500EFF09FEE8320C1000324810037
S214014A041301010167800000630C0506130101FF11
S214014A14232611002324810013040500EFF01FFA56
S214014A248327040003A58702EF4080020325440080
S214014A3463040500EF40C0010325840063040500F8
S214014A44EF4000010325C40063040500EF40400065
S214014A540325040163040500EF30907F0325440118
S214014A6463040500EF30D07E13050400EF30507E5A
S214014A748320C10003248100130101016780000023
S214014A8467800000130101FA232E1104232C8104EC
S214014A94232A910423282105232441052322510591
S214014AA4232A91032326B103930C0500232CB1007A
S214014AB4930D0600138906002328D1009307003CB2
S214014AC433E4C70233348000B3C7C7023304F400A7
S214014AD4232085029307000FB3E4D702B334900072
S214014AE4B3C7D702B384F400232E95003305D60248
S214014AF413152500EF30107523A2AC0013054000F2
S214014B04EF30507423A4AC0013054000EF309073CB
S214014B1423A6AC0013054000EF30D07223A8AC00E6
S214014B2423AABC0123AC2C012320050033059402DF
S214014B3413152500EF30107123A0AC00232E0100BD
S214014B4423260100130A0000930A000063589012FA
S214014B542326310523206105232E7103232C81038B
S214014B642328A1036F00800E13054003EF30906DD8
S214014B7413040500832781012322F50283270101FB
S214014B84232AF5002328B50183A74C002324F50224
S214014B9413054000EF30106B930B05002320A4008F
S214014BA413054000EF30106A130B05002322A400FE
S214014BB413058000EF30106993090500232EA40025
S214014BC413058000EF301068130905002320A402A2
S214014BD413054000EF301067232CA40023A0AB017B
S214014BE4832741012320FB0023A0490123A2590165
S214014BF42320490123225901232005008327C100CC
S214014C04B384F402B384840183A70C009394240030
S214014C14B387970023A08700130C1C0083A40C02FF
S214014C24330DBD01E3429CF48327C10013871700AB
S214014C342326E1008327C10183260101B387D70018
S214014C44232EF10083A7CC016350F70283A40C0240
S214014C548327C101232AF100130D0000130C000061
S214014C64E34490F06FF05FFC8329C104032B010435
S214014C74832BC103032C8103032D01038320C10568
S214014C84032481058324410503290105032A81049C
S214014C94832A4104832C4103832DC1021301010697
S214014CA467800000130101FF2326110023229100CF
S214014CB423202101930405008327C501130900005D
S214014CC4635AF004232481006F008003B38727030B
S214014CD4B387870003A7040093972700B307F70059
S214014CE403A50700EF00D06B1304140083A7040286
S214014CF4E34EF4FC1309190083A7C401635AF900AF
S214014D0483A7040213040000E342F0FC6FF09FFE45
S214014D14032481008320C100832441000329010068
S214014D241301010167800000130101FF232611000E
S214014D342322910023202101930405008327C50122
S214014D4413090000635AF004232481006F008003D2
S214014D54B3872703B387870003A704009397270025
S214014D64B307F70003A50700EF104032130414003D
S214014D7483A70402E34EF4FC1309190083A7C401B4
S214014D84635AF90083A7040213040000E342F0FC0B
S214014D946FF09FFE032481008320C1008324410019
S214014DA4032901001301010167800000130101FEBC
S214014DB4232E1100232A9100232631019304050092
S214014DC48327C501930900006354F00C232C81004A
S214014DD4232821016F00400A1309190003A40402C1
S214014DE4635689083304340333042401131424005A
S214014DF483A70400B387870083A70700E38E07FC15
S214014E0403A50700EF30D04483A70400B3878700C7
S214014E1483A7070003A54700EF30904383A7040048
S214014E24B387870083A7070003A5C701EF30504265
S214014E3483A70400B387870083A7070003A5070297
S214014E44EF30104183A70400B387870083A70700C8
S214014E5403A58701EF30D03F83A70400B3878700FB
S214014E6403A50700EF30D03E6FF01FF793891900B2
S214014E7483A7C40163DAF90003A40402130900003A
S214014E84E34280F66FF09FFE0324810103290101AA
S214014E9403A50400EF30D03B03A54400EF30503B9C
S214014EA403A58400EF30D03A03A5C400EF30503A8E
S214014EB403A50401EF30D0398320C10183244101C5
S214014EC48329C1001301010267800000130101FB5D
S214014ED42326110423248104232291042328610315
S214014EE42326710323248103232291032320A10370
S214014EF4232EB10113040500138D0500930B060040
S214014F04938C0600130C0700138B0700930D0800FF
S214014F149384080013054000EF30D0322322A40006
S214014F2413054000EF3010322324A400130540007B
S214014F34EF3050312326A40023287401232A940138
S214014F44232C840123200500232E940013152C0002
S214014F54EF30502F2320A400635680192320210507
S214014F64232E3103232C4103232A5103B3879B03A6
S214014F74939717002326F10013090000130A000073
S214014F84930A00009314290083290400B389990025
S214014F9413054003EF30102B23A0A9008327040038
S214014FA4B387970083A7070023A2A70383270400D8
S214014FB4B387970083A7070023AA970183270400D2
S214014FC4B387970083A7070023A8770183270400E4
S214014FD4B387970083A907000325C100EF30902605
S214014FE423A4A90283270400B387970083A9070093
S214014FF413054000EF30102523A0A90083270400E1
S214015004B387970083A9070013054000EF30902368
S21401501423A2A90083270400B387970083A9070066
S21401502413058000EF30102223AEA9008327040065
S214015034B387970083A9070013058000EF309020FB
S21401504423A0A90283270400B387970083A9070036
S21401505413054000EF30101F23ACA900832704007A
S214015064B387970083A7070083A7070023A06701D8
S21401507483270400B387970083A7070083A7470005
S21401508423A0B70183270400B387970083A70700EB
S21401509483A7C70123A0470123A25701832704003E
S2140150A4B387970083A7070083A7070223A04701B6
S2140150B423A2570183270400B387970083A7070019
S2140150C483A7870123A0070013091900330B7B016B
S2140150D4E31A2CEB032901048329C103032A810360
S2140150E4832A41038320C1040324810483244104C5
S2140150F4032B0103832BC102032C8102832C41025F
S214015104032D0102832DC1011301010567800000EF
S214015114232EB50067800000130101FF232611002A
S214015124232291009304050063CC05022324810005
S21401513423202101138405001309F0FF83A704002B
S21401514413172400B387E70003A50700EF001074C4
S2140151541304F4FFE31424FF03248100032901004C
S2140151649305000013850400EFF09FFA8320C10025
S214015174832441001301010167800000130101FE2D
S214015184232E1100232C8100130405008327850197
S2140151946350F00E232A910023282101232631018E
S2140151A4130900009314290083270400B38797008A
S2140151B483A7070003A58702EF309009832704001D
S2140151C4B387970083A9070013054000EF309007C3
S2140151D423A0A900EF30D00783270400B3879700E4
S2140151E483A9070013054000EF30D00523A2A900C8
S2140151F4EF30100683270400B387970083A90700BE
S21401520413058000EF30100423AEA900EF305004DC
S21401521483270400B387970083A90700130580003A
S214015224EF30500223A0A902EF3090028327040036
S214015234B387970083A9070013054000EF30900059
S21401524423ACA900EF30D00083270400B38797006E
S21401525403A50700EF30C07F1309190083278401D3
S214015264E342F9F483244101032901018329C1009E
S21401527403250400EF30C07D03254400EF30407D54
S21401528403258400EF30C07C0325C400EF30407C46
S2140152948320C101032481011301010267800000F8
S2140152A4130101FF232611002324810013040500A2
S2140152B48327050003A50700EF30807983270400C0
S2140152C403A54700EF30C0788327040003A5C70170
S2140152D4EF3000788327040003A50702EF304077F8
S2140152E48327040003A58701EF3080768327040013
S2140152F403A58702EF30C07503250401EF3040751E
S21401530403254401EF30C07403250400EF304074D4
S2140153148320C1000324810013010101678000007A
S2140153249307050013072003630AE50A634EA704DF
S21401533413074001630AE50A6344A702630C050ADE
S2140153441307A0006318E50003A5018A83A5418A13
S2140153546780000003A5018E83A5418E6780000047
S2140153641307E0016300E50A130780026318E500EA
S21401537403A5818B83A5C18B6780000003A5018EDD
S21401538483A5418E67800000130700056302E508C4
S2140153946346A7021307C0036302E5081307600404
S2140153A46318E50003A5018D83A5418D6780000080
S2140153B403A5018E83A5418E678000001307A0050F
S2140153C413050000930500006394E700678000005E
S2140153D403A5018E83A5418E6780000003A5018C79
S2140153E483A5418C6780000003A5818A83A5C18AB1
S2140153F467800000B717090003A587A083A5C7A087
S2140154046780000003A5018B83A5418B678000009C
S21401541403A5818D83A5C18D6780000003A5818CBA
S21401542483A5C18C6780000093070500130720033A
S2140154346300E50C6342A706130740016300E50C0D
S2140154446348A7021305000093050000638A070852
S2140154541307A0006398E70003A5818D83A5C18D7A
S2140154646780000003A5018E83A5418E6780000036
S2140154741307E001630AE508130780026318E500D1
S21401548403A5018C83A5418C6780000003A5018ECA
S21401549483A5418E6780000013070005630CE506AB
S2140154A46346A7021307C003630CE50613076004EB
S2140154B46318E50003A5818A83A5C18A6780000075
S2140154C403A5018E83A5418E678000001307A005FE
S2140154D4631AE500B717090003A587A083A5C7A02B
S2140154E46780000003A5018E83A5418E67800000B6
S2140154F403A5818B83A5C18B6780000003A5018D5D
S21401550483A5418D6780000003A5818C83A5C18C8A
S2140155146780000003A5018A83A5418A678000008D
S21401552403A5018B83A5418B67800000130101FD50
S21401553423261102232481022322910223202103FC
S214015544232E3101232C4101232A510123286101F1
S2140155542326710123248101232291012320A10101
S2140155641304050013890500130D0600938B06002A
S214015574130B0700938A0700130A0800938908008F
S21401558413054003EF30004C930405002320A400C8
S21401559413054000EF30004B23A0A4001305400080
S2140155A4EF30404A23A2A40013058000EF3080495F
S2140155B423AEA40013058000EF30C04823A0A40244
S2140155C413054000EF30004823ACA40093074000C5
S2140155D423A8F40023AAF40023A2740313050002EB
S2140155E4EF30404623A4A40213058000EF30804523
S2140155F42328A40013058000EF30C044232AA40006
S21401560413050B0093850A00EF30802393040500ED
S214015614EFF01FD1930C0500138C0500130605004B
S214015624938605003745050013054541EF4080067E
S21401563413850400EFF05FDF930B050093840500E8
S21401564413060500938605003745050013058542B4
S214015654EF4040048327040083A7070023A0270103
S2140156648327040083A7470023A0A70183270400F8
S21401567403ADC70103A6818E83A6C18E13050A0056
S21401568493850900EF20C01D13860C0093060C00B9
S214015694EF20001D2320AD002322BD008327040034
S2140156A483A7C70103A6070083A64700374505005D
S2140156B41305C543EF30107E8327040003AC0702AD
S2140156C413860B0093860400B7070080B3C737011F
S2140156D413050A0093850700EF2080182320AC00E9
S2140156E42322BC008327040083A7070203A607001E
S2140156F483A647003745050013054546EF309079E4
S2140157048327040083A787011307100023A0E7005B
S21401571423240400232204008326040123A0660113
S21401572423A25601032744019306F01393070000AE
S21401573463DA2601130909EC9307F013B3B72701BB
S2140157449387170023204701232237012326F400D9
S2140157548320C10203248102832441020329010216
S2140157648329C101032A8101832A4101032B0101F3
S214015774832BC100032C8100832C4100032D0100DF
S2140157841301010367800000130101FF23261100A2
S21401579423248100232291002320210113040500E0
S2140157A48327050083A4070003A9C70103A50400F2
S2140157B4EF3040110326090083264900EF00D05B31
S2140157C4EF30000823A0A4008327040083A4470025
S2140157D403A9070203A50400EF30C00E032609003F
S2140157E483264900EF005059EF30800523A0A4001A
S2140157F48327040083A4070203A6018F83A6418F8F
S21401580403A5040083A54400EF00105723A0A400B9
S21401581423A2B4008327040083A7070003A7070075
S2140158249306F0139307000063DAE600130707EC08
S2140158349307F013B3B7E700938717002326F40002
S2140158448320C1000324810083244100032901002D
S21401585413010101678000008327050123A0B70017
S21401586423A2C7008327450123A0D70023A2E7006C
S21401587467800000130101FF232611002324810001
S21401588413040500630E05028327040003A707001B
S214015894032607009305460083A7470083A607004F
S2140158A49386460083A7C1A06398070223220400B7
S2140158B48320C100032481001301010167800000D5
S2140158C4374505001305C548EF30106F6FF0DFFB51
S2140158D483A70701E38C07FC03A74700E3CAE6FE98
S2140158E403A7C700E346D7FE03A78700E342C7FE24
S2140158F403A70700E3CEE5FC232291003745050004
S2140159041305854AEF30506B930710002322F400E9
S2140159148327040083A4C70103A6818F83A6C18FAE
S21401592403A5040083A54400EF10907323A0A400EC
S21401593423A2B4008327040083A6C70123A0A600DC
S21401594423A2B6008327040083A4070203A60190BA
S21401595483A6419003A5040083A54400EF1050706C
