S00C00006D61696E2E7372656373
S21401009497A10B00938141F81701FF03130141F661
S2140100A41385C199178633001306C6AE3306A640D8
S2140100B493050000EFC0503017D50000130545AA7C
S2140100C4EFB01000EFC0D01F1305000093054100E8
S2140100D413060000EF00800E6FB0C07F37A50C003A
S2140100E437A70C009307458113074781630AF70076
S2140100F493070000638607001305458167800700A0
S2140101046780000037A50C009307458137A70C00CC
S21401011493054781B385F54093D7254093D5F501DB
S214010124B385F50093D51540638A0500930700004F
S2140101346386070013054581678007006780000012
S214010144130101FF2324810083C781AE23261100F6
S21401015463940702EFF09FF893070000638A070091
S21401016437950C001305851297000000E700000080
S214010174930710002384F1AE8320C1000324810079
S21401018413010101678000009307000063860702DC
S21401019437950C00130101FF9385C1AE1305851233
S2140101A42326110097000000E70000008320C10009
S2140101B4130101016FF01FF56FF0DFF4130101FE67
S2140101C4232E1100232C8100232A910023282101A8
S2140101D423263101EF101045EF101006EF10D04F13
S2140101E413088002930700141307800C930600007B
S2140101F413060000B7190500938589A3138501A981
S214010204EF90400A13088002930700141307800C2A
S214010214930600001306000037A9040093058963BA
S2140102241385C1A8EF9000081308800293070014F1
S2140102341307800C9306000013060000B74404005D
S21401024493858423138581A8EF90C0051308800243
S214010254930700141307800C93060000130600008E
S21401026437E40300930584E3138541A8EF908003E4
S21401027413088002930700141307800C93060014D6
S21401028413060000938589A3138501A8EF908001C6
S21401029413088002930700141307800C93060014B6
S2140102A413060000930589631385C1A7EF80907F29
S2140102B413088002930700141307800C9306001496
S2140102C41306000093858423138581A7EF80907D10
S2140102D413088002930700141307800C9306001476
S2140102E413060000930584E3138541A7EF80907BF2
S2140102F413088002930700141307800C9306002842
S21401030413060000938589A3138501A7EF809079CE
S21401031413088002930700141307800C9306002821
S21401032413060000930589631385C1A6EF809077B1
S21401033413088002930700141307800C9306002801
S2140103441306000093858423138581A6EF80907598
S21401035413088002930700141307800C93060028E1
S21401036413060000930584E3138541A6EF8090737A
S214010374130880079307000A13070000930600007A
S21401038413060000375402009305843E138541AAE0
S214010394EF80507103A541AAEF80406C13088007D3
S2140103A49307000A130700009306000A13060000C9
S2140103B49305843E138501AAEF80D06E03A501AA96
S2140103C4EF80C069130880079307000A13078007A4
S2140103D493060000130600009305843E1385C1A905
S2140103E4EF80506C03A5C1A9EF804067130880070E
S2140103F49307000A130780079306000A13060000F2
S2140104049305843E138581A9EF80D06903A581A94C
S214010414EF80C0641308D0089307100D1307E0019A
S2140104249306800313060000B7F502009385C57F83
S2140104341385C1AAEF80106703A5C1AAEF800062E5
S21401044403A5C1AAEF801079130810019307A0062B
S2140104541307800C9306B00613060000B7F50200D6
S2140104649385859E138581AAEF80D06303A581AA0F
S214010474EF80C05E03A581AAEF80D075EF604006C9
S214010484130500008320C101032481018324410153
S214010494032901018329C1001301010267800000B9
S2140104A4130101FF2326110037750500130585E3A3
S2140104B4EFC0401C37750500130545E5EFC0801BEA
S2140104C403A3819683C6919A03C6819AB7880000CE
S2140104D49305000F130EA0056F0080019306060016
S2140104E413F6F70F23A2F19A23A0E19A638AB600C2
S2140104F48327030033F71701E30607FE6FF01FFE99
S214010504E318C6FF2384019AA384019A2385019ADA
S214010514377505001305C5E6EFC0C0158320C10075
S214010524130101016780000003A3819613060000EE
S21401053493060000B78800009305000F130E90027F
S2140105446F0080019306060013F6F70F23A2F19AB3
S21401055423A0E19A638AB6008327030033F71701C1
S214010564E30607FE6FF01FFEE318C6FF2384019A15
S214010574A384019A2385019A67800000130101FF71
S214010584232611009300000003AE819683C6819A48
S21401059403C6919A930F0000930200009303000090
S2140105A4378300009305100013056001930EE001E4
S2140105B4130F000F6F0080006308E60783270E0001
S2140105C433F76700630E07009300060013860600E0
S2140105D493F6F70F938F0500938205009383050026
S2140105E423A2F19A23A0E19AE388A6FCE398D6FD18
S2140105F4E316E6FD63860F001307E0012384E19A00
S214010604638402002385119A63860300130700FF9F
S214010614A384E19A37750500130505E9EFC0800543
S214010624130510006F00400363860F001307600173
S2140106342384E19A638402002385119A6386030066
S214010644130700FFA384E19A377505001305C5E770
S214010654EFC04002130500002384019AA384019A83
S2140106642385019A8320C1001301010167800000DC
S214010674130101FF232611009300000003AE8196A7
S21401068483C6819A03C6919A930F000093020000D1
S21401069493030000378300009305100013056001DF
S2140106A4930EE001130F000F6F0080006308E60746
S2140106B483270E0033F76700630E070093000600D6
S2140106C41386060093F6F70F938F050093820500B1
S2140106D49383050023A2F19A23A0E19AE388A6FC5A
S2140106E4E398D6FDE316E6FD63860F001307E001E3
S2140106F42384E19A638402002385119A63860300A6
S214010704130700FFA384E19A37750500130505E96D
S214010714EFB05076130510006F00400363860F0098
S214010724130760012384E19A638402002385119AE6
S21401073463860300130700FFA384E19A3775050057
S214010744130545EAEFB01073130500002384019ADC
S214010754A384019A2385019A8320C1001301010110
S2140107646780000083A7819683A7070023A2F19AD6
S2140107743787000033F7E70023A0E19A130500004A
S214010784630C070203C7919A2385E19A83C6819A6B
S214010794A384D19A93F7F70F2384F19A1306000ED4
S2140107A4630EC7009307E001130500006316F70004
S2140107B49307000F6384F60C678000001307500745
S2140107C46384E6066362D7029307B0066384F6067B
S2140107D4930740076398F600B7970C0003A5C71361
S2140107E467800000678000001307000F639AE60223
S2140107F4130750076386E704130720076388E70493
S2140108041307B0066386E7061307400713050000BF
S214010814E394E7FAB7970C0003A5871467800000F2
S2140108241305000067800000B7970C0003A50714A2
S21401083467800000B7970C0003A587136780000044
S214010844B7970C0003A5C71467800000130101FFC6
S2140108542326110037750500130505ECEFB09061EA
S214010864130500008320C100130101016780000005
S214010874B7970C0003A5471467800000B7970C00D0
S21401088403A507156780000083A7819683A7070041
S21401089423A2F19A3787000033F7E70023A0E19AF1
S2140108A4130500006308070683C6919A2385D19A27
S2140108B403C7819AA384E19A93F7F70F2384F19AE5
S2140108C41306000E6380C602930790021305000008
S2140108D46392F6046304F70A9307000F6300F710A4
S2140108E467800000930640076308D70663F6E602AE
S2140108F4930650076306D7049306000F631ED702B8
S214010904130750076380E706130720071305000043
S2140109146380E706678000009307B0066308F70262
S214010924930720076318F700B7970C0003A547162B
S21401093467800000678000001305000067800000E0
S214010944B7970C0003A5C71567800000B7970C007E
S21401095403A5871567800000B7970C0003A5471504
S21401096467800000B7970C0003A507166780000090
S214010974B7970C0003A5871667800000130101FFD3
S2140109842326110023248100B7A70C0003A6878120
S21401099483A6C78103A581AB83A5C1ABEF8090294C
S2140109A423ACA1AA23AEB1AA03A6818083A6C180E3
S2140109B4EF90902D631E0500B7970C0003A507174B
S2140109C48320C10003248100130101016780000014
S2140109D4B7970C0003A5C7166FF09FFEB7970C00D8
S2140109E403A5071767800000130101FF23261100E2
S2140109F42324810023229100930405001384050017
S214010A0413060000930600001385040093050400F2
S214010A14EF905030634005021385040093050400EB
S214010A248320C100032481008324410013010101B2
S214010A3467800000B707008033C487006FF0DFFDCE
S214010A44130101FA232E1104232C8104232A910471
S214010A542328210523263105232441052322510574
S214010A6423206105232E7103232C8103232A91035A
S214010A742328A1032326B103130405009384050048
S214010A8413090600138D06002328E100232AF1002A
S214010A94232C0101232E1101834D01061305004069
S214010AA4EFA010662320A10013050040EFA05065B7
S214010AB42322A10013050040EFA090642324A10083
S214010AC413050040EFA0D0632326A10013050040C0
S214010AD4EFA01063930C050013054000EFA05062CD
S214010AE4930B05002320A40213054000EFA05061D8
S214010AF4130B05002322A40213058000EFA0506007
S214010B04930A05002324A40213058000EFA0505F76
S214010B14130A05002326A40213054000EFA0505E25
S214010B24130C05002328A40213054000EFA0505D12
S214010B34930905002320A404232A04029307100022
S214010B44232CF404232E0402930700012322F40425
S214010B54930700022324F40413050002EFA0505A5D
S214010B641307F0139307000063589700938704EC68
S214010B74B337F70093871700232AA40403274106F3
S214010B842322E406232E0404232004062328F40443
S214010B94930710002320FC0023A09B0023202B0195
S214010BA4130700009307000023A0EA0023A2FA001B
S214010BB42320EA002322FA009307400623A0F90023
S214010BC493071006638EFD189308A0001308D9FF37
S214010BD4938734001307A000930620001306100021
S214010BE493858195EF70401213054003EFA0505191
S214010BF4930405002320A4002322A50393090002DD
S214010C04232A3501130900012328250123249503EA
S214010C1413054003EFA0D04E130A05002322A400B7
S214010C24832701012322F502232A350123282501DE
S214010C34832701002324F50213054003EFA0504C3B
S214010C44930A05002324A400832741012322F502E5
S214010C54232A350123282501832741002324F5026D
S214010C6413054003EFA0D049130B05002326A40067
S214010C74832781012322F502232A3501232825010E
S214010C84832781002324F50213054003EFA0504770
S214010C942328A4008327C1012322F502232A350130
S214010CA4232825018327C1002324F5028325040272
S214010CB423A0B4000326440223A2C400832684028C
S214010CC423AED4000327C40223A0E402832704032B
S214010CD423ACF4002320BA002322CA00232EDA0010
S214010CE42320EA02232CFA0023A0BA0023A2CA0076
S214010CF423AEDA0023A0EA0223ACFA002320BB00C9
S214010D042322CB00232EDB002320EB02232CFB0023
S214010D142320B5002322C500232ED5002320E50277
S214010D24232CF5008320C105032481058324410572
S214010D34032901058329C104032A8104832A410462
S214010D44032B0104832BC103032C8103832C41034E
S214010D54032D0103832DC1021301010667800000E0
S214010D649308A0001308D9FF938734001307A00043
S214010D7493062000130610009385C195EF60D07882
S214010D846FF09FE6130101FF23261100232481003F
S214010D9413040500630005048327040283A50700E2
S214010DA4032544043385A5008327440283A607004C
S214010DB483278404B386F60083A701AB63980702EE
S214010DC4232E04028320C1000324810013010101A0
S214010DD467800000377505001305C5FDEFB090095F
S214010DE46FF09FFB83A70701E38C07FC03A747006B
S214010DF4E3CAE6FE03A6C700E346D6FE03A68700BB
S214010E04E342B6FE03A60700E34EC5FC93071000B3
S214010E14232EF4028327C40213060000930600005F
S214010E2423A0C70023A2D700832744028326840471
S214010E343307D74023A0E7006FF0DFF893070500D8
S214010E4403270503032507006302050603A7050315
S214010E5403250700630C050403A70702832607007E
S214010E6403A705020326070003A745043307E60084
S214010E741305000063DCE60203A74704B386E60015
S214010E846356D60203A747028326070003A7450233
S214010E940326070003A785043307E60063D8E600A4
S214010EA483A78704B386F6003325D600678000003F
S214010EB493070500032705030325070063020506B8
S214010EC403A7850103250700630C050403A707028E
S214010ED48326070003A705000326070003A70501C9
S214010EE43307E6001305000063DCE60203A74704A4
S214010EF4B386E6006356D60203A747028326070095
S214010F0403A745000326070003A745013307E600A8
S214010F1463D8E60083A78704B386F6003325D60094
S214010F2467800000032705028327070083A60500C0
S214010F3403A606009386570063D4C7009386B7FFBB
S214010F442320D700032745028327070083A64500ED
S214010F5403A606009386570063D4C7009386B7FF9B
S214010F642320D70067800000130101FF2326110008
S214010F74032785039307700063E0E70693172700AA
S214010F84377705001307873DB387E70083A7070074
S214010F946780070003250500EF70107B8320C100DE
S214010FA4130101016780000003254500EF70D07925
S214010FB46FF0DFFE03258500EF7010796FF01FFEDA
S214010FC40325C500EF7050786FF05FFD032505011A
S214010FD4EF7090776FF09FFC37750500130585FF5A
S214010FE4EFB040696FF09FFB6300050C130101FF2E
S214010FF4232611002324810013040500EFF0DFF6F5
S2140110048327040003A58702EFA05010832744001A
S21401101403A58702EFA0900F8327840003A5870208
S214011024EFA0D00E8327C40003A58702EFA0100EFD
S2140110348327040103A58702EFA0500D03250402AC
S21401104463040500EFA0900C032544026304050025
S214011054EFA0D00B0325840263040500EFA0100B58
S2140110640325C40263040500EFA0500A0325040304
S21401107463040500EFA09009032504046304050036
S214011084EFA0D0080325440563080500EF60D0727D
S21401109403254405EFA090078320C10003248100A3
S2140110A4130101016780000067800000130101FF3E
S2140110B423261100232481002322910023202101C9
S2140110C493040500130400001309800283A7440552
S2140110D483A70700B387870003A50700EF701018DE
S2140110E413044400E31424FF9305A00003A5440558
S2140110F4EF60D0658320C10003248100832441006E
S214011104032901001301010167800000130101FE98
S214011114232E1100232C8100232A91002328210148
S214011124130405008327450503A7C7016356E00298
S2140111349304000083A7070013972400B387E700EE
S21401114403A50700EF7050609384140083274405B9
S21401115403A7C701E3C0E4FE03A7470083270402ED
S21401116483A70700938737002320F70083274405C6
S21401117403A787008327440283A707009387D7FF23
S2140111842320F700930700001308A0000327440553
S2140111941396270083260700B386C60083A6060097
S2140111A483A506000325470083260701B386D702D5
S2140111B4032705003307D70023A0E500832644054B
S2140111C403A706003307C7000327070003274700C2
S2140111D483A6860083A606002320D70093871700DC
S2140111E4E39607FB8327040403A50700EFA04059F1
S2140111F403A6018183A64181EF80503003A6818135
S21401120483A6C181EF908051EFA0404F13090500DA
S2140112146356A006232631012324410123225101CA
S2140112249304000093096000130A1000930A7000E7
S2140112346F00C00093841400630C990203274403CF
S214011244E30A37FF832784039387A7FFE374FAFE31
S214011254E30257FF8327440583A707001397240057
S214011264B387E70003A50700EF70407F6FF09FFC8C
S2140112748329C100032A8100832A410093050900BA
S21401128403254405EF60904C8320C10103248101AA
S214011294832441010329010113010102678000002F
S2140112A4130101FF232611002324810013040500E2
S2140112B463840502032784039307700063E6E70249
S2140112C493172700377705001307873FB387E7008F
S2140112D483A7070067800700EFF05FE36FF09FFDC9
S2140112E403250400EF705046032744039307700058
S2140112F463EAE70493172700377705001307874146
S214011304B387E70083A70700678007000325440027
S214011314EF7090436FF05FFD03258400EF70D042B9
S2140113246FF09FFC0325C400EF7010426FF0DFFBE3
S21401133403250401EF7050416FF01FFB03250400E1
S214011344EF70C0718320C1000324810013010101E1
S2140113546780000003254400EF7040706FF09FFE25
S21401136403258400EF70806F6FF0DFFD0325C40052
S214011374EF70C06E6FF01FFD03250401EF70006E61
S2140113846FF05FFC130101FF232611002324810063
S2140113942322210123203101930710006388F504D9
S2140113A403248502032904008329440003A68183B8
S2140113B483A6C1831305090093850900EF90802550
S2140113C46358050A03A7818383A7C1832320E40006
S2140113D42322F4008320C100032481000329410051
S2140113E4832901001301010167800000032485029B
S2140113F4032904008329440003A6018283A64182AB
S2140114041305090093850900EF90C010635CA000E2
S21401141403A7018283A741822320E4002322F40048
S2140114246FF05FFB03A6818283A6C18213050900C0
S21401143493850900EF90001E635C050003A7818273
S21401144483A7C1822320E4002322F4006FF09FF8CF
S21401145403A6018383A64183130509009385090026
S214011464EF70507D2320A4002322B4006FF09FF672
S21401147403A6018483A64184130509009385090004
S214011484EF904009635CA00003A7018483A741840D
S2140114942320E4002322F4006FF0DFF303A6018384
S2140114A483A641831305090093850900EF909014E0
S2140114B42320A4002322B4006FF0DFF1130101FE00
S2140114C4232E1100232C8100232A91002328210195
S2140114D41304050063020520232631012324410158
S2140114E4232251019384050013090600832745032B
S2140114F4232CF502B7970C0083A5871313850400E4
S214011504EFB010026306050083A7C1966390070631
S21401151423A6019693091000232A34039305000099
S21401152413050400EFF01FE6032A0402832A84024B
S21401153403250A00EFA0C02403A60A0083A64A00D6
S214011544EF70506FEFA0801B2320AA00832784022C
S21401155403A5070083A54700EFA0401A83270900C7
S214011564B387A7002320F900232C3405B7970C0072
S21401157483A5C71313850400EFB0807A63060500BC
S21401158483A701976390070623A801969309200071
S214011594232A34039305100013050400EFF09FDE9D
S2140115A4032A0402832A840203250A00EFA0401DAD
S2140115B403A60A0083A64A00EF70D067EFA00014C2
S2140115C42320AA008327840203A5070083A54700D6
S2140115D4EFA0C01283270900B387A7002320F900D0
S2140115E4232C3405B7970C0083A507141385040030
S2140115F4EFB00073631805000327C40493071000B3
S21401160463D4E70EB7970C0083A54714138504002B
S214011614EFB00071631005028327840213060000ED
S2140116249306000023A0C70023A2D70013071000C7
S21401163423A6E196B7970C0083A5871413850400A7
S214011644EFB0006E631C050E8327840213060000A8
S2140116549306000023A0C70023A2D7001307100097
S21401166423A8E1968329C100032A8100832A410025
S2140116748327840203A5070083A54700EFA000087B
S214011684631E05008324C40203A5040083A5440045
S214011694EFA0C006631C050A232A04028324C4029D
S2140116A403A5040083A54400EFA040056310050AC2
S2140116B48327C403639E070A832784051307200030
S2140116C4638EE70C13071000639EE70C9307600014
S2140116D4232AF4026F00000D377505001305C5FDB6
S2140116E4EFA050796FF0DFF88327840513072000F5
S2140116F4638AE70213071000638CE7028327C40298
S21401170403A6818383A6C18323A0C70023A2D7008F
S214011714232E04028327C404938717002326F40484
S2140117246FF05FEE93077000232AF4026FF01FFD3B
S21401173493076000232AF4026FF05FFC8329C1003B
S214011744032A8100832A41006FF09FF28327C40392
S214011754130710006382E70203278405930620001B
S2140117646308D702930610006304D70C638C070240
S214011774232604046F0040071307000093070000A4
S21401178423A0E40023A2F400232A04026FF05FF2EC
S21401179413077000232AE402E39C07FC93077000F6
S2140117A4232AF4028324C40203A6818483A6C18463
S2140117B403A5040083A54400EF70D04723A0A4002A
S2140117C423A2B400832444020329C40203A504000B
S2140117D4EF90107B0326090083264900EF7090459D
S2140117E4EF90D07123A0A4008327040203A7070067
S2140117F49306F0139307000063DAE600130707EC79
S2140118049307F013B3B7E700938717002328F4046C
S21401181413050400EFF00FD78320C10103248101CF
S2140118248324410103290101130101026780000099
S21401183413076000232AE402E38A07E86FF05FF3E4
S2140118449307100023A6F19623A8F196678000005B
S214011854130101FE232E1100232C8100232A91005B
S2140118642328210123263101232441012322510166
S214011874130405009304060063860512930500000D
S214011884EFF05FB0832A04028327840203A601854E
S21401189483A6418503A5070083A54700EF8010684A
S2140118A4930905001389050003A50A00EF90506DFE
S2140118B413060500938605001385090093050900A0
S2140118C4EF705037EF90906323A0AA000325040617
S2140118D4EF90106B93090500138905008327840292
S2140118E403A6018583A6418503A5070083A54700B2
S2140118F4EF80D06213060500938605001385090060
S21401190493050900EF90004FEF90505F2320A40643
S214011914639404048324C40203A6818583A6C18533
S21401192403A5040083A54400EF70D03023A0A400CF
S21401193423A2B400832444020329C40203A5040099
S214011944EF9010640326090083264900EF70902E59
S214011954EF90D05A23A0A4008327040203A707000C
S2140119649306F0139307000063DAE600130707EC07
S2140119749307F013B3B7E700938717002328F404FB
S2140119848320C10103248101832441010329010128
S2140119948329C100032A8100832A4100130101021D
S2140119A46780000093051000EFF0DF9D832A040290
S2140119B48327840203A6018583A6418503A5070020
S2140119C483A54700EF809055930905001389050008
S2140119D403A50A00EF90D05A130605009386050066
S2140119E41385090093050900EF70D024EF90105178
S2140119F423A0AA008327840203A6018583A6418522
S214011A0403A5070083A54700EF80505193090500FD
S214011A141389050003250406EF9090561306050066
S214011A24938605001385090093050900EF7090203D
S214011A34EF90D04C6FF09FED37B31A001303C3D960
S214011A44B75811009388C8B137A80C001308C8B159
S214011A54370516001305C501130E0000B78E0300E3
S214011A64938E0E40130705B01306080093860800EC
S214011A7493070300938507D82320B70023A0F60015
S214011A84938507282320B60013074700938727006A
S214011A949386460013064600E31EA7FC1303037849
S214011AA49388085013080850130E0E3C130505506E
S214011AB4E31ADEFB67800000B70816009388C8B1F6
S214011AC4930500281308000037E301009317180054
S214011AD49386080003A7419B3307F70003A6060075
S214011AE4035707002310E6009387270093864600D2
S214011AF4E392B7FE9388085013080820938505409F
S214011B04E31668FC67800000B75811009388C8B1D3
S214011B14930500281308000037E301009317180003
S214011B249386080003A7419B3307F70003A6060024
S214011B34035707002310E600938727009386460081
S214011B44E392B7FE9388085013080820938505404E
S214011B54E31668FC67800000B7A80C009388C8B138
S214011B64930500281308000037E3010093171800B3
S214011B749386080003A7419B3307F70003A60600D4
S214011B84035707002310E600938727009386460031
S214011B94E392B7FE938808501308082093850540FE
S214011BA4E31668FC6780000093959500B385A5004D
S214011BB493951500B7172B009387C731B387F500A4
S214011BC42390C700B7B721009387C731B385F500C3
S214011BD42390C50067800000130101FE232E110027
S214011BE4232C8100232A9100232821012326310155
S214011BF42324410123225101370A1600130ACAB1CC
S214011C04B7BA0400B30A5A01130900009309001471
S214011C1493040A001304000083A704000396070034
S214011C249305090013050400EFF01FF813041400CC
S214011C3493844400E31234FF13091900130A0A506B
S214011C44E3185AFD8320C101032481018324410141
S214011C54032901018329C100032A8100832A410043
S214011C641301010267800000130101FE232E1100F7
S214011C74232C8100232A91002328210123263101C4
S214011C842324410123225101375A1100130ACAB1F0
S214011C94B7BA0400B30A5A011309000093090014E1
S214011CA493040A001304000083A7040003960700A4
S214011CB49305090013050400EFF01FEF1304140045
S214011CC493844400E31234FF13091900130A0A50DB
S214011CD4E3185AFD8320C1010324810183244101B1
S214011CE4032901018329C100032A8100832A4100B3
S214011CF41301010267800000130101FE232E110067
S214011D04232C8100232A9100232821012326310133
S214011D14232441012322510137AA0C00130ACAB114
S214011D24B7BA0400B30A5A01130900009309001450
S214011D3493040A001304000083A704000396070013
S214011D449305090013050400EFF01FE613041400BD
S214011D5493844400E31234FF13091900130A0A504A
S214011D64E3185AFD8320C101032481018324410120
S214011D74032901018329C100032A8100832A410022
S214011D841301010267800000130101FE232E1100D6
S214011D94232C8100232A91002328210123263101A3
S214011DA4930400001309000F9309001413040000A0
S214011DB4130600009305040013850400EFF0DFDE2C
S214011DC413041400E31624FF93841400E39034FFF1
S214011DD48320C101032481018324410103290101D4
S214011DE48329C1001301010267800000B73720FF71
S214011DF41307100023A0E702B73720FF9387C70213
S214011E0483A7070093F71700638C0700373720FF73
S214011E141307C7028327070093F71700E39C07FEFF
S214011E2467800000130101FF23261100232481008B
S214011E342322910003A74197B7172B009387C73135
S214011E442322F700EFF09FFA83A7419783A70700A1
S214011E5423AAF19AEFF05FF303A74197B7B72100DE
S214011E649387C7312322F7008327470023AAF19AD1
S214011E74EFF09FF18320C1000324810083244100F5
S214011E841301010167800000B73720FF13078000A4
S214011E9423A0E70423A0070493870704635CB00226
S214011EA493060500939525003306B50013870700AE
S214011EB48347670093F7F70FE38C07FE83A70600B3
S214011EC42324F70083A706002326F70093864600FB
S214011ED4E390C6FE6780000003A7819B9306100665
S214011EE42300D70083A7819B23A2070023A407000E
S214011EF423860700678000001306050093871500F4
S214011F0493854500930830009306800033E5170354
S214011F14131725003307E6000327070003284703A2
S214011F246318D800232CD70293871700E390B7FED3
S214011F3467800000377734001307C7319306C7005C
S214011F44138806009305000013060000130580009D
S214011F548327070083A74703B387A74093B71700D0
S214011F643306F60083A7060083A74703B387A74073
S214011F7493B71700B385F500130747009386460009
S214011F84E31807FD9307200063C2C70263D6B704AC
S214011F9493073000130580076394F50483A7819B98
S214011FA423860700130710046F00400393073000CD
S214011FB4E310F6FE638AF50083A7819B2386070058
S214011FC4130720046F00800183A7819B23860700E3
S214011FD4130740056F00800013079004238CE196D5
S214011FE467800000130101FF2326110083A7019BCC
S214011FF4639A070283A7C19A638E07021307100028
S214012004638CE700130720006396E702EFF0DFB462
S214012014EFF09FBC6F000002EFF01FAFEFF0DFBBE5
S2140120246F004001130710006380E70213072000C6
S2140120346380E70403A7019B23A6E19A8320C100DA
S214012044130101016780000083A7C19A638C07000E
S21401205413072000E390E7FEEFF01FB0EFF0DFC0B8
S2140120646FF05FFDEFF05FA5EFF01FC06FF09FFC10
S21401207483A7C19A638C070013071000E39CE7FA51
S214012084EFF09FA8EFF05FC76FF0DFFAEFF0DFA283
S214012094EFF09FC66FF01FFAB77734009387C73106
S2140120A41385C700930580006F00C000938747001F
S2140120B46386A70203A7070083264703E388B6FEC1
S2140120C40326070403260600E342C0FE232CD70298
S2140120D493068000232AD7026FF05FFDB77634009B
S2140120E49386C6319387C6009386860113058000BE
S2140120F46F00C000938747006384D70203A70700D5
S21401210403264703E308A6FE8325070483A50500E3
S214012114E342B0FE232CC702232AA7026FF09FFDD9
S21401212467800000377734001307C7319306C7006A
S2140121349385060013050000130610008327070085
S21401214483A7C705B387C74093B717003305F500C0
S21401215483A7060083A7C705B387C74093B71700AD
S2140121643305F5001307470093864600E318B7FCCA
S21401217467800000130101F4232E110A232C810A1F
S214012184232A910A2385019AA384019A2384019A16
S21401219483A7819B83C60700130710066388E60E90
S2140121A403A7870013172700B77734009387C7312F
S2140121B4B387E70083A7C70003A7070523A8E19A07
S2140121C4EFF05FE283A7819B83A7870063940700F0
S2140121D46F20C00D130710006394E7006F20C0132F
S2140121E4130720006394E7006F20C01903A501A913
S2140121F4EF60D00603A501A8EF60500603A501A76A
S214012204EF60D0050325C105EF60500503250106DF
S214012214EF60D00403254106EF60500437750500CE
S2140122241305C505EFA0004583A7819B03A6870078
S21401223483C50700377505001305C506EFA04031B1
S214012244EFE0CFB32320A104631405006F20401AE6
S21401225483A4819B83A584003775340013058532D6
S214012264EFF09FC923A4A40083A7819B130710063C
S2140122742380E700EFF01FCC8320C10B0324810BDE
S2140122848324410B1301010C6780000003A7470058
S21401229413172700B77734009387C731B387E7004E
S2140122A483A7070003A7070523A8E19AEFF09FD3A6
S2140122B483A7819B83A74700638E07061307100035
S2140122C4638EE70C130720006380E71403A501A9B6
S2140122D4EF60C07803A501A8EF60407803A501A7C5
S2140122E4EF60C0770325C105EF604077032501063B
S2140122F4EF60C07603254106EF604076EFE00FA855
S2140123042320A1046308051683A4819B83A54400A6
S214012314377534001305C531EFF01FBE23A2A400A0
S21401232483A7819B130720062380E700EFF09FC055
S2140123346FF09FF437740500130800029307000139
S2140123441307B00C9306601213060000930584432A
S2140123541305C105EF601075130800029307000109
S2140123641307B00C930660261306000093058443F6
S21401237413050106EF6010731308000293070001AA
S2140123841307B00C9306603A1306000093058443C2
S21401239413054106EF6010716FF05FF33784050093
S2140123A41304848313080002930700011307B00C77
S2140123B49306601213060000930504001305C10575
S2140123C4EF60506E13080002930700011307B00C68
S2140123D49306602613060000930504001305010600
S2140123E4EF60506C13080002930700011307B00C4A
S2140123F49306603A1306000093050400130541068C
S214012404EF60506A6FF09FEC37840500130484C3B1
S21401241413080002930700011307B00C9306601219
S21401242413060000930504001305C105EF609067C9
S21401243413080002930700011307B00C93066026E5
S214012444130600009305040013050106EF6090656A
S21401245413080002930700011307B00C9306603AB1
S214012464130600009305040013054106EF6090630C
S2140124746FF0DFE52328210B2326310B2324410BA0
S2140124842322510B2320610B232E7109232C81094E
S214012494232A91092328A1092326B10903A581A882
S2140124A4EF60C05B03A581A7EF60405B03A581A62F
S2140124B4EF60C05A0325C105EF60405A03250106A3
S2140124C4EF60C05903254106EF604059B784050003
S2140124D493848403377434001304C43193080000CE
S2140124E41308E00D9307A00C130790019306E00070
S2140124F4130620009385040013058401EF50D000D1
S214012504930800001308E00D9307A0201307900119
S2140125149306E00013062000938504001305840344
S214012524EF50807E930800001308E00D9307A03453
S214012534130790019306E000130620009385040018
S21401254413058405EF50407C83A7819B83A747002E
S214012554939727003304F4008327040083A7070214
S21401256483A70700232CF100930C0000B7773400EF
S214012574938DC73183A7018603A841862324F102DC
S2140125842326010337A70C00832787810328C781E5
S2140125942328F102232A0103832787812324F104B4
S2140125A48327C7812326F10483A7818003A8C180DA
S2140125B4232CF102232E010393878D012322F10498
S2140125C46F00802C83274703232CF70203A74600BA
S2140125D413172700B77734009387C731B387E7000B
S2140125E483A707001307800023AAE70283A74600F0
S2140125F4638E070A130710006388E70E130720008B
S214012604930610002320D104638EE7103774340038
S2140126141304C43183254403130984019385F5FF08
S21401262413050900EF501013832544039304840310
S2140126349385F5FF13850400EF50D01183254403D9
S214012644130484059385F5FF13050400EF509010D9
S21401265413050900EF50501613850400EF50D015EA
S21401266413050400EF505015EFF08F9D2384019A53
S214012674A384019A2385019A832701046388074A60
S2140126840329010B8329C10A032A810A832A410AE1
S214012694032B010A832BC109032C8109832C4109CD
S2140126A4032D0109832DC1086FF01FC603A541A19F
S2140126B4EF60C03A03A581A0EF60403A03A5C19F2D
S2140126C4EF60C03903A541A1EF60D05003A581A0F6
S2140126D4EF60505003A5C19FEF60D04F93071000E1
S2140126E42320F1046FF09FF203A501A1EF600037E8
S2140126F403A541A0EF60803603A5819FEF600036F5
S21401270403A501A1EF60104D03A541A0EF60904C15
S21401271403A5819FEF60104C930710002320F1045A
S2140127246FF0DFEE03A5C1A0EF60403303A501A05F
S214012734EF60C03203A5419FEF60403203A5C1A0FC
S214012744EF60504903A501A0EF60D04803A5419F5F
S214012754EF605048930710002320F1046FF01FEB3D
S21401276483A7819B83A7470093972700B387FD0020
S21401277483A5040003A50700EFE04FEC63060500FC
S21401278423268A01930B0C0013044400130A4A00FF
S21401279493844400630CA40383A7819B83A7470007
S2140127A493972700B387FD0003A50700832504003C
S2140127B4E308B5FAEFE08FE8E30405FA930710009F
S2140127C42320FA00930B10006FF09FF963940B1803
S2140127D483A7819B83A7470093972700B387FD00B0
S2140127E49305000003A50700EFE09FAB83A7819B39
S2140127F483A7470093972700B387FD0083A70700A5
S21401280403A7070523A8E19A0329010463C60C2834
S21401281413850C00EF80D076032681028326C1023D
S214012824EF70C04D930405001384050003260103CD
S21401283483264103EF70104E6356A000832481045F
S2140128440324C104032681038326C10313850400DC
S21401285493050400EF70906CEF80506A93090500AD
S21401286483A44D036344952463C2A4289385090075
S21401287403254104EF50806D63040900B30C9041B5
S214012884EFF0CFD6EFF00FF613850C00EF80506F04
S214012894EFE08F9503A6018683A64186EF709057D5
S2140128A4E35605D6EFD01FEC93050500B7970C0049
S2140128B49387871383A78701E38AA7D483A7819B7A
S2140128C483A7470093972700B387FD0013060000EC
S2140128D403A50700EFE09FBE83A6819B83A746005E
S2140128E493972700B387FD0003A7070083274702B2
S2140128F403A607009307D011E3C6C7CC83270702B4
S21401290483A707002320F10203278101B38CE74044
S214012914232401062326010623280106232A010669
S214012924232C0106232E0106B7773400938AC73178
S214012934130981069389CA00138D0900938409003B
S214012944130A09001384C731930B0000130C1000FB
S2140129546FF09FE4938B0A00138B0900130A090096
S21401296493045000130C20006F004006138D0B00D7
S21401297403A54B018327450503A7C7016358E00256
S2140129841304000083A7070013172400B387E70086
S21401299403A50700EF60405B1304140003254D01F3
S2140129A48327450503A7C701E34EE4FCEFE0CFDB2D
S2140129B46F00800283274A01639E07029384F4FF13
S2140129C4130ACAFF130BCBFF938BCBFFE3449CFE86
S2140129D483274A01E39C07F89384F4FF9307F0FFE7
S2140129E4638EF404130ACAFF130BCBFF938BCBFF3E
S2140129F46FF0DFFD130D0B0003258B0083274505C0
S214012A0403A7C7016358E0021304000083A7070065
S214012A1413172400B387E70003A50700EF60C0522D
S214012A241304140003258D008327450503A7C70156
S214012A34E34EE4FCEFE04FD36FF05FF883A7819B8E
S214012A4483A7470093972700B387FD0093050000EB
S214012A5403A50700EFE0DF841304000093042000BD
S214012A64130A60006F30501483270900639E070021
S214012A7413041400E30C44D7938A4A00938949004B
S214012A84130949006F3050129305000003A549FF4E
S214012A94EFE01F816FF0DFFD832781010327010229
S214012AA4B38CE740130910006FF09FD613942400EB
S214012AB483A78D01B387870003A50700EF60C0488D
S214012AC483A78D03B387870003A50700EF60C0477C
S214012AD483A78D05B387870003A50700EF60C0466B
S214012AE49384F4FFE3D434FD6FF05FD81394240089
S214012AF483A78D01B387870003A50700EF501076DF
S214012B0483A78D03B387870003A50700EF501075CD
S214012B1483A78D05B387870003A50700EF501074BC
S214012B2493841400E39499FC6FF05FD403A5C1A8C1
S214012B34EF50D07203A5C1A7EF50507203A5C1A6EA
S214012B44EF50D0710325C105EF50507103250106DE
S214012B54EF50D07003254106EF505070EFD05FB1AF
S214012B64630405006F10C07103A541A8EF50106FF0
S214012B7403A541A7EF50906E03A541A6EF50106E32
S214012B8483A7019B6380070E130710006384E71075
S214012B94130720006388E712130700009307000059
S214012BA423A0E1AC23A2F1AC23ACE1AA23AEF1AAA3
S214012BB483A7819B03A7470013172700B777340021
S214012BC49387C731B387E70083A7070003A74702A4
S214012BD483A7070283A607001308000293070002CF
S214012BE403270700938686FF13060000B7450800EF
S214012BF493854507138581A1EF60C06A03A581A16A
S214012C04EF50D065130C1000930400001304000069
S214012C1403AB818183ABC18103A8C18683A7818667
S214012C242320F1022322010303A8418783A70187F6
S214012C342324F1022326010303A8418A83A7018AD8
S214012C44232CF100232E0101B7A70C0003AA8781C8
S214012C5483AAC78183AD878183A7C7812320F10413
S214012C646F00001B930800001308D00D9307201073
S214012C74130790019306E00013062000B7850500AC
S214012C84938585033775340013054539EF50C0071E
S214012C946FF09FF0930800001308D00D93072024CB
S214012CA4130790019306E00013062000B78505007C
S214012CB4938585033775340013054539EF50C004F1
S214012CC46FF09FED930800001308D00D930720388A
S214012CD4130790019306E00013062000B78505004C
S214012CE4938585033775340013054539EF50C001C4
S214012CF46FF09FEA03A581A1EF60002503A581A1DA
S214012D04EF60406D63120C2883A7819B03A74700DD
S214012D1413172700B77734009387C731B387E700C3
S214012D2483A7070003A7470283A7070283A6070012
S214012D34130800029307000203270700938686FF01
S214012D4413060000B7B5070093854507138581A1CF
S214012D54EF60405503A581A1EF50505093040D0038
S214012D6413840900B7970C0083A70716E386270187
S214012D74B7970C0083A78716E3802705B7970C003F
S214012D8483A74715E38A2707B7970C0083A78715F8
S214012D94E382270FB7970C0083A70717E38A271543
S214012DA403A6818083A6C18003A581AB83A5C1AB9D
S214012DB4EF60D074130905009389050013060A0011
S214012DC493860A00EF7000756356A00013890D0000
S214012DD48329010403A6818083A6C1801305090003
S214012DE493850900EF709013EF8050119309050045
S214012DF4B777340003A9073BE344252DE346A92E00
S214012E04938509003775340013054539EF500014CE
S214012E14EFD09FA71309050003AD01AC83A941AC0C
S214012E24138604009306040013050D009385090018
S214012E34EF708065E30805F21306000093060000B0
S214012E4413050D0093850900EF700064E30405EA99
S214012E5413060B0093860B0013050D0093850900DA
S214012E64EF708062630A0516032601028326410277
S214012E7413050D0093850900EF70006163080520B2
S214012E84032681028326C10213050D0093850900DA
S214012E94EF70805F6306052A03A6818783A6C18730
S214012EA413050D0093850900EF70005E6304053475
S214012EB403A6018883A6418813050D00938509009E
S214012EC4EF70805C6302053E03A6818883A6C188F1
S214012ED413050D0093850900EF70005B6300054838
S214012EE403A6018983A6418913050D00938509006C
S214012EF4EF708059630E055003A6818983A6C189A4
S214012F0413050D0093850900EF700058630C055AEC
S214012F1403A6018A83A6418A13050D009385090039
S214012F24EF708056E31805E203A581A1EF60C001A6
S214012F3403A581A1EF60004A83A7819B03A74700ED
S214012F4413172700B77734009387C731B387E70091
S214012F5483A7070003A7470283A7070283A60700E0
S214012F64130800029307000203270700938686FFCF
S214012F7413060000B705080093854587138581A1CC
S214012F84EF6040326FF01FDD83A7819B03A74700E4
S214012F9413172700B77734009387C731B387E70041
S214012FA483A7070003A7470283A7070283A6070090
S214012FB4130800029307000203270700938686FF7F
S214012FC413060000B745080093854507138581A1BC
S214012FD4EF60402D6FF01FD803A581A1EF50D07686
S214012FE403A581A1EF60003F631A0C0483A7819BAC
S214012FF403A7470013172700B77734009387C73111
S214013004B387E70083A7070003A7470283A707023E
S21401301483A607001308000293070002032707008C
S214013024938686FF13060000B7C507009385458778
S214013034138581A1EF6000276FF0DFD183A7819B01
S21401304403A7470013172700B77734009387C731C0
S214013054B387E70083A7070003A7470283A70702EE
S21401306483A607001308000293070002032707003C
S214013074938686FF13060000B745080093854587A7
S214013084138581A1EF6000226FF0DFCC03A581A137
S214013094EF50906B03A581A1EF60C033631A0C0453
S2140130A483A7819B03A7470013172700B77734002C
S2140130B49387C731B387E70083A7070003A74702AF
S2140130C483A7070283A607001308000293070002DA
S2140130D403270700938686FF13060000B7C507007B
S2140130E493854507138581A1EF60C01B6FF09FC6CA
S2140130F483A7819B03A7470013172700B7773400DC
S2140131049387C731B387E70083A7070003A747025E
S21401311483A7070283A60700130800029307000289
S21401312403270700938686FF13060000B7350800B9
S21401313493854507138581A1EF60C0166FF09FC183
S21401314403A581A1EF50506003A581A1EF608028FB
S214013154631A0C0483A7819B03A747001317270050
S214013164B77734009387C731B387E70083A707008F
S21401317403A7470283A7070283A6070013080002D2
S2140131849307000203270700938686FF13060000B1
S214013194B7D5070093854587138581A1EF60801015
S2140131A46FF05FBB83A7819B03A747001317270014
S2140131B4B77734009387C731B387E70083A707003F
S2140131C403A7470283A7070283A607001308000282
S2140131D49307000203270700938686FF1306000061
S2140131E4B735080093854587138581A1EF60800B69
S2140131F46FF05FB603A581A1EF50105503A581A119
S214013204EF60401D631A0C0483A7819B03A7470044
S21401321413172700B77734009387C731B387E700BE
S21401322483A7070003A7470283A7070283A607000D
S214013234130800029307000203270700938686FFFC
S21401324413060000B7D5070093854507138581A1AA
S214013254EF6040056FF01FB083A7819B03A747006B
S21401326413172700B77734009387C731B387E7006E
S21401327483A7070003A7470283A7070283A60700BD
S214013284130800029307000203270700938686FFAC
S21401329413060000B725080093854507138581A109
S2140132A4EF6040006FF01FAB03A581A1EF50D0493A
S2140132B403A581A1EF600012631A0C0483A7819B06
S2140132C403A7470013172700B77734009387C7313E
S2140132D4B387E70083A7070003A7470283A707026C
S2140132E483A60700130800029307000203270700BA
S2140132F4938686FF13060000B7E507009385458786
S214013304138581A1EF50107A6FF0DFA483A7819B08
S21401331403A7470013172700B77734009387C731ED
S214013324B387E70083A7070003A7470283A707021B
S21401333483A6070013080002930700020327070069
S214013344938686FF13060000B725080093854587F4
S214013354138581A1EF5010756FF0DF9F03A581A13E
S214013364EF50903E03A581A1EF60C006631A0C04DA
S21401337483A7819B03A7470013172700B777340059
S2140133849387C731B387E70083A7070003A74702DC
S21401339483A7070283A60700130800029307000207
S2140133A403270700938686FF13060000B7E5070088
S2140133B493854507138581A1EF50D06E6FF09F99D1
S2140133C483A7819B03A7470013172700B777340009
S2140133D49387C731B387E70083A7070003A747028C
S2140133E483A7070283A607001308000293070002B7
S2140133F403270700938686FF13060000B715080007
S21401340493854507138581A1EF50D0696FF09F948A
S21401341403A581A1EF50503303A581A1EF50907B02
S214013424631A0C0483A7819B03A74700131727007D
S214013434B77734009387C731B387E70083A70700BC
S21401344403A7470283A7070283A6070013080002FF
S2140134549307000203270700938686FF13060000DE
S214013464B7F5070093854587138581A1EF509063CF
S2140134746FF05F8E83A7819B03A74700131727006E
S214013484B77734009387C731B387E70083A707006C
S21401349403A7470283A7070283A6070013080002AF
S2140134A49307000203270700938686FF130600008E
S2140134B4B715080093854587138581A1EF50905E63
S2140134C46FF05F8903A581A1EF50102803A581A1A0
S2140134D4EF505070631A0C0483A7819B03A747001F
S2140134E413172700B77734009387C731B387E700EC
S2140134F483A7070003A7470283A7070283A607003B
S214013504130800029307000203270700938686FF29
S21401351413060000B7F5070093854507138581A1B7
S214013524EF5050586FF01F8383A7819B03A7470072
S21401353413172700B77734009387C731B387E7009B
S21401354483A7070003A7470283A7070283A60700EA
S214013554130800029307000203270700938686FFD9
S21401356413060000B705080093854507138581A156
S214013574EF5050536FF00FFE03A901AC83A941AC81
S214013584032681018326C1011305090093850900D9
S214013594EF60906FE306058003A6818183A6C1814F
S2140135A41305090093850900EF50D06823A0A1AC48
S2140135B423A2B1AC6FF0CFFE03A901AC83A941AC41
S2140135C413060000930600001305090093850900FD
S2140135D4EF60906B630605FC03A6818183A6C18117
S2140135E41305090093850900EF70D00023A0A1AC50
S2140135F423A2B1AC6FF0CFFA1306000093060000C5
S21401360423A0C1AC23A2D1AC03A581A1EF50D01352
S21401361403A581A1EF50105C83A7819B03A74700F4
S21401362413172700B77734009387C731B387E700AA
S21401363483A7070003A7470283A7070283A60700F9
S214013644130800029307000203270700938686FFE8
S21401365413060000B745080093854507138581A125
S214013664EF50504403A581A1EF50403F130C1000C6
S2140136746FF00FF3130600009306000023A0C1ACFD
S21401368423A2D1AC03A581A1EF50100C03A581A1FF
S214013694EF50505483A7819B03A7470013172700B5
S2140136A4B77734009387C731B387E70083A707004A
S2140136B403A7470283A7070283A60700130800028D
S2140136C49307000203270700938686FF130600006C
S2140136D4B7B5070093854507138581A1EF50903C44
S2140136E403A581A1EF508037130C00006FF04FEB58
S2140136F403A681AB83A6C1AB377505001305850008
S214013704EF80106503A681AB83A6C1AB37750500B0
S21401371413050503EF80D063377434001304C431F2
S21401372483A7819B83A7470093972700B307F400D9
S21401373483A7070003A747020326070083A70702F8
S21401374483A507002320810103A881AB83A8C1AB0D
S21401375403A701AC83A741ACB78605009386060789
S214013764130676009385850013058409EF40D03F40
S21401377483254409930484079385F5FF1385040080
S214013784EF40407D03258409EF50402D03A581A118
S214013794EF50807B03A581A1EF50D0432384019A87
S2140137A4A384019A2385019A13850400EF40D0006F
S2140137B423A401AC9304800C138A07009309200008
S2140137C4377434001304C43113098409930A403D41
S2140137D4130B801683A781AC63C0F90603258409FD
S2140137E4EF50807613050900EF4090631305090036
S2140137F4EF40D071032584098327050083A70700BA
S2140138049387A70063F4FA006F2050358327450099
S21401381483A707006354FB006F205034EF50002445
S2140138248327440A23A8F19AEFE0CFFBEFE00FDCED
S2140138349384F4FFE39004FA377434001304C43118
S21401384403258409EF50407003298409832749001E
S21401385403A50700EF70D07203A6818083A6C180FA
S214013864EF704059EF70906913040500832709002F
S21401387403A50700EF70D07003A6818083A6C180DC
S214013884EF704057EF709067930605001308200306
S214013894930720031307040013060000B755080016
S2140138A4938545871385C1A5EF50D01F03A5C1A5F0
S2140138B4EF50C01AEFE08FD31304C0006F00000668
S2140138C4377D3400130DCD3183278D071317290057
S2140138D4B387E70003A50700EF5000671309F9FF54
S2140138E4E35439FF6FF0CFD1377D3400130DCD315A
S2140138F483278D0713172900B387E70003A507005D
S214013904EF50C01513091900E39429FF6FF04FCF48
S21401391403A5C1A5EF508014EFE04FCD03A5C1A5C3
S214013924EF5080621304F4FFE31404FEEFE00FCCBF
S21401393403A5C1A5EF50102A377434001305C4310A
S2140139449304C500138604009305C4311305850941
S214013954EF40106EEFE04FF4EFE0CFFC2320A1021E
S214013964130BC431232091041304C431130900003A
S21401397493098000130A3000930A10006F00401167
S2140139848327C505639C5711EFD00FDE630A09022E
S214013994930710006300F906930720006306F908ED
S2140139A403A504000327450393078000630EF70E5F
S2140139B41309190013044400938444006F00400D56
S2140139C403A541A1EF50800903A581A0EF5000098A
S2140139D403A5C19FEF50800803A541A1EF50901F96
S2140139E403A581A0EF50101F03A5C19FEF50901EA1
S2140139F46FF01FFB03A501A1EF50400603A541A0EC
S214013A04EF50C00503A5819FEF50400503A501A112
S214013A14EF50501C03A541A0EF50D01B03A5819F76
S214013A24EF50501B6FF0DFF703A5C1A0EF50000362
S214013A3403A501A0EF50800203A5419FEF500002A9
S214013A4403A5C1A0EF50101903A501A0EF509018CB
S214013A5403A5419FEF50101803A50400032745034F
S214013A64930780006304F7006F20100D0327C50534
S214013A74930710006314F7006F20D0081309190088
S214013A84631449016F20500B1304440093844400CB
S214013A940325040083274503E38437EF03A50400C5
S214013AA483274503E39C37FD8327C505E39857FD24
S214013AB4EFD08FCB6304090293071000630AF9045D
S214013AC4930720006314F9006F20100413091900EA
S214013AD413044400938444006FF09FFB03A5019FE5
S214013AE4EF40D07703A5419EEF40507703A5819D13
S214013AF4EF40D07603A5019FEF50D00D03A5419E5C
S214013B04EF50500D03A5819DEF50D00C6FF01FFCB4
S214013B1403A5C19EEF40907403A5019EEF40107467
S214013B2403A5419DEF40907303A5C19EEF50900AF3
S214013B3403A5019EEF50100A03A5419DEF5090097D
S214013B446FF0DFF8EFD00FA48325040003A7450325
S214013B5493078000630EF70003A7C50393071000BD
S214013B646312F70403A705069307300163DCE70233
S214013B74130B1B0023240106232601062328010612
S214013B84232A0106232C0106232E0106130C810683
S214013B94832C0104930D0C00832B81012324010241
S214013BA46F00C01103258103EF4090639305050060
S214013BB4032509000326C503EFD09FC983270900FF
S214013BC403A74702832607001307D011E354D7FA45
S214013BD403A7470323ACE7021307800023AAE702DF
S214013BE46384040493071000638AF4069307200091
S214013BF4E392F4F803A5C1A0EF40506603A501A023
S214013C04EF40D06503A5419FEF40506503A5C1A0D1
S214013C14EF50407C03A501A0EF50C07B03A5419F54
S214013C24EF50407B6FF01FF503A541A1EF401063F1
S214013C3403A581A0EF40906203A5C19FEF401062E7
S214013C4403A541A1EF50007903A581A0EF50807828
S214013C5403A5C19FEF5000786FF0DFF103A501A122
S214013C64EF40D05F03A541A0EF40505F03A5819FBD
S214013C74EF40D05E03A501A1EF50C07503A541A096
S214013C84EF50407503A5819FEF50C0746FF09FEE0F
S214013C9483A50C0003250900EFD04F9A630805009D
S214013CA49307100023A6FD0023245103938B4B0096
S214013CB4938D4D00938C4C0063047D03032509000A
S214013CC483A50B00E306B5FCEFD04F97E30205FC92
S214013CD49307100023A0FD00232451036FF05FFB1C
S214013CE483278102639A07009305000003250900D0
S214013CF4EFD00FDB6F00004A832D81018327010477
S214013D042324F102930C0C00930B50006F00000760
S214013D142328B10303A54D018327450503A7C7013E
S214013D24635AE002930A000083A7070013972A0048
S214013D34B387E70003A50700EF500021938A1A0012
S214013D448327010303A547018327450503A7C70165
S214013D54E3CCEAFCEFD04FA16F00400383A74C01EC
S214013D6463980704938BFBFF938CCCFF8327810214
S214013D749387C7FF2324F102938DCDFF9307200079
S214013D84E3CE77FD83A74C01E39407F8938BFBFFFF
S214013D949307F0FF6386FB06938CCCFF832781028F
S214013DA49387C7FF2324F102938DCDFF6FF01FFD88
S214013DB4832781022328F10203A58700832745056B
S214013DC403A7C701635AE002930A000083A707000A
S214013DD413972A00B387E70003A50700EF50C01620
S214013DE4938A1A008327010303A5870083274505C1
S214013DF403A7C701E3CCEAFCEFD00F976FF09FF659
S214013E049305000003250900EFD08FC9832B010415
S214013E14832A810113090000930C20006F20804C33
S214013E2483270C00639007021309190093076000A7
S214013E346302F936938A4A00938B4B00130C4C00A9
S214013E446F20404A9305000003A54BFFEFD04FC5F2
S214013E546FF09FFDEFC01FF38325040003A74503FE
S214013E6493078000630EF70003A7C50393071000AA
S214013E746312F70403A705069307300163DCE70220
S214013E84130B1B00232401062326010623280106FF
S214013E94232A0106232C0106232E0106130C810670
S214013EA4832C0104930D0C00832B8101232401022E
S214013EB46F00001003258103EF409032930505003F
S214013EC4032509000326C503EFD09F98832709001D
S214013ED403A74702832607001307D011E354D7FA32
S214013EE403A7470323ACE7021307800023AAE702CC
S214013EF46384040493071000638AF406930720007E
S214013F04E392F4F803A5819EEF40503503A5C19DC5
S214013F14EF40D03403A5019DEF40503403A5819EA4
S214013F24EF50404B03A5C19DEF50C04A03A5019D28
S214013F34EF50404A6FF01FF503A5019FEF40103282
S214013F4403A5419EEF40903103A5819DEF401031BA
S214013F5403A5019FEF50004803A5419EEF508047FB
S214013F6403A5819DEF5000476FF0DFF103A5C19EC5
S214013F74EF40D02E03A5019EEF40502E03A5419D90
S214013F84EF40D02D03A5C19EEF50C04403A5019E6A
S214013F94EF50404403A5419DEF50C0436FF09FEEA0
S214013FA4938B4B00938D4D00938C4C0063027D05DF
S214013FB483A50B0003250900EFC05FE8630805002D
S214013FC49307100023A0FD002324510303250900B1
S214013FD483A50C00E306B5FCEFC05FE6E30205FC2F
S214013FE49307100023A6FD00232451036FF05FFB03
S214013FF483278102639A07009305000003250900BD
S214014004EFD00FAA6F00C01B832D81018327010403
S2140140142324F102930C0C00930B50006F0000074D
S2140140242328B10303A54D018327450503A7C7012B
S214014034635AE002930A000083A7070013972A0035
S214014044B387E70003A50700EF401070938A1A00B0
S2140140548327010303A547018327450503A7C70152
S214014064E3CCEAFCEFC05FF06F00400383A74C018A
S21401407463980704938BFBFF938CCCFF8327810201
S2140140849387C7FF2324F102938DCDFF9307200066
S214014094E3CE77FD83A74C01E39407F8938BFBFFEC
S2140140A49307F0FF6386FB06938CCCFF832781027C
S2140140B49387C7FF2324F102938DCDFF6FF01FFD75
S2140140C4832781022328F10203A587008327450558
S2140140D403A7C701635AE002930A000083A70700F7
S2140140E413972A00B387E70003A50700EF40D065BE
S2140140F4938A1A008327010303A5870083274505AE
S21401410403A7C701E3CCEAFCEFC01FE66FF09FF6F6
S2140141149305000003250900EFD08F98832B010433
S214014124832A810113090000930C20006F20801854
S21401413483270C0063900702130919009307600094
S2140141446300F908938A4A00938B4B00130C4C00C6
S2140141546F2040169305000003A54BFFEFD04F9444
S2140141646FF09FFDEFD09FC8832701026302FB0611
S2140141740324810193040000130B0000130A1000AA
S214014184930930001309040003250400832AC50596
S214014194E38A4A9B9384140013044400E39434FF93
S2140141A40324010493040000130A10009309300049
S2140141B41309040003250400832AC505E38C4AC9B0
S2140141C49384140013044400E39434FF6FF09FF9BE
S2140141D4032B8101377534001305453BEF3010700E
S2140141E41306CB0013071000130500009305000007
S2140141F4832701046F00C00223AE060483A6860249
S21401420423A0A60023A2B60083260B0023A006063D
S2140142146F00C001130B4B0093874700630C6603C2
S21401422483260B0003A8C605E308E8FC83A607005B
S21401423403A8C605E310E8FE23AE060483A6860299
S21401424423A0A60023A2B60083A6070023A0060681
S2140142546FF05FFC0329010B8329C10A032A810A33
S214014264832A410A032B010A832BC109032C8109E2
S214014274832C4109032D0109832DC1086FE0CF88E2
S2140142840329010B8329C10A032A810A832A410AC5
S214014294032B010A832BC109032C8109832C4109B1
S2140142A4032D0109832DC1086FE00F8637840500AD
S2140142B41304040913080002930700011307B00C42
S2140142C49306601213060000930504001305C10546
S2140142D4EF40507D13080002930700011307B00C4A
S2140142E493066026130600009305040013050106D1
S2140142F4EF40507B13080002930700011307B00C2C
S2140143049306603A1306000093050400130541065C
S214014314EF4050796FD09FED3784050013040449AC
S21401432413080002930700011307B00C93066012EA
S21401433413060000930504001305C105EF409076AB
S21401434413080002930700011307B00C93066026B6
S214014354130600009305040013050106EF4090744C
S21401436413080002930700011307B00C9306603A82
S214014374130600009305040013054106EF409072EE
S2140143846FD0DFE63794050013040489130800028E
S214014394930700011307B00C93066012130600007E
S2140143A4930504001305C105EF40D06F13080002FE
S2140143B4930700011307B00C93066026130600004A
S2140143C49305040013050106EF40D06D130800029F
S2140143D4930700011307B00C9306603A1306000016
S2140143E49305040013054106EF40D06B6FD01FE020
S2140143F42328210B2326310B2324410B2322510B83
S2140144042320610B232E7109232C8109232A910968
S2140144142328A1092326B10903A581A8EF40006436
S21401442403A581A7EF40806303A581A6EF4000633F
S2140144340325C105EF40806203250106EF400062B3
S21401444403254106EF408061B78405009384840305
S214014454377434001304C431930800001308E00DC4
S2140144649307A00C130790019306E000130620009F
S2140144749385040013058401EF30100993080000A6
S2140144841308E00D9307A020130790019306E0009C
S214014494130620009385040013058403EF30D00629
S2140144A4930800001308E00D9307A0341307900146
S2140144B49306E00013062000938504001305840583
S2140144C4EF30900483A7819B83A7870093972700E7
S2140144D43304F4008327C40083A7070283A70700D5
S2140144E4232CF100930C0000B7773400938DC73169
S2140144F483A7018603A841862324F1022326010308
S21401450437A70C00832787810328C7812328F10254
S214014514232A0103832787812324F1048327C78160
S2140145242326F10483A7818003A8C180232CF102EA
S214014534232E010393878D012322F1046F00802C1F
S21401454483274703232CF70203A7860013172700A4
S214014554B77734009387C731B387E70083A7C700CB
S2140145641307800023AAE70283A78600638E070A3F
S214014574130710006388E70E130720009306100044
S2140145842320D104638EE710377434001304C43136
S21401459483254403130984019385F5FF1305090054
S2140145A4EF30501B83254403930484039385F5FF5E
S2140145B413850400EF30101A83254403130484057D
S2140145C49385F5FF13050400EF30D0181305090091
S2140145D4EF30901E13850400EF30101E13050400FF
S2140145E4EF30901DEFD0CFA52384019AA384019ABE
S2140145F42385019A832701046388074A0329010B4B
S2140146048329C10A032A810A832A410A032B010A40
S214014614832BC109032C8109832C4109032D01092C
S214014624832DC1086FD0DFC203A5019FEF4000436D
S21401463403A5419EEF40804203A5819DEF400042C1
S21401464403A5019FEF40105903A5419EEF409058E2
S21401465403A5819DEF401058930710002320F10411
S2140146646FF09FF203A5C19EEF40403F03A5019E54
S214014674EF40C03E03A5419DEF40403E03A5C19EC9
S214014684EF40505503A5019EEF40D05403A5419D2C
S214014694EF405054930710002320F1046FF0DFEE2F
S2140146A403A5819EEF40803B03A5C19DEF40003BDF
S2140146B403A5019DEF40803A03A5819EEF409051EA
S2140146C403A5C19DEF40105103A5019DEF409050F5
S2140146D4930710002320F1046FF01FEB130444002A
S2140146E4130A4A00938444006300A40783A7819BAA
S2140146F483A7870093972700B387FD0083250400CB
S21401470403A5C700EFC08FF36306050023208A01C3
S214014714930B0C0083A7819B83A78700939727009D
S214014724B387FD0003A5C70083A50400E308B5FA13
S214014734EFC0CFF0E30405FA930710002326FA002E
S214014744930B10006FF09FF963940B1883A7819B5A
S21401475483A7870093972700B387FD00930500007E
S21401476403A5C700EFC0DFB383A7819B83A7870098
S21401477493972700B387FD0083A7C70003A7070500
S21401478423A8E19A0329010463C60C2813850C00A7
S214014794EF60107F032681028326C102EF50005684
S2140147A493040500138405000326010383264103AD
S2140147B4EF5050566356A000832481040324C10499
S2140147C4032681038326C10313850400930504008D
S2140147D4EF50D074EF6090729309050083A44D03E3
S2140147E46344952463C2A4289385090003254104E0
S2140147F4EF30C07563040900B30C9041EFD00FDFAE
S214014804EFD04FFE13850C00EF609077EFC0CF9D7D
S21401481403A6018683A64186EF50D05FE35605D6EC
S214014824EFB05FF493050500B7970C0093878713E1
S21401483483A78701E38AA7D483A7819B83A78700DD
S21401484493972700B387FD001306000003A5C7004E
S214014854EFC0DFC683A6819B83A7860093972700B4
S214014864B387FD0003A7C7008327470203A60700F3
S2140148749307D011E3C6C7CC8327070283A7070093
S2140148842320F10203278101B38CE7402324010688
S2140148942326010623280106232A0106232C0106C2
S2140148A4232E0106B7773400938AC731130981068C
S2140148B49389CA00138D090093840900130A090019
S2140148C41384C731930B0000130C10006FF01FE222
S2140148D4938B0A00138B0900130A090093045000F2
S2140148E4130C20006F004006138D0B0003A54B012B
S2140148F48327450503A7C7016358E0021304000094
S21401490483A7070013172400B387E70003A507004E
S214014914EF4080631304140003254D0183274505E6
S21401492403A7C701E34EE4FCEFC00FE46F00800267
S21401493483274A01639E07029384F4FF130ACAFF7E
S214014944130BCBFF938BCBFFE3449CFE83274A01D7
S214014954E39C07F89384F4FF9307F0FF638EF40453
S214014964130ACAFF130BCBFF938BCBFF6FF0DFFD4C
S214014974130D0B0003258B008327450503A7C701E9
S2140149846358E0021304000083A7070013172400EA
S214014994B387E70003A50700EF40005B1304140088
S2140149A403258D008327450503A7C701E34EE4FCD1
S2140149B4EFC08FDB6FF05FF883A7819B83A7870027
S2140149C493972700B387FD009305000003A5C7004E
S2140149D4EFC01F8D1304000093042000130A600027
S2140149E46F10102E83270900639E0700130414001A
S2140149F4E30C44D7938A4A00938949001309490072
S214014A046F10102C9305000003A549FFEFC05F89C2
S214014A146FF0DFFD8327810103270102B38CE74092
S214014A24130910006FF09FD61394240083A78D01F9
S214014A34B387870003A50700EF40005183A78D03C2
S214014A44B387870003A50700EF40005083A78D05B1
S214014A54B387870003A50700EF40004F9384F4FF54
S214014A64E3D434FD6FF05FD81394240083A78D013B
S214014A74B387870003A50700EF30507E83A78D0315
S214014A84B387870003A50700EF30507D83A78D0504
S214014A94B387870003A50700EF30507C9384140086
S214014AA4E39499FC6FF05FD483A7819B03A68700E8
S214014AB483C50700377505001305450AEF705029AD
S214014AC403A5C1A8EF30907903A5C1A7EF301079EB
S214014AD403A5C1A6EF3090780325C105EF30107801
S214014AE403250106EF30907703254106EF30107752
S214014AF4EFB01FB8630405006F10007803A541A842
S214014B04EF30D07503A541A7EF30507503A541A634
S214014B14EF30D07483A7019B638E07101307100030
S214014B246388E714130720006382E71837750500C6
S214014B3413058510EF701034130700009307000067
S214014B4423A0E1AC23A2F1AC23ACE1AA23AEF1AAE3
S214014B5483A7819B03A7870013172700B777340021
S214014B649387C731B387E70083A7C70003A7470323
S214014B7493066000130C00006304D70263E6E6168E
S214014B8493061000630ED70093062000130C100042
S214014B946308D70003AC8703130CACFF333C8001D6
S214014BA403A7470283A7070283A607001308000288
S214014BB49307000203270700938686FF1306000067
S214014BC4B745080093854507138581A1EF40806D9D
S214014BD403A581A1EF30906893040000130400003C
S214014BE403AB818183ABC18103A8C18683A7818678
S214014BF42320F1022322010303A8418783A7018707
S214014C042324F1022326010303A8418A83A7018AE8
S214014C14232CF100232E0101B7A70C0003AA8781D8
S214014C2483AAC78183AD878183A7C7812320F10423
S214014C346F00401E377505001305450EEF7090236F
S214014C44930800001308D00D930720101307900152
S214014C549306E00013062000B785050093858503B7
S214014C643775340013054539EF30000A6FF01FEC31
S214014C74377505001305050FEF70D01F9308000064
S214014C841308D00D93072024130790019306E00020
S214014C9413062000B7850500938585033775340010
S214014CA413054539EF3040066FF05FE837750500A8
S214014CB41305C50FEF70101C930800001308D00DE0
S214014CC493072038130790019306E000130620008B
S214014CD4B785050093858503377534001305453973
S214014CE4EF3080026FF09FE493067000130C1000FF
S214014CF4E308D7EA6FF01FEA03A581A1EF40C024B9
S214014D0403A581A1EF40006D63120C2883A7819B44
S214014D1403A7870013172700B77734009387C73193
S214014D24B387E70083A7C70003A7470283A7070241
S214014D3483A607001308000293070002032707004F
S214014D44938686FF13060000B7B5070093854507CB
S214014D54138581A1EF40005503A581A1EF301050C2
S214014D6493040D0013840900B7970C0083A7071654
S214014D74E3862701B7970C0083A78716E3802705E8
S214014D84B7970C0083A74715E38A2707B7970C0044
S214014D9483A78715E382270FB7970C0083A7071706
S214014DA4E38A271503A6818083A6C18003A581AB68
S214014DB483A5C1ABEF4090741309050093890500E0
S214014DC413060A0093860A00EF50C0746356A000C7
S214014DD413890D008329010403A6818083A6C1805B
S214014DE41305090093850900EF505013EF60101165
S214014DF493090500B777340003A9073BE344252F3D
S214014E04E346A930938509003775340013054539FF
S214014E14EF30C013EFB05FA71309050003AD01AC73
S214014E2483A941AC138604009306040013050D0000
S214014E3493850900EF504065E30805F21306000068
S214014E449306000013050D0093850900EF50C06317
S214014E54E30405EA13060B0093860B0013050D0005
S214014E6493850900EF504062630A05160326010282
S214014E748326410213050D0093850900EF50C06097
S214014E8463080520032681028326C10213050D004B
S214014E9493850900EF50405F6306052A03A68187C0
S214014EA483A6C18713050D0093850900EF50C05DE5
S214014EB46304053403A6018883A6418813050D00FF
S214014EC493850900EF50405C6302053E03A6818882
S214014ED483A6C18813050D0093850900EF50C05AB7
S214014EE46300054803A6018983A6418913050D00BD
S214014EF493850900EF504059630E055003A6818936
S214014F0483A6C18913050D0093850900EF50C05788
S214014F14630C055A03A6018A83A6418A13050D006C
S214014F2493850900EF504056E31805E203A581A1D5
S214014F34EF40800103A581A1EF40C04983A7819B6F
S214014F4403A7870013172700B77734009387C73161
S214014F54B387E70083A7C70003A7470283A707020F
S214014F6483A607001308000293070002032707001D
S214014F74938686FF13060000B705080093854587C8
S214014F84138581A1EF4000326FF01FDD83A7819B5B
S214014F9403A7870013172700B77734009387C73111
S214014FA4B387E70083A7C70003A7470283A70702BF
S214014FB483A60700130800029307000203270700CD
S214014FC4938686FF13060000B745080093854507B8
S214014FD4138581A1EF40002D6FF01FD803A581A191
S214014FE4EF30907603A581A1EF40C03E631A0C040E
S214014FF483A7819B03A7870013172700B77734007D
S2140150049387C731B387E70083A7C70003A747027F
S21401501483A7070283A6070013080002930700026A
S21401502403270700938686FF13060000B7C507000B
S21401503493854587138581A1EF40C0266FF0DFD1A4
S21401504483A7819B03A7870013172700B77734002C
S2140150549387C731B387E70083A7C70003A747022F
S21401506483A7070283A6070013080002930700021A
S21401507403270700938686FF13060000B74508003A
S21401508493854587138581A1EF40C0216FF0DFCC5E
S21401509403A581A1EF30506B03A581A1EF408033B6
S2140150A4631A0C0483A7819B03A7870013172700A1
S2140150B4B77734009387C731B387E70083A7C70060
S2140150C403A7470283A7070283A607001308000263
S2140150D49307000203270700938686FF1306000042
S2140150E4B7C5070093854507138581A1EF40801B4B
S2140150F46FF09FC683A7819B03A78700131727001A
S214015104B77734009387C731B387E70083A7C7000F
S21401511403A7470283A7070283A607001308000212
S2140151249307000203270700938686FF13060000F1
S214015134B735080093854507138581A1EF4080168E
S2140151446FF09FC103A581A1EF30106003A581A173
S214015154EF404028631A0C0483A7819B03A78700AA
S21401516413172700B77734009387C731B387E7004F
S21401517483A7C70003A7470283A7070283A60700DE
S214015184130800029307000203270700938686FF8D
S21401519413060000B7D5070093854587138581A1BB
S2140151A4EF4040106FF05FBB83A7819B03A7870086
S2140151B413172700B77734009387C731B387E700FF
S2140151C483A7C70003A7470283A7070283A607008E
S2140151D4130800029307000203270700938686FF3D
S2140151E413060000B735080093854587138581A10A
S2140151F4EF40400B6FF05FB603A581A1EF30D054AA
S21401520403A581A1EF40001D631A0C0483A7819BAB
S21401521403A7870013172700B77734009387C7318E
S214015224B387E70083A7C70003A7470283A707023C
S21401523483A607001308000293070002032707004A
S214015244938686FF13060000B7D5070093854507A6
S214015254138581A1EF4000056FF01FB083A7819BE2
S21401526403A7870013172700B77734009387C7313E
S214015274B387E70083A7C70003A7470283A70702EC
S21401528483A60700130800029307000203270700FA
S214015294938686FF13060000B72508009385450705
S2140152A4138581A1EF4000006FF01FAB03A581A118
S2140152B4EF30904903A581A1EF40C011631A0C0495
S2140152C483A7819B03A7870013172700B7773400AA
S2140152D49387C731B387E70083A7C70003A74702AD
S2140152E483A7070283A60700130800029307000298
S2140152F403270700938686FF13060000B7E5070019
S21401530493854587138581A1EF30D0796FF0DFA4AB
S21401531483A7819B03A7870013172700B777340059
S2140153249387C731B387E70083A7C70003A747025C
S21401533483A7070283A60700130800029307000247
S21401534403270700938686FF13060000B725080087
S21401535493854587138581A1EF30D0746FF0DF9F65
S21401536403A581A1EF30503E03A581A1EF4080063D
S214015374631A0C0483A7819B03A7870013172700CE
S214015384B77734009387C731B387E70083A7C7008D
S21401539403A7470283A7070283A607001308000290
S2140153A49307000203270700938686FF130600006F
S2140153B4B7E5070093854507138581A1EF30906E05
S2140153C46FF09F9983A7819B03A787001317270074
S2140153D4B77734009387C731B387E70083A7C7003D
S2140153E403A7470283A7070283A607001308000240
S2140153F49307000203270700938686FF130600001F
S214015404B715080093854507138581A1EF30906988
S2140154146FF09F9403A581A1EF30103303A581A1FA
S214015424EF30507B631A0C0483A7819B03A7870084
S21401543413172700B77734009387C731B387E7007C
S21401544483A7C70003A7470283A7070283A607000B
S214015454130800029307000203270700938686FFBA
S21401546413060000B7F5070093854587138581A1C8
S214015474EF3050636FF05F8E83A7819B03A787008D
S21401548413172700B77734009387C731B387E7002C
S21401549483A7C70003A7470283A7070283A60700BB
S2140154A4130800029307000203270700938686FF6A
S2140154B413060000B715080093854587138581A157
S2140154C4EF30505E6FF05F8903A581A1EF30D027DE
S2140154D403A581A1EF301070631A0C0483A7819B86
S2140154E403A7870013172700B77734009387C731BC
S2140154F4B387E70083A7C70003A7470283A707026A
S21401550483A6070013080002930700020327070077
S214015514938686FF13060000B7F5070093854507B3
S214015524138581A1EF3010586FF01F8383A7819BE9
S21401553403A7870013172700B77734009387C7316B
S214015544B387E70083A7C70003A7470283A7070219
S21401555483A6070013080002930700020327070027
S214015564938686FF13060000B70508009385450752
S214015574138581A1EF3010536FF00FFE03A901AC20
S21401558483A941AC032681018326C10113050900C1
S21401559493850900EF40506FE306058003A68181D9
S2140155A483A6C1811305090093850900EF3090682D
S2140155B423A0A1AC23A2B1AC6FF0CFFE03A901AC2A
S2140155C483A941AC130600009306000013050900E5
S2140155D493850900EF40506B630605FC03A68181A1
S2140155E483A6C1811305090093850900EF50900035
S2140155F423A0A1AC23A2B1AC6FF0CFFA130600002E
S2140156049306000023A0C1AC23A2D1AC03A581A1BB
S214015614EF30901303A581A1EF30D05B83A7819B64
S21401562403A7870013172700B77734009387C7317A
S214015634B387E70083A7C70003A7470283A7070228
S21401564483A6070013080002930700020327070036
S214015654938686FF13060000B74508009385450721
S214015664138581A1EF30104403A581A1EF30003FDB
S214015674130C10006FF00FF31306000093060000DE
S21401568423A0C1AC23A2D1AC03A581A1EF30D00BDA
S21401569403A581A1EF30105483A7819B03A787003C
S2140156A413172700B77734009387C731B387E7000A
S2140156B483A7C70003A7470283A7070283A6070099
S2140156C4130800029307000203270700938686FF48
S2140156D413060000B7B5070093854507138581A116
S2140156E4EF30503C03A581A1EF304037130C000086
S2140156F46FF04FEB03A681AB83A6C1AB37750500EC
S21401570413058500EF60D06403A681AB83A6C1AB05
S2140157143775050013058512EF60906337743400FE
S2140157241304C43183A7819B83A78700939727001B
S214015734B307F40083A7C70003A74702032607009D
S21401574483A7070283A507002320810103A881AB51
S21401575483A8C1AB03A701AC83A741ACB7860500F8
S2140157649386060713067600938585001305840938
S214015774EF20903F83254409930484079385F5FF1E
S21401578413850400EF20007D03258409EF30002DE6
S21401579403A581A1EF30407B03A581A1EF3090439F
S2140157A42384019AA384019A2385019A138504000C
S2140157B4EF20900023A401AC9304800C138A070005
S2140157C493092000377434001304C431130984097F
S2140157D4930A403D130B801683A781AC63CCF9046E
S2140157E403258409EF30407613050900EF20506342
S2140157F413050900EF20907103258409832705000A
S21401580483A707009387A700E3E6FA4683274500A4
S21401581483A70700E340FB46EF3040248327440A6E
S21401582423A8F19AEFC00FFCEFC04FDC9384F4FF7A
S214015834E39404FA377505001305C513EF60906306
S214015844377434001304C43103258409EF30C06F60
S214015854032984098327490003A50700EF505072E2
S21401586403A6818083A6C180EF50C058EF5010690B
S214015874130405008327090003A50700EF505070A1
S21401588403A6818083A6C180EF50C056EF501067EF
S2140158949306050013082003930720031307040047
S2140158A413060000B7550800938545871385C1A5DF
S2140158B4EF30501F03A5C1A5EF30401AEFC00FD338
S2140158C41304C00003A5C1A5EF3000681304F4FF58
S2140158D46302040603A5C1A5EF304018EFC00FD13B
S2140158E46FF05FFE377D3400130DCD3183278D07AE
S2140158F413172900B387E70003A50700EF30C06438
S2140159041309F9FFE35439FF6FF0CFCF377D340025
S214015914130DCD3183278D0713172900B387E700AD
S21401592403A50700EF30801313091900E39429FF38
S2140159346FF04FCDEFC08FCB03A5C1A5EF309029F3
S214015944377434001305C4319304C5001386040068
S2140159549305C43113058509EF20906DEFC0CFF38D
