S00C00006D61696E2E7372656373
S214010094970103009381C12A1701FF03130141F657
S2140100A41385418817C61500130646E73306A6408E
S2140100B493050000EF30506017450000130545DA3C
S2140100C4EF201030EF30D04F1305000093054100A8
S2140100D413060000EF0080436F20D02F370504007D
S2140100E4370704009307C5B31307C7B3630AF700BA
S2140100F493070000638607001305C5B367800700EE
S21401010467800000370504009307C5B3370704006A
S2140101149305C7B3B385F54093D7254093D5F50129
S214010124B385F50093D51540638A0500930700004F
S214010134638607001305C5B3678007006780000060
S214010144130101FF2324810083C7018D2326110097
S21401015463940702EFF09FF893070000638A070091
S21401016437F503001305054897000000E700000073
S214010174930710002388F18C8320C1000324810097
S21401018413010101678000009307000063860702DC
S21401019437F50300130101FF9385418D13050548C7
S2140101A42326110097000000E70000008320C10009
S2140101B4130101016FF01FF56FF0DFF4B73720FF6D
S2140101C41307100023A0E702B73720FF9387C7025F
S2140101D483A7070093F71700638C0700373720FFC0
S2140101E41307C7028327070093F71700E39C07FE4C
S2140101F4678000008327050003A705002320E50088
S21401020423A0F500678000009307F0FF630EF60055
S21401021483A7018B93959500B385A5009395150047
S214010224B385F5002390C50067800000130101FE25
S214010234232E1100232C8100232A91002328210137
S21401024423263101930400001309000F93090014B7
S214010254130400001306000093050400138504002C
S214010264EFF09FFA13041400E31624FF938414009A
S214010274E39034FF8320C1010324810183244101D7
S214010284032901018329C1001301010267800000CB
S214010294130101FC232E1102232C8102232A91022D
S2140102A42328210323263103232441032322510334
S2140102B423206103232E7101232C8101232A91011A
S2140102C42326A1002324B1002322C1002320D10028
S2140102D4130B0700B389B64093D7F941B3C9370165
S2140102E4B389F940330AA6409357FA4133CA470102
S2140102F4330AFA4063423A090327C10083274100BF
S21401030463CAE708832B41008324C100338C9B40D6
S2140103148327010003298100B38A274113D7FA41B1
S214010324B34A5701B38AEA401354FC0133048401E7
S2140103341354144033048040930CF0FF634AF90AC3
S21401034463D09B0E8320C1030324810383244103CA
S214010354032901038329C102032A8102832A410254
S214010364032B0102832BC101032C8101832C410140
S2140103741301010467800000930581001305C10081
S214010384EFF05FE79305010013054100EFF09FE6E8
S2140103946FF09FF6930541001305C100EFF09FE54A
S2140103A49305010013058100EFF0DFE4832B410080
S2140103B48324C100338C9B408327010003298100D9
S2140103C4B38A274113D7FA41B34A5701B38AEA409D
S2140103D41354FC0133048401135414403304804041
S2140103E4930CF0FFE35EF9F4930C10006FF05FF5E5
S2140103F4930C10006F00C00213060B00930509004E
S21401040413850400EFF05FE0330454016356800063
S214010414330999013304844193841400E3C49BF2A1
S214010424E35C3AFD13060B009385040013050900EB
S214010434EFF09FDD6FF05FFD130101FE232E110027
S214010444232C8100232A910023282101232631010C
S214010454232441012322510113890500930906002F
S214010464938A450013840500130AD5FF93043500C7
S21401047413870900930604001386040093050400F9
S21401048413050A00EFF0DFE013041400E31254FF2F
S2140104941304F9FF1309C9FF13870900930604001F
S2140104A4138604009305040013050A00EFF05FDECB
S2140104B41304F4FFE31224FF8320C1010324810102
S2140104C483244101032901018329C100032A8100F0
S2140104D4832A4100130101026780000003A7418AB1
S2140104E4930610062300D70083A7418A23A2070098
S2140104F423A4070023860700678000001305000075
S214010504678000001305900667800000130101BA96
S214010514232E1144232C8144232A91442328214544
S2140105242326314523244145232251452320614571
S214010534232E7143232C8143232A91432328A14349
S2140105442326B143B7E2FDFF33015100930A0000AD
S21401055423220102232001021309000003A70187B5
S214010564B7670D009387C7C22322F700EFF01FC5B4
S21401057483A7018783A7070023A8F18AEFF01FCB7F
S21401058403A70187B70704009387C7C22322F7008E
S2140105948327470023A8F18AEFF05FC9EFF01FF421
S2140105A413050003EF20C06523A6A188B7B703008F
S2140105B49387C7502322F502232C050013048002D7
S2140105C4232A850023288500B7E7FFFF9387076F53
S2140105D4B7240200138704403307F7009307010288
S2140105E4B307F700232EF1002324F50213050003B5
S2140105F4EF20006123A4A1889387043F1307010217
S214010604B387E70023A0870093870441B3872700B5
S2140106142320F5009307A0001387443F93060102A5
S2140106243307D7002320F70093874441B387270075
S2140106342322F500B7F701009387C7302322F5027A
S214010644232C050093078007232AF5009307000F40
S2140106542328F500B727FEFF9387074F1387044027
S2140106643307F700B307D700232EF1002324F5023E
S21401067413050003EF20C05823A2A1889307000A9C
S214010684138704009386843F13060102B386C600CB
S21401069423A0F60093878441B38727002320F5001F
S2140106A4930760099386C43FB386C60023A0F60069
S2140106B49387C441B38727002322F500B7E70100D7
S2140106C49387C7AB2322F50293071000232CF5006A
S2140106D49307E000232AF500930760022328F50018
S2140106E4B727FEFF938707CA93860440B386F600AE
S2140106F4B387C6002324F502B7E7FDFF93860440BB
S214010704B386F600B387C600232EF10023AC07C0D8
S214010714B7E9FDFF9389C9C193870440B3873701BD
S214010724B389C700B7E4FDFF938484C193070740E8
S214010734B3879700B384C700130AF013130BF00EA4
S2140107448327C10123AE07C083A7C18823A037012D
S21401075403A5C18823229500EF0050068327C10113
S21401076483A7C7C1938787020327C101232EF7C036
S214010774E35CFAFC832787C193878702232CF7C09F
S214010784E350FBFC03A58188EF005003B708FEFF86
S21401079493880842B727FEFF938707C637270200C8
S2140107A493060740B386F60093070102B387F60063
S2140107B4232EF100B707FEFF938707C2930607406F
S2140107C4B386F60093070102B387F6002324F100EB
S2140107D4B717FEFF938707C293060740B386F60052
S2140107E493070102B387F6002322F100B717FEFF31
S2140107F49387074293060740B386F60093070102E0
S214010804B387F6002324F1022320F100930C07009A
S21401081493070740B387170113070102B388E7005C
S21401082437EB01001308CB3037DA03009307CAE02D
S214010834B7D903001387C960B7F401009386C4B01F
S2140108441306800A930540020325C101EF00903187
S214010854B7E8FDFF93880842B727FEFF938707C2D0
S21401086413870C403307F70093070102B307F70019
S2140108742324F102B7E7FDFF938707C213870C40D1
S2140108843307F70093070102B307F7002324F100A7
S214010894B7F7FDFF938707C213870C403307F700AA
S2140108A493070102B307F7002322F100B7F7FDFF10
S2140108B49387074213870C403307F7009307010217
S2140108C4B307F7002326F1022320F10093870C4097
S2140108D4B387170113070102B388E7001308CB3067
S2140108E49307CAE01387C9609386C4B01306800AC7
S2140108F49305C01103258102EF00D026EFF01FBE39
S2140109040327C10123A6E18A0327810223A4E18ADE
S214010914EF00901683A7418A130710002386E70089
S21401092403A58188EF00C07D03A54188EF00006917
S2140109340325C101EF00D04303258102EF00504394
S21401094483A7418A03C4C7006302045C138A0400B4
S2140109549304E0012304910237ECFDFF130CCCC190
S21401096413870C403307870193060102330CD70023
S2140109746F00803737D501001305057DEF20907F82
S21401098483A7418A83A54700B7D701001385077E4D
S214010994EF20106C03A3C18603C6118A83C6018A9D
S2140109A4930E0000130F0000930F0000B788000099
S2140109B493056001130E000F6F0080006304C60BDD
S2140109C48327030033F71701630E0700930E040011
S2140109D4130F0400930A0600930F040013860600FF
S2140109E493F6F70F23AEF18823ACE188E388B6FCCF
S2140109F4E39896FCE316C6FD63860E001307E00132
S214010A042380E18A63040F002381518B63860F00E0
S214010A14130700FFA380E18A37E5010013058582E9
S214010A24EF2050752380018AA380018A2381018ADD
S214010A3483A9418A83A549001385C18AEFF01FACB7
S214010A4423A2A900930720062380F900EFF09FABA9
S214010A549305050037E501001305858BEF20505FEC
S214010A646F00C02763860E00930760012380F18A16
S214010A7463040F002381518B63860F00130700FF65
S214010A84A380E18A37E5010013054581EF20906EC6
S214010A942380018AA380018A2381018AB7E7FDFFA7
S214010AA4B7260200138706403307F70093070102AF
S214010AB4B307F700232EF10023AE07C0138BC18AB8
S214010AC4930DE0006F00800583A7418A83A7470042
S214010AD493972700B387670113060C0093850900D3
S214010AE403A50700EF00103983A7418A83A74700AF
S214010AF493972700B387670103A50700EF005027E4
S214010B04EFF0CFEB83A7018783A7470023A8F18AD9
S214010B148327C10183A7C7C163CCFD00EF00807D95
S214010B2493090500E30205FAEF20D0646FF0DFF9BC
S214010B3483A7418A83A5470037E501001305C583CA
S214010B44EF20105103A3C18683C6018A03C6118A06
S214010B54130F000093020000930F0000B7880000F3
S214010B6493056001130EE001930E000F6F008000E1
S214010B74630ED6078327030033F71701630E0700B6
S214010B84130F0400930204002322C102930F0400EE
S214010B941386060093F6F70F23AEF18823ACE1889B
S214010BA4E388B6FCE398C6FDE316D6FD63060F009C
S214010BB41307E0012380E18A6386020003274102CA
S214010BC42381E18A63860F00130700FFA380E18A6D
S214010BD437E5010013058582EF20D0592380018A69
S214010BE4A380018A2381018A6FF09FE463060F00C4
S214010BF4130760012380E18A63860200032741020A
S214010C042381E18A63860F00130700FFA380E18A2C
S214010C1437E501001305C587EF20D0552380018AE7
S214010C24A380018A2381018A37E50100130585899A
S214010C34EF2050546FF0DFDF6302C61183270300F1
S214010C4433F71701630E0700930E0400130F040015
S214010C5413090600930F04001386060093F6F70F94
S214010C6423AEF18823ACE188E388B6FCE39896FCCE
S214010C74E316C6FD63860E00834781022380F18A4C
S214010C8463040F002381218B63860F00130700FF83
S214010C94A380E18A37E5010013058582EF20904D94
S214010CA42380018AA380018A2381018A83A9418A38
S214010CB483A589001385818AEFF05F8423A4A900A4
S214010CC4930710062380F900EFF0DF8393050500F0
S214010CD437E501001305858BEF20903783A7418AFA
S214010CE403C7C7006304072203C707009307100658
S214010CF4E302F7C8B7E701001385478DEF20904755
S214010D0483A7418A83A58700B7D701001385077E89
S214010D14EF20103403A3C18603C6118A83C6018A51
S214010D24930E0000130F0000930F0000B788000015
S214010D3493056001130E000F6FF05FF063860E00DB
S214010D44930760012380F18A63040F002381218BBA
S214010D5463860F00130700FFA380E18A37E50100CD
S214010D6413054581EF2010412380018AA380018A5F
S214010D742381018AB7E7FDFFB726020013870640E1
S214010D843307F70093070102B307F700232EF10098
S214010D9423AE07C0138B818A930CE0006F00800595
S214010DA483A7418A83A7870093972700B3876701A0
S214010DB413060C009385090003A50700EF00900BAA
S214010DC483A7418A83A7870093972700B387670180
S214010DD403A50700EF00C079EFF04FBE83A7018794
S214010DE483A7470023A8F18A8327C10183A7C7C124
S214010DF463CCFC00EF00005093090500E30205FAFA
S214010E04EF2050376FF0DFF983A7418A83A54700A7
S214010E1437E501001305C583EF20902303A3C1869C
S214010E2403C6118A83C6018A930E0000130F0000BD
S214010E34930F0000B788000093056001130E000F9E
S214010E446F008000630EC6078327030033F717017C
S214010E54630E0700930E0400130F04002320C1023F
S214010E64930F04001386060093F6F70F23AEF1885A
S214010E7423ACE188E388B6FCE39896FCE316C6FD4A
S214010E8463860E001307E0012380E18A63060F00E0
S214010E94032701022381E18A63860F00130700FFFB
S214010EA4A380E18A37E5010013058582EF20902CA3
S214010EB42380018AA380018A2381018A6FF01FDFC0
S214010EC463860E00130760012380E18A63060F0020
S214010ED4032701022381E18A63860F00130700FFBB
S214010EE4A380E18A37E501001305C587EF20902822
S214010EF42380018AA380018A2381018A37E50100C0
S214010F041305458EEF2010276FF05FDA03A541899C
S214010F14EF10D04F03A50189EF10504F13050000C1
S214010F24B7220200330151008320C14503248145C1
S214010F3483244145032901458329C144032A814465
S214010F44832A4144032B0144832BC143032C81434D
S214010F54832C4143032D0143832DC14213010146D2
S214010F646780000083274501130600009305F0FF00
S214010F74634CF00267800000B387C702B387E700BB
S214010F848326850293972700B387F60023A0B7002C
S214010F941307170083270501E340F7FE130616001F
S214010FA483274501635AF6008327050113070000CA
S214010FB4E344F0FC6FF09FFE67800000130101FF1D
S214010FC4232611002324810013040500832705002A
S214010FD483A707002324F5008327450083A707007A
S214010FE42326F500EFF01FF8930710002326F402DA
S214010FF483274401635EF00E130600009305F0FF99
S21401100437680D001308C8C2370504001305C5C2A6
S2140110146F00000D83AE018B0327C4003307E6007F
S21401102413179700032E8400338EC6013307C701B6
S214011034131717003307D701035E0700131E0E01AB
S214011044135E0E4103278402B307F70023A0C701EA
S2140110548327440083A70700B307F60093979700F6
S21401106403270400032707003387E600B387E70056
S21401107493971700B38707012390670083274400DB
S21401108483A70700B307F600939797000327040086
S214011094032707003387E600B387E7009397170013
S2140110A4B387A7002390670093861600832704015D
S2140110B463D2F602B387C702B387D7009397270094
S2140110C4032744023307F70003130700E314B3F4BA
S2140110D46FF09FFD1306160083274401635AF6003A
S2140110E48327040193060000E346F0FC6FF09FFE9D
S2140110F48320C100032481001301010167800000DD
S2140111040327C502930710006306F700232605028A
S214011114678000008327450113060000E35AF0FEAA
S2140111241308F0FF37630D001303C3C2B7080400A6
S2140111349388C8C26F00C0088327C500B307F600AA
S2140111449397970083258500B305B700B387B70047
S21401115493971700B38767009396060193D60641C3
S2140111642390D7008327C500B307F600939797000B
S21401117483258500B305B700B387B7009397170097
S214011184B38717012390D700130717008327050198
S2140111946352F702B387C702B387E7008326850243
S2140111A493972700B387F60083A60700E39606F90C
S2140111B46FF09FFD1306160083274501E35AF6F4E4
S2140111C48327050113070000E346F0FC6FF09FFE3A
S2140111D49307050003278501032507006302050617
S2140111E403A7850103250700630C050483A60700EE
S2140111F403A6050003A70501131727003307E60016
S2140112041305000063FEE60203A707011317270070
S214011214B386E6006376D60283A6470003A6450096
S21401122403A74501131727003307E60063FAE60010
S21401123483A7470193972700B386F6003335D60074
S214011244678000008327050083A6050013874701EE
S21401125463F4D7001387C7FE2320E50083274500E0
S21401126483A645001387470163F4D7001387C7FE97
S2140112742322E50067800000130101FF23261100E5
S21401128437E5010013054592EF20C06E37E50100EE
S21401129413050594EF20006E83A5C18603C7118A42
S2140112A483C6018A1306000F1308A0056F00000108
S2140112B41387060093F6F70F630AC70083A7050092
S2140112C413950701E35A05FE6FF09FFEE39806FFA8
S2140112D42380018AA380018A2381018A37E50100DC
S2140112E413058595EF2000698320C10013010101D0
S2140112F46780000083A7C18683A707001305000043
S21401130413970701635E070483C6118A2381D18A72
S21401131403C7018AA380E18A2380F18A9307000E1A
S2140113246390F604930740076308F7029307500790
S2140113346308F7009307B006630AF70067800000A6
S214011344B7F7030003A5874967800000B7F70300D2
S21401135403A5074967800000B7F7030003A54749BB
S21401136467800000130101FB232611042324810452
S2140113742322910423202105232E3103232C410308
S214011384232A51032328610323267103232481037B
S214011394232291032320A103232EB1011304050064
S2140113A4138D050093090600938C06009304070029
S2140113B4938D0700232601011389080013054000B5
S2140113C4EF101004130C05002320A402130540009B
S2140113D4EF101003930B05002322A40213058000CB
S2140113E4EF101002130B05002324A402130580003A
S2140113F4EF101001930A05002326A40213054000EA
S214011404EF101000130A05002328A4021305400058
S214011414EF10007F232EA402232A040293078000E0
S214011424232CF402930710002320FA002320AC0196
S21401143423A03B0113070000930700002320EB00C1
S2140114442322FB0023A0EA0023A2FA00232005009E
S21401145413050003EF10C07A930905002320A400A6
S21401146423229503130D0002232AA501930C0001E0
S214011474232895012324250313050003EF10407840
S214011484130905002322A40023229502232AA50179
S21401149423289501832701052324F5021305000358
S2140114A4EF100076930405002324A4002322B50339
S2140114B4232AA50123289501832741052324F50220
S2140114C413050003EF10C0732326A4008327C1006D
S2140114D42322F502232AA5012328950183278105C2
S2140114E42324F50223A0890123A2790123AE6901ED
S2140114F423A0590323AC490123208901232279011E
S214011504232E690123205903232C490123A0840196
S21401151423A2740123AE640123A0540323AC440123
S2140115242320850123227501232E650123205503DB
S214011534232C45018320C10403248104832441040C
S214011544032901048329C103032A8103832A41034E
S214011554032B0103832BC102032C8102832C41023A
S214011564032D0102832DC1011301010567800000CB
S214011574130101FF2326110023248100130405000F
S214011584832785036388070413071000638AE70427
S21401159413072000638CE70413076000638EE704D7
S2140115A48327440363800706130710006382E70654
S2140115B4130720006384E706032784039307600068
S2140115C46304F7068320C10003248100130101018B
S2140115D46780000003250500EFF09FB26FF05FFC03
S2140115E403254500EFF0DFB16FF09FFB032585006F
S2140115F4EFF01FB16FF0DFFA0325C500EFF05FB01F
S2140116046FF01FFA03250400EFF05F9B6FF09FFB5A
S21401161403254400EFF09F9A6FF0DFFA0325840058
S214011624EFF0DF996FF01FFA0325C400EFF01F995E
S2140116346FF05FF9130101FF2326110023248100B3
S2140116440324C502B707040003A607B483A647B458
S2140116540325040083254400EF00D0292320A40099
S2140116642322B4008320C100032481001301010155
S21401167467800000130101FE232E1100630E050A84
S214011684232C8100232A9100232821011304050019
S2140116949384050013090600EFF0DFF9832744035A
S2140116A4232CF402B7F7030083A507491385040026
S2140116B4EF201017631A050823263101930710003B
S2140116C4232AF4028327840203A6818083A6C18089
S2140116D423A0C70023A2D7008324040283298402FB
S2140116E403A50400EF10C03903A6090083A6490028
S2140116F4EF00C013EF10803023A0A400032484025B
S21401170403250900EF10C03703260400832644008E
S214011714EF00C011EF10802E2320A90003248101BD
S21401172483244101032901018329C1008320C101C6
S214011734130101026780000037E501001305859651
S214011744EF2040236FF09FFEB7F7030083A54749B8
S21401175413850400EF20D00C631E050623263101F1
S21401176493072000232AF4028327840203A6018117
S21401177483A6418123A0C70023A2D70083240402A1
S2140117848329840203A50400EF10802F03A6090011
S21401179483A64900EF008009EF10402623A0A40089
S2140117A40324840203250900EF10802D0326040078
S2140117B483264400EF008007EF1040242320A9006D
S2140117C40324810183244101032901018329C100E2
S2140117D46FF0DFF5B7F7030083A5874993B51500C6
S2140117E413850400EF20D003630805029307600005
S2140117F4232AF4028327C40203A6818183A6C18116
S21401180423A0C70023A2D700032481018324410116
S214011814032901016FF09FF103248101832441010F
S214011824032901016FF09FF067800000B7071000DD
S214011834130101FE938EF7FF33F8BE00B3F7DE0003
S21401184413D346012328210113D945019397370061
S214011854232C81001318380013D4F5011357D5012E
S2140118649358D6011379F97F1373F37F232E11004E
S214011874232A91002326310193D6F601B3E8F80012
S2140118843367070193153500131F3600B307694004
S2140118946304D41E6352F016630603289306F07F8E
S2140118A46306D942930680031306100063CEF6023C
S2140118B4B7068000B3E8D8009306F00163CEF6526B
S2140118C493060002B386F6403396D8003355FF00DC
S2140118D4B316DF003366A600B336D000B3D8F800DB
S2140118E43366D600330717413386C540B3B5C50002
S2140118F493040600B309B7409397890063DA073265
S214011904B70780009387F7FFB3F9F9006388092CBA
S21401191413850900EF104022930785FF9306000202
S2140119243387F64033D7E400B399F90033673701B8
S214011934B394F40063C8274BB387274193871700F2
S214011944B386F6403396D400B3D9F4003336C000D8
S21401195433663601B316D700B3E4C600B359F700AD
S2140119641309000093F774006380070293F7F400E9
S21401197413074000638AE7009387440033B6970051
S214011984B389C900938407009397890063DA076EC5
S214011994930719001307F07F130E04006386E72AE2
S2140119A4370780FF1307F7FF33F7E90093F7F77F4D
S2140119B41318D70113D63400131797003368C800D9
S2140119C41357C7008320C10103248101939747015C
S2140119D4B3E7E7001317FE01B3E7E70083244101E9
S2140119E4032901018329C100130508009385070013
S2140119F41301010267800000638C0714B3072341B7
S214011A046312093C3365B7006304054C1385F7FF7D
S214011A14630205601308F07F638607579307800304
S214011A241306100063CCA702930705001306F00102
S214011A34634CF656130500023305F5403316A7002A
S214011A4433D8F5003395A500336606013335A00077
S214011A543357F7003366A600B388E8403306CF4011
S214011A643337CF0093040600B389E8401309030013
S214011A74138406006FF05FE86350F01E63100314CE
S214011A84B3E6E801638C06269386F7FF638006486F
S214011A941306F07F638CC722930780039309100013
S214011AA463CCD702938706009306F00163C0F64A17
S214011AB493060002B386F640B399D8003356FF0066
S214011AC4B316DF00B3E9C900B336D000B3D8F800C3
S214011AD4B3E9D90033071701B385B900B3B93501A2
S214011AE493840500B389E9009397890063D20714A8
S214011AF4130919009307F07F630CF936B70780FFC3
S214011B049387F7FF13F61400B3F7F90013D71400FD
S214011B143367C7001396F701B364E60093D9170039
S214011B246FF05FE4B3E6E801638A061C9386F7FF69
S214011B34638006401306F07F638AC7189307800301
S214011B4413061000E3C2D7DA938706006FF0DFD6D8
S214011B54130819001378E87F631C08223363B7005F
S214011B6433E8E80163100938630E03466306084048
S214011B74B389E54133B53501330617413306A6402B
S214011B8413158600635E0550B305BF403387E840EE
S214011B94333FBF003307E7411316870093840500DC
S214011BA4635E0652B70780FF9387F7FF3377F70024
S214011BB4138E0600930710006FF09FDF9306F07FE5
S214011BC46306D9109306800393091000E3C6F6F062
S214011BD4B7068000B3E8D8006FF01FED1385040044
S214011BE4EF009075930785019306F001E3D8F6D2CA
S214011BF4130785FF3397E40063C6272333892741F8
S214011C049307190063D6F648130919FE93060002D2
S214011C14B3542701638CD70093060004B387F640B8
S214011C243317F7003337E000B3E4E4001309000088
S214011C3493F77400E39C07D29307090013D6340084
S214011C44138709006F00000C9307F07F1307000049
S214011C54130800006FF01FD7638A070CB3072341EC
S214011C646302091E9306F07F6308D332930680034A
S214011C749309100063CEF602B70680003367D700D7
S214011C849306F00163C8F63C93060002B386F64059
S214011C94B319D70033D6F500B396D500B3E9C90016
S214011CA4B336D0003357F700B3E9D900B388E80058
S214011CB43387E901B339370193040700B38919015E
S214011CC4130903006FF05FE2631008021316350070
S214011CD4135636001318D7013368C8001357370054
S214011CE43367070163060718130E00009307F07F96
S214011CF437070800130800006FF0DFCC1316350011
S214011D04135636001318D7019306F07F3368C800BC
S214011D1413573700E386D7FC1317C7001357C700BA
S214011D2493F7F77F130E04006FF0DFC993061900CB
S214011D3413F8E67F63180814B366B700631C092812
S214011D4463820630B3E6E80163880622B387E501B9
S214011D54B3B5B700330717013307B70013D83700F5
S214011D6493178700130E040063DE0734B70780FF5A
S214011D749387F7FF3377F7009317D7011357370085
S214011D8433E807013377D701930710006FF09FC339
S214011D943388E541B3B70501B3091741B389F9405F
S214011DA4939789009304080063C6071033683801C3
S214011DB4E31E08B4130E0000930700001307000087
S214011DC46FF05FC01305F07F630EA31A130580033B
S214011DD413061000E344F5C8370680003367C700CE
S214011DE46FF0DFC4B70980FF9389F9FF3309F9401F
S214011DF4B37937016FF01FB7938607FE1306000207
S214011E04B3D6D800638AC70013060004B307F640A6
S214011E14B397F800336FFF003336E0013366D6001C
S214011E246FF09FACB70680FF9386F6FFB307F940C1
S214011E343377D7001318D70133683801135737009F
S214011E446FF09FEDB366B7006386061E9386F7FFB1
S214011E54638E060A1305F07F6380A7149307800335
S214011E6493091000E3C6D7E4938706006FF05FE199
S214011E74130E04009307F07F1307000013080000F5
S214011E846FF05FB49307F07FE384F6FE338FE501CA
S214011E94B335BF00B3071701B387B7001396F7012D
S214011EA4135F1F00B364E60193D917001389060074
S214011EB46FF05FAB3306BF40B387E8403337CF00DC
S214011EC493040600B389E740138406006FF01FA449
S214011ED413163600135636001384060013870800BB
S214011EE46FF05FE2E31203DE6306081C13D73800C3
S214011EF4131636009398D801336717011356360024
S214011F043367C700138406006FF0DFDD338FE50106
S214011F14B3081701B335BF00B389B8009397890096
S214011F2493040F0063D4070E130920006FF01FBD3E
S214011F34338FE541B3081741B3B5E50193040F00A8
S214011F44B389B840130910006FF01F9B938607FEF0
S214011F5413060002B3D6D800638AC700130600042A
S214011F64B307F640B397F800336FFF00B339E001C7
S214011F74B3E9D9006FF05FB61316350093593600EE
S214011F846FF05FEB13163600135636001384060003
S214011F94138708006FF01FD4131636001356360045
S214011FA4138708006FF01FD3138507FE130600027C
S214011FB43355A700638AC70013060004B307F64027
S214011FC4B317F700B3E5F5003336B0003366A60061
S214011FD46FF0DFA8E38206FC33EFE801E3160FD0C7
S214011FE46FF0DFCEE30808DC131836009397D801A8
S214011FF41358380013D738003368F8003377D701FD
S214012004138E0600930700006FF0DF9B9307100002
S2140120146FF0DFC2B305BF40B388E8403337BF0073
S21401202493840500B389E84013840600130910005D
S2140120346FF09F8C1316360013563600138708006C
S2140120446FF05FCC131636009359360013870800D9
S2140120546FF05FDE938607FE13060002B356D700C1
S214012064638AC70013060004B307F640B317F700E4
S214012074B3E5F500B339B000B3E9D9006FF05FC337
S21401208413D6340093070900138709006FF09FC71E
S21401209493060002B386F640130600006FF05F8BCA
S2140120A433E8C900E30808D093D9390013070600BA
S2140120B46FF05FD8130E00009307F07F3707080010
S2140120C46FF05F909317D7011357370033E8070172
S2140120D43377D701930700006FF0DF8E1318D7010B
S2140120E493D535003368B8001357370013840600B8
S2140120F46FF09FC2B70710009387F7FF130101FE25
S214012104B3F8B70033F8D70093D74601939838004D
S214012114232C81002326310113D4F50193D94501DB
S2140121241357D501131838009355D601232E1100E1
S214012134232A91002328210113FFF77F1303F07F3D
S2140121443367170193F9F97F130E040093183500CA
S21401215493D6F601B3E50501931E3600630C6F2092
S21401216493C61600B387E9416302D416E35AF00016
S214012174630A0F246384693C9306800313051000E5
S21401218463CEF602B7068000B3E5D5009306F001E8
S21401219463C4F64E93060002B386F6403395D50023
S2140121A433D6FE00B396DE003365C500B336D000E1
S2140121B4B3D7F5003365D5003307F7403385A84018
S2140121C433B6A800930405003309C7409317890062
S2140121D463D80734B70780009387F7FF3379F9008C
S2140121E46306092E13050900EF001015930785FFF2
S2140121F4930600023387F64033D7E4003319F90017
S21401220433672701B394F40063C4373FB387374178
S21401221493871700B386F6403396D40033D9F40077
S2140122243336C0003366C900B316D700B3E4C6001C
S2140122343359F7009309000093F77400638007028B
S21401224493F7F40013074000638AE700938744007A
S21401225433B597003309A9009384070093178900BF
S21401226463D0076C938719001307F07F6386E7240E
S214012274370780FF1307F7FF3377E90093F7F77FF4
S2140122841318D70113D53400131797003368A80021
S2140122941357C700137E14008320C1010324810150
S2140122A493974701B3E7E7001317FE01B3E7E70087
S2140122B483244101032901018329C1001305080070
S2140122C49385070013010102678000006352F070D2
S2140122D463160F1CB3E6D501638E06269386F7FFB5
S2140122E463880646638C67249307800313091000EA
S2140122F463CCD702938706009306F00163CAF648B7
S21401230493060002B386F6403399D50033D6FE0011
S214012314B396DE003369C900B336D000B3D7F500EF
S2140123243369D9003307F700330619013339260117
S214012334930406003309E9009317890063D2071E44
S214012344938919009307F07F6388F916B70780FF0E
S2140123549387F7FF13F51400B377F90013D7140026
S2140123643367A7001395F701B364E50013D9170083
S2140123746FF09FEC33E8D5011383198063080806D0
S214012384630AD4066304030E638E09261315360006
S2140123941355350013840600138705001318D70157
S2140123A43368A8001357370033670701630607101D
S2140123B4130E00009307F07F370708001308000088
S2140123C46FF09FEDB3E6D501638606189386F7FF93
S2140123D46382063A63846716930780031305100025
S2140123E4E3CED7DC938706006FF05FDA93C6160058
S2140123F4E31AD4F8630803186390092C9307F07F53
S214012404B3661701638806489386F7FF638206342A
S2140124141305F07F6382A72A93078003130910002C
S21401242463CAD7029307F00163C6D74C9307000229
S214012434B387D7403319F70033D6D800B397F800DB
S2140124443369C900B337F000B356D7003369F900CE
S214012454B385D5003307D90133392701930407001F
S2140124643309B90093090F006FF01FED9387190024
S21401247493F7E77F6394071433E8D501B36717012D
S2140124846394092A638E07386310083C13153500D4
S21401249413593500930700006F0040116380690AE1
S2140124A49306800313091000E3C0F6E8B70680001C
S2140124B4B3E5D5006FF05FE4137E14009307F07F55
S2140124C413070000130800006FF01FDD13850400D6
S2140124D4EF008066930785019306F001E3DAF6D0F0
S2140124E4130785FF3397E40063CE371BB38937415F
S2140124F49387190063DEF642938919FE9306000258
S214012504B3543701638CD70093060004B387F640AF
S2140125143317F7003337E000B3E4E400930900000F
S21401252493F77400E39E07D09387090013D534000C
S214012534130709006F008002E31C08E61315350033
S2140125441318D701135535003368A80013573700FD
S2140125546FF09FE513153500135535001318D70191
S2140125649306F07F3368A80013573700E38ED7E24B
S2140125741317C7001357C70093F7F77F137E14008A
S2140125846FF09FD19386190093F7E67F639E071237
S214012594B3671701639A092463860730B3E7D50145
S2140125A4639A073013153500135935001318D701EC
S2140125B433682801135737006FF09FFB3388D841DF
S2140125C4B3B708013309B7403309F94093178900B3
S2140125D49304080063C2071233682801E31208C093
S2140125E4130E000093070000130700006FF0DFCA04
S2140125F4370980FF1309F9FFB389F94033792701B5
S2140126046FF09FC39307F07F3365170163040510CA
S2140126141388F7FF6302081E1305F07FE388A7D625
S21401262493078003138406001305100063CA070387
S2140126349307F00163C4071993070002B3870741A0
S2140126443315F700B3D60801B397F8003365D50000
S214012654B337F000335807013365F500B3850541F8
S2140126643385AE4033B7AE00930405003389E540A5
S21401267493090F006FF09FB5938607FE13060002B9
S214012684B3D6D500638AC70013060004B307F64021
S214012694B397F500B3EEFE003335D0013365D500AC
S2140126A46FF0DFB1B70680FF9386F6FFB387F94074
S2140126B43377D7006FF09FEF1315360013553500A7
S2140126C4138705006FF09FCD9307F07FE386F6DE50
S2140126D4B38ED80133B61E01B307B700B387C7005C
S2140126E41395F70193DE1E00B364D50113D91700C1
S2140126F4938906006FF05FB433861E41B387E540C5
S21401270433B7CE00930406003389E74013840600EA
S2140127146FF01FAD131636001355360013840600EA
S214012724138705006FF09FE3E39807E0630608222A
S21401273413D73500131636009395D5013367B700C2
S214012744135636003367C700138406006FF01FC69E
S214012754B38ED801B305B70033B61E013389C5005D
S2140127649317890093840E0063D8070A93092000FF
S2140127746FF0DFBDB38ED841B305B74033B6D80189
S21401278493840E003389C540930910006FF01FA48B
S214012794938607FE13060002B3D6D500638AC700E4
S2140127A413060004B307F640B397F500B3EEFE0034
S2140127B43339D0013369D9006FF01FB7930708FE88
S2140127C493060002B357F700630AD8009306000481
S2140127D4B38606413317D700B3E8E8003335100152
S2140127E43365F5006FF0DFE7E38807ECB3EED50158
S2140127F4E3900EBC6FF09FD433861E41B385E5404B
S21401280433B7CE00930406003389E54013840600EB
S214012814930910006FF09F9B930710006FF01FD170
S214012824E30008DC13163600935736001398D501D7
S214012834139795003368F8001357C700138E0600E4
S214012844930700006FF05FA53389D841B3B7280119
S2140128543306B7403306F6409317860063D2070E55
S21401286433861E413387E540B3BECE003307D741D6
S214012874931787009304060063DE0712B70780FFE9
S2140128849387F7FF3377F700138406009307100046
S2140128946FF01F9F13163600135536001387050075
S2140128A46FF0DFCB13163600135936001387050075
S2140128B46FF0DFCFB386D801B307B70033B616017E
S2140128C4B387C7001397870013D83600635E0708DB
S2140128D4370780FF1307F7FFB3F7E7001397D7010E
S2140128E4939797003368070113D7C700930710001F
S2140128F46FF09F9A938706FE13060002B357F700FC
S214012904638AC60013060004B306D6403317D700FD
S214012914B3E8E800333910013369F9006FF09FB367
S21401292413D5340093870900130709006FF01FC3FA
S21401293493060002B386F640130600006FF09F8EDE
S2140129443368C900E30E08C8135939009307000019
S214012954130706006FF09FC5130E00009307F07F60
S214012964370708006FF05F931397D7019397970083
S2140129743368070113D7C700930700006FF0DF9190
S214012984E38607AE33083F4193070800E38E09C682
S2140129949307800363CA0701B70780003367F7000C
S2140129A4138406006FF0DFC81384060013051000B5
S2140129B46FF01FCB1318D701135636003368C800BF
S2140129C41357370093070000138406006FF05FBAAD
S2140129D4E38A07BAB3063F41639609009387060064
S2140129E46FF01FA29307800313091000E3C4D7A650
S2140129F4B70780003367F7006FF0DFA293D745016E
S214012A04B70610001387F6FF93F7F77F1306E03F28
S214012A143377B70093D5F501635EF6001306D0410C
S214012A24635EF600370500801305F5FF3385A500C0
S214012A34678000001305000067800000130630431A
S214012A443306F6401308F0013367D7006350C80213
S214012A5493063041B387F6403357F7003305E04019
S214012A64E39C05FC13050700678000009387D7BE27
S214012A743317F7003355C5003367A7006FF01FFE01
S214012A84130101FF23261100232481002322910030
S214012A94630A05041357F541B344A700B384E4401D
S214012AA4930705001385040013D4F701EF00C0084B
S214012AB49307E041B387A7401307A00093F7F77F76
S214012AC46340A7061307B0003307A74033D7E400D3
S214012AD4130555011317C700B394A4001357C70071
S214012AE46F00400113040000930700001307000061
S214012AF493040000939747011314F401B3E7E70026
S214012B048320C100B3E787000324810013850400F2
S214012B1493850700832441001301010167800000A7
S214012B24130555FF3397A4001317C7001357C7009F
S214012B34930400006FF01FFCB7070100637AF502E7
S214012B44133705101337170013173700B7E70300B9
S214012B543355E5009387C7E0B387A70003C507008D
S214012B6493060002B386E6403385A64067800000DC
S214012B74B70700016374F50213070001B7E7030002
S214012B843355E5009387C7E0B387A70003C507005D
S214012B94930600013385A640678000001307800171
S214012BA4B7E703003355E5009387C7E0B387A7006B
S214012BB403C50700930680003385A640678000009E
S214012BC49305050093060000130600001305000094
S214012BD46F10C05C130101FF9305000023248100DC
S214012BE42326110013040500EF10006583A7018C4A
S214012BF463840700E780070013050400EF90C040D4
S214012C049305050003A5C1876F0000019305050020
S214012C1403A5C1876F109009130101FD232E31010D
S214012C242326110223248102232291022320210335
S214012C349387B50013076001930905006362F708DB
S214012C449307000163E4B720EF000079930780013E
S214012C54930520009304000137F903001309C949B9
S214012C64B307F90003A44700138787FF6304E4341A
S214012C74832744008326C4000326840093F7C7FFF2
S214012C84B307F40003A747002326D60023A4C600EF
S214012C94136717001385090023A2E700EF000074E9
S214012CA4130584008320C102032481028324410284
S214012CB4032901028329C10113010103678000006E
S214012CC493F487FF63C4071863E2B418EF00C07077
S214012CD49307701F63FA973E93D79400638007188F
S214012CE4130740006360F73493D764009385970312
S214012CF4138887031396350037F903001309C94966
S214012D043306C90003244600130686FF63088602B9
S214012D141305F0006F0040018326C400635807289A
S214012D24630ED600138406008327440093F7C7FF77
S214012D3433879740E352E5FE93050800032409010F
S214012D449308890063001427832744009306F00040
S214012D5493F7C7FF3387974063CEE636232A1901D4
S214012D6423281901635207341307F01F032549006A
S214012D74636AF72413F787FF130787003307E9000D
S214012D848326070013D6570093071000B397C7008E
S214012D943365F500930787FF2326F4002324D40024
S214012DA42322A9002320870023A6860093D7254043
S214012DB4130610003316F600636AC50AB377A60035
S214012DC4639407021316160093F5C5FFB377A6009E
S214012DD493854500639A070013161600B377A60079
S214012DE493854500E38A07FE1308F0001393350024
S214012DF433036900130503008327C500138E0500FA
S214012E046304F52403A747001384070083A7C700B8
S214012E141377C7FFB30697406344D824E3C206FE7C
S214012E243307E4008326470003268400138509003C
S214012E3493E616002322D7002326F60023A4C70010
S214012E44EF00C059130584006FF0DFE59307C00057
S214012E5423A0F900130500006FF0DFE41306002039
S214012E64930500041308F0036FF01FE90324890097
S214012E74232861018327440013FBC7FF63689B0073
S214012E8433079B409307F00063CCE70C23229101A0
S214012E94232A510103A7418783AAC18B232C41010D
S214012EA4232671019307F0FF330A6401B38A5401A0
S214012EB4630AF73CB71700009387F700B38AFA0052
S214012EC4B7F7FFFFB3FAFA0093850A0013850900E2
S214012ED4EF00D0629307F0FF930B0500630EF544F1
S214012EE4232481016360452537CC1600130CCCC21C
S214012EF483250C00B385BA002320BC001387050084
S214012F046318AA2A931745016394072A832B890019
S214012F14B3075B0193E7170023A2FB0083A6818B0B
S214012F2463F4B60023ACB18A83A6418B63F4B6007E
S214012F3423AAB18A032C810013840B0093F7C7FFDD
S214012F443387974063EC97389307F00063D8E738E4
S214012F54032A8101832A4101832BC100832C41006A
S214012F6493E714002322F400B30494002324990065
S214012F74136717001385090023A2E400EF00004637
S214012F848320C1021305840003248102032B01015B
S214012F9483244102032901028329C1011301010388
S214012FA467800000032549006FF05FE00326840074
S214012FB46FF01FCD03A4C70093852500E38087D84F
S214012FC46FF01FCB13D797009306400063F2E61405
S214012FD49306400163E6E6321306C7059306B70572
S214012FE4131636003306C90003270600130686FFA8
S214012FF46318E6006F008029032787006308E6004C
S2140130048326470093F6C6FFE3E8D7FE0326C700E8
S2140130142326C4002324E4002324860023268700D1
S2140130246FF0DFD8130740016378F71013074005E4
S2140130346366F72E93D7C4009385F7061388E706CD
S214013044139635006FF05FCB130E1E0093773E0088
S21401305413058500638007108327C5006FF05FDAC8
S2140130640326840093E514002322B4002326F600E5
S21401307423A4C700B3049400232A990023289900A3
S21401308493E7160023A6140123A4140123A2F40033
S2140130943307E400138509002320D700EF0000342A
S2140130A4130584006FF01FC0B307F40003A747009D
S2140130B4138509001367170023A2E700EF00003207
S2140130C4130584006FF01FBE93D5340093878400E4
S2140130D46FF09FB893E614002322D400B30494003F
S2140130E4232A9900232899009366170023A614011E
S2140130F423A4140123A2D400B307F4001385090002
S21401310423A0E700EF00802D130584006FF09FB91C
S21401311413D767001306970393068703131636001F
S2140131246FF05FEC630C240703248900032C8100F1
S214013134832744006FF09FE09385C7051388B7057E
S214013144139635006FF05FBB832783009385F5FFE5
S2140131546390672893F73500130383FFE39607FE0E
S214013164032749009347F6FFB3F7E7002322F90044
S21401317413161600E3ECC7CEE30A06CE3377F60041
S214013184631A0700131616003377F600130E4E0063
S214013194E30A07FE93050E006FF05FC537CC1600F1
S2140131A4130CCCC203270C003387EA002320EC005F
S2140131B483A641879307F0FF6386F618B3874B41CE
S2140131C4B387E7002320FC0093FC7B00638C0C0C84
S2140131D4B38B9B41B717000093878700938B8B00B3
S2140131E4B3859741B38A5B01B385554193954501F0
S2140131F413DA450193050A0013850900EF00103020
S2140132049307F0FF6300F51833057541B30A4501CA
S21401321403270C002324790193E71A00B305EA0077
S2140132242320BC0023A2FB00E30A24CF9306F0006C
S21401323463F0660B0327440093074BFF93F787FF5E
S214013244137717003367F7002322E40013065000B0
S2140132543307F4002322C7002324C70063E6F600DD
S21401326483A74B006FF09FCB930584001385090059
S214013274EF10C023832B890083250C0083A74B0002
S2140132846FF0DFC9938A0A016FF01FC493D62640F4
S21401329493071000B397D7003365F5002322A900DE
S2140132A46FF01FD7B3855B01B305B0409395450115
S2140132B413DA450193050A0013850900EF0010246B
S2140132C49307F0FFE312F5F4130A00006FF05FF4BE
S2140132D4032C81009307100023A2FB001385090029
S2140132E4EF00C00F13050000032A8101832A410160
S2140132F4032B0101832BC100832C41006FF09F9A9D
S2140133049306400563E4E60413D7C7001306F706DD
S2140133149306E706131636006FF0DFCC1307401545
S2140133246364F70493D7F4009385870713887707B4
S214013334139635006FF05F9C0324890083274400AD
S2140133446FF0DFBF23AA71876FF01FE8930640155D
S21401335463E4E60413D7F700130687079306770793
S214013364131636006FF01FC8130740556364F7043D
S21401337493D724019385D7071388C7071396350077
S2140133846FF09F97938C8CFFB38A9A01B38A7A4124
S214013394130A00006FF0DFE79306405563E4E60284
S2140133A413D727011306D7079306C7071316360044
S2140133B46FF05FC31306803F9305F0071308E00719
S2140133C46FF09F931306803F9306E0076FF09FC14B
S2140133D4832749006FF0DFD967800000678000000B
S2140133E4130500006780000037060400B775010066
S2140133F4370504001306468A938585801305058BD5
S2140134046F00C035130101FF832545002324810085
S21401341437C416002322910023261100130444C541
S2140134249304050063848500EF30C03D83A58400C2
S214013434930784066386F50013850400EF30803C09
S21401344483A5C4001304040D638E85000324810040
S2140134548320C10013850400832441001301010164
S2140134646F30403A8320C100032481008324410045
S2140134741301010167800000130500006780000046
S214013484130101FE232C8100B737010037C416004F
S214013494130444C59387C73E232E1100232A9100A3
S2140134A423282101232631012324410123A0F18C61
S2140134B41306800093074000930500001305C40516
S2140134C42326F400232004002322040023240400DA
S2140134D42322040623280400232A0400232C0400A0
S2140134E4EF00901DB7070100374A0100B7490100F4
S2140134F437490100B7440100130A4A989389899E03
S214013504130909A7938484AE938797001306800052
S214013514930500001305440C23204403232234039B
S2140135242324240323269402232AF406232E840028
S2140135342324040623260406232804062326040C2F
S214013544232C0406232E040623200408EF00D01699
S214013554B707020013078406938727011305C412CD
S2140135641306800093050000232444092326340906
S21401357423282409232A9408232EF40C2322E4085E
S2140135842328040C232A040C232C040C232A0412B7
S2140135942320040E2322040E2324040EEF00D0114C
S2140135A49307040D2328440F232A340F232C240FB6
S2140135B4232E940E8320C1012326F40E03248101B5
S2140135C483244101032901018329C100032A8100BF
S2140135D4130101026780000083A7018C130101FE19
S2140135E423263101232E1100232C8100232A910046
S2140135F423282101930905006388070E370904006F
S2140136041309498A9304F0FF832749000324890098
S2140136149387F7FF63D807006F0000081304840636
S214013624638C97060317C4009387F7FFE31807FE16
S214013634B707FFFF938717002326F4002322040607
S2140136442320040023240400232204002328040046
S214013654232A0400232C040013068000930500008B
S2140136641305C405EF00500523280402232A040287
S21401367423220404232404048320C1011305040023
S2140136840324810183244101032901018329C10003
S2140136941301010267800000032409006306040085
S2140136A4130904006FF05FF69305C01A1385090029
S2140136B4EFF08FD613040500630C05021305C5004D
S2140136C493074000232004002322F4002324A400AB
S2140136D41306001A93050000EF00007E23208900DC
S2140136E4130904006FF05FF2EFF09FD96FF01FF13A
S2140136F4232009009307C00023A0F9006FF0DFF729
S21401370483274503638407006780000003A7018CB1
S214013714B737010093878740232AF502E31607FE8D
S2140137246FF01FD66780000067800000370604002C
S214013734B73501001306468A9385453E13050000F6
S2140137446F00C00137060400B73501001306468A28
S2140137549385C547130500006F004000130101FD62
S21401376423202103232E3101232C4101232A510135
S21401377423286101232671012326110223248102B1
S21401378423229102130B0500938B0500930A06006E
S214013794130A0000930910001309F0FF83A44A00DA
S2140137A403A48A009384F4FF63C804028357C40005
S2140137B463FEF9008317E4009305040013050B0068
S2140137C463862701E7800B00336AAA009384F4FF1B
S2140137D413048406E39C24FD83AA0A00E3900AFCEE
S2140137E48320C102032481028324410203290102A6
S2140137F48329C101832A4101032B0101832BC100C3
S21401380413050A00032A81011301010367800000DE
S214013814130101FC2324C1022326D1022328E10239
S214013824232AF102232C0103232E110313860500F8
S2140138348325850093068102232E11002326D100B9
S214013844EF0010778320C101130101046780000093
S21401385403A3C187130101FC2324C1022326D10239
S2140138642322B1022328E102232AF102232C010395
S214013874232E1103832583009306410213060500B4
S21401388413050300232E11002326D100EF005072E6
S2140138948320C1011301010467800000130101FCA8
S2140138A4232C81021304050013850500232A9102A3
S2140138B4232E110293840500EF00C06DB7E70100C3
S2140138C4938787872324F102930710002326F102A6
S2140138D4032744039307010293061500232AF100E4
S2140138E493072000232091022322A102232ED10034
S2140138F4232CF10083258400630007060397C50083
S21401390483A745069316270163C00602B7E6FFFFA1
S2140139149386F6FF372600003367C700B3F7D70050
S2140139242396E50023A2F5061397270163400704AF
S2140139341306410113050400EF3000316318050234
S2140139441305A0008320C1030324810383244103B8
S2140139541301010467800000130504002326B10047
S214013964EFF01FDA8325C1006FF05FF91305F0FF4E
S2140139746FF05FFD9305050003A5C1876FF01FF285
S214013984130101FF23248100138405008395E500B8
S21401399423261100EF000030634005028327040547
S2140139A48320C100B387A7002328F40403248100DD
S2140139B413010101678000008357C40037F7FFFF36
S2140139C41307F7FFB3F7E7008320C1002316F400BB
S2140139D40324810013010101678000001305000020
S2140139E4678000008397C500130101FE232C810024
S2140139F4232A91002328210123263101232E110095
S214013A0413F7071013840500930405001309060031
S214013A14938906006310070437F7FFFF1307F7FFC0
S214013A24B3F7E7008315E4002316F40003248101A9
S214013A348320C10193860900130609008329C10066
S214013A4403290101138504008324410113010102A2
S214013A546F0080308395E50093062000130600006E
S214013A64EF00C01C8317C4006FF01FFB130101FF96
S214013A7423248100138405008395E5002326110081
S214013A84EF00C01A9307F0FF6308F5028357C400DA
S214013A94371700008320C100B3E7E70093970701B7
S214013AA493D707412328A4042316F4000324810092
S214013AB413010101678000008357C40037F7FFFF35
S214013AC41307F7FFB3F7E7009397070193D7074167
S214013AD48320C1002316F40003248100130101018D
S214013AE4678000008395E5006F004000130101FF25
S214013AF42324810023229100130405001385050065
S214013B042326110023A2018CEF80804F9307F0FF38
S214013B14630CF5008320C100032481008324410043
S214013B24130101016780000083A7418CE38407FE2B
S214013B348320C1002320F400032481008324410050
S214013B44130101016780000083A7C187638EA70C58
S214013B5483254504130101FE232A9100232E110017
S214013B64232C81009304050063880504232821017E
S214013B74232631011309000093090008B3872501A0
S214013B8403A40700630E0400930504000324040041
S214013B9413850400EF009011E31804FE83A5440482
S214013BA413094900E31C39FD13850400EF001010C6
S214013BB4032901018329C10083A5840363860500C3
S214013BC413850400EF00900E03A40404630C0400A0
S214013BD4930504000324040013850400EF00100D6C
S214013BE4E31804FE83A5C404638605001385040054
S214013BF4EF00D00B83A74403638E070003248101DF
S214013C048320C101138504008324410113010102A9
S214013C14678007008320C1010324810183244101B5
S214013C24130101026780000067800000130101FF91
S214013C34138705002324810023229100930506009F
S214013C441304050013860600130507002326110036
S214013C5423A2018CEF80C0449307F0FF630CF500A8
S214013C648320C10003248100832441001301010140
S214013C746780000083A7418CE38407FE8320C1008C
S214013C842320F4000324810083244100130101014D
S214013C9467800000130101FF1387050023248100B8
S214013CA423229100930506001304050013860600DB
S214013CB4130507002326110023A2018CEF80804000
S214013CC49307F0FF630CF5008320C10003248100F1
S214013CD483244100130101016780000083A7418CFE
S214013CE4E38407FE8320C1002320F400032481001B
S214013CF4832441001301010167800000130101FFC1
S214013D042324810023229100130405001385050052
S214013D142326110023A2018CEF8000429307F0FFB3
S214013D24630CF5008320C100032481008324410031
S214013D34130101016780000083A7418CE38407FE19
S214013D448320C1002320F40003248100832441003E
S214013D541301010167800000130101FF13870500A9
S214013D6423248100232291009305060013040500F1
S214013D7413860600130507002326110023A2018CCF
S214013D84EF80C03F9307F0FF630CF5008320C1006A
S214013D94032481008324410013010101678000008C
S214013DA483A7418CE38407FE8320C1002320F4000B
S214013DB4032481008324410013010101678000006C
S214013DC4130101FF23248100B7F7030037F403002E
S214013DD423202101938747481307444823261100CB
S214013DE4232291003389E7406382E702135929406D
S214013DF413044448930400008327040093841400A6
S214013E0413044400E7800700E3E824FF37F40300C3
S214013E14B7F7030093878748130744483389E74075
S214013E24135929406380E7021304444893040000AD
S214013E34832704009384140013044400E7800700D6
S214013E44E3E824FF8320C100032481008324410086
S214013E54032901001301010167800000130101FF1A
S214013E6423248100B7F7030037F4030093878748B8
S214013E741304C4483304F44023229100232611007A
S214013E8493542440638004021304C4FF3304F400EF
S214013E94832704009384F4FF1304C4FFE780070018
S214013EA4E39804FE8320C100032481008324410097
S214013EB413010101678000001303F00013070500D6
S214013EC4637EC3029377F7006390070A639205083B
S214013ED4937606FF1376F600B386E6002320B70032
S214013EE42322B7002324B7002326B70013070701AC
S214013EF4E366D7FE6314060067800000B306C3407A
S214013F049396260097020000B38656006780C60083
S214013F142307B700A306B7002306B700A305B70017
S214013F242305B700A304B7002304B700A303B7000F
S214013F342303B700A302B7002302B700A301B70007
S214013F442301B700A300B7002300B7006780000071
S214013F5493F5F50F93968500B3E5D5009396050181
S214013F64B3E5D5006FF0DFF69396270097020000BD
S214013F74B386560093820000E78006FA9380020017
S214013F84938707FF3307F7403306F600E378C3F653
S214013F946FF0DFF39377350013070500639C07047E
S214013FA4B7867F7F9386F6F79305F0FF032607000F
S214013FB413074700B377D600B387D700B3E7C70024
S214013FC4B3E7D700E384B7FE8346C7FFB307A7402A
S214013FD4638406048346D7FF638C06020345E7FF22
S214013FE43335A0003305F5001305E5FF67800000AF
S214013FF4E38806FA8347070013071700937637000A
S214014004E39807FE3307A7401305F7FF6780000010
S2140140141385D7FF678000001385C7FF67800000FC
S2140140243367B5009303F0FF137737006310071067
S214014034B7877F7F9387F7F70326050083A60500D6
S214014044B372F6003363F600B382F200B3E26200A1
S214014054639272106316D6080326450083A64500AC
S214014064B372F6003363F600B382F200B3E2620081
S214014074639E720C6316D6060326850083A6850006
S214014084B372F6003363F600B382F200B3E2620061
S2140140946398720C6316D6040326C50083A6C5006E
S2140140A4B372F6003363F600B382F200B3E2620041
S2140140B46392720C6316D6020326050183A60501D4
S2140140C4B372F6003363F600B382F200B3E2620021
S2140140D4639C720A1305450193854501E30ED6F4E4
S2140140E41317060193970601631EF700135706017B
S2140140F493D706013305F7409375F50F63900502D0
S214014104678000001357070193D707013305F7406B
S2140141149375F50F63940500678000001377F70F16
S21401412493F7F70F3305F740678000000346050051
S21401413483C6050013051500938515006314D60080
S214014144E31606FE3305D6406780000013054500D6
S21401415493854500E31CD6FC130500006780000028
S2140141641305850093858500E312D6FC130500002C
S214014174678000001305C5009385C500E318D6FAC9
S21401418413050000678000001305050193850501EA
S214014194E31ED6F8130500006780000083A7818C10
S2140141A4638C070403A747001308F0016342E80879
S2140141B41318270063060502338307012324C30863
S2140141C483A88718130610003316E600B3E8C80060
S2140141D423A417192324D310930620006308D502B9
S2140141E41307170023A2E700B387070123A4B70028
S2140141F41305000067800000B7C716001388C7D8E8
S21401420423A4018D9387C7D86FF0DFF983A6C71857
S2140142141307170023A2E700B3E6C60023A6D718A0
S214014224B387070123A4B7001305000067800000C5
S2140142341305F0FF67800000130101FD232C4101E3
S2140142442320210303A9818C232611026308090A6A
S214014254232E3101232A51012328610123267101CA
S214014264232481022322910223248101130B0500B6
S214014274938B05009309F0FF930A100083244900E9
S2140142841384F4FF634E040493942400B304990046
S21401429463900B088327490083A644009387F7FF9E
S2140142A4638C870A23A2040063860602832789187F
S2140142B433978A00032C4900B377F7006396070601
S2140142C4E78006000327490083A7818C63108709CA
S2140142D4639E27071304F4FF9384C4FFE31A34FB95
S2140142E403248102832441028329C101832A4101D3
S2140142F4032B0101832BC100032C81008320C102FF
S21401430403290102032A81011301010367800000C6
S21401431483A74410E38077F91304F4FF9384C4FF5E
S214014324E31834FF6FF0DFFB8327C91883A544081D
S2140143343377F7006316070213050B00E7800600C0
S2140143440327490083A7818CE30487F9E38A07F8E6
S214014354138907006FF09FF2232289006FF0DFF4C0
S21401436413850500E78006006FF0DFF5130101FEF3
S21401437423263101B7F90300232C8100232A910057
S2140143842328210123244101232E1100138A050029
S214014394130905009389C949EFF00F8403A789001F
S2140143A4B71700009387F7FE8324470037170000EA
S2140143B493F4C4FF3384F400330444411354C40017
S2140143C41304F4FF1314C400634EE40093050000C1
S2140143D413050900EFF09F9283A78900B38797001E
S2140143E46308F50213050900EFE05FFF8320C101AE
S2140143F40324810183244101032901018329C10086
S214014404032A8100130500001301010267800000DE
S214014414B305804013050900EFF05F8E9307F0FFA4
S214014424630AF504B7C716009387C7C203A7070034
S21401443483A68900B384844093E414003307874039
S2140144441305090023A2960023A0E700EFE01FF955
S2140144548320C1010324810183244101032901012D
S2140144648329C100032A81001305100013010102E8
S214014474678000009305000013050900EFF01F880C
S21401448403A789009306F000B307E540E3DCF6F4DE
S21401449483A6418793E717002322F7003305D54007
S2140144A4B7C6160023A6A6C26FF0DFF3638205180B
S2140144B4130101FF232481002322910013840500A4
S2140144C49304050023261100EFE01FF10325C4FF22
S2140144D4130784FFB7F503009377E5FF3306F70068
S2140144E49385C5498326460003A8850093F6C6FF2F
S2140144F46302C81A2322D600137515003308D600A2
S2140145046310050A032384FF0328480037F50300D4
S21401451433076740832887001305454AB387670036
S214014524137818006382A8140323C70023A668001F
S214014534232413016306081A93E617002322D700DF
S2140145442320F6009306F01F63ECF60693F687FF26
S2140145549386860003A54500B386D50003A6060008
S21401456413D8570093071000B3970701B3E7A700C2
S214014574138586FF2326A7002324C70023A2F5005C
S21401458423A0E6002326E600032481008320C1003D
S2140145941385040083244100130101016FE01FE425
S2140145A403254800137515006306050893E61700EE
S2140145B4232ED4FE2320F6009306F01FE3F8F6F824
S2140145C493D69700130640006360D61293D667000D
S2140145D41385960313868603131535003385A500C4
S2140145E483260500130585FF6318D5006F00401563
S2140145F483A686006308D50003A646001376C6FF85
S214014604E3E8C7FE03A5C6002326A7002324D70094
S214014614032481002324E5008320C10013850400BC
S2140146248324410023A6E600130101016FE01FDB8A
S2140146346780000037F50300B387D7001305454AA2
S21401464483268600638CA60C0328C60013E5170090
S2140146543306F70023A606012324D8002322A70045
S2140146642320F6006FF01FEE631C081283258600D4
S2140146740326C600B386F60093E7160023A6C500F4
S2140146842324B6002322F7003307D7002320D700BC
S2140146946FF09FEF13751500B386D70063100502FC
S2140146A4032584FF3307A7408327C7000326870013
S2140146B4B386A6002326F60023A4C70013E6160035
S2140146C483A781872322C70023A4E500E3EEF6EA45
S2140146D483A5C18B13850400EFF05FC96FF0DFEA91
S2140146E4B387D7006FF0DFF5130640016370D60277
S2140146F4130640056364D60693D6C7001385F606EB
S2140147041386E606131535006FF05FED1385C605AF
S2140147141386B605131535006FF05FEC23AAE50082
S21401472423A8E50093E617002326A7002324A70061
S2140147342322D7003307F7002320F7006FF0DFE4C6
S21401474403A845001356264093071000B397C700E5
S214014754B3E7070123A2F5006FF01FEB130640151C
S214014764636CD60093D6F7001385860713867607FF
S214014774131535006FF09FE613064055636CD6009B
S21401478493D627011385D6071386C6071315350056
S2140147946FF0DFE41305803F1306E0076FF01FE4B4
S2140147A493E617002322D7002320F6006FF0DFDDFF
S2140147B4130101ED2326111223229112232A5111EA
S2140147C423267111938A0500930406002324D1003D
S2140147D4930B0500EF201039832705001385070086
S2140147E42322F102EFF00FFB2320A10263880B00C2
S2140147F483A74B03639407006F1040700397CA00A6
S21401480483A74A069316270163C00602B7E6FFFF8D
S2140148149386F6FF372600003367C700B3F7D70041
S2140148242396EA0023A2FA06139727016354070086
S2140148346F10D0488397CA0013F787006302072EC8
S21401484403A70A01630E072C93F7A7011307A00019
S214014854638AE72EB7E70300232861112324811115
S214014864130B010B9387C7F037EC03002324811243
S214014874232C4111232EB10F23202113232E311172
S214014884232291112320A111232E6107232201083B
S21401489423200108232A0100232C0100232E0100D2
S2140148A413040B00232401022328010223220100FE
S2140148B42326F100130A0001130C0C0823207101AE
S2140148C4938D040083C70D00638C071E93840D002B
S2140148D4130750026386E72A83C7140093841400DF
S2140148E4E39A07FE3389B441638CB41D0327410858
S2140148F4832701082320B401330727019387170070
S214014904232224012322E1082320F108130770003F
S21401491413048400634EF7260327410083C704006B
S214014924330727012322E100638C071893841400BC
S214014934A30F01049309F0FF930B00001309000071
S2140149449306800503CD0400938D140093070DFE92
S21401495463E6F6040327C10093972700B387E700AD
S21401496483A7070067800700930B000093070DFDDC
S2140149741306900003CD0D0013972B00B30B77019C
S214014984939B1B00B38B770193070DFD938D1D003D
S214014994E372F6FE93070DFEE3FEF6FA63020D12CA
S2140149A42304A109A30F01041307100093041000A4
S2140149B4930C8108130F09009309000023280100B2
S2140149C4930F000093724F0803294108639602006F
S2140149D4B387EB40E342F0448347F105638A070259
S2140149E4832701089306F1052320D400130919002F
S2140149F493061000938717002322D400232221094B
S214014A042320F108930670001304840063C0F61A89
S214014A14638A0F0283270108930601062320D40024
S214014A241309290093062000938717002322D40034
S214014A34232221092320F10893067000130484001D
S214014A44E3CEF64E93070008E38AF208B389994049
S214014A54E34E301993770F10639407748327010884
S214014A643309990023209401938717002322940085
S214014A74232221092320F1089306700063CCF62033
S214014A8413048400137F4F0063060F00B384EB40C6
S214014A94E342904E13830B0063D4EB001303070029
S214014AA483274100B38767002322F100E31A092212
S214014AB483C70D002320010813040B00E39807E0C5
S214014AC483274108832B0100638407006F108078D5
S214014AD483D7CA00032481120329011293F707041A
S214014AE48329C111032A8111032B0111032C81107F
S214014AF4832C4110032D0110832DC10F63840700FD
S214014B046F10D01B8320C112032541008324411258
S214014B14832A4111832BC1101301011367800000FE
S214014B2493850A0013850B00EF20006363040500D8
S214014B346F10D0188397CA001307A00093F7A70134
S214014B44E39AE7D08397EA00E3C607D08326810079
S214014B548320C1121386040093850A00832441121C
S214014B64832A411113850B00832BC11013010113F2
S214014B746F10D0371369090193840D006FF09FDC21
S214014B843389B441E394B4D783C704006FF0DFD903
S214014B94032501001306C10793850A00EF10D041CF
S214014BA4E31805F213040B006FF01FD70325010069
S214014BB41306C10793850A00232EE102232CE10381
S214014BC4232A51022326F103EF10103FE31205F0C6
S214014BD4032941080327C103032F810383224103C9
S214014BE4832FC10213040B006FF09FE28327010891
S214014BF4B7E601009386469C2320D40013091900C6
S214014C0493061000938717002322D4002322210938
S214014C142320F108930670001304840063D4F6007D
S214014C246F10C013630406006F10C0488326410149
S214014C3493771F00B3E7D700E38607E4832741028F
S214014C44832601022320F40083270108B385260165
S214014C542322D400938717002322B1082320F108C6
S214014C649306700063D4F6006F10C06713048400C3
S214014C748326410193871700232094013389B600C4
S214014C842322D400232221092320F108930670004D
S214014C94E3D8F6DE032501001306C10793850A004F
S214014CA42326E1022328E101EF101031E31205E285
S214014CB403294108032F01010327C10213040B0032
S214014CC46FF05FDC93778900E398075E83278100A2
S214014CD49387770093F787FF03A7070093878700D7
S214014CE4232CE10003A7C7FF2324F100232EE100B0
S214014CF4832CC10103A701828326810183A74182F4
S214014D0493941C0093D41400138506009385040021
S214014D141306070093860700EF80005C6304050012
S214014D246F1040078326810103A7018283A741826E
S214014D34138506009385040013060700938607006F
S214014D44EF70905B6344A0006F10C00403278101D9
S214014D5493850C0013060000130507009306000054
S214014D64EF709059635405006F10C04D8346F105EA
S214014D749307700463D4A7016F10C044B7EC010015
S214014D84938C4C9823280100137FF9F713073000FE
S214014D949304300093090000638406001307170088
S214014DA4937F2F00E3800FC213072700930F200081
S214014DB46FF05FC1832681009377090103A706007C
S214014DC4938646002324D10063920712937609043E
S214014DD493070700E39A064C634E07108346F105D2
S214014DE463C40904137FF9F7631E0702130710004F
S214014DF4639E0920E310073A93741900930C0B0081
S214014E046382040493070003A307F10A930CF10ACF
S214014E141387090063CC990223280100E39006F85E
S214014E246FF01FF813090F0013079000E36EF76E77
S214014E3493870703A307F10A130F090093041000CD
S214014E44930CF10A13870900E3D899FC138704002D
S214014E54232801006FF09FFC8327810083AB0700A2
S214014E64938747002324F100E3D80BD0B30B70419A
S214014E741369490093840D006FF0DFAC03CD0D0078
S214014E849307A002938D1D006314FD006F10007E2E
S214014E9493070DFD93059000130700001306900079
S214014EA493090000E3E4F5AA03CD0D009319270046
S214014EB4B389E900939919003387F90093070DFD27
S214014EC4938D1D00E372F6FE93090700E35007A8CD
S214014ED49309F0FF6FF09FA78327810013690901E7
S214014EE403A70700938747002324F10093070700CD
S214014EF4E35607EEB307E0409306D002130710000B
S214014F046F00000A1369090893840D006FF09FA3CC
S214014F141369090493840D006FF0DFA2032781004F
S214014F24A30F010493041000832707001307470007
S214014F342324E1002304F10813071000930C8108CD
S214014F446FF05FA79307B002A30FF10493840D00DB
S214014F546FF05F9F1369190093840D006FF09F9E95
S214014F648347F105E39A07C093070002A30FF104F0
S214014F7493840D006FF01F9D1369890093840D00BF
S214014F846FF05F9C032781001369090183270700DB
S214014F94130747002324E1001307100093060000BB
S214014FA4A30FD10463C80900137FF9F7E38207E46A
S214014FB413090F0013061000E308C7E613062000C2
S214014FC46306C706930C0B0013F777001307070352
S214014FD4A38FECFE93D7370013860C00938CFCFF4B
S214014FE4E39407FE93771900638407069307000387
S214014FF46300F7061306E6FFA38FFCFEB304CB405B
S214015004130F0900930C06006FF0DFE393071000FB
S2140150146314F7006F10803F9307200013090F00F5
S2140150246304F7006F1040249307000003268102EF
S214015034930C0B0013F7F7003307E600034707004A
S21401504493D74700938CFCFF2380EC00E39407FE80
S214015054B3049B41130F09006FF0DFDE03278100C1
S2140150641369090183270700130747002324E10076
S214015074130700006FF09FF283268100137709015E
S21401508483A70600938646002324D100E31607F07F
S21401509413770904E30207F09397070193D70701EF
S2140150A4130710006FF09FEF83278100A30F0104FD
S2140150B483AC070013884700E3860C2E23240101E2
S2140150C463D409006F10800A138609009305000053
S2140150D413850C00EF20401C03288100631405008F
S2140150E46F10403AB30495418346F10513C7F4FFA4
S2140150F41357F741232401012328010033F7E40061
S214015104130F090093090000E39A06C86FF05FC9FC
S2140151148326810037870000130707832310E106DF
S214015124138746002324E10037E701001307879A13
S2140151342324E10283A7060013692900130720002C
S214015144130D80076FF09FE583268100137709010D
S21401515483A70600938646002324D100E31A07F0AA
S21401516413770904E30607F09397070193D707011A
S214015174130700006FF09FE293770901E388071095
S214015184832781000327410083A7070023A0E700A4
S21401519483278100938747002324F1006FF08FF261
S2140151A49307500663DAA735832681018327C10155
S2140151B41306000013850600938507009306000076
S2140151C4232AE1022326E103EF70407A032FC1026A
S2140151D4032741036316056683270108B7E6010022
S2140151E49386469C2320D4001309190093061000C5
S2140151F4938717002322D400232221092320F108B0
S2140152049306700013048400E3CCF6528327410608
S21401521483264101E3D4D70683274102832601026C
S21401522413048400232CF4FE832701083309D900D0
S214015234232ED4FE93871700232221092320F10865
S21401524493067000E3C2F60C832741019384F7FFAB
S214015254E35A9082930600018327010863C49600EB
S2140152646F10C03AB7E60300938606082326E102C8
S214015274032D01001307040093090001138404009D
S214015284930C70002328E101938406006F00C0008C
S214015294130404FFE3D0894E130909019387170009
S2140152A42320970023223701232221092320F108F2
S2140152B413078700E3DEFCFC1306C10793850A0087
S2140152C413050D00EF10404FE31405800329410830
S2140152D48327010813070B006FF09FFBB387EB408E
S2140152E46356F0F6930600010326010863C4F6002C
S2140152F46F100020B7E6030093860608232A91025E
S214015304930509001308000113090700930F7000A1
S214015314130704002326E10313840700938406007D
S2140153246F00C000130404FF635A880493850501C3
S2140153341306160023209700232207012322B1080F
S2140153442320C10813078700E3DECFFC03250100F1
S2140153541306C10793850A00EF100046631A05F683
S21401536413080001130404FF8325410803260108DA
S21401537413070B00930F7000E34A88FA9386040020
S214015384032FC10283244103930704001304070077
S21401539413070900138905003309F90013061600DB
S2140153A42322F4002320D400232221092320C10828
S2140153B4930770001304840063DAC7E80325010029
S2140153C41306C10793850A00232AE1022326E10373
S2140153D4EF10803E631E05EE0329410803274103AF
S2140153E4032FC10213040B006FF04FE6B7E6030068
S2140153F48327010893860608635A3A099306090027
S21401540413087000130907002326E1031307040099
S2140154141384090093090C006F00C000130404FFF1
S21401542463588A049386060193871700232087010D
S214015434232247012322D1082320F10813078700DA
S214015444E35EF8FC032501001306C10793850A00F1
S214015454EF108036631E05E6130404FF8326410815
S2140154648327010813070B0013087000E34C8AFA1C
S214015474032FC102138609009309040013040700CD
S2140154841307090013890600930606003309390138
S214015494938717002320D4002322340123222109D1
S2140154A42320F108930670001304840063D4F6DA0B
S2140154B4032501001306C10793850A00232AE10286
S2140154C42326E103EF10402F631405E00329410866
S2140154D403274103032FC10213040B006FF08FD778
S2140154E4032501001306C10793850A00EF10C02C9B
S2140154F4630005DC6FF0CFDD8324010883264101B8
S21401550493071000232094011309190093841400AF
S2140155149309840063D6D748930710002322F40026
S21401552423222109232091089307700063C69778E4
S2140155348327010283264102938414003309F90068
S21401554423A2F90023A0D9002322210923209108AC
S214015554930770009389890063CC97788327C101E8
S21401556483268101130600009385070083274101E2
S21401557413850600930600002326E1022328E10191
S2140155841384F7FFEF70803E032F01010327C10246
S21401559463000546938C1C00938414003309890028
S2140155A423A0990123A289002322210923209108FB
S2140155B49307700093898900E3C89714832601032F
S2140155C49307C106938414003389260123A0F900A6
S2140155D423A2D900232221092320910893077000CE
S2140155E41384890063D097CA032501001306C107F3
S2140155F493850A002326E1022328E101EF10C01B4C
S214015604631805CC032941080327C102032F0101AE
S21401561413040B006FF00FC793060001032601085D
S214015624E3D8F668B7E6030093860607232E9102AD
S214015634930509001308000113090700930370007A
S214015644130704002326F103232A5102232CE10322
S21401565413840700938406006F00C000130404FF3C
S214015664635A8804938505011306160023209700C0
S214015674232207012322B1082320C1081307870028
S214015684E3DEC3FC032501001306C10793850A0064
S214015694EF108012631E05C213080001130404FFF1
S2140156A4832541080326010813070B0093037000A2
S2140156B4E34A88FA93860400832FC10283224103B6
S2140156C4032F81038324C1039307040013040700F3
S2140156D413070900138905003309F9001306160098
S2140156E42322F4002320D400232221092320C108E5
S2140156F4930770001304840063D0C7AE032501002A
S2140157041306C10793850A00232EE102232CE10325
S214015714232A51022326F103EF10000A631A05BA5D
S214015724032941080327C103032F8103832241036D
S214015734832FC10213040B006FF00FAA0325010087
S2140157441306C10793850A00232CE102232AE103E9
S21401575423265102EF104006631C05B603294108AF
S21401576403278103032F41038322C10213040B0081
S2140157746FF04FAD9306000183270108E3D69654D4
S214015784B7E6030093860607138D04009309000108
S214015794930C70002328E100938406006F00C00078
S2140157A4130D0DFF63D6A905130909019387170085
S2140157B42320940023223401232221092320F108E3
S2140157C413048400E3DEFCFC032501001306C10771
S2140157D493850A00EF00507E631C05AE130D0DFF82
S2140157E4032941088327010813040B00E3CEA9FB10
S2140157F4032701019386040093040D0033099900DD
S214015804938717002320D4002322940023222109FE
S2140158142320F1089306700063DEF6A60325010033
S2140158241306C10793850A002328E100EF00D07808
S214015834631005AA03294108032701016FF08FA508
S214015844032641066354C0BA832741018326010116
S2140158549389070063C4F62A635630038327010835
S2140158643309390123209401938717002322340135
S214015874232221092320F1089306700013048400CF
S214015884E3C8F61E93C7F9FF93D7F741B3F9F900B6
S21401589483270101B38937416346303383264106A2
S2140158A48327410163C6F63A93771F006392073A4A
S2140158B48327410103260101B386D740B389C74034
S2140158C463D4360193890600635A300383270101A2
S2140158D40326010833093901B38CFC0013061600AC
S2140158E42320940123223401232221092320C108E1
S2140158F49307700013048400E3C6C73413C6F9FF84
S2140159041356F641B3F7C900B384F640635C909628
S2140159149306000183270108E3DA964EB7E60300EF
S214015924938606082326E102032D010013070400CB
S2140159349309000113840400930C70002328E101E9
S214015944938406006F00C000130404FF63D48962C5
S214015954130909019387170023209700232237018F
