S00C00006D61696E2E7372656373
S21401009497B107009381C1E51701FF03130141F6E8
S2140100A41385019317962F001306468C3306A64034
S2140100B493050000EF90C01D179500001305C517A2
S2140100C4EF70906DEF90400D13050000930541000D
S2140100D413060000EF00800E6F70506D37A5080000
S2140100E437A708009307C56E1307C76E630AF700A0
S2140100F493070000638607001305C56E6780070033
S2140101046780000037A508009307C56E37A7080067
S2140101149305C76EB385F54093D7254093D5F5016E
S214010124B385F50093D51540638A0500930700004F
S214010134638607001305C56E6780070067800000A5
S214010144130101FF2324810083C701A02326110084
S21401015463940702EFF09FF893070000638A070091
S21401016437A508001305050097000000E700000006
S214010174930710002380F1A08320C100032481008B
S21401018413010101678000009307000063860702DC
S21401019437A50800130101FF938541A01305050047
S2140101A42326110097000000E70000008320C10009
S2140101B4130101016FF01FF56FF0DFF4130101FE67
S2140101C4232E1100232C8100232A910023282101A8
S2140101D423263101EF208038EF109079EF2090121A
S2140101E413088002930700141307800C930600007B
S2140101F413060000B7D90400938589111385C19AA3
S214010204EF00107913088002930700141307800C7B
S214010214930600001306000037790400930589D17C
S2140102241385819AEF00D076130880029307001491
S2140102341307800C9306000013060000B71404008D
S214010244938584911385419AEF0090741308800274
S214010254930700141307800C93060000130600008E
S21401026437A40300930584511385019AEF00507255
S21401027413088002930700141307800C93060014D6
S21401028413060000938589111385C199EF005070F8
S21401029413088002930700141307800C93060014B6
S2140102A413060000930589D113858199EF00506EDA
S2140102B413088002930700141307800C9306001496
S2140102C4130600009385849113854199EF00506CC1
S2140102D413088002930700141307800C9306001476
S2140102E4130600009305845113850199EF00506AA3
S2140102F413088002930700141307800C9306002842
S21401030413060000938589111385C198EF00506880
S21401031413088002930700141307800C9306002821
S21401032413060000930589D113858198EF00506662
S21401033413088002930700141307800C9306002801
S214010344130600009385849113854198EF00506449
S21401035413088002930700141307800C93060028E1
S214010364130600009305845113850198EF0050622B
S214010374130880079307000A13070000930600007A
S2140103841306000037240200930584AC1385019CF0
S214010394EF00106003A5019CEF00005B03A5019C20
S2140103A4EF001072130880079307000A1307000072
S2140103B49306000A13060000930584AC1385C19BBB
S2140103C4EF00105D03A5C19BEF00005803A5C19B78
S2140103D4EF00106F130880079307000A13078007BE
S2140103E49306000013060000930584AC1385819BD5
S2140103F4EF00105A03A5819BEF00005503A5819BCE
S214010404EF00106C130880079307000A1307800790
S2140104149306000A13060000930584AC1385419BDA
S214010424EF00105703A5419BEF00005203A5419B23
S214010434EF0010691308D0089307100D1307E001A5
S2140104449306800313060000B7C502009385C5ED25
S2140104541385819CEF00D05303A5819CEF00C04E09
S21401046403A5819CEF00D065130810019307A0062D
S2140104741307800C9306B00613060000B7B50200F6
S2140104849385850C1385419CEF00905003A5419CF0
S214010494EF00804B03A5419CEF009062EF30505D66
S2140104A4130500008320C101032481018324410133
S2140104B4032901018329C100130101026780000099
S2140104C4130101FC232E1102232C8102232A9102FB
S2140104D42328210323263103232441032322510302
S2140104E423206103232E7101232C8101232A9101E8
S2140104F42328A1012326B10113040500938C0500CA
S214010504930D0600138D0600130B0700938B07004B
S2140105143305F70213151500EF70102C130C0500A4
S21401052413054000EF70502B930A05002322A40004
S21401053413054000EF70502A130A05002324A40073
S21401054413058000EF705029930905002326A400A3
S21401055413058000EF705028130905002328A40012
S21401056413054000EF70502793040500232AA400C6
S214010574232C6401232E7401930710002320F50015
S21401058423A0BA012320AA01130700009307000041
S21401059423A0E90023A2F9002320E9002322F9007D
S2140105A413054003EF7050232320A4002322950350
S2140105B4232A750123286501232485032320550155
S2140105C423224501232E350123202503232C9500C0
S2140105D48320C103032481038324410303290103E4
S2140105E48329C102032A8102832A4102032B0102C1
S2140105F4832BC101032C8101832C4101032D0101AD
S214010604832DC10013010104678000006302050AFB
S214010614130101FF232611002324810023229100C4
S2140106241304050013054001EF70101B9304050025
S214010634630805068327440003A7070023A0E400F4
S214010644032784008326070023A2D40083A7070078
S21401065483268401B387D70023A4F4008326C40128
S2140106649307900063C6D7009307A000232EF400D7
S214010674832707000327C401B387E70023A6F400F2
S21401068403A7019323A8E40023A891928320C10021
S21401069403248100832441001301010167800000C3
S2140106A43735050013058551EF80406A6FF09FF8D2
S2140106B467800000130101FF232611002324810013
S2140106C41304050003250500EF00002813050400A4
S2140106D4EFF0DFF38320C10003248100130101013D
S2140106E467800000130101FF2326110023248100E3
S2140106F403A401936302040423229100232021010D
S2140107049304000037390500938504008327C40049
S21401071403278400832644000326040093841400DC
S21401072413054953EF80405003240401E31E04FCDF
S21401073483244100032901008320C100032481008E
S2140107441301010167800000130101FE232E11002D
S21401075483A70193638E070A232C8100232A910021
S214010764232821012326310113040500938405005F
S2140107741309060093890600130500006F000002A2
S21401078483A6070123A8D1926F00000403A70701DB
S21401079413850700630607069307070003A70700E8
S2140107A4E31687FE03A74700E31297FE03A7870015
S2140107B4E31E27FD03A7C700E31A37FDE30205FC82
S2140107C403A707012328E50013850700EF709001AE
S2140107D41387090093060900138604009305040091
S2140107E43735050013054555EF8000440324810180
S2140107F483244101032901018329C1006F000002FA
S2140108040324810183244101032901018329C100B1
S2140108143735050013050558EF8040538320C10181
S2140108241301010267800000130101FF2326110052
S214010834232481001304050003250500EF00805FCF
S2140108448327440003A507008327840083A50700A4
S2140108548326C40103268401B386D5003306C50066
S214010864EFF09FEE8320C1000324810013010101F0
S21401087467800000630C0506130101FF232611009F
S2140108842324810013040500EFF01FFA83270400D4
S21401089403A58702EF700075032544006304050071
S2140108A4EF7040740325840063040500EF708073C1
S2140108B40325C40063040500EF70C0720325040118
S2140108C463040500EF700072032544016304050008
S2140108D4EF70407113050400EF70C0708320C100EF
S2140108E40324810013010101678000006780000072
S2140108F483274501130600009305F0FF634CF002BD
S21401090467800000B387C702B387E70083268502A2
S21401091493971700B387F6002390B70013071700C1
S21401092483270501E340F7FE1306160083274501D6
S214010934635AF6008327050113070000E344F0FC1D
S2140109446FF09FFE67800000130101FE232E110045
S214010954232C8100130405008327050083A70700C1
S2140109642324F5008327450083A707002326F500E3
S214010974EFF01FF8930710002326F402832744019F
S2140109846352F04A232A91002328210123263101A8
S2140109942324410123225101130600001303000FEF
S2140109A41305003C1308F0FF93021000130EF01316
S2140109B4372F2700130FCF10B7CE1D00938ECE10FE
S2140109C4930420001309F027B7CF1600938FCF9016
S2140109D46F0000428329440003AA0900330A460132
S2140109E493194A00B389494193996900B386D9009A
S2140109F493961600B386DF00839906008326840245
S214010A04B387F600239037018327440083A60700A3
S214010A14B306D6008329040093974600B387D740CC
S214010A249397670083A60900B306D700B387D70058
S214010A3493971700B387FF002390B7006F00C00099
S214010A44638E590C638A99261307170083270401BA
S214010A54635AF7388326040083A60600B306D70034
S214010A64E364D5FEB387C702B387E70093971700FD
S214010A7483254402B385F50083950500E38605FDC9
S214010A8483A98193E39E09FAE346DEF403AAC1939C
S214010A948326C400B306D600939696008329840061
S214010AA4B3093701B386360193961600B386460119
S214010AB483D9060083268402B387F6002390370180
S214010AC48327440083A70700B307F600939797008C
S214010AD48326040083A60600B306D700B387D7008F
S214010AE493971700B387E7012390B7008327440041
S214010AF483A70700B307F60093979700832604009D
S214010B0483A60600B306D700B387D70093971700CA
S214010B14B387D7012390B7006FF01FF3635ADE0A39
S214010B246342D91203AAC1938326C400B306D6002E
S214010B3493969600938606EC83298400B3093701BD
S214010B44B386360193961600B386460183D906000A
S214010B5483268402B387F600239037018327440053
S214010B6483A70700B307F60093979700938707ECCC
S214010B748326040083A60600B306D700B387D700EE
S214010B8493971700B72627009386C610B387D70016
S214010B942390B7008327440083A70700B307F60012
S214010BA493979700938707EC8326040083A6060091
S214010BB4B306D700B387D70093971700B7C61D00AF
S214010BC49386C610B387D7002390B7006FF0DFE78C
S214010BD437CA1600130ACA908329440083AA090057
S214010BE4B30A560193994A00B38959419399690006
S214010BF4B386D90093961600B306DA0083990600E5
S214010C0483268402B387F6002390370183274400A2
S214010C1483A60700B306D6008329040093974600EB
S214010C24B387D7409397670083A60900B306D70016
S214010C34B387D70093971700330AFA002310BA0034
S214010C446FF09FE037CA1600130ACA90832944003E
S214010C5483AA0900B30A560193994A00B3895941F4
S214010C6493996900B386D90093961600B306DA0001
S214010C748399060083268402B387F60023903701FE
S214010C848327440083A60700B306D60083290400FD
S214010C9493974600B387D7409397670083A60900C6
S214010CA4B306D700B387D70093971700330AFA0021
S214010CB42310BA006FF05FD9635CD90A9309003C2C
S214010CC4E38436D903AAC1938326C400B306D600A7
S214010CD493969600938606D883298400B309370130
S214010CE4B386360193961600B386460183D9060069
S214010CF483268402B387F6002390370183274400B2
S214010D0483A70700B307F60093979700938707D83E
S214010D148326040083A60600B306D700B387D7004C
S214010D2493971700B72627009386C610B387D70074
S214010D342390B7008327440083A70700B307F60070
S214010D4493979700938707D88326040083A6060003
S214010D54B306D700B387D70093971700B7C61D000D
S214010D649386C610B387D7002390B7006FF0DFCD04
S214010D7437CA1600130ACA908329440083AA0900B5
S214010D84B30A560193994A00B38959419399690064
S214010D94B386D90093961600B306DA008399060043
S214010DA483268402B387F600239037018327440001
S214010DB483A60700B306D60083290400939746004A
S214010DC4B387D7409397670083A60900B306D70075
S214010DD4B387D70093971700330AFA002310BA0093
S214010DE46FF09FC613061600832744016352F6026A
S214010DF48327440083A70700B307F600E364F3FEE2
S214010E0483270401E350F0FE130700006FF09FC42C
S214010E1483244101032901018329C100032A810096
S214010E24832A41008320C1010324810113010102A5
S214010E34678000000327C502930710006306F700C6
S214010E442326050267800000832745016354F028A2
S214010E54130101FF2326810023249100232221016B
S214010E642320310183A5819313060000130F000F7D
S214010E741308F0FF13031000930F20009308F013D8
S214010E84B72E2700938ECE1037CE1D00130ECE102C
S214010E949303F0271304F03BB7C216009382C29063
S214010EA46F0000200329C500330926019316490063
S214010EB4B386264193966600B386960093961600EB
S214010EC4B386D2002390F6006F00C00063846508E1
S214010ED4638CF5131307170083270501635CF71A60
S214010EE4B387C702B387E700832685029397170063
S214010EF4B387F60083970700E38E07FDE39805FCA6
S214010F0483248500B3049700E3C604FCE3CC98F875
S214010F148326C500B306D60093969600B38696003C
S214010F2493961600B386D6012390F6008326C50051
S214010F34B306D6009396960083248500B3049700DF
S214010F44B386960093961600B386C6012390F600E0
S214010F546FF05FF883248500B304970063DA98047E
S214010F6463CC93068326C500B306D60093969600F3
S214010F74938606ECB386960093961600B386D6013E
S214010F842390F6008326C500B306D60093969600F2
S214010F94938606EC83248500B3049700B3869600F3
S214010FA493961600B386C6012390F6006FF09FF25F
S214010FB40329C5003309260193164900B386264141
S214010FC493966600B386960093961600B386D2006F
S214010FD42390F6006FF01FF037C916008329C50069
S214010FE4B309360193964900B38636419396660053
S214010FF4B3869600939616009304C990B386D400DC
S2140110042390F6006FF01FED83248500B304970048
S21401101463DA9304E34094EC8326C500B306D60052
S21401102493969600938606D8B386960093961600F2
S214011034B386D6012390F6008326C500B306D600F0
S21401104493969600938606D883248500B304970066
S214011054B386960093961600B386C6012390F600CF
S2140110646FF05FE737C916008329C500B309360157
S21401107493964900B386364193966600B3869600E6
S214011084939616009304C990B386D4002390F60071
S2140110946FF05FE413061600832745016350F602DA
S2140110A48327C500B307F600E366FFFE8327050121
S2140110B4E352F0FE130700006FF09FE20324C10021
S2140110C483248100032941008329010013010101BE
S2140110D467800000678000009307050003278501E9
S2140110E4032507006302050603A7850103250700F8
S2140110F4630C050403A707008326070003A705005E
S2140111040326070003A705013307E60013050000BD
S21401111463DCE60203A70701B386E6006356D6023C
S21401112403A747008326070003A7450003260700F5
S21401113403A745013307E60063D8E60083A7470102
S214011144B386F6003325D600678000000327050022
S2140111548327070083A6050003A606009386570087
S21401116463D4C7009386B7FF2320D700032745001F
S2140111748327070083A6450003A606009386570027
S21401118463D4C7009386B7FF2320D7006780000087
S214011194130101FC232E1102232C8102232A91021E
S2140111A42328210323263103232441032322510325
S2140111B423206103232E7101232C8101232A91010B
S2140111C42328A1012326B10193040500938D05006C
S2140111D4930C0600138C0600930B0700138B070071
S2140111E4930A080013054003EF60105F130405001B
S2140111F423A0A40033055B0313151500EF60D05D2F
S214011204130D050013054000EF60105D130A050079
S2140112142320A40013054000EF60105C9309050029
S2140112242322A40013058000EF60105B1309050058
S214011234232EA40013058000EF60105A93040500C2
S2140112442320A40213054000EF601059232CA400A8
S21401125423286401232A54012322B4032324A40348
S2140112642320950123208A0123A079011307000076
S214011274930700002320E9002322F90023A0E400B9
S21401128423A2F4008320C10303248103832441039E
S214011294032901038329C102032A8102832A410205
S2140112A4032B0102832BC101032C8101832C4101F1
S2140112B4032D0101832DC100130101046780000081
S2140112C4630E0504130101FF232611002324810064
S2140112D41304050003250500EF60D05003254400E0
S2140112E4EF6050500325C401EF60D04F032504027C
S2140112F4EF60504F03258401EF60D04E032584022E
S214011304EF60504E13050400EF60D04D8320C100FA
S2140113140324810013010101678000006780000037
S214011324130101FF232611002324810023229100A7
S21401133493040500138405001306000093060000B9
S2140113441385040093050400EF50500A6340050218
S21401135413850400930504008320C100032481003F
S214011364832441001301010167800000B707008050
S21401137433C487006FF0DFFD130101FA232E110435
S214011384232C8104232A91042328210523263105AD
S214011394232441052322510523206105232E7103AD
S2140113A4232C8103232A91032328A1032326B10393
S2140113B4130405009384050013090600138D060023
S2140113C42328E100232AF100232C0101232E1101F5
S2140113D4834D010613050040EF6010402320A10051
S2140113E413050040EF60503F2322A100130500407F
S2140113F4EF60903E2324A10013050040EF60D03D2A
S2140114042326A10013050040EF60103D930C050050
S21401141413054000EF60503C930B05002320A40203
S21401142413054000EF60503B130B05002322A40272
S21401143413058000EF60503A930A05002324A402A2
S21401144413058000EF605039130A05002326A40211
S21401145413054000EF605038130C05002328A4023E
S21401146413054000EF605037930905002320A404B8
S214011474232A040293071000232CF404232E0402C7
S214011484930700012322F404930700022324F4049F
S21401149413050002EF6050341307F013930700009E
S2140114A463589700938704ECB337F70093871700C4
S2140114B4232AA404032741062320E406232E040436
S2140114C42328F404930710002320FC0023A09B0088
S2140114D423202B01130700009307000023A0EA0032
S2140114E423A2FA002320EA002322FA0093074006E7
S2140114F423A0F90093071006638EFD189308A00035
S2140115041308D9FF938734001307A000930620001D
S214011514130610009385818FEF3050101305400396
S214011524EF60902B930405002320A4002322A50337
S21401153493090002232A35011309000123282501F2
S2140115442324950313054003EF601029130A0500AD
S2140115542322A400832701012322F502232A35012D
S21401156423282501832701002324F50213054003BC
S214011574EF609026930A05002324A40083274101E3
S2140115842322F502232A3501232825018327410036
S2140115942324F50213054003EF601024130B050002
S2140115A42326A400832781012322F502232A350159
S2140115B423282501832781002324F50213054003EC
S2140115C4EF6090212328A4008327C1012322F5027A
S2140115D4232A3501232825018327C1002324F50264
S2140115E48325040223A0B4000326440223A2C400D4
S2140115F48326840223AED4000327C40223A0E40274
S2140116048327040323ACF4002320BA002322CA0050
S214011614232EDA002320EA02232CFA0023A0BA00A0
S21401162423A2CA0023AEDA0023A0EA0223ACFA00FE
S2140116342320BB002322CB00232EDB002320EB0236
S214011644232CFB002320B5002322C500232ED5001E
S2140116542320E502232CF5008320C10503248105FC
S21401166483244105032901058329C104032A81042E
S214011674832A4104032B0104832BC103032C810316
S214011684832C4103032D0103832DC102130101069B
S214011694678000009308A0001308D9FF93873400DD
S2140116A41307A00093062000130610009385C18F2C
S2140116B4EF30C0766FF09FE6130101FF2326110079
S2140116C42324810013040500630005048327040210
S2140116D483A50700032544043385A5008327440214
S2140116E483A6070083278404B386F60083A70193A1
S2140116F463980702232E04028320C1000324810079
S21401170413010101678000003735050013050559EB
S214011714EF70C0636FF09FFB83A70701E38C07FCA0
S21401172403A74700E3CAE6FE03A6C700E346D6FEC0
S21401173403A68700E342B6FE03A60700E34EC5FCF4
S21401174493071000232EF4028327C4021306000015
S2140117549306000023A0C70023A2D70083274402D0
S214011764832684043307D74023A0E7006FF0DFF80D
S21401177493070500032705030325070063020506EF
S21401178403A7050303250700630C050403A7070243
S2140117948326070003A705020326070003A74504BB
S2140117A43307E6001305000063DCE60203A74704DB
S2140117B4B386E6006356D60203A7470283260700CC
S2140117C403A745020326070003A785043307E6009B
S2140117D463D8E60083A78704B386F6003325D600CC
S2140117E46780000093070500032705030325070008
S2140117F46302050603A7850103250700630C050498
S21401180403A707028326070003A70500032607008C
S21401181403A705013307E6001305000063DCE602AF
S21401182403A74704B386E6006356D60203A7470216
S2140118348326070003A745000326070003A74501DF
S2140118443307E60063D8E60083A78704B386F60069
S2140118543325D60067800000032705028327070087
S21401186483A6050003A606009386570063D4C70023
S2140118749386B7FF2320D700032745028327070053
S21401188483A6450003A606009386570063D4C700C3
S2140118949386B7FF2320D70067800000130101FF5A
S2140118A423261100032785039307700063E0E706E8
S2140118B49317270037470500130787C7B387E70041
S2140118C483A707006780070003250500EFF08FD67E
S2140118D48320C10013010101678000000325450030
S2140118E4EFF04FD56FF0DFFE03258500EFF08FD4C0
S2140118F46FF01FFE0325C500EFF0CFD36FF05FFD39
S21401190403250501EFF00FD36FF09FFC3735050073
S2140119141305C55AEF7080436FF09FFB6306050AF3
S214011924130101FF2326110023248100130405005B
S214011934EFF0DFF68327040003A58702EF60806AD1
S2140119448327440003A58702EF60C06983278400C8
S21401195403A58702EF6000698327C40003A58702F5
S214011964EF6040688327040103A58702EF60806760
S2140119740325040263040500EF60C06603254402E0
S21401198463040500EF600066032584026304050012
S214011994EF6040650325C40263040500EF608064BC
S2140119A40325040363040500EF60C06303250404F0
S2140119B463040500EF6000638320C10003248100F3
S2140119C4130101016780000067800000130101FF15
S2140119D423261100232481002322910023202101A0
S2140119E493040500130400001309800283A7440529
S2140119F483A70700B387870003A50700EFE0DFF49A
S214011A0413044400E31424FF9305A00003A544052E
S214011A14EF3000658320C100032481008324410044
S214011A24032901001301010167800000130101FE6F
S214011A34232E1100232C8100232A9100232821011F
S214011A44130405008327450503A7C7016356E0026F
S214011A549304000083A7070013972400B387E700C5
S214011A6403A50700EFF00FBD9384140083274405F4
S214011A7403A7C701E3C0E4FE03A7470083270402C4
S214011A8483A70700938737002320F700832744059D
S214011A9403A787008327440283A707009387D7FFFA
S214011AA42320F700930700001308A000032744052A
S214011AB41396270083260700B386C60083A606006E
S214011AC483A506000325470083260701B386D702AC
S214011AD4032705003307D70023A0E5008326440522
S214011AE403A706003307C700032707000327470099
S214011AF483A6860083A606002320D70093871700B3
S214011B04E39607FB8327040403A50700930740060F
S214011B143345F502EF604034B7A7080003A6076F04
S214011B2483A6476FEF50002DEF60C02A1309050006
S214011B346356A006232631012324410123225101A1
S214011B449304000093096000130A1000930A7000BE
S214011B546F00C00093841400630C990203274403A6
S214011B64E30A37FF832784039387A7FFE374FAFE08
S214011B74E30257FF8327440583A70700139724002E
S214011B84B387E70003A50700EFE01FDC6FF09FFCB7
S214011B948329C100032A8100832A41009305090091
S214011BA403254405EF30C04B8320C1010324810182
S214011BB48324410103290101130101026780000006
S214011BC4130101FF232611002324810013040500B9
S214011BD463840502032784039307700063E6E70220
S214011BE49317270037470500130787C9B387E7000C
S214011BF483A7070067800700EFF05FE36FF09FFDA0
S214011C0403250400EFF00FA3032744039307700092
S214011C1463EAE7049317270037470500130787CBC2
S214011C24B387E70083A707006780070003254400FE
S214011C34EFF04FA06FF05FFD03258400EFF08F9F58
S214011C446FF09FFC0325C400EFF0CF9E6FF0DFFB1F
S214011C5403250401EFF00F9E6FF01FFB032504001C
S214011C64EFE09FCE8320C10003248100130101010C
S214011C746780000003254400EFE01FCD6FF09FFE50
S214011C8403258400EFE05FCC6FF0DFFD0325C4007D
S214011C94EFE09FCB6FF01FFD03250401EFE0DFCAE1
S214011CA46FF05FFC130101FF23261100232481003A
S214011CB42322210123203101930710006388F504B0
S214011CC403248502032904008329440003A6018210
S214011CD483A641821305090093850900EF5000018C
S214011CE46358050A03A7018283A741822320E400DF
S214011CF42322F4008320C100032481000329410028
S214011D048329010013010101678000000324850271
S214011D14032904008329440003A6818083A6C18085
S214011D241305090093850900EF40506C635CA0001D
S214011D3403A7818083A7C1802320E4002322F40023
S214011D446FF05FFB03A6018183A641811305090099
S214011D5493850900EF409079635C050003A7018130
S214011D6483A741812320E4002322F4006FF09FF827
S214011D7403A6818183A6C181130509009385090001
S214011D84EF30D0582320A4002322B4006FF09FF62E
S214011D9403A6818283A6C1821305090093850900DF
S214011DA4EF40D064635CA00003A7818283A7C1824D
S214011DB42320E4002322F4006FF0DFF303A68181DD
S214011DC483A6C1811305090093850900EF500070AD
S214011DD42320A4002322B4006FF0DFF1130101FED7
S214011DE4232E1100232C8100232A9100232821016C
S214011DF4130405006302052023263101232441012F
S214011E042322510193840500130906008327450301
S214011E14232CF502B7A7080083A507011385040040
S214011E24EF70805D6306050083A741906390070603
S214011E3423A2019093091000232A3403930500007A
S214011E4413050400EFF01FE6032A0402832A840222
S214011E5403250A00EF60400003A60A0083A64A0091
S214011E64EF30D04AEF5010772320AA00832784024C
S214011E7403A5070083A54700EF50D0758327090003
S214011E84B387A7002320F900232C3405B7A708003D
S214011E9483A5470113850400EF7000566306050009
S214011EA483A781906390070623A4019093092000D9
S214011EB4232A34039305100013050400EFF09FDE74
S214011EC4032A0402832A840203250A00EF50D078E9
S214011ED403A60A0083A64A00EF305043EF50906FE2
S214011EE42320AA008327840203A5070083A54700AD
S214011EF4EF50506E83270900B387A7002320F9000B
S214011F04232C3405B7A7080083A58701138504008D
S214011F14EF70804E631805000327C404930710006E
S214011F2463D4E70EB7A7080083A5C7011385040089
S214011F34EF70804C631005028327840213060000A9
S214011F449306000023A0C70023A2D700130710009E
S214011F5423A2E190B7A7080083A50702138504000E
S214011F64EF708049631C050E832784021306000064
S214011F749306000023A0C70023A2D700130710006E
S214011F8423A4E1908329C100032A8100832A410006
S214011F948327840203A5070083A54700EF509063B7
S214011FA4631E05008324C40203A5040083A544001C
S214011FB4EF505062631C050A232A04028324C402D8
S214011FC403A5040083A54400EF50D0606310050AFE
S214011FD48327C403639E070A832784051307200007
S214011FE4638EE70C13071000639EE70C93076000EB
S214011FF4232AF4026F00000D373505001305055931
S214012004EF60D0546FF0DFF88327840513072000B0
S214012014638AE70213071000638CE7028327C4026E
S21401202403A6018283A6418223A0C70023A2D70068
S214012034232E04028327C404938717002326F4045B
S2140120446FF05FEE93077000232AF4026FF01FFD12
S21401205493076000232AF4026FF05FFC8329C10012
S214012064032A8100832A41006FF09FF28327C40369
S214012074130710006382E7020327840593062000F2
S2140120846308D702930610006304D70C638C070217
S214012094232604046F00400713070000930700007B
S2140120A423A0E40023A2F400232A04026FF05FF2C3
S2140120B413077000232AE402E39C07FC93077000CD
S2140120C4232AF4028324C40203A6018383A641833C
S2140120D403A5040083A54400EF30502323A0A400E5
S2140120E423A2B400832444020329C40203A50400E2
S2140120F4EF5090560326090083264900EF3010213D
S214012104EF50504D23A0A4008327040203A7070021
S2140121149306F0139307000063DAE600130707EC4F
S2140121249307F013B3B7E700938717002328F40443
S21401213413050400EFF04FD88320C1010324810165
S2140121448324410103290101130101026780000070
S21401215413076000232AE402E38A07E86FF05FF3BB
S2140121649307100023A2F19023A4F1906780000046
S21401217437C316001303C3B8B7680D009388C89015
S21401218437B808001308C890371512001305C5E0C0
S214012194130E0000B78E0300938E0E40130705B08E
S2140121A4130608009386080093070300938507D84F
S2140121B42320B70023A0F600938507282320B60022
S2140121C413074700938727009386460013064600A5
S2140121D4E31EA7FC130303789388085013080850DA
S2140121E4130E0E3C13050550E31ADEFB6780000050
S2140121F4B71812009388C8909305002813080000A6
S21401220437E30100931718009386080003A7C193C8
S2140122143307F70003A60600035707002310E6005A
S2140122249387270093864600E392B7FE9388085067
S2140122341308082093850540E31668FC67800000B0
S214012244B7680D009388C89093050028130800000A
S21401225437E30100931718009386080003A7C19378
S2140122643307F70003A60600035707002310E6000A
S2140122749387270093864600E392B7FE9388085017
S2140122841308082093850540E31668FC6780000060
S214012294B7B808009388C89093050028130800006F
S2140122A437E30100931718009386080003A7C19328
S2140122B43307F70003A60600035707002310E600BA
S2140122C49387270093864600E392B7FE93880850C7
S2140122D41308082093850540E31668FC6780000010
S2140122E493959500B385A50093951500B727270008
S2140122F49387C710B387F5002390C700B7C71D009F
S2140123049387C710B385F5002390C5006780000046
S214012314130101FE232E1100232C8100232A910090
S214012324232821012326310123244101232251019B
S214012334371A1200130ACA90B7BA0400B30A5A012C
S214012344130900009309001493040A0013040000FF
S21401235483A70400039607009305090013050400E8
S214012364EFF01FF81304140093844400E31234FFBF
S21401237413091900130A0A50E3185AFD8320C101F0
S2140123840324810183244101032901018329C10016
S214012394032A8100832A4100130101026780000099
S2140123A4130101FE232E1100232C8100232A910000
S2140123B4232821012326310123244101232251010B
S2140123C4376A0D00130ACA90B7BA0400B30A5A0151
S2140123D4130900009309001493040A00130400006F
S2140123E483A7040003960700930509001305040058
S2140123F4EFF01FEF1304140093844400E31234FF38
S21401240413091900130A0A50E3185AFD8320C1015F
S2140124140324810183244101032901018329C10085
S214012424032A8100832A4100130101026780000008
S214012434130101FE232E1100232C8100232A91006F
S214012444232821012326310123244101232251017A
S21401245437BA0800130ACA90B7BA0400B30A5A0175
S214012464130900009309001493040A0013040000DE
S21401247483A70400039607009305090013050400C7
S214012484EFF01FE61304140093844400E31234FFB0
S21401249413091900130A0A50E3185AFD8320C101CF
S2140124A40324810183244101032901018329C100F5
S2140124B4032A8100832A4100130101026780000078
S2140124C4130101FE232E1100232C8100232A9100DF
S2140124D42328210123263101930400001309000F48
S2140124E49309001413040000130600009305040066
S2140124F413850400EFF0DFDE13041400E31624FF53
S21401250493841400E39034FF8320C10103248101E2
S21401251483244101032901018329C1001301010216
S21401252467800000B73720FF1307100023A0E702D7
S214012534B73720FF9387C70283A7070093F71700CF
S214012544638C0700373720FF1307C702832707006A
S21401255493F71700E39C07FE67800000130101FF51
S21401256423261100232481002322910003A7C1906E
S214012574B72727009387C7102322F700EFF09FFAA7
S21401258483A7C19083A7070023AEF192EFF05FF310
S21401259403A7C190B7C71D009387C7102322F7006E
S2140125A48327470023AEF192EFF09FF18320C10009
S2140125B40324810083244100130101016780000084
S2140125C4130101FF23261100373505001305C55BEA
S2140125D4EF60C077373505001305855DEF6000773A
S2140125E403A3019183C6919403C68194B78800001E
S2140125F49305000F130EA0056F00800193060600D5
S21401260413F6F70F23A2F19423A0E194638AB6008C
S2140126148327030033F71701E30607FE6FF01FFE57
S214012624E318C6FF23840194A384019423850194AB
S214012634373505001305055FEF6040718320C1003F
S2140126441301010167800000130101FF2326110015
S2140126549300000003AE019183C6819403C691944E
S214012664930F0000930200009303000037830000D9
S2140126749305100013056001930EE001130F000F7C
S2140126846F0080006308E60783270E0033F76700B0
S214012694630E0700930006001386060093F6F70FF1
S2140126A4938F0500938205009383050023A2F1947A
S2140126B423A0E194E388A6FCE398D6FDE316E6FDA1
S2140126C463860F001307E0012384E1946384020008
S2140126D42385119463860300130700FFA384E19402
S2140126E43735050013054561EF6040661305100094
S2140126F46F00400363860F00130760012384E1948F
S214012704638402002385119463860300130700FF84
S214012714A384E1943735050013050560EF60006373
S2140127241305000023840194A38401942385019452
S2140127348320C1001301010167800000130101FF1A
S214012744232611009300000003AE019183C68194F1
S21401275403C69194930F00009302000093030000B4
S214012764378300009305100013056001930EE00102
S214012774130F000F6F0080006308E60783270E001F
S21401278433F76700630E07009300060013860600FE
S21401279493F6F70F938F0500938205009383050044
S2140127A423A2F19423A0E194E388A6FCE398D6FD42
S2140127B4E316E6FD63860F001307E0012384E19424
S2140127C4638402002385119463860300130700FFC4
S2140127D4A384E1943735050013054561EF6000577E
S2140127E4130510006F00400363860F001307600192
S2140127F42384E19463840200238511946386030091
S214012804130700FFA384E194373505001305856299
S214012814EF60C0531305000023840194A38401943C
S214012824238501948320C100130101016780000000
S21401283483A7019183A7070023A2F1943787000099
S21401284433F7E70023A0E19413050000630C0702A5
S21401285403C791942385E19483C68194A384D19478
S21401286493F7F70F2384F1941306000E630EC70043
S2140128749307E001130500006316F7009307000FA2
S2140128846384F60C67800000130750076384E6062A
S2140128946362D7029307B0066384F606930740077C
S2140128A46398F600B7A7080003A5470167800000F0
S2140128B4678000001307000F639AE60213075007A8
S2140128C46386E704130720076388E7041307B00643
S2140128D46386E7061307400713050000E394E7FA47
S2140128E4B7A7080003A507026780000013050000C8
S2140128F467800000B7A7080003A58701678000006A
S214012904B7A7080003A5070167800000B7A708005A
S21401291403A5470267800000130101FF2326110067
S2140129243735050013054564EF6040421305000082
S2140129348320C1001301010167800000B7A70800C6
S21401294403A5C70167800000B7A7080003A587028F
S2140129546780000083A7019183A7070023A2F1944F
S2140129643787000033F7E70023A0E194130500003E
S2140129746308070683C691942385D19403C781947B
S214012984A384E19493F7F70F2384F1941306000EBE
S2140129946380C60293079002130500006392F6044F
S2140129A46304F70A9307000F630EF70E67800000AF
S2140129B4930640076308D70663F6E60293065007B4
S2140129C46306D7049306000F631ED7021307500746
S2140129D46380E70613072007130500006380E706F4
S2140129E4678000009307B0066308F7029307200781
S2140129F46318F700B7A7080003A5C703678000009C
S214012A04678000001305000067800000B7A7080070
S214012A1403A5470367800000B7A7080003A50703BB
S214012A2467800000B7A7080003A5C70267800000F7
S214012A34B7A7080003A5870367800000B7A70800A7
S214012A4403A5070467800000130101FF2326110074
S214012A542324810003A6818383A6C18303A5019D44
S214012A6483A5419DEF30800A23A8A19C23AAB19C8B
S214012A7403A6018483A64184EF40800E631E0500ED
S214012A84B7A7080003A587048320C1000324810097
S214012A941301010167800000B7A7080003A54704D6
S214012AA46FF09FFEB7A7080003A5870467800000A0
S214012AB4130101FF23261100232481002322910000
S214012AC4232021011309050093840500EF5080306B
S214012AD413040500EF5040381306090093860400DA
S214012AE4EF40C020132505003305A4008320C10050
S214012AF403248100832441000329010013010101F9
S214012B046780000003A7C194930610062300D7002C
S214012B1483A7C19423A2070023A4070023860700E2
S214012B24678000009306050093871500938545008A
S214012B34130830001306800033E507031317250036
S214012B443387E60003270700032747036316C700F6
S214012B5493871700E392B7FE67800000130590067B
S214012B6467800000130101FF2326110083A78193C8
S214012B74639A070283A74193638E07021307100023
S214012B84638CE700130720006396E702EFF04FF02B
S214012B94EFF00FF86F000002EFF08FEAEFF04FF757
S214012BA46F004001130710006380E702130720003B
S214012BB46380E70403A7819323AAE1928320C100DB
S214012BC4130101016780000083A74193638C07000A
S214012BD413072000E390E7FEEFF08FEBEFF04FFCD6
S214012BE46FF05FFDEFF0CFE0EFF08FFB6FF09FFC2F
S214012BF483A74193638C070013071000E39CE7FA4D
S214012C04EFF00FE4EFF0DF826FF0DFFAEFF04FDE64
S214012C14EFF01F826FF01FFA130101F6232E11083D
S214012C24232C810823850194A3840194238401948D
S214012C3483A7C19483C6070013071006638CE60EA8
S214012C4403A7870013172700B78730009387C71099
S214012C54B387E70083A7C70603A7070523ACE1925A
S214012C64EFF05FF083A7C19483A7870063940700FE
S214012C746F00906B130710006394E7006F00907168
S214012C84130720006394E7006F00907703A5C19AA9
S214012C94EFD09FCB03A5C199EFD01FCB03A5C19855
S214012CA4EFD09FCA0325C103EFD01FCA0325010431
S214012CB4EFD09FC903254104EFD01FC9374505004E
S214012CC413058596EF60800883A7C19403A6870041
S214012CD483C507003735050013050577EF50D07413
S214012CE4EFF09F962320A102631405006F0010786D
S214012CF403A4C19483258400378530001305851702
S214012D04EFF05FE22324A400930710062300F400E7
S214012D14EFF0DFE493050500374505001305C59478
S214012D24EF5090708320C109032481091301010A1D
S214012D346780000003A7470013172700B7873000F2
S214012D449387C710B387E70083A7070003A7070580
S214012D5423ACE192EFF01FE183A7C19483A7470058
S214012D646386070A130710006386E710130720001B
S214012D746388E71603A5C19AEFD01FBD03A5C199C1
S214012D84EFD09FBC03A5C198EFD01FBC0325C10398
S214012D94EFD09FBB03250104EFD01FBB03254104DD
S214012DA4EFD09FBA3735050013050576EF50107A34
S214012DB483A7C19403A6470083C5070037350500DA
S214012DC413050577EF505066EFF01F882320A10204
S214012DD4630E051603A4C194832544003785300089
S214012DE41305C510EFF01FD42322A4009307200671
S214012DF42300F400EFF09FD6930505003745050040
S214012E041305C594EF5050626FF0DFF137440500A7
S214012E1413080002930700011307B00C930660120F
S214012E2413060000930584CD1305C103EFE04FB6E6
S214012E3413080002930700011307B00C93066026DB
S214012E4413060000930584CD13050104EFE04FB487
S214012E5413080002930700011307B00C9306603AA7
S214012E6413060000930584CD13054104EFE04FB229
S214012E746FF05FF0374405001304840D1308000255
S214012E84930700011307B00C9306601213060000A3
S214012E94930504001305C103EFE08FAF1308000286
S214012EA4930700011307B00C93066026130600006F
S214012EB49305040013050104EFE08FAD1308000227
S214012EC4930700011307B00C9306603A130600003B
S214012ED49305040013054104EFE08FAB6FF09FE9FF
S214012EE4374405001304844D1308000293070001B8
S214012EF41307B00C93066012130600009305040032
S214012F041305C103EFE0CFA81308000293070001DD
S214012F141307B00C930660261306000093050400FD
S214012F2413050104EFE0CFA613080002930700017E
S214012F341307B00C9306603A1306000093050400C9
S214012F4413054104EFE0CFA46FF0DFE2232A9108D2
S214012F54232821092326310923244109232251093F
S214012F6423206109232E7107232C8107232A910725
S214012F742328A1072326B10703A5419AEFD0DF9C96
S214012F8403A54199EFD05F9C03A54198EFD0DF9B41
S214012F940325C103EFD05F9B03250104EFD0DF9A1D
S214012FA403254104EFD05F9A373505001305857A6A
S214012FB4EF50D059B75405009384848D378430007C
S214012FC41304C410930800001308E00D9307A00C23
S214012FD4130790019306E00013062000938504006E
S214012FE41305C400EF109063930800001308E00D66
S214012FF49307A020130790019306E0001306200010
S214013004938504001305C402EF1050619308000071
S2140130141308E00D9307A034130790019306E0000C
S21401302413062000938504001305C404EF10105FF3
S214013034373505001305C57CEF50505183A7C1945D
S21401304483A74700939727003304F40083270400DB
S21401305483A7070283A707002320F100930C00002F
S214013064B7873000938DC71083A7818403A8C184D2
S2140130742324F1002326010183A7818303A8C183A6
S2140130842328F100232A010183A781832324F10243
S21401309483A7C1832326F10283A7018403A841845D
S2140130A4232CF100232E01019387CD002322F10264
S2140130B46F00C01283A7C19483A747009397270084
S2140130C4B387FD0083A5040003A50700EFE04FEADC
S2140130D46306050023268A01930B0C00130444009F
S2140130E4130A4A0093844400630CA40383A7C1947F
S2140130F483A7470093972700B387FD0003A507001E
S21401310483250400E308B5FAEFE08FE6E30405FA45
S214013114930710002320FA00930B10006FF09FF919
S214013124639C0B1683A7C19483A747009397270034
S214013134B387FD009305000003A50700EFE05FA831
S21401314483A7C19483A7470093972700B387FD00FD
S21401315483A7070003A7070523ACE192032901020D
S21401316463CE0C2613850C00EF40104F0326810016
S2140131748326C100EF30002693040500138405005E
S2140131840326010183264101EF3050266356A00031
S214013194832481020324C102032681018326C101FB
S2140131A41385040093050400EF30D044EF409042A9
S2140131B49309050083A48D02634C952263CAA42651
S2140131C49385090003254102EF1090696304090001
S2140131D4B30C9041EFF01F99EFF0CFB413850C00B8
S2140131E4EF409047EFE0CF9303A6818483A6C18482
S2140131F4EF30D02F635E0526EFF08FE393050500CD
S214013204B7A708009387070183A787016382A726C8
S21401321483A7C19483A7470093972700B387FD002C
S2140132241306000003A50700EFE05FBB83A7C19464
S21401323483A7470093972700B387FD0083A707005A
S21401324483A7070283A707002322F10003270100AF
S214013254B38CE74023240104232601042328010414
S214013264232A0104232C0104232E0104B7873000EA
S2140132749389C71013098104938AC906138DC9005B
S21401328493840A00130A09001384C710930B0000E1
S214013294130C10006FF09FE5938B0900138B0A0043
S2140132A4130A090093045000130C20006F00400613
S2140132B4138D0B0003A54B018327450503A7C701FF
S2140132C46358E0021304000083A7070013172400C1
S2140132D4B387E70003A50700EFD0DFB51304140096
S2140132E403254D018327450503A7C701E34EE4FCE7
S2140132F4EFE0CFDA6F00800283274A01639E07025C
S2140133049384F4FF130ACAFF130BCBFF938BCBFFF3
S214013314E3449CFE83274A01E39C07F89384F4FF65
S2140133249307F0FF638EF404130ACAFF130BCBFF53
S214013334938BCBFF6FF0DFFD130D0B0003258B0082
S2140133448327450503A7C7016358E0021304000059
S21401335483A7070013172400B387E70003A5070014
S214013364EFD05FAD1304140003258D0083274505B4
S21401337403A7C701E34EE4FCEFE04FD26FF05FF81A
S21401338483A7C19483A7470093972700B387FD00BB
S2140133949305000003A50700EFE09F8213040000D5
S2140133A493042000130A60006F00D0678327090086
S2140133B4639E070013041400E30444D99389490067
S2140133C4938A4A00130949006F00D06593050000EB
S2140133D403A54AFFEFE0CFFE6FF0DFFD8327010070
S2140133E403274100B38CE740130910006FF09FD701
S2140133F41394240083A7CD00B387870003A5070091
S214013404EFD05FA383A7CD02B387870003A5070088
S214013414EFD05FA283A7CD04B387870003A5070077
S214013424EFD05FA19384F4FFE3D434FD6FF05FD94A
S2140134341394240083A7CD00B387870003A5070050
S214013444EFD08FD083A7CD02B387870003A50700EB
S214013454EFD08FCF83A7CD04B387870003A50700DA
S214013464EFD08FCE93841400E39499FC6FF05FD56C
S214013474378430001304C410832584029385F5FF32
S2140134841305C400EF10503E832584029385F5FF8F
S2140134941305C402EF10503D832584029385F5FF7E
S2140134A41305C404EF10503CEFE09FCB2384019432
S2140134B4A38401942385019483A7C19403A647009A
S2140134C483C50700373505001305057FEF50C07522
S2140134D403A5819AEFD04FC703A58199EFD0CFC634
S2140134E403A58198EFD04FC60325C103EFD0CFC5FE
S2140134F403250104EFD04FC503254104EFD0CFC403
S214013504EFF0CFA3630A05028324410903290109C5
S2140135148329C108032A8108832A4108032B010849
S214013524832BC107032C8107832C4107032D010735
S214013534832DC1066FF01F8A03A5019AEFD0CFC071
S21401354403A50199EFD04FC003A50198EFD0CFBFD3
S2140135540325C103EFD04FBF03250104EFD0CFBE2F
S21401356403254104EFD04FBE83A78193638C0706DE
S214013574130710006386E70A130720006380E70E2B
S2140135843745050013054585EF50407C13070000B9
S2140135949307000023ACE19C23AEF19C23A8E19C95
S2140135A423AAF19C03AC018583AC418503AA01845B
S2140135B483AA418403A9818383A9C18383A68183C2
S2140135C42320D10083A7C1832322F10013040A0018
S2140135D493840A0037873000930DC710138D8D0727
S2140135E46F0000143745050013050583EF50007678
S2140135F4930800001308E00D930730101307900199
S2140136049306E00013062000B75505009385858DC3
S2140136143785300013054518EF1050006FF05FF63C
S214013624374505001305C583EF5040729308000023
S2140136341308E00D93073024130790019306E00066
S21401364413062000B75505009385858D3785300010
S21401365413054518EF10807C6FF09FF2374505007F
S21401366413058584EF50806E930800001308E00D5F
S21401367493073038130790019306E00013062000E1
S214013684B75505009385858D378530001305451894
S214013694EF10C0786FF0DFEE03AB819D83ABC19D65
S2140136A413060C0093860C0013050B0093850B0080
S2140136B4EF30004B6318050A13060A0093860A00C6
S2140136C403A5019D83A5419DEF20D050130B050052
S2140136D4938B05001306090093860900EF30005109
S2140136E46356A000032B0100832B4100130604003C
S2140136F49386040013050B0093850B00EF30806F4F
S214013704EF40406D930B050003AB4D096346652BF3
S2140137146344AB2C93850B0013050D00EF10501476
S214013724EFF04FA3B7A7080083A78703E386A7F69E
S214013734B7A7080083A707046382A706B7A70800EC
S21401374483A7C7026388A70AB7A7080083A7070346
S214013754639AA70A374505001305C589EF50005F2C
S2140137646FF09FF5B7A7080003A6076F83A6476FF8
S21401377413050B0093850B00EF20403923ACA19C65
S21401378423AEB19C13060500938605003745050054
S21401379413054587EF5040496FF01FF203AB819D37
S2140137A483ABC19D130600009306000013050B00AE
S2140137B493850B00EF30C03AE30005F0B7A7080085
S2140137C403A6076F83A6476F13050B0093850B00AB
S2140137D4EF30D04F23ACA19C23AEB19C1306050059
S2140137E4938605003745050013054587EF50C0430A
S2140137F46FF09FEC3745050013058588EF5000559B
S2140138046FF09FEBB7A7080083A78704E396A7EAA0
S21401381403A6019D83A6419D374505001305058B27
S214013824EF50804003A6818583A6C18523A8C19C49
S21401383423AAD19C374505001305858DEF50C03E5C
S214013844378430001304C41083A7C19483A74700A8
S21401385493972700B307F40083A7070003A747023B
S2140138640326070083A7070283A5070003A8019D73
S21401387483A8419D03A7819D83A7C19DB7560500D3
S21401388493860691130676009385850013058409AD
S214013894EF10503E832544099385F5FF13058407ED
S2140138A4EF10807C03258409EFD00F8A23A0019EA4
S2140138B49304800C138A0700930920003784300090
S2140138C41304C4101309840983A7019E63CEF90265
S2140138D403258409EFD00FD613050900EF10505FB6
S2140138E413050900EF10906D03258409EFD0CF85E9
S2140138F48327440A23ACF192EFF0CFA6EFE09FC2F0
S2140139049384F4FFE39204FC374505001305058F01
S214013914EF50C043378430001304C41003258409D0
S214013924EFD04FD1032984098327490003A5070053
S214013934EF40805203A6018483A64184EF301039F8
S214013944EF404049130405008327090003A5070037
S214013954EF40805003A6018483A64184EF301037DC
S214013964EF404047930605001308200393072003FE
S2140139741307040013060000B7E505009385C54246
S21401398413858197EFD0DF8003A58197EFC0DFFB16
S214013994EFE05FB91304C00003A58197EFD08FC988
S2140139A41304F4FF630A040403A58197EFC0DFF947
S2140139B4EFE05FB76FF05FFE83A78D0713172B0049
S2140139C4B387E70003A50700EFD0CFC6130BFBFFB1
S2140139D4E3547BFF6FF01FD483A78D0713172B00C7
S2140139E4B387E70003A50700EFC01FF6130B1B0000
S2140139F4E3946BFF6FF01FD2EFE0DFB203A581976C
S214013A04EFD01F8C3745050013058590EF50003421
S214013A14378430001305C4101306C5069305C41075
S214013A2413058509EF10D06B9304C4101304C41056
S214013A3413090000130A10009309300083270400B9
S214013A4483A7C705638E470B1309190013044400A3
S214013A54E31639FF378430001304841793090400EE
S214013A6413090000930A1000130A300083A7090003
S214013A7483A7C7056380570B130919009389490067
S214013A84E31649FF378530001305451AEF104076D3
S214013A941386C4009306800083A7040003A7470384
S214013AA46304D70023AE070493844400E396C4FE5C
S214013AB41306C400930680008327040003A7470364
S214013AC46304D70023AE070413044400E316C4FEBC
S214013AD483244109032901098329C108032A81088A
S214013AE4832A4108032B0108832BC107032C810772
S214013AF4832C4107032D0107832DC1066FF08FAD7B
S214013B04930509003745050013054592EF50C0118A
S214013B146FF09FF393050900374505001305859358
S214013B24EF5080106FF05FF53754050013040493CB
S214013B3413080002930700011307B00C93066012E2
S214013B4413060000930504001305C103EFD04FE4E8
S214013B5413080002930700011307B00C93066026AE
S214013B64130600009305040013050104EFD04FE289
S214013B7413080002930700011307B00C9306603A7A
S214013B84130600009305040013054104EFD04FE02B
S214013B946FF0CF8F37540500130404D313080002C3
S214013BA4930700011307B00C930660121306000076
S214013BB4930504001305C103EFD08FDD130800023B
S214013BC4930700011307B00C930660261306000042
S214013BD49305040013050104EFD08FDB13080002DC
S214013BE4930700011307B00C9306603A130600000E
S214013BF49305040013054104EFD08FD96FF00F89A4
S214013C043754050013040413130800029307000134
S214013C141307B00C93066012130600009305040004
S214013C241305C103EFD0CFD6130800029307000192
S214013C341307B00C930660261306000093050400D0
S214013C4413050104EFD0CFD4130800029307000133
S214013C541307B00C9306603A13060000930504009C
S214013C6413054104EFD0CFD26FF04F82232A910877
S214013C742328210923263109232441092322510912
S214013C8423206109232E7107232C8107232A9107F8
S214013C942328A1072326B10703A5419AEFC0DFCA4B
S214013CA403A54199EFC05FCA03A54198EFC0DFC9D8
S214013CB40325C103EFC05FC903250104EFC0DFC8B4
S214013CC403254104EFC05FC883A7C19403A78700F7
S214013CD413172700B78730009387C710B387E70009
S214013CE483A7C70683A7070283A707002320F1003B
S214013CF4930C0000B7873000938DC71083A7818487
S214013D0403A8C1842324F1002326010183A7818308
S214013D1403A8C1832328F100232A010183A78183F1
S214013D242324F10283A7C1832326F10283A70184F6
S214013D3403A84184232CF100232E01019387CD008F
S214013D442322F1026F00C01213044400130A4A002E
S214013D54938444006300A40783A7C19483A78700C0
S214013D6493972700B387FD008325040003A5C706A0
S214013D74EFD01FA06306050023208A01930B0C00D5
S214013D8483A7C19483A7870093972700B387FD0071
S214013D9403A5C70683A50400E308B5FAEFD05F9D23
S214013DA4E30405FA930710002326FA00930B100088
S214013DB46FF09FF9639C0B1683A7C19483A78700B2
S214013DC493972700B387FD009305000003A5C70654
S214013DD4EFD01FDF83A7C19483A78700939727009B
S214013DE4B387FD0083A7C70603A7070523ACE192A3
S214013DF40329010263CE0C2613850C00EF40C0058F
S214013E04032681008326C100EF20C05C93040500CD
S214013E14138405000326010183264101EF20105D6A
S214013E246356A000832481020324C1020326810170
S214013E348326C1011385040093050400EF20907BBB
S214013E44EF3050799309050083A48D02634C9522C3
S214013E5463CAA4269385090003254102EF10402076
S214013E6463040900B30C9041EFE0DFCFEFE08FEB82
S214013E7413850C00EF30507EEFD08FCA03A68184E1
S214013E8483A6C184EF209066635E0526EFE05F9A01
S214013E9493050500B7A708009387070183A7870141
S214013EA46382A72683A7C19483A7870093972700D5
S214013EB4B387FD001306000003A5C706EFD01FF263
S214013EC483A7C19483A7870093972700B387FD0030
S214013ED483A7C70683A7070283A707002322F10047
S214013EE403270100B38CE74023240104232601049D
S214013EF423280104232A0104232C0104232E01046C
S214013F04B78730009389C71013098104938AC906B9
S214013F14138DC90093840A00130A09001384C71079
S214013F24930B0000130C10006FF01FE3938B090032
S214013F34138B0A00130A090093045000130C200083
S214013F446F004006138D0B0003A54B01832745051F
S214013F5403A7C7016358E0021304000083A7070000
S214013F6413172400B387E70003A50700EFC09FECEF
S214013F741304140003254D018327450503A7C70130
S214013F84E34EE4FCEFD09F916F00800283274A0141
S214013F94639E07029384F4FF130ACAFF130BCBFF35
S214013FA4938BCBFFE3449CFE83274A01E39C07F8EB
S214013FB49384F4FF9307F0FF638EF404130ACAFF95
S214013FC4130BCBFF938BCBFF6FF0DFFD130D0B00B1
S214013FD403258B008327450503A7C7016358E00221
S214013FE41304000083A7070013172400B387E70010
S214013FF403A50700EFC01FE41304140003258D0076
S2140140048327450503A7C701E34EE4FCEFD01F89C8
S2140140146FF05FF883A7C19483A78700939727005F
S214014024B387FD009305000003A5C706EFD05FB96B
S2140140341304000093042000130A60006F0080211B
S21401404483270900639E070013041400E30444D97C
S21401405493894900938A4A00130949006F00801F17
S2140140649305000003A54AFFEFD09FB56FF0DFFD6F
S2140140748327010003274100B38CE740130910008E
S2140140846FF09FD71394240083A7CD00B3878700CE
S21401409403A50700EFC01FDA83A7CD02B387870005
S2140140A403A50700EFC01FD983A7CD04B3878700F4
S2140140B403A50700EFC01FD89384F4FFE3D434FDAF
S2140140C46FF05FD91394240083A7CD00B3878700CC
S2140140D403A50700EFC05F8783A7CD02B3878700D8
S2140140E403A50700EFC05F8683A7CD04B3878700C7
S2140140F403A50700EFC05F8593841400E39499FC3D
S2140141046FF05FD5378430001304C410832584020E
S2140141149385F5FF1305C400EF001075832584020B
S2140141249385F5FF1305C402EF00107483258402FA
S2140141349385F5FF1305C404EF001073EFE04F8277
S21401414423840194A38401942385019483A7C194B1
S21401415403A6870083C50700373505001305057FC9
S214014164EF40902C03A5819AEFC00FFE03A5819919
S214014174EFC08FFD03A58198EFC00FFD0325C10392
S214014184EFC08FFC03250104EFC00FFC0325410497
S214014194EFC08FFBEFE08FDA630A0502832441093F
S2140141A4032901098329C108032A8108832A4108AE
S2140141B4032B0108832BC107032C8107832C41079A
S2140141C4032D0107832DC1066FE09FB23745050015
S2140141D413054585EF409037374505001305859748
S2140141E4EF40D03683244109032901098329C108F4
S2140141F4032A8108832A4108032B0108832BC1075C
S214014204032C8107832C4107032D0107832DC10647
S2140142146FE01FAE1304140093894900938A4A0081
S2140142241309490063D484006FF04F98832709006B
S214014234E38207FE9305000003A50900EFD05F980B
S2140142446FF05FFD1304140093894900938A4A00B2
S21401425413094900E3C684DE83270900E38407FEC5
S2140142649305000003A50900EFD09F956FF09FFD0D
S214014274130101FC232E1102232C8102232A91020D
S2140142842328210323263103232441032322510314
S21401429423206103232E7101232C8101232A9101FA
S2140142A4B7480500938488CDB7660500938686CD06
S2140142B4378430001304C410130B040B23220100AB
S2140142C41309100623202101938888CD1388868537
S2140142D4938786C513878605938686451306F00855
S2140142E49305400713050B00EFD00F89B776050039
S2140142F4938686CD930A4411930C100023229101D0
S214014304232021019388044013888685938786C5D4
S21401431413878605938686451306F0089305600A77
S21401432413850A00EFD04F85B7540500938484CDD6
S214014334B7860500938686CD130A84179307200053
S2140143442322F10023202101938804801388868583
S214014354938786C513878605938686451306F008D4
S2140143649305800D13050A00EFD00F81B79605005B
S214014374938686CD9309C41D930730002322F1004A
S214014384130C200623208101938884C5138886850F
S214014394938786C513878605938686451306F00894
S2140143A49305C03913850900EFC01FFDB7A60500A4
S2140143B4938686CD13090424930740002322F10033
S2140143C4232081019388840513888685938786C56F
S2140143D413878605938686451306F0089305A0364B
S2140143E413050900EFC05FF9B7B60500938686CDBD
S2140143F4930B442A930750002322F10023208101C2
S2140144049388844513888685938786C5138786058E
S214014414938686451306F0089305803313850B00AF
S214014424EFC09FF5EFE00FEE232064012322540131
S214014434232444012326340723282407232A740724
S214014444EFE00F9883A7C194238697013785300040
S21401445413058565EF00900A03A5819CEFC09F9D17
S2140144649306800213068002B78508009385856645
S214014474B784300013854463EF00C0551385446345
S214014484EF00407713854463EF005007B7C4050077
S214014494938484CD130850019307500113077002C7
S2140144A49306A011130610009385848513854197FE
S2140144B4EFC01FCE03A54197EFC00FC903A54197CF
S2140144C4EFC01FE013081002930720031307C00868
S2140144D49306B00413061000B78508009385459823
S2140144E413850197EFC0DFCA03A50197EFC0CFC5B7
S2140144F403A50197EFC0DFDC1308B0019307003C66
S2140145041307D00A9306000013061000B7B5070078
S214014514938545F01385C196EFC09FC703A5C19641
S214014524EFC08FC203A5C196EFC09FD91308500AE6
S214014534930740051307B0009306C028130610001E
S214014544B74507009385C52B13858196EFC05FC4D5
S21401455403A58196EFC04FBF03A58196EFC05FD632
S2140145641308C005930700071307800593069008F0
S21401457413061000B72506009385C55313850195C8
S214014584EFC01FC103A50195EFC00FBC03A501959C
S214014594EFC01FD3130880039307D0051307200821
S2140145A49306603013061000B77506009385C55B45
S2140145B413858195EFC0DFBD03A58195EFC0CFB804
S2140145C403A58195EFC0DFCF1308A001930720024E
S2140145D4130790099306A020130610009385C4BC04
S2140145E413854195EFC0DFBA03A54195EFC0CFB55A
S2140145F403A54195EFC0DFCC130840049307E010F0
S2140146041307D0019306D01513061000B7B506009C
S2140146149385C53413854196EFC09FB703A541968C
S214014624EFC08FB203A54196EFC09FC9130890054A
S2140146349307F0001307F005930600151306100000
S214014644B7B506009385C58D13850196EFC05FB493
S21401465403A50196EFC04FAF03A50196EFC05FC651
S214014664130890059307F0001307F00593069026A8
S21401467413061000B7A506009385C5E61385C195F4
S214014684EFC01FB103A5C195EFC00FAC03A5C1953B
S214014694EFC01FC3930C8430930790001307500197
S2140146A49306D0021306A0119385442B13850C00A0
S2140146B4EFB01FE113850C00EFB0DFFF930C8432DB
S2140146C49307700013070002930690091306A020AF
S2140146D49385044313850C00EFB09FDE13850C000D
S2140146E4EFB05FFD930C8434930740001307C002B8
S2140146F49306A0091306E0049385045F13850C0052
S214014704EFB01FDC13850C00EFB0DFFA930C843690
S21401471493073000130780139306D00A130600008C
S2140147249385047513850C00EFB09FD913850C008F
S214014734EFB05FF893048438930750001307E0152D
S2140147449306D00A13062026B71506009385057925
S21401475413850400EFB0DFD613850400EFB09FF590
S214014764B7D40500938484CD930C843A9307500000
S2140147741307C0089306200B1306C013938504EA97
S21401478413850C00EFB0DFD313850C00EFB09FF256
S214014794930C843C930760001307F0069306200BE2
S2140147A41306501F9385844113850C00EFB05FD127
S2140147B413850C00EFB01FF0B7E40500938484CD95
S2140147C4930C843E9307A000130720049306300439
S2140147D41306A0289385C49413850C00EFB05FCE0E
S2140147E413850C00EFB01FED930C844093078000F3
S2140147F4130760019306F0041306C02A938544E761
S21401480413850C00EFB0DFCB13850C00EFB09FEAE5
S214014814930C8442930780001307900193061006B5
S2140148241306C02A938544FD13850C00EFB05FC9B7
S21401483413850C00EFB01FE8930C844493078000A3
S2140148441307C001930630071306B02A938544164E
S21401485413850C00EFB0DFC613850C00EFB09FE59F
S214014864930C8446930780001307000293063008CE
S2140148741306A02A9385443213850C00EFB05FC457
S21401488413850C00EFB01FE3930C84489307800054
S21401489413073002930660091306A02A938544522F
S2140148A413850C00EFB0DFC113850C00EFB09FE059
S2140148B49304844A9307B000130700109306D001AB
S2140148C413064016B7F505009385457B138504004A
S2140148D4EFB01FBF13850400EFB0DFDD1304844C73
S2140148E49307D00013071006930610061306400913
S2140148F4B7150600938545DB13050400EFB05FBCCE
S21401490413050400EFB01FDB9305100013050B001D
S214014914EFD00FAB9305100013850A00EFD04FAA12
S2140149249305100013050A00EFD08FA99305100014
S21401493413850900EFD0CFA89305100013050900CD
S214014944EFD00FA89305100013850B00EFD04FA7E7
S21401495413050B00EFD08F8713850A00EFD00F875E
S21401496413050A00EFD08F8613850900EFD00F8652
S21401497413050900EFD08F8513850B00EFD00F8543
S21401498483A7C19483C7C700638C070013040C0074
S214014994EFE08FA883A7C19483C7C700E39A07FEF5
S2140149A48320C103032481038324410303290103D0
S2140149B48329C102032A8102832A4102032B0102AD
S2140149C4832BC101032C8101832C410113010104B2
S2140149D467800000130101FA232E1104232C81049D
S2140149E4232A910423282105232441052322510542
S2140149F4232A91032326B103930C0500232CB1002B
S214014A04930D0600138906002328D1009307003C62
S214014A1433E4C70233348000B3C7C7023304F40057
S214014A24232085029307000FB3E4D702B334900022
S214014A34B3C7D702B384F400232E95003305D602F8
S214014A4413152500EF30405923A2AC00130540008E
S214014A54EF30805823A4AC0013054000EF30C05754
S214014A6423A6AC0013054000EF30005723A8AC0082
S214014A7423AABC0123AC2C01232005003305940290
S214014A8413152500EF30405523A0AC00232E01005A
S214014A9423260100130A0000930A000063589012AB
S214014AA42326310523206105232E7103232C81033C
S214014AB42328A1036F00800E13054003EF30C05175
S214014AC413040500832781012322F50283270101AC
S214014AD4232AF5002328B50183A74C002324F502D5
S214014AE413054000EF30404F930B05002320A4002C
S214014AF413054000EF30404E130B05002322A4009B
S214014B0413058000EF30404D93090500232EA400C1
S214014B1413058000EF30404C130905002320A4023E
S214014B2413054000EF30404B232CA40023A0AB0117
S214014B34832741012320FB0023A0490123A2590115
S214014B442320490123225901232005008327C1007C
S214014B54B384F402B384840183A70C0093942400E1
S214014B64B387970023A08700130C1C0083A40C02B0
S214014B74330DBD01E3429CF48327C100138717005C
S214014B842326E1008327C10183260101B387D700C9
S214014B94232EF10083A7CC016350F70283A40C02F1
S214014BA48327C101232AF100130D0000130C000012
S214014BB4E34490F06FF05FFC8329C104032B0104E6
S214014BC4832BC103032C8103032D01038320C10519
S214014BD4032481058324410503290105032A81044D
S214014BE4832A4104832C4103832DC1021301010648
S214014BF467800000130101FF232611002322910080
S214014C0423202101930405008327C501130900000D
S214014C14635AF004232481006F008003B3872703BB
S214014C24B387870003A7040093972700B307F70009
S214014C3403A50700EFB05FD11304140083A7040291
S214014C44E34EF4FC1309190083A7C401635AF9005F
S214014C5483A7040213040000E342F0FC6FF09FFEF6
S214014C64032481008320C100832441000329010019
S214014C741301010167800000130101FF23261100BF
S214014C842322910023202101930405008327C501D3
S214014C9413090000635AF004232481006F00800383
S214014CA4B3872703B387870003A7040093972700D6
S214014CB4B307F70003A50700EFC0CF97130414004A
S214014CC483A70402E34EF4FC1309190083A7C40165
S214014CD4635AF90083A7040213040000E342F0FCBC
S214014CE46FF09FFE032481008320C10083244100CA
S214014CF4032901001301010167800000130101FE6D
S214014D04232E1100232A9100232631019304050042
S214014D148327C501930900006354F00C232C8100FA
S214014D24232821016F00400A1309190003A4040271
S214014D34635689083304340333042401131424000A
S214014D4483A70400B387870083A70700E38E07FCC5
S214014D5403A50700EF30002983A70400B387870063
S214014D6483A7070003A54700EF30C02783A70400E5
S214014D74B387870083A7070003A5C701EF30802602
S214014D8483A70400B387870083A7070003A5070248
S214014D94EF30402583A70400B387870083A7070065
S214014DA403A58701EF30002483A70400B387870097
S214014DB403A50700EF3000236FF01FF7938919004E
S214014DC483A7C40163DAF90003A4040213090000EB
S214014DD4E34280F66FF09FFE03248101032901015B
S214014DE403A50400EF30002003A54400EF30801F24
S214014DF403A58400EF30001F03A5C400EF30801E16
S214014E0403A50401EF30001E8320C1018324410160
S214014E148329C1001301010267800000130101FB0D
S214014E2423261104232481042322910423286103C5
S214014E342326710323248103232291032320A10320
S214014E44232EB10113040500138D0500930B0600F0
S214014E54938C0600130C0700138B0700930D0800B0
S214014E649384080013054000EF3000172322A400A2
S214014E7413054000EF3040162324A4001305400018
S214014E84EF3080152326A40023287401232A9401D5
S214014E94232C840123200500232E940013152C00B3
S214014EA4EF3080132320A4006356801923202105A4
S214014EB4232E3103232C4103232A5103B3879B0357
S214014EC4939717002326F10013090000130A000024
S214014ED4930A00009314290083290400B3899900D6
S214014EE413054003EF30400F23A0A90083270400D5
S214014EF4B387970083A7070023A2A7038327040089
S214014F04B387970083A7070023AA97018327040082
S214014F14B387970083A7070023A877018327040094
S214014F24B387970083A907000325C100EF30C00AA1
S214014F3423A4A90283270400B387970083A9070043
S214014F4413054000EF30400923A0A900832704007D
S214014F54B387970083A9070013054000EF30C00705
S214014F6423A2A90083270400B387970083A9070017
S214014F7413058000EF30400623AEA9008327040002
S214014F84B387970083A9070013058000EF30C00498
S214014F9423A0A90283270400B387970083A90700E7
S214014FA413054000EF30400323ACA9008327040017
S214014FB4B387970083A7070083A7070023A0670189
S214014FC483270400B387970083A7070083A74700B6
S214014FD423A0B70183270400B387970083A707009C
S214014FE483A7C70123A0470123A2570183270400EF
S214014FF4B387970083A7070083A7070223A0470167
S21401500423A2570183270400B387970083A70700C9
S21401501483A7870123A0070013091900330B7B011B
S214015024E31A2CEB032901048329C103032A810310
S214015034832A41038320C104032481048324410475
S214015044032B0103832BC102032C8102832C41020F
S214015054032D0102832DC1011301010567800000A0
S214015064232EB50067800000130101FF23261100DB
S214015074232291009304050063CC050223248100B6
S21401508423202101138405001309F0FF83A70400DC
S21401509413172400B387E70003A50700EFB09FD9D1
S2140150A41304F4FFE31424FF0324810003290100FD
S2140150B49305000013850400EFF09FFA8320C100D6
S2140150C4832441001301010167800000130101FEDE
S2140150D4232E1100232C8100130405008327850148
S2140150E46350F00E232A910023282101232631013F
S2140150F4130900009314290083270400B38797003B
S21401510483A7070003A58702EF20D06D8327040039
S214015114B387970083A9070013054000EF20D06BDF
S21401512423A0A900EF20106C83270400B3879700FF
S21401513483A9070013054000EF20106A23A2A900E3
S214015144EF20506A83270400B387970083A90700DA
S21401515413058000EF20506823AEA900EF20906865
S21401516483270400B387970083A9070013058000EB
S214015174EF20906623A0A902EF20D06683270400BF
S214015184B387970083A9070013054000EF20D06476
S21401519423ACA900EF20106583270400B38797008A
S2140151A403A50700EF20106413091900832784015F
S2140151B4E342F9F483244101032901018329C1004F
S2140151C403250400EF20106203254400EF209061BC
S2140151D403258400EF2010610325C400EF209060AE
S2140151E48320C101032481011301010267800000A9
S2140151F4130101FF23261100232481001304050053
S2140152048327050003A50700EF20D05D832704004C
S21401521403A54700EF20105D8327040003A5C701FB
S214015224EF20505C8327040003A50702EF20905B60
S2140152348327040003A58701EF20D05A832704009F
S21401524403A58702EF20105A03250401EF20905985
S21401525403254401EF20105903250400EF2090583C
S2140152648320C1000324810013010101678000002B
S2140152749307050013072003630AE50A634EA70490
S21401528413074001630AE50A6344A702630C050A8F
S2140152941307A0006318E50003A5018683A54186CC
S2140152A46780000003A5018A83A5418A6780000000
S2140152B41307E001630EE508130780026318E5008F
S2140152C403A5818783A5C1876780000003A5018A9A
S2140152D483A5418A67800000130700056300E5087B
S2140152E46346A7021307C0036300E50813076004B7
S2140152F46318E50003A5018983A541896780000039
S21401530403A5018A83A5418A678000001307A005C7
S21401531413050000930500006394E700678000000E
S21401532403A5018A83A5418A6780000003A5018835
S21401533483A541886780000003A5818683A5C1866D
S2140153446780000003A5818383A5C183678000006D
S21401535403A5018783A541876780000003A581898A
S21401536483A5C1896780000003A5818883A5C188B8
S214015374678000009307050013072003630EE50A00
S2140153846342A70613074001630EE50A6348A702B2
S2140153941305000093050000638807081307A0009F
S2140153A46398E70003A5818983A5C1896780000006
S2140153B403A5018A83A5418A678000001307E001DB
S2140153C46308E508130780026318E50003A501884E
S2140153D483A541886780000003A5018A83A5418AC5
S2140153E46780000013070005630AE5066346A70203
S2140153F41307C003630AE506130760046318E50090
S21401540403A5818683A5C1866780000003A5018A5A
S21401541483A5418A678000001307A0056318E50089
S21401542403A5818383A5C1836780000003A5018A40
S21401543483A5418A6780000003A5818783A5C18768
S2140154446780000003A5018983A541896780000060
S21401545403A5818883A5C1886780000003A501860A
S21401546483A541866780000003A5018783A541873C
S21401547467800000130101FD232611022324810203
S2140154842322910223202103232E3101232C4101BF
S214015494232A510123286101232671012324810132
S2140154A4232291012320A101130405001389050079
S2140154B4130D0600938B0600130B0700938A07004F
S2140154C4130A08009389080013054003EF20D0301F
S2140154D4930405002320A40013054000EF20D02FD9
S2140154E423A0A40013054000EF20102F23A2A4003C
S2140154F413058000EF20502E23AEA4001305800070
S214015504EF20902D23A0A40213054000EF20D02CF9
S21401551423ACA4009307400023A8F40023AAF400B4
S21401552423A2740313050002EF20102B23A4A40264
S21401553413058000EF20502A2328A40013058000B9
S214015544EF209029232AA40013050B0093850A0053
S214015554EF20500893040500EFF09FD1930C05004B
S214015564138C0500130605009386050037450500D0
S21401557413054599EF30406B13850400EFF09FDF68
S214015584930B050093840500130605009386050016
S214015594374505001305859AEF3000698327040013
S2140155A483A7070023A027018327040083A74700B6
S2140155B423A0A7018327040003ADC70103A6818A9C
S2140155C483A6C18A13050A0093850900EF10900289
S2140155D413860C0093060C00EF10D0012320AD00B7
S2140155E42322BD008327040083A7C70103A607005F
S2140155F483A64700374505001305C59BEF30C062F7
S2140156048327040003AC070213860B009386040069
S214015614B7070080B3C7370113050A00938507004F
S214015624EF10407D2320AC002322BC008327040016
S21401563483A7070203A6070083A64700374505008C
S2140156441305459EEF30405E8327040083A7870138
S2140156541307100023A0E7002324040023220400D8
S2140156648326040123A0660123A2560103274401CD
S2140156749306F0139307000063DA2601130909EC75
S2140156849307F013B3B72701938717002320470125
S214015694232237012326F4008320C1020324810236
S2140156A483244102032901028329C101032A8101BA
S2140156B4832A4101032B0101832BC100032C8100A2
S2140156C4832C4100032D01001301010367800000B0
S2140156D4130101FF232611002324810023229100B4
S2140156E423202101130405008327050083A4070052
S2140156F403A9C70103A50400EF20007603260900C9
S21401570483264900EF008040EF20C06C23A0A4004C
S2140157148327040083A4470003A9070203A5040002
S214015724EF2080730326090083264900EF00003E1C
S214015734EF20406A23A0A4008327040083A4070261
S21401574403A6018B83A6418B03A5040083A544000D
S214015754EF00C03B23A0A40023A2B40083270400C7
S21401576483A7070003A707009306F0139307000017
S21401577463DAE600130707EC9307F013B3B7E70001
S214015784938717002326F4008320C1000324810095
S21401579483244100032901001301010167800000ED
S2140157A48327050123A0B70023A2C7008327450149
S2140157B423A0D70023A2E70067800000130101FF9E
S2140157C4232611002324810013040500630E050219
S2140157D48327040003A70700032607009305460052
S2140157E483A7470083A607009386460083A70193F1
S2140157F463980702232204008320C1000324810046
S2140158041301010167800000374505001305C5A093
S214015814EF30C0536FF0DFFB83A70701E38C07FC6F
S21401582403A74700E3CAE6FE03A7C700E346D7FE7D
S21401583403A78700E342C7FE03A70700E3CEE5FC00
S2140158442322910037450500130585A2EF30005049
S214015854930710002322F4008327040083A4C701BE
S21401586403A6818B83A6C18B03A5040083A54400EC
S214015874EF10405823A0A40023A2B40083270400F9
S21401588483A6C70123A0A60023A2B600832704008B
S21401589483A4070203A6018C83A6418C03A50400F6
S2140158A483A54400EF10005523A0A40023A2B4004E
S2140158B48327040083A6070223A0A60023A2B6001A
S2140158C483A5019E9385150023A0B19E3745050047
S2140158D4130545A3EF304035832441006FF0DFF113
S2140158E4130101FB2326110423248104232291049A
S2140158F423202105232E3103232C4103232A51037C
S214015904232861032326710323248103232291037D
S2140159142320A103232EB101130B05002326C10066
S2140159241384050093040000130D8000B74D050091
S214015934930C30006F00000293850400B7470500FE
S214015944138547ABEF30402E9384140013044400B0
S2140159546384940B232481008327040003A747034D
