S00C00006D61696E2E7372656373
S21401009497E106009381415D1701FF03130141F6C1
S2140100A41385818C17C62E001306C6EC3306A640AC
S2140100B493050000EF70C06C177500001305C56644
S2140100C4EF60803CEF70405C13050000930541002F
S2140100D413060000EF00800E6F60403C37E5070012
S2140100E437E70700930745E6130747E6630AF70071
S2140100F49307000063860700130545E6678007003B
S2140101046780000037E50700930745E637E70700F1
S214010114930547E6B385F54093D7254093D5F50176
S214010124B385F50093D51540638A0500930700004F
S21401013463860700130545E66780070067800000AD
S214010144130101FF2324810083C78196232611000E
S21401015463940702EFF09FF893070000638A070091
S21401016437D507001305857797000000E7000000E0
S214010174930710002384F1968320C1000324810091
S21401018413010101678000009307000063860702DC
S21401019437D50700130101FF9385C19613058577AB
S2140101A42326110097000000E70000008320C10009
S2140101B4130101016FF01FF56FF0DFF4130101FD68
S2140101C423261102232481022322910223202103C0
S2140101D4232E3101EF204015EF105056EF20C06456
S2140101E413088002930700141307800C930600007B
S2140101F413060000B7390300938509D413850194C7
S214010204EF00906E13088002930700141307800C06
S214010214930600001306000037D9020093050994DB
S2140102241385C193EF00506C1308800293070014E2
S2140102341307800C9306000013060000B76402003F
S2140102449385045413858193EF00106A1308800282
S214010254930700141307800C93060000130600008E
S214010264370402009305041413854193EF00D06705
S21401027413088002930700141307800C93060014D6
S21401028413060000938509D413850193EF00D06506
S21401029413088002930700141307800C93060014B6
S2140102A413060000930509941385C192EF00D063E9
S2140102B413088002930700141307800C9306001496
S2140102C4130600009385045413858192EF00D061D0
S2140102D413088002930700141307800C9306001476
S2140102E4130600009305041413854192EF00D05FB2
S2140102F413088002930700141307800C9306002842
S21401030413060000938509D413850192EF00D05D8E
S21401031413088002930700141307800C9306002821
S21401032413060000930509941385C191EF00D05B71
S21401033413088002930700141307800C9306002801
S214010344130600009385045413858191EF00D05958
S21401035413088002930700141307800C93060028E1
S214010364130600009305041413854191EF00D0573A
S2140103741308D0079307A00F1307E0019306300272
S21401038413060000B795030093850514138581941D
S214010394EF0090559306800213068002B785040089
S2140103A493854556B7C42F00138504C6EF30803FA6
S2140103B4138504C6EF30006103A58194EF00404E17
S2140103C403A58194EF00506513088000930700018C
S2140103D4130700059306000513060000B70502007F
S2140103E4938505041305C100EF0010500325C100D1
S2140103F4EF00004BEF20D049130500008320C10213
S2140104040324810283244102032901028329C101B1
S2140104141301010367800000130101FC232E11025E
S214010424232C8102232A9102232821032326310324
S214010434232441032322510323206103232E710124
S214010444232C8101232A91012328A1012326B1010A
S21401045413040500938C0500930D0600138D060006
S214010464130B0700938B07003305F70213151500CA
S214010474EF608005130C050013054000EF60C0040F
S214010484930A05002322A40013054000EF60C0036D
S214010494130A05002324A40013058000EF60C0029C
S2140104A4930905002326A40013058000EF60C0010C
S2140104B4130905002328A40013054000EF60C000BB
S2140104C493040500232AA400232C6401232E74011B
S2140104D4930710002320F50023A0BA012320AA01C4
S2140104E4130700009307000023A0E90023A2F900E4
S2140104F42320E9002322F90013054003EF50D07CA2
S2140105042320A40023229503232A750123286501A9
S214010514232485032320550123224501232E350157
S21401052423202503232C95008320C1030324810360
S21401053483244103032901038329C102032A810277
S214010544832A4102032B0102832BC101032C81015F
S214010554832C4101032D0101832DC10013010104E4
S214010564678000006302050A130101FF23261100B8
S214010574232481002322910013040500130540015E
S214010584EF5090749304050063080506832744001E
S21401059403A7070023A0E40003278400832607009B
S2140105A423A2D40083A7070083268401B387D70038
S2140105B423A4F4008326C4019307900063C6D700DE
S2140105C49307A000232EF400832707000327C40102
S2140105D4B387E70023A6F40003A7818C23A8E400CD
S2140105E423A4918C8320C100032481008324410029
S2140105F41301010167800000379504001305451EA9
S214010604EF60D0436FF09FF867800000130101FF8D
S2140106142326110023248100130405000325050065
S214010624EF00002813050400EFF0DFF38320C10078
S214010634032481001301010167800000130101FFF7
S214010644232611002324810003A4818C630204045D
S21401065423229100232021019304000037990400EA
S214010664938504008327C40003278400832644005B
S214010674032604009384140013050920EF60D0298F
S21401068403240401E31E04FC83244100032901001E
S2140106948320C10003248100130101016780000047
S2140106A4130101FE232E110083A7818C638E070A92
S2140106B4232C8100232A910023282101232631019A
S2140106C413040500938405001309060093890600A4
S2140106D4130500006F00000283A6070123A4D18C32
S2140106E46F00000403A707011385070063060706C6
S2140106F49307070003A70700E31687FE03A747002F
S214010704E31297FE03A78700E31E27FD03A7C7008E
S214010714E31A37FDE30205FC03A707012328E500D6
S21401072413850700EF50105B138709009306090031
S2140107341386040093050400379504001305052267
S214010744EF60901D032481018324410103290101E3
S2140107548329C1006F00000203248101832441011F
S214010764032901018329C100379504001305C52413
S214010774EF60D02C8320C1011301010267800000C1
S214010784130101FF2326110023248100130405000D
S21401079403250500EF00805F8327440003A50700B7
S2140107A48327840083A507008326C40103268401C6
S2140107B4B386D5003306C500EFF09FEE8320C10053
S2140107C4032481001301010167800000630C050600
S2140107D4130101FF232611002324810013040500BD
S2140107E4EFF01FFA8327040003A58702EF50904E0B
S2140107F40325440063040500EF50D04D032584000F
S21401080463040500EF50104D0325C400630405007E
S214010814EF50504C0325040163040500EF50904B40
S2140108240325440163040500EF50D04A1305040070
S214010834EF50504A8320C1000324810013010101B3
S21401084467800000678000008327450113060000C7
S2140108549305F0FF634CF00267800000B387C7027C
S214010864B387E7008326850293971700B387F600BC
S2140108742390B7001307170083270501E340F7FE0B
S2140108841306160083274501635AF60083270501DC
S21401089413070000E344F0FC6FF09FFE678000003E
S2140108A4130101FE232E1100232C810013040500DD
S2140108B48327050083A707002324F5008327450023
S2140108C483A707002326F500EFF01FF8930710000F
S2140108D42326F402832744016352F04A232A910013
S2140108E423282101232631012324410123225101F6
S2140108F4130600001303000F1305003C1308F0FF52
S21401090493021000130EF013375F2600130FCF7EE9
S214010914B7FE1C00938ECE7E930420001309F027A5
S214010924B7FF1500938FCFFE6F0000428329440062
S21401093403AA0900330A460193194A00B3894941B7
S21401094493996900B386D90093961600B386DF009F
S2140109548399060083268402B387F6002390370121
S2140109648327440083A60700B306D6008329040020
S21401097493974600B387D7409397670083A60900E9
S214010984B306D700B387D70093971700B387FF0042
S2140109942390B7006F00C000638E590C638A9926B2
S2140109A41307170083270401635AF73883260400C4
S2140109B483A60600B306D700E364D5FEB387C70251
S2140109C4B387E7009397170083254402B385F500A0
S2140109D483950500E38605FD83A9018DE39E09FA47
S2140109E4E346DEF403AA418D8326C400B306D6008B
S2140109F49396960083298400B3093701B38636019A
S214010A0493961600B386460183D90600832684028C
S214010A14B387F600239037018327440083A7070092
S214010A24B307F600939797008326040083A606006F
S214010A34B306D700B387D70093971700B387E701A8
S214010A442390B7008327440083A70700B307F60063
S214010A54939797008326040083A60600B306D7005F
S214010A64B387D70093971700B387D7012390B700AE
S214010A746FF01FF3635ADE0A6342D91203AA418D4B
S214010A848326C400B306D60093969600938606EC96
S214010A9483298400B3093701B38636019396160079
S214010AA4B386460183D9060083268402B387F600FB
S214010AB4239037018327440083A70700B307F60072
S214010AC493979700938707EC8326040083A6060072
S214010AD4B306D700B387D70093971700B7562600F7
S214010AE49386C67EB387D7002390B7008327440036
S214010AF483A70700B307F60093979700938707EC3D
S214010B048326040083A60600B306D700B387D7005E
S214010B1493971700B7F61C009386C67EB387D70053
S214010B242390B7006FF0DFE737FA1500130ACAFE01
S214010B348329440083AA0900B30A560193994A00FB
S214010B44B389594193996900B386D90093961600DF
S214010B54B306DA008399060083268402B387F60077
S214010B64239037018327440083A60700B306D600E3
S214010B748329040093974600B387D7409397670069
S214010B8483A60900B306D700B387D7009397170047
S214010B94330AFA002310BA006FF09FE037FA150003
S214010BA4130ACAFE8329440083AA0900B30A56011C
S214010BB493994A00B389594193996900B386D90038
S214010BC493961600B306DA008399060083268402F8
S214010BD4B387F600239037018327440083A60700D2
S214010BE4B306D6008329040093974600B387D740FB
S214010BF49397670083A60900B306D700B387D70087
S214010C0493971700330AFA002310BA006FF05FD9DE
S214010C14635CD90A9309003CE38436D903AA418D5F
S214010C248326C400B306D60093969600938606D808
S214010C3483298400B3093701B386360193961600D7
S214010C44B386460183D9060083268402B387F60059
S214010C54239037018327440083A70700B307F600D0
S214010C6493979700938707D88326040083A60600E4
S214010C74B306D700B387D70093971700B756260055
S214010C849386C67EB387D7002390B7008327440094
S214010C9483A70700B307F60093979700938707D8AF
S214010CA48326040083A60600B306D700B387D700BD
S214010CB493971700B7F61C009386C67EB387D700B2
S214010CC42390B7006FF0DFCD37FA1500130ACAFE7A
S214010CD48329440083AA0900B30A560193994A005A
S214010CE4B389594193996900B386D900939616003E
S214010CF4B306DA008399060083268402B387F600D6
S214010D04239037018327440083A60700B306D60041
S214010D148329040093974600B387D74093976700C7
S214010D2483A60900B306D700B387D70093971700A5
S214010D34330AFA002310BA006FF09FC61306160092
S214010D44832744016352F6028327440083A70700DE
S214010D54B307F600E364F3FE83270401E350F0FED1
S214010D64130700006FF09FC4832441010329010186
S214010D748329C100032A8100832A41008320C101FB
S214010D840324810113010102678000000327C502C1
S214010D94930710006306F700232605026780000008
S214010DA4832745016354F028130101FF232681009C
S214010DB423249100232221012320310183A5018DBF
S214010DC413060000130F000F1308F0FF130310009F
S214010DD4930F20009308F013B75E2600938ECE7E01
S214010DE437FE1C00130ECE7E9303F0271304F03B4C
S214010DF4B7F215009382C2FE6F0000200329C500D6
S214010E043309260193164900B38626419396660054
S214010E14B386960093961600B386D2002390F60006
S214010E246F00C00063846508638CF513130717000D
S214010E3483270501635CF71AB387C702B387E70004
S214010E448326850293971700B387F60083970700D6
S214010E54E38E07FDE39805FC83248500B30497001D
S214010E64E3C604FCE3CC98F88326C500B306D60093
S214010E7493969600B386960093961600B386D6018B
S214010E842390F6008326C500B306D60093969600F3
S214010E9483248500B3049700B386960093961600C0
S214010EA4B386C6012390F6006FF05FF883248500AD
S214010EB4B304970063DA980463CC93068326C500CB
S214010EC4B306D60093969600938606ECB3869600F0
S214010ED493961600B386D6012390F6008326C500A2
S214010EE4B306D60093969600938606EC8324850073
S214010EF4B3049700B386960093961600B386C6018C
S214010F042390F6006FF09FF20329C50033092601EA
S214010F1493164900B386264193966600B3869600D7
S214010F2493961600B386D2002390F6006FF01FF056
S214010F3437F915008329C500B3093601939649008C
S214010F44B386364193966600B3869600939616004A
S214010F549304C9FEB386D4002390F6006FF01FED08
S214010F6483248500B304970063DA9304E34094EC86
S214010F748326C500B306D60093969600938606D8B4
S214010F84B386960093961600B386D6012390F60090
S214010F948326C500B306D60093969600938606D894
S214010FA483248500B3049700B386960093961600AF
S214010FB4B386C6012390F6006FF05FE737F9150094
S214010FC48329C500B309360193964900B386364191
S214010FD493966600B3869600939616009304C9FE0C
S214010FE4B386D4002390F6006FF05FE41306160070
S214010FF4832745016350F6028327C500B307F6002D
S214011004E366FFFE83270501E352F0FE13070000A3
S2140110146FF09FE20324C100832481000329410069
S2140110248329010013010101678000006780000025
S21401103493070500032785010325070063020506B8
S21401104403A7850103250700630C050403A707000E
S2140110548326070003A705000326070003A7050147
S2140110643307E6001305000063DCE60203A7070165
S214011074B386E6006356D60203A747008326070015
S21401108403A745000326070003A745013307E60027
S21401109463D8E60083A74701B386F6003325D60056
S2140110A467800000032705008327070083A6050041
S2140110B403A606009386570063D4C7009386B7FF3A
S2140110C42320D700032745008327070083A645006E
S2140110D403A606009386570063D4C7009386B7FF1A
S2140110E42320D70067800000130101FC232E110280
S2140110F4232C8102232A9102232821032326310348
S214011104232441032322510323206103232E710147
S214011114232C8101232A91012328A1012326B1012D
S21401112493040500938D0500930C0600138C0600AA
S214011134930B0700138B0700930A0800130540035B
S214011144EF5080381304050023A0A40033055B0385
S21401115413151500EF504037130D05001305400015
S214011164EF508036130A05002320A400130540001F
S214011174EF508035930905002322A400130580004F
S214011184EF50803413090500232EA40013058000B4
S214011194EF508033930405002320A4021305400076
S2140111A4EF508032232CA40023286401232A5401FF
S2140111B42322B4032324A4032320950123208A0194
S2140111C423A0790113070000930700002320E900F8
S2140111D42322F90023A0E40023A2F4008320C10300
S2140111E40324810383244103032901038329C102C0
S2140111F4032A8102832A4102032B0102832BC101A4
S214011204032C8101832C4101032D0101832DC1008F
S2140112141301010467800000630E0504130101FF36
S2140112242326110023248100130405000325050049
S214011234EF50402A03254400EF50C0290325C4017A
S214011244EF50402903250402EF50C02803258401EA
S214011254EF50402803258402EF50C02713050400ED
S214011264EF5040278320C1000324810013010101AC
S2140112746780000067800000130101FF2326110028
S214011284232481002322910093040500138405007E
S214011294130600009306000013850400930504005A
S2140112A4EF30D06363400502138504009305040000
S2140112B48320C1000324810083244100130101011A
S2140112C467800000B707008033C487006FF0DFFD36
S2140112D49357F54133C5A7003305F54067800000F1
S2140112E4130101FA232E1104232C8104232A9104C9
S2140112F423282105232631052324410523225105CC
S21401130423206105232E7103232C8103232A9103B1
S2140113142328A1032326B10313040500938405009F
S21401132413090600138D0600232AE100232CF1007D
S214011334232E0101938D080013050040EF50C018B9
S2140113442324A10013050040EF5000182326A10012
S21401135413050040EF5040172328A1001305004051
S214011364EF508016930C050013054000EF50C0158E
S214011374930B0500232EA40013054000EF50C01460
S214011384130B05002320A40213058000EF50C0139D
S214011394930A05002322A40213058000EF50C0120D
S2140113A4130A05002324A40213054000EF50C011BC
S2140113B4130C05002326A40213054000EF50C010A9
S2140113C493090500232EA40223280402232C0402D5
S2140113D4930700012320F404930700022322F40454
S2140113E413050002EF50400E1307F0139307000095
S2140113F463589700938704ECB337F7009387170075
S2140114042328A4042326F404930710002320FC00B5
S21401141423A09B0023202B01130700009307000041
S21401142423A0EA0023A2FA002320EA002322FA00DA
S2140114349307400623A0F900930710066382FD165E
S2140114449308A0001308D9FF938734001307A0005C
S214011454930620001306100093850189EF20407936
S21401146413054003EF504006930405002320A4000F
S2140114742322A50393090002232A35011309000137
S214011484232825012324950313054003EF50C003A5
S214011494130A05002322A400832741012322F5020F
S2140114A4232A350123282501832781002324F502D5
S2140114B413054003EF504001930A05002324A400BA
S2140114C4832781012322F502232A350123282501B6
S2140114D48327C1002324F50213054003EF40D07E81
S2140114E4930705002326A4000327C1012322E5024E
S2140114F4232A350123282501032701012324E50294
S2140115040325C40123A0A4008325040223A2B40056
S2140115140326440223AEC4008326840223A0D402F5
S2140115240327C40223ACE4002320AA002322BA0022
S214011534232ECA002320DA02232CEA0023A0AA00C1
S21401154423A2BA0023AECA0023A0DA0223ACEA001F
S21401155423A0A70023A2B70023AEC70023A0D70267
S21401156423ACE7008320C1050324810583244105B8
S214011574032901058329C104032A8104832A41041A
S214011584032B0104832BC103032C8103832C410306
S214011594032D0103832DC102130101066780000098
S2140115A49308A0001308D9FF938734001307A000FB
S2140115B4930620001306100093854189EF204063AB
S2140115C46FF01FEA130101FF232611002324810073
S2140115D413040500630005048327C40183A50700DB
S2140115E4032504043385A5008327040283A6070084
S2140115F483274404B386F60083A7818C6398070285
S214011604232C04028320C100032481001301010159
S21401161467800000379504001305C525EF50104276
S2140116246FF09FFB83A70701E38C07FC03A7470022
S214011634E3CAE6FE03A6C700E346D6FE03A6870072
S214011644E342B6FE03A60700E34EC5FC930710006B
S214011654232CF40283278402130600009306000059
S21401166423A0C70023A2D7008327040283264404A9
S2140116743307D74023A0E7006FF0DFF89307050090
S2140116840327C502032507006302050603A7850190
S21401169403250700630C050403A7C7018326070077
S2140116A403A705000326070003A705013307E60081
S2140116B41305000063DCE60203A70704B386E6000D
S2140116C46356D60203A707028326070003A745002D
S2140116D40326070003A745013307E60063D8E6009F
S2140116E483A74704B386F6003325D6006780000037
S2140116F40327C5018327070083A6050003A6060062
S2140117049386570063D4C7009386B7FF2320D70078
S214011714032705028327070083A6450003A60600C0
S2140117249386570063D4C7009386B7FF2320D70058
S21401173467800000130101FF232611008327450358
S2140117446386070213071000638CE7021307200061
S214011754638EE702130760006380E704379504008D
S21401176413058527EF50902D6F00C0000325050053
S214011774EFF0CFE18320C10013010101678000006F
S21401178403254500EFF08FE06FF0DFFE03258500AB
S214011794EFF0CFDF6FF01FFE0325C500EFF00FDF7C
S2140117A46FF05FFD6300050A130101FF2326110094
S2140117B42324810013040500EFF0DFF783270400D8
S2140117C403A58702EF4010518327440003A587022F
S2140117D4EF4050508327840003A58702EF40904FC3
S2140117E48327C40003A58702EF40D04E0325C40116
S2140117F463040500EF40104E03250402630405004C
S214011804EF40504D0325440263040500EF40904C1D
S2140118140325840263040500EF40D04B0325C4026C
S21401182463040500EF40104B0325C403630405005D
S214011834EF40504A8320C1000324810013010101B3
S2140118446780000067800000130101FF2326110052
S21401185423248100232291002320210193040500DF
S214011864130400001309800283A7040583A7070055
S214011874B387870003A50700EFF08F8213044400A3
S214011884E31424FF9305A00003A50405EF20805A62
S2140118948320C1000324810083244100032901001D
S2140118A41301010167800000130101FE232E1100BC
S2140118B4232C8100232A91002326310113040500D9
S2140118C48327050503A7C7016356E00293040000B6
S2140118D483A7070013972400B387E70003A507002F
S2140118E4EFF0CFCA938414008327040503A7C70126
S2140118F4E3C0E4FE03A747008327C40183A70700C8
S214011904938737002320F7008327040503A787005E
S2140119148327040283A707009387D7FF2320F700B2
S214011924930700001308A000032704051396270055
S21401193483260700B386C60083A6060083A5060091
S2140119440325470083260701B386D702032705002C
S2140119543307D70023A0E5008326040503A7060062
S2140119643307C700032707000327470083A686001B
S21401197483A606002320D70093871700E39607FB68
S2140119848327C40303A50700930740063345F502DE
S214011994EF40901BB7E7070003A687E683A6C7E6D2
S2140119A4EF305014EF401012930905006356A0045B
S2140119B42328210193040000130960006F00C0006E
S2140119C4938414006388990283270403E38A27FF18
S2140119D483274403E38627FF8327040583A7070099
S2140119E413972400B387E70003A50700EFE05FEB36
S2140119F46FF01FFD032901019385090003250405E2
S214011A04EF2040438320C101032481018324410143
S214011A148329C1001301010267800000130101FF3D
S214011A24232611002324810013040500638A050478
S214011A3483274403638A070413071000638CE704AF
S214011A4413072000638EE704130760006380E7062C
S214011A548327040363820706130710006384E706DB
S214011A64130720006386E706130760006388E7060A
S214011A748320C10003248100130101016780000053
S214011A84EFF09FE26FF0DFFA03250400EFF00FB0EA
S214011A946FF01FFC03254400EFF04FAF6FF05FFBC0
S214011AA403258400EFF08FAE6FF09FFA0325C40080
S214011AB4EFF0CFAD6FF0DFF903250400EFE05FDE52
S214011AC46FF01FFB03254400EFE09FDD6FF05FFA24
S214011AD403258400EFE0DFDC6FF09FF90325C400E3
S214011AE4EFE01FDC6FF0DFF8130101FF232611007E
S214011AF4232481002322210123203101930710008E
S214011B046388F50403244502032904008329440059
S214011B1403A6018283A64182130509009385090061
S214011B24EF30C06B6358050A03A7018283A741827D
S214011B342320E4002322F4008320C100032481002F
S214011B440329410083290100130101016780000074
S214011B5403244502032904008329440003A6818043
S214011B6483A6C1801305090093850900EF30005749
S214011B74635CA00003A7818083A7C1802320E400BF
S214011B842322F4006FF05FFB03A6018183A6418143
S214011B941305090093850900EF304064634205028A
S214011BA403A6818183A6C1811305090093850900D3
S214011BB4EF20804D2320A4002322B4006FF0DFF72A
S214011BC403A7018183A741812320E4002322F40093
S214011BD46FF09FF603A6818283A6C18213050900CE
S214011BE493850900EF30804F635CA00003A78182D0
S214011BF483A7C1822320E4002322F4006FF0DFF3DD
S214011C0403A6818183A6C181130509009385090072
S214011C14EF30D05A2320A4002322B4006FF0DFF162
S214011C24130101FE232E1100232C8100232A910087
S214011C342328210113040500630805262326310100
S214011C442324410193840500130906008327050311
S214011C54232AF502B7D7070083A5877813850400DE
S214011C64EF5090486306050083A7C1896390070671
S214011C7423AE0188930710002328F402930500007D
S214011C8413050400EFF05FE68329C401032A440226
S214011C9403A50900EF40406B03260A0083264A0089
S214011CA4EF20803EEF40006223A0A900832944026E
S214011CB403250900EF40406903A6090083A64900ED
S214011CC4EF20803CEF4000602320A900B7D707002F
S214011CD483A5C77813850400EF50104163060500F9
S214011CE483A7018A6390070623A0018A930720002D
S214011CF42328F4029305100013050400EFF0DFDE39
S214011D048329C401032A440203A50900EF40C063E2
S214011D1403260A0083264A00EF200037EF40805A44
S214011D2423A0A9008329440203250900EF40C061CA
S214011D3403A6090083A64900EF200035EF4080582A
S214011D442320A900B7D7070083A5077913850400C4
S214011D54EF50903963180500032784049307100095
S214011D6463DCE714B7D7070083A547791385040016
S214011D74EF509037631005028327440213060000D0
S214011D849306000023A0C70023A2D7001307100060
S214011D9423AEE188B7D7070083A5877913850400A6
S214011DA4EF5090346312051483274402130600008F
S214011DB49306000023A0C70023A2D7001307100030
S214011DC423A0E18A8329C100032A810083274402D0
S214011DD403A5070083A54700EF40C04E631E050018
S214011DE48324840203A5040083A54400EF40804DA8
S214011DF463120510232804028324840203A5040025
S214011E0483A54400EF40004C6316050E8327840324
S214011E14639A0710930760002328F402832484023C
S214011E2403A6818383A6C18303A5040083A5440076
S214011E34EF20802523A0A40023A2B4008324040257
S214011E440329840203A50400EF4000500326090079
S214011E5483264900EF204023EF40C04623A0A40078
S214011E648327C40103A707009306F0139307000012
S214011E7463DAE600130707EC9307F013B3B7E7003A
S214011E84938717002326F40413050400EFF08FF359
S214011E948320C10103248101832441010329010113
S214011EA41301010267800000379504001305C52558
S214011EB4EF50C0386FF09FF1930760002328F402B7
S214011EC48327840203A6018383A6418323A0C70034
S214011ED423A2D700232C04028327840493871700A4
S214011EE42324F4046FF01FE88329C100032A810028
S214011EF46FF0DFED03278403930710006308F700F0
S214011F04930760002328F4026FF05FF013070000C4
S214011F149307000023A0E40023A2F400232804026C
S214011F246FF0DFEE232404046FF09FF39307100091
S214011F3423AEF18823A0F18A6780000037F31500E9
S214011F441303C326B7980C009388C8FE37E8070026
S214011F541308C8FE374511001305C54E130E0000BD
S214011F64B78E0300938E0E40130705B013060800C0
S214011F749386080093070300938507D82320B700A8
S214011F8423A0F600938507282320B60013074700ED
S214011F94938727009386460013064600E31EA7FC94
S214011FA4130303789388085013080850130E0E3C45
S214011FB413050550E31ADEFB67800000B7481100DD
S214011FC49388C8FE930500281308000037E3010030
S214011FD4931718009386080003A7418D3307F7006B
S214011FE403A60600035707002310E600938727007D
S214011FF493864600E392B7FE938808501308082098
S21401200493850540E31668FC67800000B7980C00CA
S2140120149388C8FE930500281308000037E30100DF
S214012024931718009386080003A7418D3307F7001A
S21401203403A60600035707002310E600938727002C
S21401204493864600E392B7FE938808501308082047
S21401205493850540E31668FC67800000B7E807002F
S2140120649388C8FE930500281308000037E301008F
S214012074931718009386080003A7418D3307F700CA
S21401208403A60600035707002310E60093872700DC
S21401209493864600E392B7FE9388085013080820F7
S2140120A493850540E31668FC6780000093959500C8
S2140120B4B385A50093951500B75726009387C77E69
S2140120C4B387F5002390C700B7F71C009387C77E34
S2140120D4B385F5002390C50067800000130101FE57
S2140120E4232E1100232C8100232A91002328210169
S2140120F4232631012324410123225101374A1100A9
S214012104130ACAFEB7BA0400B30A5A011309000037
S2140121149309001493040A001304000083A704001F
S214012124039607009305090013050400EFF01FF852
S2140121341304140093844400E31234FF13091900B2
S214012144130A0A50E3185AFD8320C10103248101AE
S21401215483244101032901018329C100032A810043
S214012164832A41001301010267800000130101FE66
S214012174232E1100232C8100232A910023282101D8
S214012184232631012324410123225101379A0C00CD
S214012194130ACAFEB7BA0400B30A5A0113090000A7
S2140121A49309001493040A001304000083A704008F
S2140121B4039607009305090013050400EFF01FEFCB
S2140121C41304140093844400E31234FF1309190022
S2140121D4130A0A50E3185AFD8320C101032481011E
S2140121E483244101032901018329C100032A8100B3
S2140121F4832A41001301010267800000130101FED6
S214012204232E1100232C8100232A91002328210147
S21401221423263101232441012322510137EA0700F1
S214012224130ACAFEB7BA0400B30A5A011309000016
S2140122349309001493040A001304000083A70400FE
S214012244039607009305090013050400EFF01FE643
S2140122541304140093844400E31234FF1309190091
S214012264130A0A50E3185AFD8320C101032481018D
S21401227483244101032901018329C100032A810022
S214012284832A41001301010267800000130101FE45
S214012294232E1100232C8100232A910023282101B7
S2140122A423263101930400001309000F9309001437
S2140122B413040000130600009305040013850400AC
S2140122C4EFF0DFDE13041400E31624FF93841400F6
S2140122D4E39034FF8320C101032481018324410157
S2140122E4032901018329C10013010102678000004B
S2140122F4B73720FF1307100023A0E702B73720FFE4
S2140123049387C70283A7070093F71700638C070018
S214012314373720FF1307C7028327070093F71700F1
S214012324E39C07FE67800000130101FF23261100CA
S214012334232481002322910003A7418AB75726004C
S2140123449387C77E2322F700EFF09FFA83A7418A7B
S21401235483A7070023AAF18CEFF05FF303A7418A52
S214012364B7F71C009387C77E2322F700832747000D
S21401237423AAF18CEFF09FF18320C100032481008E
S214012384832441001301010167800000130101FF4A
S214012394232611003795040013058528EF40106A9B
S2140123A4379504001305452AEF40506903A3818A33
S2140123B483C6118E03C6018EB78800009305000FED
S2140123C4130EA0056F0080019306060013F6F70F9F
S2140123D423AEF18C23ACE18C638AB6008327030019
S2140123E433F71701E30607FE6FF01FFEE318C6FF77
S2140123F42380018EA380018E2381018E37950400EC
S2140124041305C52BEF4090638320C100130101011E
S21401241467800000130101FF2326110093000000CA
S21401242403AE818A83C6018E03C6118E930F000004
S2140124349302000093030000378300009305100005
S21401244413056001930EE001130F000F6F00800067
S2140124546308E60783270E0033F76700630E070059
S214012464930006001386060093F6F70F938F050074
S214012474938205009383050023AEF18C23ACE18C93
S214012484E388A6FCE398D6FDE316E6FD63860F0013
S2140124941307E0012380E18E638402002381118EF9
S2140124A463860300130700FFA380E18E37950400BB
S2140124B41305052EEF409058130510006F004003D6
S2140124C463860F00130760012380E18E6384020094
S2140124D42381118E63860300130700FFA380E18E18
S2140124E4379504001305C52CEF405055130500001D
S2140124F42380018EA380018E2381018E8320C10057
S2140125041301010167800000130101FF2326110056
S2140125149300000003AE818A83C6018E03C6118E22
S214012524930F00009302000093030000378300001A
S2140125349305100013056001930EE001130F000FBD
S2140125446F0080006308E60783270E0033F76700F1
S214012554630E0700930006001386060093F6F70F32
S214012564938F0500938205009383050023AEF18CB7
S21401257423ACE18CE388A6FCE398D6FDE316E6FDDE
S21401258463860F001307E0012380E18E6384020053
S2140125942381118E63860300130700FFA380E18E57
S2140125A4379504001305052EEF4050491305100016
S2140125B46F00400363860F00130760012380E18EDA
S2140125C4638402002381118E63860300130700FFD0
S2140125D4A380E18E379504001305452FEF4010467E
S2140125E4130500002380018EA380018E2381018EB2
S2140125F48320C100130101016780000083A7818A3B
S21401260483A7070023AEF18C3787000033F7E70072
S21401261423ACE18C13050000630C070203C7118E7B
S2140126242381E18E83C6018EA380D18E93F7F70FA3
S2140126342380F18E1306000E630EC7009307E00194
S214012644130500006316F7009307000F6384F60C66
S21401265467800000130750076384E6066362D702A7
S2140126649307B0066384F606930740076398F6005B
S214012674B7D7070003A5C778678000006780000006
S2140126841307000F639AE602130750076386E704ED
S214012694130720076388E7041307B0066386E70673
S2140126A41307400713050000E394E7FAB7D70700BA
S2140126B403A5877967800000130500006780000082
S2140126C4B7D7070003A5077967800000B7D70700C7
S2140126D403A5877867800000B7D7070003A5C779E5
S2140126E467800000130101FF2326110037950400BB
S2140126F413050531EF409034130500008320C10013
S2140127041301010167800000B7D7070003A54779C5
S21401271467800000B7D7070003A5077A6780000023
S21401272483A7818A83A7070023AEF18C378700002D
S21401273433F7E70023ACE18C130500006304070EAE
S21401274483C6118E2381D18E03C7018EA380E18EA9
S21401275493F7F70F2380F18E1306000E6380C602EB
S2140127649307900213050000639EF60A6302F70AB4
S2140127749307000F6304F70A678000009306400777
S214012784630CD70663FAE60293065007630AD70476
S2140127949306000F6312D704130750076384E706F2
S2140127A41307200713050000639EE706B7D7070043
S2140127B403A5877B678000009307B0066308F702CA
S2140127C4930720076318F700B7D7070003A5477BCD
S2140127D46780000067800000130500006780000022
S2140127E4B7D7070003A5C77A67800000B7D70700E5
S2140127F403A5877A67800000B7D7070003A5477A41
S21401280467800000B7D7070003A5077B6780000031
S214012814B7D7070003A5C77B67800000B7D70700B3
S21401282403A5077C6780000003A7418E9306100664
S2140128342300D70083A7418E23A2070023A4070001
S214012844238607006780000093060500938715001A
S21401285493854500130830001306700033E507031B
S214012864131725003387E60003270700032707030A
S2140128746316C70093871700E392B7FE67800000CC
S2140128841305900667800000130101FA232E110434
S214012894232C81042381018EA380018E2380018E43
S2140128A483A7418E03C7070093071006630CF70836
S2140128B4232A910303A50194EFD09FFE03A5019358
S2140128C4EFD01FFE03A50192EFD09FFD37950400BC
S2140128D413058553EF40901683A7418E03A6870000
S2140128E483C50700379504001305C543EF40D0029E
S2140128F4EFF05FB2930C05006306054403A4418E12
S2140129048325840037C52F0013058581EFF0DFF397
S2140129142324A400930710062300F400EFF05FF6C7
S21401292493050500379504001305C551EF40C07E95
S214012934832C41038320C105032481051301010669
S214012944678000002328A10303A50194EFD05FF557
S21401295403A50193EFD0DFF403A50192EFD05FF452
S214012964379504001305C542EF40500D83A7418EE9
S21401297403A6470083C50700379504001305C5431E
S214012984EF408079EFF01FA9130D05006316053497
S214012994232A9104232821052326310523244105CE
S2140129A42322510523206105232E7103232C810341
S2140129B4232A91032326B10303A58193EFD05FEE67
S2140129C403A58192EFD0DFED03A58191EFD05FEDF2
S2140129D43795040013054547EF4050069308000059
S2140129E41308E00D9307A00C130790019306E0006B
S2140129F413062000B79504009385C56937B52F00E3
S214012A041305C57EEF10C01E3795040013058549CE
S214012A14EF40D002232E0100B7DD070003AB01848B
S214012A2483AB418403AA018183AA418103A701815F
S214012A342324E10083A741812326F10003A981848D
S214012A4483A9C1846F000008B307F040232EF10068
S214012A54930C10006F00C00F37BC2F008327CC7E69
S214012A6413172400B387E70003A50700EFD05FE33D
S214012A7413041400E39484FE6F00801337BC2F0004
S214012A848327CC7E13172400B387E70003A507002A
S214012A94EFE0CFAF1304F4FFE35494FE6F0040114C
S214012AA4EFF0CFD6EFF08FE36F004001130710006D
S214012AB46388E714130720006388E71603A7018DCC
S214012AC423A6E18C0325C101EFE09F809307700CD8
S214012AD463C0A718EFF09FB29305050093878D781E
S214012AE483A787016386A71637B42F001304C47E11
S214012AF483A7418E83A7470093972700B307F40063
S214012B041306C10103A50702EFF08F9183A7418E37
S214012B1483A7470093972700B307F40093050000A3
S214012B2403A50702EFE09FEF83A7418E83A7470023
S214012B34939727003304F4008327040203A7C704EA
S214012B4423A8E18C8327C101930C0D00E3CE07EE85
S214012B540325C101EF30407F13060B0093860B005B
S214012B64EF10105F930405001384050013060A0092
S214012B7493860A00EF2080566356A00083248100C2
S214012B840324C10013060900938609001385040073
S214012B9493050400EF200075EF30C072930405001E
S214012BA4B7C72F0003A48780E348A4EAE34885EC6B
S214012BB49385040037B52F001305C57EEF108027D3
S214012BC463880C008327C101B307F040232EF1006C
S214012BD4EFF00FF283A7018DE39A07EC83A7C18C6C
S214012BE4E38E07EC13071000E38CE7EA13072000D3
S214012BF4E396E7ECEFF08FC6EFF04FCE6FF01FECE5
S214012C0483A7C18C638C070013072000E398E7EAC7
S214012C14EFF0CFC4EFF08FD56FF05FEAEFF00FBAA5
S214012C24EFF0CFD46FF09FE983A7C18C638C0700C4
S214012C3413071000E394E7E8EFF04FBDEFF00FDC65
S214012C446FF0DFE7EFF08FB7EFF04FDB6FF01FE7C2
S214012C5437B52F009307C57E83A5C7019385F5FF76
S214012C641305C57EEF10801DEFF04FAC2380018E57
S214012C74A380018E2381018E83A7418E03A647007C
S214012C8483C50700379504001305C54BEF40C048BC
S214012C9403A5C193EFD0DFC003A5C192EFD05FC0F7
S214012CA403A5C191EFD0DFBFEFF01F8663040506CD
S214012CB483244105032901058329C104032A8104C8
S214012CC4832A4104032B0104832BC103032C8103B0
S214012CD4832C4103832DC10203A4418E8325440022
S214012CE437C52F001305C580EFF01FB62322A400B5
S214012CF4930720062300F400EFF09FB89305050020
S214012D04379504001305C551EF400041032D010317
S214012D146FF05FC203A54193EFD09FB803A541921C
S214012D24EFD01FB803A54191EFD09FB737950400A4
S214012D341305C54FEF408050EFF09F9EEF400050C3
S214012D446FF09FFF232A91042328210523263105AA
S214012D54232441052322510523206105232E7103D3
S214012D64232C81032328A1032326B10303A58193DE
S214012D74EFD01FB303A58192EFD09FB203A5819133
S214012D84EFD01FB2232E0100B7DD070003AB018489
S214012D9483AB418403AA018183AA418103A70181EC
S214012DA42324E10083A741812326F10003A981841A
S214012DB483A9C1846F000008B307F040232EF100F5
S214012DC4130D10006F00C00F37BC2F008327CC7E75
S214012DD413172400B387E70003A50700EFD05FAC01
S214012DE413041400E39484FE6F00801337BC2F0091
S214012DF48327CC7E13172400B387E70003A50700B7
S214012E04EFD0DFF81304F4FFE35494FE6F0040118F
S214012E14EFF0CF9FEFF08FAC6F0040011307100067
S214012E246388E714130720006388E71603A7018D58
S214012E3423A6E18C0325C101EFE08FC99307700C2B
S214012E4463C0A718EFF08FFB9305050093878D7871
S214012E5483A787016386A71637B42F001304C47E9D
S214012E6483A7418E83A7870093972700B307F400AF
S214012E741306C10103A5C702EFE09FDA83A7418EBB
S214012E8483A7870093972700B307F40093050000F0
S214012E9403A5C702EFE09FB883A7418E83A78700E7
S214012EA4939727003304F4008327C40203A7C704B7
S214012EB423A8E18C8327C101138D0C00E3CE07EE12
S214012EC40325C101EF30404813060B0093860B001F
S214012ED4EF101028930405001384050013060A0056
S214012EE493860A00EF20801F6356A0008324810086
S214012EF40324C10013060900938609001385040000
S214012F0493050400EF20003EEF30C03B9304050018
S214012F14B7C72F0003A48780E348A4EAE34885ECF7
S214012F249385040037B52F001305C57EEF00907016
S214012F3463080D008327C101B307F040232EF10077
S214012F44EFF00FBB83A7018DE39A07EC83A7C18C2F
S214012F54E38E07EC13071000E38CE7EA130720005F
S214012F64E396E7ECEFF08F8FEFF04F976FF01FECDF
S214012F7483A7C18C638C070013072000E398E7EA54
S214012F84EFF0CF8DEFF08F9E6FF05FEAEFF00F83D7
S214012F94EFF0CF9D6FF09FE983A7C18C638C070088
S214012FA413071000E394E7E8EFF04F86EFF00FA560
S214012FB46FF0DFE7EFF08F80EFF04FA46FF01FE7BD
S214012FC437B52F009307C57E83A5C7019385F5FF03
S214012FD41305C57EEF009066EFE05FF52380018E52
S214012FE4A380018E2381018E83A7418E03A68700C9
S214012FF483C50700379504001305C54BEF40C01180
S21401300403A5C193EFD0DF8903A5C192EFD05F89F1
S21401301403A5C191EFD0DF88EFF00FCF6308050257
S21401302483244105032901058329C104032A810454
S214013034832A4104032B0104832BC103032C81033C
S214013044032D0103832DC1026FF05F8B37950400B6
S2140130541305C54FEF40801E3795040013058554AC
S214013064EF40C01D83244105032901058329C104BA
S214013074032A8104832A4104032B0104832BC103FD
S214013084032C8103032D0103832DC1026FF01F87D7
S214013094130101FD23261102232481022322910216
S2140130A423202103232E3101232C4101232A5101FC
S2140130B423286101232671012324810123229101FE
S2140130C4B79704009387C76937A904001309C96928
S2140130D437B42F001304C47E930A8403930810069E
S2140130E4138887039387874313078983930689C3C2
S2140130F41306F0089305400713850A00EFE04F9E78
S214013104B7B404009384C469130AC4089308100668
S214013114130889039307894313878483938684C397
S2140131241306F0089305600A13050A00EFE04F9BA7
S21401313437C904001309C9699309040E93081006D4
S214013144138884039387844313078983930689C367
S2140131541306F0089305800D13850900EFE04F98D8
S214013164B7D404009384C469130B4413930820064C
S214013174130889039307894313878483938684C337
S2140131841306F0089305C03913050B00EFE04F95BD
S21401319437E904001309C969930B841893082006B8
S2140131A4138884039387844313078983930689C307
S2140131B41306F0089305A03613850B00EFE04F9233
S2140131C4B7F404009384C469130CC41D9308200641
S2140131D4130889039307894313878483938684C3D7
S2140131E41306F0089305803313050C00EFE04F8FA8
S2140131F4EFF08FE3232054032322440323243403D0
S2140132042326640323287403232A8403EFF00F98E8
S21401321483A7418E130710002386E70037C52F00C6
S214013224130505C6EF00900A03A58194EFD01FB6D7
S2140132349306800213068002B7B5070093854548B6
S214013244B7CC2F001385CCC3EF00C0551385CCC370
S214013254EF0040771385CCC3EF00500713085001E5
S21401326493075001130770029306A011130610006A
S214013274938584031385C190EFD01FE703A5C190FE
S214013284EFD00FE203A5C190EFD01FF91308100287
S214013294930720031307C0089306B004130610000F
S2140132A4B7A507009385057A13858190EFD0DFE3F0
S2140132B403A58190EFD0CFDE03A58190EFD0DFF593
S2140132C41308B0019307003C1307D00A93060000C5
S2140132D413061000B7E50600938505D213854190C1
S2140132E4EFD09FE003A54190EFD08FDB03A541907B
S2140132F4EFD09FF21308500A930740051307B00056
S2140133049306C02813061000B77506009385850D2D
S21401331413850190EFD05FDD03A50190EFD04FD860
S21401332403A50190EFD05FEF1308C00593070007CC
S214013334130780059306900813061000B755050079
S214013344938585351385818EEFD01FDA03A5818E8B
S214013354EFD00FD503A5818EEFD01FEC13088003A1
S2140133649307D00513072008930660301306100050
S214013374B7A505009385853D1385018FEFD0DFD66C
S21401338403A5018FEFD0CFD103A5018FEFD0DFE8DE
S2140133941308A00193072002130790099306A0209F
S2140133A4130610009385C43A1385C18EEFD0DFD37C
S2140133B403A5C18EEFD0CFCE03A5C18EEFD0DFE536
S2140133C4130840049307E0101307D0019306D015A1
S2140133D413061000B7E50500938585161385C18F7E
S2140133E4EFD09FD003A5C18FEFD08FCB03A5C18F9C
S2140133F4EFD09FE2130890059307F0001307F0053A
S2140134049306001513061000B7D505009385856F3E
S2140134141385818FEFD05FCD03A5818FEFD04FC881
S21401342403A5818FEFD05FDF130890059307F000A3
S2140134341307F0059306902613061000B7D505006A
S214013444938585C81385418FEFD01FCA03A5418F85
S214013454EFD00FC503A5418FEFD01FDCB7040500DD
S2140134649384C469930C04239307900013075001B3
S2140134749306D0021306A011938544A913850C0064
S214013484EFC09FF913850C00EFD04F98930C0425D9
S2140134949307700013070002930690091306A020F1
S2140134A4938504C113850C00EFC01FF713850C0028
S2140134B4EFD0CF95930C0427930740001307C0025F
S2140134C49306A0091306E004938504DD13850C0016
S2140134D4EFC09FF413850C00EFD04F93930C04298F
S2140134E493073000130780139306D00A13060000CF
S2140134F4938504F313850C00EFC01FF213850C00AB
S214013504EFD0CF90930C042B930750001307E015CC
S2140135149306D00A13062026B74505009385C55A97
S21401352413850C00EFC05FEF13850C00EFD00F8EF0
S214013534930C042D930750001307C0089306200B21
S2140135441306C0139385046813850C00EFC0DFECE3
S21401355413850C00EFD08F8BB71405009384C469D0
S214013564930C042F930760001307F0069306200BB1
S2140135741306501F938584BF13850C00EFC0DFE943
S21401358413850C00EFD08F88930C04319307A000A9
S21401359413072004930630041306A0289385C41247
S2140135A413850C00EFC05FE713850C00EFD00F8680
S2140135B4930C043393078000130760019306F00409
S2140135C41306C02A9385446513850C00EFC0DFE417
S2140135D413850C00EFD08F83930C0435930780007A
S2140135E413079001930610061306C02A9385447B9D
S2140135F413850C00EFC05FE213850C00EFD00F813A
S214013604B72405009384C469930C04379307800098
S2140136141307C001930630071306B02A9385449412
S21401362413850C00EFC05FDF13850C00EFC01FFE8F
S214013634930C04399307800013070002930630089D
S2140136441306A02A938544B013850C00EFC0DFDC73
S21401365413850C00EFC09FFB930C043B930780007B
S21401366413073002930660091306A02A938544D0F3
S21401367413850C00EFC05FDA13850C00EFC01FF949
S2140136849304043D9307B000130700109306D0017A
S21401369413064016B72505009385055D13850400BA
S2140136A4EFC09FD713850400EFC05FF61304043FF1
S2140136B49307D00013071006930610061306400955
S2140136C4B7450500938505BD13050400EFC0DFD497
S2140136D413050400EFC09FF39305100013850A0039
S2140136E4EFE0CFB39305100013050A00EFE00FB324
S2140136F49305100013850900EFE04FB293051000FF
S21401370413050B00EFE08FB19305100013850B0032
S214013714EFE0CFB09305100013050C00EFE00FB0F7
S21401372413850A00EFE04F9213050A00EFE0CF91EC
S21401373413850900EFE04F9113050B00EFE0CF90DE
S21401374413850B00EFE04F9013050C00EFE0CF8FCD
S21401375483A7418E83C7C700638C0700130409003F
S214013764EFF08F9283A7418E83C7C700E39A07FEC3
S2140137748320C10203248102832441020329010216
S2140137848329C101032A8101832A4101032B0101F3
S214013794832BC100032C8100832C410013010103F8
S2140137A467800000130101FA232E1104232C8104DF
S2140137B4232A910423282105232441052322510584
S2140137C4232A91032326B103930C0500232CB1006D
S2140137D4930D0600138906002328D1009307003CA5
S2140137E433E4C70233348000B3C7C7023304F4009A
S2140137F4232085029307000FB3E4D702B334900065
S214013804B3C7D702B384F400232E95003305D6023A
S21401381413152500EF20504B23A2AC0013054000DE
S214013824EF20904A23A4AC0013054000EF20D049B2
S21401383423A6AC0013054000EF20104923A8AC00D2
S21401384423AABC0123AC2C012320050033059402D2
S21401385413152500EF20504723A0AC00232E0100AA
S21401386423260100130A0000930A000063589012ED
S2140138742326310523206105232E7103232C81037E
S2140138842328A1036F00800E13054003EF20D043C5
S21401389413040500832781012322F50283270101EE
S2140138A4232AF5002328B50183A74C002324F50217
S2140138B413054000EF205041930B05002320A4007C
S2140138C413054000EF205040130B05002322A400EB
S2140138D413058000EF20503F93090500232EA40012
S2140138E413058000EF20503E130905002320A4028F
S2140138F413054000EF20503D232CA40023A0AB0168
S214013904832741012320FB0023A0490123A2590157
S2140139142320490123225901232005008327C100BE
S214013924B384F402B384840183A70C009394240023
S214013934B387970023A08700130C1C0083A40C02F2
S214013944330DBD01E3429CF48327C100138717009E
S2140139542326E1008327C10183260101B387D7000B
S214013964232EF10083A7CC016350F70283A40C0233
S2140139748327C101232AF100130D0000130C000054
S214013984E34490F06FF05FFC8329C104032B010428
S214013994832BC103032C8103032D01038320C1055B
S2140139A4032481058324410503290105032A81048F
S2140139B4832A4104832C4103832DC102130101068A
S2140139C467800000130101FF2326110023229100C2
S2140139D423202101930405008327C5011309000050
S2140139E4635AF004232481006F008003B3872703FE
S2140139F4B387870003A7040093972700B307F7004C
S214013A0403A50700EFC0DFE91304140083A704022B
S214013A14E34EF4FC1309190083A7C401635AF900A1
S214013A2483A7040213040000E342F0FC6FF09FFE38
S214013A34032481008320C10083244100032901005B
S214013A441301010167800000130101FF2326110001
S214013A542322910023202101930405008327C50115
S214013A6413090000635AF004232481006F008003C5
S214013A74B3872703B387870003A704009397270018
S214013A84B307F70003A50700EFD04FB013041400E3
S214013A9483A70402E34EF4FC1309190083A7C401A7
S214013AA4635AF90083A7040213040000E342F0FCFE
S214013AB46FF09FFE032481008320C100832441000C
S214013AC4032901001301010167800000130101FEAF
S214013AD4232E1100232A9100232631019304050085
S214013AE48327C501930900006354F00C232C81003D
S214013AF4232821016F00400A1309190003A40402B4
S214013B04635689083304340333042401131424004C
S214013B1483A70400B387870083A70700E38E07FC07
S214013B2403A50700EF20101B83A70400B3878700B3
S214013B3483A7070003A54700EF20D01983A7040035
S214013B44B387870083A7070003A5C701EF20901852
S214013B5483A70400B387870083A7070003A507028A
S214013B64EF20501783A70400B387870083A70700B5
S214013B7403A58701EF20101683A70400B3878700E7
S214013B8403A50700EF2010156FF01FF7938919009E
S214013B9483A7C40163DAF90003A40402130900002D
S214013BA4E34280F66FF09FFE03248101032901019D
S214013BB403A50400EF20101203A54400EF20901182
S214013BC403A58400EF20101103A5C400EF20901074
S214013BD403A50401EF2010108320C10183244101B1
S214013BE48329C10013010102678000006780000079
S214013BF4130101FB232611042324810423229104A7
S214013C04232861032326710323248103232291039A
S214013C142320A103232EB10113040500138D0500EF
S214013C24930B0600938C0600130C0700138B0700F6
S214013C34930D08009384080013054000EF20D00874
S214013C442322A40013054000EF2010082324A40017
S214013C5413054000EF2050072326A40023287401EF
S214013C64232A9401232C840123200500232E940067
S214013C7413152C00EF2050052320A4006356801949
S214013C8423202105232E3103232C4103232A510308
S214013C94B3879B03939717002326F10013090000AB
S214013CA4130A0000930A00009314290083290400D0
S214013CB4B389990013054003EF20100123A0A9003E
S214013CC483270400B387970083A7070023A2A703CB
S214013CD483270400B387970083A7070023AA9701C5
S214013CE483270400B387970083A7070023A87701D7
S214013CF483270400B387970083A907000325C1001F
S214013D04EF20807C23A4A90283270400B3879700AD
S214013D1483A9070013054000EF20007B23A0A90018
S214013D2483270400B387970083A90700130540007F
S214013D34EF20807923A2A90083270400B387970084
S214013D4483A9070013058000EF20007823AEA9009D
S214013D5483270400B387970083A90700130580000F
S214013D64EF20807623A0A90283270400B387970057
S214013D7483A9070013054000EF20007523ACA900B2
S214013D8483270400B387970083A7070083A7070048
S214013D9423A0670183270400B387970083A707003E
S214013DA483A7470023A0B70183270400B38797009E
S214013DB483A7070083A7C70123A0470123A25701AE
S214013DC483270400B387970083A7070083A7070206
S214013DD423A0470123A2570183270400B387970032
S214013DE483A7070083A7870123A0070013091900E7
S214013DF4330B7B01E31A2CEB032901048329C1034A
S214013E04032A8103832A41038320C10403248104F2
S214013E1483244104032B0103832BC102032C810257
S214013E24832C4102032D0102832DC10113010105D7
S214013E3467800000232EB50067800000130101FF90
S214013E4423261100232291009304050063CC050266
S214013E542324810023202101138405001309F0FF84
S214013E6483A7040013172400B387E70003A50700FC
S214013E74EFC0DFF11304F4FFE31424FF03248100ED
S214013E84032901009305000013850400EFF09FFA4F
S214013E948320C100832441001301010167800000CF
S214013EA4130101FD232611022324810223229102F8
S214013EB423202103232E3101232C4101232A5101DE
S214013EC423286101232671012324810123229101E0
S214013ED49304050013890500130C0600938C060051
S214013EE413058001EF20405E1304050023A0A400FF
S214013EF413054000EF20405D930B05002320A4002A
S214013F0413054000EF20405C130B05002322A40098
S214013F1413058000EF20405B930A0500232EA400BE
S214013F2413058000EF20405A130A05002320A4023B
S214013F3413054000EF20405993090500232CA400E3
S214013F449307A0002328F400232AF40023229403D1
S214013F541305800CEF2040572324A4021305800088
S214013F64EF2080561304050023A8A400130580003F
S214013F74EF2080551307F0139307000063582701B9
S214013F84930709ECB337F7009387170023AAA40015
S214013F9423A02B0123208B011306000093060000A7
S214013FA423A0CA0023A2DA002320CA002322DA00AF
S214013FB41307100023A0E90023A4040023A204008D
S214013FC42320C4002322D4002320C5002322D500A5
S214013FD423A6F4008320C102032481028324410220
S214013FE4032901028329C101032A8101832A41018C
S214013FF4032B0101832BC100032C8100832C410078
S2140140041301010367800000130101FF2326110039
S21401401423248100130405008327050003A5070054
S214014024EF20404B8327040003A54700EF20804A76
S2140140348327040003A5C701EF20C0498327040092
S21401404403A50702EF2000498327040003A587017F
S214014054EF2040488327040003A58702EF2080470A
S21401406403250401EF20004703254401EF20804681
S21401407403250400EF2000468320C10003248100A9
S2140140841301010167800000B7071000130101FE48
S214014094938EF7FF33F8BE00B3F7DE0013D3460161
S2140140A42328210113D9450193973700232C810036
S2140140B41318380013D4F5011357D5019358D601B4
S2140140C41379F97F1373F37F232E1100232A9100AA
S2140140D42326310193D6F601B3E8F80033670701C6
S2140140E493153500131F3600B30769406304D41EC5
S2140140F46352F016630603289306F07F6306D942DB
S214014104930680031306100063CEF602B7068000FA
S214014114B3E8D8009306F00163CEF6529306000284
S214014124B386F6403396D8003355FF00B316DF0046
S2140141343366A600B336D000B3D8F8003366D6008B
S214014144330717413386C540B3B5C500930406004B
S214014154B309B7409397890063DA0732B70780003B
S2140141649387F7FFB3F9F9006388092C13850900CF
S214014174EF200029930785FF930600023387F64054
S21401418433D7E400B399F90033673701B394F400E5
S21401419463C8274BB387274193871700B386F64036
S2140141A43396D400B3D9F4003336C00033663601EF
S2140141B4B316D700B3E4C600B359F70013090000D9
S2140141C493F774006380070293F7F4001307400023
S2140141D4638AE7009387440033B69700B389C9001E
S2140141E4938407009397890063DA076E930719008F
S2140141F41307F07F130E04006386E72A370780FF50
S2140142041307F7FF33F7E90093F7F77F1318D7017E
S21401421413D63400131797003368C8001357C70022
S2140142248320C1010324810193974701B3E7E70083
S2140142341317FE01B3E7E7008324410103290101B3
S2140142448329C100130508009385070013010102A1
S21401425467800000638C0714B30723416312093C8B
S2140142643365B7006304054C1385F7FF63020560E5
S2140142741308F07F6386075793078003130610001D
S21401428463CCA702930705001306F001634CF656A8
S214014294130500023305F5403316A70033D8F5009D
S2140142A43395A500336606013335A0003357F7006E
S2140142B43366A600B388E8403306CF403337CF00D1
S2140142C493040600B389E840130903001384060027
S2140142D46FF05FE86350F01E63100314B3E6E80161
S2140142E4638C06269386F7FF638006481306F07FE1
S2140142F4638CC722930780039309100063CCD7020B
S214014304938706009306F00163C0F64A93060002FB
S214014314B386F640B399D8003356FF00B316DF00D0
S214014324B3E9C900B336D000B3D8F800B3E9D9006D
S21401433433071701B385B900B3B935019384050072
S214014344B389E9009397890063D207141309190006
S2140143549307F07F630CF936B70780FF9387F7FF5F
S21401436413F61400B3F7F90013D714003367C70024
S2140143741396F701B364E60093D917006FF05FE470
S214014384B3E6E801638A061C9386F7FF638006405A
S2140143941306F07F638AC718930780031306100079
S2140143A4E3C2D7DA938706006FF0DFD61308190045
S2140143B41378E87F631C08223363B70033E8E80107
S2140143C463100938630E034663060840B389E54162
S2140143D433B53501330617413306A6401315860057
S2140143E4635E0550B305BF403387E840333FBF00E3
S2140143F43307E7411316870093840500635E06526C
S214014404B70780FF9387F7FF3377F700138E06000D
S214014414930710006FF09FDF9306F07F6306D910B1
S2140144249306800393091000E3C6F6F0B7068000EE
S214014434B3E8D8006FF01FED13850400EF10507C2D
S214014444930785019306F001E3D8F6D2130785FF97
S2140144543397E40063C6272333892741930719005A
S21401446463D6F648130919FE93060002B3542701CE
S214014474638CD70093060004B387F6403317F7001E
S2140144843337E000B3E4E4001309000093F7740043
S214014494E39C07D29307090013D634001387090057
S2140144A46F00000C9307F07F130700001308000049
S2140144B46FF01FD7638A070CB30723416302091EF3
S2140144C49306F07F6308D3329306800393091000A2
S2140144D463CEF602B70680003367D7009306F00171
S2140144E463C8F63C93060002B386F640B319D700B8
S2140144F433D6F500B396D500B3E9C900B336D00078
S2140145043357F700B3E9D900B388E8003387E901E4
S214014514B339370193040700B3891901130903005A
S2140145246FF05FE263100802131635001356360067
S2140145341318D7013368C8001357370033670701C8
S21401454463060718130E00009307F07F3707080069
S214014554130800006FF0DFCC13163500135636002F
S2140145641318D7019306F07F3368C8001357370032
S214014574E386D7FC1317C7001357C70093F7F77FD3
S214014584130E04006FF0DFC99306190013F8E67FD3
S21401459463180814B366B700631C092863820630DF
S2140145A4B3E6E80163880622B387E501B3B5B7002D
S2140145B4330717013307B70013D83700931787005B
S2140145C4130E040063DE0734B70780FF9387F7FFF3
S2140145D43377F7009317D7011357370033E80701EA
S2140145E43377D701930710006FF09FC33388E541F3
S2140145F4B3B70501B3091741B389F9409397890005
S2140146049304080063C6071033683801E31E08B430
S214014614130E000093070000130700006FF05FC03D
S2140146241305F07F630EA31A130580031306100007
S214014634E344F5C8370680003367C7006FF0DFC46C
S214014644B70980FF9389F9FF3309F940B379370134
S2140146546FF01FB7938607FE13060002B3D6D80081
S214014664638AC70013060004B307F640B397F8003D
S214014674336FFF003336E0013366D6006FF09FAC2C
S214014684B70680FF9386F6FFB307F9403377D70062
S2140146941318D70133683801135737006FF09FEDAD
S2140146A4B366B7006386061E9386F7FF638E060A13
S2140146B41305F07F6380A714930780039309100002
S2140146C4E3C6D7E4938706006FF05FE1130E040098
S2140146D49307F07F13070000130800006FF05FB420
S2140146E49307F07FE384F6FE338FE501B335BF000D
S2140146F4B3071701B387B7001396F701135F1F00BB
S214014704B364E60193D91700138906006FF05FAB13
S2140147143306BF40B387E8403337CF00930406001F
S214014724B389E740138406006FF01FA413163600FE
S2140147341356360013840600138708006FF05FE2F1
S214014744E31203DE6306081C13D73800131636007B
S2140147549398D80133671701135636003367C70099
S214014764138406006FF0DFDD338FE501B30817010C
S214014774B335BF00B389B8009397890093040F003B
S21401478463D4070E130920006FF01FBD338FE54174
S214014794B3081741B3B5E50193040F00B389B840D4
S2140147A4130910006FF01F9B938607FE1306000281
S2140147B4B3D6D800638AC70013060004B307F640CD
S2140147C4B397F800336FFF00B339E001B3E9D900BA
S2140147D46FF05FB613163500935936006FF05FEB32
S2140147E41316360013563600138406001387080082
S2140147F46FF01FD4131636001356360013870800BD
S2140148046FF01FD3138507FE130600023355A70066
S214014814638AC70013060004B307F640B317F7000C
S214014824B3E5F5003336B0003366A6006FF0DFA8B3
S214014834E38206FC33EFE801E3160FD06FF0DFCE18
S214014844E30808DC131836009397D8011358380088
S21401485413D738003368F8003377D701138E060070
S214014864930700006FF0DF9B930710006FF0DFC221
S214014874B305BF40B388E8403337BF0093840500CF
S214014884B389E84013840600130910006FF09F8C67
S2140148941316360013563600138708006FF05FCCE4
S2140148A41316360093593600138708006FF05FDE3F
S2140148B4938607FE13060002B356D700638AC70021
S2140148C413060004B307F640B317F700B3E5F50083
S2140148D4B339B000B3E9D9006FF05FC313D634001F
S2140148E493070900138709006FF09FC79306000218
S2140148F4B386F640130600006FF05F8B33E8C900F9
S214014904E30808D093D93900130706006FF05FD87F
S214014914130E00009307F07F370708006FF05F90CF
S2140149249317D7011357370033E807013377D701B5
S214014934930700006FF0DF8E1318D70193D5350067
S2140149443368B80013573700138406006FF09FC20C
S214014954130101FD232E310193D94501232481023C
S2140149642322910223202103232C410123267101B2
S2140149749394C50023261102232A51012328610199
S2140149842324810193F9F97F13040500930B060090
S2140149941389060093D4C40013DAF501638A09184F
S2140149A49307F07F6388F908939434009357D501ED
S2140149B4B3E7970037078000B3EAE700131B350017
S2140149C4938919C093040000130C000093574901FE
S2140149D41314C90093F7F77F1354C4001359F9014C
S2140149E4638207081307F07F638AE71813143400F9
S2140149F413D7DB0133678700938717C0370480001A
S214014A043364870093983B00B389F940130600008A
S214014A141307F000B3462A0163649724B7C7070057
S214014A249394240093874710B384F40003A70400E7
S214014A3467000700B3EAA400639E0A1C9357490162
S214014A441314C90093F7F77F130B00009304800037
S214014A549309F07F130C20001354C4001359F90171
S214014A64E39207F8B36874016382081C630A044A74
S214014A7413050400EF10D01893070500930655FF9D
S214014A841307D001938887FF3307D74033141401E3
S214014A9433D7EB0033648700B3981B01B387370120
S214014AA49389373F130600006FF09FF63307F740EC
S214014AB413068003635AE64E9307000013060000AC
S214014AC4130700008320C102032481029397470140
S214014AD4B3E7C7009396F601B3E7D70083244102F0
S214014AE4032901028329C101032A8101832A410181
S214014AF4032B0101832BC100032C8100130507003E
S214014B049385070013010103678000009307F07F74
S214014B1413060000130700006FF0DFFA9306000087
S214014B249307F07F37060800130700006FF09FF91C
S214014B34B3EAA400638C0A10638804401385040056
S214014B44EF10100C13070500930655FF9307D001C9
S214014B54130B87FFB387D740B3946401B357F400AC
S214014B64B3EA9700331B64019309D0C0B389E940C3
S214014B7493040000130C00006FF05FE5B368740142
S214014B8493891980639C080A93E4240013040000A3
S214014B94130620006FF0DFE713090A0013840A00E6
S214014BA493080B00930720006308FC4E930730001C
S214014BB4E306FCF69307100093060900E30EFCEEE9
S214014BC49387F93F6356F02A13F778006316074A6A
S214014BD413177400635A0700B70700FF9387F7FF9C
S214014BE43374F400938709401307E07FE340F7F238
S214014BF493D838001317D40113169400336717019A
S214014C041356C60093F7F77F6FF0DFEB130C06001D
S214014C146FF05FF9938A0400130B05009304C00038
S214014C249309F07F130C30006FF05FDA93E41400FD
S214014C3413040000130610006FF09FDD93E43400A4
S214014C4493880B00130630006FF09FDC130B0000F3
S214014C549304400093090000130C10006FF01FD753
S214014C646364542B63808A2A13030B009389F9FF28
S214014C7493870A00130B00001317840013550701CA
S214014C8433D4A70213D688013366E6001318060147
S214014C94135808019395880013570301B3F7A70225
S214014CA4B308880293970701B367F70063FA1701FD
S214014CB4B307F6001307F4FF63F0C72E13040700C7
S214014CC4B3871741B3D8A702131703011357070174
S214014CD4B3F7A702B30F1803939707013367F700D7
S214014CE4637AF7013307E6009387F8FF637EC728E4
S214014CF49388070013140401B702010033641401F6
S214014D041383F2FFB3786400935E040113DE050196
S214014D1433F36500330F13033307F741B3081E0358
S214014D2493570F01B38F6E02B388F801B387170147
S214014D34B38ECE0363F4F701B38E5E00B70F0100A2
S214014D44938FFFFF93D80701B3F7F70193970701F2
S214014D54337FFF01B388D801B387E701636E171762
S214014D64630A1717B307FB4033071741333BFB00AE
S214014D74330767416300E62EB358A70293DE0701A3
S214014D843377A702330F18031317070133E7EE002F
S214014D94637EE7013307E600938EF8FF636AC72E46
S214014DA46378E72F9388E8FF3307C7003307E741A3
S214014DB4B35EA7029397070193D707013377A70238
S214014DC43308D80313170701B3E7E70063FE0701A7
S214014DD4B307F6001387FEFF63E8C72A63F6072BBB
S214014DE4938EEEFFB387C70093980801B3E8D80102
S214014DF41395080113DF080113550501B30E650267
S214014E04B38707413305AE0213D70E0133036F028E
S214014E14330565003307A700330EEE036376670098
S214014E2437050100330EAE00370801001308F8FFFA
S214014E34135507013377070113170701B3FE0E0154
S214014E443305C5013307D70163F2A712B307F6008A
S214014E541383F8FF1388070063E4C71C63E8A724D9
S214014E646386A7269308030093E818006FF05FD5BE
S214014E7413071000E39C07C29389E941B3973801ED
S214014E84B337F000B3193401B3E73701B3D8E800F8
S214014E94B3E8F80093F778003354E400638007021C
S214014EA493F7F80013074000638AE70093874800E6
S214014EB4B3B81701330414019388070093158400CB
S214014EC4930710001306000013070000E3CC05BE89
S214014ED46F004013E378FBE8B30EBB0033BF6E01EB
S214014EE4B30FCF003307F701138B0E00930FF4FFB4
S214014EF46374E60863621715638EE81213840F0061
S214014F046FF05FE6E3621BD713571B001393FA0196
S214014F1493D71A003363E300131BFB016FF0DFD54D
S214014F2413850B00EF10C04D930655011307C001FE
S214014F3493070502E356D7B4130585FF93080000CB
S214014F443394AB006FF09FB5EF10804B9306550179
S214014F549307C00113070502E3DAD7BE930785FF5B
S214014F64B31AF400130B00006FF01FC0E39EA7EE04
S214014F74E30807C46FF09FEDE312E6F8E30C0FF6BF
S214014F8413840F006FF01FDEE374F7D79388E8FFEE
S214014F943307C7006FF01FD6E3F217D31304E4FFF9
S214014FA4B387C7006FF0DFD11306F001E356E6ECD2
S214014FB4130610FEB307F64013060002B357F400B7
S214014FC46308C7009389E943B3193401B3E8380188
S214014FD4B3381001B3E8F80013F77800130600009D
S214014FE46308070293F7F800130740001304000050
S214014FF4638AE70093874800B3B817013334100176
S21401500493880700131694001317D4011356C60089
S21401501493D8380033E7E800930700006FF09FAA9F
S21401502493080300E312A8E4E30CB7B893E8180066
S2140150346FF01FB9E3F4FEECB38ED50133BFBE00A7
S214015044330FCF001304E4FF138B0E003307E7017D
S2140150546FF05FD1130720C09387F93F9308F0FFE1
S214015064E3C8E9E013874800B33817013304140191
S214015074930807006FF0DFB513F7F8001306400036
S214015084E308C7B46FF01FFE930E07006FF0DFD579
S21401509493880E006FF09FD1930609009307F07F63
S2140150A413060000130700006FF0DFA11393150029
S2140150B43338B3003308C800338807019388E8FF00
S2140150C493050300E302A8F66FF01FDAE3E0E5FEBA
S2140150D493080300E31CB7F46FF09FAE93D8450121
S2140150E4B70710009387F7FF13D7460193F8F87FA5
S2140150F4130EF07F33F3B70013080500930E050073
S214015104B3F7D70093D5F501130F06001375F77F90
S21401511493D6F6016388C8056304C503639A080633
S214015124336803016310050633E6C700630C0608FB
S2140151346312080A130510006382060867800000DC
S21401514433E6C70063140608639608003363030155
S214015154E30203FE6380D506639205061305100079
S214015164678000003363030163120306E31615FF29
S214015174B3E7C700639C0704E390D5FE130500005C
S21401518467800000E30808FAE398D5FC6F00800204
S214015194E30405FCE392D5FCE34015FD63CCA800CB
S2140151A4E3EC67FA6318F300E368DFFB130500001A
S2140151B4E3F6EEF913051000E39205F81305F0FF84
S2140151C467800000E31A08F8678000001305E0FF13
S2140151D467800000E386D5FC6FF01FF893D845017D
S2140151E4B70710009387F7FF13D7460193F8F87FA4
S2140151F41303F07F33FEB70013080500930E050072
S214015204B3F7D70093D5F501130F06001375F77F8F
S21401521493D6F601638A68046304650263980806F4
S21401522433680E01631E050833E6C7006304060AE5
S2140152346316080A130510006380060867800000D9
S21401524433E6C70013052000E31A06FE639608003A
S214015254336E0E01E3000EFE638CD504639E0504D3
S2140152641305100067800000336E0E0163100E06EE
S214015274E31615FFB3E7C70013052000E39007FC08
S214015284E39ED5FC1305000067800000E30805FCD7
S214015294E396D5FCE34415FD63CCA800E3E0C7FD23
S2140152A46318FE00E36CDFFB13050000E3F8EEF978
S2140152B413051000E39405F81305F0FF678000005A
S2140152C4E30A08F6E39CD5F86FF09FFE1305200069
S2140152D467800000E31408F867800000E380D5FCCB
S2140152E46FF0DFF7130101FD93D7450123248102F3
S2140152F42322910223202103232E3101232A510143
S2140153049394C50023261102232C4101232861010D
S214015314232671012324810193F7F77F13040500E3
S214015324930A06009389060093D4C40013D9F501A1
S214015334638407421307F07F6386E70A9396340073
S2140153441357D5013367D700B7068000B364D70077
S214015354131A3500138C17C0130B0000930B0000AF
S21401536493D749011397C90093F7F77F138F0A0060
S2140153741354C70093D9F9016380070A1307F07F12
S214015384638EE7141317340093D5DA01B3E5E50009
S214015394938717C03707800033E4E500139F3A006C
S2140153A4B3888701130300001307A00013851800B0
S2140153B4634C670BB3453901930720001388050036
S2140153C463C66715130BFBFF1307100063606717AB
S2140153D4630AF33C93040400130A0F00930B0300BF
S2140153E46F00C00933EAA40063180A3C93D7490145
S2140153F41397C90093F7F77F93040000130B8000FB
S214015404130CF07F930B2000138F0A001354C7006C
S21401541493D9F901E39407F6B36754016382073C11
S2140154246300044A13050400EF00907D9308050009
S214015434130755FF9307D001138F88FFB387E740FF
S214015444B3D7FA003317E40133E4E700339FEA01E4
S214015454B3081C419388D8C01307A00013030000A7
S21401546413851800E35867F5930509009307200090
S214015474638AFB3293073000638CFB489307100062
S21401548413880500639AFB46930700009306000001
S214015494130700008320C102032481029397470166
S2140154A4B3E7D7009316F801B3E7D7008324410284
S2140154B4032901028329C101032A8101832A4101A7
S2140154C4032B0101832BC100032C81001305070064
S2140154D493850700130101036780000033675401B5
S2140154E49308FC7F630A07303717000033483901F5
S2140154F413070780136B3B009306A000930508006F
S2140155043305EC0063C0663913033000130610003C
S2140155143316660113770653E31A07F493770624C2
S2140155246394073C137686086312062EB70F0100B0
S214015534938EFFFFB377DA0193560A01B37EDF0138
S214015544135E0F013387D7033383D60393550701BD
S2140155543306FE0233066600B385C500338FC603E1
S21401556463F46500330FFF01B70301001386F3FFED
S21401557433F3C500935F04013377C7003374C40063
S21401558413130301B38287023303E30093D50501A2
S2140155943387860213D60201B387FF02B387E70077
S2140155A43306F600B387F6036374E600B387770021
S2140155B4370901009309F9FF3377360193D30401C0
S2140155C4B3F63401B3F2320113170701B384DE02D2
S2140155D433075700135606013306F600B385E50074
S2140155E4B302DE0293D70401B38ED303B382D2018E
S2140155F4B3875700330E7E0263F4D701330E2E01B0
S214015604B7090100938EF9FFB3F2D70193D70701C7
S214015614B387C701B3FED401939202013309D402BE
S214015624B382D20133848302135E0901B386DF0297
S214015634B3868600330EDE00B38E7F0263748E005B
S214015644B38E3E01B70F0100938FFFFFB376FE01C1
S214015654939606013379F901B385E501B3862601EC
S2140156643386C60033B7E5003307E600338F5500AB
S214015674B307F700B335BF00B385B700B336D6001A
S2140156843336C700B3E6C60033B7E700135E0E0130
S214015694B3B7F500B386C6013367F70093179F00C7
S2140156A43307D700B3E767003307D701B337F000F2
S2140156B413567F011317970093D67501B3E7C700F6
S2140156C49395950033EAB70093177700B364D70030
S2140156D463D0070213571A0093771A009396F401BE
S2140156E4B367F70033EAD70093D414009308050090
S2140156F41386F83F6356C01293777A0063800702D5
S2140157049377FA0013074000638AE70013074A00F9
S214015714B3374701B384F400130A07009397740060
S21401572463DA0700B70700FF9387F7FFB3F4F400C3
S214015734138608409307E07F63C4C71C93573A0057
S2140157441397D401939694003367F70093D6C60053
S2140157549377F67F6FF01FD433EAA40063080A0632
S214015764638E041213850400EF00904913060500A6
S214015774930655FF1307D001930786FF3307D740D7
S2140157843357E400B396F400B364D700331AF40035
S2140157949307D0C0338CC740130B0000930B000053
S2140157A46FF01FBC138805009307F07F9306000073
S2140157B4130700006FF01FCE130A0500130BC00079
S2140157C4130CF07F930B30006FF09FB99304000025
S2140157D4130B4000130C0000930B10006FF05FB81E
S2140157E4136B1B0093080C0013040000130F000036
S2140157F4130310006FF05FBB136B2B001304000040
S214015804130F0000130320006FF01FBA9304040063
S214015814130A0F00930B0300938509006FF01FC54D
S21401582413071000631006109388E84133161A0113
S2140158343336C000B3981401B357EA003366160131
S2140158443366F60093777600B3D5E40063800702E7
S2140158549377F60013074000638AE7009307460030
S21401586433B6C700B385C5001386070013958500B4
S214015874930710009306000013070000E34C05C0CD
S2140158846F00C0101307F0006310EB12130800003A
S214015894B7060800130700006FF0DFBFEF005036AD
S2140158A4930655019307C00113060502E3D4D7EC0A
S2140158B4130585FF130A0000B314A4006FF05FED0F
S2140158C413850A00EF00D033130755019307C0016F
S2140158D493080502E3D0E7B6130585FF130F00000E
S2140158E43394AA006FF0DFB6130800009307F07F25
S2140158F4B70608006FF01FBA930805006FF05FDF64
S2140159049307F07F93060000130700006FF09FB81B
S214015914130800009307F07FB7060800130700007A
S2140159246FF05FB73307C74093078003E3CEE7B44E
S2140159349307F001E3DAE7EE930710FEB387C74057
S21401594493060002B3D7F4006308D7009388E843AC
S214015954B3981401336A1A01333640013366F600EC
