S00C00006D61696E2E7372656373
S21401009497B107009381C1431701FF03130141F68A
S2140100A41385019317962F00130646EA3306A640D6
S2140100B493050000EF80106617950000130505E010
S2140100C4EF70D035EF80905513050000930541007D
S2140100D413060000EF00800E6F70903537B50800E8
S2140100E437B708009307C5CC1307C7CC630AF700D4
S2140100F493070000638607001305C5CC67800700D5
S2140101046780000037B508009307C5CC37B70800E9
S2140101149305C7CCB385F54093D7254093D5F50110
S214010124B385F50093D51540638A0500930700004F
S214010134638607001305C5CC678007006780000047
S214010144130101FF2324810083C701A02326110084
S21401015463940702EFF09FF893070000638A070091
S21401016437A508001305055E97000000E7000000A8
S214010174930710002380F1A08320C100032481008B
S21401018413010101678000009307000063860702DC
S21401019437A50800130101FF938541A01305055EE9
S2140101A42326110097000000E70000008320C10009
S2140101B4130101016FF01FF56FF0DFF4130101FE67
S2140101C4232E1100232C8100232A910023282101A8
S2140101D423263101EF208038EF109079EF2090121A
S2140101E413088002930700141307800C930600007B
S2140101F413060000B7D90400938589D91385C19ADB
S214010204EF00107913088002930700141307800C7B
S21401021493060000130600003779040093058999B4
S2140102241385819AEF00D076130880029307001491
S2140102341307800C9306000013060000B70404009D
S214010244938584591385419AEF00907413088002AC
S214010254930700141307800C93060000130600008E
S21401026437A40300930584191385019AEF0050728D
S21401027413088002930700141307800C93060014D6
S21401028413060000938589D91385C199EF00507030
S21401029413088002930700141307800C93060014B6
S2140102A4130600009305899913858199EF00506E12
S2140102B413088002930700141307800C9306001496
S2140102C4130600009385845913854199EF00506CF9
S2140102D413088002930700141307800C9306001476
S2140102E4130600009305841913850199EF00506ADB
S2140102F413088002930700141307800C9306002842
S21401030413060000938589D91385C198EF005068B8
S21401031413088002930700141307800C9306002821
S214010324130600009305899913858198EF0050669A
S21401033413088002930700141307800C9306002801
S214010344130600009385845913854198EF00506481
S21401035413088002930700141307800C93060028E1
S214010364130600009305841913850198EF00506263
S214010374130880079307000A13070000930600007A
S2140103841306000037140200930584741385019C38
S214010394EF00106003A5019CEF00005B03A5019C20
S2140103A4EF001072130880079307000A1307000072
S2140103B49306000A13060000930584741385C19BF3
S2140103C4EF00105D03A5C19BEF00005803A5C19B78
S2140103D4EF00106F130880079307000A13078007BE
S2140103E49306000013060000930584741385819B0D
S2140103F4EF00105A03A5819BEF00005503A5819BCE
S214010404EF00106C130880079307000A1307800790
S2140104149306000A13060000930584741385419B12
S214010424EF00105703A5419BEF00005203A5419B23
S214010434EF0010691308D0089307100D1307E001A5
S2140104449306800313060000B7C502009385C5B55D
S2140104541385819CEF00D05303A5819CEF00C04E09
S21401046403A5819CEF00D065130810019307A0062D
S2140104741307800C9306B00613060000B7B50200F6
S214010484938585D41385419CEF00905003A5419C28
S214010494EF00804B03A5419CEF009062EF3090255E
S2140104A4130500008320C101032481018324410133
S2140104B4032901018329C100130101026780000099
S2140104C4130101FC232E1102232C8102232A9102FB
S2140104D42328210323263103232441032322510302
S2140104E423206103232E7101232C8101232A9101E8
S2140104F42328A1012326B10113040500938C0500CA
S214010504930D0600138D0600130B0700938B07004B
S2140105143305F70213151500EF704074130C05002C
S21401052413054000EF708073930A05002322A4008C
S21401053413054000EF708072130A05002324A400FB
S21401054413058000EF708071930905002326A4002B
S21401055413058000EF708070130905002328A4009A
S21401056413054000EF70806F93040500232AA4004E
S214010574232C6401232E7401930710002320F50015
S21401058423A0BA012320AA01130700009307000041
S21401059423A0E90023A2F9002320E9002322F9007D
S2140105A413054003EF70806B2320A40023229503D8
S2140105B4232A750123286501232485032320550155
S2140105C423224501232E350123202503232C9500C0
S2140105D48320C103032481038324410303290103E4
S2140105E48329C102032A8102832A4102032B0102C1
S2140105F4832BC101032C8101832C4101032D0101AD
S214010604832DC10013010104678000006302050AFB
S214010614130101FF232611002324810023229100C4
S2140106241304050013054001EF70406393040500AD
S214010634630805068327440003A7070023A0E400F4
S214010644032784008326070023A2D40083A7070078
S21401065483268401B387D70023A4F4008326C40128
S2140106649307900063C6D7009307A000232EF400D7
S214010674832707000327C401B387E70023A6F400F2
S21401068403A7019323A8E40023A891928320C10021
S21401069403248100832441001301010167800000C3
S2140106A43735050013058519EF8080326FF09FF802
S2140106B467800000130101FF232611002324810013
S2140106C41304050003250500EF00002813050400A4
S2140106D4EFF0DFF38320C10003248100130101013D
S2140106E467800000130101FF2326110023248100E3
S2140106F403A401936302040423229100232021010D
S2140107049304000037390500938504008327C40049
S21401071403278400832644000326040093841400DC
S2140107241305491BEF80801803240401E31E04FC0F
S21401073483244100032901008320C100032481008E
S2140107441301010167800000130101FE232E11002D
S21401075483A70193638E070A232C8100232A910021
S214010764232821012326310113040500938405005F
S2140107741309060093890600130500006F000002A2
S21401078483A6070123A8D1926F00000403A70701DB
S21401079413850700630607069307070003A70700E8
S2140107A4E31687FE03A74700E31297FE03A7870015
S2140107B4E31E27FD03A7C700E31A37FDE30205FC82
S2140107C403A707012328E50013850700EF70C04936
S2140107D41387090093060900138604009305040091
S2140107E4373505001305451DEF80400C03248101B0
S2140107F483244101032901018329C1006F000002FA
S2140108040324810183244101032901018329C100B1
S2140108143735050013050520EF80801B8320C101B1
S2140108241301010267800000130101FF2326110052
S214010834232481001304050003250500EF00805FCF
S2140108448327440003A507008327840083A50700A4
S2140108548326C40103268401B386D5003306C50066
S214010864EFF09FEE8320C1000324810013010101F0
S21401087467800000630C0506130101FF232611009F
S2140108842324810013040500EFF01FFA83270400D4
S21401089403A58702EF70403D032544006304050069
S2140108A4EF70803C0325840063040500EF70C03BB1
S2140108B40325C40063040500EF70003B032504010F
S2140108C463040500EF70403A032544016304050000
S2140108D4EF70803913050400EF7000398320C100DE
S2140108E40324810013010101678000006780000072
S2140108F483274501130600009305F0FF634CF002BD
S21401090467800000B387C702B387E70083268502A2
S21401091493971700B387F6002390B70013071700C1
S21401092483270501E340F7FE1306160083274501D6
S214010934635AF6008327050113070000E344F0FC1D
S2140109446FF09FFE67800000130101FE232E110045
S214010954232C8100130405008327050083A70700C1
S2140109642324F5008327450083A707002326F500E3
S214010974EFF01FF8930710002326F402832744019F
S2140109846352F04A232A91002328210123263101A8
S2140109942324410123225101130600001303000FEF
S2140109A41305003C1308F0FF93021000130EF01316
S2140109B4372F2700130FCF6EB7CE1D00938ECE6E42
S2140109C4930420001309F027B7CF1600938FCFEEB8
S2140109D46F0000428329440003AA0900330A460132
S2140109E493194A00B389494193996900B386D9009A
S2140109F493961600B386DF00839906008326840245
S214010A04B387F600239037018327440083A60700A3
S214010A14B306D6008329040093974600B387D740CC
S214010A249397670083A60900B306D700B387D70058
S214010A3493971700B387FF002390B7006F00C00099
S214010A44638E590C638A99261307170083270401BA
S214010A54635AF7388326040083A60600B306D70034
S214010A64E364D5FEB387C702B387E70093971700FD
S214010A7483254402B385F50083950500E38605FDC9
S214010A8483A98193E39E09FAE346DEF403AAC1939C
S214010A948326C400B306D600939696008329840061
S214010AA4B3093701B386360193961600B386460119
S214010AB483D9060083268402B387F6002390370180
S214010AC48327440083A70700B307F600939797008C
S214010AD48326040083A60600B306D700B387D7008F
S214010AE493971700B387E7012390B7008327440041
S214010AF483A70700B307F60093979700832604009D
S214010B0483A60600B306D700B387D70093971700CA
S214010B14B387D7012390B7006FF01FF3635ADE0A39
S214010B246342D91203AAC1938326C400B306D6002E
S214010B3493969600938606EC83298400B3093701BD
S214010B44B386360193961600B386460183D906000A
S214010B5483268402B387F600239037018327440053
S214010B6483A70700B307F60093979700938707ECCC
S214010B748326040083A60600B306D700B387D700EE
S214010B8493971700B72627009386C66EB387D700B8
S214010B942390B7008327440083A70700B307F60012
S214010BA493979700938707EC8326040083A6060091
S214010BB4B306D700B387D70093971700B7C61D00AF
S214010BC49386C66EB387D7002390B7006FF0DFE72E
S214010BD437CA1600130ACAEE8329440083AA0900F9
S214010BE4B30A560193994A00B38959419399690006
S214010BF4B386D90093961600B306DA0083990600E5
S214010C0483268402B387F6002390370183274400A2
S214010C1483A60700B306D6008329040093974600EB
S214010C24B387D7409397670083A60900B306D70016
S214010C34B387D70093971700330AFA002310BA0034
S214010C446FF09FE037CA1600130ACAEE83294400E0
S214010C5483AA0900B30A560193994A00B3895941F4
S214010C6493996900B386D90093961600B306DA0001
S214010C748399060083268402B387F60023903701FE
S214010C848327440083A60700B306D60083290400FD
S214010C9493974600B387D7409397670083A60900C6
S214010CA4B306D700B387D70093971700330AFA0021
S214010CB42310BA006FF05FD9635CD90A9309003C2C
S214010CC4E38436D903AAC1938326C400B306D600A7
S214010CD493969600938606D883298400B309370130
S214010CE4B386360193961600B386460183D9060069
S214010CF483268402B387F6002390370183274400B2
S214010D0483A70700B307F60093979700938707D83E
S214010D148326040083A60600B306D700B387D7004C
S214010D2493971700B72627009386C66EB387D70016
S214010D342390B7008327440083A70700B307F60070
S214010D4493979700938707D88326040083A6060003
S214010D54B306D700B387D70093971700B7C61D000D
S214010D649386C66EB387D7002390B7006FF0DFCDA6
S214010D7437CA1600130ACAEE8329440083AA090057
S214010D84B30A560193994A00B38959419399690064
S214010D94B386D90093961600B306DA008399060043
S214010DA483268402B387F600239037018327440001
S214010DB483A60700B306D60083290400939746004A
S214010DC4B387D7409397670083A60900B306D70075
S214010DD4B387D70093971700330AFA002310BA0093
S214010DE46FF09FC613061600832744016352F6026A
S214010DF48327440083A70700B307F600E364F3FEE2
S214010E0483270401E350F0FE130700006FF09FC42C
S214010E1483244101032901018329C100032A810096
S214010E24832A41008320C1010324810113010102A5
S214010E34678000000327C502930710006306F700C6
S214010E442326050267800000832745016354F028A2
S214010E54130101FF2326810023249100232221016B
S214010E642320310183A5819313060000130F000F7D
S214010E741308F0FF13031000930F20009308F013D8
S214010E84B72E2700938ECE6E37CE1D00130ECE6E70
S214010E949303F0271304F03BB7C216009382C2EE05
S214010EA46F0000200329C500330926019316490063
S214010EB4B386264193966600B386960093961600EB
S214010EC4B386D2002390F6006F00C00063846508E1
S214010ED4638CF5131307170083270501635CF71A60
S214010EE4B387C702B387E700832685029397170063
S214010EF4B387F60083970700E38E07FDE39805FCA6
S214010F0483248500B3049700E3C604FCE3CC98F875
S214010F148326C500B306D60093969600B38696003C
S214010F2493961600B386D6012390F6008326C50051
S214010F34B306D6009396960083248500B3049700DF
S214010F44B386960093961600B386C6012390F600E0
S214010F546FF05FF883248500B304970063DA98047E
S214010F6463CC93068326C500B306D60093969600F3
S214010F74938606ECB386960093961600B386D6013E
S214010F842390F6008326C500B306D60093969600F2
S214010F94938606EC83248500B3049700B3869600F3
S214010FA493961600B386C6012390F6006FF09FF25F
S214010FB40329C5003309260193164900B386264141
S214010FC493966600B386960093961600B386D2006F
S214010FD42390F6006FF01FF037C916008329C50069
S214010FE4B309360193964900B38636419396660053
S214010FF4B3869600939616009304C9EEB386D4007E
S2140110042390F6006FF01FED83248500B304970048
S21401101463DA9304E34094EC8326C500B306D60052
S21401102493969600938606D8B386960093961600F2
S214011034B386D6012390F6008326C500B306D600F0
S21401104493969600938606D883248500B304970066
S214011054B386960093961600B386C6012390F600CF
S2140110646FF05FE737C916008329C500B309360157
S21401107493964900B386364193966600B3869600E6
S214011084939616009304C9EEB386D4002390F60013
S2140110946FF05FE413061600832745016350F602DA
S2140110A48327C500B307F600E366FFFE8327050121
S2140110B4E352F0FE130700006FF09FE20324C10021
S2140110C483248100032941008329010013010101BE
S2140110D467800000678000009307050003278501E9
S2140110E4032507006302050603A7850103250700F8
S2140110F4630C050403A707008326070003A705005E
S2140111040326070003A705013307E60013050000BD
S21401111463DCE60203A70701B386E6006356D6023C
S21401112403A747008326070003A7450003260700F5
S21401113403A745013307E60063D8E60083A7470102
S214011144B386F6003325D600678000000327050022
S2140111548327070083A6050003A606009386570087
S21401116463D4C7009386B7FF2320D700032745001F
S2140111748327070083A6450003A606009386570027
S21401118463D4C7009386B7FF2320D7006780000087
S214011194130101FC232E1102232C8102232A91021E
S2140111A42328210323263103232441032322510325
S2140111B423206103232E7101232C8101232A91010B
S2140111C42328A1012326B10193040500938D05006C
S2140111D4930C0600138C0600930B0700138B070071
S2140111E4930A080013054003EF6050271304050013
S2140111F423A0A40033055B0313151500EF60102626
S214011204130D050013054000EF605025130A050071
S2140112142320A40013054000EF6050249309050021
S2140112242322A40013058000EF6050231309050050
S214011234232EA40013058000EF60502293040500BA
S2140112442320A40213054000EF605021232CA400A0
S21401125423286401232A54012322B4032324A40348
S2140112642320950123208A0123A079011307000076
S214011274930700002320E9002322F90023A0E400B9
S21401128423A2F4008320C10303248103832441039E
S214011294032901038329C102032A8102832A410205
S2140112A4032B0102832BC101032C8101832C4101F1
S2140112B4032D0101832DC100130101046780000081
S2140112C4630E0504130101FF232611002324810064
S2140112D41304050003250500EF60101903254400D7
S2140112E4EF6090180325C401EF601018032504026B
S2140112F4EF60901703258401EF601017032584021D
S214011304EF60901613050400EF6010168320C100E9
S2140113140324810013010101678000006780000037
S214011324130101FF232611002324810023229100A7
S21401133493040500138405001306000093060000B9
S2140113441385040093050400EF50805263400502A0
S21401135413850400930504008320C100032481003F
S214011364832441001301010167800000B707008050
S21401137433C487006FF0DFFD130101FA232E110435
S214011384232C8104232A91042328210523263105AD
S214011394232441052322510523206105232E7103AD
S2140113A4232C8103232A91032328A1032326B10393
S2140113B4130405009384050013090600138D060023
S2140113C42328E100232AF100232C0101232E1101F5
S2140113D4834D010613050040EF6050082320A10049
S2140113E413050040EF6090072322A1001305004077
S2140113F4EF60D0062324A10013050040EF60100619
S2140114042326A10013050040EF605005930C050048
S21401141413054000EF609004930B05002320A402FB
S21401142413054000EF609003130B05002322A4026A
S21401143413058000EF609002930A05002324A4029A
S21401144413058000EF609001130A05002326A40209
S21401145413054000EF609000130C05002328A40236
S21401146413054000EF60807F930905002320A40440
S214011474232A040293071000232CF404232E0402C7
S214011484930700012322F404930700022324F4049F
S21401149413050002EF60807C1307F0139307000026
S2140114A463589700938704ECB337F70093871700C4
S2140114B4232AA404032741062320E406232E040436
S2140114C42328F404930710002320FC0023A09B0088
S2140114D423202B01130700009307000023A0EA0032
S2140114E423A2FA002320EA002322FA0093074006E7
S2140114F423A0F90093071006638EFD189308A00035
S2140115041308D9FF938734001307A000930620001D
S214011514130610009385818FEF308058130540031E
S214011524EF60C073930405002320A4002322A503BF
S21401153493090002232A35011309000123282501F2
S2140115442324950313054003EF604071130A050035
S2140115542322A400832701012322F502232A35012D
S21401156423282501832701002324F50213054003BC
S214011574EF60C06E930A05002324A400832741016B
S2140115842322F502232A3501232825018327410036
S2140115942324F50213054003EF60406C130B05008A
S2140115A42326A400832781012322F502232A350159
S2140115B423282501832781002324F50213054003EC
S2140115C4EF60C0692328A4008327C1012322F50202
S2140115D4232A3501232825018327C1002324F50264
S2140115E48325040223A0B4000326440223A2C400D4
S2140115F48326840223AED4000327C40223A0E40274
S2140116048327040323ACF4002320BA002322CA0050
S214011614232EDA002320EA02232CFA0023A0BA00A0
S21401162423A2CA0023AEDA0023A0EA0223ACFA00FE
S2140116342320BB002322CB00232EDB002320EB0236
S214011644232CFB002320B5002322C500232ED5001E
S2140116542320E502232CF5008320C10503248105FC
S21401166483244105032901058329C104032A81042E
S214011674832A4104032B0104832BC103032C810316
S214011684832C4103032D0103832DC102130101069B
S214011694678000009308A0001308D9FF93873400DD
S2140116A41307A00093062000130610009385C18F2C
S2140116B4EF30003F6FF09FE6130101FF2326110070
S2140116C42324810013040500630005048327040210
S2140116D483A50700032544043385A5008327440214
S2140116E483A6070083278404B386F60083A70193A1
S2140116F463980702232E04028320C1000324810079
S2140117041301010167800000373505001305052123
S214011714EF70002C6FF09FFB83A70701E38C07FC97
S21401172403A74700E3CAE6FE03A6C700E346D6FEC0
S21401173403A68700E342B6FE03A60700E34EC5FCF4
S21401174493071000232EF4028327C4021306000015
S2140117549306000023A0C70023A2D70083274402D0
S214011764832684043307D74023A0E7006FF0DFF80D
S21401177493070500032705030325070063020506EF
S21401178403A7050303250700630C050403A7070243
S2140117948326070003A705020326070003A74504BB
S2140117A43307E6001305000063DCE60203A74704DB
S2140117B4B386E6006356D60203A7470283260700CC
S2140117C403A745020326070003A785043307E6009B
S2140117D463D8E60083A78704B386F6003325D600CC
S2140117E46780000093070500032705030325070008
S2140117F46302050603A7850103250700630C050498
S21401180403A707028326070003A70500032607008C
S21401181403A705013307E6001305000063DCE602AF
S21401182403A74704B386E6006356D60203A7470216
S2140118348326070003A745000326070003A74501DF
S2140118443307E60063D8E60083A78704B386F60069
S2140118543325D60067800000032705028327070087
S21401186483A6050003A606009386570063D4C70023
S2140118749386B7FF2320D700032745028327070053
S21401188483A6450003A606009386570063D4C700C3
S2140118949386B7FF2320D70067800000130101FF5A
S2140118A423261100032785039307700063E0E706E8
S2140118B493172700374705001307878FB387E70079
S2140118C483A707006780070003250500EFF08FD67E
S2140118D48320C10013010101678000000325450030
S2140118E4EFF04FD56FF0DFFE03258500EFF08FD4C0
S2140118F46FF01FFE0325C500EFF0CFD36FF05FFD39
S21401190403250501EFF00FD36FF09FFC3735050073
S2140119141305C522EF70C00B6FF09FFB6306050A23
S214011924130101FF2326110023248100130405005B
S214011934EFF0DFF68327040003A58702EF60C032C9
S2140119448327440003A58702EF60003283278400BF
S21401195403A58702EF6040318327C40003A58702ED
S214011964EF6080308327040103A58702EF60C02F50
S2140119740325040263040500EF60002F03254402D7
S21401198463040500EF60402E03258402630405000A
S214011994EF60802D0325C40263040500EF60C02CAC
S2140119A40325040363040500EF60002C03250404E7
S2140119B463040500EF60402B8320C10003248100EB
S2140119C4130101016780000067800000130101FF15
S2140119D423261100232481002322910023202101A0
S2140119E493040500130400001309800283A7440529
S2140119F483A70700B387870003A50700EFE0DFF49A
S214011A0413044400E31424FF9305A00003A544052E
S214011A14EF30402D8320C10003248100832441003C
S214011A24032901001301010167800000130101FE6F
S214011A34232E1100232C8100232A9100232821011F
S214011A44130405008327450503A7C7016356E0026F
S214011A549304000083A7070013972400B387E700C5
S214011A6403A50700EFF00FBD9384140083274405F4
S214011A7403A7C701E3C0E4FE03A7470083270402C4
S214011A8483A70700938737002320F700832744059D
S214011A9403A787008327440283A707009387D7FFFA
S214011AA42320F700930700001308A000032744052A
S214011AB41396270083260700B386C60083A606006E
S214011AC483A506000325470083260701B386D702AC
S214011AD4032705003307D70023A0E5008326440522
S214011AE403A706003307C700032707000327470099
S214011AF483A6860083A606002320D70093871700B3
S214011B04E39607FB8327040403A50700930740060F
S214011B143345F502EF50907CB7B7080003A607CD0E
S214011B2483A647CDEF405075EF5010731309050097
S214011B346356A006232631012324410123225101A1
S214011B449304000093096000130A1000930A7000BE
S214011B546F00C00093841400630C990203274403A6
S214011B64E30A37FF832784039387A7FFE374FAFE08
S214011B74E30257FF8327440583A70700139724002E
S214011B84B387E70003A50700EFE01FDC6FF09FFCB7
S214011B948329C100032A8100832A41009305090091
S214011BA403254405EF3000148320C1010324810179
S214011BB48324410103290101130101026780000006
S214011BC4130101FF232611002324810013040500B9
S214011BD463840502032784039307700063E6E70220
S214011BE4931727003747050013078791B387E70044
S214011BF483A7070067800700EFF05FE36FF09FFDA0
S214011C0403250400EFF00FA3032744039307700092
S214011C1463EAE704931727003747050013078793FA
S214011C24B387E70083A707006780070003254400FE
S214011C34EFF04FA06FF05FFD03258400EFF08F9F58
S214011C446FF09FFC0325C400EFF0CF9E6FF0DFFB1F
S214011C5403250401EFF00F9E6FF01FFB032504001C
S214011C64EFE09FCE8320C10003248100130101010C
S214011C746780000003254400EFE01FCD6FF09FFE50
S214011C8403258400EFE05FCC6FF0DFFD0325C4007D
S214011C94EFE09FCB6FF01FFD03250401EFE0DFCAE1
S214011CA46FF05FFC130101FF23261100232481003A
S214011CB42322210123203101930710006388F504B0
S214011CC403248502032904008329440003A6018210
S214011CD483A641821305090093850900EF40504904
S214011CE46358050A03A7018283A741822320E400DF
S214011CF42322F4008320C100032481000329410028
S214011D048329010013010101678000000324850271
S214011D14032904008329440003A6818083A6C18085
S214011D241305090093850900EF409034635CA00015
S214011D3403A7818083A7C1802320E4002322F40023
S214011D446FF05FFB03A6018183A641811305090099
S214011D5493850900EF40D041635C050003A7018128
S214011D6483A741812320E4002322F4006FF09FF827
S214011D7403A6818183A6C181130509009385090001
S214011D84EF3010212320A4002322B4006FF09FF625
S214011D9403A6818283A6C1821305090093850900DF
S214011DA4EF40102D635CA00003A7818283A7C18244
S214011DB42320E4002322F4006FF0DFF303A68181DD
S214011DC483A6C1811305090093850900EF504038A5
S214011DD42320A4002322B4006FF0DFF1130101FED7
S214011DE4232E1100232C8100232A9100232821016C
S214011DF4130405006302052023263101232441012F
S214011E042322510193840500130906008327450301
S214011E14232CF502B7A7080083A5075F13850400E2
S214011E24EF70C0256306050083A7419063900706FB
S214011E3423A2019093091000232A3403930500007A
S214011E4413050400EFF01FE6032A0402832A840222
S214011E5403250A00EF50904803A60A0083A64A0009
S214011E64EF301013EF50503F2320AA00832784023B
S214011E7403A5070083A54700EF50103E83270900FA
S214011E84B387A7002320F900232C3405B7A708003D
S214011E9483A5475F13850400EF70401E63060500A3
S214011EA483A781906390070623A4019093092000D9
S214011EB4232A34039305100013050400EFF09FDE74
S214011EC4032A0402832A840203250A00EF501041E0
S214011ED403A60A0083A64A00EF30900BEF50D037D2
S214011EE42320AA008327840203A5070083A54700AD
S214011EF4EF50903683270900B387A7002320F90003
S214011F04232C3405B7A7080083A5875F138504002F
S214011F14EF70C016631805000327C4049307100066
S214011F2463D4E70EB7A7080083A5C75F138504002B
S214011F34EF70C014631005028327840213060000A1
S214011F449306000023A0C70023A2D700130710009E
S214011F5423A2E190B7A7080083A5076013850400B0
S214011F64EF70C011631C050E83278402130600005C
S214011F749306000023A0C70023A2D700130710006E
S214011F8423A4E1908329C100032A8100832A410006
S214011F948327840203A5070083A54700EF50D02BAF
S214011FA4631E05008324C40203A5040083A544001C
S214011FB4EF50902A631C050A232A04028324C402D0
S214011FC403A5040083A54400EF5010296310050AF5
S214011FD48327C403639E070A832784051307200007
S214011FE4638EE70C13071000639EE70C93076000EB
S214011FF4232AF4026F00000D373505001305052169
S214012004EF60101D6FF0DFF88327840513072000A7
S214012014638AE70213071000638CE7028327C4026E
S21401202403A6018283A6418223A0C70023A2D70068
S214012034232E04028327C404938717002326F4045B
S2140120446FF05FEE93077000232AF4026FF01FFD12
S21401205493076000232AF4026FF05FFC8329C10012
S214012064032A8100832A41006FF09FF28327C40369
S214012074130710006382E7020327840593062000F2
S2140120846308D702930610006304D70C638C070217
S214012094232604046F00400713070000930700007B
S2140120A423A0E40023A2F400232A04026FF05FF2C3
S2140120B413077000232AE402E39C07FC93077000CD
S2140120C4232AF4028324C40203A6018383A641833C
S2140120D403A5040083A54400EF30806B23A0A4006D
S2140120E423A2B400832444020329C40203A50400E2
S2140120F4EF50D01E0326090083264900EF304069BD
S214012104EF50901523A0A4008327040203A7070019
S2140121149306F0139307000063DAE600130707EC4F
S2140121249307F013B3B7E700938717002328F40443
S21401213413050400EFF04FD88320C1010324810165
S2140121448324410103290101130101026780000070
S21401215413076000232AE402E38A07E86FF05FF3BB
S2140121649307100023A2F19023A4F1906780000046
S21401217437C316001303C316B7680D009388C8EE59
S21401218437B808001308C8EE371512001305C53E04
S214012194130E0000B78E0300938E0E40130705B08E
S2140121A4130608009386080093070300938507D84F
S2140121B42320B70023A0F600938507282320B60022
S2140121C413074700938727009386460013064600A5
S2140121D4E31EA7FC130303789388085013080850DA
S2140121E4130E0E3C13050550E31ADEFB6780000050
S2140121F4B71812009388C8EE930500281308000048
S21401220437E30100931718009386080003A7C193C8
S2140122143307F70003A60600035707002310E6005A
S2140122249387270093864600E392B7FE9388085067
S2140122341308082093850540E31668FC67800000B0
S214012244B7680D009388C8EE9305002813080000AC
S21401225437E30100931718009386080003A7C19378
S2140122643307F70003A60600035707002310E6000A
S2140122749387270093864600E392B7FE9388085017
S2140122841308082093850540E31668FC6780000060
S214012294B7B808009388C8EE930500281308000011
S2140122A437E30100931718009386080003A7C19328
S2140122B43307F70003A60600035707002310E600BA
S2140122C49387270093864600E392B7FE93880850C7
S2140122D41308082093850540E31668FC6780000010
S2140122E493959500B385A50093951500B727270008
S2140122F49387C76EB387F5002390C700B7C71D0041
S2140123049387C76EB385F5002390C50067800000E8
S214012314130101FE232E1100232C8100232A910090
S214012324232821012326310123244101232251019B
S214012334371A1200130ACAEEB7BA0400B30A5A01CE
S214012344130900009309001493040A0013040000FF
S21401235483A70400039607009305090013050400E8
S214012364EFF01FF81304140093844400E31234FFBF
S21401237413091900130A0A50E3185AFD8320C101F0
S2140123840324810183244101032901018329C10016
S214012394032A8100832A4100130101026780000099
S2140123A4130101FE232E1100232C8100232A910000
S2140123B4232821012326310123244101232251010B
S2140123C4376A0D00130ACAEEB7BA0400B30A5A01F3
S2140123D4130900009309001493040A00130400006F
S2140123E483A7040003960700930509001305040058
S2140123F4EFF01FEF1304140093844400E31234FF38
S21401240413091900130A0A50E3185AFD8320C1015F
S2140124140324810183244101032901018329C10085
S214012424032A8100832A4100130101026780000008
S214012434130101FE232E1100232C8100232A91006F
S214012444232821012326310123244101232251017A
S21401245437BA0800130ACAEEB7BA0400B30A5A0117
S214012464130900009309001493040A0013040000DE
S21401247483A70400039607009305090013050400C7
S214012484EFF01FE61304140093844400E31234FFB0
S21401249413091900130A0A50E3185AFD8320C101CF
S2140124A40324810183244101032901018329C100F5
S2140124B4032A8100832A4100130101026780000078
S2140124C4130101FE232E1100232C8100232A9100DF
S2140124D42328210123263101930400001309000F48
S2140124E49309001413040000130600009305040066
S2140124F413850400EFF0DFDE13041400E31624FF53
S21401250493841400E39034FF8320C10103248101E2
S21401251483244101032901018329C1001301010216
S21401252467800000B73720FF1307100023A0E702D7
S214012534B73720FF9387C70283A7070093F71700CF
S214012544638C0700373720FF1307C702832707006A
S21401255493F71700E39C07FE67800000130101FF51
S21401256423261100232481002322910003A7C1906E
S214012574B72727009387C76E2322F700EFF09FFA49
S21401258483A7C19083A7070023AEF192EFF05FF310
S21401259403A7C190B7C71D009387C76E2322F70010
S2140125A48327470023AEF192EFF09FF18320C10009
S2140125B40324810083244100130101016780000084
S2140125C4130101FF23261100373505001305C52322
S2140125D4EF6000403735050013058525EF60403F61
S2140125E403A3019183C6919403C68194B78800001E
S2140125F49305000F130EA0056F00800193060600D5
S21401260413F6F70F23A2F19423A0E194638AB6008C
S2140126148327030033F71701E30607FE6FF01FFE57
S214012624E318C6FF23840194A384019423850194AB
S2140126343735050013050527EF6080398320C1006F
S2140126441301010167800000130101FF2326110015
S2140126549300000003AE019183C6819403C691944E
S214012664930F0000930200009303000037830000D9
S2140126749305100013056001930EE001130F000F7C
S2140126846F0080006308E60783270E0033F76700B0
S214012694630E0700930006001386060093F6F70FF1
S2140126A4938F0500938205009383050023A2F1947A
S2140126B423A0E194E388A6FCE398D6FDE316E6FDA1
S2140126C463860F001307E0012384E1946384020008
S2140126D42385119463860300130700FFA384E19402
S2140126E43735050013054529EF60802E13051000C4
S2140126F46F00400363860F00130760012384E1948F
S214012704638402002385119463860300130700FF84
S214012714A384E1943735050013050528EF60402BA3
S2140127241305000023840194A38401942385019452
S2140127348320C1001301010167800000130101FF1A
S214012744232611009300000003AE019183C68194F1
S21401275403C69194930F00009302000093030000B4
S214012764378300009305100013056001930EE00102
S214012774130F000F6F0080006308E60783270E001F
S21401278433F76700630E07009300060013860600FE
S21401279493F6F70F938F0500938205009383050044
S2140127A423A2F19423A0E194E388A6FCE398D6FD42
S2140127B4E316E6FD63860F001307E0012384E19424
S2140127C4638402002385119463860300130700FFC4
S2140127D4A384E1943735050013054529EF60401FAE
S2140127E4130510006F00400363860F001307600192
S2140127F42384E19463840200238511946386030091
S214012804130700FFA384E194373505001305852AD1
S214012814EF60001C1305000023840194A384019433
S214012824238501948320C100130101016780000000
S21401283483A7019183A7070023A2F1943787000099
S21401284433F7E70023A0E19413050000630C0702A5
S21401285403C791942385E19483C68194A384D19478
S21401286493F7F70F2384F1941306000E630EC70043
S2140128749307E001130500006316F7009307000FA2
S2140128846384F60C67800000130750076384E6062A
S2140128946362D7029307B0066384F606930740077C
S2140128A46398F600B7A7080003A5475F6780000092
S2140128B4678000001307000F639AE60213075007A8
S2140128C46386E704130720076388E7041307B00643
S2140128D46386E7061307400713050000E394E7FA47
S2140128E4B7A7080003A5076067800000130500006A
S2140128F467800000B7A7080003A5875F678000000C
S214012904B7A7080003A5075F67800000B7A70800FC
S21401291403A5476067800000130101FF2326110009
S214012924373505001305452CEF60800A13050000B2
S2140129348320C1001301010167800000B7A70800C6
S21401294403A5C75F67800000B7A7080003A58760D3
S2140129546780000083A7019183A7070023A2F1944F
S2140129643787000033F7E70023A0E194130500003E
S2140129746308070683C691942385D19403C781947B
S214012984A384E19493F7F70F2384F1941306000EBE
S2140129946380C60293079002130500006392F6044F
S2140129A46304F70A9307000F630EF70E67800000AF
S2140129B4930640076308D70663F6E60293065007B4
S2140129C46306D7049306000F631ED7021307500746
S2140129D46380E70613072007130500006380E706F4
S2140129E4678000009307B0066308F7029307200781
S2140129F46318F700B7A7080003A5C761678000003E
S214012A04678000001305000067800000B7A7080070
S214012A1403A5476167800000B7A7080003A50761FF
S214012A2467800000B7A7080003A5C7606780000099
S214012A34B7A7080003A5876167800000B7A7080049
S214012A4403A5076267800000130101FF2326110016
S214012A542324810003A6818383A6C18303A5019D44
S214012A6483A5419DEF20D05223A8A19C23AAB19C03
S214012A7403A6018483A64184EF30D056631E050065
S214012A84B7A7080003A587628320C1000324810039
S214012A941301010167800000B7A7080003A5476278
S214012AA46FF09FFEB7A7080003A587626780000042
S214012AB4130101FF23261100232481002322910000
S214012AC4232021011309050093840500EF40D078E3
S214012AD413040500EF5080001306090093860400D2
S214012AE4EF301069132505003305A4008320C100C7
S214012AF403248100832441000329010013010101F9
S214012B046780000003A7C194930610062300D7002C
S214012B1483A7C19423A2070023A4070023860700E2
S214012B24678000009306050093871500938545008A
S214012B34130830001306800033E507031317250036
S214012B443387E60003270700032747036316C700F6
S214012B5493871700E392B7FE67800000130590067B
S214012B6467800000130101FF2326110083A78193C8
S214012B74639A070283A74193638E07021307100023
S214012B84638CE700130720006396E702EFF04FF02B
S214012B94EFF00FF86F000002EFF08FEAEFF04FF757
S214012BA46F004001130710006380E702130720003B
S214012BB46380E70403A7819323AAE1928320C100DB
S214012BC4130101016780000083A74193638C07000A
S214012BD413072000E390E7FEEFF08FEBEFF04FFCD6
S214012BE46FF05FFDEFF0CFE0EFF08FFB6FF09FFC2F
S214012BF483A74193638C070013071000E39CE7FA4D
S214012C04EFF00FE4EFF0DF826FF0DFFAEFF04FDE64
S214012C14EFF01F826FF01FFA130101F72326110844
S214012C242324810823850194A38401942384019495
S214012C3483A7C19483C6070013071006638AE60AAE
S214012C4403A7870013172700B78730009387C76E3B
S214012C54B387E70083A7C70603A7070523ACE1925A
S214012C64EFF05FF003A5C19AEFD01FCE03A5C1997B
S214012C74EFD09FCD03A5C198EFD01FCD3735050002
S214012C841305855EEF50D05483A7C19403A687002D
S214012C9483C50700373505001305053FEF5010417E
S214012CA4EFF09F9A2320A102E30E054603A4C194E4
S214012CB4832584003785300013058575EFF09FE67C
S214012CC42324A400930710062300F400EFF01FE961
S214012CD493050500373505001305C55CEF50103D17
S214012CE48320C108032481081301010967800000B9
S214012CF403A7470013172700B78730009387C76ECB
S214012D04B387E70083A7070003A7070523ACE1926F
S214012D14EFF05FE503A5C19AEFD01FC303A5C199E0
S214012D24EFD09FC203A5C198EFD01FC23735050067
S214012D341305053EEF50D04983A7C19403A6470067
S214012D4483C50700373505001305053FEF501036D8
S214012D54EFF09F8F2320A102630E050203A4C19402
S214012D6483254400378530001305C56EEFF09FDBDD
S214012D742322A400930720062300F400EFF01FDEAD
S214012D8493050500373505001305C55CEF50103271
S214012D946FF01FF52322910823202109232E3107E2
S214012DA4232C4107232A5107232861072326710769
S214012DB423248107232291072320A107232EB1056B
S214012DC403A5419AEFD05FB803A54199EFD0DFB7C9
S214012DD403A54198EFD05FB7373505001305854243
S214012DE4EF50103FB7440500378430001304C46E17
S214012DF4930800001308E00D9307A00C1307900135
S214012E049306E00013062000938584951305C400F9
S214012E14EF101049930800001308E00D9307A02053
S214012E24130790019306E00013062000938584950A
S214012E341305C402EF10D046930800001308E00DF2
S214012E449307A034130790019306E00013062000AD
S214012E54938584951305C404EF1090443735050013
S214012E641305C544EF50D03683A7C19483A7470002
S214012E74939727003304F4008327040083A70702EB
S214012E8483A707002320F100930C0000B7873000C6
S214012E94938DC76E83A7818403A8C1842324F1007C
S214012EA42326010183A7818303A8C1832328F10074
S214012EB4232A010183A781832324F10283A7C183E3
S214012EC42326F10283A7018403A84184232CF1005D
S214012ED4232E01019387CD002322F1026F00C01235
S214012EE483A7C19483A7470093972700B387FD0060
S214012EF483A5040003A50700EFE09F87630605008A
S214012F0423268A01930B0C0013044400130A4A0077
S214012F1493844400630CA40383A7C19483A7470046
S214012F2493972700B387FD0003A5070083250400B4
S214012F34E308B5FAEFE0DF83E30405FA930710002C
S214012F442320FA00930B10006FF09FF9639C0B1675
S214012F5483A7C19483A7470093972700B387FD00EF
S214012F649305000003A50700EFE09FC583A7C1945E
S214012F7483A7470093972700B387FD0083A707001D
S214012F8403A7070523ACE1920329010263CE0C26AD
S214012F9413850C00EF409034032681008326C1007C
S214012FA4EF30800B9304050013840500032601010A
S214012FB483264101EF30D00B6356A000832481029F
S214012FC40324C102032681018326C101138504005B
S214012FD493050400EF30502AEF40102893090500AA
S214012FE483A48D02634C952263CAA42693850900A3
S214012FF403254102EF10104F63040900B30C9041FE
S214013004EFF05FB6EFF00FD213850C00EF40102DF2
S214013014EFE00FB103A6818483A6C184EF30501577
S214013024635E0526EFF0DF8093050500B7A7080069
S2140130349387075F83A787016382A72683A7C19423
S21401304483A7470093972700B387FD001306000064
S21401305403A50700EFE09FD883A7C19483A7470081
S21401306493972700B387FD0083A7070083A707026A
S21401307483A707002322F10003270100B38CE7404E
S214013084232C0102232E01022320010423220104FE
S2140130942324010423260104B78730009389C76ECD
S2140130A413098103938AC906138DC90093840A0000
S2140130B4130A09001384C76E930B0000130C100047
S2140130C46FF09FE5938B0900138B0A00130A09001E
S2140130D493045000130C20006F004006138D0B0060
S2140130E403A54B018327450503A7C7016358E002DF
S2140130F41304000083A7070013172400B387E7000F
S21401310403A50700EFD01FD31304140003254D01B4
S2140131148327450503A7C701E34EE4FCEFE00FF858
S2140131246F00800283274A01639E07029384F4FF9B
S214013134130ACAFF130BCBFF938BCBFFE3449CFE0E
S21401314483274A01E39C07F89384F4FF9307F0FF6F
S214013154638EF404130ACAFF130BCBFF938BCBFFC6
S2140131646FF0DFFD130D0B0003258B008327450548
S21401317403A7C7016358E0021304000083A70700EE
S21401318413172400B387E70003A50700EFD09FCAEF
S2140131941304140003258D008327450503A7C701DF
S2140131A4E34EE4FCEFE08FEF6FF05FF883A7C19482
S2140131B483A7470093972700B387FD009305000074
S2140131C403A50700EFE0DF9F13040000930420002B
S2140131D4130A60006F00904D83270900639E070061
S2140131E413041400E30444D993894900938A4A00DA
S2140131F4130949006F00904B9305000003A54AFF8D
S214013204EFE01F9C6FF0DFFD8327010003274100D9
S214013214B38CE740130910006FF09FD71394240072
S21401322483A7CD00B387870003A50700EFD09FC00F
S21401323483A7CD02B387870003A50700EFD09FBFFE
S21401324483A7CD04B387870003A50700EFD09FBEED
S2140132549384F4FFE3D434FD6FF05FD91394240010
S21401326483A7CD00B387870003A50700EFD0CFED72
S21401327483A7CD02B387870003A50700EFD0CFEC61
S21401328483A7CD04B387870003A50700EFD0CFEB50
S21401329493841400E39499FC6FF05FD5378430006F
S2140132A41304C46E832584029385F5FF1305C400B5
S2140132B4EF10D023832584029385F5FF1305C402FA
S2140132C4EF10D022832584029385F5FF1305C404E9
S2140132D4EF10D021EFE0DFE823840194A384019466
S2140132E42385019483A7C19403A6470083C50700D9
S2140132F43735050013050547EF50405B03A5819A52
S214013304EFD08FE403A58199EFD00FE403A581984C
S214013314EFD08FE3EFF08FC2630A050283244108DE
S214013324032901088329C107032A8107832A410740
S214013334032B0107832BC106032C8106832C41062C
S214013344032D0106832DC1056FF05FA103A5019A24
S214013354EFD08FDF03A50199EFD00FDF03A5019806
S214013364EFD08FDE83A78193638C070613071000C3
S2140133746386E70A130720006380E70E37350500E6
S2140133841305454DEF50C064130700009307000072
S21401339423ACE19C23AEF19C23A8E19C23AAF19CD7
S2140133A403AC018583AC418503AA018483AA4184C5
S2140133B403A9818383A9C18383A681832320D100A2
S2140133C483A7C1832322F10013040A0093840A000D
S2140133D437873000930DC76E138D8D076F00001469
S2140133E4373505001305054BEF50805E9308000042
S2140133F41308E00D93073010130790019306E000BD
S21401340413062000B745050093858595378530005A
S21401341413054576EF10C0686FF05FF63735050083
S2140134241305C54BEF50C05A930800001308E00D6E
S21401343493073024130790019306E0001306200037
S214013444B745050093858595378530001305457680
S214013454EF1000656FF09FF2373505001305854CB4
S214013464EF500057930800001308E00D9307303817
S214013474130790019306E00013062000B7450500E4
S214013484938585953785300013054576EF104061A1
S2140134946FF0DFEE03AB819D83ABC19D13060C0079
S2140134A493860C0013050B0093850B00EF308033D5
S2140134B46318050A13060A0093860A0003A5019DEC
S2140134C483A5419DEF205039130B0500938B05000E
S2140134D41306090093860900EF3080396356A0006D
S2140134E4032B0100832B410013060400938604007A
S2140134F413050B0093850B00EF300058EF40C055C1
S214013504930B050003AB4D096346652B6344AB2C53
S21401351493850B0013050D00EF10C07CEFF08FC3ED
S214013524B7A7080083A78761E386A7F6B7A70800AD
S21401353483A707626382A706B7A7080083A7C760A5
S2140135446388A70AB7A7080083A70761639AA70A2F
S214013554373505001305C551EF5080476FF09FF5C9
S214013564B7B7080003A607CD83A647CD13050B00FE
S21401357493850B00EF20C02123ACA19C23AEB19C04
S2140135841306050093860500373505001305454FD8
S214013594EF50C0316FF01FF203AB819D83ABC19D29
S2140135A4130600009306000013050B0093850B0019
S2140135B4EF304023E30005F0B7B7080003A607CDB4
S2140135C483A647CD13050B0093850B00EF305038C7
S2140135D423ACA19C23AEB19C13060500938605007B
S2140135E4373505001305454FEF50402C6FF09FEC1F
S2140135F43735050013058550EF50803D6FF09FEB7E
S214013604B7A7080083A78762E396A7EA03A6019DE6
S21401361483A6419D3735050013050553EF50002950
S21401362403A6818583A6C18523A8C19C23AAD19C10
S2140136343735050013058555EF504027378430008C
S2140136441304C46E83A7C19483A7470093972700E6
S214013654B307F40083A7070003A74702032607005E
S21401366483A7070283A5070003A8019D83A8419D9C
S21401367403A7819D83A7C19DB74605009386069936
S214013684130676009385850013058409EF10D0266A
S214013694832544099385F5FF13058407EF10006518
S2140136A403258409EFD04FAA23A0019E9304800C1E
S2140136B4138A070093092000378430001304C46E6C
S2140136C41309840983A7019E63CEF902032584099D
S2140136D4EFD04FF613050900EF10D0471305090084
S2140136E4EF10105603258409EFD00FA68327440A4A
S2140136F423ACF192EFF00FC7EFE0DFE29384F4FF1F
S214013704E39204FC3735050013050557EF50402CAA
S214013714378430001304C46E03258409EFD08FF177
S214013724032984098327490003A50700EF40003BCA
S21401373403A6018483A64184EF309021EF40C03173
S214013744130405008327090003A50700EF40003989
S21401375403A6018483A64184EF30901FEF40C02F57
S2140137649306050013082003930720031307040098
S21401377413060000B7E505009385C50A13858197EE
S214013784EFD01FA103A58197EFD00F9CEFE09FD93F
S2140137941304C00003A58197EFD0CFE91304F4FF07
S2140137A4630A040403A58197EFD00F9AEFE09FD72D
S2140137B46FF05FFE83A78D0713172B00B387E7000F
S2140137C403A50700EFD00FE7130BFBFFE3547BFFC2
S2140137D46FF01FD483A78D0713172B00B387E70059
S2140137E403A50700EFD04F96130B1B00E3946BFF62
S2140137F46FF01FD2EFE01FD303A58197EFD05FAC24
S2140138043735050013058558EF50801C3784300082
S2140138141305C46E1306C5069305C46E1305850900
S214013824EF1050549304C46E1304C46E13090000BD
S214013834130A1000930930008327040083A7C705E1
S214013844638E470B1309190013044400E31639FF6A
S21401385437843000130484759309040013090000A7
S214013864930A1000130A300083A7090083A7C7052B
S2140138746380570B1309190093894900E31649FF1E
S2140138843785300013054578EF10C05E1386C400F3
S2140138949306800083A7040003A747036304D700A5
S2140138A423AE070493844400E396C4FE1306C400BF
S2140138B4930680008327040003A747036304D70005
S2140138C423AE070413044400E316C4FE832441080C
S2140138D4032901088329C107032A8107832A41078B
S2140138E4032B0107832BC106032C8106832C410677
S2140138F4032D0106832DC1056FF04FC693050900FC
S214013904373505001305455AEF40507A6FF09FF39B
S21401391493050900373505001305855BEF401079DB
S2140139246FF05FF52322910823202109232E310706
S214013934232C4107232A51072328610723267107CD
S21401394423248107232291072320A107232EB105CF
S21401395403A5419AEFC05FFF03A54199EFC0DFFEBF
S21401396403A54198EFC05FFE83A7C19403A7870010
S21401397413172700B78730009387C76EB387E7000E
S21401398483A7C70683A7070283A707002320F1009E
S214013994930C0000B7873000938DC76E83A781848C
S2140139A403A8C1842324F1002326010183A781836C
S2140139B403A8C1832328F100232A010183A7818355
S2140139C42324F10283A7C1832326F10283A701845A
S2140139D403A84184232CF100232E01019387CD00F3
S2140139E42322F1026F00C01213044400130A4A0092
S2140139F4938444006300A40783A7C19483A7870024
S214013A0493972700B387FD008325040003A5C70603
S214013A14EFD01FD66306050023208A01930B0C0002
S214013A2483A7C19483A7870093972700B387FD00D4
S214013A3403A5C70683A50400E308B5FAEFD05FD350
S214013A44E30405FA930710002326FA00930B1000EB
S214013A546FF09FF9639C0B1683A7C19483A7870015
S214013A6493972700B387FD009305000003A5C706B7
S214013A74EFE00F9583A7C19483A787009397270048
S214013A84B387FD0083A7C70603A7070523ACE19206
S214013A940329010263CE0C2613850C00EF400004B3
S214013AA4032681008326C100EF20005B93040500F2
S214013AB4138405000326010183264101EF20505B90
S214013AC46356A000832481020324C10203268101D4
S214013AD48326C1011385040093050400EF20D079E1
S214013AE4EF3090779309050083A48D02634C9522E9
S214013AF463CAA4269385090003254102EF10801E9C
S214013B0463040900B30C9041EFF0CF85EFE09FA169
S214013B1413850C00EF30907CEFD09F8003A6818440
S214013B2483A6C184EF20D064635E0526EFE05FD0F0
S214013B3493050500B7A708009387075F83A7870146
S214013B446382A72683A7C19483A787009397270038
S214013B54B387FD001306000003A5C706EFE00FA810
S214013B6483A7C19483A7870093972700B387FD0093
S214013B7483A7C70683A7070283A707002322F100AA
S214013B8403270100B38CE740232C0102232E0102F4
S214013B9423200104232201042324010423260104EF
S214013BA4B78730009389C76E13098103938AC906C0
S214013BB4138DC90093840A00130A09001384C76E7F
S214013BC4930B0000130C10006FF01FE3938B090096
S214013BD4138B0A00130A090093045000130C2000E7
S214013BE46F004006138D0B0003A54B018327450583
S214013BF403A7C7016358E0021304000083A7070064
S214013C0413172400B387E70003A50700EFD08FA29C
S214013C141304140003254D018327450503A7C70193
S214013C24E34EE4FCEFD09FC76F00800283274A016E
S214013C34639E07029384F4FF130ACAFF130BCBFF98
S214013C44938BCBFFE3449CFE83274A01E39C07F84E
S214013C549384F4FF9307F0FF638EF404130ACAFFF8
S214013C64130BCBFF938BCBFF6FF0DFFD130D0B0014
S214013C7403258B008327450503A7C7016358E00284
S214013C841304000083A7070013172400B387E70073
S214013C9403A50700EFD00F9A1304140003258D0023
S214013CA48327450503A7C701E34EE4FCEFD01FBFF6
S214013CB46FF05FF883A7C19483A7870093972700C3
S214013CC4B387FD009305000003A5C706EFD05FEF99
S214013CD41304000093042000130A60006F00C01F41
S214013CE483270900639E070013041400E30444D9E0
S214013CF493894900938A4A00130949006F00C01D3D
S214013D049305000003A54AFFEFD09FEB6FF0DFFD9C
S214013D148327010003274100B38CE74013091000F1
S214013D246FF09FD71394240083A7CD00B387870031
S214013D3403A50700EFD00F9083A7CD02B3878700B2
S214013D4403A50700EFD00F8F83A7CD04B3878700A1
S214013D5403A50700EFD00F8E9384F4FFE3D434FD5C
S214013D646FF05FD91394240083A7CD00B38787002F
S214013D7403A50700EFC05FBD83A7CD02B387870005
S214013D8403A50700EFC05FBC83A7CD04B3878700F4
S214013D9403A50700EFC05FBB93841400E39499FC6A
S214013DA46FF05FD5378430001304C46E8325840214
S214013DB49385F5FF1305C400EF0050738325840231
S214013DC49385F5FF1305C402EF0050728325840220
S214013DD49385F5FF1305C404EF005071EFE04FB867
S214013DE423840194A38401942385019483A7C19415
S214013DF403A6870083C50700373505001305054765
S214013E04EF40D02A03A5819AEFC01FB403A5819978
S214013E14EFC09FB303A58198EFC01FB3EFE01F92D5
S214013E24630A050283244108032901088329C1077B
S214013E34032A8107832A4107032B0107832BC10623
S214013E44032C8106832C4106032D0106832DC1050F
S214013E546FE0DFE5373505001305454DEF40503774
S214013E64373505001305855FEF40903683244108F6
S214013E74032901088329C107032A8107832A4107E5
S214013E84032B0107832BC106032C8106832C4106D1
S214013E94032D0106832DC1056FE05FE113041400B1
S214013EA493894900938A4A001309490063C684B278
S214013EB483270900E38407FE9305000003A5090090
S214013EC4EFD01FD06FF09FFD1304140093894900AF
S214013ED4938A4A0013094900E3C484E0832709004E
S214013EE4E38407FE9305000003A50900EFD05FCD28
S214013EF46FF09FFD130101FC232E1102232C810276
S214013F04232A910223282103232631032324410350
S214013F142322510323206103232E7101232C8101C3
S214013F24232A91013748050013088895B7540500DC
S214013F3493848495378430001304C46E130B040BE6
S214013F442322010013091006232021019308880562
S214013F541308884593878485138784C593868405C7
S214013F641306F0089305400713050B00EFD0CFC0E6
S214013F74B766050093868695930A4411930C100040
S214013F842322910123202101938884451388868561
S214013F94938786C513878605938686451306F00898
S214013FA49305600A13850A00EFD00FBD3777050025
S214013FB413078795B784050093848495130A841799
S214013FC4930720002322F1002320210193088785EB
S214013FD4130887C593078705130787459386848542
S214013FE41306F0089305800D13050A00EFD0CFB829
S214013FF4B79B0500938B8B959309C41D93073000DB
S2140140042322F100130C200623208101938884C502
S214014014138884059387844513878B8593868BC57C
S2140140241306F0089305C03913850900EFD0CFB401
S214014034B7A40500938484951309042493074000C8
S2140140442322F1002320810193888B0513888B4555
S21401405493878485138784C5938684051306F0089D
S2140140649305A03613050900EFD00FB1B7B60500C6
S21401407493868695930B442A930750002322F100D6
S214014084232081019388844513888685938786C572
S21401409413878605938686451306F00893058033B1
S2140140A413850B00EFD04FADEFE0DFA523206401AD
S2140140B423225401232444012326340723282407D6
S2140140C4232A7407EFE0CFCF83A7C19423869701F1
S2140140D437953000130585C3EF00900A03A5819C2C
S2140140E4EFC05FD59306800213068002B7850800E9
S2140140F49385852EB7943000138544C1EF00C055CF
S214014104138544C1EF004077138544C1EF0050077F
S214014114B7C405009384849513085001930750018E
S214014124130770029306A011130610009385848565
S21401413413854197EFD0CF8503A54197EFC0DF8064
S21401414403A54197EFD0CF971308100293072003D6
S2140141541307C0089306B00413061000B7750800C9
S2140141649385456013850197EFD08F8203A5019748
S214014174EFC08FFD03A50197EFD08F941308B0010C
S2140141849307003C1307D00A930600001306100099
S214014194B7B50700938545B81385C196EFC05FFF91
S2140141A403A5C196EFC04FFA03A5C196EFD04F9170
S2140141B41308500A930740051307B0009306C02856
S2140141C413061000B74507009385C5F3138581963A
S2140141D4EFC01FFC03A58196EFC00FF703A58196D8
S2140141E4EFD00F8E1308C005930700071307800549
S2140141F49306900813061000B72506009385C51B81
S21401420413850195EFC0DFF803A50195EFC0CFF341
S21401421403A50195EFD0CF8A130880039307D00531
S214014224130720089306603013061000B7750600BE
S2140142349385C52313858195EFC09FF503A58195C5
S214014244EFC08FF003A58195EFD08F871308A001E7
S21401425493072002130790099306A0201306100063
S2140142649385C4BC13854195EFC09FF203A5419580
S214014274EFC08FED03A54195EFD08F84130840045A
S2140142849307E0101307D0019306D0151306100008
S214014294B7B506009385C5FC13854196EFC05FEF5D
S2140142A403A54196EFC04FEA03A54196EFD04F818F
S2140142B4130890059307F0001307F00593060015FD
S2140142C413061000B7A506009385C55513850196F8
S2140142D4EFC01FEC03A50196EFC00FE703A50196F7
S2140142E4EFC01FFE130890059307F0001307F005AF
S2140142F49306902613061000B7A506009385C5AE4F
S2140143041385C195EFC0DFE803A5C195EFC0CFE3E0
S21401431403A5C195EFC0DFFA930C84309307900090
S214014324130750019306D0021306A0119385442B5C
S21401433413850C00EFC0CF9813850C00EFC08FB720
S214014344930C8432930770001307000293069009B6
S2140143541306A0209385044313850C00EFC04F96E3
S21401436413850C00EFC00FB5930C843493074000FB
S2140143741307C0029306A0091306E0049385045F9D
S21401438413850C00EFC0CF9313850C00EFC08FB2DA
S214014394930C843693073000130780139306D00AD0
S2140143A4130600009385047513850C00EFC04F9126
S2140143B413850C00EFC00FB09304843893075000A4
S2140143C41307E0159306D00A13062026B715060030
S2140143D49385054113850400EFC08F8E1385040071
S2140143E4EFC04FADB7D4050093848495930C843AFB
S2140143F4930750001307C0089306200B1306C01337
S214014404938504EA13850C00EFC08F8B13850C008B
S214014414EFC04FAA930C843C930760001307F00681
S2140144249306200B1306501F9385844113850C00B5
S214014434EFC00F8913850C00EFC0CFA7B7E40500C2
S21401444493848495930C843E9307A0001307200459
S214014454930630041306A0289385C49413850C0090
S214014464EFC00F8613850C00EFC0CFA4930C8440D5
S21401447493078000130760019306F0041306C02A0D
S214014484938544E713850C00EFC08F8313850C00D6
S214014494EFC04FA2930C8442930780001307900148
S2140144A4930610061306C02A938544FD13850C0053
S2140144B4EFC00F8113850C00EFC0CF9F930C84448B
S2140144C4930780001307C001930630071306B02A2A
S2140144D49385441613850C00EFB09FFE13850C00DC
S2140144E4EFC04F9D930C8446930780001307000288
S2140144F4930630081306A02A9385443213850C00CC
S214014504EFB01FFC13850C00EFC0CF9A930C8448C0
S2140145149307800013073002930660091306A02A46
S2140145249385445213850C00EFB09FF913850C0054
S214014534EFC04F989304844A9307B0001307001002
S2140145449306D00113064016B7F505009385454337
S21401455413850400EFB0DFF613850400EFC08F95D2
S2140145641304844C9307D000130710069306100611
S21401457413064009B7150600938545A313050400E1
S214014584EFB01FF413050400EFC0CF92930510009B
S21401459413050B00EFD0CFE29305100013850A0034
S2140145A4EFD00FE29305100013050A00EFD04FE198
S2140145B49305100013850900EFD08FE093051000D2
S2140145C413050900EFD0CFDF9305100013850B0008
S2140145D4EFD00FDF13050B00EFD04FBF13850A0092
S2140145E4EFD0CFBE13050A00EFD04FBE13850900E6
S2140145F4EFD0CFBD13050900EFD04FBD13850B00D7
S214014604EFD0CFBC83A7C19483C7C700638C0700D0
S21401461413040C00EFE04FE083A7C19483C7C700DF
S214014624E39A07FE8320C103032481038324410301
S214014634032901038329C102032A8102832A410231
S214014644032B0102832BC101032C8101832C41011D
S2140146541301010467800000130101FA232E1104DB
S214014664232C8104232A910423282105232441058C
S21401467423225105232A91032326B103930C050013
S214014684232CB100930D0600138906002328D100BC
S2140146949307003C33E4C70233348000B3C7C70230
S2140146A43304F400232085029307000FB3E4D702F2
S2140146B4B3349000B3C7D702B384F400232E950015
S2140146C43305D60213152500EF30405923A2AC005A
S2140146D413054000EF30805823A4AC0013054000B6
S2140146E4EF30C05723A6AC0013054000EF30005747
S2140146F423A8AC0023AABC0123AC2C01232005006B
S2140147043305940213152500EF30405523A0AC0061
S214014714232E010023260100130A0000930A000039
S214014724635890122326310523206105232E710335
S214014734232C81032328A1036F00800E1305400355
S214014744EF30C05113040500832781012322F502AB
S21401475483270101232AF5002328B50183A74C00EA
S2140147642324F50213054000EF30404F930B050058
S2140147742320A40013054000EF30404E130B050020
S2140147842322A40013058000EF30404D9309050051
S214014794232EA40013058000EF30404C13090500B6
S2140147A42320A40213054000EF30404B232CA40021
S2140147B423A0AB01832741012320FB0023A0490149
S2140147C423A259012320490123225901232005004C
S2140147D48327C100B384F402B384840183A70C0045
S2140147E493942400B387970023A08700130C1C001E
S2140147F483A40C02330DBD01E3429CF48327C1005C
S214014804138717002326E1008327C10183260101AC
S214014814B387D700232EF10083A7CC016350F70298
S21401482483A40C028327C101232AF100130D00007F
S214014834130C0000E34490F06FF05FFC8329C1047D
S214014844032B0104832BC103032C8103032D0103D2
S2140148548320C10503248105832441050329010519
S214014864032A8104832A4104832C4103832DC10234
S2140148741301010667800000130101FF23261100BE
S2140148842322910023202101930405008327C501D7
S21401489413090000635AF004232481006F00800387
S2140148A4B3872703B387870003A7040093972700DA
S2140148B4B307F70003A50700EFC00F89130414001C
S2140148C483A70402E34EF4FC1309190083A7C40169
S2140148D4635AF90083A7040213040000E342F0FCC0
S2140148E46FF09FFE032481008320C10083244100CE
S2140148F4032901001301010167800000130101FF70
S214014904232611002322910023202101930405006C
S2140149148327C50113090000635AF0042324810088
S2140149246F008003B3872703B387870003A70400B8
S21401493493972700B307F70003A50700EFC08FCFAF
S2140149441304140083A70402E34EF4FC13091900AC
S21401495483A7C401635AF90083A704021304000061
S214014964E342F0FC6FF09FFE032481008320C10024
S214014974832441000329010013010101678000001B
S214014984130101FE232E1100232A9100232631014F
S214014994930405008327C501930900006354F00CB2
S2140149A4232C8100232821016F00400A13091900D2
S2140149B403A404026356890833043403330424012C
S2140149C41314240083A70400B387870083A7070072
S2140149D4E38E07FC03A50700EF30002983A7040034
S2140149E4B387870083A7070003A54700EF30C027D6
S2140149F483A70400B387870083A7070003A5C7011D
S214014A04EF30802683A70400B387870083A70700B7
S214014A1403A50702EF30402583A70400B387870068
S214014A2483A7070003A58701EF30002483A70400AA
S214014A34B387870003A50700EF3000236FF01FF745
S214014A449389190083A7C40163DAF90003A4040255
S214014A5413090000E34280F66FF09FFE03248101F0
S214014A640329010103A50400EF30002003A5440037
S214014A74EF30801F03A58400EF30001F03A5C40098
S214014A84EF30801E03A50401EF30001E8320C10110
S214014A94832441018329C1001301010267800000B8
S214014AA4130101FB232611042324810423229104E8
S214014AB423286103232671032324810323229103DC
S214014AC42320A103232EB10113040500138D050031
S214014AD4930B0600938C0600130C0700138B070038
S214014AE4930D08009384080013054000EF30001767
S214014AF42322A40013054000EF3040162324A4000B
S214014B0413054000EF3080152326A40023287401E2
S214014B14232A9401232C840123200500232E9400A8
S214014B2413152C00EF3080132320A400635680193C
S214014B3423202105232E3103232C4103232A510349
S214014B44B3879B03939717002326F10013090000EC
S214014B54130A0000930A0000931429008329040011
S214014B64B389990013054003EF30400F23A0A90031
S214014B7483270400B387970083A7070023A2A7030C
S214014B8483270400B387970083A7070023AA970106
S214014B9483270400B387970083A7070023A8770118
S214014BA483270400B387970083A907000325C10060
S214014BB4EF30C00A23A4A90283270400B387970011
S214014BC483A9070013054000EF30400923A0A9007C
S214014BD483270400B387970083A9070013054000C1
S214014BE4EF30C00723A2A90083270400B3879700E8
S214014BF483A9070013058000EF30400623AEA90001
S214014C0483270400B387970083A907001305800050
S214014C14EF30C00423A0A90283270400B3879700BA
S214014C2483A9070013054000EF30400323ACA90015
S214014C3483270400B387970083A7070083A7070089
S214014C4423A0670183270400B387970083A707007F
S214014C5483A7470023A0B70183270400B3879700DF
S214014C6483A7070083A7C70123A0470123A25701EF
S214014C7483270400B387970083A7070083A7070247
S214014C8423A0470123A2570183270400B387970073
S214014C9483A7070083A7870123A007001309190028
S214014CA4330B7B01E31A2CEB032901048329C1038B
S214014CB4032A8103832A41038320C1040324810434
S214014CC483244104032B0103832BC102032C810299
S214014CD4832C4102032D0102832DC1011301010519
S214014CE467800000232EB50067800000130101FFD2
S214014CF423261100232291009304050063CC0502A8
S214014D042324810023202101138405001309F0FFC5
S214014D1483A7040013172400B387E70003A507003D
S214014D24EFC04F911304F4FFE31424FF032481001E
S214014D34032901009305000013850400EFF09FFA90
S214014D448320C10083244100130101016780000010
S214014D54130101FE232E1100232C810013040500E8
S214014D64832785016350F00E232A9100232821010D
S214014D742326310113090000931429008327040014
S214014D84B387970083A7070003A58702EF20D06D9A
S214014D9483270400B387970083A9070013054000FF
S214014DA4EF20D06B23A0A900EF20106C832704000A
S214014DB4B387970083A9070013054000EF20106A04
S214014DC423A2A900EF20506A83270400B387970023
S214014DD483A9070013058000EF20506823AEA900BD
S214014DE4EF20906883270400B387970083A9070000
S214014DF413058000EF20906623A0A902EF20D06659
S214014E0483270400B387970083A90700130540008E
S214014E14EF20D06423ACA900EF201065832704009B
S214014E24B387970003A50700EF2010641309190040
S214014E3483278401E342F9F4832441010329010110
S214014E448329C10003250400EF20106203254400D2
S214014E54EF20906103258400EF2010610325C40030
S214014E64EF2090608320C101032481011301010214
S214014E7467800000130101FF23261100232481000B
S214014E84130405008327050003A50700EF20D05D62
S214014E948327040003A54700EF20105D8327040041
S214014EA403A5C701EF20505C8327040003A507026E
S214014EB4EF20905B8327040003A58701EF20D05AD7
S214014EC48327040003A58702EF20105A0325040153
S214014ED4EF20905903254401EF20105903250400BF
S214014EE4EF2090588320C10003248100130101019F
S214014EF4678000009307050013072003630AE50A89
S214014F04634EA70413074001630AE50A6344A70234
S214014F14630C050A1307A0006318E50003A50186C0
S214014F2483A541866780000003A5018A83A5418A7B
S214014F34678000001307E001630EE508130780028B
S214014F446318E50003A5818783A5C18767800000F0
S214014F5403A5018A83A5418A67800000130700051B
S214014F646300E5086346A7021307C0036300E50868
S214014F74130760046318E50003A5018983A5418925
S214014F846780000003A5018A83A5418A6780000023
S214014F941307A00513050000930500006394E700BA
S214014FA46780000003A5018A83A5418A6780000003
S214014FB403A5018883A541886780000003A581862F
S214014FC483A5C1866780000003A5818383A5C18369
S214014FD46780000003A5018783A5418767800000D9
S214014FE403A5818983A5C1896780000003A58188FB
S214014FF483A5C18867800000930705001307200373
S214015004630EE50A6342A70613074001630EE50A29
S2140150146348A70213050000930500006388070888
S2140150241307A0006398E70003A5818983A5C189B6
S2140150346780000003A5018A83A5418A6780000072
S2140150441307E0016308E508130780026318E50007
S21401505403A5018883A541886780000003A5018A0A
S21401506483A5418A6780000013070005630AE506E5
S2140150746346A7021307C003630AE5061307600421
S2140150846318E50003A5818683A5C18667800000B1
S21401509403A5018A83A5418A678000001307A0053A
S2140150A46318E50003A5818383A5C1836780000097
S2140150B403A5018A83A5418A6780000003A5818729
S2140150C483A5C1876780000003A5018983A541895B
S2140150D46780000003A5818883A5C18867800000D6
S2140150E403A5018683A541866780000003A5018781
S2140150F483A5418767800000130101FD2326110261
S214015104232481022322910223202103232E310109
S214015114232C4101232A51012328610123267101ED
S21401512423248101232291012320A10113040500D4
S21401513413890500130D0600938B0600130B070055
S214015144938A0700130A080093890800130540038D
S214015154EF20D030930405002320A400130540005B
S214015164EF20D02F23A0A40013054000EF20102F1A
S21401517423A2A40013058000EF20502E23AEA40022
S21401518413058000EF20902D23A0A40213054000F0
S214015194EF20D02C23ACA4009307400023A8F400EE
S2140151A423AAF40023A2740313050002EF20102B94
S2140151B423A4A40213058000EF20502A2328A40068
S2140151C413058000EF209029232AA40013050B0061
S2140151D493850A00EF20500893040500EFF09FD151
S2140151E4930C0500138C0500130605009386050031
S2140151F43735050013054561EF30406B1385040010
S214015204EFF09FDF930B050093840500130605005A
S214015214938605003735050013058562EF3000696E
S2140152248327040083A7070023A0270183270400FC
S21401523483A7470023A0A7018327040003ADC70162
S21401524403A6818A83A6C18A13050A0093850900E9
S214015254EF10900213860C0093060C00EF10D00199
S2140152642320AD002322BD008327040083A7C701A2
S21401527403A6070083A64700373505001305C56353
S214015284EF30C0628327040003AC070213860B00C9
S21401529493860400B7070080B3C7370113050A00D5
S2140152A493850700EF10407D2320AC002322BC0029
S2140152B48327040083A7070203A6070083A64700E3
S2140152C43735050013054566EF30405E8327040035
S2140152D483A787011307100023A0E70023240400F3
S2140152E4232204008326040123A0660123A2560177
S2140152F4032744019306F0139307000063DA26019B
S214015304130909EC9307F013B3B727019387170022
S21401531423204701232237012326F4008320C102D8
S2140153240324810283244102032901028329C10142
S214015334032A8101832A4101032B0101832BC10026
S214015344032C8100832C4100032D0100130101036A
S21401535467800000130101FF232611002324810026
S214015364232291002320210113040500832705002D
S21401537483A4070003A9C70103A50400EF20007650
S2140153840326090083264900EF008040EF20C06C05
S21401539423A0A4008327040083A4470003A90702CB
S2140153A403A50400EF208073032609008326490021
S2140153B4EF00003EEF20406A23A0A40083270400E8
S2140153C483A4070203A6018B83A6418B03A50400CD
S2140153D483A54400EF00C03B23A0A40023A2B4008D
S2140153E48327040083A7070003A707009306F01387
S2140153F49307000063DAE600130707EC9307F0133C
S214015404B3B7E700938717002326F4008320C1006F
S21401541403248100832441000329010013010101AF
S214015424678000008327050123A0B70023A2C700D5
S2140154348327450123A0D70023A2E7006780000045
S214015444130101FF23261100232481001304050000
S214015454630E05028327040003A70700032607003B
S2140154649305460083A7470083A607009386460054
S21401547483A7019363980702232204008320C100B3
S21401548403248100130101016780000037350500FC
S2140154941305C568EF30C0536FF0DFFB83A7070120
S2140154A4E38C07FC03A74700E3CAE6FE03A7C7008D
S2140154B4E346D7FE03A78700E342C7FE03A7070018
S2140154C4E3CEE5FC23229100373505001305856AF2
S2140154D4EF300050930710002322F40083270400C2
S2140154E483A4C70103A6818B83A6C18B03A50400ED
S2140154F483A54400EF10405823A0A40023A2B400BF
S2140155048327040083A6C70123A0A60023A2B6000E
S2140155148327040083A4070203A6018C83A6418C77
S21401552403A5040083A54400EF10005523A0A4009E
S21401553423A2B4008327040083A6070223A0A6009F
S21401554423A2B60083A5019E9385150023A0B19ED0
S214015554373505001305456BEF304035832441008C
S2140155646FF0DFF1130101FB2326110423248104C8
S2140155742322910423202105232E3103232C4103C6
S214015584232A510323286103232671032324810339
S214015594232291032320A103232EB101130B05001B
S2140155A42326C1001384050093040000130D800014
S2140155B4B73D0500930C30006F000002938504008C
S2140155C4B737050013854773EF30402E93841400D4
S2140155D4130444006384940B23248100832704006A
S2140155E403A74703E304A7FF03A7070283290700CA
S2140155F49389890083A7470283AA0700938A0A012D
S21401560483270B0003A7070003290700930B29FE32
S2140156141309E90183A7470003AA0700130CEA014B
S214015624130A2AFE93080A0013080C0093070900BC
S21401563413870B0093860A001386090093850400DA
S21401564413854D6DEF308026E3CA79F7E34839F7C1
S214015654E3C64AF7E3445CF78327810083A7070080
S2140156641307100023AEE7049385040037350500BD
S2140156741305455AEF3080236FF05FF50324C1000C
S21401568493040000130D8000B73D0500930C300011
S2140156946F00000293850400B73705001385C77AA7
S2140156A4EF30C02093841400130444006384940BE5
S2140156B4232481008327040003A74703E304A7FFE9
S2140156C403A70702832907009389890083A7470252
S2140156D483AA0700938A0A0183270B0003A70700FE
S2140156E403290700930B29FE1309E90183A7470041
S2140156F403AA0700130CEA01130A2AFE93080A00F8
S21401570413080C009307090013870B0093860A00FD
S21401571413860900938504001385CD74EF300019B0
S214015724E3CA79F7E34839F7E3C64AF7E3445CF793
S2140157348327810083A707001307100023AEE7041D
S21401574493850400373505001305855BEF30001695
S2140157546FF05FF58320C10403248104832441048C
S214015764032901048329C103032A8103832A4103EC
S214015774032B0103832BC102032C8102832C4102D8
S214015784032D0102832DC101130101056780000069
S214015794B7071000130101FE938EF7FF33F8BE001E
S2140157A4B3F7DE0013D346012328210113D945019B
S2140157B493973700232C81001318380013D4F5016E
S2140157C41357D5019358D6011379F97F1373F37FD1
S2140157D4232E1100232A91002326310193D6F601A4
S2140157E4B3E8F8003367070193153500131F360035
S2140157F4B30769406304D41E6352F0166306032894
S2140158049306F07F6306D9429306800313061000BD
S21401581463CEF602B7068000B3E8D8009306F0011B
S21401582463CEF65293060002B386F6403396D8004A
S2140158343355FF00B316DF003366A600B336D00037
S214015844B3D8F8003366D600330717413386C5400C
S214015854B3B5C50093040600B309B740939789000E
S21401586463DA0732B70780009387F7FFB3F9F900C5
S2140158746388092C13850900EF20C031930785FF3F
S214015884930600023387F64033D7E400B399F90050
S21401589433673701B394F40063C8274BB3872741B2
S2140158A493871700B386F6403396D400B3D9F40031
S2140158B43336C00033663601B316D700B3E4C600E8
S2140158C4B359F7001309000093F7740063800702C5
S2140158D493F7F40013074000638AE70093874400B4
S2140158E433B69700B389C900938407009397890058
S2140158F463DA076E930719001307F07F130E04008B
S2140159046386E72A370780FF1307F7FF33F7E900B3
S21401591493F7F77F1318D70113D63400131797009C
S2140159243368C8001357C7008320C10103248101CB
S21401593493974701B3E7E7001317FE01B3E7E700C0
S21401594483244101032901018329C10013050800A9
S214015954938507001301010267800000638C071416
