S00C00006D61696E2E7372656373
S21401009497D10600938141061701FF03130141F628
S2140100A41385019717B62E001306C6B03306A6406D
S2140100B493050000EF90505917A50000130545D38A
S2140100C4EF801029EF90D0481305000093054100F6
S2140100D413060000EF00800E6F80D02837D5070086
S2140100E437D707009307458F1307478F630AF7002F
S2140100F493070000638607001305458F6780070092
S2140101046780000037D507009307458F37D7070068
S2140101149305478FB385F54093D7254093D5F501CD
S214010124B385F50093D51540638A0500930700004F
S214010134638607001305458F678007006780000004
S214010144130101FF2324810083C701A42326110080
S21401015463940702EFF09FF893070000638A070091
S21401016437C507001305852097000000E700000047
S214010174930710002380F1A48320C1000324810087
S21401018413010101678000009307000063860702DC
S21401019437C50700130101FF938541A41305852084
S2140101A42326110097000000E70000008320C10009
S2140101B4130101016FF01FF56FF0DFF4130101FE67
S2140101C4232E1100232C8100232A910023282101A8
S2140101D423263101EF200026EF101067EF201000D0
S2140101E413088002930700141307800C930600007B
S2140101F413060000B7590300938589261385019FCA
S214010204EF00506613088002930700141307800C4E
S214010214930600001306000037F90200930589E6E9
S2140102241385C19EEF00106413088002930700141F
S2140102341307800C9306000013060000B79402000F
S214010244938584A61385819EEF00D06113088002EE
S214010254930700141307800C93060000130600008E
S21401026437240200930584661385419EEF00905F50
S21401027413088002930700141307800C93060014D6
S21401028413060000938589261385019EEF00905D71
S21401029413088002930700141307800C93060014B6
S2140102A413060000930589E61385C19DEF00905B54
S2140102B413088002930700141307800C9306001496
S2140102C413060000938584A61385819DEF0090593B
S2140102D413088002930700141307800C9306001476
S2140102E413060000930584661385419DEF0090571D
S2140102F413088002930700141307800C9306002842
S21401030413060000938589261385019DEF009055F9
S21401031413088002930700141307800C9306002821
S21401032413060000930589E61385C19CEF009053DC
S21401033413088002930700141307800C9306002801
S21401034413060000938584A61385819CEF009051C3
S21401035413088002930700141307800C93060028E1
S21401036413060000930584661385419CEF00904FA5
S214010374EF405033130500008320C101032481019B
S21401038483244101032901018329C10013010102C8
S21401039467800000130101FC232E1102232C810225
S2140103A4232A9102232821032326310323244103EC
S2140103B42322510323206103232E7101232C81015F
S2140103C4232A91012328A1012326B1011304050040
S2140103D4938C0500930D0600138D0600130B07007E
S2140103E4938B07003305F70213151500EF80407A47
S2140103F4130C050013054000EF808079930A05006D
S2140104042322A40013054000EF808078130A050018
S2140104142324A40013058000EF8080779309050048
S2140104242326A40013058000EF80807613090500B7
S2140104342328A40013054000EF808075930405006B
S214010444232AA400232C6401232E7401930710008D
S2140104542320F50023A0BA012320AA0113070000D4
S2140104649307000023A0E90023A2F9002320E90052
S2140104742322F90013054003EF8080712320A40092
S21401048423229503232A7501232865012324850342
S2140104942320550123224501232E3501232025033C
S2140104A4232C95008320C103032481038324410361
S2140104B4032901038329C102032A8102832A4102F3
S2140104C4032B0102832BC101032C8101832C4101DF
S2140104D4032D0101832DC10013010104678000006F
S2140104E46302050A130101FF232611002324810058
S2140104F4232291001304050013054001EF8040698F
S21401050493040500630805068327440003A7070030
S21401051423A0E400032784008326070023A2D40033
S21401052483A7070083268401B387D70023A4F40096
S2140105348326C4019307900063C6D7009307A000DF
S214010544232EF400832707000327C401B387E7009B
S21401055423A6F40003A7019723A8E40023A89196F1
S2140105648320C10003248100832441001301010177
S2140105746780000037B5030013058566EF90803861
S2140105846FF09FF867800000130101FF2326110016
S214010594232481001304050003250500EF00002829
S2140105A413050400EFF0DFF38320C1000324810068
S2140105B41301010167800000130101FF23261100C6
S2140105C42324810003A401976302040423229100D7
S2140105D4232021019304000037B903009385040006
S2140105E48327C400032784008326440003260400CB
S2140105F49384140013054968EF90801E03240401B4
S214010604E31E04FC83244100032901008320C10066
S214010614032481001301010167800000130101FE18
S214010624232E110083A70197638E070A232C8100CA
S214010634232A9100232821012326310113040500CE
S2140106449384050013090600938906001305000028
S2140106546F00000283A6070123A8D1966F00000449
S21401066403A7070113850700630607069307070018
S21401067403A70700E31687FE03A74700E31297FEC6
S21401068403A78700E31E27FD03A7C700E31A37FD68
S214010694E30205FC03A707012328E50013850700E9
S2140106A4EF80C04F138709009306090013860400E0
S2140106B49305040037B503001305456AEF9040120D
S2140106C40324810183244101032901018329C100F3
S2140106D46F000002032481018324410103290101DF
S2140106E48329C10037B503001305056DEF908021FA
S2140106F48320C1011301010267800000130101FF79
S2140107042326110023248100130405000325050074
S214010714EF00805F8327440003A507008327840036
S21401072483A507008326C40103268401B386D50066
S2140107343306C500EFF09FEE8320C1000324810039
S2140107441301010167800000630C0506130101FF14
S214010754232611002324810013040500EFF01FFA59
S2140107648327040003A58702EF8040430325440042
S21401077463040500EF8080420325840063040500BA
S214010784EF80C0410325C40063040500EF800041E7
S2140107940325040163040500EF804040032544015A
S2140107A463040500EF80803F13050400EF80003FDB
S2140107B48320C10003248100130101016780000026
S2140107C46780000083274501130600009305F0FFA8
S2140107D4634CF00267800000B387C702B387E70063
S2140107E48326850293971700B387F6002390B700F4
S2140107F41307170083270501E340F7FE13061600C7
S21401080483274501635AF600832705011307000071
S214010814E344F0FC6FF09FFE67800000130101FEC5
S214010824232E1100232C81001304050083270500C1
S21401083483A707002324F5008327450083A7070021
S2140108442326F500EFF01FF8930710002326F40281
S214010854832744016352F04A232A91002328210165
S21401086423263101232441012322510113060000CA
S2140108741303000F1305003C1308F0FF9302100046
S214010884130EF013374F2600130F4F35B7EE1C0027
S214010894938E4E35930420001309F027B7EF150005
S2140108A4938F4FB56F0000428329440003AA0900C1
S2140108B4330A460193194A00B38949419399690059
S2140108C4B386D90093961600B386DF008399060093
S2140108D483268402B387F6002390370183274400D6
S2140108E483A60700B306D60083290400939746001F
S2140108F4B387D7409397670083A60900B306D7004A
S214010904B387D70093971700B387FF002390B700E8
S2140109146F00C000638E590C638A9926130717006B
S21401092483270401635AF7388326040083A6060046
S214010934B306D700E364D5FEB387C702B387E700DF
S2140109449397170083254402B385F5008395050024
S214010954E38605FD83A98197E39E09FAE346DEF45F
S21401096403AAC1978326C400B306D60093969600BD
S21401097483298400B3093701B3863601939616009A
S214010984B386460183D9060083268402B387F6001C
S214010994239037018327440083A70700B307F60093
S2140109A4939797008326040083A60600B306D70010
S2140109B4B387D70093971700B387E7012390B7004F
S2140109C48327440083A70700B307F600939797008D
S2140109D48326040083A60600B306D700B387D70090
S2140109E493971700B387D7012390B7006FF01FF3CF
S2140109F4635ADE0A6342D91203AAC1978326C40046
S214010A04B306D60093969600938606EC8329840053
S214010A14B3093701B386360193961600B3864601A9
S214010A2483D9060083268402B387F6002390370110
S214010A348327440083A70700B307F600939797001C
S214010A44938707EC8326040083A60600B306D70023
S214010A54B387D70093971700B74626009386463583
S214010A64B387D7002390B7008327440083A70700E2
S214010A74B307F60093979700938707EC8326040041
S214010A8483A60600B306D700B387D700939717004B
S214010A94B7E61C0093864635B387D7002390B70084
S214010AA46FF0DFE737EA1500130A4AB583294400D5
S214010AB483AA0900B30A560193994A00B389594196
S214010AC493996900B386D90093961600B306DA00A3
S214010AD48399060083268402B387F60023903701A0
S214010AE48327440083A60700B306D600832904009F
S214010AF493974600B387D7409397670083A6090068
S214010B04B306D700B387D70093971700330AFA00C2
S214010B142310BA006FF09FE037EA1500130A4AB5AE
S214010B248329440083AA0900B30A560193994A000B
S214010B34B389594193996900B386D90093961600EF
S214010B44B306DA008399060083268402B387F60087
S214010B54239037018327440083A60700B306D600F3
S214010B648329040093974600B387D7409397670079
S214010B7483A60900B306D700B387D7009397170057
S214010B84330AFA002310BA006FF05FD9635CD90AFE
S214010B949309003CE38436D903AAC1978326C4008B
S214010BA4B306D60093969600938606D883298400C6
S214010BB4B3093701B386360193961600B386460108
S214010BC483D9060083268402B387F600239037016F
S214010BD48327440083A70700B307F600939797007B
S214010BE4938707D88326040083A60600B306D70096
S214010BF4B387D70093971700B746260093864635E2
S214010C04B387D7002390B7008327440083A7070040
S214010C14B307F60093979700938707D883260400B3
S214010C2483A60600B306D700B387D70093971700A9
S214010C34B7E61C0093864635B387D7002390B700E2
S214010C446FF0DFCD37EA1500130A4AB5832944004D
S214010C5483AA0900B30A560193994A00B3895941F4
S214010C6493996900B386D90093961600B306DA0001
S214010C748399060083268402B387F60023903701FE
S214010C848327440083A60700B306D60083290400FD
S214010C9493974600B387D7409397670083A60900C6
S214010CA4B306D700B387D70093971700330AFA0021
S214010CB42310BA006FF09FC613061600832744015B
S214010CC46352F6028327440083A70700B307F6009E
S214010CD4E364F3FE83270401E350F0FE13070000E8
S214010CE46FF09FC483244101032901018329C100B4
S214010CF4032A8100832A41008320C1010324810140
S214010D0413010102678000000327C5029307100040
S214010D146306F70023260502678000008327450142
S214010D24E35AF0FE130101FF2326810023249100D8
S214010D34232221012320310183A581971306000074
S214010D44130F000F1308F0FF13031000930F200076
S214010D549308F013B74E2600938E4E3537EE1C00DB
S214010D64130E4E359303F0271304F03BB7E2150038
S214010D74938242B56F0000200329C500330926017A
S214010D8493164900B386264193966600B386960069
S214010D9493961600B386D2002390F6006F00C00027
S214010DA463846508638CF51313071700832705010D
S214010DB4635CF71AB387C702B387E7008326850205
S214010DC493971700B387F60083970700E38E07FD12
S214010DD4E39805FC83248500B3049700E3C604FC6A
S214010DE4E3CC98F88326C500B306D60093969600FE
S214010DF4B386960093961600B386D6012390F60022
S214010E048326C500B306D6009396960083248500F0
S214010E14B3049700B386960093961600B386C6016C
S214010E242390F6006FF05FF883248500B3049700DF
S214010E3463DA980463CC93068326C500B306D6000A
S214010E4493969600938606ECB386960093961600C0
S214010E54B386D6012390F6008326C500B306D600D2
S214010E6493969600938606EC83248500B304970034
S214010E74B386960093961600B386C6012390F600B1
S214010E846FF09FF20329C500330926019316490022
S214010E94B386264193966600B3869600939616000B
S214010EA4B386D2002390F6006FF01FF037E91500E1
S214010EB48329C500B309360193964900B3863641A2
S214010EC493966600B386960093961600930449B5E6
S214010ED4B386D4002390F6006FF01FED83248500BB
S214010EE4B304970063DA9304E34094EC8326C500C5
S214010EF4B306D60093969600938606D8B3869600D4
S214010F0493961600B386D6012390F6008326C50071
S214010F14B306D60093969600938606D88324850056
S214010F24B3049700B386960093961600B386C6015B
S214010F342390F6006FF05FE737E915008329C500B3
S214010F44B309360193964900B386364193966600F3
S214010F54B386960093961600930449B5B386D400D7
S214010F642390F6006FF05FE413061600832745010D
S214010F746350F6028327C500B307F600E366FFFE57
S214010F8483270501E352F0FE130700006FF09FE28A
S214010F94232605020324C10083248100032941007A
S214010FA483290100130101016780000093070500EE
S214010FB403278501032507006302050603A78501A8
S214010FC403250700630C050403A70700832607000F
S214010FD403A705000326070003A705013307E60058
S214010FE41305000063DCE60203A70701B386E600E7
S214010FF46356D60203A747008326070003A74500C6
S2140110040326070003A745013307E60063D8E60075
S21401101483A74701B386F6003325D6006780000010
S214011024032705008327070083A6050003A60600F9
S2140110349386570063D4C7009386B7FF2320D7004F
S214011044032745008327070083A6450003A6060059
S2140110549386570063D4C7009386B7FF2320D7002F
S21401106467800000130101FC232E1102232C810248
S214011074232A91022328210323263103232441030F
S2140110842322510323206103232E7101232C810182
S214011094232A91012328A1012326B10193040500E3
S2140110A4938D0500930C0600138C0600930B070022
S2140110B4138B0700930A080013054003EF70502DA5
S2140110C41304050023A0A40033055B0313151500C0
S2140110D4EF70102C130D050013054000EF70502B14
S2140110E4130A05002320A40013054000EF70502ABC
S2140110F4930905002322A40013058000EF705029EC
S21401110413090500232EA40013058000EF70502850
S214011114930405002320A40213054000EF70502712
S214011124232CA40023286401232A54012322B40374
S2140111342324A4032320950123208A0123A07901D3
S21401114413070000930700002320E9002322F90077
S21401115423A0E40023A2F4008320C1030324810313
S21401116483244103032901038329C102032A81023B
S214011174832A4102032B0102832BC101032C810123
S214011184832C4101032D0101832DC10013010104A8
S21401119467800000630E0504130101FF2326110076
S2140111A4232481001304050003250500EF70101F96
S2140111B403254400EF70901E0325C401EF70101E32
S2140111C403250402EF70901D03258401EF70101DA2
S2140111D403258402EF70901C13050400EF70101CA5
S2140111E48320C100032481001301010167800000EC
S2140111F467800000130101FF2326110023248100C8
S21401120423229100930405001384050013060000AD
S214011214930600001385040093050400EF608058CC
S2140112246340050213850400930504008320C1006E
S2140112340324810083244100130101016780000017
S214011244B707008033C487006FF0DFFD130101FA8E
S214011254232E1104232C8104232A910423282105F7
S2140112642326310523244105232251052320610524
S214011274232E7103232C8103232A91032328A103FC
S2140112842326B103130405009384050013090600FD
S214011294138D06002328E100232AF100232C0101E3
S2140112A4232E1101834D010613050040EF70500EE5
S2140112B42320A10013050040EF70900D2322A10006
S2140112C413050040EF70D00C2324A1001305004041
S2140112D4EF70100C2326A10013050040EF70500B8D
S2140112E4930C050013054000EF70900A930B05005C
S2140112F42320A40213054000EF709009130B050088
S2140113042322A40213058000EF709008930A0500B7
S2140113142324A40213058000EF709007130A050026
S2140113242326A40213054000EF709006130C050053
S2140113342328A40213054000EF70900593090500C5
S2140113442320A404232A040293071000232CF40464
S214011354232E0402930700012322F40493070002B8
S2140113642324F40413050002EF7090021307F0130C
S2140113749307000063589700938704ECB337F7008C
S21401138493871700232AA404032741062320E4068F
S214011394232E04042328F404930710002320FC00BE
S2140113A423A09B0023202B011307000093070000B2
S2140113B423A0EA0023A2FA002320EA002322FA004B
S2140113C49307400623A0F90093071006638EFD18C1
S2140113D49308A0001308D9FF938734001307A000CD
S2140113E4930620001306100093858193EF40406610
S2140113F413054003EF70C079930405002320A4006D
S2140114042322A50393090002232A350113090001A7
S214011414232825012324950313054003EF70407701
S214011424130A05002322A400832701012322F502BF
S214011434232A350123282501832701002324F502C5
S21401144413054003EF70C074930A05002324A40017
S214011454832741012322F502232A35012328250166
S214011464832741002324F50213054003EF704072DD
S214011474130B05002326A400832781012322F502EA
S214011484232A350123282501832781002324F502F5
S21401149413054003EF70C06F2328A4008327C101FE
S2140114A42322F502232A3501232825018327C10097
S2140114B42324F5028325040223A0B4000326440250
S2140114C423A2C4008326840223AED4000327C402C5
S2140114D423A0E4028327040323ACF4002320BA00E8
S2140114E42322CA00232EDA002320EA02232CFA0040
S2140114F423A0BA0023A2CA0023AEDA0023A0EA027C
S21401150423ACFA002320BB002322CB00232EDB00CE
S2140115142320EB02232CFB002320B5002322C50045
S214011524232ED5002320E502232CF5008320C105B4
S2140115340324810583244105032901058329C10464
S214011544032A8104832A4104032B0104832BC10348
S214011554032C8103832C4103032D0103832DC10234
S21401156413010106678000009308A0001308D9FF41
S214011574938734001307A000930620001306100077
S2140115849385C193EF40C04C6FF09FE6130101FFB2
S2140115942326110023248100130405006300050497
S2140115A48327040283A50700032544043385A50085
S2140115B48327440283A6070083278404B386F600A0
S2140115C483A7019763980702232E04028320C10090
S2140115D403248100130101016780000037B503006D
S2140115E41305056EEF8000326FF09FFB83A707019A
S2140115F4E38C07FC03A74700E3CAE6FE03A6C7007D
S214011604E346D6FE03A68700E342B6FE03A607001A
S214011614E34EC5FC93071000232EF4028327C4026D
S214011624130600009306000023A0C70023A2D700D8
S21401163483274402832684043307D74023A0E70084
S2140116446FF0DFF89307050003270503032507005A
S2140116546302050603A7050303250700630C0504B7
S21401166403A707028326070003A70502032607002C
S21401167403A745043307E6001305000063DCE6020E
S21401168403A74704B386E6006356D60203A74702B8
S2140116948326070003A745020326070003A785043C
S2140116A43307E60063D8E60083A78704B386F6000B
S2140116B43325D6006780000093070500032705033A
S2140116C4032507006302050603A785010325070012
S2140116D4630C050403A707028326070003A7050076
S2140116E40326070003A705013307E60013050000D8
S2140116F463DCE60203A74704B386E6006356D60214
S21401170403A747028326070003A74500032607000D
S21401171403A745013307E60063D8E60083A78704D9
S214011724B386F6003325D60067800000032705023A
S2140117348327070083A6050003A6060093865700A1
S21401174463D4C7009386B7FF2320D7000327450237
S2140117548327070083A6450003A606009386570041
S21401176463D4C7009386B7FF2320D70067800000A1
S214011774130101FF23261100032785039307700035
S21401178463E0E7069317270037C70300130707D25A
S214011794B387E70083A707006780070003250500D2
S2140117A4EFF08FD68320C10013010101678000008A
S2140117B403254500EFF04FD56FF0DFFE03258500C6
S2140117C4EFF08FD46FF01FFE0325C500EFF0CFD3E3
S2140117D46FF05FFD03250501EFF00FD36FF09FFC5B
S2140117E437B503001305C56FEF80C0116FF09FFB7B
S2140117F46306050A130101FF232611002324810031
S21401180413040500EFF0DFF68327040003A587021F
S214011814EF70C0388327440003A58702EF700038B1
S2140118248327840003A58702EF7040378327C4000B
S21401183403A58702EF7080368327040103A5870278
S214011844EF70C0350325040263040500EF7000350C
S2140118540325440263040500EF7040340325840223
S21401186463040500EF7080330325C4026304050096
S214011874EF70C0320325040363040500EF700032E1
S2140118840325040463040500EF7040318320C1007E
S21401189403248100130101016780000067800000B2
S2140118A4130101FF23261100232481002322910022
S2140118B42320210193040500130400001309800268
S2140118C483A7440583A70700B387870003A50700FA
S2140118D4EFE0DFF413044400E31424FF9305A000AF
S2140118E403A54405EF40003B8320C1000324810087
S2140118F483244100032901001301010167800000CC
S214011904130101FE232E1100232C8100232A9100AA
S21401191423282101130405008327450503A7C701CE
S2140119246356E0029304000083A70700139724007C
S214011934B387E70003A50700EFF00FBD93841400F7
S2140119448327440503A7C701E3C0E4FE03A74700B2
S2140119548327040283A70700938737002320F70011
S2140119648327440503A787008327440283A7070028
S2140119749387D7FF2320F700930700001308A000DE
S214011984032744051396270083260700B386C6005B
S21401199483A6060083A506000325470083260701C0
S2140119A4B386D702032705003307D70023A0E50033
S2140119B48326440503A706003307C7000327070049
S2140119C40327470083A6860083A606002320D700A4
S2140119D493871700E39607FB8327040403A50700F0
S2140119E4EF700003B7D7070003A6878F83A6C78FB8
S2140119F4EF50C05903A6818083A6C180EF50107BA7
S214011A04EF60D078130905006356A006232631013A
S214011A142324410123225101930400009309600009
S214011A24130A1000930A70006F00C0009384140018
S214011A34630C990203274403E30A37FF83278403CD
S214011A449387A7FFE374FAFEE30257FF832744054F
S214011A5483A7070013972400B387E70003A50700AD
S214011A64EFE0DFDB6FF09FFC8329C100032A8100CE
S214011A74832A41009305090003254405EF4080218C
S214011A848320C10103248101832441010329010127
S214011A941301010267800000130101FF23261100D0
S214011AA423248100130405006384050203278403A9
S214011AB49307700063E6E7029317270037C703000E
S214011AC4130707D4B387E70083A7070067800700D7
S214011AD4EFF01FE36FF09FFD03250400EFF0CFA2A4
S214011AE4032744039307700063EAE7049317270068
S214011AF437C70300130707D6B387E70083A7070092
S214011B046780070003254400EFF00FA06FF05FFD28
S214011B1403258400EFF04F9F6FF09FFC0325C4005C
S214011B24EFF08F9E6FF0DFFB03250401EFF0CF9DEE
S214011B346FF01FFB03250400EFE05FCE8320C10096
S214011B44032481001301010167800000032544007A
S214011B54EFE0DFCC6FF09FFE03258400EFE01FCC9F
S214011B646FF0DFFD0325C400EFE05FCB6FF01FFDD0
S214011B7403250401EFE09FCA6FF05FFC130101FF28
S214011B84232611002324810023222101232031014D
S214011B94930710006388F5040324850203290400CF
S214011BA48329440003A6818283A6C1821305090002
S214011BB493850900EF50104F6358050A03A78182E5
S214011BC483A7C1822320E4002322F4008320C100DA
S214011BD40324810003294100832901001301010123
S214011BE46780000003248502032904008329440036
S214011BF403A6018183A64181130509009385090083
S214011C04EF50503A635CA00003A7018183A741818A
S214011C142320E4002322F4006FF05FFB03A68181F6
S214011C2483A6C1811305090093850900EF509047E7
S214011C34635C050003A7818183A7C1812320E40097
S214011C442322F4006FF09FF803A6018283A6418243
S214011C541305090093850900EF40D0262320A4002C
S214011C642322B4006FF09FF603A6018383A6418363
S214011C741305090093850900EF50D032635CA00078
S214011C8403A7018383A741832320E4002322F400CE
S214011C946FF0DFF303A6018283A6418213050900D0
S214011CA493850900EF60003E2320A4002322B4009C
S214011CB46FF0DFF1130101FE232E1100232C8100A6
S214011CC4232A910023282101130405006302052019
S214011CD42326310123244101232251019384050043
S214011CE41309060083274503232CF502B7C707000B
S214011CF483A5872113850400EF80802B63060500E6
S214011D0483A741946390070623A2019493091000C4
S214011D14232A34039305000013050400EFF01FE69D
S214011D24032A0402832A840203250A00EF60504E24
S214011D3403A60A0083A64A00EF40D018EF601045B8
S214011D442320AA008327840203A5070083A547004E
S214011D54EF60D04383270900B387A7002320F90047
S214011D64232C3405B7C7070083A5C72113850400B0
S214011D74EF8000246306050083A781946390070619
S214011D8423A4019493092000232A34039305100005
S214011D9413050400EFF09FDE032A0402832A84025B
S214011DA403250A00EF60D04603A60A0083A64A006C
S214011DB4EF405011EF60903D2320AA008327840250
S214011DC403A5070083A54700EF60503C832709005D
S214011DD4B387A7002320F900232C3405B7C70700CF
S214011DE483A5072213850400EF80801C6318050071
S214011DF40327C4049307100063D4E70EB7C707008C
S214011E0483A5472213850400EF80801A6310050218
S214011E1483278402130600009306000023A0C7004C
S214011E2423A2D7001307100023A2E194B7C7070023
S214011E3483A5872213850400EF808017631C050E93
S214011E4483278402130600009306000023A0C7001C
S214011E5423A2D7001307100023A4E1948329C10009
S214011E64032A8100832A41008327840203A50700ED
S214011E7483A54700EF609031631E05008324C402E6
S214011E8403A5040083A54400EF605030631C050AD3
S214011E94232A04028324C40203A5040083A5440060
S214011EA4EF60D02E6310050A8327C403639E070AD6
S214011EB48327840513072000638EE70C130710009D
S214011EC4639EE70C93076000232AF4026F00000D5B
S214011ED437B503001305056EEF70D0226FF0DFF8F7
S214011EE48327840513072000638AE702130710007B
S214011EF4638CE7028327C40203A6818283A6C18278
S214011F0423A0C70023A2D700232E04028327C404D8
S214011F14938717002326F4046FF05FEE930770008F
S214011F24232AF4026FF01FFD93076000232AF402AC
S214011F346FF05FFC8329C100032A8100832A4100D4
S214011F446FF09FF28327C403130710006382E7022E
S214011F5403278405930620006308D702930610001E
S214011F646304D70C638C0702232604046F0040071E
S214011F74130700009307000023A0E40023A2F40043
S214011F84232A04026FF05FF213077000232AE40287
S214011F94E39C07FC93077000232AF4028324C402FB
S214011FA403A6818383A6C18303A5040083A54400F5
S214011FB4EF40407123A0A40023A2B400832444026A
S214011FC40329C40203A50400EF6090240326090034
S214011FD483264900EF40006FEF60501B23A0A40046
S214011FE48327040203A707009306F0139307000050
S214011FF463DAE600130707EC9307F013B3B7E700B9
S214012004938717002328F40413050400EFF00FD870
S2140120148320C10103248101832441010329010191
S214012024130101026780000013076000232AE402FB
S214012034E38A07E86FF05FF39307100023A2F19495
S21401204423A4F1946780000037E31500130343DDEE
S214012054B7880C00938848B537D80700130848B5E5
S2140120643735110013054505130E0000B78E03001E
S214012074938E0E40130705B01306080093860800D6
S21401208493070300938507D82320B70023A0F600FF
S214012094938507282320B600130747009387270054
S2140120A49386460013064600E31EA7FC1303037833
S2140120B49388085013080850130E0E3C1305055058
S2140120C4E31ADEFB67800000B7381100938848B531
S2140120D4930500281308000037E30100931718003E
S2140120E49386080003A7C1973307F70003A60600E3
S2140120F4035707002310E6009387270093864600BC
S214012104E392B7FE93880850130808209385054088
S214012114E31668FC67800000B7880C00938848B50E
S214012124930500281308000037E3010093171800ED
S2140121349386080003A7C1973307F70003A6060092
S214012144035707002310E60093872700938646006B
S214012154E392B7FE93880850130808209385054038
S214012164E31668FC67800000B7D80700938848B573
S214012174930500281308000037E30100931718009D
S2140121849386080003A7C1973307F70003A6060042
S214012194035707002310E60093872700938646001B
S2140121A4E392B7FE938808501308082093850540E8
S2140121B4E31668FC6780000093959500B385A50037
S2140121C493951500B747260093874735B387F500DF
S2140121D42390C700B7E71C0093874735B385F500FE
S2140121E42390C50067800000130101FE232E110011
S2140121F4232C8100232A910023282101232631013F
S2140122042324410123225101373A1100130A4AB506
S214012214B7BA0400B30A5A0113090000930900145B
S21401222493040A001304000083A70400039607001E
S2140122349305090013050400EFF01FF813041400B6
S21401224493844400E31234FF13091900130A0A5055
S214012254E3185AFD8320C10103248101832441012B
S214012264032901018329C100032A8100832A41002D
S2140122741301010267800000130101FE232E1100E1
S214012284232C8100232A91002328210123263101AE
S2140122942324410123225101378A0C00130A4AB52B
S2140122A4B7BA0400B30A5A011309000093090014CB
S2140122B493040A001304000083A70400039607008E
S2140122C49305090013050400EFF01FEF130414002F
S2140122D493844400E31234FF13091900130A0A50C5
S2140122E4E3185AFD8320C10103248101832441019B
S2140122F4032901018329C100032A8100832A41009D
S2140123041301010267800000130101FE232E110050
S214012314232C8100232A910023282101232631011D
S214012324232441012322510137DA0700130A4AB54F
S214012334B7BA0400B30A5A0113090000930900143A
S21401234493040A001304000083A7040003960700FD
S2140123549305090013050400EFF01FE613041400A7
S21401236493844400E31234FF13091900130A0A5034
S214012374E3185AFD8320C10103248101832441010A
S214012384032901018329C100032A8100832A41000C
S2140123941301010267800000130101FE232E1100C0
S2140123A4232C8100232A910023282101232631018D
S2140123B4930400001309000F93090014130400008A
S2140123C4130600009305040013850400EFF0DFDE16
S2140123D413041400E31624FF93841400E39034FFDB
S2140123E48320C101032481018324410103290101BE
S2140123F48329C1001301010267800000B73720FF5B
S2140124041307100023A0E702B73720FF9387C702FC
S21401241483A7070093F71700638C0700373720FF5D
S2140124241307C7028327070093F71700E39C07FEE9
S21401243467800000130101FF232611002324810075
S2140124442322910003A7C194B747260093874735F3
S2140124542322F700EFF09FFA83A7C19483A707000E
S21401246423AEF196EFF05FF303A7C194B7E71C0020
S214012474938747352322F7008327470023AEF19637
S214012484EFF09FF18320C1000324810083244100DF
S2140124941301010167800000130101FF23261100C7
S2140124A437B503001305C570EF70C04537B5030093
S2140124B413058572EF70004503A3019583C69198B1
S2140124C403C68198B78800009305000F130EA00574
S2140124D46F0080019306060013F6F70F23A2F19806
S2140124E423A0E198638AB6008327030033F7170114
S2140124F4E30607FE6FF01FFEE318C6FF2384019868
S214012504A38401982385019837B503001305057440
S214012514EF70403F8320C100130101016780000072
S214012524130101FF232611009300000003AE019559
S21401253483C6819803C69198930F00009302000006
S2140125449303000037830000930510001305600110
S214012554930EE001130F000F6F0080006308E60777
S21401256483270E0033F76700630E07009300060007
S2140125741386060093F6F70F938F050093820500E2
S2140125849383050023A2F19823A0E198E388A6FC8F
S214012594E398D6FDE316E6FD63860F001307E00114
S2140125A42384E198638402002385119863860300DB
S2140125B4130700FFA384E19837B503001305457696
S2140125C4EF704034130510006F00400363860F005C
S2140125D4130760012384E19863840200238511981C
S2140125E463860300130700FFA384E19837B503004D
S2140125F413050575EF700031130500002384019857
S214012604A3840198238501988320C1001301010145
S21401261467800000130101FF2326110093000000C8
S21401262403AE019583C6819803C69198930F000063
S2140126349302000093030000378300009305100003
S21401264413056001930EE001130F000F6F00800065
S2140126546308E60783270E0033F76700630E070057
S214012664930006001386060093F6F70F938F050072
S214012674938205009383050023A2F19823A0E19891
S214012684E388A6FCE398D6FDE316E6FD63860F0011
S2140126941307E0012384E1986384020023851198DB
S2140126A463860300130700FFA384E19837B503008C
S2140126B413054576EF700025130510006F004003DF
S2140126C463860F00130760012384E1986384020084
S2140126D42385119863860300130700FFA384E198FA
S2140126E437B5030013058577EF70C0211305000085
S2140126F423840198A3840198238501988320C1002B
S214012704130101016780000083A7019583A70700D1
S21401271423A2F1983787000033F7E70023A0E19856
S21401272413050000630C070203C791982385E198FB
S21401273483C68198A384D19893F7F70F2384F198DD
S2140127441306000E630EC7009307E001130500008D
S2140127546316F7009307000F6384F60C6780000086
S214012764130750076384E6066362D7029307B0062D
S2140127746384F606930740076398F600B7C7070015
S21401278403A5C72167800000678000001307000FB8
S214012794639AE602130750076386E70413072007C4
S2140127A46388E7041307B0066386E7061307400742
S2140127B413050000E394E7FAB7C7070003A58722C9
S2140127C4678000001305000067800000B7C7070094
S2140127D403A5072267800000B7C7070003A5872162
S2140127E467800000B7C7070003A5C72267800000FB
S2140127F4130101FF2326110037B50300130545799C
S214012804EF704010130500008320C100130101017D
S21401281467800000B7C7070003A54722678000004A
S214012824B7C7070003A507236780000083A70195A0
S21401283483A7070023A2F1983787000033F7E70040
S21401284423A0E198130500006308070683C6919840
S2140128542385D19803C78198A384E19893F7F70F4A
S2140128642384F1981306000E6380C6029307900230
S214012874130500006392F6046304F70A9307000F36
S214012884630EF70E67800000930640076308D706B9
S21401289463F6E602930650076306D7049306000F11
S2140128A4631ED702130750076380E7061307200742
S2140128B4130500006380E706678000009307B006EF
S2140128C46308F702930720076318F700B7C70700E2
S2140128D403A54724678000006780000013050000F5
S2140128E467800000B7C7070003A5C72367800000F9
S2140128F4B7C7070003A5872367800000B7C707008B
S21401290403A5472367800000B7C7070003A507246C
S21401291467800000B7C7070003A587246780000007
S214012924130101FF232611002324810003A6018439
S21401293483A6418403A501A183A541A1EF30905844
S21401294423A8A1A023AAB1A003A6818483A6C18437
S214012954EF40905C631E0500B7C7070003A5072573
S2140129648320C10003248100130101016780000054
S214012974B7C7070003A5C7246FF09FFEB7C70700B4
S21401298403A5072567800000130101FF2326110014
S2140129942324810023229100232021011309050009
S2140129A493840500EF50907E13040500EF60400603
S2140129B41306090093860400EF40D06E1325050024
S2140129C43305A4008320C10003248100832441002D
S2140129D403290100130101016780000003A7C198C0
S2140129E4930610062300D70083A7C19823A20700E5
S2140129F423A40700238607006780000093060500CA
S214012A04938715009385450013083000130680004C
S214012A1433E50703131725003387E600032707006A
S214012A24032747036316C70093871700E392B7FE8D
S214012A34678000001305900667800000130101FFFC
S214012A442326110083A78197639A070283A74197D8
S214012A54638E070213071000638CE7001307200038
S214012A646396E702EFF04FF0EFF00FF86F00000205
S214012A74EFF08FEAEFF04FF76F00400113071000F5
S214012A846380E702130720006380E70403A78197A6
S214012A9423AAE1968320C100130101016780000087
S214012AA483A74197638C070013072000E390E7FE92
S214012AB4EFF08FEBEFF04FFC6FF05FFDEFF0CFE040
S214012AC4EFF08FFB6FF09FFC83A74197638C0700A1
S214012AD413071000E39CE7FAEFF00FE4EFF0DF8250
S214012AE46FF0DFFAEFF04FDEEFF01F826FF01FFAA0
S214012AF4130101F52326110A2324810A238501984B
S214012B04A38401982384019883A7C19883C60700E8
S214012B1413071006638CE60E03A787001317270016
S214012B24B7A72F0093874735B387E70083A7C70660
S214012B3403A7070523ACE196EFF05FF083A7C198DE
S214012B4483A78700639407006F10503B1307100098
S214012B546394E7006F105041130720006394E70065
S214012B646F10504703A5019FEFD05FCB03A5019ECD
S214012B74EFD0DFCA03A5019DEFD05FCA0325C104C8
S214012B84EFD0DFC903250105EFD05FC90325410551
S214012B94EFD0DFC837C50300130585ADEF60905647
S214012BA483A7C19803A6870083C5070037C503001A
S214012BB41305058CEF60D042EFF09F962328A10001
S214012BC4631405006F10D04703A4C19883258400BD
S214012BD437A52F001305053CEFF05FE22324A4007C
S214012BE4930710062300F400EFF0DFE493050500D5
S214012BF437C503001305C5ABEF60903E8320C10AB9
S214012C040324810A1301010B6780000003A7470010
S214012C1413172700B7A72F0093874735B387E70015
S214012C2483A7070003A7070523ACE196EFF01FE18E
S214012C3483A7C19883A747006386070A1307100072
S214012C446386E710130720006388E71603A5019F30
S214012C54EFD0DFBC03A5019EEFD05FBC03A5019DA9
S214012C64EFD0DFBB0325C104EFD05FBB032501050D
S214012C74EFD0DFBA03254105EFD05FBA37C50300AD
S214012C841305058BEF60104883A7C19803A6470078
S214012C9483C5070037C503001305058CEF60503460
S214012CA4EFF01F882328A100630E051603A4C1981C
S214012CB48325440037A52F0013054535EFF01FD4AF
S214012CC42322A400930720062300F400EFF09FD6E6
S214012CD49305050037C503001305C5ABEF605030F7
S214012CE46FF0DFF137C403001308000293070001F5
S214012CF41307B00C9306601213060000930504D85C
S214012D041305C104EFE00FB6130800029307000190
S214012D141307B00C9306602613060000930504D827
S214012D2413050105EFE00FB4130800029307000131
S214012D341307B00C9306603A13060000930504D8F3
S214012D4413054105EFE00FB26FF05FF037C40300DF
S214012D541304041813080002930700011307B00CA8
S214012D649306601213060000930504001305C104BC
S214012D74EFE04FAF13080002930700011307B00CEE
S214012D849306602613060000930504001305010547
S214012D94EFE04FAD13080002930700011307B00CD0
S214012DA49306603A130600009305040013054105D3
S214012DB4EFE04FAB6FF09FE937C4030013040458E8
S214012DC413080002930700011307B00C9306601260
S214012DD413060000930504001305C104EFE08FA851
S214012DE413080002930700011307B00C930660262C
S214012DF4130600009305040013050105EFE08FA6F2
S214012E0413080002930700011307B00C9306603AF7
S214012E14130600009305040013054105EFE08FA493
S214012E246FF0DFE22322910A2320210B232E31099E
S214012E34232C4109232A51092328610923267109D0
S214012E4423248109232291092320A109232EB107D2
S214012E5403A5819EEFD09F9C03A5819DEFD01F9C67
S214012E6403A5819CEFD09F9B0325C104EFD01F9B34
S214012E7403250105EFD09F9A03254105EFD01F9A3C
S214012E8437C503001305858FEF60D027B7D4030039
S214012E949384049837A42F00130444359308000040
S214012EA41308E00D9307A00C130790019306E000A6
S214012EB413062000938504001305C400EF2050393F
S214012EC4930800001308E00D9307A0201307900150
S214012ED49306E00013062000938504001305C4023C
S214012EE4EF201037930800001308E00D9307A03471
S214012EF4130790019306E00013062000938504004F
S214012F041305C404EF20D03437C503001305C59157
S214012F14EF60501F83A7C19883A7470093972700A4
S214012F243304F4008327040083A7070283A707005A
S214012F342326F100930C0000B7A72F00938D473585
S214012F4483A7018503A84185232CF100232E0101C3
S214012F5483A7018403A841842320F10223220103C9
S214012F6483A70184232CF10283A74184232EF10233
S214012F7483A7818403A8C1842324F10223260103A1
S214012F849387CD00232AF1026F00C01283A7C1984C
S214012F9483A7470093972700B387FD0083A5040002
S214012FA403A50700EFE00FEA6306050023268A015E
S214012FB4930B0C0013044400130A4A009384440040
S214012FC4630CA40383A7C19883A74700939727009C
S214012FD4B387FD0003A5070083250400E308B5FABB
S214012FE4EFE04FE6E30405FA930710002320FA0006
S214012FF4930B10006FF09FF9639C0B1683A7C1987F
S21401300483A7470093972700B387FD009305000025
S21401301403A50700EFE05FA883A7C19883A747002D
S21401302493972700B387FD0083A7070003A7070527
S21401303423ACE1960329010163CE0C2613850C000B
S214013044EF50101D032681018326C101EF30107451
S2140130549304050013840500032601028326410216
S214013064EF4040746356A000832481030324C10304
S214013074032681028326C1021385040093050400F6
S214013084EF40D012EF5090109309050083A48D02EF
S214013094634C952263CAA42693850900032541033C
S2140130A4EF20503F63040900B30C9041EFF00FB5D5
S2140130B4EFF0DF9813850C00EF509015EFE08F9337
S2140130C403A6018583A64185EF40C07D635E052680
S2140130D4EFF08FE393050500B7C7070093878721B1
S2140130E483A787016382A72683A7C19883A747007E
S2140130F493972700B387FD001306000003A5070076
S214013104EFE05FBB83A7C19883A747009397270087
S214013114B387FD0083A7070083A7070283A70700D9
S2140131242328F1020327C100B38CE740232C0104B2
S214013134232E01042320010623220106232401064B
S21401314423260106B7A72F0093894735130981055E
S214013154938AC906138DC90093840A00130A0900C9
S21401316413844735930B0000130C10006FF09FE592
S214013174938B0900138B0A00130A09009304500069
S214013184130C20006F004006138D0B0003A54B01A2
S2140131948327450503A7C7016358E002130400000B
S2140131A483A7070013172400B387E70003A50700C6
S2140131B4EFD09FB51304140003254D01832745055D
S2140131C403A7C701E34EE4FCEFE08FDA6F00800249
S2140131D483274A01639E07029384F4FF130ACAFFF6
S2140131E4130BCBFF938BCBFFE3449CFE83274A014F
S2140131F4E39C07F89384F4FF9307F0FF638EF404CB
S214013204130ACAFF130BCBFF938BCBFF6FF0DFFDC3
S214013214130D0B0003258B008327450503A7C70160
S2140132246358E0021304000083A707001317240061
S214013234B387E70003A50700EFD01FAD13041400FE
S21401324403258D008327450503A7C701E34EE4FC48
S214013254EFE00FD26FF05FF883A7C19883A747000A
S21401326493972700B387FD009305000003A5070085
S214013274EFE09F821304000093042000130A600009
S2140132846F10903D83270900639E07001304140002
S214013294E30444D993894900938A4A0013094900EF
S2140132A46F10903B9305000003A54AFFEFE0CFFEA5
S2140132B46FF0DFFD8327C10003270103B38CE740CA
S2140132C4130910006FF09FD71394240083A7CD0031
S2140132D4B387870003A50700EFD01FA383A7CD02FA
S2140132E4B387870003A50700EFD01FA283A7CD04E9
S2140132F4B387870003A50700EFD01FA19384F4FFCB
S214013304E3D434FD6FF05FD91394240083A7CD0072
S214013314B387870003A50700EFD04FD083A7CD025C
S214013324B387870003A50700EFD04FCF83A7CD044B
S214013334B387870003A50700EFD04FCE938414000C
S214013344E39499FC6FF05FD523840198A3840198D4
S2140133542385019837A42F0013044435832584025A
S2140133649385F5FF1305C400EF20501383258402CB
S2140133749385F5FF1305C402EF20501283258402BA
S2140133849385F5FF1305C404EF205011EFE0DFCA5F
S21401339423840198A38401982385019883A7C1985F
S2140133A403A6470083C5070037C503001305059424
S2140133B4EF60004303A5C19EEFD04FC603A5C19D90
S2140133C4EFD0CFC503A5C19CEFD04FC50325C104DB
S2140133D4EFD0CFC403250105EFD04FC40325410523
S2140133E4EFD0CFC3EFF00FA3630A05028324410A8B
S2140133F40329010A8329C109032A8109832A410968
S214013404032B0109832BC108032C8108832C410853
S214013414032D0108832DC1076FF05F8903A5419E23
S214013424EFD0CFBF03A5419DEFD04FBF03A5419C6D
S214013434EFD0CFBE83A78197638A071013071000C6
S2140134446384E71413072000638EE71637C5030069
S2140134541305459AEF60004B13070000930700001D
S21401346423ACE1A023AEF1A023A8E1A023AAF1A0F6
S21401347483A7C19803A7470013172700B7A72F00F0
S21401348493874735B387E70083A7070003A7470356
S21401349493066000130C00006304D70263E2E61689
S2140134A493061000630ED70093062000130C100039
S2140134B46308D70003AC8703130CACFF333C8001CD
S2140134C403A7470283A7070283A60700130800027F
S2140134D49307000203270700938686FF130600005E
S2140134E4B7F504009385454D13850199EFD09FB731
S2140134F403A50199EFD08FB29304000013040000D2
S21401350403AB818083ABC18003A8C18583A7818572
S2140135142328F100232A010103A8418683A70186F3
S214013524232CF100232E010103AD018983AD4189CA
S21401353403AA018483AA418403A701842326E10004
S21401354483A741842328F1026F00401E37C5030078
S21401355413050598EF60003B930800001308D00D8F
S21401356493072010130790019306E000130620002A
S214013574B7D503009385059837A52F001305C53CD9
S214013584EF20004D6FF09FEC37C503001305C59877
S214013594EF604037930800001308D00D93072024EA
S2140135A4130790019306E00013062000B7D5030025
S2140135B49385059837A52F001305C53CEF20404990
S2140135C46FF0DFE837C5030013058599EF60803394
S2140135D4930800001308D00D9307203813079001B1
S2140135E49306E00013062000B7D5030093850598DB
S2140135F437A52F001305C53CEF2080456FF01FE566
S21401360493067000130C1000E30CD7EA6FF09FEAE0
S21401361403A50199EFD04FEF03A50199EFD09FB70A
S21401362463120C2883A7C19803A747001317270022
S214013634B7A72F0093874735B387E70083A707000B
S21401364403A7470283A7070283A6070013080002FD
S2140136549307000203270700938686FF13060000DC
S214013664B76504009385454D13850199EFD09F9F57
S21401367403A50199EFD08F9A93840C001384090053
S214013684B7C7070083A70724E3862701B7C7070040
S21401369483A78724E38A2705B7C7070083A7472399
S2140136A4E38E2709B7C7070083A78723E38A270B77
S2140136B4B7C7070083A70725E386270D03A68184DA
S2140136C483A6C18403A501A183A541A1EF30100CF3
S2140136D4130905009389050013060A0093860A0058
S2140136E4EF40400C6356A0000329C100832901035F
S2140136F403A6818483A6C184130509009385090062
S214013704EF40C02AEF50802893090500B7A72F0081
S21401371403A9873EE34A2523E34CA924938509009C
S21401372437A52F001305C53CEF20C056EFF00F90C8
S2140137341309050083AC81A183A9C1A113860400E2
S2140137449306040013850C0093850900EF30D07CA2
S214013754E30805F2130600009306000013850C0027
S21401376493850900EF30507BE30405EA13060B004A
S21401377493860B0013850C0093850900EF30D079EE
S214013784630A0516032601018326410113850C00ED
S21401379493850900EF3050786308052003268101DC
S2140137A48326C10113850C0093850900EF30D0767A
S2140137B46306052A03A6818683A6C18613850C00A3
S2140137C493850900EF3050756304053403A6018719
S2140137D483A6418713850C0093850900EF30D073C7
S2140137E46302053E03A6818783A6C18713850C0061
S2140137F493850900EF3050726300054803A60188DB
S21401380483A6418813850C0093850900EF30D07098
S214013814630E055003A6818883A6C18813850C0010
S21401382493850900EF30506F630C055A03A601898E
S21401383483A6418913850C0093850900EF30D06D6A
S214013844E31805E203A50199EFD00FCC03A501996E
S214013854EFD05F9483A7C19803A7470013172700E7
S214013864B7A72F0093874735B387E70083A70700D9
S21401387403A7470283A7070283A6070013080002CB
S2140138849307000203270700938686FF13060000AA
S214013894B7B50400938545CD13850199EFD08FFC08
S2140138A46FF01FDD83A7C19803A7470013172700EE
S2140138B4B7A72F0093874735B387E70083A7070089
S2140138C403A7470283A7070283A60700130800027B
S2140138D49307000203270700938686FF130600005A
S2140138E4B7F504009385454D13850199EFD08FF7FD
S2140138F46FF01FD803A50199EFD00FC103A5019955
S214013904EFD05F89631A0C0483A7C19803A7470005
S21401391413172700B7A72F0093874735B387E70008
S21401392483A7070003A7470283A7070283A6070006
S214013934130800029307000203270700938686FFF5
S21401394413060000B7750400938545CD13850199C8
S214013954EFD04FF16FF0DFD183A7C19803A74700DB
S21401396413172700B7A72F0093874735B387E700B8
S21401397483A7070003A7470283A7070283A60700B6
S214013984130800029307000203270700938686FFA5
S21401399413060000B7F50400938545CD13850199F8
S2140139A4EFD04FEC6FF0DFCC03A50199EFD0CFB584
S2140139B403A50199EFD00FFE631A0C0483A7C198DF
S2140139C403A7470013172700B7A72F009387473588
S2140139D4B387E70083A7070003A7470283A7070265
S2140139E483A60700130800029307000203270700B3
S2140139F4938686FF13060000B77504009385454D2C
S214013A0413850199EFD00FE66FF09FC683A7C1987F
S214013A1403A7470013172700B7A72F009387473537
S214013A24B387E70083A7070003A7470283A7070214
S214013A3483A6070013080002930700020327070062
S214013A44938686FF13060000B7E504009385454D6B
S214013A5413850199EFD00FE16FF09FC103A501997A
S214013A64EFD08FAA03A50199EFD0CFF2631A0C0405
S214013A7483A7C19803A7470013172700B7A72F00EA
S214013A8493874735B387E70083A7070003A7470251
S214013A9483A7070283A60700130800029307000200
S214013AA403270700938686FF13060000B7850400E4
S214013AB4938545CD13850199EFD0CFDA6FF05FBBBF
S214013AC483A7C19803A7470013172700B7A72F009A
S214013AD493874735B387E70083A7070003A7470201
S214013AE483A7070283A607001308000293070002B0
S214013AF403270700938686FF13060000B7E5040034
S214013B04938545CD13850199EFD0CFD56FF05FB678
S214013B1403A50199EFD04F9F03A50199EFD08FE735
S214013B24631A0C0483A7C19803A747001317270039
S214013B34B7A72F0093874735B387E70083A7070006
S214013B4403A7470283A7070283A6070013080002F8
S214013B549307000203270700938686FF13060000D7
S214013B64B78504009385454D13850199EFD08FCF12
S214013B746FF01FB083A7C19803A747001317270048
S214013B84B7A72F0093874735B387E70083A70700B6
S214013B9403A7470283A7070283A6070013080002A8
S214013BA49307000203270700938686FF1306000087
S214013BB4B7D504009385454D13850199EFD08FCA77
S214013BC46FF01FAB03A50199EFD00F9403A50199DC
S214013BD4EFD04FDC631A0C0483A7C19803A74700F0
S214013BE413172700B7A72F0093874735B387E70036
S214013BF483A7070003A7470283A7070283A6070034
S214013C04130800029307000203270700938686FF22
S214013C1413060000B7950400938545CD13850199D5
S214013C24EFD04FC46FF0DFA483A7C19803A7470062
S214013C3413172700B7A72F0093874735B387E700E5
S214013C4483A7070003A7470283A7070283A60700E3
S214013C54130800029307000203270700938686FFD2
S214013C6413060000B7D50400938545CD1385019945
S214013C74EFD04FBF6FF0DF9F03A50199EFD0CF8838
S214013C8403A50199EFD00FD1631A0C0483A7C19839
S214013C9403A7470013172700B7A72F0093874735B5
S214013CA4B387E70083A7070003A7470283A7070292
S214013CB483A60700130800029307000203270700E0
S214013CC4938686FF13060000B79504009385454D39
S214013CD413850199EFD00FB96FF09F9983A7C19807
S214013CE403A7470013172700B7A72F009387473565
S214013CF4B387E70083A7070003A7470283A7070242
S214013D0483A607001308000293070002032707008F
S214013D14938686FF13060000B7C504009385454DB8
S214013D2413850199EFD00FB46FF09F9403A5019901
S214013D34EFC09FFD03A50199EFD0CFC5631A0C040C
S214013D4483A7C19803A7470013172700B7A72F0017
S214013D5493874735B387E70083A7070003A747027E
S214013D6483A7070283A6070013080002930700022D
S214013D7403270700938686FF13060000B7A50400F1
S214013D84938545CD13850199EFD0CFAD6FF05F8E46
S214013D9483A7C19803A7470013172700B7A72F00C7
S214013DA493874735B387E70083A7070003A747022E
S214013DB483A7070283A607001308000293070002DD
S214013DC403270700938686FF13060000B7C5040081
S214013DD4938545CD13850199EFD0CFA86FF05F8900
S214013DE403A50199EFC05FF203A50199EFD08FBA3D
S214013DF4631A0C0483A7C19803A747001317270067
S214013E04B7A72F0093874735B387E70083A7070033
S214013E1403A7470283A7070283A607001308000225
S214013E249307000203270700938686FF1306000004
S214013E34B7A504009385454D13850199EFD08FA24C
S214013E446FF01F8383A7C19803A7470013172700A2
S214013E54B7A72F0093874735B387E70083A70700E3
S214013E6403A7470283A7070283A6070013080002D5
S214013E749307000203270700938686FF13060000B4
S214013E84B7B504009385454D13850199EFD08F9DF1
S214013E946FF00FFE03A981A183A9C1A113060D002A
S214013EA493860D001305090093850900EF30D006AB
S214013EB4E306058003A6818083A6C1801305090055
S214013EC493850900EF20100023ACA1A023AEB1A076
S214013ED4130605009386050037C503001305459CA4
S214013EE4EF5010106FF08FFD03A981A183A9C1A122
S214013EF413060000930600001305090093850900C4
S214013F04EF309001630C05FA03A6818083A6C18075
S214013F141305090093850900EF40C01623ACA1A040
S214013F2423AEB1A0130605009386050037C503002A
S214013F341305459CEF50D00A6FF04FF813060000A6
S214013F449306000023ACC1A023AED1A037C503005D
S214013F541305859DEF50101B130C10006FF00FF620
S214013F64130600009306000023ACC1A023AED1A023
S214013F7437C503001305C59EEF50D018130C000077
S214013F846FF0CFF303A601A183A641A137C50300B1
S214013F94130505A0EF50D00403A6818983A6C18921
S214013FA423A8C1A023AAD1A037C50300130585A25F
S214013FB4EF50100337A42F001304443583A7C19888
S214013FC483A7470093972700B307F40083A7070046
S214013FD403A747020326070083A7070283A5070052
S214013FE403A801A183A841A103A781A183A7C1A115
S214013FF4B7D603009386869B1306760093858500C1
S21401400413058409EF20400A832544099385F5FFA7
S21401401413058407EF10904803258409EFC01F8019
S21401402403A50199EFC05FCE03A50199EFD08F9642
S21401403423840198A38401982385019823A001A2CF
S2140140449304800C138A07009309200037A42F00D9
S214014054130444351309840983A701A263CEF90224
S21401406403258409EFC05FCA13050900EF208029E0
S21401407413050900EF20C03703258409EFC00FFAA2
S2140140848327440A23ACF196EFE05F9BEFE00FB77A
S2140140949384F4FFE39204FC37C50300130505A4D7
S2140140A4EF50500637A42F00130444350325840922
S2140140B4EFC09FC5032984098327490003A5070088
S2140140C4EF40101503A6818483A6C184EF30907B4C
S2140140D4EF40D00B130405008327090003A507004E
S2140140E4EF40101303A6818483A6C184EF30907930
S2140140F4EF40D00993060500130820039307200315
S2140141041307040013060000B7050500938545CD83
S2140141141385C19BEFC01FF503A5C19BEFC00FF02C
S214014124EFE0CFAD1304C00003A5C19BEFC0DFBD14
S2140141341304F4FF6302040603A5C19BEFC00FEE4C
S214014144EFE0CFAB6FF05FFEB7AC2F00938C4C352E
S21401415483A78C0713172900B387E70003A5070075
S214014164EFC09FBA1309F9FFE35439FF6FF00FDB71
S214014174B7AC2F00938C4C3583A78C0713172900F3
S214014184B387E70003A50700EFC04FE91309190039
S214014194E39429FF6FF08FD8EFE04FA603A5C19BE8
S2140141A4EFC05FFF37C50300130585A5EF50807583
S2140141B437A42F00130544351306C5069305443565
S2140141C413058509EF20003593044435130444355B
S2140141D413090000130B1000130D8000930A30001E
S2140141E46F00800783250C0003250A00EFD08FC5D6
S2140141F4630805009307100023A6FC002328310357
S214014204938B4B00938C4C00130C4C0083270101B9
S2140142146384FB0203250A0083A50B00E304B5FCB3
S214014224EFD04FC2E30005FC9307100023A0FC0067
S214014234232831036FF01FFB8327010363960708C6
S2140142449305000003250A00EFD01F851309190002
S21401425413044400630C591D130A04008327040045
S21401426483A9C705E39469FF03A74703E300A7FFF0
S21401427483A7070403A607009305090037C50300AF
S214014284130545A7EF50C055232C0104232E010422
S21401429423200106232201062324010623260106E0
S2140142A4930D8105B7A72F00138C073C23268101A4
S2140142B49387C4002328F100938C0D00938B04008C
S2140142C4232801026FF01FF5938C04008327C10095
S2140142D42328F102138C0D00930B50006F00000786
S2140142E42328910103A54C018327450503A7C7018C
S2140142F4635AE0029309000083A707001397290075
S214014304B387E70003A50700EFC01FA09389190030
S2140143148327010103A547018327450503A7C70191
S214014324E3CCE9FCEFD0CFC46F00400383274C01F4
S21401433463980704938BFBFF130CCCFF83270103BD
S2140143449387C7FF2328F102938CCCFF93072000A1
S214014354E3CE77FD83274C01E39407F8938BFBFFA9
S2140143649307F0FF6386FB06130CCCFF8327010338
S2140143749387C7FF2328F102938CCCFF6FF01FFDB0
S214014384832701032328F10003A587008327450516
S21401439403A7C701635AE0029309000083A7070035
S2140143A413972900B387E70003A50700EFC0DF953D
S2140143B4938919008327010103A5870083274505EF
S2140143C403A7C701E3CCE9FCEFD08FBA6FF09FF6E1
S2140143D49305000003250A00EFD00FEC138A0400AE
S2140143E493090000930B2000130C60006F00102447
S2140143F483A70D006392070293891900E38889E570
S214014404130A4A008327C100938747002326F10035
S214014414938D4D006F009021930500008327C10002
S21401442403A547FFEFD04FE76FF01FFD37A42F001A
S2140144341304043C1309040093090000930B1000B1
S214014444130B30006F008007938C4C00938D4D0046
S214014454130D4D00832701036382FC0483A50C001E
S21401446403250A00EFD00F9E63080500930710008A
S21401447423A0FD002326510103250A0083250D00F0
S214014484E304B5FCEFD00F9CE30005FC9307100092
S21401449423A6FD00232651016FF01FFB8327C100CD
S2140144A4639407089305000003250A00EFD0CFDEC6
S2140144B493891900130949006384691D130A0900C5
S2140144C48327090083AAC705E3947AFF03A7470352
S2140144D493068000E30ED7FC83A7070403A6070010
S2140144E49385090037C50300130585A9EF50402FAE
S2140144F4232C0104232E0104232001062322010672
S2140145042324010623260106130C81059387C40080
S2140145142328F102130D0400930D0C00938C040060
S214014524232601006FF09FF3938D04002326810058
S214014534130D0C00930C50006F0000072328B103E1
S21401454403A54D018327450503A7C701635AE00266
S214014554930A000083A7070013972A00B387E7008E
S21401456403A50700EFC04FFA938A1A0083270103B5
S21401457403A547018327450503A7C701E3CCEAFC46
S214014584EFD00F9F6F00400383274D016398070404
S214014594938CFCFF130DCDFF8327C1009387C7FFC0
S2140145A42326F100938DCDFF93072000E3CE97FDDC
S2140145B483274D01E39407F8938CFCFF9307F0FFE0
S2140145C46386FC06130DCDFF8327C1009387C7FFBF
S2140145D42326F100938DCDFF6FF01FFD8327C100C5
S2140145E42328F10203A587008327450503A7C701EE
S2140145F4635AE002930A000083A7070013972A0070
S214014604B387E70003A50700EFC00FF0938A1A00EB
S2140146148327010303A587008327450503A7C7014D
S214014624E3CCEAFCEFD0CF946FF09FF6930500003D
S21401463403250A00EFD04FC6930C0400938A0400A6
S214014644130A0000130D2000930D60006F00C07A5A
S21401465483270C00639E0700130A1A00E30ABAE5CF
S214014664938A4A00938C4C00130C4C006F00C0785C
S2140146749305000003A54CFFEFD00FC26FF0DFFDDA
S21401468437A52F001305C53EEF10C0791386C40065
S2140146949306800083A7040003A747036304D70097
S2140146A423AE070493844400E31696FE1306C4005F
S2140146B4930680008327040003A747036304D700F7
S2140146C423AE070413044400E316C4FE8324410AFC
S2140146D40329010A8329C109032A8109832A410975
S2140146E4032B0109832BC108032C8108832C410861
S2140146F4032D0108832DC1076FE04FDB37D4030078
S2140147041304849D13080002930700011307B00CD9
S2140147149306601213060000930504001305C104F2
S214014724EFC05F9413080002930700011307B00C4F
S214014734930660261306000093050400130501057D
S214014744EFC05F9213080002930700011307B00C31
S2140147549306603A13060000930504001305410509
S214014764EFC05F906FE00FC037D40300130484DDFD
S21401477413080002930700011307B00C9306601296
S21401478413060000930504001305C104EFC09F8DB2
S21401479413080002930700011307B00C9306602662
S2140147A4130600009305040013050105EFC09F8B53
S2140147B413080002930700011307B00C9306603A2E
S2140147C4130600009305040013054105EFC09F89F5
S2140147D46FE04FB937D403001304841D1308000295
S2140147E4930700011307B00C93066012130600002A
S2140147F4930504001305C104EFC0DF861308000205
S214014804930700011307B00C9306602613060000F5
S2140148149305040013050105EFC0DF8413080002A5
S214014824930700011307B00C9306603A13060000C1
S2140148349305040013054105EFC0DF826FE08FB2D4
S2140148442322910A2320210B232E3109232C4109EB
S214014854232A51092328610923267109232481095E
S214014864232291092320A109232EB10703A5819EA2
S214014874EFB0DFFA03A5819DEFB05FFA03A5819C33
S214014884EFB0DFF90325C104EFB05FF90325010595
S214014894EFB0DFF803254105EFB05FF883A7C198B1
S2140148A403A7870013172700B7A72F009387473559
S2140148B4B387E70083A7C70683A7070283A7070072
S2140148C42326F100930C0000B7A72F00938D4735DC
S2140148D483A7018503A84185232CF100232E01011A
S2140148E483A7018403A841842320F1022322010320
S2140148F483A70184232CF10283A74184232EF1028A
S21401490483A7818403A8C1842324F10223260103F7
S2140149149387CD00232AF1026F00C01213044400CA
S214014924130A4A00938444006300A40783A7C1982A
S21401493483A7870093972700B387FD008325040088
S21401494403A5C706EFC01FD06306050023208A010E
S214014954930B0C0083A7C19883A78700939727001E
S214014964B387FD0003A5C70683A50400E308B5FACB
S214014974EFC05FCDE30405FA930710002326FA007F
S214014984930B10006FF09FF9639C0B1683A7C198D5
S21401499483A7870093972700B387FD00930500003C
S2140149A403A5C706EFD04F8F83A7C19883A78700B7
S2140149B493972700B387FD0083A7C70603A70705B8
S2140149C423ACE1960329010163CE0C2613850C0062
S2140149D4EF400004032681018326C101EF20005B1A
S2140149E4930405001384050003260102832641026D
S2140149F4EF20505B6356A000832481030324C10384
S214014A04032681028326C10213850400930504004C
S214014A14EF20D079EF3090779309050083A48D02B7
S214014A24634C952263CAA426938509000325410392
S214014A34EF10402663040900B30C9041EFD01F9C8D
S214014A44EFD0DFFF13850C00EF30907CEFC08FFAB8
S214014A5403A6018583A64185EF20D064635E0526FF
S214014A64EFD09FCA93050500B7C707009387872130
S214014A7483A787016382A72683A7C19883A7870094
S214014A8493972700B387FD001306000003A5C70606
S214014A94EFD04FA283A7C19883A7870093972700D7
S214014AA4B387FD0083A7C70683A7070283A707006A
S214014AB42328F1020327C100B38CE740232C010409
S214014AC4232E0104232001062322010623240106A2
S214014AD423260106B7A72F009389473513098105B5
S214014AE4938AC906138DC90093840A00130A090020
S214014AF413844735930B0000130C10006FF01FE36B
S214014B04938B0900138B0A00130A090093045000BF
S214014B14130C20006F004006138D0B0003A54B01F8
S214014B248327450503A7C7016358E0021304000061
S214014B3483A7070013172400B387E70003A507001C
S214014B44EFC08F9C1304140003254D0183274505EC
S214014B5403A7C701E34EE4FCEFC09FC16F008002C8
S214014B6483274A01639E07029384F4FF130ACAFF4C
S214014B74130BCBFF938BCBFFE3449CFE83274A01A5
S214014B84E39C07F89384F4FF9307F0FF638EF40421
S214014B94130ACAFF130BCBFF938BCBFF6FF0DFFD1A
S214014BA4130D0B0003258B008327450503A7C701B7
S214014BB46358E0021304000083A7070013172400B8
S214014BC4B387E70003A50700EFC00F94130414008E
S214014BD403258D008327450503A7C701E34EE4FC9F
S214014BE4EFC01FB96FF05FF883A7C19883A787004A
S214014BF493972700B387FD009305000003A5C70616
S214014C04EFC09FE91304000093042000130A600018
S214014C146F00802783270900639E0700130414008E
S214014C24E30444D993894900938A4A001309490045
S214014C346F0080259305000003A54AFFEFC0DFE55A
S214014C446FF0DFFD8327C10003270103B38CE74020
S214014C54130910006FF09FD71394240083A7CD0087
S214014C64B387870003A50700EFC00F8A83A7CD0289
S214014C74B387870003A50700EFC00F8983A7CD0478
S214014C84B387870003A50700EFC00F889384F4FF5A
S214014C94E3D434FD6FF05FD91394240083A7CD00C9
S214014CA4B387870003A50700EFB05FB783A7CD02DC
S214014CB4B387870003A50700EFB05FB683A7CD04CB
S214014CC4B387870003A50700EFB05FB5938414008C
S214014CD4E39499FC6FF05FD537A42F001304443591
S214014CE4832584029385F5FF1305C400EF00107B2A
S214014CF4832584029385F5FF1305C402EF00107A19
S214014D04832584029385F5FF1305C404EF00107907
S214014D14EFD08FB223840198A38401982385019848
S214014D2483A7C19803A6870083C5070037C5030078
S214014D3413050594EF40D02A03A5C19EEFB01FAE1C
S214014D4403A5C19DEFB09FAD03A5C19CEFB01FADF8
S214014D540325C104EFB09FAC03250105EFB01FACDA
S214014D6403254105EFB09FABEFD0DF8A630A050246
S214014D748324410A0329010A8329C109032A8109D3
S214014D84832A4109032B0109832BC108032C8108BB
S214014D94832C4108032D0108832DC1076FD0DFE260
S214014DA437C503001305459AEF40D03537C50300D0
S214014DB4130585AEEF4010358324410A0329010A01
S214014DC48329C109032A8109832A4109032B01097D
S214014DD4832BC108032C8108832C4108032D010869
S214014DE4832DC1076FD05FDE130A1A00938A4A0027
S214014DF4938C4C00130C4C00E34C4D8583270C001C
S214014E04E38407FE9305000003A50A00EFC0DFC88C
S214014E146FF09FFD93891900130A4A008327C10086
S214014E24938747002326F100938D4D0063C23BDD33
S214014E3483A70D00E38007FE9305000003250A00FF
S214014E44EFC09FC56FF01FFD13041400938949003A
S214014E54938A4A001309490063D484006FE08FC221
S214014E6483270900E38207FE9305000003A50900D2
S214014E74EFC09FC26FF05FFD1304140093894900CD
S214014E84938A4A0013094900E3C684D88327090094
S214014E94E38407FE9305000003A50900EFC0DFBF06
S214014EA46FF09FFD130101FC232E1102232C8102B6
S214014EB4232A910223282103232631032324410391
S214014EC42322510323206103232E7101232C810104
S214014ED4232A9101B7C80300938408D8B7E60300D0
S214014EE4938606D837A42F0013044435130B040BFA
S214014EF4232201001309100623202101938808D8D0
S214014F0413888685938786C5138786059386864583
S214014F141306F0089305400713050B00EFC00FB303
S214014F24B7F60300938606D8930A4411930C10002F
S214014F342322910123202101938804401388868526
S214014F44938786C513878605938686451306F008D8
S214014F549305600A13850A00EFC04FAFB7D4030068
S214014F64938404D8B7060400938606D8130A8417D4
S214014F74930720002322F100232021019388048033
S214014F8413888685938786C5138786059386864503
S214014F941306F0089305800D13050A00EFC00FAB46
S214014FA4B7160400938606D89309C41D93073000E8
S214014FB42322F100130C200623208101938884C543
S214014FC413888685938786C51387860593868645C3
S214014FD41306F0089305C03913850900EFC00FA71F
S214014FE4B7260400938606D81309042493074000C1
S214014FF42322F10023208101938884051388868562
S214015004938786C513878605938686451306F00817
S2140150149305A03613050900EFC04FA3B736040065
S214015024938606D8930B442A930750002322F10053
S214015034232081019388844513888685938786C5B2
S21401504413878605938686451306F00893058033F1
S21401505413850B00EFC08F9FEFD05F982320640168
S2140150642322540123244401232634072328240716
S214015074232A7407EFD04FC283A7C19823869701CA
S21401508437B52F001305058AEF00900A03A5C1A0C2
S214015094EFB09FC79306800213068002B7A50700E8
S2140150A4938505F1B7B42F001385C487EF00C05567
S2140150B41385C487EF0040771385C487EF00500734
S2140150C4B7440400938404D813085001930750018D
S2140150D4130770029306A0111306100093858485A6
S2140150E41385819BEFB01FF803A5819BEFB00FF3E7
S2140150F403A5819BEFC00F8A1308100293072003B0
S2140151041307C0089306B00413061000B7950700EA
S2140151149385C5221385419BEFB0DFF403A5419B1C
S214015124EFB0CFEF03A5419BEFC0CF861308B001C4
S2140151349307003C1307D00A9306000013061000D9
S214015144B7C506009385C57A1385019BEFB09FF119
S21401515403A5019BEFB08FEC03A5019BEFC08F83E2
S2140151641308500A930740051307B0009306C02896
S21401517413061000B7650600938545B61385C19AD4
S214015184EFB05FEE03A5C19AEFB04FE903A5C19A4C
S214015194EFC04F801308C005930700071307800567
S2140151A49306900813061000B7450500938545DE5F
S2140151B413854199EFB01FEB03A54199EFB00FE6B4
S2140151C403A54199EFB01FFD130880039307D0058B
S2140151D4130720089306603013061000B7950500E0
S2140151E4938545E61385C199EFB0DFE703A5C19919
S2140151F4EFB0CFE203A5C199EFB0DFF91308A00120
S21401520493072002130790099306A02013061000A3
S2140152149385C4BC13858199EFB0DFE403A5819916
S214015224EFB0CFDF03A58199EFB0DFF61308400492
S2140152349307E0101307D0019306D0151306100048
S214015244B7D50500938545BF1385819AEFB09FE1D5
S21401525403A5819AEFB08FDC03A5819AEFB09FF383
S214015264130890059307F0001307F005930600153D
S21401527413061000B7C50500938545181385419A92
S214015284EFB05FDE03A5419AEFB04FD903A5419A6B
S214015294EFB05FF0130890059307F0001307F005CD
S2140152A49306902613061000B7B50500938545713D
S2140152B41385019AEFB01FDB03A5019AEFB00FD651
S2140152C403A5019AEFB01FED930C84309307900069
S2140152D4130750019306D0021306A0119385442B9D
S2140152E413850C00EFB00F8B13850C00EFB0CFA91C
S2140152F4930C8432930770001307000293069009F7
S2140153041306A0209385044313850C00EFB08F8801
S21401531413850C00EFB04FA7930C84349307400019
S2140153241307C0029306A0091306E0049385045FDD
S21401533413850C00EFB00F8613850C00EFB0CFA4D5
S214015344930C843693073000130780139306D00A10
S214015354130600009385047513850C00EFB08F8344
S21401536413850C00EFB04FA29304843893075000C2
S2140153741307E0159306D00A13062026B735050051
S2140153849385850313850400EFB0CF80138504004D
S214015394EFB08F9FB7540400938404D8930C843AD7
S2140153A4930750001307C0089306200B1306C01377
S2140153B4938504EA13850C00EFA0DFFD13850C002A
S2140153C4EFB08F9C930C843C930760001307F006A0
S2140153D49306200B1306501F9385844113850C00F6
S2140153E4EFA05FFB13850C00EFB00F9AB7640400BF
S2140153F4938404D8930C843E9307A00013072004D7
S214015404930630041306A0289385C49413850C00D0
S214015414EFA05FF813850C00EFB00F97930C844050
S21401542493078000130760019306F0041306C02A4D
S214015434938544E713850C00EFA0DFF513850C0074
S214015444EFB08F94930C8442930780001307900166
S214015454930610061306C02A938544FD13850C0093
S214015464EFA05FF313850C00EFB00F92930C844406
S214015474930780001307C001930630071306B02A6A
S2140154849385441613850C00EFA0DFF013850C00FA
S214015494EFB08F8F930C84469307800013070002A6
S2140154A4930630081306A02A9385443213850C000C
S2140154B4EFA05FEE13850C00EFB00F8D930C8448BC
S2140154C49307800013073002930660091306A02A87
S2140154D49385445213850C00EFA0DFEB13850C0073
S2140154E4EFB08F8A9304844A9307B0001307001021
S2140154F49306D00113064016B71505009385C50516
S21401550413850400EFA01FE913850400EFB0CF87CD
S2140155141304844C9307D000130710069306100651
S21401552413064009B72505009385C56513050400D0
S214015534EFA05FE613050400EFB00F859305100096
S21401554413050B00EFC04FD59305100013850A0011
S214015554EFC08FD49305100013050A00EFC0CFD314
S2140155649305100013850900EFC00FD393051000AF
S21401557413050900EFC04FD29305100013850B00E5
S214015584EFC08FD113050B00EFC08FB113850A004E
S214015594EFC00FB113050A00EFC08FB013850900E1
S2140155A4EFC00FB013050900EFC08FAF13850B00D2
S2140155B4EFC00FAF83A7C19883C7C700638C0700EA
S2140155C413040C00EFD0CFD283A7C19883C7C700BA
S2140155D4E39A07FE8320C103032481038324410342
S2140155E4032901038329C102032A8102832A410272
S2140155F4032B0102832BC101032C8101832C41015E
S2140156041301010467800000130101FA232E11041B
S214015614232C8104232A91042328210523244105CC
S21401562423225105232A91032326B103930C050053
S214015634232CB100930D0600138906002328D100FC
S2140156449307003C33E4C70233348000B3C7C70270
S2140156543304F400232085029307000FB3E4D70232
S214015664B3349000B3C7D702B384F400232E950055
S2140156743305D60213152500EF30805123A2AC0062
S21401568413054000EF30C05023A4AC0013054000BE
S214015694EF30005023A6AC0013054000EF30404F16
S2140156A423A8AC0023AABC0123AC2C0123200500AB
S2140156B43305940213152500EF30804D23A0AC006A
S2140156C4232E010023260100130A0000930A00007A
S2140156D4635890122326310523206105232E710376
S2140156E4232C81032328A1036F00800E1305400396
S2140156F4EF30004A13040500832781012322F502B3
S21401570483270101232AF5002328B50183A74C002A
S2140157142324F50213054000EF308047930B050060
S2140157242320A40013054000EF308046130B050028
S2140157342322A40013058000EF3080459309050059
S214015744232EA40013058000EF30804413090500BE
S2140157542320A40213054000EF308043232CA40029
S21401576423A0AB01832741012320FB0023A0490189
S21401577423A259012320490123225901232005008C
S2140157848327C100B384F402B384840183A70C0085
S21401579493942400B387970023A08700130C1C005E
S2140157A483A40C02330DBD01E3429CF48327C1009C
S2140157B4138717002326E1008327C10183260101ED
S2140157C4B387D700232EF10083A7CC016350F702D9
S2140157D483A40C028327C101232AF100130D0000C0
S2140157E4130C0000E34490F06FF05FFC8329C104BE
S2140157F4032B0104832BC103032C8103032D010313
S2140158048320C10503248105832441050329010559
S214015814032A8104832A4104832C4103832DC10274
S2140158241301010667800000130101FF23261100FE
S2140158342322910023202101930405008327C50117
S21401584413090000635AF004232481006F008003C7
S214015854B3872703B387870003A70400939727001A
S214015864B307F70003A50700EFA05FFB13041400BA
S21401587483A70402E34EF4FC1309190083A7C401A9
S214015884635AF90083A7040213040000E342F0FC00
S2140158946FF09FFE032481008320C100832441000E
S2140158A4032901001301010167800000130101FFB0
S2140158B423261100232291002320210193040500AD
S2140158C48327C50113090000635AF00423248100C9
S2140158D46F008003B3872703B387870003A70400F9
S2140158E493972700B307F70003A50700EFB0CFC1CE
S2140158F41304140083A70402E34EF4FC13091900ED
S21401590483A7C401635AF90083A7040213040000A1
S214015914E342F0FC6FF09FFE032481008320C10064
S214015924832441000329010013010101678000005B
S214015934130101FE232E1100232A9100232631018F
S214015944930405008327C501930900006354F00CF2
S214015954232C8100232821016F00400A1309190012
