S00C00006D61696E2E7372656373
S214010094977107009381C1E51701FF03130141F628
S2140100A41385019317562F001306068B3306A640B5
S2140100B493050000EF80902D17950000130585A782
S2140100C4EF70407DEF80101D13050000930541007D
S2140100D413060000EF00800E6F70007D3765080080
S2140100E4376708009307C56E1307C76E630AF700E0
S2140100F493070000638607001305C56E6780070033
S21401010467800000376508009307C56E37670800E7
S2140101149305C76EB385F54093D7254093D5F5016E
S214010124B385F50093D51540638A0500930700004F
S214010134638607001305C56E6780070067800000A5
S214010144130101FF2324810083C7C19E23261100C6
S21401015463940702EFF09FF893070000638A070091
S214010164376508001305050097000000E700000046
S214010174930710002386F19E8320C1000324810087
S21401018413010101678000009307000063860702DC
S21401019437650800130101FF9385019F13050500C8
S2140101A42326110097000000E70000008320C10009
S2140101B4130101016FF01FF56FF0DFF4130101FD68
S2140101C423261102232481022322910223202103C0
S2140101D4232E3101232C4101EF208034EF1090753A
S2140101E4EF20900E13088002930700141307800C67
S2140101F4930600001306000037AA030093050A4C71
S2140102041385419BEF0010751308800293070014B1
S2140102141307800C9306000013060000B78902003A
S2140102249385098C1385019BEF00D0721308800215
S214010234930700141307800C9306000013060000AE
S214010244374903009305090C1385C19AEF00907092
S21401025413088002930700141307800C930600000A
S21401026413060000B7E40200938504CC1385819A33
S214010274EF00506E13088002930700141307800CD6
S2140102849306000013060000371402009305044C7D
S2140102941385419AEF00106C13088002930700142B
S2140102A41307800C930600141306000093050A4CEA
S2140102B41385019AEF00106A13088002930700144D
S2140102C41307800C93060000130600009385098C1F
S2140102D41385C199EF001068130880029307001470
S2140102E41307800C93060014130600009305090CEB
S2140102F413858199EF001066130880029307001492
S2140103041307800C9306001413060000938504CC8F
S21401031413854199EF0010641308800293070014B3
S2140103241307800C93060014130600009305044C6F
S21401033413850199EF0010621308800293070014D5
S2140103441307800C930600281306000093050A4C35
S2140103541385C198EF0010601308800293070014F8
S2140103641307800C93060000130600009385098C7E
S21401037413858198EF00105E13088002930700141A
S2140103841307800C93060028130600009305090C36
S21401039413854198EF00105C13088002930700143C
S2140103A41307800C9306002813060000938504CCDB
S2140103B413850198EF00105A13088002930700145E
S2140103C41307800C93060028130600009305044CBB
S2140103D41385C197EF0010581308D0079307A00F91
S2140103E41307E0019306300213060000B715040054
S2140103F49385058C1385C19BEF00D0559306800227
S21401040413068002B7050500938545CEB744300030
S21401041413854464EF40C00213854464EF404024CE
S21401042403A5C19BEF00804E03A5C19BEF00906519
S21401043413088000930700011307000593060005BF
S21401044413060000B71502009385053C1305C10089
S214010454EF0050500325C100EF00404BEF309006EB
S214010464130500008320C102032481028324410270
S214010474032901028329C101032A8101130101030E
S21401048467800000130101FC232E1102232C810234
S214010494232A9102232821032326310323244103FB
S2140104A42322510323206103232E7101232C81016E
S2140104B4232A91012328A1012326B101130405004F
S2140104C4938C0500930D0600138D0600130B07008D
S2140104D4938B07003305F70213151500EF70803F61
S2140104E4130C050013054000EF70C03E930A050087
S2140104F42322A40013054000EF70C03D130A050033
S2140105042324A40013058000EF70C03C9309050062
S2140105142326A40013058000EF70C03B13090500D1
S2140105242328A40013054000EF70C03A9304050085
S214010534232AA400232C6401232E7401930710009C
S2140105442320F50023A0BA012320AA0113070000E3
S2140105549307000023A0E90023A2F9002320E90061
S2140105642322F90013054003EF70C0362320A400AC
S21401057423229503232A7501232865012324850351
S2140105842320550123224501232E3501232025034B
S214010594232C95008320C103032481038324410370
S2140105A4032901038329C102032A8102832A410202
S2140105B4032B0102832BC101032C8101832C4101EE
S2140105C4032D0101832DC10013010104678000007E
S2140105D46302050A130101FF232611002324810067
S2140105E4232291001304050013054001EF70802EA9
S2140105F493040500630805068327440003A7070040
S21401060423A0E400032784008326070023A2D40042
S21401061483A7070083268401B387D70023A4F400A5
S2140106248326C4019307900063C6D7009307A000EE
S214010634232EF400832707000327C401B387E700AA
S21401064423A6F40003A7019323A8E40023A8919208
S2140106548320C10003248100832441001301010186
S214010664678000003715050013054596EF70D07DA9
S2140106746FF09FF867800000130101FF2326110025
S214010684232481001304050003250500EF00002838
S21401069413050400EFF0DFF38320C1000324810077
S2140106A41301010167800000130101FF23261100D5
S2140106B42324810003A401936302040423229100EA
S2140106C423202101930400003719050093850400B3
S2140106D48327C400032784008326440003260400DA
S2140106E49384140013050998EF70D063032404015E
S2140106F4E31E04FC83244100032901008320C10076
S214010704032481001301010167800000130101FE27
S214010714232E110083A70193638E070A232C8100DD
S214010724232A9100232821012326310113040500DD
S2140107349384050013090600938906001305000037
S2140107446F00000283A6070123A8D1926F0000045C
S21401075403A7070113850700630607069307070027
S21401076403A70700E31687FE03A74700E31297FED5
S21401077403A78700E31E27FD03A7C700E31A37FD77
S214010784E30205FC03A707012328E50013850700F8
S214010794EF700015138709009306090013860400F9
S2140107A493050400371505001305059AEF70905755
S2140107B40324810183244101032901018329C10002
S2140107C46F000002032481018324410103290101EE
S2140107D48329C100371505001305C59CEF70D06643
S2140107E48320C1011301010267800000130101FF88
S2140107F42326110023248100130405000325050084
S214010804EF00805F8327440003A507008327840045
S21401081483A507008326C40103268401B386D50075
S2140108243306C500EFF09FEE8320C1000324810048
S2140108341301010167800000630C0506130101FF23
S214010844232611002324810013040500EFF01FFA68
S2140108548327040003A58702EF708008032544005C
S21401086463040500EF70C0070325840063040500D4
S214010874EF7000070325C40063040500EF7040060B
S2140108840325040163040500EF7080050325440174
S21401089463040500EF70C00413050400EF70400400
S2140108A48320C10003248100130101016780000035
S2140108B46780000083274501130600009305F0FFB7
S2140108C4634CF00267800000B387C702B387E70072
S2140108D48326850293971700B387F6002390B70003
S2140108E41307170083270501E340F7FE13061600D6
S2140108F483274501635AF600832705011307000081
S214010904E344F0FC6FF09FFE67800000130101FED4
S214010914232E1100232C81001304050083270500D0
S21401092483A707002324F5008327450083A7070030
S2140109342326F500EFF01FF8930710002326F40290
S214010944832744016352F04A232A91002328210174
S21401095423263101232441012322510113060000D9
S2140109641303000F1305003C1308F0FF9302100055
S214010974130EF01337EF2600130F8F0FB78E1D00DB
S214010984938E8E0F930420001309F027B78F160059
S214010994938F8F8F6F0000428329440003AA0900B6
S2140109A4330A460193194A00B38949419399690068
S2140109B4B386D90093961600B386DF0083990600A2
S2140109C483268402B387F6002390370183274400E5
S2140109D483A60700B306D60083290400939746002E
S2140109E4B387D7409397670083A60900B306D70059
S2140109F4B387D70093971700B387FF002390B700F8
S214010A046F00C000638E590C638A9926130717007A
S214010A1483270401635AF7388326040083A6060055
S214010A24B306D700E364D5FEB387C702B387E700EE
S214010A349397170083254402B385F5008395050033
S214010A44E38605FD83A98193E39E09FAE346DEF472
S214010A5403AAC1938326C400B306D60093969600D0
S214010A6483298400B3093701B386360193961600A9
S214010A74B386460183D9060083268402B387F6002B
S214010A84239037018327440083A70700B307F600A2
S214010A94939797008326040083A60600B306D7001F
S214010AA4B387D70093971700B387E7012390B7005E
S214010AB48327440083A70700B307F600939797009C
S214010AC48326040083A60600B306D700B387D7009F
S214010AD493971700B387D7012390B7006FF01FF3DE
S214010AE4635ADE0A6342D91203AAC1938326C40059
S214010AF4B306D60093969600938606EC8329840063
S214010B04B3093701B386360193961600B3864601B8
S214010B1483D9060083268402B387F600239037011F
S214010B248327440083A70700B307F600939797002B
S214010B34938707EC8326040083A60600B306D70032
S214010B44B387D70093971700B7E626009386860FD8
S214010B54B387D7002390B7008327440083A70700F1
S214010B64B307F60093979700938707EC8326040050
S214010B7483A60600B306D700B387D700939717005A
S214010B84B7861D009386860FB387D7002390B700D8
S214010B946FF0DFE7378A1600130A8A8F8329440029
S214010BA483AA0900B30A560193994A00B3895941A5
S214010BB493996900B386D90093961600B306DA00B2
S214010BC48399060083268402B387F60023903701AF
S214010BD48327440083A60700B306D60083290400AE
S214010BE493974600B387D7409397670083A6090077
S214010BF4B306D700B387D70093971700330AFA00D2
S214010C042310BA006FF09FE0378A1600130A8A8F02
S214010C148329440083AA0900B30A560193994A001A
S214010C24B389594193996900B386D90093961600FE
S214010C34B306DA008399060083268402B387F60096
S214010C44239037018327440083A60700B306D60002
S214010C548329040093974600B387D7409397670088
S214010C6483A60900B306D700B387D7009397170066
S214010C74330AFA002310BA006FF05FD9635CD90A0D
S214010C849309003CE38436D903AAC1938326C4009E
S214010C94B306D60093969600938606D883298400D5
S214010CA4B3093701B386360193961600B386460117
S214010CB483D9060083268402B387F600239037017E
S214010CC48327440083A70700B307F600939797008A
S214010CD4938707D88326040083A60600B306D700A5
S214010CE4B387D70093971700B7E626009386860F37
S214010CF4B387D7002390B7008327440083A7070050
S214010D04B307F60093979700938707D883260400C2
S214010D1483A60600B306D700B387D70093971700B8
S214010D24B7861D009386860FB387D7002390B70036
S214010D346FF0DFCD378A1600130A8A8F83294400A1
S214010D4483AA0900B30A560193994A00B389594103
S214010D5493996900B386D90093961600B306DA0010
S214010D648399060083268402B387F600239037010D
S214010D748327440083A60700B306D600832904000C
S214010D8493974600B387D7409397670083A60900D5
S214010D94B306D700B387D70093971700330AFA0030
S214010DA42310BA006FF09FC613061600832744016A
S214010DB46352F6028327440083A70700B307F600AD
S214010DC4E364F3FE83270401E350F0FE13070000F7
S214010DD46FF09FC483244101032901018329C100C3
S214010DE4032A8100832A41008320C101032481014F
S214010DF413010102678000000327C5029307100050
S214010E046306F70023260502678000008327450151
S214010E146354F028130101FF232681002324910043
S214010E24232221012320310183A581931306000087
S214010E34130F000F1308F0FF13031000930F200085
S214010E449308F013B7EE2600938E8E0F378E1D008F
S214010E54130E8E0F9303F0271304F03BB78216008C
S214010E649382828F6F0000200329C500330926016F
S214010E7493164900B386264193966600B386960078
S214010E8493961600B386D2002390F6006F00C00036
S214010E9463846508638CF51313071700832705011C
S214010EA4635CF71AB387C702B387E7008326850214
S214010EB493971700B387F60083970700E38E07FD21
S214010EC4E39805FC83248500B3049700E3C604FC79
S214010ED4E3CC98F88326C500B306D600939696000D
S214010EE4B386960093961600B386D6012390F60031
S214010EF48326C500B306D600939696008324850000
S214010F04B3049700B386960093961600B386C6017B
S214010F142390F6006FF05FF883248500B3049700EE
S214010F2463DA980463CC93068326C500B306D60019
S214010F3493969600938606ECB386960093961600CF
S214010F44B386D6012390F6008326C500B306D600E1
S214010F5493969600938606EC83248500B304970043
S214010F64B386960093961600B386C6012390F600C0
S214010F746FF09FF20329C500330926019316490031
S214010F84B386264193966600B3869600939616001A
S214010F94B386D2002390F6006FF01FF0378916004F
S214010FA48329C500B309360193964900B3863641B1
S214010FB493966600B3869600939616009304898FDB
S214010FC4B386D4002390F6006FF01FED83248500CA
S214010FD4B304970063DA9304E34094EC8326C500D4
S214010FE4B306D60093969600938606D8B3869600E3
S214010FF493961600B386D6012390F6008326C50081
S214011004B306D60093969600938606D88324850065
S214011014B3049700B386960093961600B386C6016A
S2140110242390F6006FF05FE7378916008329C50021
S214011034B309360193964900B38636419396660002
S214011044B3869600939616009304898FB386D400CC
S2140110542390F6006FF05FE413061600832745011C
S2140110646350F6028327C500B307F600E366FFFE66
S21401107483270501E352F0FE130700006FF09FE299
S2140110840324C1008324810003294100832901002C
S21401109413010101678000006780000093070500C3
S2140110A403278501032507006302050603A78501B7
S2140110B403250700630C050403A70700832607001E
S2140110C403A705000326070003A705013307E60067
S2140110D41305000063DCE60203A70701B386E600F6
S2140110E46356D60203A747008326070003A74500D5
S2140110F40326070003A745013307E60063D8E60085
S21401110483A74701B386F6003325D600678000001F
S214011114032705008327070083A6050003A6060008
S2140111249386570063D4C7009386B7FF2320D7005E
S214011134032745008327070083A6450003A6060068
S2140111449386570063D4C7009386B7FF2320D7003E
S21401115467800000130101FC232E1102232C810257
S214011164232A91022328210323263103232441031E
S2140111742322510323206103232E7101232C810191
S214011184232A91012328A1012326B10193040500F2
S214011194938D0500930C0600138C0600930B070031
S2140111A4138B0700930A080013054003EF6080724F
S2140111B41304050023A0A40033055B0313151500CF
S2140111C4EF604071130D050013054000EF60807059
S2140111D4130A05002320A40013054000EF60806F66
S2140111E4930905002322A40013058000EF60806E96
S2140111F413090500232EA40013058000EF60806DFB
S214011204930405002320A40213054000EF60806CBC
S214011214232CA40023286401232A54012322B40383
S2140112242324A4032320950123208A0123A07901E2
S21401123413070000930700002320E9002322F90086
S21401124423A0E40023A2F4008320C1030324810322
S21401125483244103032901038329C102032A81024A
S214011264832A4102032B0102832BC101032C810132
S214011274832C4101032D0101832DC10013010104B7
S21401128467800000630E0504130101FF2326110085
S214011294232481001304050003250500EF60406440
S2140112A403254400EF60C0630325C401EF60406377
S2140112B403250402EF60C06203258401EF604062E7
S2140112C403258402EF60C06113050400EF604061EA
S2140112D48320C100032481001301010167800000FB
S2140112E467800000130101FF2326110023248100D7
S2140112F423229100930405001384050013060000BD
S214011304930600001385040093050400EF50C01DE6
S2140113146340050213850400930504008320C1007D
S2140113240324810083244100130101016780000026
S214011334B707008033C487006FF0DFFD130101FA9D
S214011344232E1104232C8104232A91042328210506
S2140113542326310523244105232251052320610533
S214011364232E7103232C8103232A91032328A1030B
S2140113742326B1031304050093840500130906000C
S214011384138D06002328E100232AF100232C0101F2
S214011394232E1101834D010613050040EF6080538F
S2140113A42320A10013050040EF60C0522322A100B0
S2140113B413050040EF6000522324A10013050040EA
S2140113C4EF6040512326A10013050040EF608050D2
S2140113D4930C050013054000EF60C04F930B050006
S2140113E42320A40213054000EF60C04E130B050032
S2140113F42322A40213058000EF60C04D930A050062
S2140114042324A40213058000EF60C04C130A0500D0
S2140114142326A40213054000EF60C04B130C0500FD
S2140114242328A40213054000EF60C04A930905006F
S2140114342320A404232A040293071000232CF40473
S214011444232E0402930700012322F40493070002C7
S2140114542324F40413050002EF60C0471307F013B6
S2140114649307000063589700938704ECB337F7009B
S21401147493871700232AA404032741062320E4069E
S214011484232E04042328F404930710002320FC00CD
S21401149423A09B0023202B011307000093070000C1
S2140114A423A0EA0023A2FA002320EA002322FA005A
S2140114B49307400623A0F90093071006638EFD18D0
S2140114C49308A0001308D9FF938734001307A000DC
S2140114D493062000130610009385818FEF30C03ADF
S2140114E413054003EF60003F930405002320A40086
S2140114F42322A50393090002232A350113090001B7
S214011504232825012324950313054003EF60803C1B
S214011514130A05002322A400832701012322F502CE
S214011524232A350123282501832701002324F502D4
S21401153413054003EF60003A930A05002324A40030
S214011544832741012322F502232A35012328250175
S214011554832741002324F50213054003EF608037F7
S214011564130B05002326A400832781012322F502F9
S214011574232A350123282501832781002324F50204
S21401158413054003EF6000352328A4008327C10117
S2140115942322F502232A3501232825018327C100A6
S2140115A42324F5028325040223A0B400032644025F
S2140115B423A2C4008326840223AED4000327C402D4
S2140115C423A0E4028327040323ACF4002320BA00F7
S2140115D42322CA00232EDA002320EA02232CFA004F
S2140115E423A0BA0023A2CA0023AEDA0023A0EA028B
S2140115F423ACFA002320BB002322CB00232EDB00DE
S2140116042320EB02232CFB002320B5002322C50054
S214011614232ED5002320E502232CF5008320C105C3
S2140116240324810583244105032901058329C10473
S214011634032A8104832A4104032B0104832BC10357
S214011644032C8103832C4103032D0103832DC10243
S21401165413010106678000009308A0001308D9FF50
S214011664938734001307A000930620001306100086
S2140116749385C18FEF3040216FF09FE6130101FF80
S21401168423261100232481001304050063000504A6
S2140116948327040283A50700032544043385A50094
S2140116A48327440283A6070083278404B386F600AF
S2140116B483A7019363980702232E04028320C100A3
S2140116C4032481001301010167800000371505001A
S2140116D41305C59DEF6050776FF09FFB83A7070145
S2140116E4E38C07FC03A74700E3CAE6FE03A6C7008C
S2140116F4E346D6FE03A68700E342B6FE03A607002A
S214011704E34EC5FC93071000232EF4028327C4027C
S214011714130600009306000023A0C70023A2D700E7
S21401172483274402832684043307D74023A0E70093
S2140117346FF0DFF893070500032705030325070069
S2140117446302050603A7050303250700630C0504C6
S21401175403A707028326070003A70502032607003B
S21401176403A745043307E6001305000063DCE6021D
S21401177403A74704B386E6006356D60203A74702C7
S2140117848326070003A745020326070003A785044B
S2140117943307E60063D8E60083A78704B386F6001A
S2140117A43325D60067800000930705000327050349
S2140117B4032507006302050603A785010325070021
S2140117C4630C050403A707028326070003A7050085
S2140117D40326070003A705013307E60013050000E7
S2140117E463DCE60203A74704B386E6006356D60223
S2140117F403A747028326070003A74500032607001D
S21401180403A745013307E60063D8E60083A78704E8
S214011814B386F6003325D600678000000327050249
S2140118248327070083A6050003A6060093865700B0
S21401183463D4C7009386B7FF2320D7000327450246
S2140118448327070083A6450003A606009386570050
S21401185463D4C7009386B7FF2320D70067800000B0
S214011864130101FF23261100032785039307700044
S21401187463E0E70693172700371705001307C7F435
S214011884B387E70083A707006780070003250500E1
S214011894EFF08FD68320C100130101016780000099
S2140118A403254500EFF04FD56FF0DFFE03258500D5
S2140118B4EFF08FD46FF01FFE0325C500EFF0CFD3F2
S2140118C46FF05FFD03250501EFF00FD36FF09FFC6A
S2140118D4371505001305859FEF6010576FF09FFBC2
S2140118E46306050A130101FF232611002324810040
S2140118F413040500EFF0DFF68327040003A587022F
S214011904EF50107E8327440003A58702EF50507DD5
S2140119148327840003A58702EF50907C8327C400A5
S21401192403A58702EF50D07B8327040103A5870212
S214011934EF50107B0325040263040500EF50507A30
S2140119440325440263040500EF50907903258402BD
S21401195463040500EF50D0780325C4026304050030
S214011964EF5010780325040363040500EF50507705
S2140119740325040463040500EF5090768320C10018
S21401198403248100130101016780000067800000C1
S214011994130101FF23261100232481002322910031
S2140119A42320210193040500130400001309800277
S2140119B483A7440583A70700B387870003A5070009
S2140119C4EFE0DFF413044400E31424FF9305A000BE
S2140119D403A54405EF30800F8320C1000324810052
S2140119E483244100032901001301010167800000DB
S2140119F4130101FE232E1100232C8100232A9100BA
S214011A0423282101130405008327450503A7C701DD
S214011A146356E0029304000083A70700139724008B
S214011A24B387E70003A50700EFF00FBD9384140006
S214011A348327440503A7C701E3C0E4FE03A74700C1
S214011A448327040283A70700938737002320F70020
S214011A548327440503A787008327440283A7070037
S214011A649387D7FF2320F700930700001308A000ED
S214011A74032744051396270083260700B386C6006A
S214011A8483A6060083A506000325470083260701CF
S214011A94B386D702032705003307D70023A0E50042
S214011AA48326440503A706003307C7000327070058
S214011AB40327470083A6860083A606002320D700B3
S214011AC493871700E39607FB8327040403A50700FF
S214011AD4930740063345F502EF50D047B767080031
S214011AE403A6076F83A6476FEF409040EF50503E22
S214011AF4130905006356A006232631012324410158
S214011B04232251019304000093096000130A100074
S214011B14930A70006F00C00093841400630C99024A
S214011B2403274403E30A37FF832784039387A7FF26
S214011B34E374FAFEE30257FF8327440583A70700ED
S214011B4413972400B387E70003A50700EFE01FDC23
S214011B546FF09FFC8329C100032A8100832A410078
S214011B649305090003254405EF2050768320C1011F
S214011B740324810183244101032901011301010284
S214011B8467800000130101FF23261100232481002E
S214011B941304050063840502032784039307700076
S214011BA463E6E70293172700371705001307C7F6FE
S214011BB4B387E70083A7070067800700EFF05FE3BA
S214011BC46FF09FFD03250400EFF00FA303274403E2
S214011BD49307700063EAE704931727003717050095
S214011BE41307C7F8B387E70083A7070067800700D2
S214011BF403254400EFF04FA06FF05FFD032584003A
S214011C04EFF08F9F6FF09FFC0325C400EFF0CF9E8B
S214011C146FF0DFFB03250401EFF00F9E6FF01FFB4F
S214011C2403250400EFE09FCE8320C1000324810036
S214011C34130101016780000003254400EFE01FCD76
S214011C446FF09FFE03258400EFE05FCC6FF0DFFDAD
S214011C540325C400EFE09FCB6FF01FFD03250401AD
S214011C64EFE0DFCA6FF05FFC130101FF23261100CA
S214011C74232481002322210123203101930710000C
S214011C846388F50403248502032904008329440098
S214011C9403A6018283A641821305090093850900E0
S214011CA4EF4090146358050A03A7018283A7418273
S214011CB42320E4002322F4008320C10003248100AE
S214011CC403294100832901001301010167800000F3
S214011CD403248502032904008329440003A6818082
S214011CE483A6C1801305090093850900EF40C07FD0
S214011CF4635CA00003A7818083A7C1802320E4003E
S214011D042322F4006FF05FFB03A6018183A64181C1
S214011D141305090093850900EF40100D635C050067
S214011D2403A7018183A741812320E4002322F40031
S214011D346FF09FF803A6818183A6C181130509006C
S214011D4493850900EF30406C2320A4002322B400BD
S214011D546FF09FF603A6818283A6C182130509004C
S214011D6493850900EF404078635CA00003A7818255
S214011D7483A7C1822320E4002322F4006FF0DFF35B
S214011D8403A6818183A6C1811305090093850900F1
S214011D94EF5080032320A4002322B4006FF0DFF168
S214011DA4130101FE232E1100232C8100232A910006
S214011DB4232821011304050063020520232631018B
S214011DC423244101232251019384050013090600AB
S214011DD483274503232CF502B767080083A507016B
S214011DE413850400EF6010716306050083A7419014
S214011DF46390070623A2019093091000232A340353
S214011E049305000013050400EFF01FE6032A0402FD
S214011E14832A840203250A00EF50D01303A60A007E
S214011E2483A64A00EF30405EEF50900A2320AA00B2
S214011E348327840203A5070083A54700EF505009B2
S214011E4483270900B387A7002320F900232C340530
S214011E54B767080083A5470113850400EF609069FE
S214011E646306050083A781906390070623A4019067
S214011E7493092000232A3403930510001305040054
S214011E84EFF09FDE032A0402832A840203250A0054
S214011E94EF50500C03A60A0083A64A00EF30C05642
S214011EA4EF5010032320AA008327840203A507000A
S214011EB483A54700EF50D00183270900B387A70005
S214011EC42320F900232C3405B767080083A587016E
S214011ED413850400EF601062631805000327C40429
S214011EE49307100063D4E70EB767080083A5C701FC
S214011EF413850400EF6010606310050283278402D3
S214011F04130600009306000023A0C70023A2D700EF
S214011F141307100023A2E190B767080083A5070200
S214011F2413850400EF60105D631C050E832784028D
S214011F34130600009306000023A0C70023A2D700BF
S214011F441307100023A4E1908329C100032A81000A
S214011F54832A41008327840203A5070083A547003B
S214011F64EF500077631E05008324C40203A5040012
S214011F7483A54400EF50C075631C050A232A040296
S214011F848324C40203A5040083A54400EF504074CF
S214011F946310050A8327C403639E070A83278405FF
S214011FA413072000638EE70C13071000639EE70CEB
S214011FB493076000232AF4026F00000D371505000D
S214011FC41305C59DEF6040686FF0DFF8832784052D
S214011FD413072000638AE70213071000638CE702E5
S214011FE48327C40203A6018283A6418223A0C700D5
S214011FF423A2D700232E04028327C4049387170041
S2140120042326F4046FF05FEE93077000232AF4028C
S2140120146FF01FFD93076000232AF4026FF05FFC44
S2140120248329C100032A8100832A41006FF09FF2AD
S2140120348327C403130710006382E702032784057A
S214012044930620006308D702930610006304D70C96
S214012054638C0702232604046F004007130700005D
S2140120649307000023A0E40023A2F400232A040219
S2140120746FF05FF213077000232AE402E39C07FC67
S21401208493077000232AF4028324C40203A601835F
S21401209483A6418303A5040083A54400EF30C0361C
S2140120A423A0A40023A2B400832444020329C40267
S2140120B403A50400EF50006A03260900832649009D
S2140120C4EF308034EF50C06023A0A40083270402BD
S2140120D403A707009306F0139307000063DAE600EC
S2140120E4130707EC9307F013B3B7E70093871700BA
S2140120F42328F40413050400EFF04FD88320C1010C
S21401210403248101832441010329010113010102EE
S2140121146780000013076000232AE402E38A07E8C5
S2140121246FF05FF39307100023A2F19023A4F190BC
S2140121346780000037831600130383B7B7280D00A2
S2140121449388888F377808001308888F37D511004D
S214012154130585DF130E0000B78E0300938E0E4021
S214012164130705B0130608009386080093070300B7
S214012174938507D82320B70023A0F6009385072864
S2140121842320B6001307470093872700938646004B
S21401219413064600E31EA7FC13030378938808502E
S2140121A413080850130E0E3C13050550E31ADEFB04
S2140121B467800000B7D811009388888F930500289C
S2140121C41308000037E301009317180093860800EC
S2140121D403A7C1933307F70003A6060003570700B6
S2140121E42310E6009387270093864600E392B7FE02
S2140121F4938808501308082093850540E31668FC65
S21401220467800000B7280D009388888F93050028FF
S2140122141308000037E3010093171800938608009B
S21401222403A7C1933307F70003A606000357070065
S2140122342310E6009387270093864600E392B7FEB1
S214012244938808501308082093850540E31668FC14
S21401225467800000B77808009388888F9305002864
S2140122641308000037E3010093171800938608004B
S21401227403A7C1933307F70003A606000357070015
S2140122842310E6009387270093864600E392B7FE61
S214012294938808501308082093850540E31668FCC4
S2140122A46780000093959500B385A5009395150066
S2140122B4B7E726009387870FB387F5002390C700F7
S2140122C4B7871D009387870FB385F5002390C50054
S2140122D467800000130101FE232E1100232C8100C8
S2140122E4232A910023282101232631012324410195
S2140122F42322510137DA1100130A8A8FB7BA040070
S214012304B30A5A01130900009309001493040A003E
S2140123141304000083A7040003960700930509002D
S21401232413050400EFF01FF813041400938444000B
S214012334E31234FF13091900130A0A50E3185AFD6D
S2140123448320C1010324810183244101032901015E
S2140123548329C100032A8100832A41001301010253
S21401236467800000130101FE232E1100232C810037
S214012374232A910023282101232631012324410104
S21401238423225101372A0D00130A8A8FB7BA040093
S214012394B30A5A01130900009309001493040A00AE
S2140123A41304000083A7040003960700930509009D
S2140123B413050400EFF01FEF130414009384440084
S2140123C4E31234FF13091900130A0A50E3185AFDDD
S2140123D48320C101032481018324410103290101CE
S2140123E48329C100032A8100832A410013010102C3
S2140123F467800000130101FE232E1100232C8100A7
S214012404232A910023282101232631012324410173
S21401241423225101377A0800130A8A8FB7BA0400B7
S214012424B30A5A01130900009309001493040A001D
S2140124341304000083A7040003960700930509000C
S21401244413050400EFF01FE61304140093844400FC
S214012454E31234FF13091900130A0A50E3185AFD4C
S2140124648320C1010324810183244101032901013D
S2140124748329C100032A8100832A41001301010232
S21401248467800000130101FE232E1100232C810016
S214012494232A9100232821012326310193040000D5
S2140124A41309000F93090014130400001306000017
S2140124B49305040013850400EFF0DFDE1304140013
S2140124C4E31624FF93841400E39034FF8320C101B0
S2140124D40324810183244101032901018329C100C5
S2140124E41301010267800000B73720FF13071000AD
S2140124F423A0E702B73720FF9387C70283A7070005
S21401250493F71700638C0700373720FF1307C702BA
S2140125148327070093F71700E39C07FE67800000F4
S214012524130101FF23261100232481002322910095
S21401253403A7C190B7E726009387870F2322F700E6
S214012544EFF09FFA83A7C19083A7070023AEF19209
S214012554EFF05FF303A7C190B7871D009387870F3A
S2140125642322F7008327470023AEF192EFF09FF171
S2140125748320C10003248100832441001301010147
S21401258467800000130101FF23261100371505009B
S214012594130585A0EF60400B37150500130545A20A
S2140125A4EF60800A03A3019183C6919403C68194C4
S2140125B4B78800009305000F130EA0056F00800175
S2140125C49306060013F6F70F23A2F19423A0E194D1
S2140125D4638AB6008327030033F71701E30607FE71
S2140125E46FF01FFEE318C6FF23840194A3840194AD
S2140125F423850194371505001305C5A3EF60C004B0
S2140126048320C1001301010167800000130101FF4B
S214012614232611009300000003AE019183C6819422
S21401262403C69194930F00009302000093030000E5
S214012634378300009305100013056001930EE00133
S214012644130F000F6F0080006308E60783270E0050
S21401265433F76700630E070093000600138606002F
S21401266493F6F70F938F0500938205009383050075
S21401267423A2F19423A0E194E388A6FCE398D6FD73
S214012684E316E6FD63860F001307E0012384E19455
S214012694638402002385119463860300130700FFF5
S2140126A4A384E19437150500130505A6EF50D079E8
S2140126B4130510006F00400363860F0013076001C3
S2140126C42384E194638402002385119463860300C2
S2140126D4130700FFA384E194371505001305C5A469
S2140126E4EF5090761305000023840194A38401948B
S2140126F4238501948320C100130101016780000032
S214012704130101FF232611009300000003AE01917B
S21401271483C6819403C69194930F0000930200002C
S214012724930300003783000093051000130560012E
S214012734930EE001130F000F6F0080006308E60795
S21401274483270E0033F76700630E07009300060025
S2140127541386060093F6F70F938F05009382050000
S2140127649383050023A2F19423A0E194E388A6FCB5
S214012774E398D6FDE316E6FD63860F001307E00132
S2140127842384E19463840200238511946386030001
S214012794130700FFA384E19437150500130505A666
S2140127A4EF50906A130510006F00400363860F0014
S2140127B4130760012384E194638402002385119442
S2140127C463860300130700FFA384E194371505000D
S2140127D4130545A7EF5050671305000023840194A1
S2140127E4A3840194238501948320C100130101016C
S2140127F46780000083A7019183A7070023A2F194B1
S2140128043787000033F7E70023A0E194130500009F
S214012814630C070203C791942385E19483C68194CC
S214012824A384D19493F7F70F2384F1941306000E2F
S214012834630EC7009307E001130500006316F70053
S2140128449307000F6384F60C678000001307500794
S2140128546384E6066362D7029307B0066384F606CA
S214012864930740076398F600B767080003A5470176
S21401287467800000678000001307000F639AE60272
S214012884130750076386E704130720076388E704E2
S2140128941307B0066386E70613074007130500000F
S2140128A4E394E7FAB767080003A507026780000008
S2140128B41305000067800000B767080003A58701B9
S2140128C467800000B767080003A50701678000005A
S2140128D4B767080003A5470267800000130101FFDC
S2140128E42326110037150500130505A9EF50D05509
S2140128F4130500008320C100130101016780000055
S214012904B767080003A5C70167800000B76708001A
S21401291403A587026780000083A7019183A70700A8
S21401292423A2F1943787000033F7E70023A0E1944C
S214012934130500006308070683C691942385D19482
S21401294403C78194A384E19493F7F70F2384F19446
S2140129541306000E6380C602930790021305000057
S2140129646392F6046304F70A9307000F630EF70EE7
S21401297467800000930640076308D70663F6E602FD
S214012984930650076306D7049306000F631ED70207
S214012994130750076380E706130720071305000093
S2140129A46380E706678000009307B0066308F702B2
S2140129B4930720076318F700B767080003A5C70342
S2140129C46780000067800000130500006780000030
S2140129D4B767080003A5470367800000B7670800C8
S2140129E403A5070367800000B767080003A5C702AD
S2140129F467800000B767080003A5870367800000A7
S214012A04B767080003A5070467800000130101FFE8
S214012A14232611002324810003A6818383A6C18370
S214012A2403A5019C83A5419CEF20101E23A0A19C15
S214012A3423A2B19C03A6018483A64184EF3010220D
S214012A44631E0500B767080003A587048320C10039
S214012A54032481001301010167800000B7670800A1
S214012A6403A547046FF09FFEB767080003A5870414
S214012A7467800000130101FF23261100232481002F
S214012A8423229100232021011309050093840500C4
S214012A94EF40104413040500EF40D04B1306090021
S214012AA493860400EF305034132505003305A40043
S214012AB48320C100032481008324410003290100EB
S214012AC4130101016780000003A7C1949306100651
S214012AD42300D70083A7C19423A2070023A40700D9
S214012AE42386070067800000930605009387150078
S214012AF493854500130830001306800033E5070369
S214012B04131725003387E600032707000327470327
S214012B146316C70093871700E392B7FE6780000029
S214012B241305900667800000130101FF2326110098
S214012B3483A78193639A070283A74193638E07024F
S214012B4413071000638CE700130720006396E7025F
S214012B54EFF04FF0EFF00FF86F000002EFF08FEA9E
S214012B64EFF04FF76F004001130710006380E70290
S214012B74130720006380E70403A7819323AAE19245
S214012B848320C100130101016780000083A74193DC
S214012B94638C070013072000E390E7FEEFF08FEB4A
S214012BA4EFF04FFC6FF05FFDEFF0CFE0EFF08FFB3F
S214012BB46FF09FFC83A74193638C070013071000F3
S214012BC4E39CE7FAEFF00FE4EFF0DF826FF0DFFA51
S214012BD4EFF04FDEEFF01F826FF01FFA130101F6DC
S214012BE4232E1108232C810823850194A3840194A0
S214012BF42384019483A7C19483C607001307100690
S214012C04638AE60A03A7870013172700B74730002D
S214012C149387870FB387E70083A7C70603A707052C
S214012C2423ACE192EFF05FF003A5419BEFD01FCEFA
S214012C3403A5019AEFD09FCD03A5C198EFD01FCD70
S214012C4437150500130585D5EF50102083A7C194C9
S214012C5403A6870083C50700371505001305C5BB02
S214012C64EF50500CEFF09F9A2328A102E3040528A5
S214012C7403A4C19483258400374530001305451603
S214012C84EFF09FE62324A400930710062300F40024
S214012C94EFF01FE993050500371505001305C5D3A5
S214012CA4EF5050088320C109032481091301010A46
S214012CB46780000003A7470013172700B7473000B3
S214012CC49387870FB387E70083A7070003A7070542
S214012CD423ACE192EFF05FE503A5419BEFD01FC360
S214012CE403A5019AEFD09FC203A5C198EFD01FC2D6
S214012CF4371505001305C5BAEF50101583A7C194FF
S214012D0403A6470083C50700371505001305C5BB91
S214012D14EF505001EFF09F8F2328A102631C055A40
S214012D24232A91082328210923263109232441092A
S214012D342322510923206109232E7107232C81079D
S214012D44232A91072328A1072326B10703A5819ADD
S214012D54EFD0DFBB03A54199EFD05FBB03A5019874
S214012D64EFD0DFBA37150500130545BFEF50D00D78
S214012D74B7140500374430001304840F9308000089
S214012D841308E00D9307A00C130790019306E000C7
S214012D94130620009385C4FA1305C400EF10D02E41
S214012DA4930800001308E00D9307A0201307900171
S214012DB49306E000130620009385C4FA1305C402A3
S214012DC4EF10902C930800001308E00D9307A0342D
S214012DD4130790019306E000130620009385C4FAB6
S214012DE41305C404EF10502A37150500130585C1D1
S214012DF4EF50900583A7C19483A7470093972700B4
S214012E043304F4008327040083A7070283A707007B
S214012E142324F100930C0000B7473000938D870FED
S214012E2483A7818403A8C184232CF100232E0101E6
S214012E3483A7818303A8C1832320F10223220103EC
S214012E4483A78183232CF10283A7C183232EF10256
S214012E5483A7018403A841842324F10223260103C2
S214012E649387CD00232AF1026F00C01283A7C19471
S214012E7483A7470093972700B387FD0083A5040023
S214012E8403A50700EFE01F8B630605002326AA01AE
S214012E94930B0D0013044400130A4A009384440060
S214012EA4630C840383A7C19483A7470093972700E1
S214012EB4B387FD0003A5070083250400E308B5FADC
S214012EC4EFE05F87E30405FA930710002320FA0076
S214012ED4930B10006FF09FF9639C0B1683A7C194A4
S214012EE483A7470093972700B387FD009305000047
S214012EF403A50700EFE01FC983A7C19483A7470072
S214012F0493972700B387FD0083A7070003A7070548
S214012F1423ACE1920329010363CE0C2613850C002E
S214012F24EF405003032681018326C101EF20505A46
S214012F349304050013840500032601028326410237
S214012F44EF30805A6356A000832481030324C1030F
S214012F54032681028326C102138504009305040017
S214012F64EF300079EF40C0769309050083A48D0203
S214012F74634C952263CAA42693850900032541035D
S214012F84EF10D03463040900B30C9041EFF0DFB9BD
S214012F94EFF08FD513850C00EF40C07BEFE08FB4C4
S214012FA403A6818483A6C184EF300064635E05268C
S214012FB4EFF05F8493050500B76708009387070160
S214012FC483A787016382A72683A7C19483A74700A3
S214012FD493972700B387FD001306000003A5070097
S214012FE4EFE01FDC83A7C19483A7470093972700CC
S214012FF4B387FD0083A7070083A7070283A70700FB
S214013004232AF10003278100B38CE740232401041B
S2140130142326010423280104232A0104232C010462
S214013024232E0104B74730009389870F13098104BF
S214013034938AC906138CC90093840A00130A0900EB
S2140130441384870F930B0000130D10006FF09FE598
S214013054938B0900138B0A00130A0900930450008A
S214013064130C20006F004006138D0B0003A54B01C3
S2140130748327450503A7C7016358E002130400002C
S21401308483A7070013172400B387E70003A50700E7
S214013094EFD09FD61304140003254D01832745055D
S2140130A403A7C701E34EE4FCEFE08FFB6F00800249
S2140130B483274A01639E07029384F4FF130ACAFF17
S2140130C4130BCBFF938BCBFFE3449CFE83274A0170
S2140130D4E39C07F89384F4FF9307F0FF638EF404EC
S2140130E4130ACAFF130BCBFF938BCBFF6FF0DFFDE5
S2140130F4130D0B0003258B008327450503A7C70182
S2140131046358E0021304000083A707001317240082
S214013114B387E70003A50700EFD01FCE13041400FE
S21401312403258D008327450503A7C701E34EE4FC69
S214013134EFE00FF36FF05FF883A7C19483A747000E
S21401314493972700B387FD009305000003A50700A6
S214013154EFE05FA31304000093042000130A600049
S2140131646F00D03183270900639E070013041400FF
S214013174E30444D993894900938A4A001309490010
S2140131846F00D02F9305000003A54AFFEFE09F9F31
S2140131946FF0DFFD8327810003274101B38CE740ED
S2140131A4130910006FF09FD71394240083A7CD0052
S2140131B4B387870003A50700EFD01FC483A7CD02FA
S2140131C4B387870003A50700EFD01FC383A7CD04E9
S2140131D4B387870003A50700EFD01FC29384F4FFCB
S2140131E4E3D434FD6FF05FD91394240083A7CD0094
S2140131F4B387870003A50700EFD04FF183A7CD025D
S214013204B387870003A50700EFD04FF083A7CD044B
S214013214B387870003A50700EFD04FEF938414000C
S214013224E39499FC6FF05FD5374430001304840FA0
S214013234832584029385F5FF1305C400EF109009D6
S214013244832584029385F5FF1305C402EF109008C5
S214013254832584029385F5FF1305C404EF109007B4
S214013264EFE05FEC23840194A38401942385019405
S21401327483A7C19403A6470083C507003715050035
S2140132841305C5C3EF50002A03A5C19AEFD00FE872
S21401329403A58199EFD08FE703A54198EFD00FE7F7
S2140132A4EFF00FC6630405068324410903290109C7
S2140132B48329C108032A8108832A4108032B0108AC
S2140132C4832BC107032C8107832C4107032D010798
S2140132D4832DC10603A4C1948325440037453000D9
S2140132E41305850FEFF05F802322A40093072006C1
S2140132F42300F400EFF0DF8293050500371505007F
S2140133041305C5D3EF5000226FF0DF9903A5419A48
S214013314EFD0CFDF03A50199EFD04FDF03A5C19707
S214013324EFD0CFDE83A781936384070813071000C9
S214013334638EE70A130720006388E70E3715050036
S214013344130505CAEF504030130700009307000029
S21401335423A4E19C23A6F19C23A0E19C23A2F19C37
S21401336403A8418583A701852324F10023260101AF
S21401337403AA018483AA418403A9818383A9C183FF
S21401338483A68183232AD10083ACC18313040A0054
S21401339493840A00B7463000138C860F130D8C07EE
S2140133A4130B0D00130D0C00938B0C006F004028BB
S2140133B4371505001305C5C7EF500029930800000B
S2140133C41308E00D93073010130790019306E000ED
S2140133D413062000B71505009385C5FA3745300056
S2140133E413050517EF10404A6FF05FF53715050012
S2140133F4130585C8EF504025930800001308E00D17
S21401340493073024130790019306E0001306200067
S214013414B71505009385C5FA37453000130505171A
S214013424EF1080466FF09FF137150500130545C967
S214013434EF508021930800001308E00D93073038FD
S214013444130790019306E00013062000B715050044
S2140134549385C5FA3745300013050517EF10C042AA
S2140134646FF0DFED03AC819C83ACC19C0326810025
S2140134748326C10013050C0093850C00EF20107EF3
S2140134846308051EB767080003A6076F83A6476F80
S21401349413050C0093850C00EF10107723A4A19C50
S2140134A423A6B19C1306050093860500371505006F
S2140134B4130505CCEF5000076F00801B03AC819CFD
S2140134C483ACC19C130600009306000013050C0090
S2140134D493850C00EF209078630C0518B7670800F5
S2140134E403A6076F83A6476F13050C0093850C008C
S2140134F4EF30900D23A4A19C23A6B19C13060500CE
S2140135049386050037150500130505CCEF50800199
S2140135146F00001637150500130545CDEF50C01290
S2140135246F00001537150500130585CEEF50C01141
S2140135346F00001403A6019C83A6419C3715050061
S2140135441305C5CFEF40107E03A6818583A6C185EA
S21401355423A0C19C23A2D19C37150500130545D28F
S214013564EF40507C374430001304840F83A7C19482
S21401357483A7470093972700B307F40083A70700A0
S21401358403A6470283A5070203A8019C83A8419CBE
S21401359403A7819C83A7C19CB7160500938646FEA4
S2140135A40326060083A5050013058409EF105013AE
S2140135B4832544099385F5FF13058407EF1080518D
S2140135C403258409EFD08FB4374430001304840FE5
S2140135D49304840903258409EFD01F82138504000C
S2140135E4EF10D03513850400EF1010440325840929
S2140135F4EFD0CFB18327440A23ACF192EFF0CFD2B8
S214013604EFE09FEE6FF01FFD83278D0713972D00C4
S214013614B387E70003A50700EFD00FFE938DFDFFE8
S214013624E3D48DFF93050C0013050B00EF10004A3D
S214013634EFF08FAEB767080083A78703E384A7E29A
S214013644B767080083A70704E38AA7E6B7670800F5
S21401365483A7C702E380A7ECB767080083A707031D
S214013664E382A7ECB767080083A78704E384A7EC83
S21401367413060A0093860A0003A5019C83A5419CB0
S214013684EF200065130C0500938C05001306090052
S21401369493860900EF2050656356A000032C410170
S2140136A4938C0B00130604009386040013050C0088
S2140136B493850C00EF30C003EF408001130C050026
S2140136C4832D4D09E342B5F5E3DEADF4B74C300086
S2140136D4938C8C0F83A78C0713972D00B387E70071
S2140136E403A50700EFD08FA2938D1D00E314BCFF42
S2140136F46FF05FF3232A9108232821092326310931
S214013704232441092322510923206109232E710709
S214013714232C8107232A91072328A1072326B107EF
S21401372403A5819AEFD08F9E03A54199EFD00F9EF2
S21401373403A50198EFD08F9D83A7C19403A78700A3
S21401374413172700B74730009387870FB387E7001F
S21401375483A7C70683A7070283A707002324F100CC
S214013764930C0000B7473000938D870F83A781849D
S21401377403A8C184232CF100232E010183A781838E
S21401378403A8C1832320F1022322010383A7818393
S214013794232CF10283A7C183232EF10283A701847C
S2140137A403A841842324F102232601039387CD0031
S2140137B4232AF1026F00C01213044400130A4A00BC
S2140137C4938444006300A40783A7C19483A7870056
S2140137D493972700B387FD008325040003A5C70636
S2140137E4EFD05FF56306050023208A01930B0C00D6
S2140137F483A7C19483A7870093972700B387FD0007
S21401380403A5C70683A50400E308B5FAEFD09FF223
S214013814E30405FA930710002326FA00930B10001D
S2140138246FF09FF9639C0B1683A7C19483A7870047
S21401383493972700B387FD009305000003A5C706E9
S214013844EFE04FB483A7C19483A78700939727001B
S214013854B387FD0083A7C70603A7070523ACE19238
S2140138640329010363CE0C2613850C00EF30906EFA
S214013874032681018326C101EF20804593040500B8
S214013884138405000326010283264102EF20D04556
S2140138946356A000832481030324C1030326810203
S2140138A48326C1021385040093050400EF205064A7
S2140138B4EF3010629309050083A48D02634C9522B0
S2140138C463CAA4269385090003254103EF1000204B
S2140138D463040900B30C9041EFF00FA5EFE0DFC0DD
S2140138E413850C00EF301067EFD0DF9F03A68184A9
S2140138F483A6C184EF20504F635E0526EFE09FEF59
S21401390493050500B76708009387070183A7870116
S2140139146382A72683A7C19483A78700939727006A
S214013924B387FD001306000003A5C706EFE04FC7E3
S21401393483A7C19483A7870093972700B387FD00C5
S21401394483A7C70683A7070283A70700232AF100D4
S21401395403278100B38CE7402324010423260104B2
S21401396423280104232A0104232C0104232E010401
S214013974B74730009389870F13098104938AC906D0
S214013984138DC90093840A00130A09001384870F50
S214013994930B0000130C10006FF01FE3938B0900C8
S2140139A4138B0A00130A090093045000130C200019
S2140139B46F004006138D0B0003A54B0183274505B5
S2140139C403A7C7016358E0021304000083A7070096
S2140139D413172400B387E70003A50700EFD0CFC170
S2140139E41304140003254D018327450503A7C701C6
S2140139F4E34EE4FCEFD0DFE66F00800283274A0142
S214013A04639E07029384F4FF130ACAFF130BCBFFCA
S214013A14938BCBFFE3449CFE83274A01E39C07F880
S214013A249384F4FF9307F0FF638EF404130ACAFF2A
S214013A34130BCBFF938BCBFF6FF0DFFD130D0B0046
S214013A4403258B008327450503A7C7016358E002B6
S214013A541304000083A7070013172400B387E700A5
S214013A6403A50700EFD04FB91304140003258D00F6
S214013A748327450503A7C701E34EE4FCEFD05FDEC9
S214013A846FF05FF883A7C19483A7870093972700F5
S214013A94B387FD009305000003A5C706EFE08F8EEC
S214013AA41304000093042000130A60006F00C01F73
S214013AB483270900639E070013041400E30444D912
S214013AC493894900938A4A00130949006F00C01D6F
S214013AD49305000003A54AFFEFE0CF8A6FF0DFFDF0
S214013AE48327810003274101B38CE74013091000A3
S214013AF46FF09FD71394240083A7CD00B387870064
S214013B0403A50700EFD04FAF83A7CD02B387870085
S214013B1403A50700EFD04FAE83A7CD04B387870074
S214013B2403A50700EFD04FAD9384F4FFE3D434FD2F
S214013B346FF05FD91394240083A7CD00B387870061
S214013B4403A50700EFC09FDC83A7CD02B3878700D8
S214013B5403A50700EFC09FDB83A7CD04B3878700C7
S214013B6403A50700EFC09FDA93841400E39499FC3D
S214013B746FF05FD5374430001304840F8325840225
S214013B849385F5FF1305C400EF00D07483258402E2
S214013B949385F5FF1305C402EF00D07383258402D1
S214013BA49385F5FF1305C404EF00D072EFE08FD7B9
S214013BB423840194A38401942385019483A7C19447
S214013BC403A6870083C50700371505001305C5C37B
S214013BD4EF40501503A5C19AEFC05FD303A58199A1
S214013BE4EFC0DFD203A54198EFC05FD2EFE05FB12B
S214013BF4630A050283244109032901098329C108AB
S214013C04032A8108832A4108032B0108832BC10751
S214013C14032C8107832C4107032D0107832DC1063D
S214013C246FF00F8537150500130505CAEF40D0213F
S214013C3437150500130585D6EF4010218324410965
S214013C44032901098329C108032A8108832A410813
S214013C54032B0108832BC107032C8107832C4107FF
S214013C64032D0107832DC1066FF08F801304140002
S214013C7493894900938A4A001309490063C484CE90
S214013C8483270900E38407FE9305000003A50900C2
S214013C94EFD05FEF6FF09FFD130414009389490082
S214013CA4938A4A0013094900E3C484E08327090080
S214013CB4E38407FE9305000003A50900EFD09FECFB
S214013CC46FF09FFD130101FC232E1102232C8102A8
S214013CD4232A910223282103232631032324410383
S214013CE42322510323206103232E7101232C8101F6
S214013CF4232A9101371805001308C8FAB7240500CA
S214013D049384C4FA374430001304840F130B040B52
S214013D142322010013091006232021019308880594
S214013D241308884593878485138784C593868405F9
S214013D341306F0089305400713050B00EFD00FE0B8
S214013D44B73605009386C6FA930A4411930C1000FD
S214013D542322910123202101938884451388868593
S214013D64938786C513878605938686451306F008CA
S214013D749305600A13850A00EFD04FDC3747050028
S214013D841307C7FAB75405009384C4FA130A8417B1
S214013D94930720002322F10023202101930887851D
S214013DA4130887C593078705130787459386848574
S214013DB41306F0089305800D13050A00EFD00FD8FB
S214013DC4B76B0500938BCBFA9309C41D9307300098
S214013DD42322F100130C200623208101938884C535
S214013DE4138884059387844513878B8593868BC5AF
S214013DF41306F0089305C03913850900EFD00FD4D4
S214013E04B77405009384C4FA130904249307400085
S214013E142322F1002320810193888B0513888B4587
S214013E2493878485138784C5938684051306F008CF
S214013E349305A03613050900EFD04FD0B7860500C9
S214013E449386C6FA930B442A930750002322F10063
S214013E54232081019388844513888685938786C5A4
S214013E6413878605938686451306F00893058033E3
S214013E7413850B00EFD08FCCEFE01FC52320640120
S214013E842322540123244401232634072328240708
S214013E94232A7407EFE00FEF83A7C19423869701C3
S214013EA43745300013054564EF00100C03A5C19B8C
S214013EB4EFC09FF49306800213068002B7450800FC
S214013EC49385455BB744300013850462EF00405781
S214013ED413850462EF00C07813850462EF00D008EE
S214013EE4B79405009384C4FA13085001930750014C
S214013EF4130770029306A011130610009385848598
S214013F0413854197EFD00FA503A54197EFC01FA0D6
S214013F1403A54197EFD00FB71308100293072003A8
S214013F241307C0089306B00413061000B74508002B
S214013F349385058D13850197EFD0CFA103A501972E
S214013F44EFC0DF9C03A50197EFD0CFB31308B001F0
S214013F549307003C1307D00A9306000013061000CB
S214013F64B7750700938505E51385C196EFD08F9E37
S214013F7403A5C196EFC09F9903A5C196EFD08FB054
S214013F841308500A930740051307B0009306C02888
S214013F9413061000B70507009385852013858196BF
S214013FA4EFD04F9B03A58196EFC05F9603A581963C
S214013FB4EFD04FAD1308C00593070007130780051C
S214013FC49306900813061000B7E505009385854807
S214013FD413850195EFD00F9803A50195EFC01F93A4
S214013FE403A50195EFD00FAA130880039307D00504
S214013FF4130720089306603013061000B735060031
S2140140049385855013858195EFD0CF9403A581952B
S214014014EFC0DF8F03A58195EFD0CFA61308A001CB
S21401402493072002130790099306A0201306100095
S2140140349385C4BC13854195EFD0CF9103A54195D3
S214014044EFC0DF8C03A54195EFD0CFA3130840043E
S2140140549307E0101307D0019306D015130610003A
S214014064B77506009385852913854196EFD08F8E03
S21401407403A54196EFC09F8903A54196EFD08FA073
S214014084130890059307F0001307F005930600152F
S21401409413061000B775060093858582138501966D
S2140140A4EFD04F8B03A50196EFC05F8603A501965B
S2140140B4EFD04F9D130890059307F0001307F00502
S2140140C49306902613061000B7650600938585DBD4
S2140140D41385C195EFD00F8803A5C195EFC01F8343
S2140140E403A5C195EFD00F9A930C843093079000E3
S2140140F4130750019306D0021306A0119385442B8F
S21401410413850C00EFC00FB813850C00EFC0CFD693
S214014114930C8432930770001307000293069009E8
S2140141241306A0209385044313850C00EFC08FB5B6
S21401413413850C00EFC04FD4930C843493074000CE
S2140141441307C0029306A0091306E0049385045FCF
S21401415413850C00EFC00FB313850C00EFC0CFD14D
S214014164930C843693073000130780139306D00A02
S214014174130600009385047513850C00EFC08FB0F9
S21401418413850C00EFC04FCF930484389307500077
S2140141941307E0159306D00A13062026B7D50500A3
S2140141A49385C56D13850400EFC0CFAD1385040058
S2140141B4EFC08FCCB7A405009384C4FA930C843A59
S2140141C4930750001307C0089306200B1306C01369
S2140141D4938504EA13850C00EFC0CFAA13850C005F
S2140141E4EFC08FC9930C843C930760001307F00655
S2140141F49306200B1306501F9385844113850C00E8
S214014204EFC04FA813850C00EFC00FC7B7B4050065
S2140142149384C4FA930C843E9307A00013072004E6
S214014224930630041306A0289385C49413850C00C2
S214014234EFC04FA513850C00EFC00FC4930C844048
S21401424493078000130760019306F0041306C02A3F
S214014254938544E713850C00EFC0CFA213850C00A9
S214014264EFC08FC1930C844293078000130790011B
S214014274930610061306C02A938544FD13850C0085
S214014284EFC04FA013850C00EFC00FBF930C8444FE
S214014294930780001307C001930630071306B02A5C
S2140142A49385441613850C00EFC0CF9D13850C002F
S2140142B4EFC08FBC930C844693078000130700025B
S2140142C4930630081306A02A9385443213850C00FE
S2140142D4EFC04F9B13850C00EFC00FBA930C8448B4
S2140142E49307800013073002930660091306A02A79
S2140142F49385445213850C00EFC0CF9813850C00A8
S214014304EFC08FB79304844A9307B00013070010D5
S2140143149306D00113064016B7B5050093850570BC
S21401432413850400EFC00F9613850400EFC0CFB4C5
S2140143341304844C9307D000130710069306100643
S21401434413064009B7D50500938505D01305040067
S214014354EFC04F9313050400EFC00FB2930510008E
S21401436413050B00EFD01F829305100013850A0076
S214014374EFD05F819305100013050A00EFD09F80EC
S2140143849305100013850900EFD0CFFF93051000A5
S21401439413050900EFD00FFF9305100013850B00DA
S2140143A4EFD04FFE13050B00EFD08FDE13850A0006
S2140143B4EFD00FDE13050A00EFD08FDD1385090059
S2140143C4EFD00FDD13050900EFD08FDC13850B004A
S2140143D4EFD00FDC03A5019BEFC04FD303A5C19912
S2140143E4EFC0CFD203A58198EFC04FD283A7C19463
S2140143F483C7C700638C070013040C00EFE00FFEAD
S21401440483A7C19483C7C700E39A07FE8320C10329
S2140144140324810383244103032901038329C1025D
S214014424032A8102832A4102032B0102832BC10141
S214014434032C8101832C41011301010467800000D0
S214014444130101FA232E1104232C8104232A910437
S214014454232821052324410523225105232A9103D8
S2140144642326B103930C0500232CB100930D0600FB
S214014474138906002328D1009307003C33E4C702BE
S21401448433348000B3C7C7023304F4002320850203
S2140144949307000FB3E4D702B3349000B3C7D7022F
S2140144A4B384F400232E95003305D6021315250094
S2140144B4EF30404223A2AC0013054000EF308041A8
S2140144C423A4AC0013054000EF30C04023A6AC0083
S2140144D413054000EF30004023A8AC0023AABC011A
S2140144E423AC2C0123200500330594021315250063
S2140144F4EF30403E23A0AC00232E0100232601000A
S214014504130A0000930A000063589012232631050B
S21401451423206105232E7103232C81032328A10361
S2140145246F00800E13054003EF30C03A13040500F4
S214014534832781012322F50283270101232AF5001B
S2140145442328B50183A74C002324F5021305400054
S214014554EF304038930B05002320A40013054000D8
S214014564EF304037130B05002322A4001305800007
S214014574EF30403693090500232EA400130580006E
S214014584EF304035130905002320A402130540002B
S214014594EF304034232CA40023A0AB018327410130
S2140145A42320FB0023A0490123A25901232049010A
S2140145B423225901232005008327C100B384F40272
S2140145C4B384840183A70C0093942400B3879700D3
S2140145D423A08700130C1C0083A40C02330DBD0119
S2140145E4E3429CF48327C100138717002326E100C6
S2140145F48327C10183260101B387D700232EF10047
S21401460483A7CC016350F70283A40C028327C1015C
S214014614232AF100130D0000130C0000E34490F06C
S2140146246FF05FFC8329C104032B0104832BC103B0
S214014634032C8103032D01038320C1050324810573
S2140146448324410503290105032A8104832A41049D
S214014654832C4103832DC1021301010667800000E8
S214014664130101FF23261100232291002320210197
S214014674930405008327C50113090000635AF00457
S214014684232481006F008003B3872703B387870041
S21401469403A7040093972700B307F70003A50700B1
S2140146A4EFC0CFA61304140083A70402E34EF4FC60
S2140146B41309190083A7C401635AF90083A70402E6
S2140146C413040000E342F0FC6FF09FFE0324810014
S2140146D48320C10083244100032901001301010141
S2140146E467800000130101FF232611002322910095
S2140146F423202101930405008327C5011309000023
S214014704635AF004232481006F008003B3872703D0
S214014714B387870003A7040093972700B307F7001E
S21401472403A50700EFC04FED1304140083A704028A
S214014734E34EF4FC1309190083A7C401635AF90074
S21401474483A7040213040000E342F0FC6FF09FFE0B
S214014754032481008320C10083244100032901002E
S2140147641301010167800000130101FE232E1100CD
S214014774232A910023263101930405008327C501CA
S214014784930900006354F00C232C81002328210193
S2140147946F00400A1309190003A40402635689082A
S2140147A433043403330424011314240083A70400BC
S2140147B4B387870083A70700E38E07FC03A50700DA
S2140147C4EF30001283A70400B387870083A707008E
S2140147D403A54700EF30C01083A70400B387870002
S2140147E483A7070003A5C701EF30800F83A7040042
S2140147F4B387870083A7070003A50702EF30400E9F
S21401480483A70400B387870083A7070003A587014E
S214014814EF30000D83A70400B387870003A50700C4
S214014824EF30000C6FF01FF79389190083A7C401BA
S21401483463DAF90003A4040213090000E34280F6D4
S2140148446FF09FFE032481010329010103A50400DF
S214014854EF30000903A54400EF30800803A5840067
S214014864EF30000803A5C400EF30800703A5040158
S214014874EF3000078320C101832441018329C1004D
S2140148841301010267800000130101FB23261104B2
S21401489423248104232291042328610323267103FC
S2140148A423248103232291032320A103232EB10170
S2140148B413040500138D0500930B0600938C060064
S2140148C4130C0700138B0700930D0800938408004C
S2140148D413054000EF3000002322A4001305400016
S2140148E4EF20507F2324A40013054000EF20907E80
S2140148F42326A40023287401232A9401232C84014B
S21401490423200500232E940013152C00EF20907C01
S2140149142320A4006356801923202105232E310366
S214014924232C4103232A5103B3879B039397170030
S2140149342326F10013090000130A0000930A00005D
S2140149449314290083290400B389990013054003AD
S214014954EF20507823A0A90083270400B38797008B
S21401496483A7070023A2A70383270400B38797001E
S21401497483A7070023AA970183270400B387970018
S21401498483A7070023A8770183270400B38797002A
S21401499483A907000325C100EF20D07323A4A9022D
S2140149A483270400B387970083A9070013054000F3
S2140149B4EF20507223A0A90083270400B387970031
S2140149C483A9070013054000EF20D07023A2A90095
S2140149D483270400B387970083A907001305800083
S2140149E4EF20506F23AEA90083270400B3879700F6
S2140149F483A9070013058000EF20D06D23A0A90228
S214014A0483270400B387970083A907001305400092
S214014A14EF20506C23ACA90083270400B3879700CA
S214014A2483A7070083A7070023A067018327040041
S214014A34B387970083A7070083A7470023A0B7017E
S214014A4483270400B387970083A7070083A7C701BA
S214014A5423A0470123A2570183270400B3879700A5
S214014A6483A7070083A7070223A0470123A25701B0
S214014A7483270400B387970083A7070083A78701CA
S214014A8423A0070013091900330B7B01E31A2CEB4F
S214014A94032901048329C103032A8103832A4103C9
S214014AA48320C1040324810483244104032B0103CA
S214014AB4832BC102032C8102832C4102032D0102A4
S214014AC4832DC1011301010567800000232EB50063
S214014AD467800000130101FF2326110023229100A1
S214014AE49304050063CC05022324810023202101BD
S214014AF4138405001309F0FF83A704001317240089
S214014B04B387E70003A50700EFC00FAF1304F4FF54
S214014B14E31424FF03248100032901009305000004
S214014B2413850400EFF09FFA8320C100832441001B
S214014B341301010167800000130101FE232E1100F9
S214014B44232C810013040500832785016350F00E8E
S214014B54232A910023282101232631011309000069
S214014B649314290083270400B387970083A70700BB
S214014B7403A58702EF20D05683270400B387970046
S214014B8483A9070013054000EF20D05423A0A900F1
S214014B94EF20105583270400B387970083A90700E5
S214014BA413054000EF20105323A2A900EF20505311
S214014BB483270400B387970083A9070013058000A1
S214014BC4EF20505123AEA900EF2090518327040013
S214014BD4B387970083A9070013058000EF20904F41
S214014BE423A0A902EF20D04F83270400B3879700A0
S214014BF483A9070013054000EF20D04D23ACA9007C
S214014C04EF20104E83270400B387970003A50700FF
S214014C14EF20104D1309190083278401E342F9F4A8
S214014C2483244101032901018329C10003250400CA
S214014C34EF20104B03254400EF20904A03258400FF
S214014C44EF20104A0325C400EF2090498320C101B8
S214014C54032481011301010267800000130101FF8F
S214014C64232611002324810013040500832705004D
S214014C7403A50700EF20D0468327040003A54700B9
S214014C84EF2010468327040003A5C701EF205045F3
S214014C948327040003A50702EF209044832704001A
S214014CA403A58701EF20D0438327040003A58702C9
S214014CB4EF20104303250401EF209042032544010D
S214014CC4EF20104203250400EF2090418320C10009
S214014CD40324810013010101678000009307050086
S214014CE413072003630AE50A634EA704130740016A
S214014CF4630AE50A6344A702630C050A1307A000C6
S214014D046318E50003A5018683A541866780000034
S214014D1403A5018A83A5418A678000001307E00181
S214014D24630EE508130780026318E50003A581876F
S214014D3483A5C1876780000003A5018A83A5418AEC
S214014D4467800000130700056300E5086346A702B1
S214014D541307C0036300E508130760046318E5003E
S214014D6403A5018983A541896780000003A5018AFB
S214014D7483A5418A678000001307A0051305000078
S214014D84930500006394E7006780000003A5018A89
S214014D9483A5418A6780000003A5018883A541880D
S214014DA46780000003A5818683A5C186678000000D
S214014DB403A5818383A5C1836780000003A50187BA
S214014DC483A541876780000003A5818983A5C189DE
S214014DD46780000003A5818883A5C18867800000D9
S214014DE49307050013072003630EE50A6342A7062B
S214014DF413074001630EE50A6348A7021305000082
S214014E0493050000638807081307A0006398E7006A
S214014E1403A5818983A5C1896780000003A5018A4A
S214014E2483A5418A678000001307E0016308E5084B
S214014E34130780026318E50003A5018883A541884A
S214014E446780000003A5018A83A5418A6780000064
S214014E5413070005630AE5066346A7021307C003A2
S214014E64630AE506130760046318E50003A5818653
S214014E7483A5C1866780000003A5018A83A5418AAC
S214014E84678000001307A0056318E50003A5818366
S214014E9483A5C1836780000003A5018A83A5418A8F
S214014EA46780000003A5818783A5C187678000000A
S214014EB403A5018983A541896780000003A581882C
S214014EC483A5C1886780000003A5018683A5418662
S214014ED46780000003A5018783A5418767800000DA
S214014EE4130101FD232611022324810223229102A8
S214014EF423202103232E3101232C4101232A51018E
S214014F04232861012326710123248101232291018F
S214014F142320A1011304050013890500130D0600BF
S214014F24938B0600130B0700938A0700130A0800E5
S214014F349389080013054003EF20D0199304050054
S214014F442320A40013054000EF20D01823A0A400BA
S214014F5413054000EF20101823A2A40013058000B7
S214014F64EF20501723AEA40013058000EF209016FF
S214014F7423A0A40213054000EF20D01523ACA400FF
S214014F849307400023A8F40023AAF40023A2740381
S214014F9413050002EF20101423A4A40213058000B5
S214014FA4EF2050132328A40013058000EF2090124D
S214014FB4232AA40013050B0093850A00EF204071F1
S214014FC493040500EFF09FD1930C0500138C0500A4
S214014FD4130605009386050037150500130545D805
S214014FE4EF30405413850400EFF09FDF930B050068
S214014FF493840500130605009386050037150500FE
S214015004130585D9EF3000528327040083A70700D0
S21401501423A027018327040083A7470023A0A70111
S2140150248327040003ADC70103A6818A83A6C18A28
S21401503413050A0093850900EF10806B13860C0094
S21401504493060C00EF10C06A2320AD002322BD0096
S2140150548327040083A7C70103A6070083A6470086
S214015064371505001305C5DAEF30C04B8327040056
S21401507403AC070213860B0093860400B70700806F
S214015084B3C7370113050A0093850700EF1040667E
S2140150942320AC002322BC008327040083A7070235
S2140150A403A6070083A6470037150500130545DD4B
S2140150B4EF3040478327040083A7870113071000B6
S2140150C423A0E700232404002322040083260401EA
S2140150D423A0660123A25601032744019306F01375
S2140150E49307000063DA2601130909EC9307F0130A
S2140150F4B3B72701938717002320470123223701DB
S2140151042326F4008320C10203248102832441025E
S214015114032901028329C101032A8101832A41014A
S214015124032B0101832BC100032C8100832C410036
S214015134032D01001301010367800000130101FF21
S21401514423261100232481002322910023202101F8
S214015154130405008327050083A4070003A9C701D8
S21401516403A50400EF20005F0326090083264900F7
S214015174EF008029EF20C05523A0A4008327040054
S21401518483A4470003A9070203A50400EF20805C5B
S2140151940326090083264900EF000027EF20405329
S2140151A423A0A4008327040083A4070203A6018B7B
S2140151B483A6418B03A5040083A54400EF00C02405
S2140151C423A0A40023A2B4008327040083A7070016
S2140151D403A707009306F0139307000063DAE600BB
S2140151E4130707EC9307F013B3B7E7009387170089
S2140151F42326F4008320C100032481008324410074
S21401520403290100130101016780000083270501BA
S21401521423A0B70023A2C7008327450123A0D700F4
S21401522423A2E70067800000130101FF2326110073
S2140152342324810013040500630E0502832504005C
S21401524483A7050003A607001305460083A74500A8
S21401525483A607009386460083A7019363980702F3
S214015264232204008320C1000324810013010101C9
S21401527467800000371505001305C5DFEF30C03C15
S2140152846FF0DFFB83A70701E38C07FC03A7470046
S214015294E3CAE6FE03A7C700E346D7FE03A78700D3
S2140152A4E342C7FE03A70700E34EE5FC2322910071
S2140152B4930710002322F40083A4C50103A6818B5F
S2140152C483A6C18B03A5040083A54400EF104042C6
S2140152D423A0A40023A2B4008327040083A6C70145
S2140152E423A0A60023A2B6008327040083A40702F2
S2140152F403A6018C83A6418C03A5040083A5440060
S214015304EF10003F23A0A40023A2B40083270400C7
S21401531483A6070223A0A60023A2B6008324410085
S2140153246FF05FF4938705009385C500130880002A
S2140153346F00C00093874700638EB70403A7070076
S21401534483264703E39806FF8326070203A3060082
S21401535493088300032E050083260E0083A6060009
S214015364938E06FFE3C8D8FD93860601E3C416FDB3
S21401537483264E0083A8060093060301138E08FFB6
S214015384E3CAC6FBE3C868FA93061000232ED704C3
S2140153946FF05FFA930706001306C6001308800031
S2140153A46F00C00093874700638EC70403A70700F6
S2140153B483264703E39806FF8326070283A806008D
S2140153C493858800032305008326030083A606002D
S2140153D4138E06FFE3C8C5FD93860601E3C4B6FC37
S2140153E48326430083A5060093860801138305FFDD
S2140153F4E3CA66FAE3C815FB93061000232ED70406
S2140154046FF05FFA67800000B7071000130101FE12
S214015414938EF7FF33F8BE00B3F7DE0013D34601CD
S2140154242328210113D9450193973700232C8100A2
S2140154341318380013D4F5011357D5019358D60120
S2140154441379F97F1373F37F232E1100232A910016
S2140154542326310193D6F601B3E8F8003367070132
S21401546493153500131F3600B30769406304D41E31
S2140154746352F016630603289306F07F6306D94247
S214015484930680031306100063CEF602B706800067
S214015494B3E8D8009306F00163CEF65293060002F1
S2140154A4B386F6403396D8003355FF00B316DF00B3
S2140154B43366A600B336D000B3D8F8003366D600F8
S2140154C4330717413386C540B3B5C50093040600B8
S2140154D4B309B7409397890063DA0732B7078000A8
S2140154E49387F7FFB3F9F9006388092C138509003C
S2140154F4EF20C031930785FF930600023387F640F9
S21401550433D7E400B399F90033673701B394F40051
S21401551463C8274BB387274193871700B386F640A2
S2140155243396D400B3D9F4003336C000336636015B
S214015534B316D700B3E4C600B359F7001309000045
S21401554493F774006380070293F7F400130740008F
S214015554638AE7009387440033B69700B389C9008A
S214015564938407009397890063DA076E93071900FB
S2140155741307F07F130E04006386E72A370780FFBC
S2140155841307F7FF33F7E90093F7F77F1318D701EB
S21401559413D63400131797003368C8001357C7008F
S2140155A48320C1010324810193974701B3E7E700F0
S2140155B41317FE01B3E7E700832441010329010120
S2140155C48329C1001305080093850700130101020E
S2140155D467800000638C0714B30723416312093CF8
S2140155E43365B7006304054C1385F7FF6302056052
S2140155F41308F07F6386075793078003130610008A
S21401560463CCA702930705001306F001634CF65614
S214015614130500023305F5403316A70033D8F50009
S2140156243395A500336606013335A0003357F700DA
S2140156343366A600B388E8403306CF403337CF003D
S21401564493040600B389E840130903001384060093
S2140156546FF05FE86350F01E63100314B3E6E801CD
S214015664638C06269386F7FF638006481306F07F4D
S214015674638CC722930780039309100063CCD70277
S214015684938706009306F00163C0F64A9306000268
S214015694B386F640B399D8003356FF00B316DF003D
S2140156A4B3E9C900B336D000B3D8F800B3E9D900DA
S2140156B433071701B385B900B3B9350193840500DF
S2140156C4B389E9009397890063D207141309190073
S2140156D49307F07F630CF936B70780FF9387F7FFCC
S2140156E413F61400B3F7F90013D714003367C70091
S2140156F41396F701B364E60093D917006FF05FE4DD
S214015704B3E6E801638A061C9386F7FF63800640C6
S2140157141306F07F638AC7189307800313061000E5
S214015724E3C2D7DA938706006FF0DFD613081900B1
S2140157341378E87F631C08223363B70033E8E80173
S21401574463100938630E034663060840B389E541CE
S21401575433B53501330617413306A64013158600C3
S214015764635E0550B305BF403387E840333FBF004F
S2140157743307E7411316870093840500635E0652D8
S214015784B70780FF9387F7FF3377F700138E06007A
S214015794930710006FF09FDF9306F07F6306D9101E
S2140157A49306800393091000E3C6F6F0B70680005B
S2140157B4B3E8D8006FF01FED13850400EF20000551
S2140157C4930785019306F001E3D8F6D2130785FF04
S2140157D43397E40063C627233389274193071900C7
S2140157E463D6F648130919FE93060002B35427013B
S2140157F4638CD70093060004B387F6403317F7008B
S2140158043337E000B3E4E4001309000093F77400AF
S214015814E39C07D29307090013D6340013870900C3
S2140158246F00000C9307F07F1307000013080000B5
S2140158346FF01FD7638A070CB30723416302091E5F
S2140158449306F07F6308D33293068003930910000E
S21401585463CEF602B70680003367D7009306F001DD
S21401586463C8F63C93060002B386F640B319D70024
S21401587433D6F500B396D500B3E9C900B336D000E4
S2140158843357F700B3E9D900B388E8003387E90151
S214015894B339370193040700B389190113090300C7
S2140158A46FF05FE2631008021316350013563600D4
S2140158B41318D7013368C800135737003367070135
S2140158C463060718130E00009307F07F37070800D6
S2140158D4130800006FF0DFCC13163500135636009C
S2140158E41318D7019306F07F3368C800135737009F
S2140158F4E386D7FC1317C7001357C70093F7F77F40
S214015904130E04006FF0DFC99306190013F8E67F3F
S21401591463180814B366B700631C0928638206304B
S214015924B3E6E80163880622B387E501B3B5B70099
S214015934330717013307B70013D8370093178700C7
S214015944130E040063DE0734B70780FF9387F7FF5F
S2140159543377F7009317D7011357370033E8070156
