S00C00006D61696E2E7372656373
S21401009497610800938141E71701FF03130141F6B5
S2140100A413850198174630001306C6923306A640F8
S2140100B493050000EFA0001517A500001305050F12
S2140100C4EF80D064EFA0800413050000930541007F
S2140100D413060000EF00800E6F8090643755090008
S2140100E4375709009307457013074770630AF700EB
S2140100F493070000638607001305457067800700B1
S2140101046780000037550900930745703757090083
S21401011493054770B385F54093D7254093D5F501EC
S214010124B385F50093D51540638A0500930700004F
S2140101346386070013054570678007006780000023
S214010144130101FF2324810083C701A5232611007F
S21401015463940702EFF09FF893070000638A070091
S214010164375509001305850197000000E7000000D4
S214010174930710002388F1A48320C100032481007F
S21401018413010101678000009307000063860702DC
S21401019437550900130101FF938541A51305850110
S2140101A42326110097000000E70000008320C10009
S2140101B4130101016FF01FF56FF0DFF4130101FE67
S2140101C4232E1100232C8100232A910023282101A8
S2140101D423263101EF204046EF204007EF20502030
S2140101E413088002930700141307800C930600007B
S2140101F413060000B7E9040093858907138501A057
S214010204EF00107913088002930700141307800C7B
S214010214930600001306000037890400930589C776
S2140102241385C19FEF00D07613088002930700144C
S2140102341307800C9306000013060000B72404007D
S214010244938584871385819FEF0090741308800239
S214010254930700141307800C93060000130600008E
S21401026437B40300930584471385419FEF0050720A
S21401027413088002930700141307800C93060014D6
S21401028413060000938589071385019FEF005070BC
S21401029413088002930700141307800C93060014B6
S2140102A413060000930589C71385C19EEF00506E9F
S2140102B413088002930700141307800C9306001496
S2140102C413060000938584871385819EEF00506C86
S2140102D413088002930700141307800C9306001476
S2140102E413060000930584471385419EEF00506A68
S2140102F413088002930700141307800C9306002842
S21401030413060000938589071385019EEF00506844
S21401031413088002930700141307800C9306002821
S21401032413060000930589C71385C19DEF00506627
S21401033413088002930700141307800C9306002801
S21401034413060000938584871385819DEF0050640E
S21401035413088002930700141307800C93060028E1
S21401036413060000930584471385419DEF005062F0
S214010374130880079307000A13070000930600007A
S2140103841306000037340200930584A2138541A1A5
S214010394EF00106003A541A1EF00005B03A541A196
S2140103A4EF001072130880079307000A1307000072
S2140103B49306000A13060000930584A2138501A17F
S2140103C4EF00105D03A501A1EF00005803A501A1EC
S2140103D4EF00106F130880079307000A13078007BE
S2140103E49306000013060000930584A21385C1A09A
S2140103F4EF00105A03A5C1A0EF00005503A5C1A044
S214010404EF00106C130880079307000A1307800790
S2140104149306000A13060000930584A2138581A09F
S214010424EF00105703A581A0EF00005203A581A099
S214010434EF0010691308D0089307100D1307E001A5
S2140104449306800313060000B7D502009385C5E31F
S2140104541385C1A1EF00D05303A5C1A1EF00C04E7F
S21401046403A5C1A1EF00D065130810019307A006E8
S2140104741307800C9306B00613060000B7C50200E6
S21401048493858502138581A1EF00905003A581A170
S214010494EF00804B03A581A1EF009062EF40505618
S2140104A4130500008320C101032481018324410133
S2140104B4032901018329C100130101026780000099
S2140104C4130101FC232E1102232C8102232A9102FB
S2140104D42328210323263103232441032322510302
S2140104E423206103232E7101232C8101232A9101E8
S2140104F42328A1012326B10113040500938C0500CA
S214010504930D0600138D0600130B0700938B07004B
S2140105143305F70213151500EF805023130C05005D
S21401052413054000EF809022930A05002322A400BD
S21401053413054000EF809021130A05002324A4002C
S21401054413058000EF809020930905002326A4005C
S21401055413058000EF80901F130905002328A400CB
S21401056413054000EF80901E93040500232AA4007F
S214010574232C6401232E7401930710002320F50015
S21401058423A0BA012320AA01130700009307000041
S21401059423A0E90023A2F9002320E9002322F9007D
S2140105A413054003EF80901A2320A4002322950309
S2140105B4232A750123286501232485032320550155
S2140105C423224501232E350123202503232C9500C0
S2140105D48320C103032481038324410303290103E4
S2140105E48329C102032A8102832A4102032B0102C1
S2140105F4832BC101032C8101832C4101032D0101AD
S214010604832DC10013010104678000006302050AFB
S214010614130101FF232611002324810023229100C4
S2140106241304050013054001EF80501293040500DE
S214010634630805068327440003A7070023A0E400F4
S214010644032784008326070023A2D40083A7070078
S21401065483268401B387D70023A4F4008326C40128
S2140106649307900063C6D7009307A000232EF400D7
S214010674832707000327C401B387E70023A6F400F2
S21401068403A7019823A8E40023A091988320C1001E
S21401069403248100832441001301010167800000C3
S2140106A43745050013058547EF9080616FF09FF885
S2140106B467800000130101FF232611002324810013
S2140106C41304050003250500EF00002813050400A4
S2140106D4EFF0DFF38320C10003248100130101013D
S2140106E467800000130101FF2326110023248100E3
S2140106F403A4019863020404232291002320210108
S2140107049304000037490500938504008327C40039
S21401071403278400832644000326040093841400DC
S21401072413054949EF90804703240401E31E04FCA2
S21401073483244100032901008320C100032481008E
S2140107441301010167800000130101FE232E11002D
S21401075483A70198638E070A232C8100232A91001C
S214010764232821012326310113040500938405005F
S2140107741309060093890600130500006F000002A2
S21401078483A6070123A0D1986F00000403A70701DD
S21401079413850700630607069307070003A70700E8
S2140107A4E31687FE03A74700E31297FE03A7870015
S2140107B4E31E27FD03A7C700E31A37FDE30205FC82
S2140107C403A707012328E50013850700EF80C078F7
S2140107D41387090093060900138604009305040091
S2140107E4374505001305454BEF90403B0324810133
S2140107F483244101032901018329C1006F000002FA
S2140108040324810183244101032901018329C100B1
S214010814374505001305054EEF90804A8320C10134
S2140108241301010267800000130101FF2326110052
S214010834232481001304050003250500EF00805FCF
S2140108448327440003A507008327840083A50700A4
S2140108548326C40103268401B386D5003306C50066
S214010864EFF09FEE8320C1000324810013010101F0
S21401087467800000630C0506130101FF232611009F
S2140108842324810013040500EFF01FFA83270400D4
S21401089403A58702EF80406C03254400630405002A
S2140108A4EF80806B0325840063040500EF80C06A33
S2140108B40325C40063040500EF80006A03250401D0
S2140108C463040500EF8040690325440163040500C1
S2140108D4EF80806813050400EF8000688320C10060
S2140108E40324810013010101678000006780000072
S2140108F483274501130600009305F0FF634CF002BD
S21401090467800000B387C702B387E70083268502A2
S21401091493971700B387F6002390B70013071700C1
S21401092483270501E340F7FE1306160083274501D6
S214010934635AF6008327050113070000E344F0FC1D
S2140109446FF09FFE67800000130101FE232E110045
S214010954232C8100130405008327050083A70700C1
S2140109642324F5008327450083A707002326F500E3
S214010974EFF01FF8930710002326F402832744019F
S2140109846352F04A232A91002328210123263101A8
S2140109942324410123225101130600001303000FEF
S2140109A41305003C1308F0FF93021000130EF01316
S2140109B437DF2700130F4F17B77E1E00938E4E178F
S2140109C4930420001309F027B77F1700938F4F97DE
S2140109D46F0000428329440003AA0900330A460132
S2140109E493194A00B389494193996900B386D9009A
S2140109F493961600B386DF00839906008326840245
S214010A04B387F600239037018327440083A60700A3
S214010A14B306D6008329040093974600B387D740CC
S214010A249397670083A60900B306D700B387D70058
S214010A3493971700B387FF002390B7006F00C00099
S214010A44638E590C638A99261307170083270401BA
S214010A54635AF7388326040083A60600B306D70034
S214010A64E364D5FEB387C702B387E70093971700FD
S214010A7483254402B385F50083950500E38605FDC9
S214010A8483A98198E39E09FAE346DEF403AAC19892
S214010A948326C400B306D600939696008329840061
S214010AA4B3093701B386360193961600B386460119
S214010AB483D9060083268402B387F6002390370180
S214010AC48327440083A70700B307F600939797008C
S214010AD48326040083A60600B306D700B387D7008F
S214010AE493971700B387E7012390B7008327440041
S214010AF483A70700B307F60093979700832604009D
S214010B0483A60600B306D700B387D70093971700CA
S214010B14B387D7012390B7006FF01FF3635ADE0A39
S214010B246342D91203AAC1988326C400B306D60029
S214010B3493969600938606EC83298400B3093701BD
S214010B44B386360193961600B386460183D906000A
S214010B5483268402B387F600239037018327440053
S214010B6483A70700B307F60093979700938707ECCC
S214010B748326040083A60600B306D700B387D700EE
S214010B8493971700B7D6270093864617B387D700DF
S214010B942390B7008327440083A70700B307F60012
S214010BA493979700938707EC8326040083A6060091
S214010BB4B306D700B387D70093971700B7761E00FE
S214010BC493864617B387D7002390B7006FF0DFE705
S214010BD4377A1700130A4A978329440083AA09001F
S214010BE4B30A560193994A00B38959419399690006
S214010BF4B386D90093961600B306DA0083990600E5
S214010C0483268402B387F6002390370183274400A2
S214010C1483A60700B306D6008329040093974600EB
S214010C24B387D7409397670083A60900B306D70016
S214010C34B387D70093971700330AFA002310BA0034
S214010C446FF09FE0377A1700130A4A978329440006
S214010C5483AA0900B30A560193994A00B3895941F4
S214010C6493996900B386D90093961600B306DA0001
S214010C748399060083268402B387F60023903701FE
S214010C848327440083A60700B306D60083290400FD
S214010C9493974600B387D7409397670083A60900C6
S214010CA4B306D700B387D70093971700330AFA0021
S214010CB42310BA006FF05FD9635CD90A9309003C2C
S214010CC4E38436D903AAC1988326C400B306D600A2
S214010CD493969600938606D883298400B309370130
S214010CE4B386360193961600B386460183D9060069
S214010CF483268402B387F6002390370183274400B2
S214010D0483A70700B307F60093979700938707D83E
S214010D148326040083A60600B306D700B387D7004C
S214010D2493971700B7D6270093864617B387D7003D
S214010D342390B7008327440083A70700B307F60070
S214010D4493979700938707D88326040083A6060003
S214010D54B306D700B387D70093971700B7761E005C
S214010D6493864617B387D7002390B7006FF0DFCD7D
S214010D74377A1700130A4A978329440083AA09007D
S214010D84B30A560193994A00B38959419399690064
S214010D94B386D90093961600B306DA008399060043
S214010DA483268402B387F600239037018327440001
S214010DB483A60700B306D60083290400939746004A
S214010DC4B387D7409397670083A60900B306D70075
S214010DD4B387D70093971700330AFA002310BA0093
S214010DE46FF09FC613061600832744016352F6026A
S214010DF48327440083A70700B307F600E364F3FEE2
S214010E0483270401E350F0FE130700006FF09FC42C
S214010E1483244101032901018329C100032A810096
S214010E24832A41008320C1010324810113010102A5
S214010E34678000000327C502930710006306F700C6
S214010E442326050267800000832745016354F028A2
S214010E54130101FF2326810023249100232221016B
S214010E642320310183A5819813060000130F000F78
S214010E741308F0FF13031000930F20009308F013D8
S214010E84B7DE2700938E4E17377E1E00130E4E17BD
S214010E949303F0271304F03BB7721700938242972B
S214010EA46F0000200329C500330926019316490063
S214010EB4B386264193966600B386960093961600EB
S214010EC4B386D2002390F6006F00C00063846508E1
S214010ED4638CF5131307170083270501635CF71A60
S214010EE4B387C702B387E700832685029397170063
S214010EF4B387F60083970700E38E07FDE39805FCA6
S214010F0483248500B3049700E3C604FCE3CC98F875
S214010F148326C500B306D60093969600B38696003C
S214010F2493961600B386D6012390F6008326C50051
S214010F34B306D6009396960083248500B3049700DF
S214010F44B386960093961600B386C6012390F600E0
S214010F546FF05FF883248500B304970063DA98047E
S214010F6463CC93068326C500B306D60093969600F3
S214010F74938606ECB386960093961600B386D6013E
S214010F842390F6008326C500B306D60093969600F2
S214010F94938606EC83248500B3049700B3869600F3
S214010FA493961600B386C6012390F6006FF09FF25F
S214010FB40329C5003309260193164900B386264141
S214010FC493966600B386960093961600B386D2006F
S214010FD42390F6006FF01FF0377917008329C500B8
S214010FE4B309360193964900B38636419396660053
S214010FF4B38696009396160093044997B386D40055
S2140110042390F6006FF01FED83248500B304970048
S21401101463DA9304E34094EC8326C500B306D60052
S21401102493969600938606D8B386960093961600F2
S214011034B386D6012390F6008326C500B306D600F0
S21401104493969600938606D883248500B304970066
S214011054B386960093961600B386C6012390F600CF
S2140110646FF05FE7377917008329C500B3093601A6
S21401107493964900B386364193966600B3869600E6
S2140110849396160093044997B386D4002390F600EA
S2140110946FF05FE413061600832745016350F602DA
S2140110A48327C500B307F600E366FFFE8327050121
S2140110B4E352F0FE130700006FF09FE20324C10021
S2140110C483248100032941008329010013010101BE
S2140110D467800000678000009307050003278501E9
S2140110E4032507006302050603A7850103250700F8
S2140110F4630C050403A707008326070003A705005E
S2140111040326070003A705013307E60013050000BD
S21401111463DCE60203A70701B386E6006356D6023C
S21401112403A747008326070003A7450003260700F5
S21401113403A745013307E60063D8E60083A7470102
S214011144B386F6003325D600678000000327050022
S2140111548327070083A6050003A606009386570087
S21401116463D4C7009386B7FF2320D700032745001F
S2140111748327070083A6450003A606009386570027
S21401118463D4C7009386B7FF2320D7006780000087
S214011194130101FC232E1102232C8102232A91021E
S2140111A42328210323263103232441032322510325
S2140111B423206103232E7101232C8101232A91010B
S2140111C42328A1012326B10193040500938D05006C
S2140111D4930C0600138C0600930B0700138B070071
S2140111E4930A080013054003EF70505613040500D4
S2140111F423A0A40033055B0313151500EF701055E7
S214011204130D050013054000EF705054130A050032
S2140112142320A40013054000EF70505393090500E2
S2140112242322A40013058000EF7050521309050011
S214011234232EA40013058000EF705051930405007B
S2140112442320A40213054000EF705050232CA40061
S21401125423286401232A54012322B4032324A40348
S2140112642320950123208A0123A079011307000076
S214011274930700002320E9002322F90023A0E400B9
S21401128423A2F4008320C10303248103832441039E
S214011294032901038329C102032A8102832A410205
S2140112A4032B0102832BC101032C8101832C4101F1
S2140112B4032D0101832DC100130101046780000081
S2140112C4630E0504130101FF232611002324810064
S2140112D41304050003250500EF7010480325440098
S2140112E4EF7090470325C401EF70104703250402ED
S2140112F4EF70904603258401EF701046032584029F
S214011304EF70904513050400EF7010458320C1006B
S2140113140324810013010101678000006780000037
S214011324130101FF232611002324810023229100A7
S21401133493040500138405001306000093060000B9
S2140113441385040093050400EF60900163400502D1
S21401135413850400930504008320C100032481003F
S214011364832441001301010167800000B707008050
S21401137433C487006FF0DFFD130101FA232E110435
S214011384232C8104232A91042328210523263105AD
S214011394232441052322510523206105232E7103AD
S2140113A4232C8103232A91032328A1032326B10393
S2140113B4130405009384050013090600138D060023
S2140113C42328E100232AF100232C0101232E1101F5
S2140113D4834D010613050040EF7050372320A1000A
S2140113E413050040EF7090362322A1001305004038
S2140113F4EF70D0352324A10013050040EF7010359B
S2140114042326A10013050040EF705034930C050009
S21401141413054000EF709033930B05002320A402BC
S21401142413054000EF709032130B05002322A4022B
S21401143413058000EF709031930A05002324A4025B
S21401144413058000EF709030130A05002326A402CA
S21401145413054000EF70902F130C05002328A402F7
S21401146413054000EF70902E930905002320A40471
S214011474232A040293071000232CF404232E0402C7
S214011484930700012322F404930700022324F4049F
S21401149413050002EF70902B1307F0139307000057
S2140114A463589700938704ECB337F70093871700C4
S2140114B4232AA404032741062320E406232E040436
S2140114C42328F404930710002320FC0023A09B0088
S2140114D423202B01130700009307000023A0EA0032
S2140114E423A2FA002320EA002322FA0093074006E7
S2140114F423A0F90093071006638EFD189308A00035
S2140115041308D9FF938734001307A000930620001D
S2140115141306100093858194EF4050091305400388
S214011524EF70D022930405002320A4002322A503F0
S21401153493090002232A35011309000123282501F2
S2140115442324950313054003EF705020130A050066
S2140115542322A400832701012322F502232A35012D
S21401156423282501832701002324F50213054003BC
S214011574EF70D01D930A05002324A400832741019C
S2140115842322F502232A3501232825018327410036
S2140115942324F50213054003EF70501B130B0500BB
S2140115A42326A400832781012322F502232A350159
S2140115B423282501832781002324F50213054003EC
S2140115C4EF70D0182328A4008327C1012322F50233
S2140115D4232A3501232825018327C1002324F50264
S2140115E48325040223A0B4000326440223A2C400D4
S2140115F48326840223AED4000327C40223A0E40274
S2140116048327040323ACF4002320BA002322CA0050
S214011614232EDA002320EA02232CFA0023A0BA00A0
S21401162423A2CA0023AEDA0023A0EA0223ACFA00FE
S2140116342320BB002322CB00232EDB002320EB0236
S214011644232CFB002320B5002322C500232ED5001E
S2140116542320E502232CF5008320C10503248105FC
S21401166483244105032901058329C104032A81042E
S214011674832A4104032B0104832BC103032C810316
S214011684832C4103032D0103832DC102130101069B
S214011694678000009308A0001308D9FF93873400DD
S2140116A41307A00093062000130610009385C19427
S2140116B4EF40C06F6FF09FE6130101FF2326110070
S2140116C42324810013040500630005048327040210
S2140116D483A50700032544043385A5008327440214
S2140116E483A6070083278404B386F60083A701989C
S2140116F463980702232E04028320C1000324810079
S2140117041301010167800000374505001305054FE5
S214011714EF80005B6FF09FFB83A70701E38C07FC58
S21401172403A74700E3CAE6FE03A6C700E346D6FEC0
S21401173403A68700E342B6FE03A60700E34EC5FCF4
S21401174493071000232EF4028327C4021306000015
S2140117549306000023A0C70023A2D70083274402D0
S214011764832684043307D74023A0E7006FF0DFF80D
S21401177493070500032705030325070063020506EF
S21401178403A7050303250700630C050403A7070243
S2140117948326070003A705020326070003A74504BB
S2140117A43307E6001305000063DCE60203A74704DB
S2140117B4B386E6006356D60203A7470283260700CC
S2140117C403A745020326070003A785043307E6009B
S2140117D463D8E60083A78704B386F6003325D600CC
S2140117E46780000093070500032705030325070008
S2140117F46302050603A7850103250700630C050498
S21401180403A707028326070003A70500032607008C
S21401181403A705013307E6001305000063DCE602AF
S21401182403A74704B386E6006356D60203A7470216
S2140118348326070003A745000326070003A74501DF
S2140118443307E60063D8E60083A78704B386F60069
S2140118543325D60067800000032705028327070087
S21401186483A6050003A606009386570063D4C70023
S2140118749386B7FF2320D700032745028327070053
S21401188483A6450003A606009386570063D4C700C3
S2140118949386B7FF2320D70067800000130101FF5A
S2140118A423261100032785039307700063E0E706E8
S2140118B49317270037570500130707B3B387E700C5
S2140118C483A707006780070003250500EFF08FD67E
S2140118D48320C10013010101678000000325450030
S2140118E4EFF04FD56FF0DFFE03258500EFF08FD4C0
S2140118F46FF01FFE0325C500EFF0CFD36FF05FFD39
S21401190403250501EFF00FD36FF09FFC3745050063
S2140119141305C550EF80C03A6FF09FFB6306050AB6
S214011924130101FF2326110023248100130405005B
S214011934EFF0DFF68327040003A58702EF70C0618A
S2140119448327440003A58702EF7000618327840080
S21401195403A58702EF7040608327C40003A58702AE
S214011964EF70805F8327040103A58702EF70C05ED2
S2140119740325040263040500EF70005E0325440298
S21401198463040500EF70405D0325840263040500CB
S214011994EF70805C0325C40263040500EF70C05B2E
S2140119A40325040363040500EF70005B03250404A8
S2140119B463040500EF70405A8320C10003248100AC
S2140119C4130101016780000067800000130101FF15
S2140119D423261100232481002322910023202101A0
S2140119E493040500130400001309800283A7440529
S2140119F483A70700B387870003A50700EFE0DFF49A
S214011A0413044400E31424FF9305A00003A544052E
S214011A14EF40005E8320C10003248100832441003B
S214011A24032901001301010167800000130101FE6F
S214011A34232E1100232C8100232A9100232821011F
S214011A44130405008327450503A7C7016356E0026F
S214011A549304000083A7070013972400B387E700C5
S214011A6403A50700EFF00FBD9384140083274405F4
S214011A7403A7C701E3C0E4FE03A7470083270402C4
S214011A8483A70700938737002320F700832744059D
S214011A9403A787008327440283A707009387D7FFFA
S214011AA42320F700930700001308A000032744052A
S214011AB41396270083260700B386C60083A606006E
S214011AC483A506000325470083260701B386D702AC
S214011AD4032705003307D70023A0E5008326440522
S214011AE403A706003307C700032707000327470099
S214011AF483A6860083A606002320D70093871700B3
S214011B04E39607FB8327040403A50700EF70002C64
S214011B14B757090003A6877083A6C770EF50D00293
S214011B2403A6818083A6C180EF600024EF70C021E4
S214011B34130905006356A006232631012324410117
S214011B44232251019304000093096000130A100034
S214011B54930A70006F00C00093841400630C99020A
S214011B6403274403E30A37FF832784039387A7FFE6
S214011B74E374FAFEE30257FF8327440583A70700AD
S214011B8413972400B387E70003A50700EFE0DFDB24
S214011B946FF09FFC8329C100032A8100832A410038
S214011BA49305090003254405EF4080448320C101C1
S214011BB40324810183244101032901011301010244
S214011BC467800000130101FF2326110023248100EE
S214011BD41304050063840502032784039307700036
S214011BE463E6E7029317270037570500130707B57F
S214011BF4B387E70083A7070067800700EFF01FE3BA
S214011C046FF09FFD03250400EFF0CFA203274403E2
S214011C149307700063EAE704931727003757050014
S214011C24130707B7B387E70083A707006780070092
S214011C3403254400EFF00FA06FF05FFD0325840039
S214011C44EFF04F9F6FF09FFC0325C400EFF08F9ECB
S214011C546FF0DFFB03250401EFF0CF9D6FF01FFB50
S214011C6403250400EFE05FCE8320C1000324810036
S214011C74130101016780000003254400EFE0DFCC77
S214011C846FF09FFE03258400EFE01FCC6FF0DFFDAD
S214011C940325C400EFE05FCB6FF01FFD03250401AD
S214011CA4EFE09FCA6FF05FFC130101FF23261100CA
S214011CB423248100232221012320310193071000CC
S214011CC46388F50403248502032904008329440058
S214011CD403A6818283A6C1821305090093850900A0
S214011CE4EF5010786358050A03A7818283A7C1823F
S214011CF42320E4002322F4008320C100032481006E
S214011D0403294100832901001301010167800000B2
S214011D1403248502032904008329440003A60181C0
S214011D2483A641811305090093850900EF5050638A
S214011D34635CA00003A7018183A741812320E400FB
S214011D442322F4006FF05FFB03A6818183A6C18181
S214011D541305090093850900EF509070635C050034
S214011D6403A7818183A7C1812320E4002322F400F1
S214011D746FF09FF803A6018283A64182130509002A
S214011D8493850900EF40D04F2320A4002322B400FA
S214011D946FF09FF603A6018383A64183130509000A
S214011DA493850900EF50D05B635CA00003A7018311
S214011DB483A741832320E4002322F4006FF0DFF39A
S214011DC403A6018283A641821305090093850900AF
S214011DD4EF6000672320A4002322B4006FF0DFF134
S214011DE4130101FE232E1100232C8100232A9100C6
S214011DF4232821011304050063020520232631014B
S214011E04232441012322510193840500130906006A
S214011E1483274503232CF502B757090083A58702B8
S214011E2413850400EF8080546306050083A741955B
S214011E346390070623AA019493091000232A340306
S214011E449305000013050400EFF01FE6032A0402BD
S214011E54832A840203250A00EF60507703A60A004A
S214011E6483A64A00EF40D041EF60106E2320AA00FB
S214011E748327840203A5070083A54700EF60D06C7F
S214011E8483270900B387A7002320F900232C3405F0
S214011E94B757090083A5C70213850400EF80004DD8
S214011EA46306050083A781956390070623AC019416
S214011EB493092000232A3403930510001305040014
S214011EC4EFF09FDE032A0402832A840203250A0014
S214011ED4EF60D06F03A60A0083A64A00EF40503A8B
S214011EE4EF6090662320AA008327840203A50700D7
S214011EF483A54700EF60506583270900B387A700D1
S214011F042320F900232C3405B757090083A50703BA
S214011F1413850400EF808045631805000327C40475
S214011F249307100063D4E70EB757090083A5470348
S214011F3413850400EF80804363100502832784021F
S214011F44130600009306000023A0C70023A2D700AF
S214011F541307100023AAE194B757090083A5870342
S214011F6413850400EF808040631C050E83278402DA
S214011F74130600009306000023A0C70023A2D7007F
S214011F841307100023ACE1948329C100032A8100BE
S214011F94832A41008327840203A5070083A54700FB
S214011FA4EF60905A631E05008324C40203A504004F
S214011FB483A54400EF605059631C050A232A0402D2
S214011FC48324C40203A5040083A54400EF60D0570C
S214011FD46310050A8327C403639E070A83278405BF
S214011FE413072000638EE70C13071000639EE70CAB
S214011FF493076000232AF4026F00000D374505009D
S2140120041305054FEF70D04B6FF0DFF88327840577
S21401201413072000638AE70213071000638CE702A4
S2140120248327C40203A6818283A6C18223A0C70094
S21401203423A2D700232E04028327C4049387170000
S2140120442326F4046FF05FEE93077000232AF4024C
S2140120546FF01FFD93076000232AF4026FF05FFC04
S2140120648329C100032A8100832A41006FF09FF26D
S2140120748327C403130710006382E702032784053A
S214012084930620006308D702930610006304D70C56
S214012094638C0702232604046F004007130700001D
S2140120A49307000023A0E40023A2F400232A0402D9
S2140120B46FF05FF213077000232AE402E39C07FC27
S2140120C493077000232AF4028324C40203A681839F
S2140120D483A6C18303A5040083A54400EF40501AD8
S2140120E423A0A40023A2B400832444020329C40227
S2140120F403A50400EF60904D0326090083264900DA
S214012104EF401018EF60504423A0A4008327040274
S21401211403A707009306F0139307000063DAE600AB
S214012124130707EC9307F013B3B7E7009387170079
S2140121342328F40413050400EFF00FD88320C1010B
S21401214403248101832441010329010113010102AE
S2140121546780000013076000232AE402E38A07E885
S2140121646FF05FF39307100023AAF19423ACF19464
S21401217467800000130101FF232611002324810038
S21401218423229100232021011304050063860506FA
S21401219493050000EFF05FB103290402832784024C
S2140121A403A6018483A6418403A5070083A54700EB
S2140121B4EF50903B930405001384050003250900A2
S2140121C4EF60D040130605009386050013850400CE
S2140121D493050400EF40D00AEF6010372320A900CE
S2140121E48320C100032481008324410003290100C4
S2140121F4130101016780000093051000EFF0DFAAC8
S214012204032904028327840203A6018483A6418446
S21401221403A5070083A54700EF5010359304050076
S2140122241384050003250900EF60503A13060500E0
S214012234938605001385040093050400EF405004BB
S214012244EF6090302320A9006FF09FF937731700D1
S214012254130343BFB7180E009388489737680900DD
S2140122641308489737C51200130545E7130E0000F7
S214012274B78E0300938E0E40130705B013060800AD
S2140122849386080093070300938507D82320B70095
S21401229423A0F600938507282320B60013074700DA
S2140122A4938727009386460013064600E31EA7FC81
S2140122B4130303789388085013080850130E0E3C32
S2140122C413050550E31ADEFB67800000B7C8120049
S2140122D493884897930500281308000037E3010004
S2140122E4931718009386080003A7C1983307F700CD
S2140122F403A60600035707002310E600938727006A
S21401230493864600E392B7FE938808501308082084
S21401231493850540E31668FC67800000B7180E0035
S21401232493884897930500281308000037E30100B3
S214012334931718009386080003A7C1983307F7007C
S21401234403A60600035707002310E6009387270019
S21401235493864600E392B7FE938808501308082034
S21401236493850540E31668FC67800000B76809009A
S21401237493884897930500281308000037E3010063
S214012384931718009386080003A7C1983307F7002C
S21401239403A60600035707002310E60093872700C9
S2140123A493864600E392B7FE9388085013080820E4
S2140123B493850540E31668FC6780000093959500B5
S2140123C4B385A50093951500B7D7270093874717BC
S2140123D4B387F5002390C700B7771E009387471786
S2140123E4B385F5002390C50067800000130101FE44
S2140123F4232E1100232C8100232A91002328210156
S21401240423263101232441012322510137CA120014
S214012414130A4A97B7BA0400B30A5A01130900000B
S2140124249309001493040A001304000083A704000C
S214012434039607009305090013050400EFF01FF83F
S2140124441304140093844400E31234FF130919009F
S214012454130A0A50E3185AFD8320C101032481019B
S21401246483244101032901018329C100032A810030
S214012474832A41001301010267800000130101FE53
S214012484232E1100232C8100232A910023282101C5
S214012494232631012324410123225101371A0E0038
S2140124A4130A4A97B7BA0400B30A5A01130900007B
S2140124B49309001493040A001304000083A704007C
S2140124C4039607009305090013050400EFF01FEFB8
S2140124D41304140093844400E31234FF130919000F
S2140124E4130A0A50E3185AFD8320C101032481010B
S2140124F483244101032901018329C100032A8100A0
S214012504832A41001301010267800000130101FEC2
S214012514232E1100232C8100232A91002328210134
S214012524232631012324410123225101376A09005C
S214012534130A4A97B7BA0400B30A5A0113090000EA
S2140125449309001493040A001304000083A70400EB
S214012554039607009305090013050400EFF01FE630
S2140125641304140093844400E31234FF130919007E
S214012574130A0A50E3185AFD8320C101032481017A
S21401258483244101032901018329C100032A81000F
S214012594832A41001301010267800000130101FE32
S2140125A4232E1100232C8100232A910023282101A4
S2140125B423263101930400001309000F9309001424
S2140125C41304000013060000930504001385040099
S2140125D4EFF0DFDE13041400E31624FF93841400E3
S2140125E4E39034FF8320C101032481018324410144
S2140125F4032901018329C100130101026780000038
S214012604B73720FF1307100023A0E702B73720FFD0
S2140126149387C70283A7070093F71700638C070005
S214012624373720FF1307C7028327070093F71700DE
S214012634E39C07FE67800000130101FF23261100B7
S214012644232481002322910003A7C195B7D727002D
S214012654938747172322F700EFF09FFA83A7C195C4
S21401266483A7070023A6F198EFF05FF303A7C195AC
S214012674B7771E00938747172322F700832747005F
S21401268423A6F198EFF09FF18320C1000324810073
S214012694832441001301010167800000130101FF37
S2140126A423261100374505001305C551EF70406117
S2140126B43745050013058553EF70806003A3019623
S2140126C483C6919903C68199B78800009305000FC4
S2140126D4130EA0056F0080019306060013F6F70F8C
S2140126E423AAF19823A8E198638AB60083270300F6
S2140126F433F71701E30607FE6FF01FFEE318C6FF64
S214012704238C0198A38C0198238D019837450500E5
S21401271413050555EF70C05A8320C100130101014A
S21401272467800000130101FF2326110093000000B7
S21401273403AE019683C6819903C69199930F00004F
S21401274493020000930300003783000093051000F2
S21401275413056001930EE001130F000F6F00800054
S2140127646308E60783270E0033F76700630E070046
S214012774930006001386060093F6F70F938F050061
S214012784938205009383050023AAF19823A8E19870
S214012794E388A6FCE398D6FDE316E6FD63860F0000
S2140127A41307E001238CE19863840200238D1198BA
S2140127B463860300130700FFA38CE19837450500E1
S2140127C413054557EF70C04F130510006F00400303
S2140127D463860F0013076001238CE198638402006B
S2140127E4238D119863860300130700FFA38CE198D9
S2140127F43745050013050556EF70804C1305000098
S214012804238C0198A38C0198238D01988320C10001
S2140128141301010167800000130101FF2326110043
S2140128249300000003AE019683C6819903C691996D
S214012834930F000093020000930300003783000007
S2140128449305100013056001930EE001130F000FAA
S2140128546F0080006308E60783270E0033F76700DE
S214012864630E0700930006001386060093F6F70F1F
S214012874938F0500938205009383050023AAF1989C
S21401288423A8E198E388A6FCE398D6FDE316E6FDC3
S21401289463860F001307E001238CE198638402002A
S2140128A4238D119863860300130700FFA38CE19818
S2140128B43745050013054557EF7080401305100092
S2140128C46F00400363860F0013076001238CE198B1
S2140128D463840200238D119863860300130700FFA7
S2140128E4A38CE1983745050013058558EF70403DE4
S2140128F413050000238C0198A38C0198238D01985D
S2140129048320C100130101016780000083A701969B
S21401291483A7070023AAF1983787000033F7E70057
S21401292423A8E19813050000630C070203C79199D5
S214012934238DE19883C68199A38CD19893F7F70FD9
S214012944238CF1981306000E630EC7009307E0016B
S214012954130500006316F7009307000F6384F60C53
S21401296467800000130750076384E6066362D70294
S2140129749307B0066384F606930740076398F60048
S214012984B757090003A5C7026780000067800000E7
S2140129941307000F639AE602130750076386E704DA
S2140129A4130720076388E7041307B0066386E70660
S2140129B41307400713050000E394E7FAB757090025
S2140129C403A58703678000001305000067800000E5
S2140129D4B757090003A5070367800000B757090026
S2140129E403A5870267800000B757090003A5C7033C
S2140129F467800000130101FF2326110037450500F7
S214012A041305455AEF70C02B130500008320C1003F
S214012A141301010167800000B757090003A54703A6
S214012A2467800000B757090003A507046780000004
S214012A3483A7019683A7070023AAF1983787000086
S214012A4433F7E70023A8E198130500006308070697
S214012A5483C69199238DD19803C78199A38CE19854
S214012A6493F7F70F238CF1981306000E6380C602C2
S214012A7493079002130500006392F6046304F70AB1
S214012A849307000F630EF70E678000009306400756
S214012A946308D70663F6E602930650076306D7046F
S214012AA49306000F631ED702130750076380E706D9
S214012AB413072007130500006380E70667800000FC
S214012AC49307B0066308F702930720076318F70015
S214012AD4B757090003A54705678000006780000013
S214012AE41305000067800000B757090003A5C70453
S214012AF467800000B757090003A5870467800000B4
S214012B04B757090003A5470467800000B7570900B3
S214012B1403A5070567800000B757090003A58705C5
S214012B2467800000130101FF23261100232481007E
S214012B3403A6818483A6C18403A501A283A541A219
S214012B44EF30107423A0A1A223A2B1A203A601858B
S214012B5483A64185EF401078631E0500B757090028
S214012B6403A507068320C100032481001301010184
S214012B7467800000B757090003A5C7056FF09FFEDD
S214012B84B757090003A5070667800000130101FF74
S214012B9423261100232481002322910023202101CE
S214012BA41309050093840500EF60001A1304050059
S214012BB4EF60C0211306090093860400EF50400A13
S214012BC4132505003305A4008320C10003248100D6
S214012BD483244100032901001301010167800000D9
S214012BE403A7C199930610062300D70083A7C199AA
S214012BF423A2070023A4070023860700678000009A
S214012C049306050093871500938545001308300045
S214012C141306800033E50703131725003387E60000
S214012C2403270700032747036316C7009387170084
S214012C34E392B7FE678000001305900667800000E4
S214012C44130101FF2326110083A78198639A0702C3
S214012C5483A74198638E070213071000638CE7006D
S214012C64130720006396E702EFF04FF0EFF00FF83A
S214012C746F000002EFF08FEAEFF04FF76F004001AC
S214012C84130710006380E702130720006380E7043C
S214012C9403A7819823A2E1988320C10013010101AF
S214012CA46780000083A74198638C07001307200000
S214012CB4E390E7FEEFF08FEBEFF04FFC6FF05FFD74
S214012CC4EFF0CFE0EFF08FFB6FF09FFC83A7419806
S214012CD4638C070013071000E39CE7FAEFF00FE498
S214012CE4EFF0DF826FF0DFFAEFF04FDEEFF01F82D6
S214012CF46FF01FFA130101F4232E110A232C810A03
S214012D04238D0198A38C0198238C019883A7C199DC
S214012D1483C6070013071006638CE60E03A7870015
S214012D2413172700B737310093874717B387E70090
S214012D3483A7C70603A7070523A4E198EFF05FF06E
S214012D4483A7C19983A78700639407006F10D050A7
S214012D54130710006394E7006F10D0561307200082
S214012D646394E7006F10D05C03A501A0EFD0DFBD2C
S214012D7403A5019FEFD05FBD03A5019EEFD0DFBC85
S214012D840325C105EFD05FBC03250106EFD0DFBBE9
S214012D9403254106EFD05FBB375505001305858E25
S214012DA4EF60107283A7C19903A6870083C5070045
S214012DB4374505001305056DEF60505EEFF09F96ED
S214012DC42320A102631405006F10505D03A4C1996A
S214012DD483258400373531001305051EEFF05FE2C5
S214012DE42324A400930710062300F400EFF0DFE485
S214012DF493050500375505001305C58CEF60105A79
S214012E048320C10B0324810B1301010C678000008E
S214012E1403A7470013172700B737310093874717CF
S214012E24B387E70083A7070003A7070523A4E19850
S214012E34EFF01FE183A7C19983A747006386070ABA
S214012E44130710006386E710130720006388E7164C
S214012E5403A501A0EFD05FAF03A5019FEFD0DFAEBE
S214012E6403A5019EEFD05FAE0325C105EFD0DFAD0C
S214012E7403250106EFD05FAD03254106EFD0DFAC95
S214012E84374505001305056CEF60906383A7C19968
S214012E9403A6470083C50700374505001305056DDE
S214012EA4EF60D04FEFF01F882320A102630E0516B2
S214012EB403A4C1998325440037353100130545170A
S214012EC4EFF01FD42322A400930720062300F40066
S214012ED4EFF09FD693050500375505001305C58CFD
S214012EE4EF60D04B6FF0DFF1375405001308000292
S214012EF4930700011307B00C930660121306000033
S214012F04930504B91305C105EFE08FA81308000261
S214012F14930700011307B00C9306602613060000FE
S214012F24930504B913050106EFE08FA61308000202
S214012F34930700011307B00C9306603A13060000CA
S214012F44930504B913054106EFE08FA46FF05FF013
S214012F5437540500130404F913080002930700010B
S214012F641307B00C930660121306000093050400C1
S214012F741305C105EFE0CFA1130800029307000172
S214012F841307B00C9306602613060000930504008D
S214012F9413050106EFE0CF9F130800029307000113
S214012FA41307B00C9306603A130600009305040059
S214012FB413054106EFE0CF9D6FF09FE937540500F6
S214012FC41304043913080002930700011307B00C15
S214012FD49306601213060000930504001305C10549
S214012FE4EFE00F9B13080002930700011307B00CD0
S214012FF493066026130600009305040013050106D4
S214013004EFE00F9913080002930700011307B00CB1
S2140130149306603A1306000093050400130541065F
S214013024EFE00F976FF0DFE2232A910A2328210BA2
S2140130342326310B2324410B2322510B2320610B1E
S214013044232E7109232C8109232A91092328A109F6
S2140130542326B10903A5819FEFD01F8F03A5819E67
S214013064EFD09F8E03A5819DEFD01F8E0325C1054A
S214013074EFD09F8D03250106EFD01F8D0325410652
S214013084EFD09F8C3745050013058570EF605043DC
S214013094B754050093840479373431001304441774
S2140130A4930800001308E00D9307A00C1307900182
S2140130B49306E00013062000938504001305C4005C
S2140130C4EF20D04E930800001308E00D9307A020CC
S2140130D4130790019306E00013062000938504006D
S2140130E41305C402EF20904C930800001308E00D6A
S2140130F49307A034130790019306E00013062000FB
S214013104938504001305C404EF20504A374505008F
S2140131141305C572EF60D03A83A7C19983A7470008
S214013124939727003304F4008327040083A7070238
S21401313483A70700232EF100930C0000B737310054
S214013144938D471783A7818503A8C1852324F1029C
S2140131542326010383A7818403A8C1842328F102BB
S214013164232A010383A781842324F10483A7C1842A
S2140131742326F10483A7018503A84185232CF102A4
S214013184232E01039387CD002322F1046F00C0127E
S21401319483A7C19983A7470093972700B387FD00A8
S2140131A483A5040003A50700EFE08FDC6306050092
S2140131B423268A01930B0C0013044400130A4A00C5
S2140131C493844400630CA40383A7C19983A747008F
S2140131D493972700B387FD0003A507008325040002
S2140131E4E308B5FAEFE0CFD8E30405FA9307100035
S2140131F42320FA00930B10006FF09FF9639C0B16C3
S21401320483A7C19983A7470093972700B387FD0037
S2140132149305000003A50700EFE0DF9A83A7C19991
S21401322483A7470093972700B387FD0083A707006A
S21401323403A7070523A4E1980329010263CE0C26FC
S21401324413850C00EF509038032681028326C102B1
S214013254EF40800F93040500138405000326010341
S21401326483264103EF40D00F6356A00083248104D4
S2140132740324C104032681038326C10313850400A2
S21401328493050400EF40502EEF50102C93090500CF
S21401329483A48D02634C952263CAA42693850900F0
S2140132A403254104EF20D05463040900B30C904174
S2140132B4EFF00FB5EFF0DF9813850C00EF501031E7
S2140132C4EFE00F8603A6818583A6C185EF405019DA
S2140132D4635E0526EFF08FE393050500B7570900F3
S2140132E49387870283A787016382A72683A7C19949
S2140132F483A7470093972700B387FD0013060000B2
S21401330403A50700EFE0DFAD83A7C19983A74700B4
S21401331493972700B387FD0083A7070083A70702B7
S21401332483A707002320F1040327C101B38CE740D8
S214013334232401062326010623280106232A01063F
S214013344232C0106232E0106B7373100938947172C
S21401335413098106938AC906138DC90093840A004A
S214013364130A090013844717930B0000130C10006B
S2140133746FF09FE5938B0900138B0A00130A09006B
S21401338493045000130C20006F004006138D0B00AD
S21401339403A54B018327450503A7C7016358E0022C
S2140133A41304000083A7070013172400B387E7005C
S2140133B403A50700EFD01FA81304140003254D012D
S2140133C48327450503A7C701E34EE4FCEFE00FCDD1
S2140133D46F00800283274A01639E07029384F4FFE9
S2140133E4130ACAFF130BCBFF938BCBFFE3449CFE5C
S2140133F483274A01E39C07F89384F4FF9307F0FFBD
S214013404638EF404130ACAFF130BCBFF938BCBFF13
S2140134146FF0DFFD130D0B0003258B008327450595
S21401342403A7C7016358E0021304000083A707003B
S21401343413172400B387E70003A50700EFD09F9F67
S2140134441304140003258D008327450503A7C7012C
S214013454E34EE4FCEFE08FC46FF05FF883A7C199F5
S21401346483A7470093972700B387FD0093050000C1
S21401347403A50700EFE00FF51304000093042000F2
S214013484130A60006F10105383270900639E070018
S21401349413041400E30444D993894900938A4A0027
S2140134A4130949006F1010519305000003A54AFF44
S2140134B4EFE04FF16FF0DFFD8327C101032701041D
S2140134C4B38CE740130910006FF09FD713942400C0
S2140134D483A7CD00B387870003A50700EFD09F9588
S2140134E483A7CD02B387870003A50700EFD09F9477
S2140134F483A7CD04B387870003A50700EFD09F9366
S2140135049384F4FFE3D434FD6FF05FD9139424005D
S21401351483A7CD00B387870003A50700EFD0CFC2EA
S21401352483A7CD02B387870003A50700EFD0CFC1D9
S21401353483A7CD04B387870003A50700EFD0CFC0C8
S21401354493841400E39499FC6FF05FD5238C01985F
S214013554A38C0198238D0198373431001304441742
S214013564832584029385F5FF1305C400EF20D02834
S214013574832584029385F5FF1305C402EF20D02723
S214013584832584029385F5FF1305C404EF20D02612
S214013594EFE05FBD238C0198A38C0198238D0198DD
S2140135A483A7C19903A6470083C5070037450500CD
S2140135B413050575EF60805E03A5C19FEFD0CFB8F4
S2140135C403A5C19EEFD04FB803A5C19DEFD0CFB7D9
S2140135D40325C105EFD04FB703250106EFD0CFB6BB
S2140135E403254106EFD04FB6EFF00FA3630A050299
S2140135F48324410B0329010B8329C10A032A810A67
S214013604832A410A032B010A832BC109032C81094E
S214013614832C4109032D0109832DC1086FF05F89AD
S21401362403A5419FEFD04FB203A5419EEFD0CFB182
S21401363403A5419DEFD04FB183A78198638A0710F4
S214013644130710006384E71413072000638EE7163C
S214013654374505001305457BEF60806613070000B8
S2140136649307000023A4E1A223A6F1A223A0E1A2CA
S21401367423A2F1A283A7C19903A747001317270022
S214013684B737310093874717B387E70083A7070047
S21401369403A7470393066000130C00006304D702D4
S2140136A463E2E61693061000630ED7009306200025
S2140136B4130C10006308D70003AC8703130CACFF8C
S2140136C4333C800103A7470283A7070283A60700AA
S2140136D4130800029307000203270700938686FF58
S2140136E413060000B78506009385452E1385019AB7
S2140136F4EFD01FAA03A5019AEFD00FA593040000EB
S2140137041304000003AB818083ABC18003A8418608
S21401371483A701862320F1022322010303A8C1867D
S21401372483A781862324F1022326010303AD81891D
S21401373483ADC18903AA818483AAC18403A7818432
S214013744232EE10083A7C1842320F1046F00401EC9
S2140137543745050013050579EF6080569308000088
S2140137641308D00D93072010130790019306E00069
S21401377413062000B75505009385057937353100C2
S2140137841305C51EEF2080626FF09FEC37450500D8
S2140137941305C579EF60C052930800001308D00DD5
S2140137A493072024130790019306E00013062000D4
S2140137B4B755050093850579373531001305C51EC0
S2140137C4EF20C05E6FF0DFE8374505001305857A04
S2140137D4EF60004F930800001308D00D93072038BC
S2140137E4130790019306E00013062000B755050061
S2140137F493850579373531001305C51EEF20005B27
S2140138046FF01FE593067000130C1000E30CD7EA63
S2140138146FF09FEA03A5019AEFD0CFE103A5019AC1
S214013824EFD01FAA63120C2883A7C19903A74700E8
S21401383413172700B737310093874717B387E70075
S21401384483A7070003A7470283A7070283A60700E7
S214013854130800029307000203270700938686FFD6
S21401386413060000B7F505009385452E1385019AC6
S214013874EFD01F9203A5019AEFD00F8D93840C000D
S21401388413840900B757090083A70705E3862701B0
S214013894B757090083A78705E38A2705B7570900A1
S2140138A483A74704E38E2709B757090083A787042C
S2140138B4E38C2711B757090083A70706E38A27195C
S2140138C403A6018583A6418503A501A283A541A27A
S2140138D4EF309027130905009389050013060A00A3
S2140138E493860A00EF40C0276356A0000329C1014E
S2140138F48329010403A6018583A6418513050900CE
S21401390493850900EF404046EF50004493090500B3
S214013914B737310003A98720E3402531E342A932B2
S21401392493850900373531001305C51EEF20406C19
S214013934EFF00F901309050083AC81A283A9C1A2FD
S214013944138604009306040013850C00938509006E
S214013954EF404018E30805F2130600009306000042
S21401396413850C0093850900EF40C016E30405EAAD
S21401397413060B0093860B0013850C009385090030
S214013984EF404015630A0516032601028326410209
S21401399413850C0093850900EF40C01363080520C6
S2140139A4032681028326C10213850C009385090030
S2140139B4EF4040126306052A03A6018783A64187C2
S2140139C413850C0093850900EF40C0106304053489
S2140139D403A6818783A6C18713850C0093850900F6
S2140139E4EF40400F6302053E03A6018883A6418883
S2140139F413850C0093850900EF40C00D630005484C
S214013A0403A6818883A6C18813850C0093850900C3
S214013A14EF40400C630E055003A6018983A6418935
S214013A2413850C0093850900EF40C00A630C055A00
S214013A3403A6818983A6C18913850C009385090091
S214013A44EF404009E31805E203A5019AEFD08FBEC3
S214013A5403A5019AEFD0DF8683A7C19903A7470080
S214013A6413172700B737310093874717B387E70043
S214013A7483A7070003A7470283A7070283A60700B5
S214013A84130800029307000203270700938686FFA4
S214013A9413060000B7450600938545AE1385019AC3
S214013AA4EFD00FEF6FF01FDD83A7C19903A747007F
S214013AB413172700B737310093874717B387E700F3
S214013AC483A7070003A7470283A7070283A6070065
S214013AD4130800029307000203270700938686FF54
S214013AE413060000B78506009385452E1385019AB3
S214013AF4EFD00FEA6FF01FD803A5019AEFD08FB36A
S214013B0403A5019AEFD0CFFB631A0C0483A7C199CE
S214013B1403A7470013172700B737310093874717C2
S214013B24B387E70083A7070003A7470283A7070213
S214013B3483A6070013080002930700020327070061
S214013B44938686FF13060000B7050600938545AEE7
S214013B541385019AEFD0CFE36FF0DFD183A7C19924
S214013B6403A7470013172700B73731009387471772
S214013B74B387E70083A7070003A7470283A70702C3
S214013B8483A6070013080002930700020327070011
S214013B94938686FF13060000B7850600938545AE17
S214013BA41385019AEFD0CFDE6FF0DFCC03A5019A1F
S214013BB4EFD04FA803A5019AEFD08FF0631A0C0437
S214013BC483A7C19903A7470013172700B737310006
S214013BD493874717B387E70083A7070003A747021E
S214013BE483A7070283A607001308000293070002AF
S214013BF403270700938686FF13060000B705060011
S214013C049385452E1385019AEFD08FD86FF09FC602
S214013C1483A7C19903A7470013172700B7373100B5
S214013C2493874717B387E70083A7070003A74702CD
S214013C3483A7070283A6070013080002930700025E
S214013C4403270700938686FF13060000B775060050
S214013C549385452E1385019AEFD08FD36FF09FC1BC
S214013C6403A5019AEFD00F9D03A5019AEFD04FE566
S214013C74631A0C0483A7C19903A7470013172700E7
S214013C84B737310093874717B387E70083A7070041
S214013C9403A7470283A7070283A6070013080002A7
S214013CA49307000203270700938686FF1306000086
S214013CB4B7150600938545AE1385019AEFD04FCD0F
S214013CC46FF05FBB83A7C19903A7470013172700AB
S214013CD4B737310093874717B387E70083A70700F1
S214013CE403A7470283A7070283A607001308000257
S214013CF49307000203270700938686FF1306000036
S214013D04B7750600938545AE1385019AEFD04FC863
S214013D146FF05FB603A5019AEFD0CF9103A5019A80
S214013D24EFD00FDA631A0C0483A7C19903A74700DF
S214013D3413172700B737310093874717B387E70070
S214013D4483A7070003A7470283A7070283A60700E2
S214013D54130800029307000203270700938686FFD1
S214013D6413060000B71506009385452E1385019AA0
S214013D74EFD00FC26FF01FB083A7C19903A7470006
S214013D8413172700B737310093874717B387E70020
S214013D9483A7070003A7470283A7070283A6070092
S214013DA4130800029307000203270700938686FF81
S214013DB413060000B76506009385452E1385019A00
S214013DC4EFD00FBD6FF01FAB03A5019AEFD08F861E
S214013DD403A5019AEFD0CFCE631A0C0483A7C19929
S214013DE403A7470013172700B737310093874717F0
S214013DF4B387E70083A7070003A7470283A7070241
S214013E0483A607001308000293070002032707008E
S214013E14938686FF13060000B7250600938545AEF4
S214013E241385019AEFD0CFB66FF0DFA483A7C199AB
S214013E3403A7470013172700B7373100938747179F
S214013E44B387E70083A7070003A7470283A70702F0
S214013E5483A607001308000293070002032707003E
S214013E64938686FF13060000B7650600938545AE64
S214013E741385019AEFD0CFB16FF0DF9F03A5019AA6
S214013E84EFC05FFB03A5019AEFD08FC3631A0C043E
S214013E9483A7C19903A7470013172700B737310033
S214013EA493874717B387E70083A7070003A747024B
S214013EB483A7070283A607001308000293070002DC
S214013EC403270700938686FF13060000B72506001E
S214013ED49385452E1385019AEFD08FAB6FF09F998A
S214013EE483A7C19903A7470013172700B7373100E3
S214013EF493874717B387E70083A7070003A74702FB
S214013F0483A7070283A6070013080002930700028B
S214013F1403270700938686FF13060000B75506009D
S214013F249385452E1385019AEFD08FA66FF09F9443
S214013F3403A5019AEFC01FF003A5019AEFD04FB86D
S214013F44631A0C0483A7C19903A747001317270014
S214013F54B737310093874717B387E70083A707006E
S214013F6403A7470283A7070283A6070013080002D4
S214013F749307000203270700938686FF13060000B3
S214013F84B7350600938545AE1385019AEFD04FA049
S214013F946FF05F8E83A7C19903A747001317270005
S214013FA4B737310093874717B387E70083A707001E
S214013FB403A7470283A7070283A607001308000284
S214013FC49307000203270700938686FF1306000063
S214013FD4B7550600938545AE1385019AEFD04F9BDE
S214013FE46FF05F8903A5019AEFC0DFE403A5019A88
S214013FF4EFD00FAD631A0C0483A7C19903A747003A
S21401400413172700B737310093874717B387E7009D
S21401401483A7070003A7470283A7070283A607000F
S214014024130800029307000203270700938686FFFE
S21401403413060000B73506009385452E1385019AAD
S214014044EFD00F956FF01F8383A7C19903A747008D
S21401405413172700B737310093874717B387E7004D
S21401406483A7070003A7470283A7070283A60700BF
S214014074130800029307000203270700938686FFAE
S21401408413060000B74506009385452E1385019A4D
S214014094EFD00F906FF00FFE03A981A283A9C1A2EE
S2140140A413060D0093860D00130509009385090078
S2140140B4EF305022E306058003A6818083A6C180E3
S2140140C41305090093850900EF20901B23A4A1A2E0
S2140140D423A6B1A2130605009386050037450500FD
S2140140E41305457DEF50902B6FF08FFD03A981A238
S2140140F483A9C1A213060000930600001305090054
S21401410493850900EF30101D630C05FA03A6818020
S21401411483A6C1801305090093850900EF40403248
S21401412423A4A1A223A6B1A2130605009386050023
S214014134374505001305457DEF5050266FF04FF8BF
S214014144130600009306000023A4C1A223A6D1A24D
S214014154374505001305857EEF50903603A5019A71
S214014164EFC05FCD03A5019AEFD08F9583A7C199C0
S21401417403A7470013172700B7373100938747175C
S214014184B387E70083A7070003A7470283A70702AD
S21401419483A60700130800029307000203270700FB
S2140141A4938686FF13060000B78506009385452E81
S2140141B41385019AEFC0DFFD03A5019AEFC0CFF87E
S2140141C4130C10006FF0CFEF1306000093060000E7
S2140141D423A4C1A223A6D1A203A5019AEFC09FC519
S2140141E403A5019AEFD0CF8D83A7C19903A74700F2
S2140141F413172700B737310093874717B387E700AC
S21401420483A7070003A7470283A7070283A607001D
S214014214130800029307000203270700938686FF0C
S21401422413060000B7F505009385452E1385019AFC
S214014234EFC01FF603A5019AEFC00FF1374505003D
S2140142441305C57FEF50D027130C00006FF04FE71E
S21401425403A601A283A641A23755050013050581CD
S214014264EF50D01303A6018A83A6418A23A0C1A2D4
S21401427423A2D1A23755050013058583EF501012EA
S214014284373431001304441783A7C19983A7470021
S21401429493972700B307F40083A7070003A74702F1
S2140142A40326070083A7070283A5070023208101AD
S2140142B403A801A283A841A203A781A283A7C1A23E
S2140142C4B75605009386867C13067600938585008B
S2140142D413058409EF200013832544099385F5FF0C
S2140142E413058407EF10505103258409EFC0CFE569
S2140142F403A5019AEFC01FB403A5019AEFC05FFCA2
S214014304238C0198A38C0198238D019823A801A2DC
S2140143149304800C138A0700930920003734310074
S214014324130444171309840983A701A363CEF9026E
S21401433403258409EFC01FB013050900EF200036DA
S21401434413050900EF20404403258409EFC0CFDF9D
S2140143548327440A23A4F198EFE09F8EEFE04FAA47
S2140143649384F4FFE39204FC375505001305058591
S214014374EF5010153734310013044417032584090C
S214014384EFC05FAB032984098327490003A507000F
S214014394EF40D02303A6018583A64185EF40400A5A
S2140143A4EF40901A130405008327090003A50700AC
S2140143B4EF40D02103A6018583A64185EF4040083E
S2140143C4EF40901893060500130820039307200373
S2140143D41307040013060000B7950600938545AE3F
S2140143E41385C19CEFC0DFDA03A5C19CEFC0CFD50E
S2140143F4EFE00FA11304C00003A5C19CEFC09FA367
S2140144041304F4FF6302040603A5C19CEFC0CFD3D3
S214014414EFE00F9F6FF05FFEB73C3100938C4C17B3
S21401442483A78C0713172900B387E70003A50700A2
S214014434EFC05FA01309F9FFE35439FF6FF04FCEC5
S214014444B73C3100938C4C1783A78C0713172900AC
S214014454B387E70003A50700EFC00FCF13091900C0
S214014464E39429FF6FF0CFCBEFE08F9903A5C19CAE
S214014474EFC01FE53755050013058586EF50500438
S214014484B7353100138545171306C50693854517B9
S21401449413058509EF208041930C3000373D310028
S2140144A4930A1000130A300093074D172328F102CC
S2140144B46F00804E83A50B0003A50900EFD04FAB18
S2140144C463080500930710002326FC00232021031C
S2140144D4130B4B00130C4C00938B4B008327810268
S2140144E46304FB0203A5090083250B00E304B5FC62
S2140144F4EFD00FA8E30005FC930710002320FC006F
S214014504232021036FF01FFB832701026396070A0A
S2140145149305000003A50900EFD0CFEA93841400A5
S21401452413044400638C441F930904008327040086
S21401453403A9C705E31459FF03A74703930680009D
S214014544E30ED7FC83A7070403A60700938504009C
S2140145543755050013054588EF504064373B310055
S214014564130B4B178325040013058B09EF20004F0B
S2140145749305050003250400EFD0DFBF23240106BD
S2140145842326010623280106232A0106232C0106D5
S214014594232E0106930D8106930BCB06232071056A
S2140145A4032BC1019307CB002324F102138C0D00C6
S2140145B4232001026FF01FF3032CC101832701049A
S2140145C42320F102938B0D00130B50006F0000079C
S2140145D42324810303254C018327450503A7C7012B
S2140145E4635AE0021309000083A707001317290082
S2140145F4B387E70003A50700EFC0DF83130919009B
S2140146048327810203A547018327450503A7C7011D
S214014614E34CE9FCEFD08FA86F00400383A74B015E
S21401462463980704130BFBFF938BCBFF83270102CD
S2140146349387C7FF2320F102130CCCFF93072000B6
S214014644E3CE67FD83A74B01E39407F8130BFBFF47
S2140146549307F0FF6306FB06938BCBFF83270102C8
S2140146649387C7FF2320F102130CCCFF6FF01FFDC5
S214014674832701022324F10203A587008327450526
S21401468403A7C701635AE0021309000083A70700C2
S21401469413172900B387E70003A50700EFC08FF9B6
S2140146A4130919008327810203A58700832745057B
S2140146B403A7C701E34CE9FCEFD04F9E6FF09FF6CA
S2140146C49305000003A50900EFD0CFCF8329C101CC
S2140146D413090000130B2000930B60006F00D02A0F
S2140146E483A70D006392070213091900E30879E30F
S2140146F49389490083270104938747002320F10403
S214014704938D4D006F005028930500008327010404
S21401471403A547FFEFD00FCB6FF01FFD83270103DF
S2140147249387C7062320F10413840700930400002B
S2140147346F008007130B4B00130C4C00938B4B003C
S214014744832781026302FB0483250B0003A509006A
S214014754EFD00F8263080500930710002320FC00A6
S2140147642320210303A5090083A50B00E304B5FC5C
S214014774EFD00F80E30005FC930710002326FC000E
S214014784232021036FF01FFB832701026392070A8C
S2140147949305000003A50900EFD0CFC2938414004B
S2140147A4130444006384441F93090400832704000C
S2140147B403A9C705E31459FF03A74703930680001B
S2140147C4E30ED7FC83A7070403A60700938504001A
S2140147D4375505001305858AEF50403C83250400B0
S2140147E4373531001305C520EF2040279305050012
S2140147F403250400EFD01F9823240106232601066F
S21401480423280106232A0106232C0106232E01064A
S214014814930D8106032BC1019307CB002324F102D8
S214014824832B0104138C0D00232001026FF0DFF1AA
S214014834032CC101832701042320F102938B0D006D
S214014844130B50006F0000072324810303254C013A
S2140148548327450503A7C701635AE002130900002D
S21401486483A7070013172900B387E70003A50700EA
S214014874EFC04FDC130919008327810203A5470102
S2140148848327450503A7C701E34CE9FCEFD00F8155
S2140148946F00400383A74B0163980704130BFBFFC8
S2140148A4938BCBFF832701029387C7FF2320F10253
S2140148B4130CCCFF93072000E3CE67FD83A74B01BF
S2140148C4E39407F8130BFBFF9307F0FF6306FB065D
S2140148D4938BCBFF832701029387C7FF2320F10223
S2140148E4130CCCFF6FF01FFD832701022324F10272
S2140148F403A587008327450503A7C701635AE0027A
S2140149041309000083A7070013172900B387E700DC
S21401491403A50700EFC00FD21309190083278102EC
S21401492403A587008327450503A7C701E34CE9FCD4
S214014934EFC0DFF66FF09FF69305000003A50900AC
S214014944EFD04FA8032B01048329C10113090000EA
S214014954930B2000130C60006F00C07F83A70D002B
S214014964639E070013091900E30A89E39389490042
S214014974130B4B00938D4D006F00C07D9305000013
S21401498403254BFFEFD00FA46FF0DFFDEFD05FC719
S214014994938CFCFF638C0C0093074D17232EF100B8
S2140149A413044D17930400006FF01FB80329C101C7
S2140149B4032B0104373531001305C520EF10407C65
S2140149C41306C90093068000130500009305000032
S2140149D48327090003A74703630AD70023AE070406
S2140149E483A7870223A0A70023A2B70013094900BF
S2140149F4E31026FF1306CB00930680001305000080
S214014A049305000083270B0003A74703630AD70017
S214014A1423AE070483A7870223A0A70023A2B70017
S214014A24130B4B00E310CBFE8324410B0329010B2C
S214014A348329C10A032A810A832A410A032B010A0C
S214014A44832BC109032C8109832C4109032D0109F8
S214014A54832DC1086FE0CFC5375405001304847E47
S214014A6413080002930700011307B00C93066012A3
S214014A7413060000930504001305C105EFC04FF1AA
S214014A8413080002930700011307B00C930660266F
S214014A94130600009305040013050106EFC04FEF4B
S214014AA413080002930700011307B00C9306603A3B
S214014AB4130600009305040013054106EFC04FEDED
S214014AC46FE08FAA37640500130484BE130800023E
S214014AD4930700011307B00C930660121306000037
S214014AE4930504001305C105EFC08FEA13080002FD
S214014AF4930700011307B00C930660261306000003
S214014B049305040013050106EFC08FE8130800029D
S214014B14930700011307B00C9306603A13060000CE
S214014B249305040013054106EFC08FE66FE0CFA39B
S214014B3437640500130484FE13080002930700017A
S214014B441307B00C930660121306000093050400C5
S214014B541305C105EFC0CFE3130800029307000154
S214014B641307B00C93066026130600009305040091
S214014B7413050106EFC0CFE11308000293070001F5
S214014B841307B00C9306603A13060000930504005D
S214014B9413054106EFC0CFDF6FE00F9D232A910A6C
S214014BA42328210B2326310B2324410B2322510BCB
S214014BB42320610B232E7109232C8109232A9109B1
S214014BC42328A1092326B10903A5819FEFB0DFD7C6
S214014BD403A5819EEFB05FD703A5819DEFB0DFD615
S214014BE40325C105EFB05FD603250106EFB0DFD577
S214014BF403254106EFB05FD583A7C19903A78700B4
S214014C0413172700B737310093874717B387E70091
S214014C1483A7C70683A7070283A70700232EF100ED
S214014C24930C0000B7373100938D471783A781850E
S214014C3403A8C1852324F1022326010383A78184C3
S214014C4403A8C1842328F102232A010383A78184AC
S214014C542324F10483A7C1842326F10483A70185B1
S214014C6403A84185232CF102232E01039387CD004B
S214014C742322F1046F00C01213044400130A4A00ED
S214014C84938444006300A40783A7C19983A787007C
S214014C9493972700B387FD008325040003A5C70661
S214014CA4EFC01FAD6306050023208A01930B0C0099
S214014CB483A7C19983A7870093972700B387FD002D
S214014CC403A5C70683A50400E308B5FAEFC05FAAE7
S214014CD4E30405FA930710002326FA00930B100049
S214014CE46FF09FF9639C0B1683A7C19983A787006E
S214014CF493972700B387FD009305000003A5C70615
S214014D04EFC05FEC83A7C19983A787009397270019
S214014D14B387FD0083A7C70603A7070523A4E19865
S214014D240329010263CE0C2613850C00EF40000A0A
S214014D34032681028326C102EF2000619304050045
S214014D44138405000326010383264103EF205061E3
S214014D546356A000832481040324C104032681032B
S214014D648326C1031385040093050400EF20D07F36
S214014D74EF30907D9309050083A48D02634C952240
S214014D8463CAA4269385090003254104EF1040262F
S214014D9463040900B30C9041EFD09F86EFD05FEA1D
S214014DA413850C00EF408002EFC08FD703A68185E0
S214014DB483A6C185EF20D06A635E0526EFD01FB5B2
S214014DC493050500B75709009387870283A78701D0
S214014DD46382A72683A7C19983A787009397270091
S214014DE4B387FD001306000003A5C706EFC05FFFE7
S214014DF483A7C19983A7870093972700B387FD00EC
S214014E0483A7C70683A7070283A707002320F10405
S214014E140327C101B38CE740232401062326010698
S214014E2423280106232A0106232C0106232E010624
S214014E34B73731009389471713098106938AC90640
S214014E44138DC90093840A00130A090013844717B3
S214014E54930B0000130C10006FF01FE3938B0900F3
S214014E64138B0A00130A090093045000130C200044
S214014E746F004006138D0B0003A54B0183274505E0
S214014E8403A7C7016358E0021304000083A70700C1
S214014E9413172400B387E70003A50700EFB09FF9B3
S214014EA41304140003254D018327450503A7C701F1
S214014EB4E34EE4FCEFC09F9E6F00800283274A0105
S214014EC4639E07029384F4FF130ACAFF130BCBFFF6
S214014ED4938BCBFFE3449CFE83274A01E39C07F8AC
S214014EE49384F4FF9307F0FF638EF404130ACAFF56
S214014EF4130BCBFF938BCBFF6FF0DFFD130D0B0072
S214014F0403258B008327450503A7C7016358E002E1
S214014F141304000083A7070013172400B387E700D0
S214014F2403A50700EFB01FF11304140003258D0039
S214014F348327450503A7C701E34EE4FCEFC01F968C
S214014F446FF05FF883A7C19983A78700939727001B
S214014F54B387FD009305000003A5C706EFC09FC6EF
S214014F641304000093042000130A60006F008027D6
S214014F7483270900639E070013041400E30444D93D
S214014F8493894900938A4A00130949006F008025D2
S214014F949305000003A54AFFEFC0DFC26FF0DFFDF3
S214014FA48327C10103270104B38CE74013091000CA
S214014FB46FF09FD71394240083A7CD00B38787008F
S214014FC403A50700EFB01FE783A7CD02B3878700C9
S214014FD403A50700EFB01FE683A7CD04B3878700B8
S214014FE403A50700EFB01FE59384F4FFE3D434FD73
S214014FF46FF05FD91394240083A7CD00B38787008D
S21401500403A50700EFB05F9483A7CD02B38787009B
S21401501403A50700EFB05F9383A7CD04B38787008A
S21401502403A50700EFB05F9293841400E39499FC00
S2140150346FF05FD537343100130444178325840297
S2140150449385F5FF1305C400EF00107B83258402C6
S2140150549385F5FF1305C402EF00107A83258402B5
S2140150649385F5FF1305C404EF001079EFD08F8FF5
S214015074238C0198A38C0198238D019883A7C19949
S21401508403A6870083C50700374505001305057584
S214015094EF40D03003A5C19FEFB01F8B03A5C19E7F
S2140150A4EFB09F8A03A5C19DEFB01F8A0325C105F2
S2140150B4EFB09F8903250106EFB01F89032541063A
S2140150C4EFB09F88EFD04FF5630A05028324410BA6
S2140150D40329010B8329C10A032A810A832A410A67
S2140150E4032B010A832BC109032C8109832C410953
S2140150F4032D0109832DC1086FD05FCD3745050007
S2140151041305457BEF40D03B375505001305858FC6
S214015114EF40103B8324410B0329010B8329C10A69
S214015124032A810A832A410A032B010A832BC10914
S214015134032C8109832C4109032D0109832DC10800
S2140151446FD0DFC81309190093894900130B4B006C
S214015154938D4D00E3C42B8183A70D00E38407FEE2
S2140151649305000003A50900EFC0DFA56FF09FFDBE
S214015174130919009389490083270104938747007B
S2140151842320F104938D4D00634C2BD583A70D008A
S214015194E38007FE9305000003A50900EFC09FA264
S2140151A46FF01FFD1304140093894900938A4A0083
S2140151B41309490063D484006FE00FAD8327090007
S2140151C4E38207FE9305000003A50900EFC09F9F35
S2140151D46FF05FFD1304140093894900938A4A0013
S2140151E413094900E3C684D883270900E38407FE2C
S2140151F49305000003A50900EFC0DF9C6FF09FFD37
S214015204130101FC232E1102232C8102232A91026D
S2140152142328210323263103232441032322510374
S21401522423206103232E7101232C8101232A91015A
S214015234B7580500938408B9B7760500938606B96E
S2140152443734310013044417130B040B23220100D3
S2140152541309100623202101938808B9138886852B
S214015264938786C513878605938686451306F008B5
S2140152749305400713050B00EFC00F90B786050092
S214015284938606B9930A4411930C100023229101C4
S214015294232021019388044013888685938786C535
S2140152A413878605938686451306F0089305600AD8
S2140152B413850A00EFC04F8CB7640500938404B9C4
S2140152C4B7960500938606B9130A84179307200038
S2140152D42322F100232021019388048013888685E4
S2140152E4938786C513878605938686451306F00835
S2140152F49305800D13050A00EFC00F88B7A60500B5
S214015304938606B99309C41D930730002322F1003E
S214015314130C200623208101938884C5138886856F
S214015324938786C513878605938686451306F008F4
S2140153349305C03913850900EFC00F84B7B605007D
S214015344938606B913090424930740002322F10027
S214015354232081019388840513888685938786C5CF
S21401536413878605938686451306F0089305A036AB
S21401537413050900EFC04F80B7C60500938606B92A
S214015384930B442A930750002322F1002320810122
S2140153949388844513888685938786C513878605EF
S2140153A4938686451306F0089305803313850B0010
S2140153B4EFB09FFCEFD0DF82232064012322540147
S2140153C4232444012326340723282407232A740785
S2140153D4EFD0CFAC83A7C199238697013735310027
S2140153E41305056CEF00900A03A5C1A1EFB09FA4B5
S2140153F49306800213068002B7350900938505D209
S214015404B73431001385C469EF00C0551385C469E8
S214015414EF0040771385C469EF005007B7D4050041
S214015424938404B9130850019307500113077002BB
S2140154349306A01113061000938584851385819C19
S214015444EFB01FD503A5819CEFB00FD003A5819CB7
S214015454EFB01FE713081002930720031307C008D1
S2140154649306B00413061000B72509009385C503F7
S2140154741385419CEFB0DFD103A5419CEFB0CFCC9F
S21401548403A5419CEFB0DFE31308B0019307003C8A
S2140154941307D00A9306000013061000B755080038
S2140154A49385C55B1385019CEFB09FCE03A5019C34
S2140154B4EFB08FC903A5019CEFB09FE01308500A13
S2140154C4930740051307B0009306C028130610007F
S2140154D4B7F50700938545971385C19BEFB05FCB5E
S2140154E403A5C19BEFB04FC603A5C19BEFB05FDD1B
S2140154F41308C00593070007130780059306900851
S21401550413061000B7D50600938545BF1385419A47
S214015514EFB01FC803A5419AEFB00FC303A5419A84
S214015524EFB01FDA130880039307D005130720088A
S2140155349306603013061000B7250700938545C708
S2140155441385C19AEFB0DFC403A5C19AEFB0CFBFEC
S21401555403A5C19AEFB0DFD61308A0019307200272
S214015564130790099306A020130610009385C4BC64
S2140155741385819AEFB0DFC103A5819AEFB0CFBC42
S21401558403A5819AEFB0DFD3130840049307E01014
S2140155941307D0019306D01513061000B76507004C
S2140155A4938545A01385819BEFB09FBE03A5819B80
S2140155B4EFB08FB903A5819BEFB09FD01308900578
S2140155C49307F0001307F005930600151306100061
S2140155D4B7550700938545F91385419BEFB05FBB2B
S2140155E403A5419BEFB04FB603A5419BEFB05FCD3A
S2140155F4130890059307F0001307F0059306902609
S21401560413061000B7450700938545521385019B81
S214015614EFB01FB803A5019BEFB00FB303A5019B21
S214015624EFB01FCA930C8430930790001307500100
S2140156349306D0021306A0119385442B13850C0000
S214015644EFA01FE813850C00EFB0CF86930C8432CD
S2140156549307700013070002930690091306A0200F
S2140156649385044313850C00EFA09FE513850C0076
S214015674EFB04F84930C8434930740001307C002A1
S2140156849306A0091306E0049385045F13850C00B2
S214015694EFA01FE313850C00EFB0CF81930C843683
S2140156A493073000130780139306D00A13060000ED
S2140156B49385047513850C00EFA09FE013850C00F9
S2140156C4EFA05FFF93048438930750001307E01597
S2140156D49306D00A13062026B7C50600938585E4EB
S2140156E413850400EFA0DFDD13850400EFA09FFC03
S2140156F4B7E40500938404B9930C843A93075000E5
S2140157041307C0089306200B1306C013938504EAF7
S21401571413850C00EFA0DFDA13850C00EFA09FF9C8
S214015724930C843C930760001307F0069306200B42
S2140157341306501F9385844113850C00EFA05FD890
S21401574413850C00EFA01FF7B7F40500938404B982
S214015754930C843E9307A000130720049306300499
S2140157641306A0289385C49413850C00EFA05FD577
S21401577413850C00EFA01FF4930C8440930780005C
S214015784130760019306F0041306C02A938544E7C1
S21401579413850C00EFA0DFD213850C00EFA09FF158
S2140157A4930C844293078000130790019306100616
S2140157B41306C02A938544FD13850C00EFA05FD021
S2140157C413850C00EFA01FEF930C8444930780000D
S2140157D41307C001930630071306B02A93854416AF
S2140157E413850C00EFA0DFCD13850C00EFA09FEC12
S2140157F4930C84469307800013070002930630082F
S2140158041306A02A9385443213850C00EFA05FCBC0
S21401581413850C00EFA01FEA930C844893078000BD
S21401582413073002930660091306A02A938544528F
S21401583413850C00EFA0DFC813850C00EFA09FE7CB
S2140158449304844A9307B000130700109306D0010B
S21401585413064016B7A506009385C5E6138504000E
S214015864EFA01FC613850400EFA0DFE41304844CE5
S2140158749307D00013071006930610061306400973
S214015884B7B506009385C54613050400EFA05FC3AC
S21401589413050400EFA01FE29305100013050B0087
S2140158A4EFC04FB29305100013850A00EFC08FB105
S2140158B49305100013050A00EFC0CFB0930510003E
S2140158C413850900EFC00FB09305100013050900F6
S2140158D4EFC04FAF9305100013850B00EFC08FAEDA
S2140158E413050B00EFC08F8E13850A00EFC00F8ED1
S2140158F413050A00EFC08F8D13850900EFC00F8DC5
S21401590413050900EFC08F8C13850B00EFC00F8CB5
S21401591483A7C19983C7C700638C070013040C00CF
S214015924EFD04FBD83A7C19983C7C700E39A07FE8B
S2140159348320C10303248103832441030329010330
S2140159448329C102032A8102832A4102032B01020D
S214015954832BC101032C8101832C41011301010412
