S00C00006D61696E2E7372656373
S21401009497310500938141FC1701FF03130141F6D3
S2140100A41385418A17F61700130686C93306A64038
S2140100B493050000EF400064174500001305055E34
S2140100C4EF30C033EF408053130500009305410021
S2140100D413060000EF00800E6F30803337350600BC
S2140100E4373706009307458513074785630AF700E4
S2140100F4930700006386070013054585678007009C
S21401010467800000373506009307458537370600B4
S21401011493054785B385F54093D7254093D5F501D7
S214010124B385F50093D51540638A0500930700004F
S214010134638607001305458567800700678000000E
S214010144130101FF2324810083C7418F2326110055
S21401015463940702EFF09FF893070000638A070091
S214010164372506001305851897000000E7000000F0
S21401017493071000238AF18E8320C1000324810093
S21401018413010101678000009307000063860702DC
S21401019437250600130101FF9385818F1305851802
S2140101A42326110097000000E70000008320C10009
S2140101B4130101016FF01FF56FF0DFF4130101B9AC
S2140101C423261146232481462322914623202147B0
S2140101D4232E3145232C4145B782FCFF33015100C0
S2140101E403A7C188B7970F00938787962322F70042
S2140101F4EF10404983A7C18883A7070023A4F18A87
S214010204EF10004203A7C188B73706009387879685
S2140102142322F7008327470023A4F18AEF104040E6
S214010224EF10806213054003EF30402123AAA18C0E
S214010234B7570500938787902322F502B7840300F6
S2140102449387444113070101B387E70023A00700FE
S21401025493874442B3872700232CF50013048002B6
S214010264232A850023288500B7E7FFFF9387476D78
S214010274138704443307F70093070101B307F70014
S2140102842326F1002324F50223280502130540033F
S214010294EF30C01A23A4A18CB7770300938787E0B5
S2140102A42322F5029387844113070101B387E700EC
S2140102B423A0070093878442B3872700232CF500E5
S2140102C4232A850023288500B7D7FFFF938747DDB8
S2140102D4138704443307F70093070101B307F700B4
S2140102E42326F1002324F5022328050213054003DF
S2140102F4EF30C01423A2A18CB7A7020093878760AE
S2140103042322F5029387C44113070101B387E7004B
S21401031423A007009387C442B38727002320F50050
S2140103241309800C93870442B387E70023A02701AF
S2140103349389040093870443B38727002322F50097
S21401034493874442B387E70023A007009387444377
S214010354B3872700232CF500232A85009304001471
S21401036423289500B707FFFF9387475D1387094442
S2140103743307F70093070101B307F7002326F100BB
S2140103842324F5022328050213054003EF30000B4E
S21401039423A0A18CB7E70100938787E02322F50207
S2140103A49387894293060101B387D70023A00700E8
S2140103B493878943B38727002320F5009387C9428F
S2140103C4B387D70023A027019387C943B3872700A0
S2140103D42322F50093870943B387D70023A0070098
S2140103E493870944B3872700232CF500232A850025
S2140103F423289500B747FEFF938747DD13870944F3
S2140104043307F700B307D7002326F1002324F502A8
S2140104142328050213054003EF30400223A8A18CCC
S2140104249387494393060101B387D70023A0870026
S21401043493874944B38727002320F5009307A00038
S2140104449386894313060101B386C60023A0F600EA
S21401045493878944B38727002322F500B7870300CF
S214010464938787702322F5029387C943B387C7000E
S21401047423A007009387C944B3872700232CF500DC
S21401048493078007232AF5009307000F2328F50016
S214010494B787FCFF938747BD93860944B386F60066
S2140104A4B387C6002324F50223280502B787FCFF79
S2140104B493860944B386F600B387C6002326F10063
S2140104C423A607BC3789FCFF130909BD9387094492
S2140104D4B38727013389C700B784FCFF9384C4BC60
S2140104E493870944B3879700B384C7009309F0132D
S2140104F4130AF00E8327C10023A807BC83A7418DE6
S21401050423A0270103A5418D23229500EF00804DEA
S2140105148327C10083A707BD938787020327C100EA
S2140105242328F7BCE3DCF9FC8327C7BC938787023F
S2140105342326F7BCE350FAFC03A5018DEF00804A9D
S214010544EF10807813050000B782030033015100D1
S2140105548320C14603248146832441460329014658
S2140105648329C145032A8145130101476780000099
S214010574130101FC232E1102232C8102232A91024A
S2140105842328210323263103232441032322510351
S21401059423206103232E7101232C8101232A910137
S2140105A42328A1012326B10113040500938C050019
S2140105B4930D0600138D0600130B0700938B07009B
S2140105C43305F70213152500EF205067130C0500B9
S2140105D413054000EF209066930A05002322A40029
S2140105E413054000EF209065130A05002324A40098
S2140105F413058000EF209064930905002326A400C8
S21401060413058000EF209063130905002328A40036
S21401061413054000EF20906293040500232AA400EA
S214010624232C6401232E7401930710002320F50064
S21401063423A0BA012320AA01130700009307000090
S21401064423A0E90023A2F9002320E9002322F900CC
S21401065413054003EF20905E2320A4002322950374
S214010664232A7501232865012324850323205501A4
S21401067423224501232E350123202503232C95000F
S2140106848320C10303248103832441030329010333
S2140106948329C102032A8102832A4102032B010210
S2140106A4832BC101032C8101832C4101032D0101FC
S2140106B4832DC10013010104678000006308050847
S2140106C4130101FF23261100232481002322910014
S2140106D49304050013054001EF205056130405004A
S2140106E4630E050483A7440003A707002320E40040
S2140106F403A78400832607002322D40083A70700C8
S21401070483A68401B387D7002324F4008327070034
S21401071403A7C401B387E7002326F40003A7418A8D
S2140107242328E40023A2818A8320C10003248100B4
S2140107348324410013010101678000003765050029
S21401074413058520EF30D0266FF0DFF967800000AF
S214010754130101FF2326110023248100130405003D
S21401076403250500EF00002813050400EFF01FF52C
S2140107748320C10003248100130101016780000066
S214010784130101FF232611002324810003A4418AB7
S2140107946302040423229100232021019304000010
S2140107A437690500938504008327C4000327840062
S2140107B48326440003260400938414001305492267
S2140107C4EF30D00C03240401E31E04FC832441000F
S2140107D4032901008320C1000324810013010101C0
S2140107E467800000130101FE232E110083A7418AAE
S2140107F4638E070A232C8100232A910023282101D2
S2140108042326310113040500938405001309060009
S21401081493890600130500006F00000283A60701F2
S21401082423A2D18A6F00000403A7070113850700DA
S214010834630607069307070003A70700E31687FE68
S21401084403A74700E31297FE03A78700E31E27FDCD
S21401085403A7C700E31A37FDE30205FC03A7070154
S2140108642328E50013850700EF20103E13870900AF
S21401087493060900138604009305040037650500F2
S21401088413054524EF30900003248101832441019C
S214010894032901018329C1006F0000020324810199
S2140108A483244101032901018329C1003765050019
S2140108B413050527EF30D00F8320C1011301010270
S2140108C467800000130101FF232611002324810001
S2140108D41304050003250500EF0080278327440041
S2140108E403A507008327840083A507008326C40184
S2140108F403268401B386D5003306C500EFF09FEEC8
S2140109048320C100032481001301010167800000D4
S214010914630C0506130101FF23261100232481001D
S21401092413040500EFF01FFA8327040003A58702CA
S214010934EF2090310325440063040500EF20D030F6
S2140109440325840063040500EF2010300325C4004A
S21401095463040500EF20502F0325040163040500FA
S214010964EF20902E0325440163040500EF20D02DCB
S21401097413050400EF20502D8320C10003248100B9
S2140109841301010167800000678000008327450189
S214010994130600009305F0FF634CF0026780000025
S2140109A4B387C702B387E700832685029397270098
S2140109B4B387F60023A0B7001307170083270501A2
S2140109C4E340F7FE1306160083274501635AF60033
S2140109D48327050113070000E344F0FC6FF09FFE34
S2140109E467800000130101FF2326110023248100E0
S2140109F4130405008327050083A707002324F500B5
S214010A048327450083A707002326F500EFF01FF888
S214010A14930710002326F402832744016352F0123D
S214010A2413060000130E000F930500141305F0FFC0
S214010A34B7980F0093888896373806001308889667
S214010A446F00000E13071700832704016354F70C85
S214010A548326040083A60600B306D700E3E4D5FE86
S214010A64B387C702B387E700939727008326440218
S214010A74B386F600839E0600E386AEFC83AF818AC6
S214010A848326C400B306D60093969600032F8400EB
S214010A94330FE701B386E60193961600B386F60193
S214010AA403DF0600131F0F01135F0F418326840221
S214010AB4B387F60023A0E7018327440083A7070032
S214010AC4B307F600939797008326040083A60600CF
S214010AD4B306D700B387D70093971700B3871701D8
S214010AE42390D7018327440083A70700B307F600A2
S214010AF4939797008326040083A60600B306D700BF
S214010B04B387D70093971700B38707012390D701BC
S214010B146FF05FF313061600832744016352F6024F
S214010B248327440083A70700B307F600E364FEFEA9
S214010B3483270401E350F0FE130700006FF05FF112
S214010B448320C10003248100130101016780000092
S214010B540327C502930710006306F7002326050240
S214010B64678000008327450113060000E35AF0FE60
S214010B741308F0FF37930F0013038396B738060064
S214010B84938888966F00C0088327C500B307F600CC
S214010B949397970083258500B305B700B387B700FD
S214010BA493971700B38767009396060193D6064179
S214010BB42390D7008327C500B307F60093979700C1
S214010BC483258500B305B700B387B700939717004D
S214010BD4B38717012390D70013071700832705014E
S214010BE46352F702B387C702B387E70083268502F9
S214010BF493972700B387F60083A60700E39606F9C2
S214010C046FF09FFD1306160083274501E35AF6F499
S214010C148327050113070000E346F0FC6FF09FFEEF
S214010C2493070500032785010325070063020506CC
S214010C3403A7850103250700630C050403A7070022
S214010C448326070003A705000326070003A705015B
S214010C543307E6001305000063DCE60203A7070179
S214010C64B386E6006356D60203A747008326070029
S214010C7403A745000326070003A745013307E6003B
S214010C8463D8E60083A74701B386F6003325D6006A
S214010C9467800000032705008327070083A6050055
S214010CA403A606009386570063D4C7009386B7FF4E
S214010CB42320D700032745008327070083A6450082
S214010CC403A606009386570063D4C7009386B7FF2E
S214010CD42320D70067800000130101FF232611009B
S214010CE42324810023229100930405001384050024
S214010CF41306000093060000138504009305040000
S214010D04EF10902263400502138504009305040046
S214010D148320C100032481008324410013010101BF
S214010D2467800000B707008033C487006FF0DFFDDB
S214010D34130101FA232E1104232C8104232A91047E
S214010D442328210523263105232441052322510581
S214010D5423206105232E7103232C8103232A910367
S214010D642328A1032326B10313040500938D05004C
S214010D74130D0600938C06002324E1002326F100BC
S214010D84232801013715000013050580EF20006BA9
S214010D94232AA1003715000013050580EF20006AF9
S214010DA4232CA1003715000013050580EF200069E8
S214010DB4232EA1003715000013050580EF200068D7
S214010DC4130C050013054000EF204067930A050045
S214010DD4232EA40013054000EF204066130A0500E5
S214010DE42320A40213058000EF2040659309050023
S214010DF42322A40213058000EF2040641309050092
S214010E042324A40213054000EF2040639304050045
S214010E142326A40213054000EF204062232EA402D9
S214010E2423280402232C0402130B00012320640547
S214010E34930B0002232274059307100023A0F400E9
S214010E4423A0BA012320AA01130700009307000078
S214010E5423A0E90023A2F9002320E9002322F900B4
S214010E642320050013054003EF20405D130D050004
S214010E742320A40023229503232A75012328650130
S214010E842324850313054003EF20405B130C050060
S214010E942322A400032781002322E502232A7501C5
S214010EA423286501032741012324E5021305400392
S214010EB4EF20C058930C05002324A4008327C10007
S214010EC42322F502232A750123286501832781013C
S214010ED42324F50213054003EF2040562326A400DD
S214010EE4832701012322F502232A7501232865019C
S214010EF48327C1012324F50223205D0123224D010A
S214010F04232E3D0123202D03232C9D0023205C0149
S214010F1423224C01232E3C0123202C03232C9C004A
S214010F2423A05C0123A24C0123AE3C0123A02C0385
S214010F3423AC9C002320550123224501232E350191
S214010F4423202503232C95008320C1050324810532
S214010F5483244105032901058329C104032A810445
S214010F64832A4104032B0104832BC103032C81032D
S214010F74832C4103032D0103832DC10213010106B2
S214010F8467800000130101FF23261100232481003A
S214010F9413040500630005048327C40183A5070021
S214010FA4032504043385A5008327040283A60700CA
S214010FB483274404B386F60083A7418A639807020D
S214010FC4232C04028320C1000324810013010101A0
S214010FD4678000003765050013050528EF30401DBE
S214010FE46FF09FFB83A70701E38C07FC03A7470069
S214010FF4E3CAE6FE03A6C700E346D6FE03A68700B9
S214011004E342B6FE03A60700E34EC5FC93071000B1
S214011014232CF4028327840213060000930600009F
S21401102423A0C70023A2D7008327040283264404EF
S2140110343307D74023A0E7006FF0DFF893070500D6
S2140110440327C502032507006302050603A78501D6
S21401105403250700630C050403A7C70183260700BD
S21401106403A705000326070003A705013307E600C7
S2140110741305000063DCE60203A70704B386E60053
S2140110846356D60203A707028326070003A7450073
S2140110940326070003A745013307E60063D8E600E5
S2140110A483A74704B386F6003325D600678000007D
S2140110B40327C5018327070083A6050003A60600A8
S2140110C49386570063D4C7009386B7FF2320D700BF
S2140110D4032705028327070083A6450003A6060007
S2140110E49386570063D4C7009386B7FF2320D7009F
S2140110F467800000130101FF2326110023248100C9
S21401110413040500832745036386070413071000A9
S2140111146388E70413072000638AE7041307600063
S214011124638CE70483270403638E07041307100004
S2140111346380E706130720006382E706130760004F
S2140111446384E7068320C10003248100130101019F
S2140111546780000003250500EFF09F9F6FF09FFC5A
S21401116403254500EFF0DF9E6FF0DFFB03258500C6
S214011174EFF01F9E6FF01FFB0325C500EFF05F9D88
S2140111846FF05FFA03250400EFF0DF856FF09FFB35
S21401119403254400EFF01F856FF0DFFA0325840072
S2140111A4EFF05F846FF01FFA0325C400EFF09F830E
S2140111B46FF05FF9130101FF232611002324810038
S2140111C403248502B737060003A6878583A6C78549
S2140111D40325040083254400EF0090482320A4003F
S2140111E42322B4008320C1000324810013010101DA
S2140111F4678000006780000067800000130101FF1C
S21401120423261100232481002322210123203101D6
S214011214930710006388F504032445020329040098
S2140112248329440003A6018283A64182130509008B
S21401123493850900EF10405F6358050A03A70182EE
S21401124483A741822320E4002322F4008320C100E3
S21401125403248100032941008329010013010101AC
S21401126467800000032445020329040083294400FF
S21401127403A6818083A6C18013050900938509000E
S214011284EF10804A635CA00003A7818083A7C18016
S2140112942320E4002322F4006FF05FFB03A6018100
S2140112A483A641811305090093850900EF10C057F1
S2140112B46342050203A6818183A6C1811305090041
S2140112C493850900EF00D0392320A4002322B4001B
S2140112D46FF0DFF703A7018183A741812320E40090
S2140112E42322F4006FF09FF603A6818283A6C182AF
S2140112F41305090093850900EF100043635CA00001
S21401130403A7818283A7C1822320E4002322F40059
S2140113146FF0DFF303A6818183A6C181130509005B
S21401132493850900EF10C0602320A4002322B40093
S2140113346FF0DFF1130101FE232E1100232C81002F
S214011344232A91002328210113040500630C051A9E
S2140113542326310123244101938405001309060041
S214011364376505001305C529EF2090648327040318
S214011374232AF402B727060083A5871913850400D8
S214011384EF30C04D6306050083A7418863900706C6
S21401139423A20188930710002328F4029305000072
S2140113A413050400EFF09FE58329C401032A4402D0
S2140113B403A50900EF10907003260A0083264A004D
S2140113C4EF00102AEF10506723A0A90083294402D6
S2140113D403250900EF10906E03A6090083A64900B1
S2140113E4EF001028EF1050652320A900B727060048
S2140113F483A5C71913850400EF304046630605002C
S21401140483A781886390070623A401889307200095
S2140114142328F4029305100013050400EFF01FDEE1
S2140114248329C401032A440203A50900EF101069A5
S21401143403260A0083264A00EF009022EF10D05FAD
S21401144423A0A9008329440203250900EF1010678D
S21401145403A6090083A64900EF009020EF10D05D93
S2140114642320A900B727060083A5071A13850400BD
S214011474EF30C03E63120502930760002328F4028E
S2140114848327840203A6018383A6418323A0C7007E
S21401149423A2D700232C0402B727060083A5471AE4
S2140114A413850400EF30803B631005028327440252
S2140114B4130600009306000023A0C70023A2D7004A
S2140114C41307100023A2E188B727060083A5871A0D
S2140114D413850400EF308038631E05028327440217
S2140114E4130600009306000023A0C70023A2D7001A
S2140114F41307100023A4E1888329C100032A81006D
S2140115046F00C0013765050013050528EF20504A12
S2140115146F00C0008329C100032A81008327440287
S21401152403A5070083A54700EF101051631E0500AD
S2140115348324840203A5040083A54400EF10D04F3E
S21401154463160508232804028324840203A50400E1
S21401155483A54400EF10504E631A050683278403BF
S2140115646396070483248402B737060003A6878597
S21401157483A6C78503A5040083A54400EF00500E87
S21401158423A0A40023A2B400832404020329840212
S21401159403A50400EF109052032609008326490090
S2140115A4EF00100CEF10504923A0A400130504000B
S2140115B4EFF05F9D8320C10103248101832441014F
S2140115C40329010113010102678000000327840334
S2140115D4930710006308F700930760002328F402BA
S2140115E46FF0DFF7130700009307000023A0E40061
S2140115F423A2F400232804026FF05FF69307F0FF9A
S214011604630EF60083A7818A93959500B385A5009A
S21401161493951500B385F5002390C50067800000F7
S214011624130101FE232E1100232C8100232A91008D
S2140116342328210123263101930400001309000FF6
S2140116449309001413040000130600009305040014
S21401165413850400EFF09FFA13041400E31624FF25
S21401166493841400E39034FF8320C1010324810191
S21401167483244101032901018329C10013010102C5
S21401168467800000B73720FF1307100023A0E70286
S214011694B73720FF9387C70283A7070093F717007E
S2140116A4638C0700373720FF1307C7028327070019
S2140116B493F71700E39C07FE67800000130101FF00
S2140116C423261100376505001305052AEF20502E41
S2140116D4376505001305C52BEF20902D03A301895B
S2140116E483C6518B03C6418BB78800009305000F50
S2140116F4130EA0056F0080019306060013F6F70F7C
S21401170423A8F18A23A6E18A638AB6008327030005
S21401171433F71701E30607FE6FF01FFEE318C6FF53
S214011724238A018AA38A018A238B018A37650500E5
S2140117341305452DEF20D0278320C1001301010195
S2140117446780000083A7018983A7070023A8F18A7D
S2140117543787000033F7E70023A6E18A1305000064
S214011764630E070683C6518B238BD18A03C7418B2D
S214011774A38AE18A93F7F70F238AF18A1306000EE8
S214011784639EC604930650076300D70663E2E60227
S2140117949307B0066300F706930740076318F7003C
S2140117A4B727060003A5C7196780000067800000F5
S2140117B49306000F6316D702130750076382E704E4
S2140117C4130720076384E7041307B0066382E7065A
S2140117D413074007130500006382E70667800000CD
S2140117E41305000067800000B727060003A5071A43
S2140117F467800000B727060003A5871967800000E5
S214011804B727060003A5C71A67800000130101FF66
S21401181423261100376505001305452EEF205019C0
S214011824130500008320C100130101016780000035
S214011834B727060003A5471A67800000B7270600E6
S21401184403A5871A6780000003A7818B93061006F9
S2140118542300D70083A7818B23A2070023A40700B4
S214011864238607006780000093060500938715000A
S21401187493854500130830001306700033E507030B
S214011884131725003387E6000327070003270703FA
S2140118946316C70093871700E392B7FE67800000BC
S2140118A41305900667800000130101FD232611022B
S2140118B42324810283A7818B03C70700930710069D
S2140118C46304F7043765050013054545EF20500EFC
S2140118D483A7818B83A58700376505001305053625
S2140118E4EF20C07A9306000013060000B70520FF18
S2140118F493850510B788000013056001130EE001F7
S214011904930E000F6F00401F37650500130505355C
S214011914EF20100A83A7818B83A54700376505004E
S21401192413050536EF208076930600009305000024
S214011934370620FF13060610B7880000130560015A
S214011944130EE001930E000F6F0080006388D50725
S2140119548327060023A8F18A33F7170123A6E18A11
S214011964630607009385060093F6F70FE380A6FE49
S214011974E390C6FFE39ED5FD376505001305853A5A
S214011984EF20100303A4818B8325440037F5180048
S21401199413058596EFF05FED2322A4009307200636
S2140119A42300F400EFF0DFEF93050500376505002B
S2140119B413058543EF20806D6F00801A2322910260
S2140119C423202103232E3101232C410137650500F1
S2140119D413054539EF20C07D2326010037F418008E
S2140119E4130484961309700CEFF0DFD593050500F4
S2140119F483A7818B83A7470093972700B307F40037
S214011A041306C10003A50700EFF0DF9283A7818BBD
S214011A1483A7470093972700B307F40003A507009D
S214011A24EFF04FEDEFF01FC683A7C18883A74700E9
S214011A3423A4F18A8327C100E358F9FA83A7818B8B
S214011A4483A54700376505001305C53BEF200064F1
S214011A5403A5018CEFE01FF99306000013060000AE
S214011A64B70520FF93850510B788000013056001AC
S214011A74130EE001930E000F6F0080006306D60577
S214011A8483A7050023A8F18A33F7170123A6E18A61
S214011A94630607001386060093F6F70FE380A6FE97
S214011AA4E390C6FFE31ED6FD376505001305853AA8
S214011AB4EF20007083244102032901028329C10116
S214011AC4032A81016FF01FEC376505001305C53F36
S214011AD4EF20006E3765050013058541EF20406D44
S214011AE483244102032901028329C101032A8101B6
S214011AF46FF05FE9630ED60783A7050023A8F18A72
S214011B0433F7170123A6E18A630607001386060046
S214011B1493F6F70FE380A6FEE390C6FFE31ED6FD19
S214011B24376505001305853AEF20806803A4818B89
S214011B348325840037F5180013054597EFF0DFD2A7
S214011B442324A400930710062300F400EFF05FD5C6
S214011B54930505003765050013058543EF200053FB
S214011B648320C1020324810213010103678000005C
S214011B742322910223202103232E3101232C410108
S214011B84232A51013765050013054539EF204062C4
S214011B942326010037F4180013048496B769050058
S214011BA41309E000EFF01FBA9305050083A7818BA4
S214011BB483A7870093972700B307F4001306C10091
S214011BC403A5C700EFF00FF783A7818B83A78700D0
S214011BD493972700B307F40003A5C700EFF08FD14E
S214011BE4EFF05FAA83A7C18883A7470023A4F18ADD
S214011BF413854946EF20C05B8327C10093871700EE
S214011C042326F100E350F9FA83A7818B83A5870085
S214011C14376505001305C53BEF20404703A5018C36
S214011C24EFE05FDC9306000013060000B70520FF13
S214011C3493850510B788000013056001130EE001B3
S214011C44930E000F6F0080006308D60583A7050076
S214011C5423A8F18A33F7170123A6E18A630607004E
S214011C641386060093F6F70FE380A6FEE390C6FFFD
S214011C74E31ED6FD376505001305853AEF2040536C
S214011C8483244102032901028329C101032A810114
S214011C94832A41016FF09FE9376505001305C53FA7
S214011CA4EF2000513765050013050547EF20405026
S214011CB483244102032901028329C101032A8101E4
S214011CC4832A41016FF09FE6130101FD23261102C9
S214011CD4232481022322910223202103232E31016E
S214011CE4232C4101232A51012328610137F41800CA
S214011CF41304849613098401370B060013084BB1A9
S214011D04B7FA050093874AB137FA050013074A3133
S214011D14B7090600938649311306F0089305400275
S214011D2413050900EFF0CF809304040613084BB1A2
S214011D3493874AB113074A31938649311306F0084B
S214011D449305C01113850400EFE09FFEEFF0DFAFAB
S214011D542320240123269400EFF05F9683A7818B2A
S214011D64130710002386E70003A5018DEFE05FDE6D
S214011D74232401009309C100130981009304F0137D
S214011D84130A700C2326010083A7818C23A0370134
S214011D9403A5818C23222501EFE0DFC48327C1003C
S214011DA4938787022326F100E3D0F4FE832781007C
S214011DB4938787022324F100E356FAFC37F41800CC
S214011DC4130484969304840A9307E00013076002BD
S214011DD49306200313064006B7E505009385452CB4
S214011DE413850400EFE0CFF813850400EFE05F9657
S214011DF49304840C93079001130700149306F00AC6
S214011E0413060000B76505009385455C1385040039
S214011E14EFE00FF613850400EFE09F9303A5418CD2
S214011E24EFE05FBC13058401EFF0CFAC13050406A5
S214011E34EFF04FACEFF05FA78320C10203248102C9
S214011E4483244102032901028329C101032A810152
S214011E54832A4101032B010113010103678000005A
S214011E64B7071000130101FE938EF7FF33F8BE0087
S214011E74B3F7DE0013D346012328210113D9450104
S214011E8493973700232C81001318380013D4F501D7
S214011E941357D5019358D6011379F97F1373F37F3A
S214011EA4232E1100232A91002326310193D6F6010D
S214011EB4B3E8F8003367070193153500131F36009E
S214011EC4B30769406304D41E6352F01663060328FD
S214011ED49306F07F6306D942930680031306100027
S214011EE463CEF602B7068000B3E8D8009306F00185
S214011EF463CEF65293060002B386F6403396D800B4
S214011F043355FF00B316DF003366A600B336D000A0
S214011F14B3D8F8003366D600330717413386C54075
S214011F24B3B5C50093040600B309B7409397890077
S214011F3463DA0732B70780009387F7FFB3F9F9002E
S214011F446388092C13850900EF10C042930785FFA7
S214011F54930600023387F64033D7E400B399F900B9
S214011F6433673701B394F40063C8274BB38727411B
S214011F7493871700B386F6403396D400B3D9F4009A
S214011F843336C00033663601B316D700B3E4C60051
S214011F94B359F7001309000093F77400638007022E
S214011FA493F7F40013074000638AE700938744001D
S214011FB433B69700B389C9009384070093978900C1
S214011FC463DA076E930719001307F07F130E0400F4
S214011FD46386E72A370780FF1307F7FF33F7E9001D
S214011FE493F7F77F1318D70113D634001317970006
S214011FF43368C8001357C7008320C1010324810135
S21401200493974701B3E7E7001317FE01B3E7E70029
S21401201483244101032901018329C1001305080012
S214012024938507001301010267800000638C07147F
S214012034B30723416312093C3365B7006304054CB7
S2140120441385F7FF630205601308F07F638607575D
S214012054930780031306100063CCA70293070500B9
S2140120641306F001634CF656130500023305F540DA
S2140120743316A70033D8F5003395A5003366060159
S2140120843335A0003357F7003366A600B388E8401B
S2140120943306CF403337CF0093040600B389E840B4
S2140120A413090300138406006FF05FE86350F01E03
S2140120B463100314B3E6E801638C06269386F7FFE0
S2140120C4638006481306F07F638CC7229307800358
S2140120D49309100063CCD702938706009306F00198
S2140120E463C0F64A93060002B386F640B399D80055
S2140120F43356FF00B316DF00B3E9C900B336D00088
S214012104B3D8F800B3E9D90033071701B385B9008A
S214012114B3B9350193840500B389E900939789001F
S21401212463D20714130919009307F07F630CF93679
S214012134B70780FF9387F7FF13F61400B3F7F90088
S21401214413D714003367C7001396F701B364E60088
S21401215493D917006FF05FE4B3E6E801638A061CBF
S2140121649386F7FF638006401306F07F638AC718D9
S2140121749307800313061000E3C2D7DA9387060099
S2140121846FF0DFD6130819001378E87F631C082262
S2140121943363B70033E8E80163100938630E034676
S2140121A463060840B389E54133B535013306174163
S2140121B43306A64013158600635E0550B305BF407B
S2140121C43387E840333FBF003307E74113168700E0
S2140121D493840500635E0652B70780FF9387F7FF73
S2140121E43377F700138E0600930710006FF09FDF16
S2140121F49306F07F6306D9109306800393091000B3
S214012204E3C6F6F0B7068000B3E8D8006FF01FED1A
S21401221413850400EF100016930785019306F00159
S214012224E3D8F6D2130785FF3397E40063C6272362
S214012234338927419307190063D6F648130919FE13
S21401224493060002B3542701638CD7009306000457
S214012254B387F6403317F7003337E000B3E4E400FE
S2140122641309000093F77400E39C07D2930709004F
S21401227413D63400138709006F00000C9307F07F10
S21401228413070000130800006FF01FD7638A070CBA
S214012294B30723416302091E9306F07F6308D33212
S2140122A4930680039309100063CEF602B7068000F6
S2140122B43367D7009306F00163C8F63C9306000221
S2140122C4B386F640B319D70033D6F500B396D500D6
S2140122D4B3E9C900B336D0003357F700B3E9D900E0
S2140122E4B388E8003387E901B3393701930407005B
S2140122F4B3891901130903006FF05FE26310080242
S21401230413163500135636001318D7013368C80060
S214012314135737003367070163060718130E0000C7
S2140123249307F07F37070800130800006FF0DFCC2F
S21401233413163500135636001318D7019306F07F8B
S2140123443368C80013573700E386D7FC1317C70052
S2140123541357C70093F7F77F130E04006FF0DFC916
S2140123649306190013F8E67F63180814B366B700DA
S214012374631C092863820630B3E6E80163880622F3
S214012384B387E501B3B5B700330717013307B700C1
S21401239413D8370093178700130E040063DE07343F
S2140123A4B70780FF9387F7FF3377F7009317D701B3
S2140123B41357370033E807013377D7019307100023
S2140123C46FF09FC33388E541B3B70501B3091741DD
S2140123D4B389F940939789009304080063C60710EC
S2140123E433683801E31E08B4130E00009307000097
S2140123F4130700006FF05FC01305F07F630EA31A86
S2140124041305800313061000E344F5C8370680005D
S2140124143367C7006FF0DFC4B70980FF9389F9FFFC
S2140124243309F940B37937016FF01FB7938607FE76
S21401243413060002B3D6D800638AC7001306000445
S214012444B307F640B397F800336FFF003336E00165
S2140124543366D6006FF09FACB70680FF9386F6FF0F
S214012464B307F9403377D7001318D7013368380117
S214012474135737006FF09FEDB366B7006386061EE9
S2140124849386F7FF638E060A1305F07F6380A7140D
S2140124949307800393091000E3C6D7E493870600E5
S2140124A46FF05FE1130E04009307F07F130700003B
S2140124B4130800006FF05FB49307F07FE384F6FE21
S2140124C4338FE501B335BF00B3071701B387B700F0
S2140124D41396F701135F1F00B364E60193D917003F
S2140124E4138906006FF05FAB3306BF40B387E8403D
S2140124F43337CF0093040600B389E74013840600FC
S2140125046FF01FA413163600135636001384060004
S214012514138708006FF05FE2E31203DE6306081C0C
S21401252413D73800131636009398D801336717016A
S214012534135636003367C700138406006FF0DFDDD9
S214012544338FE501B3081701B335BF00B389B8006B
S2140125549397890093040F0063D4070E1309200090
S2140125646FF01FBD338FE541B3081741B3B5E501DD
S21401257493040F00B389B840130910006FF01F9B32
S214012584938607FE13060002B3D6D800638AC700F3
S21401259413060004B307F640B397F800336FFF0041
S2140125A4B339E001B3E9D9006FF05FB6131635000D
S2140125B4935936006FF05FEB131636001356360048
S2140125C413840600138708006FF01FD41316360011
S2140125D413563600138708006FF01FD3138507FEC2
S2140125E4130600023355A700638AC70013060004C6
S2140125F4B307F640B317F700B3E5F5003336B0007A
S2140126043366A6006FF0DFA8E38206FC33EFE80129
S214012614E3160FD06FF0DFCEE30808DC131836009C
S2140126249397D8011358380013D738003368F80045
S2140126343377D701138E0600930700006FF0DF9BF4
S214012644930710006FF0DFC2B305BF40B388E840BC
S2140126543337BF0093840500B389E840138406002A
S214012664130910006FF09F8C1316360013563600AC
S214012674138708006FF05FCC1316360093593600A3
S214012684138708006FF05FDE938607FE13060002C9
S214012694B356D700638AC70013060004B307F6408F
S2140126A4B317F700B3E5F500B339B000B3E9D900C1
S2140126B46FF05FC313D6340093070900138709002C
S2140126C46FF09FC793060002B386F6401306000018
S2140126D46FF05F8B33E8C900E30808D093D939005B
S2140126E4130706006FF05FD8130E00009307F07F00
S2140126F4370708006FF05F909317D7011357370019
S21401270433E807013377D701930700006FF0DF8EB4
S2140127141318D70193D535003368B800135737001B
S214012724138406006FF09FC293D84501B7071000C3
S2140127349387F7FF13D7460193F8F87F130EF07FBC
S21401274433F3B70013080500930E0500B3F7D7005B
S21401275493D5F501130F06001375F77F93D6F6018B
S2140127646388C8056304C503639A080633680301CE
S2140127746310050633E6C700630C06086312080AED
S21401278413051000638206086780000033E6C7005D
S214012794631406086396080033630301E30203FE29
S2140127A46380D50663920506130510006780000052
S2140127B43363030163120306E31615FFB3E7C70089
S2140127C4639C0704E390D5FE1305000067800000B0
S2140127D4E30808FAE398D5FC6F008002E30405FCDD
S2140127E4E392D5FCE34015FD63CCA800E3EC67FA5D
S2140127F46318F300E368DFFB13050000E3F6EEF964
S21401280413051000E39205F81305F0FF6780000036
S214012814E31A08F8678000001305E0FF67800000EC
S214012824E386D5FC6FF01FF893D84501B70710006F
S2140128349387F7FF13D7460193F8F87F1303F07FC6
S21401284433FEB70013080500930E0500B3F7D7004F
S21401285493D5F501130F06001375F77F93D6F6018A
S214012864638A6804630465026398080633680E0184
S214012874631E050833E6C7006304060A6316080ADE
S21401288413051000638006086780000033E6C7005E
S21401289413052000E31A06FE63960800336E0E0144
S2140128A4E3000EFE638CD504639E05041305100035
S2140128B467800000336E0E0163100E06E31615FFE3
S2140128C4B3E7C70013052000E39007FCE39ED5FC9D
S2140128D41305000067800000E30805FCE396D5FCB9
S2140128E4E34415FD63CCA800E3E0C7FD6318FE00CE
S2140128F4E36CDFFB13050000E3F8EEF913051000A3
S214012904E39405F81305F0FF67800000E30A08F670
S214012914E39CD5F86FF09FFE130520006780000046
S214012924E31408F867800000E380D5FC6FF0DFF756
S214012934B70710009387F7FF130101FEB3F8B7003A
S21401294433F8D70093D7460193983800232C810097
S2140129542326310113D4F50193D945011357D50123
S214012964131838009355D601232E1100232A9100FB
S2140129742328210113FFF77F1303F07F3367170121
S21401298493F9F97F130E04009318350093D6F601D4
S214012994B3E50501931E3600630C6F2093C616003B
S2140129A4B387E9416302D416E35AF000630A0F249D
S2140129B46384693C930680031305100063CEF60214
S2140129C4B7068000B3E5D5009306F00163C4F64E5E
S2140129D493060002B386F6403395D50033D6FE003F
S2140129E4B396DE003365C500B336D000B3D7F50021
S2140129F43365D5003307F7403385A84033B6A800BE
S214012A04930405003309C7409317890063D8073434
S214012A14B70780009387F7FF3379F9006306092E19
S214012A2413050900EF001015930785FF93060002AE
S214012A343387F64033D7E4003319F90033672701A7
S214012A44B394F40063C4373FB387374193871700C1
S214012A54B386F6403396D40033D9F4003336C00037
S214012A643366C900B316D700B3E4C6003359F7007A
S214012A749309000093F774006380070293F7F40048
S214012A8413074000638AE7009387440033B5970031
S214012A943309A900938407009317890063D0076C50
S214012AA4938719001307F07F6386E724370780FFAF
S214012AB41307F7FF3377E90093F7F77F1318D70166
S214012AC413D53400131797003368A8001357C700AB
S214012AD4137E14008320C1010324810193974701C7
S214012AE4B3E7E7001317FE01B3E7E70083244101C8
S214012AF4032901018329C1001305080093850700F2
S214012B0413010102678000006352F07063160F1C04
S214012B14B3E6D501638E06269386F7FF63880646D9
S214012B24638C6724930780031309100063CCD702D0
S214012B34938706009306F00163CAF64893060002DB
S214012B44B386F6403399D50033D6FE00B396DE003D
S214012B543369C900B336D000B3D7F5003369D90059
S214012B643307F700330619013339260193040600A7
S214012B743309E9009317890063D2071E9389190064
S214012B849307F07F6388F916B70780FF9387F7FFEB
S214012B9413F51400B377F90013D714003367A700AD
S214012BA41395F701B364E50013D917006FF09FEC92
S214012BB433E8D5011383198063080806630AD4062B
S214012BC46304030E638E0926131536001355350068
S214012BD413840600138705001318D7013368A80069
S214012BE4135737003367070163060710130E0000F7
S214012BF49307F07F37070800130800006FF09FED76
S214012C04B3E6D501638606189386F7FF6382063A10
S214012C14638467169307800313051000E3CED7DC9D
S214012C24938706006FF05FDA93C61600E31AD4F8AA
S214012C34630803186390092C9307F07FB3661701A2
S214012C44638806489386F7FF638206341305F07F8C
S214012C546382A72A930780031309100063CAD70265
S214012C649307F00163C6D74C93070002B387D74096
S214012C743319F70033D6D800B397F8003369C9007F
S214012C84B337F000B356D7003369F900B385D500DE
S214012C943307D90133392701930407003309B900EF
S214012CA493090F006FF01FED9387190093F7E77FE1
S214012CB46394071433E8D501B36717016394092AAB
S214012CC4638E07386310083C131535001359350015
S214012CD4930700006F0040116380690A930680031E
S214012CE413091000E3C0F6E8B7068000B3E5D50083
S214012CF46FF05FE4137E14009307F07F1307000060
S214012D04130800006FF01FDD13850400EF008066D2
S214012D14930785019306F001E3DAF6D0130785FFDE
S214012D243397E40063CE371BB38937419387190081
S214012D3463DEF642938919FE93060002B354370103
S214012D44638CD70093060004B387F6403317F70065
S214012D543337E000B3E4E4009309000093F774000A
S214012D64E39E07D09387090013D53400130709009F
S214012D746F008002E31C08E6131535001318D7010B
S214012D84135535003368A800135737006FF09FE5D5
S214012D9413153500135535001318D7019306F07F24
S214012DA43368A80013573700E38ED7E21317C7001A
S214012DB41357C70093F7F77F137E14006FF09FD164
S214012DC49386190093F7E67F639E0712B36717018C
S214012DD4639A092463860730B3E7D501639A0730FB
S214012DE413153500135935001318D7013368280114
S214012DF4135737006FF09FFB3388D841B3B70801E8
S214012E043309B7403309F94093178900930408003E
S214012E1463C2071233682801E31208C0130E0000C8
S214012E2493070000130700006FF0DFCA370980FF1D
S214012E341309F9FFB389F940337927016FF09FC36A
S214012E449307F07F33651701630405101388F7FFB2
S214012E546302081E1305F07FE388A7D69307800351
S214012E64138406001305100063CA07039307F001D1
S214012E7463C4071993070002B38707413315F700A4
S214012E84B3D60801B397F8003365D500B337F0001D
S214012E94335807013365F500B38505413385AE40E4
S214012EA433B7AE00930405003389E54093090F0058
S214012EB46FF09FB5938607FE13060002B3D6D500BE
S214012EC4638AC70013060004B307F640B397F500F8
S214012ED4B3EEFE003335D0013365D5006FF0DFB1B4
S214012EE4B70680FF9386F6FFB387F9403377D7009A
S214012EF46FF09FEF13153600135535001387050041
S214012F046FF09FCD9307F07FE386F6DEB38ED8018C
S214012F1433B61E01B307B700B387C7001395F7018D
S214012F2493DE1E00B364D50113D9170093890600F6
S214012F346FF05FB433861E41B387E54033B7CE00E6
S214012F44930406003389E740138406006FF01FAD2F
S214012F54131636001355360013840600138705002E
S214012F646FF09FE3E39807E06306082213D7350062
S214012F74131636009395D5013367B70013563600FA
S214012F843367C700138406006FF01FC6B38ED801DB
S214012F94B305B70033B61E013389C50093178900FC
S214012FA493840E0063D8070A930920006FF0DFBDEF
S214012FB4B38ED841B305B74033B6D80193840E0017
S214012FC43389C540930910006FF01FA4938607FE4A
S214012FD413060002B3D6D500638AC700130600049D
S214012FE4B307F640B397F500B3EEFE003339D001CC
S214012FF43369D9006FF01FB7930708FE93060002E2
S214013004B357F700630AD80093060004B386064153
S2140130143317D700B3E8E800333510013365F500FC
S2140130246FF0DFE7E38807ECB3EED501E3900EBC5F
S2140130346FF09FD433861E41B385E54033B7CE0087
S214013044930406003389E5401384060093091000AF
S2140130546FF09F9B930710006FF01FD1E30008DC0D
S21401306413163600935736001398D5011397950017
S2140130743368F8001357C700138E06009307000041
S2140130846FF05FA53389D841B3B728013306B7403B
S2140130943306F6409317860063D2070E33861E4125
S2140130A43387E540B3BECE003307D7419317870075
S2140130B49304060063DE0712B70780FF9387F7FFC2
S2140130C43377F70013840600930710006FF01F9FF1
S2140130D41316360013553600138705006FF0DFCB41
S2140130E41316360013593600138705006FF0DFCF29
S2140130F4B386D801B307B70033B61601B387C70042
S2140131041397870013D83600635E0708370780FFD6
S2140131141307F7FFB3F7E7001397D70193979700C1
S2140131243368070113D7C700930710006FF09F9AFF
S214013134938706FE13060002B357F700638AC60098
S21401314413060004B306D6403317D700B3E8E800E5
S214013154333910013369F9006FF09FB313D5340086
S21401316493870900130709006FF01FC39306000233
S214013174B386F640130600006FF09F8E3368C900CD
S214013184E30E08C813593900930700001307060015
S2140131946FF09FC5130E00009307F07F37070800F2
S2140131A46FF05F931397D7019397970033680701DE
S2140131B413D7C700930700006FF0DF91E38607AECD
S2140131C433083F4193070800E38E09C6930780033B
S2140131D463CA0701B70780003367F7001384060044
S2140131E46FF0DFC813840600130510006FF01FCBC1
S2140131F41318D701135636003368C800135737001F
S21401320493070000138406006FF05FBAE38A07BAD7
S214013214B3063F4163960900938706006FF01FA229
S2140132249307800313091000E3C4D7A6B7078000E9
S2140132343367F7006FF0DFA293D74501B706100096
S2140132441387F6FF93F7F77F1306E03F3377B7004C
S21401325493D5F501635EF6001306D041635EF6006E
S214013264370500801305F5FF3385A5006780000048
S2140132741305000067800000130630433306F6404A
S2140132841308F0013367D7006350C8029306304130
S214013294B387F6403357F7003305E040E39C05FC5B
S2140132A413050700678000009387D7BE3317F7001E
S2140132B43355C5003367A7006FF01FFE130101FFE6
S2140132C4232611002324810023229100630A050486
S2140132D41357F541B344A700B384E44093070500AC
S2140132E41385040013D4F701EF00C0089307E041E7
S2140132F4B387A7401307A00093F7F77F6340A70699
S2140133041307B0003307A74033D7E400130555016C
S2140133141317C700B394A4001357C7006F004001E6
S2140133241304000093070000130700009304000031
S214013334939747011314F401B3E7E7008320C10010
S214013344B3E78700032481001385040093850700EF
S214013354832441001301010167800000130555FF12
S2140133643397A4001317C7001357C700930400002C
S2140133746FF01FFCB7070100637AF50213370510D7
S2140133841337170013173700B71706003355E50030
S214013394938747B1B387A70003C5070093060002C6
S2140133A4B386E6403385A64067800000B707000170
S2140133B46374F50213070001B71706003355E500D9
S2140133C4938747B1B387A70003C507009306000197
S2140133D43385A6406780000013078001B7170600EF
S2140133E43355E500938747B1B387A70003C50700A4
S2140133F4930680003385A640678000009305050088
S2140134049306000013060000130500006F10C05C4D
S214013414130101FF930500002324810023261100D4
S21401342413040500EF10006583A7418E638407002B
S214013434E780070013050400EF90C04093050500DC
S21401344403A5C1896F0000019305050003A5C18981
S2140134546F109009130101FD232E31012326110259
S2140134642324810223229102232021039387B5007A
S21401347413076001930905006362F70893070001C7
S21401348463E4B720EF0000799307800193052000D9
S21401349493040001372906001309091BB307F90031
S2140134A403A44700138787FF6304E4348327440097
S2140134B48326C4000326840093F7C7FFB307F400EA
S2140134C403A747002326D60023A4C60013671700C4
S2140134D41385090023A2E700EF0000741305840096
S2140134E48320C102032481028324410203290102A9
S2140134F48329C101130101036780000093F487FF48
S21401350463C4071863E2B418EF00C0709307701F12
S21401351463FA973E93D79400638007181307400015
S2140135246360F73493D764009385970313888703FE
S21401353413963500372906001309091B3306C900FB
S21401354403244600130686FF630886021305F0006B
S2140135546F0040018326C40063580728630ED60013
S214013564138406008327440093F7C7FF33879740E5
S214013574E352E5FE93050800032409019308890034
S21401358463001427832744009306F00093F7C7FFCC
S2140135943387974063CEE636232A19012328190177
S2140135A4635207341307F01F03254900636AF7249F
S2140135B413F787FF130787003307E90083260700FD
S2140135C413D6570093071000B397C7003365F50069
S2140135D4930787FF2326F4002324D4002322A9007B
S2140135E42320870023A6860093D7254013061000C0
S2140135F43316F600636AC50AB377A6006394070216
S2140136041316160093F5C5FFB377A60093854500F8
S214013614639A070013161600B377A6009385450030
S214013624E38A07FE1308F000139335003303690099
S214013634130503008327C500138E05006304F524D0
S21401364403A747001384070083A7C7001377C7FFA0
S214013654B30697406344D824E3C206FE3307E40066
S21401366483264700032684001385090093E6160083
S2140136742322D7002326F60023A4C700EF00C0594F
S214013684130584006FF0DFE59307C00023A0F9005B
S214013694130500006FF0DFE4130600209305000411
S2140136A41308F0036FF01FE903248900232861013E
S2140136B48327440013FBC7FF63689B0033079B40C3
S2140136C49307F00063CCE70C23229101232A5101CE
S2140136D403A7418983AA018E232C41012326710164
S2140136E49307F0FF330A6401B38A5401630AF73C73
S2140136F4B71700009387F700B38AFA00B7F7FFFFFE
S214013704B3FAFA0093850A0013850900EF00D06224
S2140137149307F0FF930B0500630EF5442324810100
S2140137246360452537FC1800130C0CA583250C0093
S214013734B385BA002320BC00138705006318AA2AA0
S214013744931745016394072A832B8900B3075B010A
S21401375493E7170023A2FB0083A6C18D63F4B6008A
S21401376423AEB18C83A6818D63F4B60023ACB18CF1
S214013774032C810013840B0093F7C7FF338797400C
S21401378463EC97389307F00063D8E738032A81017E
S214013794832A4101832BC100832C410093E7140043
S2140137A42322F400B304940023249900136717001A
S2140137B41385090023A2E400EF0000468320C1021A
S2140137C41305840003248102032B0101832441028F
S2140137D4032901028329C101130101036780000043
S2140137E4032549006FF05FE0032684006FF01FCDC8
S2140137F403A4C70093852500E38087D86FF01FCB09
S21401380413D797009306400063F2E614930640012B
S21401381463E6E6321306C7059306B70513163600A4
S2140138243306C90003270600130686FF6318E6005D
S2140138346F008029032787006308E6008326470074
S21401384493F6C6FFE3E8D7FE0326C7002326C40083
S2140138542324E40023248600232687006FF0DFD880
S214013864130740016378F710130740056366F72EC4
S21401387493D7C4009385F7061388E7061396350095
S2140138846FF05FCB130E1E0093773E001305850081
S214013894638007108327C5006FF05FDA0326840070
S2140138A493E514002322B4002326F60023A4C700BC
S2140138B4B3049400232A99002328990093E7160059
S2140138C423A6140123A4140123A2F4003307E4005D
S2140138D4138509002320D700EF0000341305840064
S2140138E46FF01FC0B307F40003A747001385090050
S2140138F41367170023A2E700EF00003213058400C4
S2140139046FF01FBE93D53400938784006FF09FB881
S21401391493E614002322D400B3049400232A9900C6
S214013924232899009366170023A6140123A41401DF
S21401393423A2D400B307F4001385090023A0E700EB
S214013944EF00802D130584006FF09FB913D767002D
S2140139541306970393068703131636006FF05FEC7E
S214013964630C240703248900032C81008327440065
S2140139746FF09FE09385C7051388B7051396350046
S2140139846FF05FBB832783009385F5FF63906728F9
S21401399493F73500130383FFE39607FE03274900D5
S2140139A49347F6FFB3F7E7002322F9001316160030
S2140139B4E3ECC7CEE30A06CE3377F600631A0700B4
S2140139C4131616003377F600130E4E00E30A07FEAD
S2140139D493050E006FF05FC537FC1800130C0CA599
S2140139E403270C003387EA002320EC0083A64189D1
S2140139F49307F0FF6386F618B3874B41B387E70056
S214013A042320FC0093FC7B00638C0C0CB38B9B4142
S214013A14B717000093878700938B8B00B385974174
S214013A24B38A5B01B38555419395450113DA450184
S214013A3493050A0013850900EF0010309307F0FF81
S214013A446300F51833057541B30A450103270C00D5
S214013A542324790193E71A00B305EA002320BC0066
S214013A6423A2FB00E30A24CF9306F00063F0660B5F
S214013A740327440093074BFF93F787FF1377170039
S214013A843367F7002322E400130650003307F400DB
S214013A942322C7002324C70063E6F60083A74B004E
S214013AA46FF09FCB9305840013850900EF10C023A4
S214013AB4832B890083250C0083A74B006FF0DFC995
S214013AC4938A0A016FF01FC493D626409307100009
S214013AD4B397D7003365F5002322A9006FF01FD7EB
S214013AE4B3855B01B305B0409395450113DA4501EF
S214013AF493050A0013850900EF0010249307F0FFCD
S214013B04E312F5F4130A00006FF05FF4032C81004E
S214013B149307100023A2FB0013850900EF00C00FD2
S214013B2413050000032A8101832A4101032B0101A5
S214013B34832BC100832C41006FF09F9A93064005A6
S214013B4463E4E60413D7C7001306F7069306E706ED
S214013B54131636006FF0DFCC130740156364F704C1
S214013B6493D7F40093858707138877071396350050
S214013B746FF05F9C03248900832744006FF0DFBF46
S214013B8423AA71896FF01FE89306401563E4E604DF
S214013B9413D7F7001306870793067707131636001D
S214013BA46FF01FC8130740556364F70493D72401C5
S214013BB49385D7071388C707139635006FF09F9729
S214013BC4938C8CFFB38A9A01B38A7A41130A000054
S214013BD46FF0DFE79306405563E4E60213D7270147
S214013BE41306D7079306C707131636006FF05FC38D
S214013BF41306803F9305F0071308E0076FF09F93C1
S214013C041306803F9306E0076FF09FC183274900A0
S214013C146FF0DFD96780000067800000130500009D
S214013C246780000037260600B775010037250600B1
S214013C341306865B938545041305855C6F00C035C2
S214013C44130101FF832545002324810037F418005E
S214013C542322910023261100130484A7930405004C
S214013C6463848500EF30C03D83A5840093078406F2
S214013C746386F50013850400EF30803C83A5C400F9
S214013C841304040D638E8500032481008320C10080
S214013C941385040083244100130101016F30403A67
S214013CA48320C10003248100832441001301010100
S214013CB4678000001305000067800000130101FE01
S214013CC4232C8100B747010037F41800130484A796
S214013CD4938787C2232E1100232A910023282101CA
S214013CE4232631012324410123A2F18E13068000E9
S214013CF493074000930500001305C4052326F4002A
S214013D04232004002322040023240400232204067F
S214013D1423280400232A0400232C0400EF00901D0A
S214013D24B7070100374A0100B749010037490100C6
S214013D34B7440100130A0A1C938949221309C92AA4
S214013D4493844432938797001306800093050000FA
S214013D541305440C2320440323223403232424037D
S214013D6423269402232AF406232E840023240406FD
S214013D7423260406232804062326040C232C0406DF
S214013D84232E040623200408EF00D016B7070200EA
S214013D9413078406938727011305C41213068000AC
S214013DA493050000232444092326340923282409DF
S214013DB4232A9408232EF40C2322E4082328040C33
S214013DC4232A040C232C040C232A04122320040E75
S214013DD42322040E2324040EEF00D0119307040DAE
S214013DE42328440F232A340F232C240F232E940E26
S214013DF48320C1012326F40E032481018324410177
S214013E04032901018329C100032A81001301010248
S214013E146780000083A7418E130101FE232631012A
S214013E24232E1100232C8100232A9100232821010B
S214013E34930905006388070E372906001309895B71
S214013E449304F0FF83274900032489009387F7FF2F
S214013E5463D807006F00000813048406638C970672
S214013E640317C4009387F7FFE31807FEB707FFFF9E
S214013E74938717002326F400232204062320040034
S214013E84232404002322040023280400232A0400F4
S214013E94232C040013068000930500001305C405B3
S214013EA4EF00500523280402232A040223220404D3
S214013EB4232404048320C10113050400032481017F
S214013EC483244101032901018329C100130101024D
S214013ED46780000003240900630604001309040034
S214013EE46FF05FF69305C01A13850900EFF08FD6BD
S214013EF413040500630C05021305C500930740006F
S214013F04232004002322F4002324A4001306001A09
S214013F1493050000EF00007E2320890013090400A6
S214013F246FF05FF2EFF09FD96FF01FF123200900C5
S214013F349307C00023A0F9006FF0DFF7832745033A
S214013F44638407006780000003A7418EB74701001A
S214013F54938747C4232AF502E31607FE6FF01FD69C
S214013F64678000006780000037260600B745010019
S214013F741306865B938505C2130500006F00C00116
S214013F8437260600B74501001306865B938585CB65
S214013F94130500006F004000130101FD23202103D7
S214013FA4232E3101232C4101232A510123286101A7
S214013FB4232671012326110223248102232291023E
S214013FC4130B0500938B0500930A0600130A0000E1
S214013FD4930910001309F0FF83A44A0003A48A007E
S214013FE49384F4FF63C804028357C40063FEF90094
S214013FF48317E4009305040013050B006386270169
S214014004E7800B00336AAA009384F4FF1304840642
S214014014E39C24FD83AA0A00E3900AFC8320C102E0
S2140140240324810283244102032901028329C10155
S214014034832A4101032B0101832BC10013050A00C6
S214014044032A81011301010367800000130101FCA7
S2140140542324C1022326D1022328E102232AF102C2
S214014064232C0103232E11031386050083258500C3
S21401407493068102232E11002326D100EF00107728
S2140140848320C101130101046780000003A3C189D1
S214014094130101FC2324C1022326D1022322B102E7
S2140140A42328E102232AF102232C0103232E1103E0
S2140140B483258300930641021306050013050300B6
S2140140C4232E11002326D100EF0050728320C10154
S2140140D41301010467800000130101FC232C8102F3
S2140140E41304050013850500232A9102232E1102C9
S2140140F493840500EF00C06DB76705009387072416
S2140141042324F102930710002326F1020327440314
S2140141149307010293061500232AF1009307200052
S214014124232091022322A102232ED100232CF10065
S21401413483258400630007060397C50083A7450605
S2140141449316270163C00602B7E6FFFF9386F6FFC0
S214014154372600003367C700B3F7D7002396E50078
S21401416423A2F506139727016340070413064101AA
S21401417413050400EF300031631805021305A0008F
S2140141848320C1030324810383244103130101040F
S21401419467800000130504002326B100EFF01FDA40
S2140141A48325C1006FF05FF91305F0FF6FF05FFD23
S2140141B49305050003A5C1896FF01FF2130101FFE2
S2140141C423248100138405008395E500232611002A
S2140141D4EF00003063400502832704058320C100F5
S2140141E4B387A7002328F4040324810013010101E3
S2140141F4678000008357C40037F7FFFF1307F7FFF4
S214014204B3F7E7008320C1002316F40003248100DA
S2140142141301010167800000130500006780000098
S2140142248397C500130101FE232C8100232A9100E4
S2140142342328210123263101232E110013F7071009
S21401424413840500930405001309060093890600E8
S2140142546310070437F7FFFF1307F7FFB3F7E70009
S2140142648315E4002316F400032481018320C1018D
S21401427493860900130609008329C1000329010155
S2140142841385040083244101130101026F00803069
S2140142948395E5009306200013060000EF00C01C7A
S2140142A48317C4006FF01FFB130101FF2324810051
S2140142B4138405008395E50023261100EF00C01A38
S2140142C49307F0FF6308F5028357C400371700000D
S2140142D48320C100B3E7E7009397070193D707410B
S2140142E42328A4042316F4000324810013010101E6
S2140142F4678000008357C40037F7FFFF1307F7FFF3
S214014304B3F7E7009397070193D707418320C100CA
S2140143142316F400032481001301010167800000C1
S2140143248395E5006F004000130101FF23248100FB
S214014334232291001304050013850500232611008A
S21401434423A4018EEF80804F9307F0FF630CF500E2
S2140143548320C10003248100832441001301010149
S2140143646780000083A7818EE38407FE8320C10053
S2140143742320F40003248100832441001301010156
S2140143846780000083A7C189638EA70C8325450433
S214014394130101FE232A9100232E1100232C8100F0
S2140143A4930405006388050423282101232631018B
S2140143B41309000093090008B387250103A4070025
S2140143C4630E04009305040003240400138504000B
S2140143D4EF009011E31804FE83A544041309490071
S2140143E4E31C39FD13850400EF00101003290101B5
S2140143F48329C10083A5840363860500138504000D
S214014404EF00900E03A40404630C04009305040057
S2140144140324040013850400EF00100DE31804FEC2
S21401442483A5C4046386050013850400EF00D00B3E
S21401443483A74403638E0700032481018320C101FB
S21401444413850400832441011301010267800700D8
S2140144548320C10103248101832441011301010244
S2140144646780000067800000130101FF13870500C1
S21401447423248100232291009305060013040500DA
S21401448413860600130507002326110023A4018EB4
S214014494EF80C0449307F0FF630CF5008320C1004E
S2140144A40324810083244100130101016780000075
S2140144B483A7818EE38407FE8320C1002320F400B2
S2140144C40324810083244100130101016780000055
S2140144D4130101FF13870500232481002322910081
S2140144E4930506001304050013860600130507004A
S2140144F42326110023A4018EEF8080409307F0FF4A
S214014504630CF5008320C100032481008324410049
S214014514130101016780000083A7818EE38407FEEF
S2140145248320C1002320F400032481008324410056
S2140145341301010167800000130101FF2324810098
S2140145442322910013040500138505002326110078
S21401455423A4018EEF8000429307F0FF630CF5005D
S2140145648320C10003248100832441001301010137
S2140145746780000083A7818EE38407FE8320C10041
S2140145842320F40003248100832441001301010144
S21401459467800000130101FF1387050023248100AF
S2140145A423229100930506001304050013860600D2
S2140145B4130507002326110023A4018EEF80C03FB4
S2140145C49307F0FF630CF5008320C10003248100E8
S2140145D483244100130101016780000083A7818EB3
S2140145E4E38407FE8320C1002320F4000324810012
S2140145F4832441001301010167800000130101FFB8
S21401460423248100B727060037240600232021012E
S2140146149387C7181307C418232611002322910071
S2140146243389E7406382E702135929401304C41807
S21401463493040000832704009384140013044400A5
S214014644E7800700E3E824FF37240600B7270600BF
S214014654938707191307C4183389E7401359294068
S2140146646380E7021304C41893040000832704003C
S2140146749384140013044400E7800700E3E824FF4E
S2140146848320C100032481008324410003290100FF
S2140146941301010167800000130101FF2324810037
S2140146A4B72706003724060093870719130444190D
S2140146B43304F4402322910023261100935424400A
S2140146C4638004021304C4FF3304F4008327040044
S2140146D49384F4FF1304C4FFE7800700E39804FE01
S2140146E48320C100032481008324410013010101B6
S2140146F4678000001303F00013070500637EC302FE
S2140147049377F7006390070A63920508937606FF8A
S2140147141376F600B386E6002320B7002322B700FB
S2140147242324B7002326B70013070701E366D7FE41
S2140147346314060067800000B306C3409396260000
S21401474497020000B38656006780C6002307B700A9
S214014754A306B7002306B700A305B7002305B700D1
S214014764A304B7002304B700A303B7002303B700C9
S214014774A302B7002302B700A301B7002301B700C1
S214014784A300B7002300B7006780000093F5F50F78
S21401479493968500B3E5D50093960501B3E5D50058
S2140147A46FF0DFF69396270097020000B386560053
S2140147B493820000E78006FA93800200938707FF3E
S2140147C43307F7403306F600E378C3F66FF0DFF3FA
S2140147D49377350013070500639C0704B7867F7F2C
S2140147E49386F6F79305F0FF0326070013074700A1
S2140147F4B377D600B387D700B3E7C700B3E7D700CC
S214014804E384B7FE8346C7FFB307A7406384060461
S2140148148346D7FF638C06020345E7FF3335A000C2
S2140148243305F5001305E5FF67800000E38806FA03
S214014834834707001307170093763700E39807FEAC
S2140148443307A7401305F7FF678000001385D7FFDA
S214014854678000001385C7FF678000003367B500D3
S2140148649303F0FF1377370063100710B7877F7F32
S2140148749387F7F70326050083A60500B372F600AF
S2140148843363F600B382F200B3E2620063927210FD
S2140148946316D6080326450083A64500B372F600C0
S2140148A43363F600B382F200B3E26200639E720CD5
S2140148B46316D6060326850083A68500B372F60022
S2140148C43363F600B382F200B3E262006398720CBB
S2140148D46316D6040326C50083A6C500B372F60084
S2140148E43363F600B382F200B3E262006392720CA1
S2140148F46316D6020326050183A60501B372F600E4
S2140149043363F600B382F200B3E26200639C720A78
S2140149141305450193854501E30ED6F413170601E5
S21401492493970601631EF7001357060193D70601F2
S2140149343305F7409375F50F639005026780000011
S2140149441357070193D707013305F7409375F50FFE
S21401495463940500678000001377F70F93F7F70F4A
S2140149643305F740678000000346050083C605004B
S21401497413051500938515006314D600E31606FE89
S2140149843305D6406780000013054500938545002E
S214014994E31CD6FC130500006780000013058500A0
S2140149A493858500E312D6FC13050000678000009A
S2140149B41305C5009385C500E318D6FA1305000050
S2140149C4678000001305050193850501E31ED6F8EB
S2140149D4130500006780000083A7C18E638C07045B
S2140149E403A747001308F0016342E80813182700D9
S2140149F463060502338307012324C30883A88718A3
S214014A04130610003316E600B3E8C80023A41719EA
S214014A142324D310930620006308D5021307170036
S214014A2423A2E700B387070123A4B70013050000F8
S214014A3467800000B7F71800138807BB23A6018F09
S214014A44938707BB6FF0DFF983A6C7181307170010
S214014A5423A2E700B3E6C60023A6D718B387070147
S214014A6423A4B70013050000678000001305F0FFB8
S214014A7467800000130101FD232C4101232021033B
S214014A8403A9C18E232611026308090A232E3101C4
S214014A94232A51012328610123267101232481023B
S214014AA42322910223248101130B0500938B050015
S214014AB49309F0FF930A1000832449001384F4FF3A
S214014AC4634E040493942400B304990063900B0882
S214014AD48327490083A644009387F7FF638C870ADC
S214014AE423A20400638606028327891833978A0063
S214014AF4032C4900B377F70063960706E7800600A0
S214014B040327490083A7C18E63108709639E27077D
S214014B141304F4FF9384C4FFE31A34FB03248102D1
S214014B24832441028329C101832A4101032B010104
S214014B34832BC100032C81008320C10203290102B7
S214014B44032A8101130101036780000083A744102F
S214014B54E38077F91304F4FF9384C4FFE31834FF66
S214014B646FF0DFFB8327C91883A544083377F70062
S214014B746316070213050B00E780060003274900A6
S214014B8483A7C18EE30487F9E38A07F8138907002C
S214014B946FF09FF2232289006FF0DFF4138505007E
S214014BA4E78006006FF0DFF5130101FE23263101CD
S214014BB4B7290600232C8100232A910023282101EA
S214014BC423244101232E1100138A0500130905002D
S214014BD49389091BEFF00F8403A78900B717000018
S214014BE49387F7FE832447003717000093F4C4FF26
S214014BF43384F400330444411354C4001304F4FF0F
S214014C041314C400634EE400930500001305090061
S214014C14EFF09F9283A78900B38797006308F50294
S214014C2413050900EFE05FFF8320C101032481011E
S214014C3483244101032901018329C100032A810038
S214014C44130500001301010267800000B3058040CC
S214014C5413050900EFF05F8E9307F0FF630AF5046E
S214014C64B7F71800938707A503A7070083A689004B
S214014C74B384844093E41400330787401305090082
S214014C8423A2960023A0E700EFE01FF98320C101C9
S214014C940324810183244101032901018329C100DD
S214014CA4032A810013051000130101026780000026
S214014CB49305000013050900EFF01F8803A7890078
S214014CC49306F000B307E540E3DCF6F483A64189D6
S214014CD493E717002322F7003305D540B7F61800EB
S214014CE423A8A6A46FF0DFF363820518130101FF5E
S214014CF423248100232291001384050093040500D4
S214014D0423261100EFE01FF10325C4FF130784FFD8
S214014D14B72506009377E5FF3306F7009385051B51
S214014D248326460003A8850093F6C6FF6302C81AC5
S214014D342322D600137515003308D6006310050A1E
S214014D44032384FF032848003725060033076740FA
S214014D54832887001305851BB3876700137818001B
S214014D646382A8140323C70023A66800232413011F
S214014D746306081A93E617002322D7002320F600B9
S214014D849306F01F63ECF60693F687FF9386860078
S214014D9403A54500B386D50003A6060013D857001D
S214014DA493071000B3970701B3E7A700138586FF9F
S214014DB42326A7002324C70023A2F50023A0E60088
S214014DC42326E600032481008320C1001385040002
S214014DD483244100130101016FE01FE40325480009
S214014DE4137515006306050893E61700232ED4FEF3
S214014DF42320F6009306F01FE3F8F6F893D69700FF
S214014E04130640006360D61293D667001385960393
S214014E1413868603131535003385A50083260500FE
S214014E24130585FF6318D5006F00401583A6860019
S214014E346308D50003A646001376C6FFE3E8C7FE5B
S214014E4403A5C6002326A7002324D7000324810034
S214014E542324E5008320C100138504008324410034
S214014E6423A6E600130101016FE01FDB6780000043
S214014E7437250600B387D7001305851B83268600CE
S214014E84638CA60C0328C60013E517003306F70047
S214014E9423A606012324D8002322A7002320F600F4
S214014EA46FF01FEE631C0812832586000326C600D6
S214014EB4B386F60093E7160023A6C5002324B6009E
S214014EC42322F7003307D7002320D7006FF09FEF84
S214014ED413751500B386D70063100502032584FFF6
S214014EE43307A7408327C70003268700B386A60097
S214014EF42326F60023A4C70013E6160083A7818998
S214014F042322C70023A4E500E3EEF6EA83A5018E77
S214014F1413850400EFF05FC96FF0DFEAB387D700AB
S214014F246FF0DFF5130640016370D60213064005E1
S214014F346364D60693D6C7001385F6061386E6067B
S214014F44131535006FF05FED1385C6051386B60598
S214014F54131535006FF05FEC23AAE50023A8E500DE
S214014F6493E617002326A7002324A7002322D700AD
S214014F743307F7002320F7006FF0DFE403A84500AA
S214014F841356264093071000B397C700B3E70701EB
S214014F9423A2F5006FF01FEB13064015636CD600D1
S214014FA493D6F700138586071386760713153500FF
S214014FB46FF09FE613064055636CD60093D627011F
S214014FC41385D6071386C607131535006FF0DFE47D
S214014FD41305803F1306E0076FF01FE493E61700FE
S214014FE42322D7002320F6006FF0DFDD130101ED45
S214014FF42326111223229112232A511123267111D9
S214015004938A0500930406002324D100930B05001C
S214015014EF20103983270500138507002322F102A8
S214015024EFF00FFB2320A10263880B0083A74B0339
S214015034639407006F1040700397CA0083A74A065B
S2140150449316270163C00602B7E6FFFF9386F6FFB1
S214015054372600003367C700B3F7D7002396EA0064
S21401506423A2FA0613972701635407006F10D0484A
S2140150748397CA0013F787006302072E03A70A0162
S214015084630E072C93F7A7011307A000638AE72E84
S214015094B71706002328611123248111130B010B72
S2140150A4938747C1371C060023248112232C411100
S2140150B4232EB10F23202113232E311123229111E4
S2140150C42320A111232E610723220108232001088E
S2140150D4232A0100232C0100232E010013040B00B4
S2140150E42324010223280102232201002326F1009E
S2140150F4130A0001130C8CD823207101938D04002C
S21401510483C70D00638C071E93840D00130750029A
S2140151146386E72A83C7140093841400E39A07FE80
S2140151243389B441638CB41D0327410883270108DE
S2140151342320B40133072701938717002322240170
S2140151442322E1082320F1081307700013048400C6
S214015154634EF7260327410083C70400330727015C
S2140151642322E100638C071893841400A30F01041F
S2140151749309F0FF930B00001309000093068005C2
S21401518403CD0400938D140093070DFE63E6F60425
S2140151940327C10093972700B387E70083A7070077
S2140151A467800700930B000093070DFD130690001C
S2140151B403CD0D0013972B00B30B7701939B1B00B4
S2140151C4B38B770193070DFD938D1D00E372F6FEF5
S2140151D493070DFEE3FEF6FA63020D122304A109FA
S2140151E4A30F01041307100093041000930C810805
S2140151F4130F09009309000023280100930F0000F0
S21401520493724F080329410863960200B387EB4063
S214015214E342F0448347F105638A070283270108C2
S2140152249306F1052320D4001309190093061000F0
S214015234938717002322D400232221092320F1086F
S214015244930670001304840063C0F61A638A0F027F
S21401525483270108930601062320D4001309290095
S21401526493062000938717002322D40023222109C2
S2140152742320F1089306700013048400E3CEF64E4F
S21401528493070008E38AF208B3899940E34E30197C
S21401529493770F10639407748327010833099900E1
S2140152A423209401938717002322940023222109A3
S2140152B42320F1089306700063CCF62013048400BF
S2140152C4137F4F0063060F00B384EB40E342904E16
S2140152D413830B0063D4EB001303070083274100F9
S2140152E4B38767002322F100E31A092283C70D005E
S2140152F42320010813040B00E39807E083274108E1
S214015304832B0100638407006F10807883D7CA005B
S214015314032481120329011293F707048329C11177
S214015324032A8111032B0111032C8110832C4110B4
S214015334032D0110832DC10F638407006F10D01B4A
S2140153448320C1120325410083244112832A41117B
S214015354832BC110130101136780000093850A0093
S21401536413850B00EF200063630405006F10D0184B
S2140153748397CA001307A00093F7A701E39AE7D01F
S2140153848397EA00E3C607D0832681008320C112EF
S2140153941386040093850A0083244112832A41114B
S2140153A413850B00832BC110130101136F10D03723
S2140153B41369090193840D006FF09FDC3389B441AE
S2140153C4E394B4D783C704006FF0DFD90325010043
S2140153D41306C10793850A00EF10D041E31805F2BE
S2140153E413040B006FF01FD7032501001306C10732
S2140153F493850A00232EE102232CE103232A51027A
S2140154042326F103EF10103FE31205F003294108A8
S2140154140327C103032F810383224103832FC10280
S21401542413040B006FF09FE283270108B76605009B
S2140154349386C64C2320D400130919009306100042
S214015444938717002322D400232221092320F1085D
S214015454930670001304840063D4F6006F10C0131F
S214015464630406006F10C0488326410193771F002A
S214015474B3E7D700E38607E48327410283260102C4
S2140154842320F40083270108B38526012322D400B0
S214015494938717002322B1082320F108930670008E
S2140154A463D4F6006F10C067130484008326410199
S2140154B493871700232094013389B6002322D4004E
S2140154C4232221092320F10893067000E3D8F6DE8F
S2140154D4032501001306C10793850A002326E1026A
S2140154E42328E101EF101031E31205E203294108F4
S2140154F4032F01010327C10213040B006FF05FDCC5
S21401550493778900E398075E832781009387770062
S21401551493F787FF03A7070093878700232CE100EF
S21401552403A7C7FF2324F100232EE100832CC10126
S21401553403A781838326810183A7C18393941C00D7
S21401554493D41400138506009385040013060700FC
S21401555493860700EF80803B630405006F104007C5
S2140155648326810103A7818383A7C183138506004C
S214015574938504001306070093860700EFD0CFAA8D
S2140155846344A0006F10C0040327810193850C00B7
S214015594130600001305070093060000EFD0CFA8FA
S2140155A4635405006F10C04D8346F10593077004DC
S2140155B463D4A7016F10C044B76C0500938CCC4824
S2140155C423280100137FF9F71307300093043000F2
S2140155D4930900006384060013071700937F2F00C6
S2140155E4E3800FC213072700930F20006FF05FC1FB
S2140155F4832681009377090103A706009386460054
S2140156042324D100639207129376090493070700B3
S214015614E39A064C634E07108346F10563C40904F6
S214015624137FF9F7631E070213071000639E092010
S214015634E310073A93741900930C0B006382040475
S21401564493070003A307F10A930CF10A13870900D1
S21401565463CC990223280100E39006F86FF01FF843
S21401566413090F0013079000E36EF76E9387070381
S214015674A307F10A130F090093041000930CF10A0F
S21401568413870900E3D899FC138704002328010033
S2140156946FF09FFC8327810083AB07009387470045
S2140156A42324F100E3D80BD0B30B704113694900EE
S2140156B493840D006FF0DFAC03CD0D009307A002B9
S2140156C4938D1D006314FD006F10007E93070DFD7E
S2140156D49305900013070000130690009309000039
S2140156E4E3E4F5AA03CD0D0093192700B389E90075
S2140156F4939919003387F90093070DFD938D1D00C7
S214015704E372F6FE93090700E35007A89309F0FF36
S2140157146FF09FA7832781001369090103A7070078
S214015724938747002324F10093070700E35607EE07
S214015734B307E0409306D002130710006F00000A77
S2140157441369090893840D006FF09FA31369090474
S21401575493840D006FF0DFA203278100A30F0104D9
S2140157649304100083270700130747002324E1004E
S2140157742304F10813071000930C81086FF05FA748
S2140157849307B002A30FF10493840D006FF05F9F9B
S2140157941369190093840D006FF09F9E8347F105EA
S2140157A4E39A07C093070002A30FF10493840D0044
S2140157B46FF01F9D1369890093840D006FF05F9C41
S2140157C4032781001369090183270700130747008C
S2140157D42324E1001307100093060000A30FD1044D
S2140157E463C80900137FF9F7E38207E413090F007E
S2140157F413061000E308C7E6130620006306C7066F
S214015804930C0B0013F7770013070703A38FECFE23
S21401581493D7370013860C00938CFCFFE39407FEA2
S2140158249377190063840706930700036300F7065A
S2140158341306E6FFA38FFCFEB304CB40130F090047
S214015844930C06006FF0DFE3930710006314F70070
S2140158546F10803F9307200013090F006304F700BD
S2140158646F1040249307000003268102930C0B005B
S21401587413F7F7003307E6000347070093D74700FB
S214015884938CFCFF2380EC00E39407FEB3049B4156
S214015894130F09006FF0DFDE032781001369090186
S2140158A483270700130747002324E100130700009A
S2140158B46FF09FF2832681001377090183A7060000
S2140158C4938646002324D100E31607F013770904D0
S2140158D4E30207F09397070193D707011307100014
S2140158E46FF09FEF83278100A30F010483AC0700A9
S2140158F413884700E3860C2E2324010163D4090090
S2140159046F10800A138609009305000013850C00A6
S214015914EF20401C03288100631405006F10403AF1
S214015924B30495418346F10513C7F4FF1357F741B2
S214015934232401012328010033F7E400130F09008F
S21401594493090000E39A06C86FF05FC983268100B5
S21401595437870000130707832310E10613874600E1
