S00C00006D61696E2E7372656373
S214010094976107009381C1E51701FF03130141F638
S2140100A41385818C17362F001306867E3306A640E9
S2140100B493050000EF70D072178500001305C5EC98
S2140100C4EF609042EF705062130500009305410003
S2140100D413060000EF00800E6F605042375508008B
S2140100E4375708009307C56E1307C76E630AF700F0
S2140100F493070000638607001305C56E6780070033
S21401010467800000375508009307C56E3757080007
S2140101149305C76EB385F54093D7254093D5F5016E
S214010124B385F50093D51540638A0500930700004F
S214010134638607001305C56E6780070067800000A5
S214010144130101FF2324810083C74197232611004D
S21401015463940702EFF09FF893070000638A070091
S214010164375508001305050097000000E700000056
S21401017493071000238AF1968320C100032481008B
S21401018413010101678000009307000063860702DC
S21401019437550800130101FF938581971305050060
S2140101A42326110097000000E70000008320C10009
S2140101B4130101016FF01FF56FF0DFF4130101FD68
S2140101C423261102232481022322910223202103C0
S2140101D4232E3101232C4101EF204034EF105075BA
S2140101E4EF20100913088002930700141307800CEC
S2140101F4930600001306000037AA030093050A9A23
S2140102041385C194EF001075130880029307001438
S2140102141307800C9306000013060000B77902004A
S214010224938509DA13858194EF00D072130880024E
S214010234930700141307800C9306000013060000AE
S214010244373903009305095A13854194EF009070DA
S21401025413088002930700141307800C930600000A
S21401026413060000B7D402009385041A138501947B
S214010274EF00506E13088002930700141307800CD6
S2140102849306000013060000371402009305049A2F
S2140102941385C193EF00106C1308800293070014B2
S2140102A41307800C930600141306000093050A9A9C
S2140102B413858193EF00106A1308800293070014D4
S2140102C41307800C9306000013060000938509DAD1
S2140102D413854193EF0010681308800293070014F6
S2140102E41307800C93060014130600009305095A9D
S2140102F413850193EF001066130880029307001418
S2140103041307800C93060014130600009385041A41
S2140103141385C192EF00106413088002930700143A
S2140103241307800C93060014130600009305049A21
S21401033413858192EF00106213088002930700145C
S2140103441307800C930600281306000093050A9AE7
S21401035413854192EF00106013088002930700147E
S2140103641307800C9306000013060000938509DA30
S21401037413850192EF00105E1308800293070014A0
S2140103841307800C93060028130600009305095AE8
S2140103941385C191EF00105C1308800293070014C3
S2140103A41307800C93060028130600009385041A8D
S2140103B413858191EF00105A1308800293070014E5
S2140103C41307800C93060028130600009305049A6D
S2140103D413854191EF0010581308D0079307A00F17
S2140103E41307E0019306300213060000B705040064
S2140103F4938505DA13854195EF00D055930680025F
S21401040413068002B7F504009385451CB734300003
S2140104141385C457EF30103F1385C457EF309060EF
S21401042403A54195EF00804E03A54195EF00906525
S21401043413088000930700011307000593060005BF
S21401044413060000B71502009385058A1305C1003B
S214010454EF0050500325C100EF00404BEF30C0427F
S214010464130500008320C102032481028324410270
S214010474032901028329C101032A8101130101030E
S21401048467800000130101FC232E1102232C810234
S214010494232A9102232821032326310323244103FB
S2140104A42322510323206103232E7101232C81016E
S2140104B4232A91012328A1012326B101130405004F
S2140104C4938C0500930D0600138D0600130B07008D
S2140104D4938B07003305F70213151500EF60D0045C
S2140104E4130C050013054000EF601004930A050081
S2140104F42322A40013054000EF601003130A05002D
S2140105042324A40013058000EF601002930905005C
S2140105142326A40013058000EF60100113090500CB
S2140105242328A40013054000EF601000930405007F
S214010534232AA400232C6401232E7401930710009C
S2140105442320F50023A0BA012320AA0113070000E3
S2140105549307000023A0E90023A2F9002320E90061
S2140105642322F90013054003EF60007C2320A40036
S21401057423229503232A7501232865012324850351
S2140105842320550123224501232E3501232025034B
S214010594232C95008320C103032481038324410370
S2140105A4032901038329C102032A8102832A410202
S2140105B4032B0102832BC101032C8101832C4101EE
S2140105C4032D0101832DC10013010104678000007E
S2140105D46302050A130101FF232611002324810067
S2140105E4232291001304050013054001EF60C07334
S2140105F493040500630805068327440003A7070040
S21401060423A0E400032784008326070023A2D40042
S21401061483A7070083268401B387D70023A4F400A5
S2140106248326C4019307900063C6D7009307A000EE
S214010634232EF400832707000327C401B387E700AA
S21401064423A6F40003A7818C23A8E40023A4918C99
S2140106548320C10003248100832441001301010186
S2140106646780000037050500130545E4EF70004375
S2140106746FF09FF867800000130101FF2326110025
S214010684232481001304050003250500EF00002838
S21401069413050400EFF0DFF38320C1000324810077
S2140106A41301010167800000130101FF23261100D5
S2140106B42324810003A4818C630204042322910071
S2140106C423202101930400003709050093850400C3
S2140106D48327C400032784008326440003260400DA
S2140106E493841400130509E6EF700029032404011A
S2140106F4E31E04FC83244100032901008320C10076
S214010704032481001301010167800000130101FE27
S214010714232E110083A7818C638E070A232C810064
S214010724232A9100232821012326310113040500DD
S2140107349384050013090600938906001305000037
S2140107446F00000283A6070123A4D18C6F00000466
S21401075403A7070113850700630607069307070027
S21401076403A70700E31687FE03A74700E31297FED5
S21401077403A78700E31E27FD03A7C700E31A37FD77
S214010784E30205FC03A707012328E50013850700F8
S214010794EF60405A13870900930609001386040084
S2140107A49305040037050500130505E8EF70C01C22
S2140107B40324810183244101032901018329C10002
S2140107C46F000002032481018324410103290101EE
S2140107D48329C100370505001305C5EAEF70002C0F
S2140107E48320C1011301010267800000130101FF88
S2140107F42326110023248100130405000325050084
S214010804EF00805F8327440003A507008327840045
S21401081483A507008326C40103268401B386D50075
S2140108243306C500EFF09FEE8320C1000324810048
S2140108341301010167800000630C0506130101FF23
S214010844232611002324810013040500EFF01FFA68
S2140108548327040003A58702EF60C04D03254400E7
S21401086463040500EF60004D03258400630405005E
S214010874EF60404C0325C40063040500EF60804B21
S2140108840325040163040500EF60C04A03254401FF
S21401089463040500EF60004A13050400EF60804915
S2140108A48320C10003248100130101016780000035
S2140108B46780000083274501130600009305F0FFB7
S2140108C4634CF00267800000B387C702B387E70072
S2140108D48326850293971700B387F6002390B70003
S2140108E41307170083270501E340F7FE13061600D6
S2140108F483274501635AF600832705011307000081
S214010904E344F0FC6FF09FFE67800000130101FED4
S214010914232E1100232C81001304050083270500D0
S21401092483A707002324F5008327450083A7070030
S2140109342326F500EFF01FF8930710002326F40290
S214010944832744016352F04A232A91002328210174
S21401095423263101232441012322510113060000D9
S2140109641303000F1305003C1308F0FF9302100055
S214010974130EF01337DF2600130F0F08B77E1D0082
S214010984938E0E08930420001309F027B77F1600F0
S214010994938F0F886F0000428329440003AA09003D
S2140109A4330A460193194A00B38949419399690068
S2140109B4B386D90093961600B386DF0083990600A2
S2140109C483268402B387F6002390370183274400E5
S2140109D483A60700B306D60083290400939746002E
S2140109E4B387D7409397670083A60900B306D70059
S2140109F4B387D70093971700B387FF002390B700F8
S214010A046F00C000638E590C638A9926130717007A
S214010A1483270401635AF7388326040083A6060055
S214010A24B306D700E364D5FEB387C702B387E700EE
S214010A349397170083254402B385F5008395050033
S214010A44E38605FD83A9018DE39E09FAE346DEF4F8
S214010A5403AA418D8326C400B306D6009396960056
S214010A6483298400B3093701B386360193961600A9
S214010A74B386460183D9060083268402B387F6002B
S214010A84239037018327440083A70700B307F600A2
S214010A94939797008326040083A60600B306D7001F
S214010AA4B387D70093971700B387E7012390B7005E
S214010AB48327440083A70700B307F600939797009C
S214010AC48326040083A60600B306D700B387D7009F
S214010AD493971700B387D7012390B7006FF01FF3DE
S214010AE4635ADE0A6342D91203AA418D8326C400DF
S214010AF4B306D60093969600938606EC8329840063
S214010B04B3093701B386360193961600B3864601B8
S214010B1483D9060083268402B387F600239037011F
S214010B248327440083A70700B307F600939797002B
S214010B34938707EC8326040083A60600B306D70032
S214010B44B387D70093971700B7D62600938606086F
S214010B54B387D7002390B7008327440083A70700F1
S214010B64B307F60093979700938707EC8326040050
S214010B7483A60600B306D700B387D700939717005A
S214010B84B7761D0093860608B387D7002390B7006F
S214010B946FF0DFE7377A1600130A0A8883294400C0
S214010BA483AA0900B30A560193994A00B3895941A5
S214010BB493996900B386D90093961600B306DA00B2
S214010BC48399060083268402B387F60023903701AF
S214010BD48327440083A60700B306D60083290400AE
S214010BE493974600B387D7409397670083A6090077
S214010BF4B306D700B387D70093971700330AFA00D2
S214010C042310BA006FF09FE0377A1600130A0A8899
S214010C148329440083AA0900B30A560193994A001A
S214010C24B389594193996900B386D90093961600FE
S214010C34B306DA008399060083268402B387F60096
S214010C44239037018327440083A60700B306D60002
S214010C548329040093974600B387D7409397670088
S214010C6483A60900B306D700B387D7009397170066
S214010C74330AFA002310BA006FF05FD9635CD90A0D
S214010C849309003CE38436D903AA418D8326C40024
S214010C94B306D60093969600938606D883298400D5
S214010CA4B3093701B386360193961600B386460117
S214010CB483D9060083268402B387F600239037017E
S214010CC48327440083A70700B307F600939797008A
S214010CD4938707D88326040083A60600B306D700A5
S214010CE4B387D70093971700B7D6260093860608CE
S214010CF4B387D7002390B7008327440083A7070050
S214010D04B307F60093979700938707D883260400C2
S214010D1483A60600B306D700B387D70093971700B8
S214010D24B7761D0093860608B387D7002390B700CD
S214010D346FF0DFCD377A1600130A0A888329440038
S214010D4483AA0900B30A560193994A00B389594103
S214010D5493996900B386D90093961600B306DA0010
S214010D648399060083268402B387F600239037010D
S214010D748327440083A60700B306D600832904000C
S214010D8493974600B387D7409397670083A60900D5
S214010D94B306D700B387D70093971700330AFA0030
S214010DA42310BA006FF09FC613061600832744016A
S214010DB46352F6028327440083A70700B307F600AD
S214010DC4E364F3FE83270401E350F0FE13070000F7
S214010DD46FF09FC483244101032901018329C100C3
S214010DE4032A8100832A41008320C101032481014F
S214010DF413010102678000000327C5029307100050
S214010E046306F70023260502678000008327450151
S214010E146354F028130101FF232681002324910043
S214010E24232221012320310183A5018D130600000D
S214010E34130F000F1308F0FF13031000930F200085
S214010E449308F013B7DE2600938E0E08377E1D0036
S214010E54130E0E089303F0271304F03BB772160023
S214010E64938202886F0000200329C50033092601F6
S214010E7493164900B386264193966600B386960078
S214010E8493961600B386D2002390F6006F00C00036
S214010E9463846508638CF51313071700832705011C
S214010EA4635CF71AB387C702B387E7008326850214
S214010EB493971700B387F60083970700E38E07FD21
S214010EC4E39805FC83248500B3049700E3C604FC79
S214010ED4E3CC98F88326C500B306D600939696000D
S214010EE4B386960093961600B386D6012390F60031
S214010EF48326C500B306D600939696008324850000
S214010F04B3049700B386960093961600B386C6017B
S214010F142390F6006FF05FF883248500B3049700EE
S214010F2463DA980463CC93068326C500B306D60019
S214010F3493969600938606ECB386960093961600CF
S214010F44B386D6012390F6008326C500B306D600E1
S214010F5493969600938606EC83248500B304970043
S214010F64B386960093961600B386C6012390F600C0
S214010F746FF09FF20329C500330926019316490031
S214010F84B386264193966600B3869600939616001A
S214010F94B386D2002390F6006FF01FF0377916005F
S214010FA48329C500B309360193964900B3863641B1
S214010FB493966600B3869600939616009304098862
S214010FC4B386D4002390F6006FF01FED83248500CA
S214010FD4B304970063DA9304E34094EC8326C500D4
S214010FE4B306D60093969600938606D8B3869600E3
S214010FF493961600B386D6012390F6008326C50081
S214011004B306D60093969600938606D88324850065
S214011014B3049700B386960093961600B386C6016A
S2140110242390F6006FF05FE7377916008329C50031
S214011034B309360193964900B38636419396660002
S214011044B38696009396160093040988B386D40053
S2140110542390F6006FF05FE413061600832745011C
S2140110646350F6028327C500B307F600E366FFFE66
S21401107483270501E352F0FE130700006FF09FE299
S2140110840324C1008324810003294100832901002C
S21401109413010101678000006780000093070500C3
S2140110A403278501032507006302050603A78501B7
S2140110B403250700630C050403A70700832607001E
S2140110C403A705000326070003A705013307E60067
S2140110D41305000063DCE60203A70701B386E600F6
S2140110E46356D60203A747008326070003A74500D5
S2140110F40326070003A745013307E60063D8E60085
S21401110483A74701B386F6003325D600678000001F
S214011114032705008327070083A6050003A6060008
S2140111249386570063D4C7009386B7FF2320D7005E
S214011134032745008327070083A6450003A6060068
S2140111449386570063D4C7009386B7FF2320D7003E
S21401115467800000130101FC232E1102232C810257
S214011164232A91022328210323263103232441031E
S2140111742322510323206103232E7101232C810191
S214011184232A91012328A1012326B10193040500F2
S214011194938D0500930C0600138C0600930B070031
S2140111A4138B0700930A080013054003EF50D0374A
S2140111B41304050023A0A40033055B0313151500CF
S2140111C4EF509036130D050013054000EF50D0354F
S2140111D4130A05002320A40013054000EF50D03461
S2140111E4930905002322A40013058000EF50D03391
S2140111F413090500232EA40013058000EF50D032F6
S214011204930405002320A40213054000EF50D031B7
S214011214232CA40023286401232A54012322B40383
S2140112242324A4032320950123208A0123A07901E2
S21401123413070000930700002320E9002322F90086
S21401124423A0E40023A2F4008320C1030324810322
S21401125483244103032901038329C102032A81024A
S214011264832A4102032B0102832BC101032C810132
S214011274832C4101032D0101832DC10013010104B7
S21401128467800000630E0504130101FF2326110085
S214011294232481001304050003250500EF5090293B
S2140112A403254400EF5010290325C401EF5090286C
S2140112B403250402EF50102803258401EF509027DC
S2140112C403258402EF50102713050400EF509026DF
S2140112D48320C100032481001301010167800000FB
S2140112E467800000130101FF2326110023248100D7
S2140112F423229100930405001384050013060000BD
S214011304930600001385040093050400EF40006370
S2140113146340050213850400930504008320C1007D
S2140113240324810083244100130101016780000026
S214011334B707008033C487006FF0DFFD130101FA9D
S214011344232E1104232C8104232A91042328210506
S2140113542326310523244105232251052320610533
S214011364232E7103232C8103232A91032328A1030B
S2140113742326B1031304050093840500130906000C
S214011384138D06002328E100232AF100232C0101F2
S214011394232E1101834D010613050040EF50D0188A
S2140113A42320A10013050040EF5010182322A100AA
S2140113B413050040EF5050172324A10013050040E5
S2140113C4EF5090162326A10013050040EF50D015C8
S2140113D4930C050013054000EF501015930B050000
S2140113E42320A40213054000EF501014130B05002C
S2140113F42322A40213058000EF501013930A05005C
S2140114042324A40213058000EF501012130A0500CA
S2140114142326A40213054000EF501011130C0500F7
S2140114242328A40213054000EF5010109309050069
S2140114342320A404232A040293071000232CF40473
S214011444232E0402930700012322F40493070002C7
S2140114542324F40413050002EF50100D1307F013B0
S2140114649307000063589700938704ECB337F7009B
S21401147493871700232AA40403274106232EE40492
S2140114842328F404930710002320FC0023A09B00C8
S21401149423202B01130700009307000023A0EA0072
S2140114A423A2FA002320EA002322FA009307400627
S2140114B423A0F90093071006638EFD189308A00075
S2140114C41308D9FF938734001307A000930620005E
S2140114D41306100093850189EF20907713054003C6
S2140114E4EF509004930405002320A4002322A503AF
S2140114F493090002232A3501130900012328250133
S2140115042324950313054003EF501002130A050024
S2140115142322A400832701012322F502232A35016D
S21401152423282501832701002324F50213054003FC
S214011534EF50807F930A05002324A40083274101EA
S2140115442322F502232A3501232825018327410076
S2140115542324F50213054003EF50007D130B050009
S2140115642326A400832781012322F502232A350199
S21401157423282501832781002324F502130540032C
S214011584EF50807A2328A4008327C1012322F50281
S214011594232A3501232825018327C1002324F502A4
S2140115A48325040223A0B4000326440223A2C40014
S2140115B48326840223AED4000327C40223A0E402B4
S2140115C48327040323ACF4002320BA002322CA0091
S2140115D4232EDA002320EA02232CFA0023A0BA00E1
S2140115E423A2CA0023AEDA0023A0EA0223ACFA003F
S2140115F42320BB002322CB00232EDB002320EB0277
S214011604232CFB002320B5002322C500232ED5005E
S2140116142320E502232CF5008320C105032481053C
S21401162483244105032901058329C104032A81046E
S214011634832A4104032B0104832BC103032C810356
S214011644832C4103032D0103832DC10213010106DB
S214011654678000009308A0001308D9FF938734001D
S2140116641307A000930620001306100093854189F2
S214011674EF20105E6FF09FE6130101FF2326110091
S2140116842324810013040500630005048327040250
S21401169483A50700032544043385A5008327440254
S2140116A483A6070083278404B386F60083A7818C68
S2140116B463980702232E04028320C10003248100B9
S2140116C41301010167800000370505001305C5EB0A
S2140116D4EF60C03C6FF09FFB83A70701E38C07FC18
S2140116E403A74700E3CAE6FE03A6C700E346D6FE01
S2140116F403A68700E342B6FE03A60700E34EC5FC35
S21401170493071000232EF4028327C4021306000055
S2140117149306000023A0C70023A2D7008327440210
S214011724832684043307D74023A0E7006FF0DFF84D
S214011734930705000327050303250700630205062F
S21401174403A7050303250700630C050403A7070283
S2140117548326070003A705020326070003A74504FB
S2140117643307E6001305000063DCE60203A747041B
S214011774B386E6006356D60203A74702832607000C
S21401178403A745020326070003A785043307E600DB
S21401179463D8E60083A78704B386F6003325D6000C
S2140117A46780000093070500032705030325070048
S2140117B46302050603A7850103250700630C0504D8
S2140117C403A707028326070003A7050003260700CD
S2140117D403A705013307E6001305000063DCE602F0
S2140117E403A74704B386E6006356D60203A7470257
S2140117F48326070003A745000326070003A7450120
S2140118043307E60063D8E60083A78704B386F600A9
S2140118143325D600678000000327050283270700C7
S21401182483A6050003A606009386570063D4C70063
S2140118349386B7FF2320D700032745028327070093
S21401184483A6450003A606009386570063D4C70003
S2140118549386B7FF2320D70067800000130101FF9A
S21401186423261100032785039307700063E0E70628
S21401187493172700370705001307C72FB387E70019
S21401188483A707006780070003250500EFF0CFD67E
S2140118948320C10013010101678000000325450070
S2140118A4EFF08FD56FF0DFFE03258500EFF0CFD480
S2140118B46FF01FFE0325C500EFF00FD46FF05FFD38
S2140118C403250501EFF04FD36FF09FFC37050500A4
S2140118D4130585EDEF60801C6FF09FFB6306050A18
S2140118E4130101FF2326110023248100130405009C
S2140118F4EFF0DFF68327040003A58702EF50804349
S2140119048327440003A58702EF50C042832784003F
S21401191403A58702EF5000428327C40003A587026C
S214011924EF5040418327040103A58702EF5080400E
S2140119340325040263040500EF50C03F0325440257
S21401194463040500EF50003F032584026304050089
S214011954EF50403E0325C40263040500EF50803D6A
S2140119640325040363040500EF50C03C0325040467
S21401197463040500EF50003C8320C100032481006A
S214011984130101016780000067800000130101FF55
S21401199423261100232481002322910023202101E0
S2140119A493040500130400001309800283A7440569
S2140119B483A70700B387870003A50700EFE01FF599
S2140119C413044400E31424FF9305A00003A544056F
S2140119D4EF20504C8320C10003248100832441005E
S2140119E4032901001301010167800000130101FEB0
S2140119F4232E1100232C8100232A91002328210160
S214011A04130405008327450503A7C7016356E002AF
S214011A149304000083A7070013972400B387E70005
S214011A2403A50700EFF04FBD9384140083274405F4
S214011A3403A7C701E3C0E4FE03A747008327040204
S214011A4483A70700938737002320F70083274405DD
S214011A5403A787008327440283A707009387D7FF3A
S214011A642320F700930700001308A000032744056A
S214011A741396270083260700B386C60083A60600AE
S214011A8483A506000325470083260701B386D702EC
S214011A94032705003307D70023A0E5008326440562
S214011AA403A706003307C7000327070003274700D9
S214011AB483A6860083A606002320D70093871700F3
S214011AC4E39607FB8327040403A507009307400650
S214011AD43345F502EF50400DB757080003A6076FCC
S214011AE483A6476FEF400006EF50C00313090500B5
S214011AF46356A006232631012324410123225101E2
S214011B049304000093096000130A1000930A7000FE
S214011B146F00C00093841400630C990203274403E6
S214011B24E30A37FF832784039387A7FFE374FAFE48
S214011B34E30257FF8327440583A70700139724006E
S214011B44B387E70003A50700EFE05FDC6FF09FFCB7
S214011B548329C100032A8100832A410093050900D1
S214011B6403254405EF2010338320C101032481019A
S214011B748324410103290101130101026780000046
S214011B84130101FF232611002324810013040500F9
S214011B9463840502032784039307700063E6E70260
S214011BA493172700370705001307C731B387E700E4
S214011BB483A7070067800700EFF05FE36FF09FFDE0
S214011BC403250400EFF04FA3032744039307700093
S214011BD463EAE70493172700370705001307C7339B
S214011BE4B387E70083A7070067800700032544003F
S214011BF4EFF08FA06FF05FFD03258400EFF0CF9F19
S214011C046FF09FFC0325C400EFF00F9F6FF0DFFB1E
S214011C1403250401EFF04F9E6FF01FFB032504001C
S214011C24EFE0DFCE8320C10003248100130101010C
S214011C346780000003254400EFE05FCD6FF09FFE50
S214011C4403258400EFE09FCC6FF0DFFD0325C4007D
S214011C54EFE0DFCB6FF01FFD03250401EFE01FCBA0
S214011C646FF05FFC130101FF23261100232481007A
S214011C742322210123203101930710006388F504F0
S214011C8403248502032904008329440003A6018250
S214011C9483A641821305090093850900EF30105A83
S214011CA46358050A03A7018283A741822320E4001F
S214011CB42322F4008320C100032481000329410068
S214011CC483290100130101016780000003248502B2
S214011CD4032904008329440003A6818083A6C180C6
S214011CE41305090093850900EF305045635CA00095
S214011CF403A7818083A7C1802320E4002322F40064
S214011D046FF05FFB03A6018183A6418113050900D9
S214011D1493850900EF309052635C050003A70181A7
S214011D2483A741812320E4002322F4006FF09FF867
S214011D3403A6818183A6C181130509009385090041
S214011D44EF20903A2320A4002322B4006FF09FF6DC
S214011D5403A6818283A6C18213050900938509001F
S214011D64EF30D03D635CA00003A7818283A7C182C4
S214011D742320E4002322F4006FF0DFF303A681811D
S214011D8483A6C1811305090093850900EF40004924
S214011D942320A4002322B4006FF0DFF1130101FE17
S214011DA4232E1100232C8100232A910023282101AC
S214011DB4130405006302052023263101232441016F
S214011DC42322510193840500130906008327450342
S214011DD4232CF502B757080083A5070113850400D1
S214011DE4EF6080366306050083A7C1896390070602
S214011DF423AE018893091000232A340393050000B7
S214011E0413050400EFF01FE6032A0402832A840262
S214011E1403250A00EF40505903A60A0083A64A0088
S214011E24EF20902CEF4010502320AA008327840231
S214011E3403A5070083A54700EF40D04E832709007A
S214011E44B387A7002320F900232C3405B7570800CD
S214011E5483A5470113850400EF60002F6306050080
S214011E6483A7018A6390070623A0018A93092000A9
S214011E74232A34039305100013050400EFF09FDEB4
S214011E84032A0402832A840203250A00EF40D05160
S214011E9403A60A0083A64A00EF201025EF409048C7
S214011EA42320AA008327840203A5070083A54700ED
S214011EB4EF40504783270900B387A7002320F90082
S214011EC4232C3405B757080083A58701138504001E
S214011ED4EF608027631805000327C40493071000E6
S214011EE463D4E70EB757080083A5C701138504001A
S214011EF4EF60802563100502832784021306000021
S214011F049306000023A0C70023A2D70013071000DE
S214011F1423AEE188B757080083A50702138504009A
S214011F24EF608022631C050E8327840213060000DB
S214011F349306000023A0C70023A2D70013071000AE
S214011F4423A0E18A8329C100032A8100832A410050
S214011F548327840203A5070083A54700EF40903C2E
S214011F64631E05008324C40203A5040083A544005C
S214011F74EF40503B631C050A232A04028324C4024F
S214011F8403A5040083A54400EF40D0396310050A75
S214011F948327C403639E070A832784051307200047
S214011FA4638EE70C13071000639EE70C930760002B
S214011FB4232AF4026F00000D370505001305C5EB4F
S214011FC4EF50D02D6FF0DFF8832784051307200028
S214011FD4638AE70213071000638CE7028327C402AF
S214011FE403A6018283A6418223A0C70023A2D700A9
S214011FF4232E04028327C404938717002326F4049C
S2140120046FF05FEE93077000232AF4026FF01FFD52
S21401201493076000232AF4026FF05FFC8329C10052
S214012024032A8100832A41006FF09FF28327C403A9
S214012034130710006382E702032784059306200032
S2140120446308D702930610006304D70C638C070257
S214012054232604046F0040071307000093070000BB
S21401206423A0E40023A2F400232A04026FF05FF203
S21401207413077000232AE402E39C07FC930770000D
S214012084232AF4028324C40203A6018383A641837C
S21401209403A5040083A54400EF20100523A0A40093
S2140120A423A2B400832444020329C40203A5040022
S2140120B4EF40902F0326090083264900EF20D00223
S2140120C4EF40502623A0A4008327040203A7070099
S2140120D49306F0139307000063DAE600130707EC90
S2140120E49307F013B3B7E700938717002328F40484
S2140120F413050400EFF04FD88320C10103248101A6
S21401210483244101032901011301010267800000B0
S21401211413076000232AE402E38A07E86FF05FF3FB
S2140121249307100023AEF18823A0F18A678000008C
S21401213437731600130303B0B7180D009388088885
S214012144376808001308088837C51100130505D831
S214012154130E0000B78E0300938E0E40130705B0CE
S214012164130608009386080093070300938507D88F
S2140121742320B70023A0F600938507282320B60062
S21401218413074700938727009386460013064600E5
S214012194E31EA7FC1303037893880850130808501A
S2140121A4130E0E3C13050550E31ADEFB6780000090
S2140121B4B7C81100938808889305002813080000FF
S2140121C437E30100931718009386080003A7418D8F
S2140121D43307F70003A60600035707002310E6009B
S2140121E49387270093864600E392B7FE93880850A8
S2140121F41308082093850540E31668FC67800000F1
S214012204B7180D0093880888930500281308000062
S21401221437E30100931718009386080003A7418D3E
S2140122243307F70003A60600035707002310E6004A
S2140122349387270093864600E392B7FE9388085057
S2140122441308082093850540E31668FC67800000A0
S214012254B7680800938808889305002813080000C7
S21401226437E30100931718009386080003A7418DEE
S2140122743307F70003A60600035707002310E600FA
S2140122849387270093864600E392B7FE9388085007
S2140122941308082093850540E31668FC6780000050
S2140122A493959500B385A50093951500B7D7260099
S2140122B493870708B387F5002390C700B7771D00F7
S2140122C493870708B385F5002390C500678000004F
S2140122D4130101FE232E1100232C8100232A9100D1
S2140122E423282101232631012324410123225101DC
S2140122F437CA1100130A0A88B7BA0400B30A5A0186
S214012304130900009309001493040A00130400003F
S21401231483A7040003960700930509001305040028
S214012324EFF01FF81304140093844400E31234FFFF
S21401233413091900130A0A50E3185AFD8320C10130
S2140123440324810183244101032901018329C10056
S214012354032A8100832A41001301010267800000D9
S214012364130101FE232E1100232C8100232A910040
S214012374232821012326310123244101232251014B
S214012384371A0D00130A0A88B7BA0400B30A5A01A9
S214012394130900009309001493040A0013040000AF
S2140123A483A7040003960700930509001305040098
S2140123B4EFF01FEF1304140093844400E31234FF78
S2140123C413091900130A0A50E3185AFD8320C101A0
S2140123D40324810183244101032901018329C100C6
S2140123E4032A8100832A4100130101026780000049
S2140123F4130101FE232E1100232C8100232A9100B0
S21401240423282101232631012324410123225101BA
S214012414376A0800130A0A88B7BA0400B30A5A01CD
S214012424130900009309001493040A00130400001E
S21401243483A7040003960700930509001305040007
S214012444EFF01FE61304140093844400E31234FFF0
S21401245413091900130A0A50E3185AFD8320C1010F
S2140124640324810183244101032901018329C10035
S214012474032A8100832A41001301010267800000B8
S214012484130101FE232E1100232C8100232A91001F
S2140124942328210123263101930400001309000F88
S2140124A493090014130400001306000093050400A6
S2140124B413850400EFF0DFDE13041400E31624FF93
S2140124C493841400E39034FF8320C1010324810123
S2140124D483244101032901018329C1001301010257
S2140124E467800000B73720FF1307100023A0E70218
S2140124F4B73720FF9387C70283A7070093F7170010
S214012504638C0700373720FF1307C70283270700AA
S21401251493F71700E39C07FE67800000130101FF91
S21401252423261100232481002322910003A7418A34
S214012534B7D72600938707082322F700EFF09FFA00
S21401254483A7418A83A7070023AAF18CEFF05FF3E0
S21401255403A7418AB7771D00938707082322F7004C
S2140125648327470023AAF18CEFF09FF18320C10053
S21401257403248100832441001301010167800000C4
S214012584130101FF2326110037050500130585EE07
S214012594EF50C05037050500130545F0EF500050C5
S2140125A403A3818A83C6118E03C6018EB7880000F1
S2140125B49305000F130EA0056F0080019306060015
S2140125C413F6F70F23AEF18C23ACE18C638AB600C5
S2140125D48327030033F71701E30607FE6FF01FFE98
S2140125E4E318C6FF2380018EA380018E2381018E0A
S2140125F4370505001305C5F1EF50404A8320C10095
S2140126041301010167800000130101FF2326110055
S2140126149300000003AE818A83C6018E03C6118E21
S214012624930F000093020000930300003783000019
S2140126349305100013056001930EE001130F000FBC
S2140126446F0080006308E60783270E0033F76700F0
S214012654630E0700930006001386060093F6F70F31
S214012664938F0500938205009383050023AEF18CB6
S21401267423ACE18CE388A6FCE398D6FDE316E6FDDD
S21401268463860F001307E0012380E18E6384020052
S2140126942381118E63860300130700FFA380E18E56
S2140126A437050500130505F4EF50403F13051000E8
S2140126B46F00400363860F00130760012380E18ED9
S2140126C4638402002381118E63860300130700FFCF
S2140126D4A380E18E370505001305C5F2EF50003CD3
S2140126E4130500002380018EA380018E2381018EB1
S2140126F48320C1001301010167800000130101FF5B
S214012704232611009300000003AE818A83C6018E3E
S21401271403C6118E930F000093020000930300007A
S214012724378300009305100013056001930EE00142
S214012734130F000F6F0080006308E60783270E005F
S21401274433F76700630E070093000600138606003E
S21401275493F6F70F938F0500938205009383050084
S21401276423AEF18C23ACE18CE388A6FCE398D6FD7A
S214012774E316E6FD63860F001307E0012380E18E6E
S214012784638402002381118E63860300130700FF0E
S214012794A380E18E37050500130505F4EF500030DC
S2140127A4130510006F00400363860F0013076001D2
S2140127B42380E18E638402002381118E63860300E5
S2140127C4130700FFA380E18E37050500130545F5C1
S2140127D4EF50C02C130500002380018EA380018EC8
S2140127E42381018E8320C10013010101678000004B
S2140127F483A7818A83A7070023AEF18C378700005D
S21401280433F7E70023ACE18C13050000630C0702E1
S21401281403C7118E2381E18E83C6018EA380D18ED8
S21401282493F7F70F2380F18E1306000E630EC7008D
S2140128349307E001130500006316F7009307000FE2
S2140128446384F60C67800000130750076384E6066A
S2140128546362D7029307B0066384F60693074007BC
S2140128646398F600B757080003A547016780000080
S214012874678000001307000F639AE60213075007E8
S2140128846386E704130720076388E7041307B00683
S2140128946386E7061307400713050000E394E7FA87
S2140128A4B757080003A50702678000001305000058
S2140128B467800000B757080003A5870167800000FA
S2140128C4B757080003A5070167800000B75708003B
S2140128D403A5470267800000130101FF23261100A8
S2140128E437050500130505F7EF50401B13050000D7
S2140128F48320C1001301010167800000B757080057
S21401290403A5C70167800000B757080003A587021F
S2140129146780000083A7818A83A7070023AEF18C12
S2140129243787000033F7E70023ACE18C130500007A
S2140129346304070E83C6118E2381D18E03C7018ECD
S214012944A380E18E93F7F70F2380F18E1306000E12
S2140129546380C6029307900213050000639EF60A7D
S2140129646302F70A9307000F6304F70A67800000FF
S21401297493064007630CD70663FAE60293065007EC
S214012984630AD7049306000F6312D704130750078C
S2140129946384E7061307200713050000639EE70612
S2140129A4B757080003A50704678000009307B0061D
S2140129B46308F702930720076318F700B757080060
S2140129C403A5C703678000006780000013050000A5
S2140129D467800000B757080003A547036780000017
S2140129E4B757080003A5070367800000B757080018
S2140129F403A5C70267800000B757080003A587032D
S214012A0467800000B757080003A5470467800000E5
S214012A14B757080003A5870467800000130101FF68
S214012A24232611002324810023229100232021013F
S214012A341309050093840500EF40C00E1304050036
S214012A44EF4080161306090093860400EF20107FDA
S214012A54132505003305A4008320C1000324810047
S214012A64832441000329010013010101678000004A
S214012A7403A7418E930610062300D70083A7418E31
S214012A8423A2070023A4070023860700678000000B
S214012A9493060500938715009385450013083000B7
S214012AA41306800033E50703131725003387E60072
S214012AB403270700032747036316C70093871700F6
S214012AC4E392B7FE67800000130590066780000056
S214012AD4130101F723261108232481082381018E7B
S214012AE4A380018E2380018E83A7418E03C707002E
S214012AF4930710066308F70803A5C194EFD01FE1F6
S214012B0403A58193EFD09FE003A54192EFD01FE088
S214012B143705050013058519EF40507883A7418EC4
S214012B2403A6870083C50700370505001305C509F5
S214012B34EF409064EFF05FAD2326A100630E056EAF
S214012B4403A4418E83258400373530001305C50E52
S214012B54EFF01FF42324A400930710062300F400C7
S214012B64EFF09FF693050500370505001305C51715
S214012B74EF4090608320C1080324810813010109F2
S214012B846780000003A5C194EFD05FD803A58193A5
S214012B94EFD0DFD703A54192EFD05FD73705050005
S214012BA41305C508EF40906F83A7418E03A647001F
S214012BB483C50700370505001305C509EF40D05B3B
S214012BC4EFF09FA42326A100631405602322910835
S214012BD423202109232E3107232C4107232A5107B9
S214012BE423286107232671072324810723229107BB
S214012BF42320A107232EB10503A50194EFD01FD1ED
S214012C0403A5C192EFD09FD003A58191EFD01FD029
S214012C14370505001305450DEF40506837040500D8
S214012C243735300093040508930800001308E00DB7
S214012C349307A00C130790019306E00013062000E7
S214012C449305C43513050508EF109000930800009A
S214012C541308E00D9307A020130790019306E000E4
S214012C64130620009305C43513850402EF10407E35
S214012C74930800001308E00D9307A034130790018E
S214012C849306E000130620009305C4351385040457
S214012C94EF10007C370505001305850FEF40106023
S214012CA4232A01023734300013040408930CC406A3
S214012CB403A8418483A701842328F100232A010160
S214012CC483A6818303A7C183232CD100232EE1008D
S214012CD403A781832324E10283A7C1832326F10268
S214012CE403A8C18483A781842320F102232201033C
S214012CF46F00803583A7418E83A7470093972700EB
S214012D04B307F4008325090003A50706EFE05FA2D5
S214012D14630605002326AA01130C0D0093844400C0
S214012D24130A4A0013094900638C940383A7418E4E
S214012D3483A7470093972700B307F40003A5070664
S214012D4483A50400E308B5FAEFE09F9EE30405FAC1
S214012D54930710002320FA00130C10006FF09FF95C
S214012D6463160C0E83A7418E83A74700939727000B
S214012D74B307F4009305000003A50706EFE05FE040
S214012D8483A7418E83A7470093972700B307F400D0
S214012D9483A7070603A7070523A8E18C8327410316
S214012DA4032AC10063C6071E03254103EF30D05F23
S214012DB40326010183264101EF20803F9304050089
S214012DC413890500032681018326C101EF201037EC
S214012DD46356A000832481020329C102032601024B
S214012DE4832641021385040093050900EF209055BC
S214012DF4EF305053130905008324C4016342951A26
S214012E0463C0A41E9305090013050400EF1090087F
S214012E1463080A0083274103B307F040232AF1021B
S214012E2483A7018D6394072083A7C18C6388072039
S214012E34130710006386E71E130720006390E7203C
S214012E44EFF00FC1EFF0CFC86F00401F138C0A00DC
S214012E54930B0B00138A090013095000130D20006D
S214012E646F004006930D0C0003254C01832745058E
S214012E7403A7C7016358E0029304000083A7070071
S214012E8413972400B387E70003A50700EFD0DFF606
S214012E949384140003A54D018327450503A7C701A1
S214012EA4E3CEE4FCEFE09F9B6F00800283274A0198
S214012EB4639E07021309F9FF130ACAFF938BCBFF1C
S214012EC4130CCCFFE3442DFF83274A01E39C07F848
S214012ED41309F9FF9307F0FF630EF904130ACAFFF7
S214012EE4938BCBFF130CCCFF6FF0DFFD938D0B00A0
S214012EF403A58B008327450503A7C7016358E00292
S214012F049304000083A7070013972400B387E70000
S214012F1403A50700EFD05FEE9384140003A58D008C
S214012F248327450503A7C701E3CEE4FCEFE01F931F
S214012F346FF05FF883A7418E83A747009397270016
S214012F44B307F4009305000003A50706EFE05FC38B
S214012F549304000013092000130A60006F00500E4A
S214012F6483A70900639E070093841400E38844E35F
S214012F74938A4A00130B4B00938949006F00500C47
S214012F849305000003254BFFEFE09FBF6FF0DFFDC5
S214012F94B307F040232AF102130A10006FF0DFE0B2
S214012FA49399240083270400B387370103A50700F8
S214012FB4EFD09FE483270402B387370103A50700F4
S214012FC4EFD09FE383270404B387370103A50700E3
S214012FD4EFD09FE29384F4FFE3D424FD6FF09FE2E5
S214012FE49399240083270400B387370103A50700B8
S214012FF4EFD0DF9183270402B387370103A50700C7
S214013004EFD0DF9083270404B387370103A50700B5
S214013014EFD0DF8F93841400E31499FC6FF09FDEE6
S214013024EFF00F9EEFF0CFAA6F00400113071000D8
S2140130346382E70A130720006382E70C03A7018D66
S21401304423A6E18CEFF00FCA03254103EF30D035F8
S214013054EFE04FA903A6018483A64184EF20101E46
S2140130646352050CEFF0CFF893050500B757080037
S2140130749387070183A787016386A70A83A7418EDF
S21401308483A7470093972700B307F4001306410369
S21401309403A50706EFE09FD0232C0102232E01028D
S2140130A423200104232201042324010423260104EA
S2140130B4930A040693098103130BC40613090B0030
S2140130C4138A090093840A00130C0000130D1000E0
S2140130D46FF0DFC583A7C18C638C0700130720003C
S2140130E4E39EE7F4EFF0CF96EFF08FA76FF01FF5AE
S2140130F4EFF00F8CEFF0CFA66FF05FF483A7C18CCF
S214013104638C070013071000E39AE7F2EFF04F8F82
S214013114EFF00FAE6FF09FF2EFF08F89EFF04FAD47
S2140131246FF0DFF137353000130405088325C40139
S2140131349385F5FF13050508EF1040568325C40152
S2140131449385F5FF13050402EF1040558325C4014A
S2140131549385F5FF13050404EF104054EFE05FFC7C
S2140131642380018EA380018E2381018E83A7418E45
S21401317403A6470083C50700370505001305C511D7
S214013184EF40807F03A54194EFD04FF803A5019348
S214013194EFD0CFF703A5C191EFD04FF7EFF00FD6DD
S2140131A46304050683244108032901088329C1070A
S2140131B4032A8107832A4107032B0107832BC106B0
S2140131C4032C8106832C4106032D0106832DC1059C
S2140131D403A4418E83254400373530001305050EBC
S2140131E4EFF01F8B2322A400930720062300F4008C
S2140131F4EFF09F8D93050500370505001305C517E8
S214013204EF4080776FF01F9703A5C193EFD00FF0BF
S21401321403A58192EFD08FEF03A54191EFD00FEF75
S214013224370505001305C515EF405007EFF08FEE7F
S214013234EF40D0066FF09FFF232291082320210937
S214013244232E3107232C4107232A510723286107FC
S2140132542326710723248107232291072320A1070C
S214013264232EB10503A50194EFD04FEA03A5C1921D
S214013274EFD0CFE903A58191EFD04FE9232A0102CC
S2140132843734300013040408930CC40603A841849D
S21401329483A701842328F100232A010183A68183BD
S2140132A403A7C183232CD100232EE10003A7818326
S2140132B42324E10283A7C1832326F10203A8C18440
S2140132C483A781842320F102232201036F0000399E
S2140132D493844400130A4A0013094900638094073F
S2140132E483A7418E83A7870093972700B307F4002B
S2140132F483A5040003A5C706EFE08FC36306050094
S2140133042320AA01130C0D0083A7418E83A78700EF
S21401331493972700B307F40003A5C706832509007E
S214013324E308B5FAEFE0CFC0E30405FA930710000B
S2140133342326FA00130C10006FF09FF963160C0E87
S21401334483A7418E83A7870093972700B307F400CA
S2140133549305000003A5C706EFE09F8283A7418E6D
S21401336483A7870093972700B307F40083A7C706AC
S21401337403A7070523A8E18C83274103832AC100F9
S21401338463C6071E03254103EF301002032601011D
S21401339483264101EF10D0619304050013890500CB
S2140133A4032681018326C101EF2040596356A000FC
S2140133B4832481020329C1020326010283264102D2
S2140133C41385040093050900EF20C077EF3080755C
S2140133D4130905008324C40163C2A41A634E951E0F
S2140133E49305090013050400EF10C02A63880A0038
S2140133F483274103B307F040232AF10283A7018DF3
S2140134046390072483A7C18C6384072413071000E1
S2140134146382E72213072000639CE722EFE05FE361
S214013424EFE01FEB6F00C022138C0A00930B0B0016
S214013434138A090013095000130D20006F0040067B
S214013444930D0C0003254C018327450503A7C701EB
S2140134546358E0029304000083A70700139724002F
S214013464B387E70003A50700EFD01F9993841400E0
S21401347403A54D018327450503A7C701E3CEE4FC55
S214013484EFE0CFBD6F00800283274A01639E0702E7
S2140134941309F9FF130ACAFF938BCBFF130CCCFF56
S2140134A4E3442DFF83274A01E39C07F81309F9FF38
S2140134B49307F0FF630EF904130ACAFF938BCBFF3D
S2140134C4130CCCFF6FF0DFFD938D0B0003A58B006F
S2140134D48327450503A7C7016358E0029304000048
S2140134E483A7070013972400B387E70003A5070003
S2140134F4EFD09F909384140003A58D008327450580
S21401350403A7C701E3CEE4FCEFE04FB56FF05FF825
S21401351483A7418E83A7870093972700B307F400F8
S2140135249305000003A5C706EFE08FE593040000AA
S21401353413092000130A60006F00403383A70900B3
S214013544639E070093841400E38844E3938A4A0045
S214013554130B4B00938949006F004031930500001B
S21401356403254BFFEFE0CFE16FF0DFFDB307F0403B
S214013574232AF102930A10006FF0DFE093992400E6
S214013584130B10006F00000283270400B387370172
S21401359403A50700EFD08FB79384140093894900DD
S2140135A4E30099E483A7018DE38007FE638C67013A
S2140135B483270404B387370103A50700EFD00FB5AB
S2140135C46FF09FFD83270402B387370103A5070025
S2140135D4EFD0CFB36FF05FFC93992400130B100068
S2140135E46F00000283270400B387370103A5070091
S2140135F4EFD09F809384F4FF9389C9FFE3C224DF4D
S21401360483A7018DE38007FE638C67018327040487
S214013614B387370103A50700EFD00FFE6FF09FFDB8
S21401362483270402B387370103A50700EFD0CFFC35
S2140136346FF05FFCEFE0DFBCEFE09FC96F00400175
S214013644130710006382E70A130720006382E70C5E
S21401365403A7018D23A6E18CEFE0DFE803254103F0
S214013664EF308054EFD01FC803A6018483A641849B
S214013674EF20C03C6352050CEFF08F9793050500CD
S214013684B75708009387070183A787016386A70AAC
S21401369483A7418E83A7870093972700B307F40077
S2140136A41306410303A5C706EFE04FEF232C0102DF
S2140136B4232E0102232001042322010423240104CE
S2140136C423260104930A040693098103130BC406F3
S2140136D413090B00138A090093840A00130C0000D3
S2140136E4130D10006FF0DFBF83A7C18C638C070036
S2140136F413072000E39EE7F4EFE09FB5EFE05FC613
S2140137046FF01FF5EFE0DFAAEFE09FC56FF05FF4FF
S21401371483A7C18C638C070013071000E39AE7F2B2
S214013724EFE01FAEEFE0DFCC6FF09FF2EFE05FA8B3
S214013734EFE01FCC6FF0DFF13735300013040508D6
S2140137448325C4019385F5FF13050508EF0010755D
S2140137548325C4019385F5FF13050402EF00107455
S2140137648325C4019385F5FF13050404EF00107344
S214013774EFE01F9B2380018EA380018E2381018E9F
S21401378483A7418E03A6870083C507003705050076
S2140137941305C511EF40401E03A54194EFD00F97C2
S2140137A403A50193EFD08F9603A5C191EFD00F9691
S2140137B4EFE0DFF4630A05028324410803290108C4
S2140137C48329C107032A8107832A4107032B01079B
S2140137D4832BC106032C8106832C4106032D010687
S2140137E4832DC1056FF0CFB5370505001305C51543
S2140137F4EF40C02A370505001305851AEF40002A55
S21401380483244108032901088329C107032A810760
S214013814832A4107032B0107832BC106032C810648
S214013824832C4106032D0106832DC1056FF04FB18C
S21401383493841400938A4A00130B4B00938949001E
S214013844634099F283A70900E38407FE9305000009
S21401385403A50A00EFE0CFB26FF09FFD9384140036
S214013864938A4A00130B4B0093894900E34899CC89
S21401387483A70900E38407FE9305000003A50A0055
S214013884EFE00FB06FF09FFD130101FC232E110230
S214013894232C8102232A9102232821032326310380
S2140138A4232441032322510323206103232E710180
S2140138B4232C8101232A9101370805001308C835F2
S2140138C4B71405009384C435373430001304040850
S2140138D4130B840723220100130910062320210158
S2140138E4930888031308884393878483138784C3C0
S2140138F4938684031306F0089305400713050B000B
S214013904EFD0DFA3B72605009386C635930A840D48
S214013914930C1000232291012320210193888443D0
S21401392413888683938786C3138786039386864381
S2140139341306F0089305600A13850A00EFD01FA04A
S214013944373705001307C735B74405009384C435D4
S214013954130A8413930720002322F1002320210154
S21401396493088783130887C393078703130787433B
S214013974938684831306F0089305800D13050A00C5
S214013984EFD0DF9BB75B0500938BCB359309841986
S214013994930730002322F100130C20062320810113
S2140139A4938884C3138884039387844313878B8300
S2140139B493868BC31306F0089305C0391385090053
S2140139C4EFD0DF97B76405009384C4351309841FC9
S2140139D4930740002322F1002320810193888B035F
S2140139E413888B4393878483138784C393868403C2
S2140139F41306F0089305A03613050900EFD01F94AB
S214013A04B77605009386C635930B84259307500035
S214013A142322F1002320810193888443138886831B
S214013A24938786C313878603938686431306F00813
S214013A349305803313850B00EFD05F90EFF04F832F
S214013A442320640723225407232444072326340708
S214013A5423282407232A7407EFE09FB283A7418E05
S214013A6423869701373530001305C557EF00100C30
S214013A7403A54195EFD04FB8930680021306800242
S214013A84B745080093854594B734300013858455AB
S214013A94EF00405713858455EF00C078138584558D
S214013AA4EF00D008B78405009384C4351308500189
S214013AB493075001130770029306A0111306100012
S214013AC4938584831385C190EFD0CFE803A5C19075
S214013AD4EFC0DFE303A5C190EFD0CFFA13081002BD
S214013AE4930720031307C0089306B00413061000B7
S214013AF4B7350800938505C613858190EFD08FE509
S214013B0403A58190EFC09FE003A58190EFD08FF7C6
S214013B141308B0019307003C1307D00A930600006C
S214013B2413061000B76507009385051E138541909B
S214013B34EFD04FE203A54190EFC05FDD03A54190AE
S214013B44EFD04FF41308500A930740051307B0004B
S214013B549306C02813061000B7F506009385855909
S214013B6413850190EFD00FDF03A50190EFC01FDA94
S214013B7403A50190EFD00FF11308C00593070007C2
S214013B84130780059306900813061000B7E5050091
S214013B94938585811385818EEFD0CFDB03A5818E36
S214013BA4EFC0DFD603A5818EEFD0CFED13088003D7
S214013BB49307D005130720089306603013061000F8
S214013BC4B7350600938585891385018FEFD08FD885
S214013BD403A5018FEFC09FD303A5018FEFD08FEA12
S214013BE41308A00193072002130790099306A02047
S214013BF4130610009385C4BA1385C18EEFD08FD5F2
S214013C0403A5C18EEFC09FD003A5C18EEFD08FE769
S214013C14130840049307E0101307D0019306D01548
S214013C2413061000B7650600938585621385C18F58
S214013C34EFD04FD203A5C18FEFC05FCD03A5C18FCF
S214013C44EFD04FE4130890059307F0001307F0052F
S214013C549306001513061000B7650600938585BB09
S214013C641385818FEFD00FCF03A5818FEFC01FCAB5
S214013C7403A5818FEFD00FE1130890059307F00099
S214013C841307F0059306902613061000B755060091
S214013C94938585141385418FEFD0CFCB03A5418F30
S214013CA4EFC0DFC603A5418FEFD0CFDD930C842B85
S214013CB493079000130750019306D0021306A01130
S214013CC49385442913850C00EFC0CFFB13850C00A4
S214013CD4EFC09F9A930C842D93077000130700027C
S214013CE4930690091306A0209385044113850C00BE
S214013CF4EFC04FF913850C00EFC01F98930C842F67
S214013D04930740001307C0029306A0091306E004B4
S214013D149385045D13850C00EFC0CFF613850C0064
S214013D24EFC09F95930C84319307300013078013DB
S214013D349306D00A130600009385047313850C00BA
S214013D44EFC04FF413850C00EFC01F939304843324
S214013D54930750001307E0159306D00A130620268E
S214013D64B7D505009385C5A613850400EFC08FF16A
S214013D7413850400EFC05F90B79405009384C4359F
S214013D84930C8435930750001307C0089306200B41
S214013D941306C013938504E813850C00EFC08FEE59
S214013DA413850C00EFC05F8D930C84379307600076
S214013DB41307F0069306200B1306501F9385843FC2
S214013DC413850C00EFC00FEC13850C00EFC0DF8ADF
S214013DD4B7A405009384C435930C84399307A000D3
S214013DE413072004930630041306A0289385C4926F
S214013DF413850C00EFC00FE913850C00EFC0DF87B5
S214013E04930C843B93078000130760019306F00428
S214013E141306C02A938544E513850C00EFC08FE68C
S214013E2413850C00EFC05F85930C843D93078000D7
S214013E3413079001930610061306C02A938544FBC4
S214013E4413850C00EFC00FE413850C00EFC0DF826E
S214013E54930C843F930780001307C0019306300731
S214013E641306B02A9385441413850C00EFC08FE122
S214013E7413850C00EFC05F80930C84419307800088
S214013E8413070002930630081306A02A93854430CC
S214013E9413850C00EFC00FDF13850C00EFC0CFFDB8
S214013EA4930C84439307800013073002930660093A
S214013EB41306A02A9385445013850C00EFC08FDCAB
S214013EC413850C00EFC04FFB930484459307B000A1
S214013ED4130700109306D00113064016B7B5050064
S214013EE4938505A913850400EFC0CFD91385040073
S214013EF4EFC08FF8130484479307D0001307100606
S214013F049306100613064009B7C5050093850509EF
S214013F1413050400EFC00FD713050400EFC0CFF557
S214013F249305100013050B00EFD09FC593051000F1
S214013F3413850A00EFD0DFC49305100013050A00A9
S214013F44EFD01FC49305100013850900EFD05FC39B
S214013F549305100013050900EFD09FC293051000C6
S214013F6413850B00EFD0DFC113050B00EFD01FA2A2
S214013F7413850A00EFD09FA113050A00EFD01FA1F5
S214013F8413850900EFD09FA013050900EFD01FA0E9
S214013F9413850B00EFD09F9F03A58194EFC01F9755
S214013FA403A54193EFC09F9603A50192EFC01F9608
S214013FB483A7418E83C7C700638C070013040C00D4
S214013FC4EFE01FB183A7418E83C7C700E39A07FEBC
S214013FD48320C103032481038324410303290103AA
S214013FE48329C102032A8102832A4102032B010287
S214013FF4832BC101032C8101832C4101130101048C
S21401400467800000130101FA232E1104232C810476
S214014014232A91042328210523244105232251051B
S214014024232A91032326B103930C0500232CB10004
S214014034930D0600138906002328D1009307003C3C
S21401404433E4C70233348000B3C7C7023304F40031
S214014054232085029307000FB3E4D702B3349000FC
S214014064B3C7D702B384F400232E95003305D602D2
S21401407413152500EF20504B23A2AC001305400076
S214014084EF20904A23A4AC0013054000EF20D0494A
S21401409423A6AC0013054000EF20104923A8AC006A
S2140140A423AABC0123AC2C0123200500330594026A
S2140140B413152500EF20504723A0AC00232E010042
S2140140C423260100130A0000930A00006358901285
S2140140D42326310523206105232E7103232C810316
S2140140E42328A1036F00800E13054003EF20D0435D
S2140140F413040500832781012322F5028327010186
S214014104232AF5002328B50183A74C002324F502AE
S21401411413054000EF205041930B05002320A40013
S21401412413054000EF205040130B05002322A40082
S21401413413058000EF20503F93090500232EA400A9
S21401414413058000EF20503E130905002320A40226
S21401415413054000EF20503D232CA40023A0AB01FF
S214014164832741012320FB0023A0490123A25901EF
S2140141742320490123225901232005008327C10056
S214014184B384F402B384840183A70C0093942400BB
S214014194B387970023A08700130C1C0083A40C028A
S2140141A4330DBD01E3429CF48327C1001387170036
S2140141B42326E1008327C10183260101B387D700A3
S2140141C4232EF10083A7CC016350F70283A40C02CB
S2140141D48327C101232AF100130D0000130C0000EC
S2140141E4E34490F06FF05FFC8329C104032B0104C0
S2140141F4832BC103032C8103032D01038320C105F3
S214014204032481058324410503290105032A810426
S214014214832A4104832C4103832DC1021301010621
S21401422467800000130101FF232611002322910059
S21401423423202101930405008327C50113090000E7
S214014244635AF004232481006F008003B387270395
S214014254B387870003A7040093972700B307F700E3
S21401426403A50700EFC08FEA1304140083A7040212
S214014274E34EF4FC1309190083A7C401635AF90039
S21401428483A7040213040000E342F0FC6FF09FFED0
S214014294032481008320C1008324410003290100F3
S2140142A41301010167800000130101FF2326110099
S2140142B42322910023202101930405008327C501AD
S2140142C413090000635AF004232481006F0080035D
S2140142D4B3872703B387870003A7040093972700B0
S2140142E4B307F70003A50700EFC01FB113041400BA
S2140142F483A70402E34EF4FC1309190083A7C4013F
S214014304635AF90083A7040213040000E342F0FC95
S2140143146FF09FFE032481008320C10083244100A3
S214014324032901001301010167800000130101FE46
S214014334232E1100232A910023263101930405001C
S2140143448327C501930900006354F00C232C8100D4
S214014354232821016F00400A1309190003A404024B
S21401436463568908330434033304240113142400E4
S21401437483A70400B387870083A70700E38E07FC9F
S21401438403A50700EF20101B83A70400B38787004B
S21401439483A7070003A54700EF20D01983A70400CD
S2140143A4B387870083A7070003A5C701EF209018EA
S2140143B483A70400B387870083A7070003A5070222
S2140143C4EF20501783A70400B387870083A707004D
S2140143D403A58701EF20101683A70400B38787007F
S2140143E403A50700EF2010156FF01FF79389190036
S2140143F483A7C40163DAF90003A4040213090000C5
S214014404E34280F66FF09FFE032481010329010134
S21401441403A50400EF20101203A54400EF20901119
S21401442403A58400EF20101103A5C400EF2090100B
S21401443403A50401EF2010108320C1018324410148
S2140144448329C10013010102678000006780000010
S214014454130101FB2326110423248104232291043E
S2140144642328610323267103232481032322910332
S2140144742320A103232EB10113040500138D050087
S214014484930B0600938C0600130C0700138B07008E
S214014494930D08009384080013054000EF20D0080C
S2140144A42322A40013054000EF2010082324A400AF
S2140144B413054000EF2050072326A4002328740187
S2140144C4232A9401232C840123200500232E9400FF
S2140144D413152C00EF2050052320A40063568019E1
S2140144E423202105232E3103232C4103232A5103A0
S2140144F4B3879B03939717002326F1001309000043
S214014504130A0000930A0000931429008329040067
S214014514B389990013054003EF20100123A0A900D5
S21401452483270400B387970083A7070023A2A70362
S21401453483270400B387970083A7070023AA97015C
S21401454483270400B387970083A7070023A877016E
S21401455483270400B387970083A907000325C100B6
S214014564EF20807C23A4A90283270400B387970045
S21401457483A9070013054000EF20007B23A0A900B0
S21401458483270400B387970083A907001305400017
S214014594EF20807923A2A90083270400B38797001C
S2140145A483A9070013058000EF20007823AEA90035
S2140145B483270400B387970083A9070013058000A7
S2140145C4EF20807623A0A90283270400B3879700EF
S2140145D483A9070013054000EF20007523ACA9004A
S2140145E483270400B387970083A7070083A70700E0
S2140145F423A0670183270400B387970083A70700D6
S21401460483A7470023A0B70183270400B387970035
S21401461483A7070083A7C70123A0470123A2570145
S21401462483270400B387970083A7070083A707029D
S21401463423A0470123A2570183270400B3879700C9
S21401464483A7070083A7870123A00700130919007E
S214014654330B7B01E31A2CEB032901048329C103E1
S214014664032A8103832A41038320C104032481048A
S21401467483244104032B0103832BC102032C8102EF
S214014684832C4102032D0102832DC101130101056F
S21401469467800000232EB50067800000130101FF28
S2140146A423261100232291009304050063CC0502FE
S2140146B42324810023202101138405001309F0FF1C
S2140146C483A7040013172400B387E70003A5070094
S2140146D4EFC08FF21304F4FFE31424FF03248100D4
S2140146E4032901009305000013850400EFF09FFAE7
S2140146F48320C10083244100130101016780000067
S214014704130101FD2326110223248102232291028F
S21401471423202103232E3101232C4101232A510175
S2140147242328610123267101232481012322910177
S2140147349304050013890500130C0600938C0600E8
S21401474413058001EF20405E1304050023A0A40096
S21401475413054000EF20405D930B05002320A400C1
S21401476413054000EF20405C130B05002322A40030
S21401477413058000EF20405B930A0500232EA40056
S21401478413058000EF20405A130A05002320A402D3
S21401479413054000EF20405993090500232CA4007B
S2140147A49307A0002328F400232AF4002322940369
S2140147B41305800CEF2040572324A4021305800020
S2140147C4EF2080561304050023A8A40013058000D7
S2140147D4EF2080551307F013930700006358270151
S2140147E4930709ECB337F7009387170023AAA400AD
S2140147F423A02B0123208B0113060000930600003F
S21401480423A0CA0023A2DA002320CA002322DA0046
S2140148141307100023A0E90023A4040023A2040024
S2140148242320C4002322D4002320C5002322D5003C
S21401483423A6F4008320C1020324810283244102B7
S214014844032901028329C101032A8101832A410123
S214014854032B0101832BC100032C8100832C41000F
S2140148641301010367800000130101FF23261100D1
S21401487423248100130405008327050003A50700EC
S214014884EF20404B8327040003A54700EF20804A0E
S2140148948327040003A5C701EF20C049832704002A
S2140148A403A50702EF2000498327040003A5870117
S2140148B4EF2040488327040003A58702EF208047A2
S2140148C403250401EF20004703254401EF20804619
S2140148D403250400EF2000468320C1000324810041
S2140148E41301010167800000B7071000130101FEE0
S2140148F4938EF7FF33F8BE00B3F7DE0013D34601F9
S2140149042328210113D9450193973700232C8100CD
S2140149141318380013D4F5011357D5019358D6014B
S2140149241379F97F1373F37F232E1100232A910041
S2140149342326310193D6F601B3E8F800336707015D
S21401494493153500131F3600B30769406304D41E5C
S2140149546352F016630603289306F07F6306D94272
S214014964930680031306100063CEF602B706800092
S214014974B3E8D8009306F00163CEF652930600021C
S214014984B386F6403396D8003355FF00B316DF00DE
S2140149943366A600B336D000B3D8F8003366D60023
S2140149A4330717413386C540B3B5C50093040600E3
S2140149B4B309B7409397890063DA0732B7078000D3
S2140149C49387F7FFB3F9F9006388092C1385090067
S2140149D4EF200029930785FF930600023387F640EC
S2140149E433D7E400B399F90033673701B394F4007D
S2140149F463C8274BB387274193871700B386F640CE
S214014A043396D400B3D9F4003336C0003366360186
S214014A14B316D700B3E4C600B359F7001309000070
S214014A2493F774006380070293F7F40013074000BA
S214014A34638AE7009387440033B69700B389C900B5
S214014A44938407009397890063DA076E9307190026
S214014A541307F07F130E04006386E72A370780FFE7
S214014A641307F7FF33F7E90093F7F77F1318D70116
S214014A7413D63400131797003368C8001357C700BA
S214014A848320C1010324810193974701B3E7E7001B
S214014A941317FE01B3E7E70083244101032901014B
S214014AA48329C10013050800938507001301010239
S214014AB467800000638C0714B30723416312093C23
S214014AC43365B7006304054C1385F7FF630205607D
S214014AD41308F07F638607579307800313061000B5
S214014AE463CCA702930705001306F001634CF65640
S214014AF4130500023305F5403316A70033D8F50035
S214014B043395A500336606013335A0003357F70005
S214014B143366A600B388E8403306CF403337CF0068
S214014B2493040600B389E8401309030013840600BE
S214014B346FF05FE86350F01E63100314B3E6E801F8
S214014B44638C06269386F7FF638006481306F07F78
S214014B54638CC722930780039309100063CCD702A2
S214014B64938706009306F00163C0F64A9306000293
S214014B74B386F640B399D8003356FF00B316DF0068
S214014B84B3E9C900B336D000B3D8F800B3E9D90005
S214014B9433071701B385B900B3B93501938405000A
S214014BA4B389E9009397890063D20714130919009E
S214014BB49307F07F630CF936B70780FF9387F7FFF7
S214014BC413F61400B3F7F90013D714003367C700BC
S214014BD41396F701B364E60093D917006FF05FE408
S214014BE4B3E6E801638A061C9386F7FF63800640F2
S214014BF41306F07F638AC718930780031306100011
S214014C04E3C2D7DA938706006FF0DFD613081900DC
S214014C141378E87F631C08223363B70033E8E8019E
S214014C2463100938630E034663060840B389E541F9
S214014C3433B53501330617413306A64013158600EE
S214014C44635E0550B305BF403387E840333FBF007A
S214014C543307E7411316870093840500635E065203
S214014C64B70780FF9387F7FF3377F700138E0600A5
S214014C74930710006FF09FDF9306F07F6306D91049
S214014C849306800393091000E3C6F6F0B706800086
S214014C94B3E8D8006FF01FED13850400EF10507CC5
S214014CA4930785019306F001E3D8F6D2130785FF2F
S214014CB43397E40063C627233389274193071900F2
S214014CC463D6F648130919FE93060002B354270166
S214014CD4638CD70093060004B387F6403317F700B6
S214014CE43337E000B3E4E4001309000093F77400DB
S214014CF4E39C07D29307090013D6340013870900EF
S214014D046F00000C9307F07F1307000013080000E0
S214014D146FF01FD7638A070CB30723416302091E8A
S214014D249306F07F6308D332930680039309100039
S214014D3463CEF602B70680003367D7009306F00108
S214014D4463C8F63C93060002B386F640B319D7004F
S214014D5433D6F500B396D500B3E9C900B336D0000F
S214014D643357F700B3E9D900B388E8003387E9017C
S214014D74B339370193040700B389190113090300F2
S214014D846FF05FE2631008021316350013563600FF
S214014D941318D7013368C800135737003367070160
S214014DA463060718130E00009307F07F3707080001
S214014DB4130800006FF0DFCC1316350013563600C7
S214014DC41318D7019306F07F3368C80013573700CA
S214014DD4E386D7FC1317C7001357C70093F7F77F6B
S214014DE4130E04006FF0DFC99306190013F8E67F6B
S214014DF463180814B366B700631C09286382063077
S214014E04B3E6E80163880622B387E501B3B5B700C4
S214014E14330717013307B70013D8370093178700F2
S214014E24130E040063DE0734B70780FF9387F7FF8A
S214014E343377F7009317D7011357370033E8070181
S214014E443377D701930710006FF09FC33388E5418A
S214014E54B3B70501B3091741B389F940939789009C
S214014E649304080063C6071033683801E31E08B4C8
S214014E74130E000093070000130700006FF05FC0D5
S214014E841305F07F630EA31A13058003130610009F
S214014E94E344F5C8370680003367C7006FF0DFC404
S214014EA4B70980FF9389F9FF3309F940B3793701CC
S214014EB46FF01FB7938607FE13060002B3D6D80019
S214014EC4638AC70013060004B307F640B397F800D5
S214014ED4336FFF003336E0013366D6006FF09FACC4
S214014EE4B70680FF9386F6FFB307F9403377D700FA
S214014EF41318D70133683801135737006FF09FED45
S214014F04B366B7006386061E9386F7FF638E060AAA
S214014F141305F07F6380A714930780039309100099
S214014F24E3C6D7E4938706006FF05FE1130E04002F
S214014F349307F07F13070000130800006FF05FB4B7
S214014F449307F07FE384F6FE338FE501B335BF00A4
S214014F54B3071701B387B7001396F701135F1F0052
S214014F64B364E60193D91700138906006FF05FABAB
S214014F743306BF40B387E8403337CF0093040600B7
S214014F84B389E740138406006FF01FA41316360096
S214014F941356360013840600138708006FF05FE289
S214014FA4E31203DE6306081C13D738001316360013
S214014FB49398D80133671701135636003367C70031
S214014FC4138406006FF0DFDD338FE501B3081701A4
S214014FD4B335BF00B389B8009397890093040F00D3
S214014FE463D4070E130920006FF01FBD338FE5410C
S214014FF4B3081741B3B5E50193040F00B389B8406C
S214015004130910006FF01F9B938607FE1306000218
S214015014B3D6D800638AC70013060004B307F64064
S214015024B397F800336FFF00B339E001B3E9D90051
S2140150346FF05FB613163500935936006FF05FEBC9
S2140150441316360013563600138406001387080019
S2140150546FF01FD413163600135636001387080054
S2140150646FF01FD3138507FE130600023355A700FE
S214015074638AC70013060004B307F640B317F700A4
S214015084B3E5F5003336B0003366A6006FF0DFA84B
S214015094E38206FC33EFE801E3160FD06FF0DFCEB0
S2140150A4E30808DC131836009397D8011358380020
S2140150B413D738003368F8003377D701138E060008
S2140150C4930700006FF0DF9B930710006FF0DFC2B9
S2140150D4B305BF40B388E8403337BF009384050067
S2140150E4B389E84013840600130910006FF09F8CFF
S2140150F41316360013563600138708006FF05FCC7C
S2140151041316360093593600138708006FF05FDED6
S214015114938607FE13060002B356D700638AC700B8
S21401512413060004B307F640B317F700B3E5F5001A
S214015134B339B000B3E9D9006FF05FC313D63400B6
S21401514493070900138709006FF09FC793060002AF
S214015154B386F640130600006FF05F8B33E8C90090
S214015164E30808D093D93900130706006FF05FD817
S214015174130E00009307F07F370708006FF05F9067
S2140151849317D7011357370033E807013377D7014D
S214015194930700006FF0DF8E1318D70193D53500FF
S2140151A43368B80013573700138406006FF09FC2A4
S2140151B4130101FD232E310193D9450123248102D4
S2140151C42322910223202103232C4101232671014A
S2140151D49394C50023261102232A51012328610131
S2140151E42324810193F9F97F13040500930B060028
S2140151F41389060093D4C40013DAF501638A0918E7
S2140152049307F07F6388F908939434009357D50184
S214015214B3E7970037078000B3EAE700131B3500AE
S214015224938919C093040000130C00009357490195
S2140152341314C90093F7F77F1354C4001359F901E3
S214015244638207081307F07F638AE7181314340090
S21401525413D7DB0133678700938717C037048000B1
S2140152643364870093983B00B389F9401306000022
S2140152741307F000B3462A0163649724B74708006E
S214015284939424009387475CB384F40003A7040033
S21401529467000700B3EAA400639E0A1C93574901FA
S2140152A41314C90093F7F77F130B000093048000CF
S2140152B49309F07F130C20001354C4001359F90109
S2140152C4E39207F8B36874016382081C630A044A0C
S2140152D413050400EF10D01893070500930655FF35
S2140152E41307D001938887FF3307D740331414017B
S2140152F433D7EB0033648700B3981B01B3873701B8
S2140153049389373F130600006FF09FF63307F74083
S21401531413068003635AE64E930700001306000043
S214015324130700008320C1020324810293974701D7
S214015334B3E7C7009396F601B3E7D7008324410287
S214015344032901028329C101032A8101832A410118
S214015354032B0101832BC100032C810013050700D5
S2140153649385070013010103678000009307F07F0C
S21401537413060000130700006FF0DFFA930600001F
S2140153849307F07F37060800130700006FF09FF9B4
S214015394B3EAA400638C0A106388044013850400EE
S2140153A4EF10100C13070500930655FF9307D00161
S2140153B4130B87FFB387D740B3946401B357F40044
S2140153C4B3EA9700331B64019309D0C0B389E9405B
S2140153D493040000130C00006FF05FE5B3687401DA
S2140153E493891980639C080A93E42400130400003B
S2140153F4130620006FF0DFE713090A0013840A007E
S21401540493080B00930720006308FC4E93073000B3
S214015414E306FCF69307100093060900E30EFCEE80
S2140154249387F93F6356F02A13F778006316074A01
S21401543413177400635A0700B70700FF9387F7FF33
S2140154443374F400938709401307E07FE340F7F2CF
S21401545493D838001317D401131694003367170131
S2140154641356C60093F7F77F6FF0DFEB130C0600B5
S2140154746FF05FF9938A0400130B05009304C000D0
S2140154849309F07F130C30006FF05FDA93E4140095
S21401549413040000130610006FF09FDD93E434003C
S2140154A493880B00130630006FF09FDC130B00008B
S2140154B49304400093090000130C10006FF01FD7EB
S2140154C46364542B63808A2A13030B009389F9FFC0
S2140154D493870A00130B0000131784001355070162
S2140154E433D4A70213D688013366E60013180601DF
S2140154F4135808019395880013570301B3F7A702BD
S214015504B308880293970701B367F70063FA170194
S214015514B307F6001307F4FF63F0C72E130407005E
S214015524B3871741B3D8A70213170301135707010B
S214015534B3F7A702B30F1803939707013367F7006E
S214015544637AF7013307E6009387F8FF637EC7287B
S2140155549388070013140401B7020100336414018D
S2140155641383F2FFB3786400935E040113DE05012E
S21401557433F36500330F13033307F741B3081E03F0
S21401558493570F01B38F6E02B388F801B3871701DF
S214015594B38ECE0363F4F701B38E5E00B70F01003A
S2140155A4938FFFFF93D80701B3F7F701939707018A
S2140155B4337FFF01B388D801B387E701636E1717FA
S2140155C4630A1717B307FB4033071741333BFB0046
S2140155D4330767416300E62EB358A70293DE07013B
S2140155E43377A702330F18031317070133E7EE00C7
S2140155F4637EE7013307E600938EF8FF636AC72EDE
S2140156046378E72F9388E8FF3307C7003307E7413A
S214015614B35EA7029397070193D707013377A702CF
S2140156243308D80313170701B3E7E70063FE07013E
S214015634B307F6001387FEFF63E8C72A63F6072B52
S214015644938EEEFFB387C70093980801B3E8D80199
S2140156541395080113DF080113550501B30E6502FE
S214015664B38707413305AE0213D70E0133036F0226
S214015674330565003307A700330EEE036376670030
S21401568437050100330EAE00370801001308F8FF92
S214015694135507013377070113170701B3FE0E01EC
S2140156A43305C5013307D70163F2A712B307F60022
S2140156B41383F8FF1388070063E4C71C63E8A72471
S2140156C46386A7269308030093E818006FF05FD556
S2140156D413071000E39C07C29389E941B397380185
S2140156E4B337F000B3193401B3E73701B3D8E80090
S2140156F4B3E8F80093F778003354E40063800702B4
S21401570493F7F80013074000638AE700938748007D
S214015714B3B8170133041401938807009315840062
S214015724930710001306000013070000E3CC05BE20
S2140157346F004013E378FBE8B30EBB0033BF6E0182
S214015744B30FCF003307F701138B0E00930FF4FF4B
S2140157546374E60863621715638EE81213840F00F8
S2140157646FF05FE6E3621BD713571B001393FA012E
S21401577493D71A003363E300131BFB016FF0DFD5E5
S21401578413850B00EF10C04D930655011307C00196
S21401579493070502E356D7B4130585FF9308000063
S2140157A43394AB006FF09FB5EF10804B9306550111
S2140157B49307C00113070502E3DAD7BE930785FFF3
S2140157C4B31AF400130B00006FF01FC0E39EA7EE9C
S2140157D4E30807C46FF09FEDE312E6F8E30C0FF657
S2140157E413840F006FF01FDEE374F7D79388E8FF86
S2140157F43307C7006FF01FD6E3F217D31304E4FF91
S214015804B387C7006FF0DFD11306F001E356E6EC69
S214015814130610FEB307F64013060002B357F4004E
S2140158246308C7009389E943B3193401B3E838011F
S214015834B3381001B3E8F80013F778001306000034
S2140158446308070293F7F8001307400013040000E7
S214015854638AE70093874800B3B81701333410010D
S21401586493880700131694001317D4011356C60021
S21401587493D8380033E7E800930700006FF09FAA37
S21401588493080300E312A8E4E30CB7B893E81800FE
S2140158946FF01FB9E3F4FEECB38ED50133BFBE003F
S2140158A4330FCF001304E4FF138B0E003307E70115
S2140158B46FF05FD1130720C09387F93F9308F0FF79
S2140158C4E3C8E9E013874800B33817013304140129
S2140158D4930807006FF0DFB513F7F80013064000CE
S2140158E4E308C7B46FF01FFE930E07006FF0DFD511
S2140158F493880E006FF09FD1930609009307F07FFB
S21401590413060000130700006FF0DFA113931500C0
S2140159143338B3003308C800338807019388E8FF97
S21401592493050300E302A8F66FF01FDAE3E0E5FE51
S21401593493080300E31CB7F46FF09FAE93D84501B8
S214015944B70710009387F7FF13D7460193F8F87F3C
S214015954130EF07F33F3B70013080500930E05000A
