S00C00006D61696E2E7372656373
S214010094971106009381C19E1701FF03130141F6D0
S2140100A41385418B17E62D00130606F33306A64087
S2140100B493050000EF60C064176500001305C55E74
S2140100C4EF508034EF60405413050000930541005F
S2140100D413060000EF00800E6F504034370507000A
S2140100E4370707009307C5271307C727630AF700CF
S2140100F493070000638607001305C527678007007A
S21401010467800000370507009307C52737070700F0
S2140101149305C727B385F54093D7254093D5F501B5
S214010124B385F50093D51540638A0500930700004F
S214010134638607001305C5276780070067800000EC
S214010144130101FF2324810083C7C19023261100D4
S21401015463940702EFF09FF893070000638A070091
S21401016437050700130505BB97000000E7000000EC
S214010174930710002386F1908320C1000324810095
S21401018413010101678000009307000063860702DC
S21401019437050700130101FF93850191130505BB7C
S2140101A42326110097000000E70000008320C10009
S2140101B4130101016FF01FF56FF0DFF413010181E4
S2140101C42326117E2324817E2322917E2320217FD0
S2140101D4232E317DB7F2FBFF938202D933015100FE
S2140101E4EF10D059EF10D01AEF10507813054003D2
S2140101F4EF50802523A2A18EB7870300938707FBC0
S2140102042322F50237270400930707A0930601016A
S214010214B387D70023A00700930707A1B387270056
S2140102242320F5001309800C93090700930747A0C0
S214010234B387D70023A02701930747A1B3872700D5
S2140102442322F500930787A0B387D70023A00700CE
S214010254930787A1B3872700232CF5001304800294
S214010264232A85009304001423289500B737FFFF3B
S2140102749387077D130707A33307F700B307D70050
S2140102842326F1002324F50223280502130540033F
S214010294EF50801B23A0A18EB7B702009387077B7C
S2140102A42322F5029387C9A013070101B387E70048
S2140102B423A007009387C9A1B38727002320F5004D
S2140102C4938709A1B387E70023A02701938709A28F
S2140102D4B38727002322F500938749A1B387E70054
S2140102E423A00700938749A2B3872700232CF50090
S2140102F4232A850023289500B777FEFF938707FDF9
S214010304138709A33307F70093070101B307F7001F
S2140103142326F1002324F5022328050213054003AE
S214010324EF50801223AEA18CB7F70100938707FB29
S2140103342322F502938789A113070101B387E700F6
S21401034423A00700938789A2B38727002320F500FB
S2140103549387C9A1B387E70023A027019387C9A27E
S214010364B38727002322F500938709A2B387E70002
S21401037423A00700938709A3B3872700232CF5003E
S214010384232A850023289500B7A7FDFF9387077DB9
S214010394138709A33307F70093070101B307F7008F
S2140103A42326F1002324F50223280502130540031E
S2140103B4EF50800923A6A18E938749A293060101D3
S2140103C4B387D70023A08700938749A3B387270061
S2140103D42320F5009307A000938689A21306010142
S2140103E4B386C60023A0F600938789A3B3872700A4
S2140103F42322F500B74704009387077B2322F502DF
S2140104049387C9A2B387C70023A007009387C9A30C
S214010414B3872700232CF50093078007232AF500CA
S2140104249307000F2328F500B7E7FBFF9387075DC3
S214010434138709A33307F700B307C7002326F10080
S2140104442324F5022328050293068002130680025C
S214010454B71506009385059B37E42E00130544CC97
S214010464EF200076130544CCEF20901703A5C18E28
S214010474EF00804AEF20005E13050000B712040067
S21401048493820227330151008320C17E0324817E97
S2140104948324417E0329017E8329C17D1301017FC3
S2140104A467800000130101FC232E1102232C810214
S2140104B4232A9102232821032326310323244103DB
S2140104C42322510323206103232E7101232C81014E
S2140104D4232A91012328A1012326B101130405002F
S2140104E4938C0500930D0600138D0600130B07006D
S2140104F4938B07003305F70213152500EF40D074DC
S214010504130C050013054000EF401074930A050010
S2140105142322A40013054000EF401073130A0500BC
S2140105242324A40013058000EF40107293090500EC
S2140105342326A40013058000EF401071130905005B
S2140105442328A40013054000EF401070930405000F
S214010554232AA400232C6401232E7401930710007C
S2140105642320F50023A0BA012320AA0113070000C3
S2140105749307000023A0E90023A2F9002320E90041
S2140105842322F90013054003EF40106C2320A40036
S21401059423229503232A7501232865012324850331
S2140105A42320550123224501232E3501232025032B
S2140105B4232C95008320C103032481038324410350
S2140105C4032901038329C102032A8102832A4102E2
S2140105D4032B0102832BC101032C8101832C4101CE
S2140105E4032D0101832DC10013010104678000005E
S2140105F463080508130101FF232611002324810043
S214010604232291009304050013054001EF40D063B3
S21401061413040500630E050483A7440003A707001B
S2140106242320E40003A78400832607002322D400A2
S21401063483A7070083A68401B387D7002324F40085
S2140106448327070003A7C401B387E7002326F40022
S21401065403A7418B2328E40023AA818A8320C100AF
S21401066403248100832441001301010167800000F3
S214010674372506001305052BEF5050346FF0DFF9CC
S21401068467800000130101FF232611002324810043
S2140106941304050003250500EF00002813050400D4
S2140106A4EFF01FF58320C10003248100130101012B
S2140106B467800000130101FF232611002324810013
S2140106C403A4418B63020404232291002320210105
S2140106D49304000037290600938504008327C40089
S2140106E4032784008326440003260400938414000D
S2140106F41305C92CEF50501A03240401E31E04FC0D
S21401070483244100032901008320C10003248100BE
S2140107141301010167800000130101FE232E11005D
S21401072483A7418B638E070A232C8100232A910019
S214010734232821012326310113040500938405008F
S2140107441309060093890600130500006F000002D2
S21401075483A6070123AAD18A6F00000403A7070111
S21401076413850700630607069307070003A7070018
S214010774E31687FE03A74700E31297FE03A7870045
S214010784E31E27FD03A7C700E31A37FDE30205FCB2
S21401079403A707012328E50013850700EF40904BC4
S2140107A413870900930609001386040093050400C1
S2140107B4372506001305C52EEF50100E03248101BC
S2140107C483244101032901018329C1006F0000022A
S2140107D40324810183244101032901018329C100E2
S2140107E43725060013058531EF50501D8320C101BE
S2140107F41301010267800000130101FF2326110083
S214010804232481001304050003250500EF0000617D
S2140108148327440003A507008327840083A50700D4
S2140108248326C40103268401B386D5003306C50096
S214010834EFF09FEE8320C100032481001301010120
S21401084467800000630C0506130101FF23261100CF
S2140108542324810013040500EFF01FFA8327040004
S21401086403A58702EF40103F0325440063040500F7
S214010874EF40503E0325840063040500EF40903D9D
S2140108840325C40063040500EF40D03C032504019E
S21401089463040500EF40103C03254401630405008E
S2140108A4EF40503B13050400EF40D03A8320C100CB
S2140108B403248100130101016780000067800000A2
S2140108C483274501130600009305F0FF634CF002ED
S2140108D467800000B387C702B387E70083268502D3
S2140108E493972700B387F60023A0B70013071700D2
S2140108F483270501E340F7FE130616008327450107
S214010904635AF6008327050113070000E344F0FC4D
S2140109146FF09FFE67800000130101FE232E110075
S214010924232C8100130405008327050083A70700F1
S2140109342324F5008327450083A707002326F50013
S214010944EFF01FF8930710002326F40283274401CF
S214010954635EF04A232A91002328210123263101CC
S2140109642324410123225101130600001303000F1F
S2140109741305003C1308F0FF93021000130EF01346
S214010984378F2500130F8FBAB72E1C00938E8EBA9D
S214010994930420001309F027B71F1500938F8F3A8D
S2140109A46F008043032A8402330AFA008327440033
S2140109B483A90700B309360193974900B3873741E2
S2140109C493976700B387D70093971700B387FF0001
S2140109D4839707002320FA008327440083A6070091
S2140109E4B306D6008329040093974600B387D740FD
S2140109F49397670083A60900B306D700B387D70089
S214010A0493971700B387FF002390B7006F00C000C9
S214010A146382590E638299281307170083270401FA
S214010A246356F73A8326040083A60600B306D70066
S214010A34E364D5FEB387C702B387E700939727001D
S214010A4483254402B385F50083950500E38605FDF9
S214010A5483A9C18BE39E09FAE346DEF403AA018C5B
S214010A648326C400B306D600939696008329840091
S214010A74B3093701B386360193961600B386460149
S214010A8483D906009399090193D9094183268402DF
S214010A94B387F60023A037018327440083A7070002
S214010AA4B307F600939797008326040083A60600EF
S214010AB4B306D700B387D70093971700B387E70128
S214010AC42390B7008327440083A70700B307F600E3
S214010AD4939797008326040083A60600B306D700DF
S214010AE4B387D70093971700B387D7012390B7002E
S214010AF46FF09FF2635EDE0A6346D91203AA018C85
S214010B048326C400B306D60093969600938606EC15
S214010B1483298400B3093701B386360193961600F8
S214010B24B386460183D906009399090193D90941ED
S214010B3483268402B387F60023A037018327440063
S214010B4483A70700B307F60093979700938707ECEC
S214010B548326040083A60600B306D700B387D7000E
S214010B6493971700B7862500938686BAB387D7006E
S214010B742390B7008327440083A70700B307F60032
S214010B8493979700938707EC8326040083A60600B1
S214010B94B306D700B387D70093971700B7261C0070
S214010BA4938686BAB387D7002390B7006FF0DFE643
S214010BB4832A8402B38AFA00B71915009389893AFD
S214010BC48327440003AA0700330A460193174A0001
S214010BD4B387474193976700B387D7009397170066
S214010BE4B387F9008397070023A0FA0083274400FC
S214010BF483A60700B306D600032A0400939746008B
S214010C04B387D7409397670083260A00B306D700B5
S214010C14B387D70093971700B389F9002390B900D7
S214010C246FF09FDF832A8402B38AFA00B71915008E
S214010C349389893A8327440003AA0700330A4601A5
S214010C4493174A00B387474193976700B387D70042
S214010C5493971700B387F9008397070023A0FA0038
S214010C648327440083A60700B306D600032A04009C
S214010C7493974600B387D7409397670083260A0065
S214010C84B306D700B387D70093971700B389F90043
S214010C942390B9006FF05FD86350D90C9309003CD8
S214010CA4E38C36D703AA018C8326C400B306D60088
S214010CB493969600938606D883298400B309370150
S214010CC4B386360193961600B386460183D9060089
S214010CD49399090193D9094183268402B387F600BF
S214010CE423A037018327440083A70700B307F60030
S214010CF493979700938707D88326040083A6060054
S214010D04B306D700B387D70093971700B786250095
S214010D14938686BAB387D7002390B7008327440007
S214010D2483A70700B307F60093979700938707D81E
S214010D348326040083A60600B306D700B387D7002C
S214010D4493971700B7261C00938686BAB387D700F5
S214010D542390B7006FF05FCC832A8402B38AFA002B
S214010D64B71915009389893A8327440003AA070013
S214010D74330A460193174A00B3874741939767009E
S214010D84B387D70093971700B387F90083970700B3
S214010D9423A0FA008327440083A60700B306D600DF
S214010DA4032A040093974600B387D74093976700B6
S214010DB483260A00B306D700B387D7009397170094
S214010DC4B389F9002390B9006FF01FC51306160006
S214010DD4832744016352F6028327440083A707004E
S214010DE4B307F600E364F3FE83270401E350F0FE41
S214010DF4130700006FF01FC3832441010329010177
S214010E048329C100032A8100832A41008320C1016A
S214010E140324810113010102678000000327C50230
S214010E24930710006306F700232605026780000077
S214010E34832745016350F02A130101FF232681000D
S214010E4423249100232221012320310183A5C18B70
S214010E5413060000130F000F1308F0FF130310000E
S214010E64930F20009308F013B78E2500938E8EBA45
S214010E74372E1C00130E8EBA9303F0271304F03B8F
S214010E84B71215009382823A6F0080210329C500A8
S214010E943309260193164900B386264193966600C4
S214010EA4B386960093961600B386D2002390F60076
S214010EB46F00C000638865086384F515130717007F
S214010EC4832705016358F71CB387C702B387E70076
S214010ED48326850293972700B387F60083A7070026
S214010EE4E38E07FDE39805FC83248500B30497008D
S214010EF4E3C604FCE3CC98F88326C500B306D60003
S214010F0493969600B386960093961600B386D601FA
S214010F149397070193D707412390F6008326C500CC
S214010F24B306D6009396960083248500B3049700EF
S214010F34B386960093961600B386C6012390F600F0
S214010F446FF0DFF783248500B304970063DE98040B
S214010F5463C093088326C500B306D600939696000D
S214010F64938606ECB386960093961600B386D6014E
S214010F749397070193D707412390F6008326C5006C
S214010F84B306D60093969600938606EC83248500D2
S214010F94B3049700B386960093961600B386C601EB
S214010FA42390F6006FF09FF10329C500330926014B
S214010FB493164900B386264193966600B386960037
S214010FC493961600B386D2002390F6006FF01FEFB7
S214010FD4371915008329C500B309360193964900CC
S214010FE4B386364193966600B386960093961600AA
S214010FF49304893AB386D4002390F6006FF01FEC6D
S21401100483248500B304970063DE9304E34894EADB
S2140110148326C500B306D60093969600938606D813
S214011024B386960093961600B386D6019397070166
S21401103493D707412390F6008326C500B306D6004E
S21401104493969600938606D883248500B304970066
S214011054B386960093961600B386C6012390F600CF
S2140110646FF0DFE5371915008329C500B30936018A
S21401107493964900B386364193966600B3869600E6
S214011084939616009304893AB386D4002390F60007
S2140110946FF0DFE213061600832745016350F6025C
S2140110A48327C500B307F600E366FFFE8327050121
S2140110B4E352F0FE130700006FF01FE10324C100A2
S2140110C483248100032941008329010013010101BE
S2140110D467800000678000009307050003278501E9
S2140110E4032507006302050603A7850103250700F8
S2140110F4630C050403A707008326070003A705005E
S2140111040326070003A705013307E60013050000BD
S21401111463DCE60203A70701B386E6006356D6023C
S21401112403A747008326070003A7450003260700F5
S21401113403A745013307E60063D8E60083A7470102
S214011144B386F6003325D600678000000327050022
S2140111548327070083A6050003A606009386570087
S21401116463D4C7009386B7FF2320D700032745001F
S2140111748327070083A6450003A606009386570027
S21401118463D4C7009386B7FF2320D7006780000087
S214011194130101FF23261100232481002322910039
S2140111A4930405001384050013060000930600004B
S2140111B41385040093050400EF20506A634005027A
S2140111C413850400930504008320C10003248100D1
S2140111D4832441001301010167800000B7070080E2
S2140111E433C487006FF0DFFD130101FA232E1104C7
S2140111F4232C8104232A910423282105232631053F
S214011204232441052322510523206105232E71033E
S214011214232C8103232A91032328A1032326B10324
S21401122413040500138C0500930D0600138D0600A8
S214011234232AE100232CF100232E01013715000097
S21401124413050580EF4040202324A1003715000034
S21401125413050580EF40401F2326A1003715000023
S21401126413050580EF40401E2328A1003715000012
S21401127413050580EF40401D930C0500130540003F
S214011284EF40801C930A0500232EA400130540009A
S214011294EF40801B130A05002320A40213058000D7
S2140112A4EF40801A930905002322A4021305800047
S2140112B4EF408019130905002324A40213054000F6
S2140112C4EF408018930405002326A402130540006A
S2140112D4EF4080171307F013930700006358870144
S2140112E493070CECB337F70093871700232EA40259
S2140112F423280402232C0402130B00012320640573
S214011304930B0002232274052326F404930710008A
S21401131423A0F40023A08A012320BA0113070000A6
S2140113249307000023A0E90023A2F9002320E90083
S2140113342322F9002320050013054003EF40C010C3
S214011344130C05002320A4002322A503232A7501D8
S214011354232865012324950313054003EF40C00E9B
S214011364930C05002322A400832741012322F502BE
S214011374232A750123286501832781002324F50286
S21401138413054003EF40400C130D05002324A4006D
S214011394832781012322F502232A75012328650167
S2140113A48327C1002324F50213054003EF40C00937
S2140113B42326A4008327C1012322F502232A7501CB
S2140113C423286501832701012324F50223205C01D8
S2140113D423224C01232E3C0123202C03232C9C0086
S2140113E423A05C0123A24C0123AE3C0123A02C03C1
S2140113F423AC9C0023205D0123224D01232E3D01B5
S21401140423202D03232C9D0023205501232245014F
S214011414232E350123202503232C95008320C10583
S2140114240324810583244105032901058329C10475
S214011434032A8104832A4104032B0104832BC10359
S214011444032C8103832C4103032D0103832DC10245
S2140114541301010667800000130101FF2326110012
S2140114642324810013040500630005048327C401B3
S21401147483A50700032504043385A50083270402F6
S21401148483A6070083274404B386F60083A7418B0B
S21401149463980702232C04028320C10003248100DD
S2140114A41301010167800000372506001305853204
S2140114B4EF40D0506FF09FFB83A70701E38C07FC36
S2140114C403A74700E3CAE6FE03A6C700E346D6FE23
S2140114D403A68700E342B6FE03A60700E34EC5FC57
S2140114E493071000232CF4028327840213060000BA
S2140114F49306000023A0C70023A2D7008327040273
S214011504832644043307D74023A0E7006FF0DFF8AF
S214011514930705000327C502032507006302050692
S21401152403A7850103250700630C050403A7C70168
S2140115348326070003A705000326070003A7050162
S2140115443307E6001305000063DCE60203A707047D
S214011554B386E6006356D60203A70702832607006E
S21401156403A745000326070003A745013307E60042
S21401157463D8E60083A74704B386F6003325D6006E
S214011584678000000327C5018327070083A605009B
S21401159403A606009386570063D4C7009386B7FF55
S2140115A42320D700032705028327070083A64500C7
S2140115B403A606009386570063D4C7009386B7FF35
S2140115C42320D70067800000130101FF23261100A2
S2140115D4832745036386070213071000638CE7021B
S2140115E413072000638EE702130760006380E70495
S2140115F43725060013054534EF40503C6F00C00004
S21401160403250500EFF09F818320C100130101012A
S2140116146780000003254500EFF05F806FF0DFFE72
S21401162403258500EFF08FFF6FF01FFE0325C5002D
S214011634EFF0CFFE6FF05FFD6300050A130101FFB3
S214011644232611002324810013040500EFF0DFF79D
S2140116548327040003A58702EF30D05F8327440065
S21401166403A58702EF30105F8327840003A5870252
S214011674EF30505E8327C40003A58702EF30905DE8
S2140116840325C40163040500EF30D05C032504027E
S21401169463040500EF30105C03254402630405006F
S2140116A4EF30505B0325840263040500EF30905A43
S2140116B40325C40263040500EF30D0590325C4038F
S2140116C463040500EF3010598320C1000324810010
S2140116D4130101016780000067800000130101FF08
S2140116E423261100232481001304050083274503C0
S2140116F463860704130710006388E70413072000B2
S214011704638AE70413076000638CE70483270403F2
S214011714638E0704130710006380E706130720008F
S2140117246382E706130760006384E7068320C1002B
S21401173403248100130101016780000003250500CD
S214011744EFF0CFED6FF09FFC03254500EFF00FEDB2
S2140117546FF0DFFB03258500EFF04FEC6FF01FFB06
S2140117640325C500EFF08FEB6FF05FFA0325040045
S214011774EFF08F9A6FF09FFB03254400EFF0CF99AB
S2140117846FF0DFFA03258400EFF00F996FF01FFA6C
S2140117940325C400EFF04F986FF05FF9130101FFC2
S2140117A42326110023248100232221012320310131
S2140117B4930710006388F5040324450203290400F3
S2140117C48329440003A6818183A6C18113050900E8
S2140117D493850900EF209018635C050A03A78181AD
S2140117E483A7C1812320E4002322F4008320C100BF
S2140117F40324810003294100832901001301010107
S2140118046780000003244502032904008329440059
S214011814B707070003A6072883A647281305090068
S21401182493850900EF209003635EA000B7070700C5
S21401183403A7072883A747282320E4002322F400CC
S2140118446FF0DFFA03A6818083A6C1801305090021
S21401185493850900EF2090106342050203A60181D7
S21401186483A641811305090093850900EF10C07909
S2140118742320A4002322B4006FF05FF703A781801E
S21401188483A7C1802320E4002322F4006FF01FF60F
S21401189403A6018283A641821305090093850900E4
S2140118A4EF20C07B635CA00003A7018283A741826B
S2140118B42320E4002322F4006FF05FF303A60181E2
S2140118C483A641811305090093850900EF300007BB
S2140118D42320A4002322B4006FF05FF1130101FE5C
S2140118E4232E1100232C8100232A91002328210171
S2140118F413040500630E0520232631019384050095
S21401190483270503232AF502B707070083A507BC27
S21401191413850400EF4050756306050083A74189CB
S2140119246390070423AA0188930710002328F4026E
S2140119349305000013050400EFF05FE60329C401D4
S2140119448329440203250900EF30101803A6090071
S21401195483A64900EF10406BEF30D00E2320A90078
S214011964B707070083A547BC13850400EF40D06F73
S2140119746306050083A781896390070423AC018865
S214011984930720002328F40293051000130504008E
S214011994EFF0DFE00329C40183294402032509008B
S2140119A4EF30901203A6090083A64900EF10C06524
S2140119B4EF3050092320A900B707070083A587BC89
S2140119C413850400EF40506A631805000327840456
S2140119D49307100063D6E714B707070083A5C7BCAF
S2140119E413850400EF405068631005028327440200
S2140119F4130600009306000023A0C70023A2D70005
S214011A041307100023AAE188B707070083A507BDBB
S214011A1413850400EF405065631C051283274402B6
S214011A24130600009306000023A0C70023A2D700D4
S214011A341307100023ACE1888329C10083274402DD
S214011A4403A5070083A54700EF30C07F631E05008A
S214011A548324840203A5040083A54400EF30807E1A
S214011A64631C050E232804028324840203A50400B0
S214011A7483A54400EF30007D6310050E832784039D
S214011A84639407108324840203A6018383A64183F7
S214011A9403A5040083A54400EF10005723A0A40067
S214011AA423A2B400832404020329840203A50400A8
S214011AB4EF3090010326090083264900EF10C05435
S214011AC4EF30407823A0A4008327C40103A70700AE
S214011AD49306F0139307000063DAE600130707EC96
S214011AE49307F013B3B7E700938717002326F4048C
S214011AF413050400EFF05F968320C10103248101DE
S214011B0483244101032901011301010267800000B6
S214011B143725060013058532EF40406A6FF01FF241
S214011B24930760002328F4028327840203A6818294
S214011B3483A6C18223A0C70023A2D700232C0402B4
S214011B4483278404938717002324F4046FF0DFE8C3
S214011B548329C1006FF09FEE0327840393071000C7
S214011B646308F700930760002328F4026FF01FF15F
S214011B74130700009307000023A0E40023A2F40047
S214011B84232804026FF09FEF232404046FF0DFF38D
S214011B943713150013038362B7B80B009388883A8A
S214011BA4370807001308883A377510001305858A25
S214011BB4130E0000B78E0300938E0E40130705B074
S214011BC4130608009386080093070300938507D835
S214011BD42320B70023A0F600938507282320B60008
S214011BE4130747009387270093864600130646008B
S214011BF4E31EA7FC130303789388085013080850C0
S214011C04130E0E3C13050550E31ADEFB6780000035
S214011C14B76810009388883A9305002813080000D3
S214011C2437E30100931718009386080003A7018C75
S214011C343307F70003A60600035707002310E60040
S214011C449387270093864600E392B7FE938808504D
S214011C541308082093850540E31668FC6780000096
S214011C64B7B80B009388883A930500281308000038
S214011C7437E30100931718009386080003A7018C25
S214011C843307F70003A60600035707002310E600F0
S214011C949387270093864600E392B7FE93880850FD
S214011CA41308082093850540E31668FC6780000046
S214011CB4B70807009388883A93050028130800009C
S214011CC437E30100931718009386080003A7018CD5
S214011CD43307F70003A60600035707002310E600A0
S214011CE49387270093864600E392B7FE93880850AD
S214011CF41308082093850540E31668FC67800000F6
S214011D0493959500B385A50093951500B78725008F
S214011D14938787BAB387F5002390C700B7271C00BB
S214011D24938787BAB385F5002390C50067800000C2
S214011D34130101FE232E1100232C8100232A910076
S214011D442328210123263101232441012322510181
S214011D54376A1000130A8A3AB7BA0400B30A5A015A
S214011D64130900009309001493040A0013040000E5
S214011D7483A70400039607009305090013050400CE
S214011D84EFF01FF81304140093844400E31234FFA5
S214011D9413091900130A0A50E3185AFD8320C101D6
S214011DA40324810183244101032901018329C100FC
S214011DB4032A8100832A410013010102678000007F
S214011DC4130101FE232E1100232C8100232A9100E6
S214011DD423282101232631012324410123225101F1
S214011DE437BA0B00130A8A3AB7BA0400B30A5A017F
S214011DF4130900009309001493040A001304000055
S214011E0483A704000396070093050900130504003D
S214011E14EFF01FEF1304140093844400E31234FF1D
S214011E2413091900130A0A50E3185AFD8320C10145
S214011E340324810183244101032901018329C1006B
S214011E44032A8100832A41001301010267800000EE
S214011E54130101FE232E1100232C8100232A910055
S214011E642328210123263101232441012322510160
S214011E74370A0700130A8A3AB7BA0400B30A5A01A2
S214011E84130900009309001493040A0013040000C4
S214011E9483A70400039607009305090013050400AD
S214011EA4EFF01FE61304140093844400E31234FF96
S214011EB413091900130A0A50E3185AFD8320C101B5
S214011EC40324810183244101032901018329C100DB
S214011ED4032A8100832A410013010102678000005E
S214011EE4130101FE232E1100232C8100232A9100C5
S214011EF42328210123263101930400001309000F2E
S214011F04930900141304000013060000930504004B
S214011F1413850400EFF0DFDE13041400E31624FF38
S214011F2493841400E39034FF8320C10103248101C8
S214011F3483244101032901018329C10013010102FC
S214011F4467800000B73720FF1307100023A0E702BD
S214011F54B73720FF9387C70283A7070093F71700B5
S214011F64638C0700373720FF1307C7028327070050
S214011F7493F71700E39C07FE67800000130101FF37
S214011F8423261100232481002322910003A7C1895B
S214011F94B7872500938787BA2322F700EFF09FFAC5
S214011FA483A7C18983A7070023A0F18CEFF05FF311
S214011FB403A7C189B7271C00938787BA2322F70092
S214011FC48327470023A0F18CEFF09FF18320C10003
S214011FD4032481008324410013010101678000006A
S214011FE4130101FF23261100372506001305453585
S214011FF4EF40C01C3725060013050537EF40001CCB
S21401200403A3018A83C6D18C03C6C18CB78800009A
S2140120149305000F130EA0056F00800193060600BA
S21401202413F6F70F23A4F18C23A2E18C638AB6007E
S2140120348327030033F71701E30607FE6FF01FFE3D
S214012044E318C6FF2386018CA386018C2387018CA3
S2140120543725060013058538EF4040168320C10056
S214012064130101016780000083A7018A83A7070083
S21401207423A4F18C3787000033F7E70023A2E18C11
S21401208413050000630E070683C6D18C2387D18C03
S21401209403C7C18CA386E18C93F7F70F2386F18CD3
S2140120A41306000E639EC604930650076300D70604
S2140120B463E2E6029307B0066300F7069307400758
S2140120C46318F700B707070003A547BC678000003D
S2140120D4678000009306000F6316D70213075007A4
S2140120E46382E704130720076384E7041307B00633
S2140120F46382E70613074007130500006382E706B9
S214012104678000001305000067800000B70707001A
S21401211403A587BC67800000B707070003A507BCB3
S21401212467800000B707070003A547BD6780000066
S214012134130101FF232611003725060013058539EF
S214012144EF40C007130500008320C10013010101FD
S21401215467800000B707070003A5C7BC67800000B7
S214012164B707070003A507BD6780000003A7018D15
S214012174930610062300D70083A7018D23A2070028
S21401218423A4070023860700678000009306050042
S21401219493871500938545001308300013067000D5
S2140121A433E50703131725003387E60003270700E3
S2140121B4032707036316C70093871700E392B7FE46
S2140121C4678000001305900667800000130101FB79
S2140121D42326110423229104232861032326710351
S2140121E423248103232291032320A103232EB10157
S2140121F493040500138D0500930B0600938C0600CB
S214012204130C0700138B0700930D08001315270002
S214012214EF30802323A0A400635A80192324810469
S21401222423202105232E3103232C4103232A510382
S214012234B3877C03939727002326F1001309000034
S214012244130A0000930A00001314290083A904004A
S214012254B389890013054003EF30001F23A0A900AA
S21401226483A70400B387870083A7070023A2A703D5
S21401227483A70400B387870083A7070023AA9701CF
S21401228483A70400B387870083A7070023A87701E1
S21401229483A70400B387870083A907000325C10029
S2140122A4EF30801A23A4A90283A70400B38787000A
S2140122B483A9070013054000EF30001923A0A900E5
S2140122C483A70400B387870083A90700130540008A
S2140122D4EF30801723A2A90083A70400B3878700E1
S2140122E483A9070013058000EF30001623AEA9006A
S2140122F483A70400B387870083A90700130580001A
S214012304EF30801423A0A90283A70400B3878700B3
S21401231483A9070013054000EF30001323ACA9007E
S21401232483A70400B387870083A7070083A7070052
S21401233423A0670183A70400B387870083A7070048
S21401234483A7470023A0B70183A70400B3878700A8
S21401235483A7070083A7C70123A0470123A2570128
S21401236483A70400B387870083A7070083A7070210
S21401237423A0470123A2570183A70400B38787003C
S21401238483A7070083A7870123A007001309190061
S214012394330B7B01E31A2CEB032481040329010488
S2140123A48329C103032A8103832A41038320C104A9
S2140123B483244104032B0103832BC102032C8102D2
S2140123C4832C4102032D0102832DC1011301010552
S2140123D467800000130101FA232E1104232C8104C3
S2140123E483A7018D03C70700930710066304F70448
S2140123F43725060013058550EF30505C83A7018D01
S21401240483A587003725060013054541EF30D048DC
S2140124149306000013060000B70520FF93850510F8
S214012424B788000013056001130EE001930E000F38
S2140124346F00C04203A5418EEFE00FCE372506009C
S21401244413054540EF30905783A7018D83A54700B8
S2140124543725060013054541EF3010449306000066
S21401246493050000370620FF13060610B788000000
S21401247413056001130EE001930E000F6F00800038
S2140124846388D5078327060023A4F18C33F7170145
S21401249423A2E18C630607009385060093F6F70FE3
S2140124A4E380A6FEE390C6FFE39ED5FD372506002E
S2140124B41305C545EF30905003A4018D83254400D0
S2140124C437E52E00130585BAEFF05FCC2322A4006E
S2140124D4930720062300F400EFF0DFCE93050500F2
S2140124E4372506001305C54EEF30103B6F00803DBF
S2140124F4232A910423282105232631052324410573
S2140125042322510523206105232E7103232C8103E5
S214012514232A91032328A1032326B1033725060082
S21401252413058544EF30904903A5C18DEFE0CFBE76
S2140125341308E00D9307A00C130790019306E0001F
S21401254413062000B7250600938585671385418DFC
S214012554EFF0DFC7232E01001304000037E92E0035
S214012564130989BA03AB818383ABC18303AA818030
S21401257483AAC18003A781802324E10083A7C180A5
S2140125842326F10003A8418483A701842320F100B4
S214012594232201016F008008B307F040232EF100C7
S2140125A4130D10006F00C00D83A7418D131724006F
S2140125B4B387E70003A50700EFE00FB61304140082
S2140125C4E39484FE6F00401183A7418D1317240002
S2140125D4B387E70003A50700EFE05F841304F4FF65
S2140125E4E35494FE6F00400FEFF08FE7EFF04FF4E3
S2140125F46F004001130710006380E71213072000E1
S2140126046380E71483A7C18B23ACF18A0327C10136
S2140126149307300663CAE71413840400EFF0DFA4BB
S2140126249305050083A7018D83A747009397270089
S214012634B307F9001306C10103A50700EFF00FAABB
S21401264483A7018D83A7470093972700B307F90053
S21401265403A50700EFF08F8883A7018D83A74700A2
S21401266493972700B307F90083A7070083A7C70436
S21401267423AEF18A8327C101130D0000E3CE07F0D0
S2140126840325C101EF20504413060B0093860B006B
S214012694EF10002493040500938C050013060A002A
S2140126A493860A00EF10901B6356A00083248100D2
S2140126B4832CC100032601008326410013850400F0
S2140126C493850C00EF10103AEF20D03793040500E1
S2140126D4E34CA4ECE34A85EE63080D008327C101AD
S2140126E4B307F040232EF100EFF0DF8583A7C18BFB
S2140126F4E39207F083A7818BE38607F013071000A4
S214012704E384E7EE13072000E39EE7EEEFF04FDAEB
S214012714EFF00FE26FF01FEF83A7818B638C070046
S21401272413072000E390E7EEEFF08FD8EFF04FE9C0
S2140127346FF05FEDEFF0CFCDEFF08FE86FF09FEC29
S21401274483A7818B638C070013071000E39CE7EAD9
S214012754EFF00FD1EFF0CFEF6FF0DFEAEFF04FCBF2
S214012764EFF00FEF6FF01FEA83A7018D83A54700F3
S2140127743725060013050547EF30101203A5018E11
S214012784EFE08F999306000013060000B70520FFBB
S21401279493850510B788000013056001130EE00148
S2140127A4930E000F6F0080006304D60783A705000D
S2140127B423A4F18C33F7170123A2E18C63060700E7
S2140127C41386060093F6F70FE380A6FEE390C6FF92
S2140127D4E31ED6FD372506001305C545EF30101E4A
S2140127E483244105032901058329C104032A81049D
S2140127F4832A4104032B0104832BC103032C810385
S214012804832C4103032D0103832DC1026FF0DFCA1C
S214012814372506001305054BEF30501A37250600F9
S2140128241305C54CEF30901983244105032901058E
S2140128348329C104032A8104832A4104032B010446
S214012844832BC103032C8103832C4103032D010332
S214012854832DC1026FF05FC6630ED60783A70500FA
S21401286423A4F18C33F7170123A2E18C6306070036
S2140128741386060093F6F70FE380A6FEE390C6FFE1
S214012884E31ED6FD372506001305C545EF301013A4
S21401289403A4018D8325840037E52E00130545BB6B
S2140128A4EFF0DF8E2324A400930710062300F40020
S2140128B4EFF05F9193050500372506001305C54E15
S2140128C4EF30807D8320C1050324810513010106B1
S2140128D467800000232A9104232821052326310535
S2140128E423244105232251052320610537250600AB
S2140128F413058544EF30900C232E010037E42E0097
S214012904130484BAB72906001309E000EFF0CFF5E3
S2140129149305050083A7018D83A787009397270056
S214012924B307F4001306C10103A5C700EFE01FFBBC
S21401293483A7018D83A7870093972700B307F40025
S21401294403A5C700EFE09FD983A7018D83A787005E
S21401295493972700B307F40083A7C70083A7C70488
S21401296423AEF18AEFF00FDE83A7C18983A7470060
S21401297423A0F18C13858951EF3050048327C101BC
S21401298493871700232EF100E352F9F883A7018DEC
S21401299483A587003725060013050547EF30C06F6A
S2140129A403A5018EEFD05FF793060000130600001F
S2140129B4B70520FF93850510B7880000130560014D
S2140129C4130EE001930E000F6F008000630AD60514
S2140129D483A7050023A4F18C33F7170123A2E18C06
S2140129E4630607001386060093F6F70FE380A6FE38
S2140129F4E390C6FFE31ED6FD372506001305C5453D
S214012A04EF30C07B83244105032901058329C104D2
S214012A14032A8104832A4104032B01046FF05FE730
S214012A24372506001305054BEF3040793725060098
S214012A3413054552EF3080788324410503290105A7
S214012A448329C104032A8104832A4104032B010434
S214012A546FF01FE4130101FE232E1100232C8100C5
S214012A64232A91002328210123263101232441010D
S214012A74232251012320610137E42E00130484BA72
S214012A841309840137DB060013088B53B7CA060003
S214012A9493878A5337DA060013078AD3B7E9060001
S214012AA4938689D31306F008930540071305090096
S214012AB4EFE08FF39304840613088B5393878A53AA
S214012AC413078AD3938689D31306F0089305C01196
S214012AD413850400EFE04FF1EFF04FE923202401C2
S214012AE423269400EFF0CFCF83A7018D13071000A0
S214012AF42386E70037E52E00130545CCEF00C03EDC
S214012B0403A5C18EEFE08FB19306800213068002FF
S214012B14B7A506009385853EB7E92E00138509CA35
S214012B24EF00000A138509CAEF00802B9309840B72
S214012B349307E0001307600293062003130640067A
S214012B44B7C50600938585CE13850900EFD09F95FA
S214012B5413850900EFD01FB31304840D9307900166
S214012B64130700149306F00A13060000B72506009F
S214012B749385856E13050400EFD0DF9213050400D8
S214012B84EFD05FB013050900EFE05FB513850400CD
S214012B94EFE0DFB4EFF01F848320C1010324810139
S214012BA483244101032901018329C100032A8100E9
S214012BB4832A4100032B01001301010267800000F0
S214012BC4130101FA232E1104232C8104232A9104D0
S214012BD4232821052324410523225105232A910371
S214012BE42326B103930C0500232CB100930D060094
S214012BF4138906002328D1009307003C33E4C70257
S214012C0433348000B3C7C7023304F400232085029B
S214012C149307000FB3E4D702B3349000B3C7D702C7
S214012C24B384F400232E95003305D602131525002C
S214012C34EF20900123A2AC0013054000EF20D00042
S214012C4423A4AC0013054000EF20100023A6AC001B
S214012C5413054000EF20407F23A8AC0023AABC0143
S214012C6423AC2C01232005003305940213152500FB
S214012C74EF20807D23A0AC00232E01002326010033
S214012C84130A0000930A00006358901223263105A4
S214012C9423206105232E7103232C81032328A103FA
S214012CA46F00800E13054003EF20007A130405001D
S214012CB4832781012322F50283270101232AF500B4
S214012CC42328B50183A74C002324F50213054000ED
S214012CD4EF208077930B05002320A4001305400002
S214012CE4EF208076130B05002322A4001305800031
S214012CF4EF20807593090500232EA4001305800098
S214012D04EF208074130905002320A4021305400054
S214012D14EF208073232CA40023A0AB018327410159
S214012D242320FB0023A0490123A2590123204901A2
S214012D3423225901232005008327C100B384F4020A
S214012D44B384840183A70C0093942400B38797006B
S214012D5423A08700130C1C0083A40C02330DBD01B1
S214012D64E3429CF48327C100138717002326E1005E
S214012D748327C10183260101B387D700232EF100DF
S214012D8483A7CC016350F70283A40C028327C101F5
S214012D94232AF100130D0000130C0000E34490F005
S214012DA46FF05FFC8329C104032B0104832BC10349
S214012DB4032C8103032D01038320C105032481050C
S214012DC48324410503290105032A8104832A410436
S214012DD4832C4103832DC102130101066780000081
S214012DE4130101FF23261100232291002320210130
S214012DF4930405008327C50113090000635AF004F0
S214012E04232481006F008003B3872703B3878700D9
S214012E1403A7040093972700B307F70003A5070049
S214012E24EFD09FAF1304140083A70402E34EF4FC0F
S214012E341309190083A7C401635AF90083A704027E
S214012E4413040000E342F0FC6FF09FFE03248100AC
S214012E548320C100832441000329010013010101D9
S214012E6467800000130101FF23261100232291002D
S214012E7423202101930405008327C50113090000BB
S214012E84635AF004232481006F008003B387270369
S214012E94B387870003A7040093972700B307F700B7
S214012EA403A50700EFD09FF71304140083A70402B9
S214012EB4E34EF4FC1309190083A7C401635AF9000D
S214012EC483A7040213040000E342F0FC6FF09FFEA4
S214012ED4032481008320C1008324410003290100C7
S214012EE41301010167800000130101FE232E110066
S214012EF4232A910023263101930405008327C50163
S214012F04930900006354F00C232C8100232821012B
S214012F146F00400A1309190003A4040263568908C2
S214012F2433043403330424011314240083A7040054
S214012F34B387870083A70700E38E07FC03A5070072
S214012F44EF20405183A70400B387870083A70700B7
S214012F5403A54700EF20005083A70400B38787002A
S214012F6483A7070003A5C701EF20C04E83A704006B
S214012F74B387870083A7070003A50702EF20804DC8
S214012F8483A70400B387870083A7070003A58701E7
S214012F94EF20404C83A70400B387870003A50700EE
S214012FA4EF20404B6FF01FF79389190083A7C401E4
S214012FB463DAF90003A4040213090000E34280F66D
S214012FC46FF09FFE032481010329010103A5040078
S214012FD4EF20404803A54400EF20C04703A5840022
S214012FE4EF20404703A5C400EF20C04603A5040113
S214012FF4EF2040468320C101832441018329C10077
S2140130041301010267800000B7071000130101FED7
S214013014938EF7FF33F8BE00B3F7DE0013D34601F1
S2140130242328210113D9450193973700232C8100C6
S2140130341318380013D4F5011357D5019358D60144
S2140130441379F97F1373F37F232E1100232A91003A
S2140130542326310193D6F601B3E8F8003367070156
S21401306493153500131F3600B30769406304D41E55
S2140130746352F016630603289306F07F6306D9426B
S214013084930680031306100063CEF602B70680008B
S214013094B3E8D8009306F00163CEF6529306000215
S2140130A4B386F6403396D8003355FF00B316DF00D7
S2140130B43366A600B336D000B3D8F8003366D6001C
S2140130C4330717413386C540B3B5C50093040600DC
S2140130D4B309B7409397890063DA0732B7078000CC
S2140130E49387F7FFB3F9F9006388092C1385090060
S2140130F4EF200029930785FF930600023387F640E5
S21401310433D7E400B399F90033673701B394F40075
S21401311463C8274BB387274193871700B386F640C6
S2140131243396D400B3D9F4003336C000336636017F
S214013134B316D700B3E4C600B359F7001309000069
S21401314493F774006380070293F7F40013074000B3
S214013154638AE7009387440033B69700B389C900AE
S214013164938407009397890063DA076E930719001F
S2140131741307F07F130E04006386E72A370780FFE0
S2140131841307F7FF33F7E90093F7F77F1318D7010F
S21401319413D63400131797003368C8001357C700B3
S2140131A48320C1010324810193974701B3E7E70014
S2140131B41317FE01B3E7E700832441010329010144
S2140131C48329C10013050800938507001301010232
S2140131D467800000638C0714B30723416312093C1C
S2140131E43365B7006304054C1385F7FF6302056076
S2140131F41308F07F638607579307800313061000AE
S21401320463CCA702930705001306F001634CF65638
S214013214130500023305F5403316A70033D8F5002D
S2140132243395A500336606013335A0003357F700FE
S2140132343366A600B388E8403306CF403337CF0061
S21401324493040600B389E8401309030013840600B7
S2140132546FF05FE86350F01E63100314B3E6E801F1
S214013264638C06269386F7FF638006481306F07F71
S214013274638CC722930780039309100063CCD7029B
S214013284938706009306F00163C0F64A930600028C
S214013294B386F640B399D8003356FF00B316DF0061
S2140132A4B3E9C900B336D000B3D8F800B3E9D900FE
S2140132B433071701B385B900B3B935019384050003
S2140132C4B389E9009397890063D207141309190097
S2140132D49307F07F630CF936B70780FF9387F7FFF0
S2140132E413F61400B3F7F90013D714003367C700B5
S2140132F41396F701B364E60093D917006FF05FE401
S214013304B3E6E801638A061C9386F7FF63800640EA
S2140133141306F07F638AC718930780031306100009
S214013324E3C2D7DA938706006FF0DFD613081900D5
S2140133341378E87F631C08223363B70033E8E80197
S21401334463100938630E034663060840B389E541F2
S21401335433B53501330617413306A64013158600E7
S214013364635E0550B305BF403387E840333FBF0073
S2140133743307E7411316870093840500635E0652FC
S214013384B70780FF9387F7FF3377F700138E06009E
S214013394930710006FF09FDF9306F07F6306D91042
S2140133A49306800393091000E3C6F6F0B70680007F
S2140133B4B3E8D8006FF01FED13850400EF10507CBE
S2140133C4930785019306F001E3D8F6D2130785FF28
S2140133D43397E40063C627233389274193071900EB
S2140133E463D6F648130919FE93060002B35427015F
S2140133F4638CD70093060004B387F6403317F700AF
S2140134043337E000B3E4E4001309000093F77400D3
S214013414E39C07D29307090013D6340013870900E7
S2140134246F00000C9307F07F1307000013080000D9
S2140134346FF01FD7638A070CB30723416302091E83
S2140134449306F07F6308D332930680039309100032
S21401345463CEF602B70680003367D7009306F00101
S21401346463C8F63C93060002B386F640B319D70048
S21401347433D6F500B396D500B3E9C900B336D00008
S2140134843357F700B3E9D900B388E8003387E90175
S214013494B339370193040700B389190113090300EB
S2140134A46FF05FE2631008021316350013563600F8
S2140134B41318D7013368C800135737003367070159
S2140134C463060718130E00009307F07F37070800FA
S2140134D4130800006FF0DFCC1316350013563600C0
S2140134E41318D7019306F07F3368C80013573700C3
S2140134F4E386D7FC1317C7001357C70093F7F77F64
S214013504130E04006FF0DFC99306190013F8E67F63
S21401351463180814B366B700631C0928638206306F
S214013524B3E6E80163880622B387E501B3B5B700BD
S214013534330717013307B70013D8370093178700EB
S214013544130E040063DE0734B70780FF9387F7FF83
S2140135543377F7009317D7011357370033E807017A
S2140135643377D701930710006FF09FC33388E54183
S214013574B3B70501B3091741B389F9409397890095
S2140135849304080063C6071033683801E31E08B4C1
S214013594130E000093070000130700006FF05FC0CE
S2140135A41305F07F630EA31A130580031306100098
S2140135B4E344F5C8370680003367C7006FF0DFC4FD
S2140135C4B70980FF9389F9FF3309F940B3793701C5
S2140135D46FF01FB7938607FE13060002B3D6D80012
S2140135E4638AC70013060004B307F640B397F800CE
S2140135F4336FFF003336E0013366D6006FF09FACBD
S214013604B70680FF9386F6FFB307F9403377D700F2
S2140136141318D70133683801135737006FF09FED3D
S214013624B366B7006386061E9386F7FF638E060AA3
S2140136341305F07F6380A714930780039309100092
S214013644E3C6D7E4938706006FF05FE1130E040028
S2140136549307F07F13070000130800006FF05FB4B0
S2140136649307F07FE384F6FE338FE501B335BF009D
S214013674B3071701B387B7001396F701135F1F004B
S214013684B364E60193D91700138906006FF05FABA4
S2140136943306BF40B387E8403337CF0093040600B0
S2140136A4B389E740138406006FF01FA4131636008F
S2140136B41356360013840600138708006FF05FE282
S2140136C4E31203DE6306081C13D73800131636000C
S2140136D49398D80133671701135636003367C7002A
S2140136E4138406006FF0DFDD338FE501B30817019D
S2140136F4B335BF00B389B8009397890093040F00CC
S21401370463D4070E130920006FF01FBD338FE54104
S214013714B3081741B3B5E50193040F00B389B84064
S214013724130910006FF01F9B938607FE1306000211
S214013734B3D6D800638AC70013060004B307F6405D
S214013744B397F800336FFF00B339E001B3E9D9004A
S2140137546FF05FB613163500935936006FF05FEBC2
S2140137641316360013563600138406001387080012
S2140137746FF01FD41316360013563600138708004D
S2140137846FF01FD3138507FE130600023355A700F7
S214013794638AC70013060004B307F640B317F7009D
S2140137A4B3E5F5003336B0003366A6006FF0DFA844
S2140137B4E38206FC33EFE801E3160FD06FF0DFCEA9
S2140137C4E30808DC131836009397D8011358380019
S2140137D413D738003368F8003377D701138E060001
S2140137E4930700006FF0DF9B930710006FF0DFC2B2
S2140137F4B305BF40B388E8403337BF009384050060
S214013804B389E84013840600130910006FF09F8CF7
S2140138141316360013563600138708006FF05FCC74
S2140138241316360093593600138708006FF05FDECF
S214013834938607FE13060002B356D700638AC700B1
S21401384413060004B307F640B317F700B3E5F50013
S214013854B339B000B3E9D9006FF05FC313D63400AF
S21401386493070900138709006FF09FC793060002A8
S214013874B386F640130600006FF05F8B33E8C90089
S214013884E30808D093D93900130706006FF05FD810
S214013894130E00009307F07F370708006FF05F9060
S2140138A49317D7011357370033E807013377D70146
S2140138B4930700006FF0DF8E1318D70193D53500F8
S2140138C43368B80013573700138406006FF09FC29D
S2140138D4130101FD232E310193D9450123248102CD
S2140138E42322910223202103232C41012326710143
S2140138F49394C50023261102232A5101232861012A
S2140139042324810193F9F97F13040500930B060020
S2140139141389060093D4C40013DAF501638A0918DF
S2140139249307F07F6388F908939434009357D5017D
S214013934B3E7970037078000B3EAE700131B3500A7
S214013944938919C093040000130C0000935749018E
S2140139541314C90093F7F77F1354C4001359F901DC
S214013964638207081307F07F638AE7181314340089
S21401397413D7DB0133678700938717C037048000AA
S2140139843364870093983B00B389F940130600001B
S2140139941307F000B3462A0163649724B7E70600C9
S2140139A49394240093878753B384F40003A70400F5
S2140139B467000700B3EAA400639E0A1C93574901F3
S2140139C41314C90093F7F77F130B000093048000C8
S2140139D49309F07F130C20001354C4001359F90102
S2140139E4E39207F8B36874016382081C630A044A05
S2140139F413050400EF10D01893070500930655FF2E
S214013A041307D001938887FF3307D7403314140173
S214013A1433D7EB0033648700B3981B01B3873701B0
S214013A249389373F130600006FF09FF63307F7407C
S214013A3413068003635AE64E93070000130600003C
S214013A44130700008320C1020324810293974701D0
S214013A54B3E7C7009396F601B3E7D7008324410280
S214013A64032901028329C101032A8101832A410111
S214013A74032B0101832BC100032C810013050700CE
S214013A849385070013010103678000009307F07F05
S214013A9413060000130700006FF0DFFA9306000018
S214013AA49307F07F37060800130700006FF09FF9AD
S214013AB4B3EAA400638C0A106388044013850400E7
S214013AC4EF10100C13070500930655FF9307D0015A
S214013AD4130B87FFB387D740B3946401B357F4003D
S214013AE4B3EA9700331B64019309D0C0B389E94054
S214013AF493040000130C00006FF05FE5B3687401D3
S214013B0493891980639C080A93E424001304000033
S214013B14130620006FF0DFE713090A0013840A0076
S214013B2493080B00930720006308FC4E93073000AC
S214013B34E306FCF69307100093060900E30EFCEE79
S214013B449387F93F6356F02A13F778006316074AFA
S214013B5413177400635A0700B70700FF9387F7FF2C
S214013B643374F400938709401307E07FE340F7F2C8
S214013B7493D838001317D40113169400336717012A
S214013B841356C60093F7F77F6FF0DFEB130C0600AE
S214013B946FF05FF9938A0400130B05009304C000C9
S214013BA49309F07F130C30006FF05FDA93E414008E
S214013BB413040000130610006FF09FDD93E4340035
S214013BC493880B00130630006FF09FDC130B000084
S214013BD49304400093090000130C10006FF01FD7E4
S214013BE46364542B63808A2A13030B009389F9FFB9
S214013BF493870A00130B000013178400135507015B
S214013C0433D4A70213D688013366E60013180601D7
S214013C14135808019395880013570301B3F7A702B5
S214013C24B308880293970701B367F70063FA17018D
S214013C34B307F6001307F4FF63F0C72E1304070057
S214013C44B3871741B3D8A702131703011357070104
S214013C54B3F7A702B30F1803939707013367F70067
S214013C64637AF7013307E6009387F8FF637EC72874
S214013C749388070013140401B70201003364140186
S214013C841383F2FFB3786400935E040113DE050127
S214013C9433F36500330F13033307F741B3081E03E9
S214013CA493570F01B38F6E02B388F801B3871701D8
S214013CB4B38ECE0363F4F701B38E5E00B70F010033
S214013CC4938FFFFF93D80701B3F7F7019397070183
S214013CD4337FFF01B388D801B387E701636E1717F3
S214013CE4630A1717B307FB4033071741333BFB003F
S214013CF4330767416300E62EB358A70293DE070134
S214013D043377A702330F18031317070133E7EE00BF
S214013D14637EE7013307E600938EF8FF636AC72ED6
S214013D246378E72F9388E8FF3307C7003307E74133
S214013D34B35EA7029397070193D707013377A702C8
S214013D443308D80313170701B3E7E70063FE070137
S214013D54B307F6001387FEFF63E8C72A63F6072B4B
S214013D64938EEEFFB387C70093980801B3E8D80192
S214013D741395080113DF080113550501B30E6502F7
S214013D84B38707413305AE0213D70E0133036F021F
S214013D94330565003307A700330EEE036376670029
S214013DA437050100330EAE00370801001308F8FF8B
S214013DB4135507013377070113170701B3FE0E01E5
S214013DC43305C5013307D70163F2A712B307F6001B
S214013DD41383F8FF1388070063E4C71C63E8A7246A
S214013DE46386A7269308030093E818006FF05FD54F
S214013DF413071000E39C07C29389E941B39738017E
S214013E04B337F000B3193401B3E73701B3D8E80088
S214013E14B3E8F80093F778003354E40063800702AC
S214013E2493F7F80013074000638AE7009387480076
S214013E34B3B817013304140193880700931584005B
S214013E44930710001306000013070000E3CC05BE19
S214013E546F004013E378FBE8B30EBB0033BF6E017B
S214013E64B30FCF003307F701138B0E00930FF4FF44
S214013E746374E60863621715638EE81213840F00F1
S214013E846FF05FE6E3621BD713571B001393FA0127
S214013E9493D71A003363E300131BFB016FF0DFD5DE
S214013EA413850B00EF10C04D930655011307C0018F
S214013EB493070502E356D7B4130585FF930800005C
S214013EC43394AB006FF09FB5EF10804B930655010A
S214013ED49307C00113070502E3DAD7BE930785FFEC
S214013EE4B31AF400130B00006FF01FC0E39EA7EE95
S214013EF4E30807C46FF09FEDE312E6F8E30C0FF650
S214013F0413840F006FF01FDEE374F7D79388E8FF7E
S214013F143307C7006FF01FD6E3F217D31304E4FF89
S214013F24B387C7006FF0DFD11306F001E356E6EC62
S214013F34130610FEB307F64013060002B357F40047
S214013F446308C7009389E943B3193401B3E8380118
S214013F54B3381001B3E8F80013F77800130600002D
S214013F646308070293F7F8001307400013040000E0
S214013F74638AE70093874800B3B817013334100106
S214013F8493880700131694001317D4011356C6001A
S214013F9493D8380033E7E800930700006FF09FAA30
S214013FA493080300E312A8E4E30CB7B893E81800F7
S214013FB46FF01FB9E3F4FEECB38ED50133BFBE0038
S214013FC4330FCF001304E4FF138B0E003307E7010E
S214013FD46FF05FD1130720C09387F93F9308F0FF72
S214013FE4E3C8E9E013874800B33817013304140122
S214013FF4930807006FF0DFB513F7F80013064000C7
S214014004E308C7B46FF01FFE930E07006FF0DFD509
S21401401493880E006FF09FD1930609009307F07FF3
S21401402413060000130700006FF0DFA113931500B9
S2140140343338B3003308C800338807019388E8FF90
S21401404493050300E302A8F66FF01FDAE3E0E5FE4A
S21401405493080300E31CB7F46FF09FAE93D84501B1
S214014064B70710009387F7FF13D7460193F8F87F35
S214014074130EF07F33F3B70013080500930E050003
S214014084B3F7D70093D5F501130F06001375F77F21
S21401409493D6F6016388C8056304C503639A0806C4
S2140140A4336803016310050633E6C700630C06088C
S2140140B46312080A1305100063820608678000006D
S2140140C433E6C700631406086396080033630301E6
S2140140D4E30203FE6380D50663920506130510000A
S2140140E4678000003363030163120306E31615FFBA
S2140140F4B3E7C700639C0704E390D5FE13050000ED
S21401410467800000E30808FAE398D5FC6F00800294
S214014114E30405FCE392D5FCE34015FD63CCA8005B
S214014124E3EC67FA6318F300E368DFFB13050000AA
S214014134E3F6EEF913051000E39205F81305F0FF14
S21401414467800000E31A08F8678000001305E0FFA3
S21401415467800000E386D5FC6FF01FF893D845010D
S214014164B70710009387F7FF13D7460193F8F87F34
S2140141741303F07F33FEB70013080500930E050002
S214014184B3F7D70093D5F501130F06001375F77F20
S21401419493D6F601638A6804630465026398080685
S2140141A433680E01631E050833E6C7006304060A76
S2140141B46316080A1305100063800608678000006A
S2140141C433E6C70013052000E31A06FE63960800CB
S2140141D4336E0E01E3000EFE638CD504639E050464
S2140141E41305100067800000336E0E0163100E067F
S2140141F4E31615FFB3E7C70013052000E39007FC99
S214014204E39ED5FC1305000067800000E30805FC67
S214014214E396D5FCE34415FD63CCA800E3E0C7FDB3
S2140142246318FE00E36CDFFB13050000E3F8EEF908
S21401423413051000E39405F81305F0FF67800000EA
S214014244E30A08F6E39CD5F86FF09FFE13052000F9
S21401425467800000E31408F867800000E380D5FC5B
S2140142646FF0DFF7130101FD93D745012324810283
S2140142742322910223202103232E3101232A5101D3
S2140142849394C50023261102232C4101232861019E
S214014294232671012324810193F7F77F1304050074
S2140142A4930A06009389060093D4C40013D9F50132
S2140142B4638407421307F07F6386E70A9396340004
S2140142C41357D5013367D700B7068000B364D70008
S2140142D4131A3500138C17C0130B0000930B000040
S2140142E493D749011397C90093F7F77F138F0A00F1
S2140142F41354C70093D9F9016380070A1307F07FA3
S214014304638EE7141317340093D5DA01B3E5E50099
S214014314938717C03707800033E4E500139F3A00FC
S214014324B3888701130300001307A0001385180040
S214014334634C670BB34539019307200013880500C6
S21401434463C66715130BFBFF13071000636067173B
S214014354630AF33C93040400130A0F00930B03004F
S2140143646F00C00933EAA40063180A3C93D74901D5
S2140143741397C90093F7F77F93040000130B80008B
S214014384130CF07F930B2000138F0A001354C700FD
S21401439493D9F901E39407F6B36754016382073CA2
S2140143A46300044A13050400EF00907D930805009A
S2140143B4130755FF9307D001138F88FFB387E74090
S2140143C4B3D7FA003317E40133E4E700339FEA0175
S2140143D4B3081C419388D8C01307A0001303000038
S2140143E413851800E35867F5930509009307200021
S2140143F4638AFB3293073000638CFB4893071000F3
S21401440413880500639AFB46930700009306000091
S214014414130700008320C1020324810293974701F6
S214014424B3E7D7009316F801B3E7D7008324410214
S214014434032901028329C101032A8101832A410137
S214014444032B0101832BC100032C810013050700F4
S2140144549385070013010103678000003367540145
S2140144649308FC7F630A0730371700003348390185
S21401447413070780136B3B009306A00093050800FF
S2140144843305EC0063C066391303300013061000CD
S2140144943316660113770653E31A07F49377062453
S2140144A46394073C137686086312062EB70F010041
S2140144B4938EFFFFB377DA0193560A01B37EDF01C9
S2140144C4135E0F013387D7033383D603935507014E
S2140144D43306FE0233066600B385C500338FC60372
S2140144E463F46500330FFF01B70301001386F3FF7E
S2140144F433F3C500935F04013377C7003374C400F4
S21401450413130301B38287023303E30093D5050132
S2140145143387860213D60201B387FF02B387E70007
S2140145243306F600B387F6036374E600B3877700B1
S214014534370901009309F9FF3377360193D3040150
S214014544B3F63401B3F2320113170701B384DE0262
S21401455433075700135606013306F600B385E50004
S214014564B302DE0293D70401B38ED303B382D2011E
S214014574B3875700330E7E0263F4D701330E2E0140
S214014584B7090100938EF9FFB3F2D70193D7070158
S214014594B387C701B3FED401939202013309D4024F
S2140145A4B382D20133848302135E0901B386DF0228
S2140145B4B3868600330EDE00B38E7F0263748E00EC
S2140145C4B38E3E01B70F0100938FFFFFB376FE0152
S2140145D4939606013379F901B385E501B38626017D
S2140145E43386C60033B7E5003307E600338F55003C
S2140145F4B307F700B335BF00B385B700B336D600AB
S2140146043336C700B3E6C60033B7E700135E0E01C0
S214014614B3B7F500B386C6013367F70093179F0057
S2140146243307D700B3E767003307D701B337F00082
S21401463413567F011317970093D67501B3E7C70086
S2140146449395950033EAB70093177700B364D700C0
S21401465463D0070213571A0093771A009396F4014E
S214014664B367F70033EAD70093D414009308050020
S2140146741386F83F6356C01293777A006380070265
S2140146849377FA0013074000638AE70013074A008A
S214014694B3374701B384F400130A070093977400F1
S2140146A463DA0700B70700FF9387F7FFB3F4F40054
S2140146B4138608409307E07F63C4C71C93573A00E8
S2140146C41397D401939694003367F70093D6C600E4
S2140146D49377F67F6FF01FD433EAA40063080A06C3
S2140146E4638E041213850400EF0090491306050037
S2140146F4930655FF1307D001930786FF3307D74068
S2140147043357E400B396F400B364D700331AF400C5
S2140147149307D0C0338CC740130B0000930B0000E3
S2140147246FF01FBC138805009307F07F9306000003
S214014734130700006FF01FCE130A0500130BC00009
S214014744130CF07F930B30006FF09FB993040000B5
S214014754130B4000130C0000930B10006FF05FB8AE
S214014764136B1B0093080C0013040000130F0000C6
S214014774130310006FF05FBB136B2B0013040000D0
S214014784130F0000130320006FF01FBA93040400F4
S214014794130A0F00930B0300938509006FF01FC5DE
S2140147A413071000631006109388E84133161A01A4
S2140147B43336C000B3981401B357EA0033661601C2
S2140147C43366F60093777600B3D5E4006380070278
S2140147D49377F60013074000638AE70093074600C1
S2140147E433B6C700B385C500138607001395850045
S2140147F4930710009306000013070000E34C05C05E
S2140148046F00C0101307F0006310EB1213080000CA
S214014814B7060800130700006FF0DFBFEF0050363D
S214014824930655019307C00113060502E3D4D7EC9A
S214014834130585FF130A0000B314A4006FF05FED9F
S21401484413850A00EF00D033130755019307C001FF
S21401485493080502E3D0E7B6130585FF130F00009E
S2140148643394AA006FF0DFB6130800009307F07FB5
S214014874B70608006FF01FBA930805006FF05FDFF4
S2140148849307F07F93060000130700006FF09FB8AC
S214014894130800009307F07FB7060800130700000B
S2140148A46FF05FB73307C74093078003E3CEE7B4DF
S2140148B49307F001E3DAE7EE930710FEB387C740E8
S2140148C493060002B3D7F4006308D7009388E8433D
S2140148D4B3981401336A1A01333640013366F6007D
S2140148E41377760093060000630807029377F600B1
S2140148F41307400093050000638AE7009307460008
S21401490433B6C700B335C0001386070093969500E7
S2140149141397D50193D6C600135636003367E600BF
S214014924930700006FF01FAF93040400138A0A0074
S214014934930B3000938509006FF05FABB707100047
S2140149449387F7FF130101FEB3F8B70033F8D700D6
S21401495493D7460193983800232C810023263101EE
S21401496413D4F50193D945011357D501131838000B
S2140149749355D601232E1100232A910023282101C1
S21401498413FFF77F1303F07F3367170193F9F97F5A
S214014994130E04009318350093D6F601B3E505010A
S2140149A4931E3600630C6F2093C61600B387E94145
S2140149B46302D416E35AF000630A0F246384693C45
S2140149C4930680031305100063CEF602B706800033
S2140149D4B3E5D5009306F00163C4F64E93060002D0
S2140149E4B386F6403395D50033D6FE00B396DE0083
S2140149F43365C500B336D000B3D7F5003365D500AB
S214014A043307F7403385A84033B6A800930405005E
S214014A143309C7409317890063D80734B707800062
S214014A249387F7FF3379F9006306092E1305090006
S214014A34EF001015930785FF930600023387F640AF
S214014A4433D7E4003319F90033672701B394F4002C
S214014A5463C4373FB387374193871700B386F6405D
S214014A643396D40033D9F4003336C0003366C90014
S214014A74B316D700B3E4C6003359F7009309000010
S214014A8493F774006380070293F7F400130740005A
S214014A94638AE7009387440033B597003309A90076
S214014AA4938407009317890063D0076C93871900D2
S214014AB41307F07F6386E724370780FF1307F7FFA2
S214014AC43377E90093F7F77F1318D70113D534002A
S214014AD4131797003368A8001357C700137E1400F2
S214014AE48320C1010324810193974701B3E7E700BB
S214014AF41317FE01B3E7E7008324410103290101EB
S214014B048329C100130508009385070013010102D8
S214014B14678000006352F07063160F1CB3E6D5017C
S214014B24638E06269386F7FF63880646638C67249E
S214014B34930780031309100063CCD70293870600FA
S214014B449306F00163CAF64893060002B386F6405C
S214014B543399D50033D6FE00B396DE003369C90017
S214014B64B336D000B3D7F5003369D9003307F7005D
S214014B743306190133392601930406003309E90083
S214014B849317890063D2071E938919009307F07F50
S214014B946388F916B70780FF9387F7FF13F51400A8
S214014BA4B377F90013D714003367A7001395F701F9
S214014BB4B364E50013D917006FF09FEC33E8D50111
S214014BC41383198063080806630AD4066304030E74
S214014BD4638E092613153600135535001384060013
S214014BE4138705001318D7013368A8001357370035
S214014BF43367070163060710130E00009307F07F5F
S214014C0437070800130800006FF09FEDB3E6D501DF
S214014C14638606189386F7FF6382063A63846716EB
S214014C249307800313051000E3CED7DC93870600B1
S214014C346FF05FDA93C61600E31AD4F86308031814
S214014C446390092C9307F07FB366170163880648BF
S214014C549386F7FF638206341305F07F6382A72ADF
S214014C64930780031309100063CAD7029307F00160
S214014C7463C6D74C93070002B387D7403319F700AE
S214014C8433D6D800B397F8003369C900B337F000B8
S214014C94B356D7003369F900B385D5003307D90174
S214014CA433392701930407003309B90093090F0028
S214014CB46FF01FED9387190093F7E77F639407144A
S214014CC433E8D501B36717016394092A638E07385D
S214014CD46310083C1315350013593500930700007B
S214014CE46F0040116380690A93068003130910005C
S214014CF4E3C0F6E8B7068000B3E5D5006FF05FE4DD
S214014D04137E14009307F07F1307000013080000B6
S214014D146FF01FDD13850400EF008066930785019D
S214014D249306F001E3DAF6D0130785FF3397E40020
S214014D3463CE371BB38937419387190063DEF64286
S214014D44938919FE93060002B3543701638CD70086
S214014D5493060004B387F6403317F7003337E000B1
S214014D64B3E4E4009309000093F77400E39E07D0CC
S214014D749387090013D53400130709006F008002D6
S214014D84E31C08E6131535001318D701135535002F
S214014D943368A800135737006FF09FE513153500E5
S214014DA4135535001318D7019306F07F3368A8000E
S214014DB413573700E38ED7E21317C7001357C700FC
S214014DC493F7F77F137E14006FF09FD19386190033
S214014DD493F7E67F639E0712B3671701639A092464
S214014DE463860730B3E7D501639A07301315350098
S214014DF4135935001318D7013368280113573700A0
S214014E046FF09FFB3388D841B3B708013309B74025
S214014E143309F940931789009304080063C2071203
S214014E2433682801E31208C0130E0000930700003C
S214014E34130700006FF0DFCA370980FF1309F9FF73
S214014E44B389F940337927016FF09FC39307F07F45
S214014E5433651701630405101388F7FF6302081E00
S214014E641305F07FE388A7D693078003138406000F
S214014E741305100063CA07039307F00163C40719F7
S214014E8493070002B38707413315F700B3D6080129
S214014E94B397F8003365D500B337F00033580701EC
S214014EA43365F500B38505413385AE4033B7AE00AF
S214014EB4930405003389E54093090F006FF09FB50D
S214014EC4938607FE13060002B3D6D500638AC7008D
S214014ED413060004B307F640B397F500B3EEFE00DD
S214014EE43335D0013365D5006FF0DFB1B70680FFE7
S214014EF49386F6FFB387F9403377D7006FF09FEFB9
S214014F041315360013553500138705006FF09FCD32
S214014F149307F07FE386F6DEB38ED80133B61E011F
S214014F24B307B700B387C7001395F70193DE1E00D6
S214014F34B364D50113D91700938906006FF05FB4E3
S214014F4433861E41B387E54033B7CE00930406008B
S214014F543389E740138406006FF01FAD131636003D
S214014F641355360013840600138705006FF09FE37C
S214014F74E39807E06306082213D7350013163600B4
S214014F849395D5013367B700135636003367C700C8
S214014F94138406006FF01FC6B38ED801B305B7009D
S214014FA433B61E013389C5009317890093840E0016
S214014FB463D8070A930920006FF0DFBDB38ED8418A
S214014FC4B305B74033B6D80193840E003389C54080
S214014FD4930910006FF01FA4938607FE13060002C0
S214014FE4B3D6D500638AC70013060004B307F64098
S214014FF4B397F500B3EEFE003339D0013369D90017
S2140150046FF01FB7930708FE93060002B357F70025
S214015014630AD80093060004B38606413317D70003
S214015024B3E8E800333510013365F5006FF0DFE7C8
S214015034E38807ECB3EED501E3900EBC6FF09FD482
S21401504433861E41B385E54033B7CE00930406008C
S2140150543389E54013840600930910006FF09F9B83
S214015064930710006FF01FD1E30008DC1316360017
S214015074935736001398D501139795003368F800B3
S2140150841357C700138E0600930700006FF05FA541
S2140150943389D841B3B728013306B7403306F640FF
S2140150A49317860063D2070E33861E413387E54085
S2140150B4B3BECE003307D741931787009304060087
S2140150C463DE0712B70780FF9387F7FF3377F7008E
S2140150D413840600930710006FF01F9F1316360003
S2140150E413553600138705006FF0DFCB1316360011
S2140150F413593600138705006FF0DFCFB386D80146
S214015104B307B70033B61601B387C70013978700F2
S21401511413D83600635E0708370780FF1307F7FFC7
S214015124B3F7E7001397D7019397970033680701FE
S21401513413D7C700930710006FF09F9A938706FE54
S21401514413060002B357F700638AC6001306000469
S214015154B306D6403317D700B3E8E8003339100155
S2140151643369F9006FF09FB313D5340093870900B0
S214015174130709006FF01FC393060002B386F640B7
S214015184130600006FF09F8E3368C900E30E08C84B
S2140151941359390093070000130706006FF09FC5E3
S2140151A4130E00009307F07F370708006FF05F9334
S2140151B41397D701939797003368070113D7C7004E
S2140151C4930700006FF0DF91E38607AE33083F4193
S2140151D493070800E38E09C69307800363CA070191
S2140151E4B70780003367F700138406006FF0DFC843
S2140151F413840600130510006FF01FCB1318D70194
S214015204135636003368C800135737009307000057
S214015214138406006FF05FBAE38A07BAB3063F4108
S21401522463960900938706006FF01FA29307800315
S21401523413091000E3C4D7A6B70780003367F70045
S2140152446FF0DFA293D74501B70610001387F6FF68
S21401525493F7F77F1306E03F3377B70093D5F5014D
S214015264635EF6001306D041635EF60037050080E0
S2140152741305F5FF3385A5006780000013050000BC
S21401528467800000130630433306F6401308F00126
S2140152943367D7006350C80293063041B387F6409C
S2140152A43357F7003305E040E39C05FC130507007C
S2140152B4678000009387D7BE3317F7003355C500C0
S2140152C43367A7006FF01FFE130101FF23261100A9
S2140152D42324810023229100630A05041357F54110
S2140152E4B344A700B384E440930705001385040080
S2140152F413D4F701EF00C0089307E041B387A74032
S2140153041307A00093F7F77F6340A7061307B000BF
S2140153143307A74033D7E400130555011317C70015
S214015324B394A4001357C7006F0040011304000090
S21401533493070000130700009304000093974701A6
S2140153441314F401B3E7E7008320C100B3E7870031
S21401535403248100138504009385070083244100F8
S2140153641301010167800000130555FF3397A4005C
S2140153741317C7001357C700930400006FF01FFCF0
S214015384B7070100637AF5021337051013371700C0
S21401539413173700B7E706003355E5009387875799
S2140153A4B387A70003C5070093060002B386E64049
S2140153B43385A64067800000B70700016374F502D1
S2140153C413070001B7E706003355E50093878757AF
S2140153D4B387A70003C50700930600013385A640DB
S2140153E46780000013078001B7E706003355E50020
S2140153F493878757B387A70003C5070093068000E2
S2140154043385A640678000009305050093060000D7
S21401541413060000130500006F10C05C130101FFA2
S214015424930500002324810023261100130405009C
S214015434EF10006583A7C18F63840700E780070028
S21401544413050400EF90C0409305050003A5C18A27
S2140154546F0000019305050003A5C18A6F1090092A
S214015464130101FD232E3101232611022324810277
S21401547423229102232021039387B5001307600199
S214015484930905006362F7089307000163E4B720F4
S214015494EF0000799307800193052000930400012F
S2140154A437090700130989BDB307F90003A44700A8
S2140154B4138787FF6304E434832744008326C400E8
S2140154C40326840093F7C7FFB307F40003A7470036
S2140154D42326D60023A4C6001367170013850900E4
S2140154E423A2E700EF000074130584008320C102A1
S2140154F40324810283244102032901028329C10171
S214015504130101036780000093F487FF63C407183F
S21401551463E2B418EF00C0709307701F63FA973EF6
S21401552493D7940063800718130740006360F73429
S21401553493D76400938597031388870313963500DE
S21401554437090700130989BD3306C9000324460039
S214015554130686FF630886021305F0006F004001F8
S2140155648326C40063580728630ED60013840600F6
S2140155748327440093F7C7FF33879740E352E5FE3A
S214015584930508000324090193088900630014277E
S214015594832744009306F00093F7C7FF33879740A9
S2140155A463CEE636232A19012328190163520734E8
S2140155B41307F01F03254900636AF72413F787FFCF
S2140155C4130787003307E9008326070013D657001D
S2140155D493071000B397C7003365F500930787FF59
S2140155E42326F4002324D4002322A90023208700A1
S2140155F423A6860093D72540130610003316F6001B
S214015604636AC50AB377A6006394070213161600E5
S21401561493F5C5FFB377A60093854500639A070003
S21401562413161600B377A60093854500E38A07FE92
S2140156341308F000139335003303690013050300C0
S2140156448327C500138E05006304F52403A74700CA
S2140156541384070083A7C7001377C7FFB3069740D1
S2140156646344D824E3C206FE3307E40083264700D6
S214015674032684001385090093E616002322D70027
S2140156842326F60023A4C700EF00C059130584009F
S2140156946FF0DFE59307C00023A0F90013050000AF
S2140156A46FF0DFE413060020930500041308F003EB
S2140156B46FF01FE90324890023286101832744002E
S2140156C413FBC7FF63689B0033079B409307F000F7
S2140156D463CCE70C23229101232A510103A7418AB3
S2140156E483AA818F232C4101232671019307F0FF9E
S2140156F4330A6401B38A5401630AF73CB7170000FE
S2140157049387F700B38AFA00B7F7FFFFB3FAFA00F4
S21401571493850A0013850900EF00D0629307F0FF12
S214015724930B0500630EF54423248101636045252C
S21401573437EC2E00130C8CCE83250C00B385BA00EF
S2140157442320BC00138705006318AA2A9317450172
S2140157546394072A832B8900B3075B0193E7170039
S21401576423A2FB0083A6418F63F4B60023AAB18E5D
S21401577483A6018F63F4B60023A8B18E032C81009F
S21401578413840B0093F7C7FF3387974063EC97386E
S2140157949307F00063D8E738032A8101832A41017D
S2140157A4832BC100832C410093E714002322F400C9
S2140157B4B304940023249900136717001385090082
S2140157C423A2E400EF0000468320C10213058400EF
S2140157D403248102032B01018324410203290102CC
S2140157E48329C101130101036780000003254900D1
S2140157F46FF05FE0032684006FF01FCD03A4C7009B
S21401580493852500E38087D86FF01FCB13D79700C5
S2140158149306400063F2E6149306400163E6E6321B
S2140158241306C7059306B705131636003306C900D3
S21401583403270600130686FF6318E6006F00802917
S214015844032787006308E6008326470093F6C6FF0E
S214015854E3E8D7FE0326C7002326C4002324E40076
S21401586423248600232687006FF0DFD81307400120
S2140158746378F710130740056366F72E93D7C400C1
S2140158849385F7061388E706139635006FF05FCB0A
S214015894130E1E0093773E001305850063800710E0
S2140158A48327C5006FF05FDA0326840093E51400AE
S2140158B42322B4002326F60023A4C700B3049400CD
S2140158C4232A99002328990093E7160023A6140196
S2140158D423A4140123A2F4003307E400138509006A
S2140158E42320D700EF000034130584006FF01FC097
S2140158F4B307F40003A747001385090013671700CD
S21401590423A2E700EF000032130584006FF01FBEE8
S21401591493D53400938784006FF09FB893E6140000
S2140159242322D400B3049400232A9900232899003F
S2140159349366170023A6140123A4140123A2D400FA
S214015944B307F4001385090023A0E700EF00802DB8
S214015954130584006FF09FB913D7670013069703E6
