S00C00006D61696E2E7372656373
S214010094970107009381C1121701FF03130141F66B
S2140100A41385818C17E62E00130646A93306A6404F
S2140100B493050000EF70501C178500001305459644
S2140100C4EF60006CEF70D00B130500009305410040
S2140100D413060000EF00800E6F60C06B3705080042
S2140100E4370708009307C59B1307C79B630AF700E6
S2140100F493070000638607001305C59B6780070006
S21401010467800000370508009307C59B370708007A
S2140101149305C79BB385F54093D7254093D5F50141
S214010124B385F50093D51540638A0500930700004F
S214010134638607001305C59B678007006780000078
S214010144130101FF2324810083C78196232611000E
S21401015463940702EFF09FF893070000638A070091
S21401016437F507001305052D97000000E70000008A
S214010174930710002384F1968320C1000324810091
S21401018413010101678000009307000063860702DC
S21401019437F50700130101FF9385C1961305052D55
S2140101A42326110097000000E70000008320C10009
S2140101B4130101016FF01FF56FF0DFF4130101FD68
S2140101C423261102232481022322910223202103C0
S2140101D4232E3101EF208027EF109068EF20407C1A
S2140101E413088002930700141307800C930600007B
S2140101F413060000B7390300938589031385019418
S214010204EF00906E13088002930700141307800C06
S214010214930600001306000037D90200930589C32C
S2140102241385C193EF00506C1308800293070014E2
S2140102341307800C9306000013060000B77402002F
S2140102449385848313858193EF00106A13088002D3
S214010254930700141307800C93060000130600008E
S214010264370402009305844313854193EF00D06756
S21401027413088002930700141307800C93060014D6
S214010284130600009385890313850193EF00D06557
S21401029413088002930700141307800C93060014B6
S2140102A413060000930589C31385C192EF00D0633A
S2140102B413088002930700141307800C9306001496
S2140102C4130600009385848313858192EF00D06121
S2140102D413088002930700141307800C9306001476
S2140102E4130600009305844313854192EF00D05F03
S2140102F413088002930700141307800C9306002842
S214010304130600009385890313850192EF00D05DDF
S21401031413088002930700141307800C9306002821
S21401032413060000930589C31385C191EF00D05BC2
S21401033413088002930700141307800C9306002801
S214010344130600009385848313858191EF00D059A9
S21401035413088002930700141307800C93060028E1
S214010364130600009305844313854191EF00D0578B
S2140103741308D0079307A00F1307E0019306300272
S21401038413060000B795030093858543138581946E
S214010394EF0090559306800213068002B795040079
S2140103A49385C585B7E42F0013858482EF30006FEB
S2140103B413858482EF30901003A58194EF00404E9C
S2140103C403A58194EF00506513088000930700018C
S2140103D4130700059306000513060000B70502007F
S2140103E4938585331305C100EF0010500325C10022
S2140103F4EF00004BEF20D076130500008320C102E6
S2140104040324810283244102032901028329C101B1
S2140104141301010367800000130101FC232E11025E
S214010424232C8102232A9102232821032326310324
S214010434232441032322510323206103232E710124
S214010444232C8101232A91012328A1012326B1010A
S21401045413040500938C0500930D0600138D060006
S214010464130B0700938B07003305F70213151500CA
S214010474EF600035130C050013054000EF604034AF
S214010484930A05002322A40013054000EF604033BD
S214010494130A05002324A40013058000EF604032EC
S2140104A4930905002326A40013058000EF6040315C
S2140104B4130905002328A40013054000EF6040300B
S2140104C493040500232AA400232C6401232E74011B
S2140104D4930710002320F50023A0BA012320AA01C4
S2140104E4130700009307000023A0E90023A2F900E4
S2140104F42320E9002322F90013054003EF60402C72
S2140105042320A40023229503232A750123286501A9
S214010514232485032320550123224501232E350157
S21401052423202503232C95008320C1030324810360
S21401053483244103032901038329C102032A810277
S214010544832A4102032B0102832BC101032C81015F
S214010554832C4101032D0101832DC10013010104E4
S214010564678000006302050A130101FF23261100B8
S214010574232481002322910013040500130540015E
S214010584EF600024930405006308050683274400EE
S21401059403A7070023A0E40003278400832607009B
S2140105A423A2D40083A7070083268401B387D70038
S2140105B423A4F4008326C4019307900063C6D700DE
S2140105C49307A000232EF400832707000327C40102
S2140105D4B387E70023A6F40003A7818C23A8E400CD
S2140105E423A4918C8320C100032481008324410029
S2140105F41301010167800000379504001305C54DFA
S214010604EF6050736FF09FF867800000130101FFDD
S2140106142326110023248100130405000325050065
S214010624EF00002813050400EFF0DFF38320C10078
S214010634032481001301010167800000130101FFF7
S214010644232611002324810003A4818C630204045D
S21401065423229100232021019304000037990400EA
S214010664938504008327C40003278400832644005B
S21401067403260400938414001305894FEF60505930
S21401068403240401E31E04FC83244100032901001E
S2140106948320C10003248100130101016780000047
S2140106A4130101FE232E110083A7818C638E070A92
S2140106B4232C8100232A910023282101232631019A
S2140106C413040500938405001309060093890600A4
S2140106D4130500006F00000283A6070123A4D18C32
S2140106E46F00000403A707011385070063060706C6
S2140106F49307070003A70700E31687FE03A747002F
S214010704E31297FE03A78700E31E27FD03A7C7008E
S214010714E31A37FDE30205FC03A707012328E500D6
S21401072413850700EF60800A138709009306090002
S21401073413860400930504003795040013058551B8
S214010744EF60104D03248101832441010329010133
S2140107548329C1006F00000203248101832441011F
S214010764032901018329C100379504001305455463
S214010774EF60505C8320C101130101026780000011
S214010784130101FF2326110023248100130405000D
S21401079403250500EF00805F8327440003A50700B7
S2140107A48327840083A507008326C40103268401C6
S2140107B4B386D5003306C500EFF09FEE8320C10053
S2140107C4032481001301010167800000630C050600
S2140107D4130101FF232611002324810013040500BD
S2140107E4EFF01FFA8327040003A58702EF50107E5B
S2140107F40325440063040500EF50507D032584005F
S21401080463040500EF50907C0325C40063040500CF
S214010814EF50D07B0325040163040500EF50107BE1
S2140108240325440163040500EF50507A13050400C0
S214010834EF50D0798320C100032481001301010104
S21401084467800000678000008327450113060000C7
S2140108549305F0FF634CF00267800000B387C7027C
S214010864B387E7008326850293971700B387F600BC
S2140108742390B7001307170083270501E340F7FE0B
S2140108841306160083274501635AF60083270501DC
S21401089413070000E344F0FC6FF09FFE678000003E
S2140108A4130101FE232E1100232C810013040500DD
S2140108B48327050083A707002324F5008327450023
S2140108C483A707002326F500EFF01FF8930710000F
S2140108D42326F402832744016352F04A232A910013
S2140108E423282101232631012324410123225101F6
S2140108F4130600001303000F1305003C1308F0FF52
S21401090493021000130EF013377F2600130F4F3493
S214010914B71E1D00938E4E34930420001309F0274E
S214010924B71F1600938F4FB46F000042832944000B
S21401093403AA0900330A460193194A00B3894941B7
S21401094493996900B386D90093961600B386DF009F
S2140109548399060083268402B387F6002390370121
S2140109648327440083A60700B306D6008329040020
S21401097493974600B387D7409397670083A60900E9
S214010984B306D700B387D70093971700B387FF0042
S2140109942390B7006F00C000638E590C638A9926B2
S2140109A41307170083270401635AF73883260400C4
S2140109B483A60600B306D700E364D5FEB387C70251
S2140109C4B387E7009397170083254402B385F500A0
S2140109D483950500E38605FD83A9018DE39E09FA47
S2140109E4E346DEF403AA418D8326C400B306D6008B
S2140109F49396960083298400B3093701B38636019A
S214010A0493961600B386460183D90600832684028C
S214010A14B387F600239037018327440083A7070092
S214010A24B307F600939797008326040083A606006F
S214010A34B306D700B387D70093971700B387E701A8
S214010A442390B7008327440083A70700B307F60063
S214010A54939797008326040083A60600B306D7005F
S214010A64B387D70093971700B387D7012390B700AE
S214010A746FF01FF3635ADE0A6342D91203AA418D4B
S214010A848326C400B306D60093969600938606EC96
S214010A9483298400B3093701B38636019396160079
S214010AA4B386460183D9060083268402B387F600FB
S214010AB4239037018327440083A70700B307F60072
S214010AC493979700938707EC8326040083A6060072
S214010AD4B306D700B387D70093971700B7762600D7
S214010AE493864634B387D7002390B7008327440000
S214010AF483A70700B307F60093979700938707EC3D
S214010B048326040083A60600B306D700B387D7005E
S214010B1493971700B7161D0093864634B387D700FC
S214010B242390B7006FF0DFE7371A1600130A4AB4AA
S214010B348329440083AA0900B30A560193994A00FB
S214010B44B389594193996900B386D90093961600DF
S214010B54B306DA008399060083268402B387F60077
S214010B64239037018327440083A60700B306D600E3
S214010B748329040093974600B387D7409397670069
S214010B8483A60900B306D700B387D7009397170047
S214010B94330AFA002310BA006FF09FE0371A1600E2
S214010BA4130A4AB48329440083AA0900B30A5601E6
S214010BB493994A00B389594193996900B386D90038
S214010BC493961600B306DA008399060083268402F8
S214010BD4B387F600239037018327440083A60700D2
S214010BE4B306D6008329040093974600B387D740FB
S214010BF49397670083A60900B306D700B387D70087
S214010C0493971700330AFA002310BA006FF05FD9DE
S214010C14635CD90A9309003CE38436D903AA418D5F
S214010C248326C400B306D60093969600938606D808
S214010C3483298400B3093701B386360193961600D7
S214010C44B386460183D9060083268402B387F60059
S214010C54239037018327440083A70700B307F600D0
S214010C6493979700938707D88326040083A60600E4
S214010C74B306D700B387D70093971700B776260035
S214010C8493864634B387D7002390B700832744005E
S214010C9483A70700B307F60093979700938707D8AF
S214010CA48326040083A60600B306D700B387D700BD
S214010CB493971700B7161D0093864634B387D7005B
S214010CC42390B7006FF0DFCD371A1600130A4AB423
S214010CD48329440083AA0900B30A560193994A005A
S214010CE4B389594193996900B386D900939616003E
S214010CF4B306DA008399060083268402B387F600D6
S214010D04239037018327440083A60700B306D60041
S214010D148329040093974600B387D74093976700C7
S214010D2483A60900B306D700B387D70093971700A5
S214010D34330AFA002310BA006FF09FC61306160092
S214010D44832744016352F6028327440083A70700DE
S214010D54B307F600E364F3FE83270401E350F0FED1
S214010D64130700006FF09FC4832441010329010186
S214010D748329C100032A8100832A41008320C101FB
S214010D840324810113010102678000000327C502C1
S214010D94930710006306F700232605026780000008
S214010DA4832745016354F028130101FF232681009C
S214010DB423249100232221012320310183A5018DBF
S214010DC413060000130F000F1308F0FF130310009F
S214010DD4930F20009308F013B77E2600938E4E34AB
S214010DE4371E1D00130E4E349303F0271304F03BF5
S214010DF4B7121600938242B46F0000200329C5007F
S214010E043309260193164900B38626419396660054
S214010E14B386960093961600B386D2002390F60006
S214010E246F00C00063846508638CF513130717000D
S214010E3483270501635CF71AB387C702B387E70004
S214010E448326850293971700B387F60083970700D6
S214010E54E38E07FDE39805FC83248500B30497001D
S214010E64E3C604FCE3CC98F88326C500B306D60093
S214010E7493969600B386960093961600B386D6018B
S214010E842390F6008326C500B306D60093969600F3
S214010E9483248500B3049700B386960093961600C0
S214010EA4B386C6012390F6006FF05FF883248500AD
S214010EB4B304970063DA980463CC93068326C500CB
S214010EC4B306D60093969600938606ECB3869600F0
S214010ED493961600B386D6012390F6008326C500A2
S214010EE4B306D60093969600938606EC8324850073
S214010EF4B3049700B386960093961600B386C6018C
S214010F042390F6006FF09FF20329C50033092601EA
S214010F1493164900B386264193966600B3869600D7
S214010F2493961600B386D2002390F6006FF01FF056
S214010F34371916008329C500B3093601939649006B
S214010F44B386364193966600B3869600939616004A
S214010F54930449B4B386D4002390F6006FF01FEDD2
S214010F6483248500B304970063DA9304E34094EC86
S214010F748326C500B306D60093969600938606D8B4
S214010F84B386960093961600B386D6012390F60090
S214010F948326C500B306D60093969600938606D894
S214010FA483248500B3049700B386960093961600AF
S214010FB4B386C6012390F6006FF05FE73719160073
S214010FC48329C500B309360193964900B386364191
S214010FD493966600B386960093961600930449B4D6
S214010FE4B386D4002390F6006FF05FE41306160070
S214010FF4832745016350F6028327C500B307F6002D
S214011004E366FFFE83270501E352F0FE13070000A3
S2140110146FF09FE20324C100832481000329410069
S2140110248329010013010101678000006780000025
S21401103493070500032785010325070063020506B8
S21401104403A7850103250700630C050403A707000E
S2140110548326070003A705000326070003A7050147
S2140110643307E6001305000063DCE60203A7070165
S214011074B386E6006356D60203A747008326070015
S21401108403A745000326070003A745013307E60027
S21401109463D8E60083A74701B386F6003325D60056
S2140110A467800000032705008327070083A6050041
S2140110B403A606009386570063D4C7009386B7FF3A
S2140110C42320D700032745008327070083A645006E
S2140110D403A606009386570063D4C7009386B7FF1A
S2140110E42320D70067800000130101FC232E110280
S2140110F4232C8102232A9102232821032326310348
S214011104232441032322510323206103232E710147
S214011114232C8101232A91012328A1012326B1012D
S21401112493040500938D0500930C0600138C0600AA
S214011134930B0700138B0700930A0800130540035B
S214011144EF5000681304050023A0A40033055B03D5
S21401115413151500EF50C066130D05001305400066
S214011164EF500066130A05002320A400130540006F
S214011174EF500065930905002322A400130580009F
S214011184EF50006413090500232EA4001305800004
S214011194EF500063930405002320A40213054000C6
S2140111A4EF500062232CA40023286401232A54014F
S2140111B42322B4032324A4032320950123208A0194
S2140111C423A0790113070000930700002320E900F8
S2140111D42322F90023A0E40023A2F4008320C10300
S2140111E40324810383244103032901038329C102C0
S2140111F4032A8102832A4102032B0102832BC101A4
S214011204032C8101832C4101032D0101832DC1008F
S2140112141301010467800000630E0504130101FF36
S2140112242326110023248100130405000325050049
S214011234EF50C05903254400EF5040590325C4011B
S214011244EF50C05803250402EF504058032584018B
S214011254EF50C05703258402EF504057130504008E
S214011264EF50C0568320C1000324810013010101FD
S2140112746780000067800000130101FF2326110028
S214011284232481002322910093040500138405007E
S214011294130600009306000013850400930504005A
S2140112A4EF404013634005021385040093050400D0
S2140112B48320C1000324810083244100130101011A
S2140112C467800000B707008033C487006FF0DFFD36
S2140112D49357F54133C5A7003305F54067800000F1
S2140112E4130101FA232E1104232C8104232A9104C9
S2140112F423282105232631052324410523225105CC
S21401130423206105232E7103232C8103232A9103B1
S2140113142328A1032326B10313040500938405009F
S21401132413090600138D06002328E100232AF10081
S214011334232C0101232E1101834D010613050040C0
S214011344EF5000482320A10013050040EF5040470A
S2140113542322A10013050040EF5080462324A10058
S21401136413050040EF50C0452326A1001305004095
S214011374EF500045930C050013054000EF50404420
S214011384930B05002320A40213054000EF504043AD
S214011394130B05002322A40213058000EF504042DC
S2140113A4930A05002324A40213058000EF5040414C
S2140113B4130A05002326A40213054000EF504040FB
S2140113C4130C05002328A40213054000EF50403FE8
S2140113D4930905002320A404232A0402930710007A
S2140113E4232CF404232E0402930700012322F4047D
S2140113F4930700022324F40413050002EF50403C33
S2140114041307F0139307000063589700938704ECBF
S214011414B337F70093871700232AA4042328F40478
S214011424930710002320FC0023A09B0023202B01FC
S214011434130700009307000023A0EA0023A2FA0082
S2140114442320EA002322FA009307400623A0F9008A
S21401145493071006638EFD189308A0001308D9FF9E
S214011464938734001307A000930620001306100088
S21401147493850189EF20502713054003EF5040342C
S214011484930405002320A4002322A5039309000244
S214011494232A350113090001232825012324950352
S2140114A413054003EF50C031130A05002322A4009C
S2140114B4832701012322F502232A35012328250146
S2140114C4832701002324F50213054003EF50402F20
S2140114D4930A05002324A400832741012322F5024D
S2140114E4232A350123282501832741002324F502D5
S2140114F413054003EF50C02C130B05002326A4004C
S214011504832781012322F502232A35012328250175
S214011514832781002324F50213054003EF50402A54
S2140115242328A4008327C1012322F502232A350197
S214011534232825018327C1002324F50283250402D9
S21401154423A0B4000326440223A2C40083268402F3
S21401155423AED4000327C40223A0E4028327040392
S21401156423ACF4002320BA002322CA00232EDA0077
S2140115742320EA02232CFA0023A0BA0023A2CA00DD
S21401158423AEDA0023A0EA0223ACFA002320BB0030
S2140115942322CB00232EDB002320EB02232CFB008B
S2140115A42320B5002322C500232ED5002320E502DF
S2140115B4232CF5008320C1050324810583244105DA
S2140115C4032901058329C104032A8104832A4104CA
S2140115D4032B0104832BC103032C8103832C4103B6
S2140115E4032D0103832DC102130101066780000048
S2140115F49308A0001308D9FF938734001307A000AB
S214011604930620001306100093854189EF20D00D20
S2140116146FF09FE6130101FF2326110023248100A6
S21401162413040500630005048327040283A5070049
S214011634032544043385A5008327440283A60700B3
S21401164483278404B386F60083A7818C63980702F4
S214011654232E04028320C100032481001301010107
S214011664678000003795040013054555EF50906CCC
S2140116746FF09FFB83A70701E38C07FC03A74700D2
S214011684E3CAE6FE03A6C700E346D6FE03A6870022
S214011694E342B6FE03A60700E34EC5FC930710001B
S2140116A4232EF4028327C4021306000093060000C7
S2140116B423A0C70023A2D7008327440283268404D9
S2140116C43307D74023A0E7006FF0DFF89307050040
S2140116D403270503032507006302050603A78501FF
S2140116E403250700630C050403A7070283260700E6
S2140116F403A705000326070003A705013307E60031
S2140117041305000063DCE60203A74704B386E6007C
S2140117146356D60203A747028326070003A745009C
S2140117240326070003A745013307E60063D8E6004E
S21401173483A78704B386F6003325D60067800000A6
S214011744032705028327070083A6050003A60600D0
S2140117549386570063D4C7009386B7FF2320D70028
S214011764032745028327070083A6450003A6060030
S2140117749386570063D4C7009386B7FF2320D70008
S21401178467800000130101FF232611000327850348
S2140117949307700063E0E7069317270037A7040052
S2140117A413074799B387E70083A7070067800700F5
S2140117B403250500EFF08FDD8320C100130101012D
S2140117C46780000003254500EFF04FDC6FF0DFFE75
S2140117D403258500EFF08FDB6FF01FFE0325C500A0
S2140117E4EFF0CFDA6FF05FFD03250501EFF00FDAB6
S2140117F46FF09FFC3795040013050557EF5090537F
S2140118046FF09FFB6306050A130101FF23261100EF
S2140118142324810013040500EFF0DFF68327040078
S21401182403A58702EF40907A8327440003A5870225
S214011834EF40D0798327840003A58702EF4010790F
S2140118448327C40003A58702EF4050788327040149
S21401185403A58702EF40907703250402630405007D
S214011864EF40D0760325440263040500EF4010766A
S2140118740325840263040500EF4050750325C40262
S21401188463040500EF409074032504036304050014
S214011894EF40D0730325040463040500EF4010737E
S2140118A48320C10003248100130101016780000025
S2140118B467800000130101FF232611002324810001
S2140118C42322910023202101930405001304000020
S2140118D41309800283A7440583A70700B3878700FB
S2140118E403A50700EFE0DFFB13044400E31424FF21
S2140118F49305A00003A54405EF2050038320C100EF
S21401190403248100832441000329010013010101FA
S21401191467800000130101FE232E1100232C810091
S214011924232A910023282101130405008327450552
S21401193403A7C7016356E0029304000083A70700C8
S21401194413972400B387E70003A50700EFF00FC43D
S214011954938414008327440503A7C701E3C0E4FE68
S21401196403A747008327040283A70700938737004A
S2140119742320F7008327440503A78700832744020F
S21401198483A707009387D7FF2320F7009307000058
S2140119941308A0000327440513962700832607008F
S2140119A4B386C60083A6060083A506000325470062
S2140119B483260701B386D702032705003307D7001A
S2140119C423A0E5008326440503A706003307C700C2
S2140119D4032707000327470083A6860083A606007D
S2140119E42320D70093871700E39607FB8327040475
S2140119F403A50700930740063345F502EF4050441C
S214011A04B707080003A6079C83A6479CEF30103D42
S214011A14EF40D03A130905006356A0062326310188
S214011A2423244101232251019304000093096000F9
S214011A34130A1000930A70006F00C0009384140008
S214011A44630C990203274403E30A37FF83278403BD
S214011A549387A7FFE374FAFEE30257FF832744053F
S214011A6483A7070013972400B387E70003A507009D
S214011A74EFE01FE36FF09FFC8329C100032A810076
S214011A84832A41009305090003254405EF20006AD3
S214011A948320C10103248101832441010329010117
S214011AA41301010267800000130101FF23261100C0
S214011AB42324810013040500638405020327840399
S214011AC49307700063E6E7029317270037A704001D
S214011AD41307479BB387E70083A7070067800700C0
S214011AE4EFF05FE36FF09FFD03250400EFF00FAA0C
S214011AF4032744039307700063EAE7049317270058
S214011B0437A704001307479DB387E70083A7070099
S214011B146780070003254400EFF04FA76FF05FFDD1
S214011B2403258400EFF08FA66FF09FFC0325C40005
S214011B34EFF0CFA56FF0DFFB03250401EFF00FA54F
S214011B446FF01FFB03250400EFE09FD58320C1003F
S214011B54032481001301010167800000032544006A
S214011B64EFE01FD46FF09FFE03258400EFE05FD300
S214011B746FF0DFFD0325C400EFE09FD26FF01FFD79
S214011B8403250401EFE0DFD16FF05FFC130101FFD1
S214011B94232611002324810023222101232031013D
S214011BA4930710006388F5040324850203290400BF
S214011BB48329440003A6018283A6418213050900F2
S214011BC493850900EF3010116358050A03A70182B3
S214011BD483A741822320E4002322F4008320C1004A
S214011BE40324810003294100832901001301010113
S214011BF46780000003248502032904008329440026
S214011C0403A6818083A6C180130509009385090074
S214011C14EF30407C635CA00003A7818083A7C1806A
S214011C242320E4002322F4006FF05FFB03A6018166
S214011C3483A641811305090093850900EF309009B5
S214011C44635C050003A7018183A741812320E40087
S214011C542322F4006FF09FF803A6818183A6C18135
S214011C641305090093850900EF2080712320A40041
S214011C742322B4006FF09FF603A6818283A6C18255
S214011C841305090093850900EF30C074635CA00056
S214011C9403A7818283A7C1822320E4002322F400C0
S214011CA46FF0DFF303A6818183A6C18113050900C2
S214011CB493850900EF4000002320A4002322B400EA
S214011CC46FF0DFF1130101FE232E1100232C810096
S214011CD4232A910023282101130405006306052005
S214011CE42326310123244101232251019384050033
S214011CF41309060083274503232CF502B7F70700CB
S214011D0483A5072E13850400EF50906D6306050026
S214011D1483A7C1896392070623AE0188930910003D
S214011D24232A34039305000013050400EFF01FE68D
S214011D34032A0402832A840203250A00EF40501072
S214011D4403A60A0083A64A00EF208063EF4010072B
S214011D542320AA00032A840203250900EF40500E1B
S214011D6403260A0083264A00EF208061EF4010050F
S214011D742320A900232C3405B7F7070083A5472E93
S214011D8413850400EF50D0656306050083A7018A16
S214011D946392070623A0018A93092000232A3403A9
S214011DA49305100013050400EFF05FDE032A040216
S214011DB4832A840203250A00EF40900803A60A003A
S214011DC483A64A00EF20C05BEF40407F2320AA0091
S214011DD4032A840203250900EF40900603260A001D
S214011DE483264A00EF20C059EF40407D2320A900F6
S214011DF4232C3405B7F7070083A5872E1385040023
S214011E04EF50105E631805000327C40493071000FF
S214011E1463D4E70EB7F7070083A5C72E138504001E
S214011E24EF50105C6310050283278402130600003A
S214011E349306000023A0C70023A2D70013071000AF
S214011E4423AEE188B7F7070083A5072F138504009F
S214011E54EF501059631C050E8327840213060000F5
S214011E649306000023A0C70023A2D700130710007F
S214011E7423A0E18A8329C100032A8100832A410021
S214011E848327840203A5070083A54700EF40007358
S214011E94631E05008324C40203A5040083A544002D
S214011EA4EF40C071631C050A232A04028324C4027A
S214011EB403A5040083A54400EF4040706310050A9F
S214011EC48327C403639E070A832784051307200018
S214011ED4638EE70C13071000639EE70C93076000FC
S214011EE4232AF4026F00000D3795040013054555A7
S214011EF4EF5040646FF0DFF8832784051307200052
S214011F04638AE70213071000638CE7028327C4027F
S214011F1403A6018283A6418223A0C70023A2D70079
S214011F24232E04028327C404938717002326F4046C
S214011F346FF05FEE93077000232AF4026FF01FFD23
S214011F4493076000232AF4026FF05FFC8329C10023
S214011F54032A8100832A41006FF09FF28327C4037A
S214011F64130710006382E702032784059306200003
S214011F746308D702930610006304D70C638C070228
S214011F84232604046F00400713070000930700008C
S214011F9423A0E40023A2F400232A04026FF05FF2D4
S214011FA413077000232AE402E39C07FC93077000DE
S214011FB4232AF4028324C40203A6018383A641834D
S214011FC403A5040083A54400EF20803B23A0A400BE
S214011FD423A2B400832444020329C40203A50400F3
S214011FE4EF4000660326090083264900EF204039A6
S214011FF4EF40C05C23A0A4008327040203A70700C4
S2140120049306F0139307000063DAE600130707EC60
S2140120149307F013B3B7E700938717002328F40454
S21401202413050400EFF00FDF8320C10103248101AF
S2140120348324410103290101130101026780000081
S21401204413076000232AE402E38A07E86FF05FF3CC
S2140120549307100023AEF18823A0F18A678000005D
S21401206437131600130343DCB7B80C00938848B43F
S21401207437080800130848B43765110013054504EA
S214012084130E0000B78E0300938E0E40130705B09F
S214012094130608009386080093070300938507D860
S2140120A42320B70023A0F600938507282320B60033
S2140120B413074700938727009386460013064600B6
S2140120C4E31EA7FC130303789388085013080850EB
S2140120D4130E0E3C13050550E31ADEFB6780000061
S2140120E4B7681100938848B49305002813080000C4
S2140120F437E30100931718009386080003A7418D60
S2140121043307F70003A60600035707002310E6006B
S2140121149387270093864600E392B7FE9388085078
S2140121241308082093850540E31668FC67800000C1
S214012134B7B80C00938848B4930500281308000028
S21401214437E30100931718009386080003A7418D0F
S2140121543307F70003A60600035707002310E6001B
S2140121649387270093864600E392B7FE9388085028
S2140121741308082093850540E31668FC6780000071
S214012184B7080800938848B493050028130800008C
S21401219437E30100931718009386080003A7418DBF
S2140121A43307F70003A60600035707002310E600CB
S2140121B49387270093864600E392B7FE93880850D8
S2140121C41308082093850540E31668FC6780000021
S2140121D493959500B385A50093951500B7772600CA
S2140121E493874734B387F5002390C700B7171D00BC
S2140121F493874734B385F5002390C50067800000B4
S214012204130101FE232E1100232C8100232A9100A1
S21401221423282101232631012324410123225101AC
S214012224376A1100130A4AB4B7BA0400B30A5A014A
S214012234130900009309001493040A001304000010
S21401224483A70400039607009305090013050400F9
S214012254EFF01FF81304140093844400E31234FFD0
S21401226413091900130A0A50E3185AFD8320C10101
S2140122740324810183244101032901018329C10027
S214012284032A8100832A41001301010267800000AA
S214012294130101FE232E1100232C8100232A910011
S2140122A4232821012326310123244101232251011C
S2140122B437BA0C00130A4AB4B7BA0400B30A5A016F
S2140122C4130900009309001493040A001304000080
S2140122D483A7040003960700930509001305040069
S2140122E4EFF01FEF1304140093844400E31234FF49
S2140122F413091900130A0A50E3185AFD8320C10171
S2140123040324810183244101032901018329C10096
S214012314032A8100832A4100130101026780000019
S214012324130101FE232E1100232C8100232A910080
S214012334232821012326310123244101232251018B
S214012344370A0800130A4AB4B7BA0400B30A5A0192
S214012354130900009309001493040A0013040000EF
S21401236483A70400039607009305090013050400D8
S214012374EFF01FE61304140093844400E31234FFC1
S21401238413091900130A0A50E3185AFD8320C101E0
S2140123940324810183244101032901018329C10006
S2140123A4032A8100832A4100130101026780000089
S2140123B4130101FE232E1100232C8100232A9100F0
S2140123C42328210123263101930400001309000F59
S2140123D49309001413040000130600009305040077
S2140123E413850400EFF0DFDE13041400E31624FF64
S2140123F493841400E39034FF8320C10103248101F4
S21401240483244101032901018329C1001301010227
S21401241467800000B73720FF1307100023A0E702E8
S214012424B73720FF9387C70283A7070093F71700E0
S214012434638C0700373720FF1307C702832707007B
S21401244493F71700E39C07FE67800000130101FF62
S21401245423261100232481002322910003A7418A05
S214012464B7772600938747342322F700EFF09FFAC5
S21401247483A7418A83A7070023AAF18CEFF05FF3B1
S21401248403A7418AB7171D00938747342322F70011
S2140124948327470023AAF18CEFF09FF18320C10024
S2140124A40324810083244100130101016780000095
S2140124B4130101FF2326110037950400130505585F
S2140124C4EF504007379504001305C559EF508006B1
S2140124D403A3818A83C6118E03C6018EB7880000C2
S2140124E49305000F130EA0056F00800193060600E6
S2140124F413F6F70F23AEF18C23ACE18C638AB60096
S2140125048327030033F71701E30607FE6FF01FFE68
S214012514E318C6FF2380018EA380018E2381018EDA
S214012524379504001305455BEF50C0008320C100B6
S2140125341301010167800000130101FF2326110026
S2140125449300000003AE818A83C6018E03C6118EF2
S214012554930F0000930200009303000037830000EA
S2140125649305100013056001930EE001130F000F8D
S2140125746F0080006308E60783270E0033F76700C1
S214012584630E0700930006001386060093F6F70F02
S214012594938F0500938205009383050023AEF18C87
S2140125A423ACE18CE388A6FCE398D6FDE316E6FDAE
S2140125B463860F001307E0012380E18E6384020023
S2140125C42381118E63860300130700FFA380E18E27
S2140125D4379504001305855DEF40D075130510008B
S2140125E46F00400363860F00130760012380E18EAA
S2140125F4638402002381118E63860300130700FFA0
S214012604A380E18E379504001305455CEF40907274
S214012614130500002380018EA380018E2381018E81
S2140126248320C1001301010167800000130101FF2B
S214012634232611009300000003AE818A83C6018E0F
S21401264403C6118E930F000093020000930300004B
S214012654378300009305100013056001930EE00113
S214012664130F000F6F0080006308E60783270E0030
S21401267433F76700630E070093000600138606000F
S21401268493F6F70F938F0500938205009383050055
S21401269423AEF18C23ACE18CE388A6FCE398D6FD4B
S2140126A4E316E6FD63860F001307E0012380E18E3F
S2140126B4638402002381118E63860300130700FFDF
S2140126C4A380E18E379504001305855DEF4090667F
S2140126D4130510006F00400363860F0013076001A3
S2140126E42380E18E638402002381118E63860300B6
S2140126F4130700FFA380E18E379504001305C55E1A
S214012704EF405063130500002380018EA380018EE1
S2140127142381018E8320C10013010101678000001B
S21401272483A7818A83A7070023AEF18C378700002D
S21401273433F7E70023ACE18C13050000630C0702B2
S21401274403C7118E2381E18E83C6018EA380D18EA9
S21401275493F7F70F2380F18E1306000E630EC7005E
S2140127649307E001130500006316F7009307000FB3
S2140127746384F60C67800000130750076384E6063B
S2140127846362D7029307B0066384F606930740078D
S2140127946398F600B7F7070003A5472E6780000085
S2140127A4678000001307000F639AE60213075007B9
S2140127B46386E704130720076388E7041307B00654
S2140127C46386E7061307400713050000E394E7FA58
S2140127D4B7F7070003A5072F67800000130500005D
S2140127E467800000B7F7070003A5872E67800000FF
S2140127F4B7F7070003A5072E67800000B7F70700A1
S21401280403A5472F67800000130101FF232611004B
S2140128143795040013058560EF40D0511305000079
S2140128248320C1001301010167800000B7F7070088
S21401283403A5C72E67800000B7F7070003A5872FF7
S2140128446780000083A7818A83A7070023AEF18CE3
S2140128543787000033F7E70023ACE18C130500004B
S2140128646304070E83C6118E2381D18E03C7018E9E
S214012874A380E18E93F7F70F2380F18E1306000EE3
S2140128846380C6029307900213050000639EF60A4E
S2140128946302F70A9307000F6304F70A67800000D0
S2140128A493064007630CD70663FAE60293065007BD
S2140128B4630AD7049306000F6312D704130750075D
S2140128C46384E7061307200713050000639EE706E3
S2140128D4B7F7070003A50731678000009307B00622
S2140128E46308F702930720076318F700B7F7070092
S2140128F403A5C73067800000678000001305000049
S21401290467800000B7F7070003A54730678000001B
S214012914B7F7070003A5073067800000B7F707007D
S21401292403A5C72F67800000B7F7070003A5873004
S21401293467800000B7F7070003A5473167800000EA
S214012944B7F7070003A5873167800000130101FF6D
S2140129542326110023248100232291002320210110
S2140129641309050093840500EF3050451304050050
S214012974EF30104D1306090093860400EF209035BE
S214012984132505003305A4008320C1000324810018
S214012994832441000329010013010101678000001B
S2140129A403A7418E930610062300D70083A7418E02
S2140129B423A2070023A407002386070067800000DC
S2140129C49306050093871500938545001308300088
S2140129D41306800033E50703131725003387E60043
S2140129E403270700032747036316C70093871700C7
S2140129F4E392B7FE67800000130590066780000027
S214012A04130101F923261106232481062381018E4D
S214012A14A380018E2380018E83A7418E03C70700FE
S214012A24930710066308F70803A50194EFD05FE740
S214012A3403A50193EFD0DFE603A50192EFD05FE68D
S214012A4437A5040013050583EF40D02E83A7418ED6
S214012A5403A6870083C5070037950400130545734D
S214012A64EF40101BEFF05FAD2326A100630C054E6B
S214012A7403A4418E8325840037D52F001305053B17
S214012A84EFF01FF42324A400930710062300F40098
S214012A94EFF09FF69305050037A50400130545815D
S214012AA4EF4010178320C106032481061301010792
S214012AB46780000003A50194EFD09FDE03A5019370
S214012AC4EFD01FDE03A50192EFD09FDD37950400FA
S214012AD413054572EF40102683A7418E03A64700CF
S214012AE483C507003795040013054573EF4050125C
S214012AF4EFF09FA42326A10063120540232291062A
S214012B0423202107232E3105232C4105232A510591
S214012B142328610523267105232481052322910593
S214012B242320A105232EB10303A58193EFD05FD7FC
S214012B3403A58192EFD0DFD603A58191EFD05FD6AE
S214012B44379504001305C576EF40D01E37A404005C
S214012B5437D52F0093044534930800001308E00D7D
S214012B649307A00C130790019306E00013062000B8
S214012B749305449F13054534EF100037930800006E
S214012B841308E00D9307A020130790019306E000B5
S214012B94130620009305449F13850402EF10C034E6
S214012BA4930800001308E00D9307A034130790015F
S214012BB49306E000130620009305449F138504043E
S214012BC4EF1080323795040013050579EF4090160F
S214012BD423260102B7FD070003AB018483AB4184BE
S214012BE403AA818383AAC18303A781832328E100DF
S214012BF483A7C183232CF10003A9818483A9C184FB
S214012C046F00C006B307F0402326F102130D10002F
S214012C146F00800EEFF0CFD1EFF08FDE6F00400132
S214012C24930710006306FC14930720006306FC1642
S214012C3403A7018D23A6E18CB7D72F0003A407367B
S214012C446340941863C2841C9385040037D52F000F
S214012C5413054534EF10804D63080D008327C10228
S214012C64B307F0402326F102EFF0CFFA0325C102A1
S214012C74EFE00FE69307700C63CCA71CEFF05FAA96
S214012C849305050093870D2E83A787016382A71CEE
S214012C9437D42F001304443483A7418E83A74700F7
S214012CA493972700B307F4001306C10203A507068A
S214012CB4EFF04F8183A7418E83A7470093972700A0
S214012CC4B307F4009305000003A50706EFE0DFDD74
S214012CD483A7418E83A74700939727003304F40004
S214012CE48327040603AC070523A8818D8327C10225
S214012CF4032DC100E3C807F00325C102EF305014C9
S214012D0413060B0093860B00EF1010749304050052
S214012D141384050013060A0093860A00EF20806BCD
S214012D246356A000832401010324810113060900CC
S214012D34938609001385040093050400EF20100A06
S214012D44EF30D00793040500E31C0CEC83A7C18C79
S214012D54E38007EE13071000E38EE7EA130720006B
S214012D64E398E7ECEFF0CFC1EFF08FC96FF05FECBB
S214012D7483A7C18C638C070013072000E39AE7EA54
S214012D84EFF00FC0EFF0CFD06FF09FEAEFF04FB542
S214012D94EFF00FD06FF0DFE983A7C18C638C0700D7
S214012DA413071000E396E7E8EFF08FB8EFF04FD77C
S214012DB46FF01FE8EFF0CFB2EFF08FD66FF05FE75A
S214012DC4B7DC2F00938C4C34131C240083A70C000F
S214012DD4B387870103A50700EFD09FAC83A70C0236
S214012DE4B387870103A50700EFD09FAB83A70C0425
S214012DF4B387870103A50700EFD09FAA1304140025
S214012E04E39484FC6FF05FE4B7DC2F00938C4C34BE
S214012E14131C240083A70C00B387870103A50700AE
S214012E24EFD0DFF683A70C02B387870103A507005B
S214012E34EFD0DFF583A70C04B387870103A507004A
S214012E44EFD0DFF41304F4FFE39484FC6FF0DFDFC8
S214012E5437D52F00130445348325C4019385F5FF24
S214012E6413054534EF10002D8325C4019385F5FF22
S214012E7413050402EF10002C8325C4019385F5FF86
S214012E8413050404EF10002BEFF08F9C2380018EB2
S214012E94A380018E2381018E83A7418E03A647005A
S214012EA483C50700379504001305457BEF4040565C
S214012EB403A5C193EFD0DF9E03A5C192EFD05F9E19
S214012EC403A5C191EFD0DF9DEFF04FF6630405062D
S214012ED483244106032901068329C105032A8105A2
S214012EE4832A4105032B0105832BC104032C81048A
S214012EF4832C4104032D0104832DC10303A4418EB5
S214012F048325440037D52F001305453AEFF05FAB10
S214012F142322A400930720062300F400EFF0DFAD7C
S214012F249305050037A5040013054581EF40404E7F
S214012F346FF05FB703A54193EFD09F9603A5419227
S214012F44EFD01F9603A54191EFD09F9537950400C6
S214012F541305457FEF40005EEFF0DF8EEF40805DA6
S214012F646FF09FFF2322910623202107232E31058C
S214012F74232C4105232A510523286105232671059F
S214012F8423248105232291052320A105232EB103A1
S214012F9403A58193EFD0DF9003A58192EFD05F90D4
S214012FA403A58191EFD0DF8F2326010237FD0700A9
S214012FB403AB018483AB418403AA818383AAC183BF
S214012FC403A78183232CE10083A7C183232EF10069
S214012FD403A8C18483A781842328F100232A01013D
S214012FE46F00C006B307F0402326F102930C1000CD
S214012FF46F00800EEFF0CF93EFF08FA06F004001CB
S214013004930710006306F914930720006306F91664
S21401301403A7018D23A6E18CB7D72F0003A4073697
S2140130246340941863C0841E9385040037D52F002B
S21401303413054534EF10800F63880C008327C10203
S214013044B307F0402326F102EFF0CFBC0325C102FB
S214013054EFE00FA89307700C63C8A720EFF04FECBE
S2140130649305050093070D2E83A78701638EA71E7C
S21401307437D42F001304443483A7418E83A78700D3
S21401308493972700B307F4001306C10203A5C706E6
S214013094EFE05FC383A7418E83A78700939727003A
S2140130A4B307F4009305000003A5C706EFE0DF9F0E
S2140130B483A7418E83A78700939727003304F400E0
S2140130C48327C40603A9070523A8218D8327C102E4
S2140130D4832CC100E3C807F00325C102EF30405634
S2140130E413060B0093860B00EF10103693040500AD
S2140130F41384050013060A0093860A00EF20802D28
S2140131046356A000832481010324C101032601011F
S214013114832641011385040093050400EF20004C27
S214013124EF30C04993040500E31C09EC83A7C18C66
S214013134E38007EE13071000E38EE7EA1307200087
S214013144E398E7ECEFF0CF83EFF08F8B6FF05FEC53
S21401315483A7C18C638C070013072000E39AE7EA70
S214013164EFF00F82EFF0CF926FF09FEAEFE05FF798
S214013174EFF00F926FF0DFE983A7C18C638C070031
S21401318413071000E396E7E8EFE09FFAEFF04F9994
S2140131946FF01FE8EFE0DFF4EFF08F986FF05FE772
S2140131A413192400930D1000B7D92F0093894934BD
S2140131B46F00000283A70900B387270103A5070050
S2140131C4EFD00FEE1304140013094900E38E84E4D0
S2140131D483A7018DE38007FE638CB70183A70904E7
S2140131E4B387270103A50700EFD08FEB6FF09FFD90
S2140131F483A70902B387270103A50700EFD04FEA87
S2140132046FF05FFC13192400930D1000B7D92F003B
S214013214938949346F00000283A70900B387270105
S21401322403A50700EFD09FB61304F4FF1309C9FFE3
S214013234E34C94DE83A7018DE38007FE638CB7011C
S21401324483A70904B387270103A50700EFD01FB49A
S2140132546FF09FFD83A70902B387270103A5070023
S214013264EFD0DFB26FF05FFC37D52F00130445347F
S2140132748325C4019385F5FF13054534EF00906B50
S2140132848325C4019385F5FF13050402EF00906AB4
S2140132948325C4019385F5FF13050404EF009069A3
S2140132A4EFE01FDB2380018EA380018E2381018E34
S2140132B483A7418E03A6870083C5070037950400BC
S2140132C41305457BEF40C01403A5C193EFD04FDD32
S2140132D403A5C192EFD0CFDC03A5C191EFD04FDC9B
S2140132E4EFF0CFB4630A05028324410603290106DD
S2140132F48329C105032A8105832A4105032B010578
S214013304832BC104032C8104832C4104032D010463
S214013314832DC1036FF0CFF5379504001305457F60
S214013324EF40402137A5040013050584EF408020B3
S21401333483244106032901068329C105032A81053D
S214013344832A4105032B0105832BC104032C810425
S214013354832C4104032D0104832DC1036FF04FF127
S214013364130101FC232E1102232C8102232A91022C
S2140133742328210323263103232441032322510333
S21401338423206103232E7101232C8101232A910119
S21401339437A804001308489FB7B404009384449FD5
S2140133A437D42F0013044434930A840713091006F0
S2140133B42320210193088803130888439387848371
S2140133C4138784C3938684031306F0089305400782
S2140133D413850A00EFD0DFF0B7C604009386469F34
S2140133E4130A440D2320210193888443138886837A
S2140133F4938786C313878603938686431306F0084A
S2140134049305600A13050A00EFD09FED37D7040031
S2140134141307479FB7E404009384449F9309041356
S2140134242320210193088783130887C393078703FF
S21401343413078743938684831306F0089305800D48
S21401344413850900EFD0DFE9B7FB0400938B4B9F8C
S2140134541309C418130C200623208101938884C3FE
S214013464138884039387844313878B8393868BC340
S2140134741306F0089305C03913050900EFD05FE67B
S214013484B70405009384449F130B841E23208101F3
S21401349493888B0313888B4393878483138784C30E
S2140134A4938684031306F0089305A03613050B00D0
S2140134B4EFD01FE3B71605009386469F930B44246B
S2140134C4232081019388844313888683938786C344
S2140134D413878603938686431306F0089305803381
S2140134E413850B00EFD0DFDFEFF08FCB23205407DB
S2140134F42322440723243407232624072328640786
S214013504232A7407EFE0DFFA83A7418E130710001E
S2140135142386E70037E52F0013058582EF00900A1E
S21401352403A58194EFD09F8693068002130680023A
S214013534B7D507009385C5FDB7E42F0013854480EE
S214013544EF00C05513854480EF004077138544800F
S214013554EF005007B72405009384449F13085001D5
S21401356493075001130770029306A0111306100067
S214013574938584831385C190EFD01FB703A5C190AB
S214013584EFD00FB203A5C190EFD01FC913081002E4
S214013594930720031307C0089306B004130610000C
S2140135A4B7C507009385852F13858190EFD0DFB3C8
S2140135B403A58190EFD0CFAE03A58190EFD0DFC5F0
S2140135C41308B0019307003C1307D00A93060000C2
S2140135D413061000B7050700938585871385419068
S2140135E4EFD09FB003A54190EFD08FAB03A54190D8
S2140135F4EFD09FC21308500A930740051307B00083
S2140136049306C02813061000B7950600938505C3D4
S21401361413850190EFD05FAD03A50190EFD04FA8BD
S21401362403A50190EFD05FBF1308C00593070007F9
S214013634130780059306900813061000B775050056
S214013644938505EB1385818EEFD01FAA03A5818E82
S214013654EFD00FA503A5818EEFD01FBC13088003FE
S2140136649307D0051307200893066030130610004D
S214013674B7C50500938505F31385018FEFD0DFA643
S21401368403A5018FEFD0CFA103A5018FEFD0DFB83B
S2140136941308A00193072002130790099306A0209C
S2140136A4130610009385C4BA1385C18EEFD0DFA329
S2140136B403A5C18EEFD0CF9E03A5C18EEFD0DFB593
S2140136C4130840049307E0101307D0019306D0159E
S2140136D413061000B7050600938505CC1385C18F24
S2140136E4EFD09FA003A5C18FEFD08F9B03A5C18FF9
S2140136F4EFD09FB2130890059307F0001307F00567
S2140137049306001513061000B7F5050093850525E5
S2140137141385818FEFD05F9D03A5818FEFD04F98DE
S21401372403A5818FEFD05FAF130890059307F000D0
S2140137341307F0059306902613061000B7E5050057
S2140137449385057E1385418FEFD01F9A03A5418F7C
S214013754EFD00F9503A5418FEFD01FAC930C042A2D
S21401376493079000130750019306D0021306A01185
S2140137749385442913850C00EFC01FCA13850C00DA
S214013784EFC0DFE8930C042C9307700013070002C4
S214013794930690091306A0209385044113850C0013
S2140137A4EFC09FC713850C00EFC05FE6930C042E91
S2140137B4930740001307C0029306A0091306E0040A
S2140137C49385045D13850C00EFC01FC513850C009B
S2140137D4EFC0DFE3930C0430930730001307801324
S2140137E49306D00A130600009385047313850C0010
S2140137F4EFC09FC213850C00EFC05FE1930404324F
S214013804930750001307E0159306D00A13062026E3
S214013814B76505009385451013850400EFC0DFBF27
S21401382413850400EFC09FDEB73405009384449FDC
S214013834930C0434930750001307C0089306200B17
S2140138441306C013938504E813850C00EFC0DFBC90
S21401385413850C00EFC09FDB930C043693076000BE
S2140138641307F0069306200B1306501F9385843F17
S21401387413850C00EFC05FBA13850C00EFC01FD987
S214013884B74405009384449F930C04389307A0001F
S21401389413072004930630041306A0289385C492C4
S2140138A413850C00EFC05FB713850C00EFC01FD65D
S2140138B4930C043A93078000130760019306F004FF
S2140138C41306C02A938544E513850C00EFC0DFB4C4
S2140138D413850C00EFC09FD3930C043C9307800020
S2140138E413079001930610061306C02A938544FB1A
S2140138F413850C00EFC05FB213850C00EFC01FD117
S214013904930C043E930780001307C0019306300707
S2140139141306B02A9385441413850C00EFC0DFAF59
S21401392413850C00EFC09FCE930C044093078000D0
S21401393413070002930630081306A02A9385443021
S21401394413850C00EFC05FAD13850C00EFC01FCCD0
S214013954930C044293078000130730029306600910
S2140139641306A02A9385445013850C00EFC0DFAAE2
S21401397413850C00EFC09FC9930404449307B00059
S214013984130700109306D00113064016B745050029
S2140139949385851213850400EFC01FA813850400C0
S2140139A4EFC0DFC6130404469307D00013071006BE
S2140139B49306100613064009B755050093858572CC
S2140139C413050400EFC05FA513050400EFC01FC470
S2140139D49305100013850A00EFE00F8D9305100080
S2140139E413050A00EFE04F8C9305100013850900B8
S2140139F4EFE08F8B9305100013050900EFE0CF8AE3
S214013A049305100013050B00EFE00F8A93051000D1
S214013A1413850B00EFE04F8913850A00EFD09FE969
S214013A2413050A00EFD01FE913850900EFD09FE8BC
S214013A3413050900EFD01FE813050B00EFD09FE72D
S214013A4413850B00EFD01FE783A7418E83C7C700FA
S214013A54638C070013040C00EFE09FFA83A7418EE2
S214013A6483C7C700E39A07FE8320C10303248103A7
S214013A7483244103032901038329C102032A810202
S214013A84832A4102032B0102832BC101032C8101EA
S214013A94832C41011301010467800000130101FA1C
S214013AA4232E1104232C8104232A9104232821057F
S214013AB42324410523225105232A91032326B103F6
S214013AC4930C0500232CB100930D06001389060000
S214013AD42328D1009307003C33E4C7023334800023
S214013AE4B3C7C7023304F400232085029307000FEB
S214013AF4B3E4D702B3349000B3C7D702B384F40057
S214013B04232E95003305D60213152500EF20504BBE
S214013B1423A2AC0013054000EF20904A23A4AC0076
S214013B2413054000EF20D04923A6AC00130540003E
S214013B34EF20104923A8AC0023AABC0123AC2C0116
S214013B44232005003305940213152500EF20504762
S214013B5423A0AC00232E010023260100130A000033
S214013B64930A000063589012232631052320610529
S214013B74232E7103232C81032328A1036F00800EB7
S214013B8413054003EF20D043130405008327810166
S214013B942322F50283270101232AF5002328B501F0
S214013BA483A74C002324F50213054000EF2050415F
S214013BB4930B05002320A40013054000EF2050407A
S214013BC4130B05002322A40013058000EF20503FA9
S214013BD493090500232EA40013058000EF20503E10
S214013BE4130905002320A40213054000EF20503DCD
S214013BF4232CA40023A0AB01832741012320FB002F
S214013C0423A0490123A25901232049012322590152
S214013C14232005008327C100B384F402B3848401FE
S214013C2483A70C0093942400B387970023A08700EE
S214013C34130C1C0083A40C02330DBD01E3429CF457
S214013C448327C100138717002326E1008327C101B8
S214013C5483260101B387D700232EF10083A7CC0165
S214013C646350F70283A40C028327C101232AF100BF
S214013C74130D0000130C0000E34490F06FF05FFC9A
S214013C848329C104032B0104832BC103032C810361
S214013C94032D01038320C1050324810583244105E3
S214013CA403290105032A8104832A4104832C410341
S214013CB4832DC1021301010667800000130101FF71
S214013CC423261100232291002320210193040500B9
S214013CD48327C50113090000635AF00423248100D5
S214013CE46F008003B3872703B387870003A7040005
S214013CF493972700B307F70003A50700EFC05FBA41
S214013D041304140083A70402E34EF4FC13091900F8
S214013D1483A7C401635AF90083A7040213040000AD
S214013D24E342F0FC6FF09FFE032481008320C10070
S214013D348324410003290100130101016780000067
S214013D44130101FF232611002322910023202101C0
S214013D54930405008327C50113090000635AF00480
S214013D64232481006F008003B3872703B38787006A
S214013D7403A7040093972700B307F70003A50700DA
S214013D84EFD0CF801304140083A70402E34EF4FC9F
S214013D941309190083A7C401635AF90083A704020F
S214013DA413040000E342F0FC6FF09FFE032481003D
S214013DB48320C1008324410003290100130101016A
S214013DC467800000130101FE232E1100232A9100AF
S214013DD423263101930405008327C50193090000B6
S214013DE46354F00C232C8100232821016F00400A20
S214013DF41309190003A4040263568908330434031F
S214013E04330424011314240083A70400B387870012
S214013E1483A70700E38E07FC03A50700EF20101B0A
S214013E2483A70400B387870083A7070003A5470079
S214013E34EF20D01983A70400B387870083A7070060
S214013E4403A5C701EF20901883A70400B387870052
S214013E5483A7070003A50702EF20501783A70400D2
S214013E64B387870083A7070003A58701EF201016F1
S214013E7483A70400B387870003A50700EF20101566
S214013E846FF01FF79389190083A7C40163DAF90059
S214013E9403A4040213090000E34280F66FF09FFEB8
S214013EA4032481010329010103A50400EF20101254
S214013EB403A54400EF20901103A58400EF20101100
S214013EC403A5C400EF20901003A50401EF201010F1
S214013ED48320C101832441018329C1001301010206
S214013EE46780000067800000130101FB232611048C
S214013EF423248104232291042328610323267103A6
S214013F0423248103232291032320A103232EB10119
S214013F1413040500138D0500930B0600938C06000D
S214013F24130C0700138B0700930D080093840800F5
S214013F3413054000EF20D0082322A40013054000F7
S214013F44EF2010082324A40013054000EF20500797
S214013F542326A40023287401232A9401232C8401F4
S214013F6423200500232E940013152C00EF20500562
S214013F742320A4006356801923202105232E310310
S214013F84232C4103232A5103B3879B0393971700DA
S214013F942326F10013090000130A0000930A000007
S214013FA49314290083290400B38999001305400357
S214013FB4EF20100123A0A90083270400B3879700EC
S214013FC483A7070023A2A70383270400B3879700C8
S214013FD483A7070023AA970183270400B3879700C2
S214013FE483A7070023A8770183270400B3879700D4
S214013FF483A907000325C100EF20807C23A4A9021E
S21401400483270400B387970083A90700130540009C
S214014014EF20007B23A0A90083270400B387970021
S21401402483A9070013054000EF20807923A2A90085
S21401403483270400B387970083A90700130580002C
S214014044EF20007823AEA90083270400B3879700E6
S21401405483A9070013058000EF20807623A0A90218
S21401406483270400B387970083A90700130540003C
S214014074EF20007523ACA90083270400B3879700BB
S21401408483A7070083A7070023A0670183270400EB
S214014094B387970083A7070083A7470023A0B70128
S2140140A483270400B387970083A7070083A7C70164
S2140140B423A0470123A2570183270400B38797004F
S2140140C483A7070083A7070223A0470123A257015A
S2140140D483270400B387970083A7070083A7870174
S2140140E423A0070013091900330B7B01E31A2CEBF9
S2140140F4032901048329C103032A8103832A410373
S2140141048320C1040324810483244104032B010373
S214014114832BC102032C8102832C4102032D01024D
S214014124832DC1011301010567800000232EB5000C
S21401413467800000130101FF23261100232291004A
S2140141449304050063CC0502232481002320210166
S214014154138405001309F0FF83A704001317240032
S214014164B387E70003A50700EFC05FC21304F4FF9B
S214014174E31424FF032481000329010093050000AE
S21401418413850400EFF09FFA8320C10083244100C5
S2140141941301010167800000130101FD23261102AA
S2140141A4232481022322910223202103232E310179
S2140141B4232C4101232A510123286101232671015D
S2140141C42324810123229101930405001389050008
S2140141D4130C0600938C060013058001EF20405E45
S2140141E41304050023A0A40013054000EF20405D3E
S2140141F4930B05002320A40013054000EF20405C28
S214014204130B05002322A40013058000EF20405B56
S214014214930A0500232EA40013058000EF20405ABC
S214014224130A05002320A40213054000EF20405979
S21401423493090500232CA4009307A0002328F40067
S214014244232AF400232294031305800CEF204057FD
S2140142542324A40213058000EF20805613040500CE
S21401426423A8A40013058000EF2080551307F0133C
S2140142749307000063582701930709ECB337F70047
S2140142849387170023AAA40023A02B0123208B01C4
S214014294130600009306000023A0CA0023A2DA0036
S2140142A42320CA002322DA001307100023A0E90002
S2140142B423A4040023A204002320C4002322D40040
S2140142C42320C5002322D50023A6F4008320C1029F
S2140142D40324810283244102032901028329C101A3
S2140142E4032A8101832A4101032B0101832BC10087
S2140142F4032C8100832C4100130101036780000015
S214014304130101FF23261100232481001304050051
S2140143148327050003A50700EF20404B83270400ED
S21401432403A54700EF20804A8327040003A5C7019D
S214014334EF20C0498327040003A50702EF200049A4
S2140143448327040003A58701EF2040488327040040
S21401435403A58702EF20804703250401EF200047C9
S21401436403254401EF20804603250400EF20004680
S2140143748320C1000324810013010101678000002A
S214014384B7071000130101FE938EF7FF33F8BE0042
S214014394B3F7DE0013D346012328210113D94501BF
S2140143A493973700232C81001318380013D4F50192
S2140143B41357D5019358D6011379F97F1373F37FF5
S2140143C4232E1100232A91002326310193D6F601C8
S2140143D4B3E8F8003367070193153500131F360059
S2140143E4B30769406304D41E6352F01663060328B8
S2140143F49306F07F6306D9429306800313061000E2
S21401440463CEF602B7068000B3E8D8009306F0013F
S21401441463CEF65293060002B386F6403396D8006E
S2140144243355FF00B316DF003366A600B336D0005B
S214014434B3D8F8003366D600330717413386C54030
S214014444B3B5C50093040600B309B7409397890032
S21401445463DA0732B70780009387F7FFB3F9F900E9
S2140144646388092C13850900EF200029930785FF2B
S214014474930600023387F64033D7E400B399F90074
S21401448433673701B394F40063C8274BB3872741D6
S21401449493871700B386F6403396D400B3D9F40055
S2140144A43336C00033663601B316D700B3E4C6000C
S2140144B4B359F7001309000093F7740063800702E9
S2140144C493F7F40013074000638AE70093874400D8
S2140144D433B69700B389C90093840700939789007C
S2140144E463DA076E930719001307F07F130E0400AF
S2140144F46386E72A370780FF1307F7FF33F7E900D8
S21401450493F7F77F1318D70113D6340013179700C0
S2140145143368C8001357C7008320C10103248101EF
S21401452493974701B3E7E7001317FE01B3E7E700E4
S21401453483244101032901018329C10013050800CD
S214014544938507001301010267800000638C07143A
S214014554B30723416312093C3365B7006304054C72
S2140145641385F7FF630205601308F07F6386075718
S214014574930780031306100063CCA7029307050074
S2140145841306F001634CF656130500023305F54095
S2140145943316A70033D8F5003395A5003366060114
S2140145A43335A0003357F7003366A600B388E840D6
S2140145B43306CF403337CF0093040600B389E8406F
S2140145C413090300138406006FF05FE86350F01EBE
S2140145D463100314B3E6E801638C06269386F7FF9B
S2140145E4638006481306F07F638CC7229307800313
S2140145F49309100063CCD702938706009306F00153
S21401460463C0F64A93060002B386F640B399D8000F
S2140146143356FF00B316DF00B3E9C900B336D00042
S214014624B3D8F800B3E9D90033071701B385B90045
S214014634B3B9350193840500B389E90093978900DA
S21401464463D20714130919009307F07F630CF93634
S214014654B70780FF9387F7FF13F61400B3F7F90043
S21401466413D714003367C7001396F701B364E60043
S21401467493D917006FF05FE4B3E6E801638A061C7A
S2140146849386F7FF638006401306F07F638AC71894
S2140146949307800313061000E3C2D7DA9387060054
S2140146A46FF0DFD6130819001378E87F631C08221D
S2140146B43363B70033E8E80163100938630E034631
S2140146C463060840B389E54133B53501330617411E
S2140146D43306A64013158600635E0550B305BF4036
S2140146E43387E840333FBF003307E741131687009B
S2140146F493840500635E0652B70780FF9387F7FF2E
S2140147043377F700138E0600930710006FF09FDFD0
S2140147149306F07F6306D91093068003930910006D
S214014724E3C6F6F0B7068000B3E8D8006FF01FEDD5
S21401473413850400EF10507C930785019306F0015E
S214014744E3D8F6D2130785FF3397E40063C627231D
S214014754338927419307190063D6F648130919FECE
S21401476493060002B3542701638CD7009306000412
S214014774B387F6403317F7003337E000B3E4E400B9
S2140147841309000093F77400E39C07D2930709000A
S21401479413D63400138709006F00000C9307F07FCB
S2140147A413070000130800006FF01FD7638A070C75
S2140147B4B30723416302091E9306F07F6308D332CD
S2140147C4930680039309100063CEF602B7068000B1
S2140147D43367D7009306F00163C8F63C93060002DC
S2140147E4B386F640B319D70033D6F500B396D50091
S2140147F4B3E9C900B336D0003357F700B3E9D9009B
S214014804B388E8003387E901B33937019304070015
S214014814B3891901130903006FF05FE263100802FC
S21401482413163500135636001318D7013368C8001B
S214014834135737003367070163060718130E000082
S2140148449307F07F37070800130800006FF0DFCCEA
S21401485413163500135636001318D7019306F07F46
S2140148643368C80013573700E386D7FC1317C7000D
S2140148741357C70093F7F77F130E04006FF0DFC9D1
S2140148849306190013F8E67F63180814B366B70095
S214014894631C092863820630B3E6E80163880622AE
S2140148A4B387E501B3B5B700330717013307B7007C
S2140148B413D8370093178700130E040063DE0734FA
S2140148C4B70780FF9387F7FF3377F7009317D7016E
S2140148D41357370033E807013377D70193071000DE
S2140148E46FF09FC33388E541B3B70501B309174198
S2140148F4B389F940939789009304080063C60710A7
S21401490433683801E31E08B4130E00009307000051
S214014914130700006FF05FC01305F07F630EA31A40
S2140149241305800313061000E344F5C83706800018
S2140149343367C7006FF0DFC4B70980FF9389F9FFB7
S2140149443309F940B37937016FF01FB7938607FE31
S21401495413060002B3D6D800638AC7001306000400
S214014964B307F640B397F800336FFF003336E00120
S2140149743366D6006FF09FACB70680FF9386F6FFCA
S214014984B307F9403377D7001318D70133683801D2
S214014994135737006FF09FEDB366B7006386061EA4
S2140149A49386F7FF638E060A1305F07F6380A714C8
S2140149B49307800393091000E3C6D7E493870600A0
S2140149C46FF05FE1130E04009307F07F13070000F6
S2140149D4130800006FF05FB49307F07FE384F6FEDC
S2140149E4338FE501B335BF00B3071701B387B700AB
S2140149F41396F701135F1F00B364E60193D91700FA
S214014A04138906006FF05FAB3306BF40B387E840F7
S214014A143337CF0093040600B389E74013840600B6
S214014A246FF01FA4131636001356360013840600BF
S214014A34138708006FF05FE2E31203DE6306081CC7
S214014A4413D73800131636009398D8013367170125
S214014A54135636003367C700138406006FF0DFDD94
S214014A64338FE501B3081701B335BF00B389B80026
S214014A749397890093040F0063D4070E130920004B
S214014A846FF01FBD338FE541B3081741B3B5E50198
S214014A9493040F00B389B840130910006FF01F9BED
S214014AA4938607FE13060002B3D6D800638AC700AE
S214014AB413060004B307F640B397F800336FFF00FC
S214014AC4B339E001B3E9D9006FF05FB613163500C8
S214014AD4935936006FF05FEB131636001356360003
S214014AE413840600138708006FF01FD413163600CC
S214014AF413563600138708006FF01FD3138507FE7D
S214014B04130600023355A700638AC7001306000480
S214014B14B307F640B317F700B3E5F5003336B00034
S214014B243366A6006FF0DFA8E38206FC33EFE801E4
S214014B34E3160FD06FF0DFCEE30808DC1318360057
S214014B449397D8011358380013D738003368F80000
S214014B543377D701138E0600930700006FF0DF9BAF
S214014B64930710006FF0DFC2B305BF40B388E84077
S214014B743337BF0093840500B389E84013840600E5
S214014B84130910006FF09F8C131636001356360067
S214014B94138708006FF05FCC13163600935936005E
S214014BA4138708006FF05FDE938607FE1306000284
S214014BB4B356D700638AC70013060004B307F6404A
S214014BC4B317F700B3E5F500B339B000B3E9D9007C
S214014BD46FF05FC313D634009307090013870900E7
S214014BE46FF09FC793060002B386F64013060000D3
S214014BF46FF05F8B33E8C900E30808D093D9390016
S214014C04130706006FF05FD8130E00009307F07FBA
S214014C14370708006FF05F909317D70113573700D3
S214014C2433E807013377D701930700006FF0DF8E6F
S214014C341318D70193D535003368B80013573700D6
S214014C44138406006FF09FC2130101FD232E310168
S214014C5493D945012324810223229102232021038F
S214014C64232C4101232671019394C50023261102A6
S214014C74232A5101232861012324810193F9F97F11
S214014C8413040500930B06001389060093D4C4008D
S214014C9413DAF501638A09189307F07F6388F90824
S214014CA4939434009357D501B3E7970037078000F0
S214014CB4B3EAE700131B3500938919C09304000077
S214014CC4130C0000935749011314C90093F7F77F97
S214014CD41354C4001359F901638207081307F07FBC
S214014CE4638AE7181314340013D7DB01336787008C
S214014CF4938717C0370480003364870093983B007A
S214014D04B389F940130600001307F000B3462A01DD
S214014D1463649724B7E70700939424009387C7C571
S214014D24B384F40003A7040067000700B3EAA400F1
S214014D34639E0A1C935749011314C90093F7F77F1E
S214014D44130B0000930480009309F07F130C2000DA
S214014D541354C4001359F901E39207F8B3687401B4
S214014D646382081C630A044A13050400EF10D01872
S214014D7493070500930655FF1307D001938887FF11
S214014D843307D7403314140133D7EB003364870059
S214014D94B3981B01B38737019389373F1306000085
S214014DA46FF09FF63307F74013068003635AE64E07
S214014DB49307000013060000130700008320C102B6
S214014DC40324810293974701B3E7C7009396F6013C
S214014DD4B3E7D70083244102032901028329C101D1
S214014DE4032A8101832A4101032B0101832BC1007C
S214014DF4032C8100130507009385070013010103A3
S214014E04678000009307F07F130600001307000075
S214014E146FF0DFFA930600009307F07F3706080069
S214014E24130700006FF09FF9B3EAA400638C0A101D
S214014E346388044013850400EF10100C1307050063
S214014E44930655FF9307D001130B87FFB387D7400B
S214014E54B3946401B357F400B3EA9700331B6401B7
S214014E649309D0C0B389E94093040000130C0000F1
S214014E746FF05FE5B368740193891980639C080A2F
S214014E8493E4240013040000130620006FF0DFE708
S214014E9413090A0013840A0093080B0093072000E1
S214014EA46308FC4E93073000E306FCF693071000F4
S214014EB493060900E30EFCEE9387F93F6356F02A46
S214014EC413F778006316074A13177400635A07002A
S214014ED4B70700FF9387F7FF3374F40093870940FD
S214014EE41307E07FE340F7F293D838001317D40191
S214014EF413169400336717011356C60093F7F77F0A
S214014F046FF0DFEB130C06006FF05FF9938A040071
S214014F14130B05009304C0009309F07F130C3000B3
S214014F246FF05FDA93E41400130400001306100014
S214014F346FF09FDD93E4340093880B001306300072
S214014F446FF09FDC130B00009304400093090000EC
S214014F54130C10006FF01FD76364542B63808A2AE6
S214014F6413030B009389F9FF93870A00130B0000C0
S214014F74131784001355070133D4A70213D68801E7
S214014F843366E60013180601135808019395880042
S214014F9413570301B3F7A702B308880293970701CF
S214014FA4B367F70063FA1701B307F6001307F4FFB4
S214014FB463F0C72E13040700B3871741B3D8A702BB
S214014FC41317030113570701B3F7A702B30F180307
S214014FD4939707013367F700637AF7013307E6000F
S214014FE49387F8FF637EC728938807001314040188
S214014FF4B7020100336414011383F2FFB37864002B
S214015004935E040113DE050133F36500330F1303C6
S2140150143307F741B3081E0393570F01B38F6E028C
S214015024B388F801B3871701B38ECE0363F4F7018F
S214015034B38E5E00B70F0100938FFFFF93D807016D
S214015044B3F7F70193970701337FFF01B388D801BC
S214015054B387E701636E1717630A1717B307FB4095
S21401506433071741333BFB00330767416300E62EE2
S214015074B358A70293DE07013377A702330F180349
S2140150841317070133E7EE00637EE7013307E600F3
S214015094938EF8FF636AC72E6378E72F9388E8FF39
S2140150A43307C7003307E741B35EA70293970701A7
S2140150B493D707013377A7023308D80313170701D9
S2140150C4B3E7E70063FE0701B307F6001387FEFFA5
S2140150D463E8C72A63F6072B938EEEFFB387C700F0
S2140150E493980801B3E8D8011395080113DF080162
S2140150F413550501B30E6502B38707413305AE02A6
S21401510413D70E0133036F02330565003307A70077
S214015114330EEE036376670037050100330EAE00E7
S214015124370801001308F8FF135507013377070101
S21401513413170701B3FE0E013305C5013307D70163
S21401514463F2A712B307F6001383F8FF1388070068
S21401515463E4C71C63E8A7246386A72693080300B1
S21401516493E818006FF05FD513071000E39C07C29D
S2140151749389E941B3973801B337F000B319340181
S214015184B3E73701B3D8E800B3E8F80093F778003B
S2140151943354E4006380070293F7F80013074000D2
S2140151A4638AE70093874800B3B8170133041401F0
S2140151B493880700931584009307100013060000D4
S2140151C413070000E3CC05BE6F004013E378FBE849
S2140151D4B30EBB0033BF6E01B30FCF003307F70125
S2140151E4138B0E00930FF4FF6374E60863621715BE
S2140151F4638EE81213840F006FF05FE6E3621BD739
S21401520413571B001393FA0193D71A003363E30071
S214015214131BFB016FF0DFD513850B00EF10C04D98
S214015224930655011307C00193070502E356D7B445
S214015234130585FF930800003394AB006FF09FB508
S214015244EF10804B930655019307C001130705021F
S214015254E3DAD7BE930785FFB31AF400130B0000F5
S2140152646FF01FC0E39EA7EEE30807C46FF09FED3F
S214015274E312E6F8E30C0FF613840F006FF01FDE5B
S214015284E374F7D79388E8FF3307C7006FF01FD698
S214015294E3F217D31304E4FFB387C7006FF0DFD13B
S2140152A41306F001E356E6EC130610FEB307F640C8
S2140152B413060002B357F4006308C7009389E94351
S2140152C4B3193401B3E83801B3381001B3E8F80070
S2140152D413F77800130600006308070293F7F80033
S2140152E41307400013040000638AE700938748000D
S2140152F4B3B81701333410019388070013169400CA
S2140153041317D4011356C60093D8380033E7E800C0
S214015314930700006FF09FAA93080300E312A8E422
S214015324E30CB7B893E818006FF01FB9E3F4FEEC8A
S214015334B38ED50133BFBE00330FCF001304E4FF91
S214015344138B0E003307E7016FF05FD1130720C0FC
S2140153549387F93F9308F0FFE3C8E9E01387480011
S214015364B338170133041401930807006FF0DFB54F
S21401537413F7F80013064000E308C7B46FF01FFEE6
S214015384930E07006FF0DFD593880E006FF09FD160
S214015394930609009307F07F130600001307000025
S2140153A46FF0DFA1139315003338B3003308C80038
S2140153B4338807019388E8FF93050300E302A8F600
S2140153C46FF01FDAE3E0E5FE93080300E31CB7F48D
S2140153D46FF09FAE93D84501B70710009387F7FF88
S2140153E413D7460193F8F87F130EF07F33F3B70013
S2140153F413080500930E0500B3F7D70093D5F501FE
S214015404130F06001375F77F93D6F6016388C80554
S2140154146304C503639A080633680301631005062B
S21401542433E6C700630C06086312080A1305100066
S214015434638206086780000033E6C7006314060823
S2140154446396080033630301E30203FE6380D50613
S2140154546392050613051000678000003363030199
S21401546463120306E31615FFB3E7C700639C07043C
S214015474E390D5FE1305000067800000E30808FAF0
S214015484E398D5FC6F008002E30405FCE392D5FCA7
S214015494E34015FD63CCA800E3EC67FA6318F30058
S2140154A4E368DFFB13050000E3F6EEF913051000CD
S2140154B4E39205F81305F0FF67800000E31A08F885
S2140154C4678000001305E0FF67800000E386D5FCD3
S2140154D46FF01FF893D84501B70710009387F7FFBD
S2140154E413D7460193F8F87F1303F07F33FEB70012
S2140154F413080500930E0500B3F7D70093D5F501FD
S214015504130F06001375F77F93D6F601638A6804B2
S214015514630465026398080633680E01631E050872
S21401552433E6C7006304060A6316080A1305100067
S214015534638006086780000033E6C7001305200071
S214015544E31A06FE63960800336E0E01E3000EFEB0
S214015554638CD504639E0504130510006780000060
S214015564336E0E0163100E06E31615FFB3E7C7008C
S21401557413052000E39007FCE39ED5FC1305000009
S21401558467800000E30805FCE396D5FCE34415FDBB
S21401559463CCA800E3E0C7FD6318FE00E36CDFFB01
S2140155A413050000E3F8EEF913051000E39405F87B
S2140155B41305F0FF67800000E30A08F6E39CD5F8BC
S2140155C46FF09FFE1305200067800000E31408F8BF
S2140155D467800000E380D5FC6FF0DFF7130101FD5F
S2140155E493D74501232481022322910223202103F8
S2140155F4232E3101232A51019394C5002326110237
S214015604232C4101232861012326710123248101CE
S21401561493F7F77F13040500930A0600938906009F
S21401562493D4C40013D9F501638407421307F07FAA
S2140156346386E70A939634001357D5013367D70078
S214015644B7068000B364D700131A3500138C17C04D
S214015654130B0000930B000093D749011397C9005D
S21401566493F7F77F138F0A001354C70093D9F901F0
S2140156746380070A1307F07F638EE7141317340059
S21401568493D5DA01B3E5E500938717C037078000A1
S21401569433E4E500139F3A00B3888701130300003F
S2140156A41307A00013851800634C670BB345390133
S2140156B4930720001388050063C66715130BFBFFC9
S2140156C41307100063606717630AF33C930404002E
S2140156D4130A0F00930B03006F00C00933EAA400FA
S2140156E463180A3C93D749011397C90093F7F77FC8
S2140156F493040000130B8000130CF07F930B20001F
S214015704138F0A001354C70093D9F901E39407F6DB
S214015714B36754016382073C6300044A130504001B
S214015724EF00907D93080500130755FF9307D001FA
S214015734138F88FFB387E740B3D7FA003317E40122
S21401574433E4E700339FEA01B3081C419388D8C0C9
S2140157541307A0001303000013851800E35867F528
S2140157649305090093072000638AFB3293073000F0
S214015774638CFB489307100013880500639AFB4665
S2140157849307000093060000130700008320C1025C
S2140157940324810293974701B3E7D7009316F801D0
S2140157A4B3E7D70083244102032901028329C101F7
S2140157B4032A8101832A4101032B0101832BC100A2
S2140157C4032C8100130507009385070013010103C9
S2140157D467800000336754019308FC7F630A07302F
S2140157E4371700003348390113070780136B3B0052
S2140157F49306A000930508003305EC0063C06639E0
S214015804130330001306100033166601137706538C
S214015814E31A07F4937706246394073C1376860801
S2140158246312062EB70F0100938EFFFFB377DA01DA
S21401583493560A01B37EDF01135E0F013387D70344
S2140158443383D603935507013306FE0233066600F7
S214015854B385C500338FC60363F46500330FFF01B8
S214015864B70301001386F3FF33F3C500935F040106
S2140158743377C7003374C40013130301B38287025A
S2140158843303E30093D505013387860213D6020159
S214015894B387FF02B387E7003306F600B387F60340
S2140158A46374E600B3877700370901009309F9FFAB
S2140158B43377360193D30401B3F63401B3F23201DC
S2140158C413170701B384DE02330757001356060184
S2140158D43306F600B385E500B302DE0293D704016E
S2140158E4B38ED303B382D201B3875700330E7E023D
S2140158F463F4D701330E2E01B7090100938EF9FF25
S214015904B3F2D70193D70701B387C701B3FED40116
S214015914939202013309D402B382D20133848302FF
S214015924135E0901B386DF02B3868600330EDE00FA
S214015934B38E7F0263748E00B38E3E01B70F0100EF
S214015944938FFFFFB376FE01939606013379F9012F
S214015954B385E501B38626013386C60033B7E50071
