S00C00006D61696E2E7372656373
S21401009497510C009381C1011701FF03130141F627
S2140100A413854198173634001306C6B63306A640A0
S2140100B493050000EFC0106A17D50000130505E488
S2140100C4EFB0D039EFC090591305000093054100F5
S2140100D413060000EF00800E6FB0903937550D00FF
S2140100E437570D009307C58A1307C78A630AF700B3
S2140100F493070000638607001305C58A6780070017
S2140101046780000037550D009307C58A37570D00E1
S2140101149305C78AB385F54093D7254093D5F50152
S214010124B385F50093D51540638A0500930700004F
S214010134638607001305C58A678007006780000089
S214010144130101FF2324810083C701AD2326110077
S21401015463940702EFF09FF893070000638A070091
S21401016437450D001305051C97000000E700000045
S214010174930710002388F1AC8320C1000324810077
S21401018413010101678000009307000063860702DC
S21401019437450D00130101FF938541AD1305051C79
S2140101A42326110097000000E70000008320C10009
S2140101B4130101016FF01FF56FF0DFF4130101FE67
S2140101C4232E1100232C8100232A910023282101A8
S2140101D423263101EF20C056EF20C017EF20D03080
S2140101E413088002930700141307800C930600007B
S2140101F413060000B7190500938589DC1385C1A78A
S214010204EF00107713088002930700141307800C7D
S214010214930600001306000037B904009305899C71
S214010224138581A7EF00D074130880029307001486
S2140102341307800C9306000013060000B74404005D
S2140102449385845C138541A7EF009072130880029E
S214010254930700141307800C93060000130600008E
S21401026437E403009305841C138501A7EF0050703F
S21401027413088002930700141307800C93060014D6
S21401028413060000938589DC1385C1A6EF00506E22
S21401029413088002930700141307800C93060014B6
S2140102A4130600009305899C138581A6EF00506C04
S2140102B413088002930700141307800C9306001496
S2140102C4130600009385845C138541A6EF00506AEB
S2140102D413088002930700141307800C9306001476
S2140102E4130600009305841C138501A6EF005068CD
S2140102F413088002930700141307800C9306002842
S21401030413060000938589DC1385C1A5EF005066AA
S21401031413088002930700141307800C9306002821
S214010324130600009305899C138581A5EF0050648C
S21401033413088002930700141307800C9306002801
S214010344130600009385845C138541A5EF00506273
S21401035413088002930700141307800C93060028E1
S214010364130600009305841C138501A5EF00506055
S214010374130880079307000A13070000930600007A
S214010384130600003754020093058477138501A9E8
S214010394EF00105E03A501A9EF00005913088007BA
S2140103A49307000A130700009306000A13060000C9
S2140103B4930584771385C1A8EF00905B03A5C1A8B4
S2140103C4EF008056130880079307000A1307800777
S2140103D4930600001306000093058477138581A80D
S2140103E4EF00105903A581A8EF00005413088007F5
S2140103F49307000A130780079306000A13060000F2
S21401040493058477138541A8EF00905603A541A868
S214010414EF0080511308D0089307100D1307E0016D
S2140104249306800313060000B70503009385C5B839
S214010434138581A9EF00D05303A581A9EF00C04E0F
S21401044403A581A9EF00D065130810019307A00640
S2140104541307800C9306B00613060000B7F50200D6
S214010464938585D7138541A9EF00905003A541A92B
S214010474EF00804B03A541A9EF009062EF7040099D
S214010484130500008320C101032481018324410153
S214010494032901018329C1001301010267800000B9
S2140104A4130101FC232E1102232C8102232A91021B
S2140104B42328210323263103232441032322510322
S2140104C423206103232E7101232C8101232A910108
S2140104D42328A1012326B10113040500938C0500EA
S2140104E4930D0600138D0600130B0700938B07006C
S2140104F43305F70213151500EFB0407A130C050007
S21401050413054000EFB08079930A05002322A40066
S21401051413054000EFB08078130A05002324A400D5
S21401052413058000EFB08077930905002326A40005
S21401053413058000EFB08076130905002328A40074
S21401054413054000EFB0807593040500232AA40028
S214010554232C6401232E7401930710002320F50035
S21401056423A0BA012320AA01130700009307000061
S21401057423A0E90023A2F9002320E9002322F9009D
S21401058413054003EFB080712320A40023229503B2
S214010594232A750123286501232485032320550175
S2140105A423224501232E350123202503232C9500E0
S2140105B48320C10303248103832441030329010304
S2140105C48329C102032A8102832A4102032B0102E1
S2140105D4832BC101032C8101832C4101032D0101CD
S2140105E4832DC10013010104678000006302050A1C
S2140105F4130101FF232611002324810023229100E5
S2140106041304050013054001EFB040699304050087
S214010614630805068327440003A7070023A0E40014
S214010624032784008326070023A2D40083A7070098
S21401063483268401B387D70023A4F4008326C40148
S2140106449307900063C6D7009307A000232EF400F7
S214010654832707000327C401B387E70023A6F40012
S21401066403A7819823A8E40023A491988320C100BA
S21401067403248100832441001301010167800000E3
S214010684377505001305851CEFC080386FF09FF899
S21401069467800000130101FF232611002324810033
S2140106A41304050003250500EF00002813050400C4
S2140106B4EFF0DFF38320C10003248100130101015D
S2140106C467800000130101FF232611002324810003
S2140106D403A48198630204042322910023202101A8
S2140106E49304000037790500938504008327C4002A
S2140106F403278400832644000326040093841400FD
S2140107041305491EEFC0801E03240401E31E04FCE6
S21401071483244100032901008320C10003248100AE
S2140107241301010167800000130101FE232E11004D
S21401073483A78198638E070A232C8100232A9100BC
S214010744232821012326310113040500938405007F
S2140107541309060093890600130500006F000002C2
S21401076483A6070123A4D1986F00000403A70701F9
S21401077413850700630607069307070003A7070008
S214010784E31687FE03A74700E31297FE03A7870035
S214010794E31E27FD03A7C700E31A37FDE30205FCA2
S2140107A403A707012328E50013850700EFB0C04F10
S2140107B413870900930609001386040093050400B1
S2140107C43775050013054520EFC040120324810147
S2140107D483244101032901018329C1006F0000021A
S2140107E40324810183244101032901018329C100D2
S2140107F43775050013050523EFC080218320C10149
S2140108041301010267800000130101FF2326110072
S214010814232481001304050003250500EF00805FEF
S2140108248327440003A507008327840083A50700C4
S2140108348326C40103268401B386D5003306C50086
S214010844EFF09FEE8320C100032481001301010110
S21401085467800000630C0506130101FF23261100BF
S2140108642324810013040500EFF01FFA83270400F4
S21401087403A58702EFB04043032544006304050043
S214010884EFB080420325840063040500EFB0C04145
S2140108940325C40063040500EFB0004103250401E9
S2140108A463040500EFB040400325440163040500DA
S2140108B4EFB0803F13050400EFB0003F8320C10072
S2140108C40324810013010101678000006780000092
S2140108D483274501130600009305F0FF634CF002DD
S2140108E467800000B387C702B387E70083268502C3
S2140108F493971700B387F6002390B70013071700E2
S21401090483270501E340F7FE1306160083274501F6
S214010914635AF6008327050113070000E344F0FC3D
S2140109246FF09FFE67800000130101FE232E110065
S214010934232C8100130405008327050083A70700E1
S2140109442324F5008327450083A707002326F50003
S214010954EFF01FF8930710002326F40283274401BF
S2140109646352F04A232A91002328210123263101C8
S2140109742324410123225101130600001303000F0F
S2140109841305003C1308F0FF93021000130EF01336
S21401099437CF2B00130FCF39B76E2200938ECE3983
S2140109A4930420001309F027B76F1B00938FCFB968
S2140109B46F0000428329440003AA0900330A460152
S2140109C493194A00B389494193996900B386D900BA
S2140109D493961600B386DF00839906008326840265
S2140109E4B387F600239037018327440083A60700C4
S2140109F4B306D6008329040093974600B387D740ED
S214010A049397670083A60900B306D700B387D70078
S214010A1493971700B387FF002390B7006F00C000B9
S214010A24638E590C638A99261307170083270401DA
S214010A34635AF7388326040083A60600B306D70054
S214010A44E364D5FEB387C702B387E700939717001D
S214010A5483254402B385F50083950500E38605FDE9
S214010A6483A90199E39E09FAE346DEF403AA4199B0
S214010A748326C400B306D600939696008329840081
S214010A84B3093701B386360193961600B386460139
S214010A9483D9060083268402B387F60023903701A0
S214010AA48327440083A70700B307F60093979700AC
S214010AB48326040083A60600B306D700B387D700AF
S214010AC493971700B387E7012390B7008327440061
S214010AD483A70700B307F6009397970083260400BD
S214010AE483A60600B306D700B387D70093971700EB
S214010AF4B387D7012390B7006FF01FF3635ADE0A5A
S214010B046342D91203AA41998326C400B306D600C8
S214010B1493969600938606EC83298400B3093701DD
S214010B24B386360193961600B386460183D906002A
S214010B3483268402B387F600239037018327440073
S214010B4483A70700B307F60093979700938707ECEC
S214010B548326040083A60600B306D700B387D7000E
S214010B6493971700B7C62B009386C639B387D70069
S214010B742390B7008327440083A70700B307F60032
S214010B8493979700938707EC8326040083A60600B1
S214010B94B306D700B387D70093971700B76622002A
S214010BA49386C639B387D7002390B7006FF0DFE783
S214010BB4376A1B00130ACAB98329440083AA0900A9
S214010BC4B30A560193994A00B38959419399690026
S214010BD4B386D90093961600B306DA008399060005
S214010BE483268402B387F6002390370183274400C3
S214010BF483A60700B306D60083290400939746000C
S214010C04B387D7409397670083A60900B306D70036
S214010C14B387D70093971700330AFA002310BA0054
S214010C246FF09FE0376A1B00130ACAB98329440090
S214010C3483AA0900B30A560193994A00B389594114
S214010C4493996900B386D90093961600B306DA0021
S214010C548399060083268402B387F600239037011E
S214010C648327440083A60700B306D600832904001D
S214010C7493974600B387D7409397670083A60900E6
S214010C84B306D700B387D70093971700330AFA0041
S214010C942310BA006FF05FD9635CD90A9309003C4C
S214010CA4E38436D903AA41998326C400B306D60041
S214010CB493969600938606D883298400B309370150
S214010CC4B386360193961600B386460183D9060089
S214010CD483268402B387F6002390370183274400D2
S214010CE483A70700B307F60093979700938707D85F
S214010CF48326040083A60600B306D700B387D7006D
S214010D0493971700B7C62B009386C639B387D700C7
S214010D142390B7008327440083A70700B307F60090
S214010D2493979700938707D88326040083A6060023
S214010D34B306D700B387D70093971700B766220088
S214010D449386C639B387D7002390B7006FF0DFCDFB
S214010D54376A1B00130ACAB98329440083AA090007
S214010D64B30A560193994A00B38959419399690084
S214010D74B386D90093961600B306DA008399060063
S214010D8483268402B387F600239037018327440021
S214010D9483A60700B306D60083290400939746006A
S214010DA4B387D7409397670083A60900B306D70095
S214010DB4B387D70093971700330AFA002310BA00B3
S214010DC46FF09FC613061600832744016352F6028A
S214010DD48327440083A70700B307F600E364F3FE02
S214010DE483270401E350F0FE130700006FF09FC44D
S214010DF483244101032901018329C100032A8100B7
S214010E04832A41008320C1010324810113010102C5
S214010E14678000000327C502930710006306F700E6
S214010E242326050267800000832745016354F028C2
S214010E34130101FF2326810023249100232221018B
S214010E442320310183A5019913060000130F000F17
S214010E541308F0FF13031000930F20009308F013F8
S214010E64B7CE2B00938ECE39376E2200130ECE39B1
S214010E749303F0271304F03BB7621B009382C2B9B5
S214010E846F0000200329C500330926019316490083
S214010E94B386264193966600B3869600939616000B
S214010EA4B386D2002390F6006F00C0006384650801
S214010EB4638CF5131307170083270501635CF71A80
S214010EC4B387C702B387E700832685029397170083
S214010ED4B387F60083970700E38E07FDE39805FCC6
S214010EE483248500B3049700E3C604FCE3CC98F896
S214010EF48326C500B306D60093969600B38696005D
S214010F0493961600B386D6012390F6008326C50071
S214010F14B306D6009396960083248500B3049700FF
S214010F24B386960093961600B386C6012390F60000
S214010F346FF05FF883248500B304970063DA98049E
S214010F4463CC93068326C500B306D6009396960013
S214010F54938606ECB386960093961600B386D6015E
S214010F642390F6008326C500B306D6009396960012
S214010F74938606EC83248500B3049700B386960013
S214010F8493961600B386C6012390F6006FF09FF27F
S214010F940329C5003309260193164900B386264161
S214010FA493966600B386960093961600B386D2008F
S214010FB42390F6006FF01FF037691B008329C500E4
S214010FC4B309360193964900B38636419396660073
S214010FD4B3869600939616009304C9B9B386D400D3
S214010FE42390F6006FF01FED83248500B304970069
S214010FF463DA9304E34094EC8326C500B306D60073
S21401100493969600938606D8B38696009396160012
S214011014B386D6012390F6008326C500B306D60010
S21401102493969600938606D883248500B304970086
S214011034B386960093961600B386C6012390F600EF
S2140110446FF05FE737691B008329C500B3093601D2
S21401105493964900B386364193966600B386960006
S214011064939616009304C9B9B386D4002390F60068
S2140110746FF05FE413061600832745016350F602FA
S2140110848327C500B307F600E366FFFE8327050141
S214011094E352F0FE130700006FF09FE20324C10041
S2140110A483248100032941008329010013010101DE
S2140110B46780000067800000930705000327850109
S2140110C4032507006302050603A785010325070018
S2140110D4630C050403A707008326070003A705007E
S2140110E40326070003A705013307E60013050000DE
S2140110F463DCE60203A70701B386E6006356D6025D
S21401110403A747008326070003A745000326070015
S21401111403A745013307E60063D8E60083A7470122
S214011124B386F6003325D600678000000327050042
S2140111348327070083A6050003A6060093865700A7
S21401114463D4C7009386B7FF2320D700032745003F
S2140111548327070083A6450003A606009386570047
S21401116463D4C7009386B7FF2320D70067800000A7
S214011174130101FC232E1102232C8102232A91023E
S2140111842328210323263103232441032322510345
S21401119423206103232E7101232C8101232A91012B
S2140111A42328A1012326B10193040500938D05008C
S2140111B4930C0600138C0600930B0700138B070091
S2140111C4930A080013054003EFA0502D13040500ED
S2140111D423A0A40033055B0313151500EFA0102C00
S2140111E4130D050013054000EFA0502B130A05004C
S2140111F42320A40013054000EFA0502A93090500FC
S2140112042322A40013058000EFA05029130905002A
S214011214232EA40013058000EFA050289304050094
S2140112242320A40213054000EFA05027232CA4007A
S21401123423286401232A54012322B4032324A40368
S2140112442320950123208A0123A079011307000096
S214011254930700002320E9002322F90023A0E400D9
S21401126423A2F4008320C1030324810383244103BE
S214011274032901038329C102032A8102832A410225
S214011284032B0102832BC101032C8101832C410111
S214011294032D0101832DC1001301010467800000A1
S2140112A4630E0504130101FF232611002324810084
S2140112B41304050003250500EFA0101F03254400B1
S2140112C4EFA0901E0325C401EFA0101E03250402FF
S2140112D4EFA0901D03258401EFA0101D03258402B1
S2140112E4EFA0901C13050400EFA0101C8320C1007E
S2140112F40324810013010101678000006780000058
S214011304130101FF232611002324810023229100C7
S21401131493040500138405001306000093060000D9
S2140113241385040093050400EF908058634005027A
S21401133413850400930504008320C100032481005F
S214011344832441001301010167800000B707008070
S21401135433C487006FF0DFFD130101FA232E110455
S214011364232C8104232A91042328210523263105CD
S214011374232441052322510523206105232E7103CD
S214011384232C8103232A91032328A1032326B103B3
S214011394130405009384050013090600138D060043
S2140113A42328E100232AF100232C0101232E110115
S2140113B4834D010613050040EFA0500E2320A10023
S2140113C413050040EFA0900D2322A1001305004051
S2140113D4EFA0D00C2324A10013050040EFA0100CAD
S2140113E42326A10013050040EFA0500B930C050023
S2140113F413054000EFA0900A930B05002320A402D6
S21401140413054000EFA09009130B05002322A40244
S21401141413058000EFA09008930A05002324A40274
S21401142413058000EFA09007130A05002326A402E3
S21401143413054000EFA09006130C05002328A40210
S21401144413054000EFA09005930905002320A4048A
S214011454232A040293071000232CF404232E0402E7
S214011464930700012322F404930700022324F404BF
S21401147413050002EFA090021307F0139307000070
S21401148463589700938704ECB337F70093871700E4
S214011494232AA404032741062322E406232E040454
S2140114A4232004062328F404930710002320FC00B9
S2140114B423A09B0023202B011307000093070000A1
S2140114C423A0EA0023A2FA002320EA002322FA003A
S2140114D49307400623A0F90093071006638EFD18B0
S2140114E49308A0001308D9FF938734001307A000BC
S2140114F4930620001306100093858194EF70405DD7
S21401150413054003EFA08079930405002320A4006B
S2140115142322A50393090002232A35011309000196
S214011524232825012324950313054003EFA0007700
S214011534130A05002322A400832701012322F502AE
S214011544232A350123282501832701002324F502B4
S21401155413054003EFA08074930A05002324A40016
S214011564832741012322F502232A35012328250155
S214011574832741002324F50213054003EFA00072DC
S214011584130B05002326A400832781012322F502D9
S214011594232A350123282501832781002324F502E4
S2140115A413054003EFA0806F2328A4008327C101FD
S2140115B42322F502232A3501232825018327C10086
S2140115C42324F5028325040223A0B400032644023F
S2140115D423A2C4008326840223AED4000327C402B4
S2140115E423A0E4028327040323ACF4002320BA00D7
S2140115F42322CA00232EDA002320EA02232CFA002F
S21401160423A0BA0023A2CA0023AEDA0023A0EA026A
S21401161423ACFA002320BB002322CB00232EDB00BD
S2140116242320EB02232CFB002320B5002322C50034
S214011634232ED5002320E502232CF5008320C105A3
S2140116440324810583244105032901058329C10453
S214011654032A8104832A4104032B0104832BC10337
S214011664032C8103832C4103032D0103832DC10223
S21401167413010106678000009308A0001308D9FF30
S214011684938734001307A000930620001306100066
S2140116949385C194EF70C0436FF09FE6130101FF79
S2140116A42326110023248100130405006300050486
S2140116B48327040283A50700032544043385A50074
S2140116C48327440283A6070083278404B386F6008F
S2140116D483A7819863980702232E04028320C100FE
S2140116E4032481001301010167800000377505009A
S2140116F413050524EFB0C0316FF09FFB83A70701E4
S214011704E38C07FC03A74700E3CAE6FE03A6C7006B
S214011714E346D6FE03A68700E342B6FE03A6070009
S214011724E34EC5FC93071000232EF4028327C4025C
S214011734130600009306000023A0C70023A2D700C7
S21401174483274402832684043307D74023A0E70073
S2140117546FF0DFF893070500032705030325070049
S2140117646302050603A7050303250700630C0504A6
S21401177403A707028326070003A70502032607001B
S21401178403A745043307E6001305000063DCE602FD
S21401179403A74704B386E6006356D60203A74702A7
S2140117A48326070003A745020326070003A785042B
S2140117B43307E60063D8E60083A78704B386F600FA
S2140117C43325D60067800000930705000327050329
S2140117D4032507006302050603A785010325070001
S2140117E4630C050403A707028326070003A7050065
S2140117F40326070003A705013307E60013050000C7
S21401180463DCE60203A74704B386E6006356D60202
S21401181403A747028326070003A7450003260700FC
S21401182403A745013307E60063D8E60083A78704C8
S214011834B386F6003325D600678000000327050229
S2140118448327070083A6050003A606009386570090
S21401185463D4C7009386B7FF2320D7000327450226
S2140118648327070083A6450003A606009386570030
S21401187463D4C7009386B7FF2320D7006780000090
S214011884130101FF23261100032785039307700024
S21401189463E0E70693172700378705001307478A8F
S2140118A4B387E70083A707006780070003250500C1
S2140118B4EFF04FD68320C1001301010167800000B9
S2140118C403254500EFF00FD56FF0DFFE03258500F5
S2140118D4EFF04FD46FF01FFE0325C500EFF08FD352
S2140118E46FF05FFD03250501EFF0CFD26FF09FFC8B
S2140118F4377505001305C525EFB080116FF09FFB02
S2140119046300050C130101FF232611002324810023
S21401191413040500EFF0DFF68327040003A587020E
S214011924EFA080388327440003A58702EFA0C037C1
S2140119348327840003A58702EFA000378327C4000A
S21401194403A58702EFA040368327040103A5870277
S214011954EFA080350325040263040500EFA0C0341C
S2140119640325440263040500EFA000340325840222
S21401197463040500EFA040330325C4026304050095
S214011984EFA080320325040363040500EFA0C031F1
S2140119940325040463040500EFA000310325440570
S2140119A463080500EF70C03D03254405EFA0C02F72
S2140119B48320C10003248100130101016780000014
S2140119C467800000130101FF2326110023248100F0
S2140119D4232291002320210193040500130400000F
S2140119E41309800283A7440583A70700B3878700EA
S2140119F403A50700EFE05FF313044400E31424FF98
S214011A049305A00003A54405EF70C0308320C100F0
S214011A1403248100832441000329010013010101E9
S214011A2467800000130101FE232E1100232C810080
S214011A34232A910023282101130405008327450541
S214011A4403A7C7016356E0029304000083A70700B7
S214011A5413972400B387E70003A50700EFF08FBBB5
S214011A64938414008327440503A7C701E3C0E4FE57
S214011A7403A747008327040283A707009387370039
S214011A842320F7008327440503A7870083274402FE
S214011A9483A707009387D7FF2320F7009307000047
S214011AA41308A0000327440513962700832607007E
S214011AB4B386C60083A6060083A506000325470051
S214011AC483260701B386D702032705003307D70009
S214011AD423A0E5008326440503A706003307C700B1
S214011AE4032707000327470083A6860083A606006C
S214011AF42320D70093871700E39607FB8327040464
S214011B0403A50700EFA08001B7570D0003A6078BB6
S214011B1483A6478BEF80405803A6818083A6C180A5
S214011B24EF809079EF905077130905006356A0066D
S214011B342326310123244101232251019304000069
S214011B4493096000130A1000930A70006F00C00026
S214011B5493841400630C990203274403E30A37FFB2
S214011B64832784039387A7FFE374FAFEE30257FFF0
S214011B748327440583A7070013972400B387E70048
S214011B8403A50700EFE05FDA6FF09FFC8329C1002D
S214011B94032A8100832A410093050900032544058D
S214011BA4EF7040178320C10103248101832441017E
S214011BB4032901011301010267800000130101FFDB
S214011BC423261100232481001304050063840502DF
S214011BD4032784039307700063E6E702931727003D
S214011BE4378705001307478CB387E70083A70700E9
S214011BF467800700EFF01FE36FF09FFD03250400E5
S214011C04EFF04FA1032744039307700063EAE70448
S214011C1493172700378705001307478EB387E70016
S214011C2483A707006780070003254400EFF08F9E13
S214011C346FF05FFD03258400EFF0CF9D6FF09FFCEE
S214011C440325C400EFF00F9D6FF0DFFB03250401AD
S214011C54EFF04F9C6FF01FFB03250400EFE0DFCC91
S214011C648320C10003248100130101016780000061
S214011C7403254400EFE05FCB6FF09FFE032584004D
S214011C84EFE09FCA6FF0DFFD0325C400EFE0DFC974
S214011C946FF01FFD03250401EFE01FC96FF05FFC21
S214011CA4130101FF2326110023248100232221018D
S214011CB423203101930710006388F5040324850269
S214011CC4032904008329440003A6818283A6C182D2
S214011CD41305090093850900EF80904D6358050AA2
S214011CE403A7818283A7C1822320E4002322F40070
S214011CF48320C100032481000329410083290100B4
S214011D0413010101678000000324850203290400EE
S214011D148329440003A6018183A641811305090092
S214011D2493850900EF80D038635CA00003A7018186
S214011D3483A741812320E4002322F4006FF05FFB94
S214011D4403A6818183A6C181130509009385090031
S214011D54EF801046635C050003A7818183A7C181D8
S214011D642320E4002322F4006FF09FF803A60182E7
S214011D7483A641821305090093850900EF70502557
S214011D842320A4002322B4006FF09FF603A6018348
S214011D9483A641831305090093850900EF8050311A
S214011DA4635CA00003A7018383A741832320E40087
S214011DB42322F4006FF0DFF303A6018283A6418297
S214011DC41305090093850900EF90803C2320A400A5
S214011DD42322B4006FF0DFF1130101FE232E11005C
S214011DE4232C8100232A91002328210113040500B2
S214011DF463020520232631012324410123225101B4
S214011E04938405001309060083274503232CF50252
S214011E14B7470D0083A5071D13850400EFB0002AFC
S214011E246306050083A741956390070623AA0194D8
S214011E3493091000232A34039305000013050400B4
S214011E44EFF01FE6032A0402832A840203250A000C
S214011E54EF90D04C03A60A0083A64A00EF705017F1
S214011E64EF9090432320AA008327840203A507004A
S214011E7483A54700EF90504283270900B387A70044
S214011E842320F900232C3405B7470D0083A5471DED
S214011E9413850400EFB080226306050083A78195AD
S214011EA46390070623AC019493092000232A340384
S214011EB49305100013050400EFF09FDE032A0402C5
S214011EC4832A840203250A00EF90504503A60A00DC
S214011ED483A64A00EF70D00FEF90103C2320AA008F
S214011EE48327840203A5070083A54700EF90D03A11
S214011EF483270900B387A7002320F900232C340580
S214011F04B7470D0083A5871D13850400EFB0001B9A
S214011F14631805000327C4049307100063D4E70E6F
S214011F24B7470D0083A5C71D13850400EFB000193C
S214011F34631005028327840213060000930600003B
S214011F4423A0C70023A2D7001307100023AAE194F5
S214011F54B7470D0083A5071E13850400EFB00016CE
S214011F64631C050E832784021306000093060000F3
S214011F7423A0C70023A2D7001307100023ACE194C3
S214011F848329C100032A8100832A4100832784020E
S214011F9403A5070083A54700EF901030631E0500D4
S214011FA48324C40203A5040083A54400EF90D02E25
S214011FB4631C050A232A04028324C40203A504001D
S214011FC483A54400EF90502D6310050A8327C403AC
S214011FD4639E070A8327840513072000638EE70C94
S214011FE413071000639EE70C93076000232AF4028C
S214011FF46F00000D3775050013050524EFA0502169
S2140120046FF0DFF88327840513072000638AE7024D
S21401201413071000638CE7028327C40203A6818298
S21401202483A6C18223A0C70023A2D700232E0402BD
S2140120348327C404938717002326F4046FF05FEE06
S21401204493077000232AF4026FF01FFD93076000C4
S214012054232AF4026FF05FFC8329C100032A81005E
S214012064832A41006FF09FF28327C40313071000ED
S2140120746382E70203278405930620006308D702D8
S214012084930610006304D70C638C0702232604040A
S2140120946F004007130700009307000023A0E40025
S2140120A423A2F400232A04026FF05FF213077000E0
S2140120B4232AE402E39C07FC93077000232AF40214
S2140120C48324C40203A6818383A6C18303A50400D3
S2140120D483A54400EF70C06F23A0A40023A2B4001C
S2140120E4832444020329C40203A50400EF901023A9
S2140120F40326090083264900EF70806DEF90D019FE
S21401210423A0A4008327040203A707009306F01361
S2140121149307000063DAE600130707EC9307F0134E
S214012124B3B7E700938717002328F40413050400C4
S214012134EFF0CFD68320C10103248101832441011A
S21401214403290101130101026780000013076000DF
S214012154232AE402E38A07E86FF05FF3930710008B
S21401216423AAF19423ACF19467800000130101FEC5
S214012174232E1100232C8100232A910023282101D8
S214012184232631012324410123225101130405008E
S214012194930406006386051293050000EFF05FB012
S2140121A4832A04028327840203A6018483A6418426
S2140121B403A5070083A54700EF80101093090500C7
S2140121C41389050003A50A00EF90501513060500B0
S2140121D4938605001385090093050900EF70405F97
S2140121E4EF90900B23A0AA0003250406EF9010138A
S2140121F493090500138905008327840203A6018435
S21401220483A6418403A5070083A54700EF80D00A6F
S2140122141306050093860500138509009305090036
S214012224EF801077EF9050072320A40663940404EC
S2140122348324C40203A6818483A6C18403A504005F
S21401224483A54400EF70C05823A0A40023A2B400C1
S214012254832444020329C40203A50400EF90100C4E
S2140122640326090083264900EF708056EF90D002BA
S21401227423A0A4008327040203A707009306F013F0
S2140122849307000063DAE600130707EC9307F013DD
S214012294B3B7E700938717002328F4048320C1010A
S2140122A40324810183244101032901018329C100F7
S2140122B4032A8100832A410013010102678000007A
S2140122C493051000EFF0DF9D832A0402832784021E
S2140122D403A6018483A6418403A5070083A54700BA
S2140122E4EF80807D930905001389050003A50A0084
S2140122F4EF90D002130605009386050013850900A6
S21401230493050900EF70C04CEF90007923A0AA0052
S2140123148327840203A6018483A6418403A50700B8
S21401232483A54700EF8040799309050013890500CA
S21401233403250406EF90807E1306050093860500A8
S2140123441385090093050900EF708048EF90C07467
S2140123546FF09FED37631B001303C3E1B708120048
S2140123649388C8B937580D001308C8B937B516008D
S2140123741305C509130E0000B78E0300938E0E4095
S214012384130705B013060800938608009307030095
S214012394938507D82320B70023A0F6009385072842
S2140123A42320B60013074700938727009386460029
S2140123B413064600E31EA7FC13030378938808500C
S2140123C413080850130E0E3C13050550E31ADEFBE2
S2140123D467800000B7B816009388C8B9930500282B
S2140123E41308000037E301009317180093860800CA
S2140123F403A741993307F70003A60600035707000E
S2140124042310E6009387270093864600E392B7FEDF
S214012414938808501308082093850540E31668FC42
S21401242467800000B70812009388C8B9930500288E
S2140124341308000037E30100931718009386080079
S21401244403A741993307F70003A6060003570700BD
S2140124542310E6009387270093864600E392B7FE8F
S214012464938808501308082093850540E31668FCF2
S21401247467800000B7580D009388C8B993050028F3
S2140124841308000037E30100931718009386080029
S21401249403A741993307F70003A60600035707006D
S2140124A42310E6009387270093864600E392B7FE3F
S2140124B4938808501308082093850540E31668FCA2
S2140124C46780000093959500B385A5009395150044
S2140124D4B7C72B009387C739B387F5002390C70086
S2140124E4B76722009387C739B385F5002390C500E3
S2140124F467800000130101FE232E1100232C8100A6
S214012504232A910023282101232631012324410172
S2140125142322510137BA1600130ACAB9B7BA0400FE
S214012524B30A5A01130900009309001493040A001C
S2140125341304000083A7040003960700930509000B
S21401254413050400EFF01FF81304140093844400E9
S214012554E31234FF13091900130A0A50E3185AFD4B
S2140125648320C1010324810183244101032901013C
S2140125748329C100032A8100832A41001301010231
S21401258467800000130101FE232E1100232C810015
S214012594232A9100232821012326310123244101E2
S2140125A423225101370A1200130ACAB9B7BA040022
S2140125B4B30A5A01130900009309001493040A008C
S2140125C41304000083A7040003960700930509007B
S2140125D413050400EFF01FEF130414009384440062
S2140125E4E31234FF13091900130A0A50E3185AFDBB
S2140125F48320C101032481018324410103290101AC
S2140126048329C100032A8100832A410013010102A0
S21401261467800000130101FE232E1100232C810084
S214012624232A910023282101232631012324410151
S21401263423225101375A0D00130ACAB9B7BA040046
S214012644B30A5A01130900009309001493040A00FB
S2140126541304000083A704000396070093050900EA
S21401266413050400EFF01FE61304140093844400DA
S214012674E31234FF13091900130A0A50E3185AFD2A
S2140126848320C1010324810183244101032901011B
S2140126948329C100032A8100832A41001301010210
S2140126A467800000130101FE232E1100232C8100F4
S2140126B4232A9100232821012326310193040000B3
S2140126C41309000F930900141304000013060000F5
S2140126D49305040013850400EFF0DFDE13041400F1
S2140126E4E31624FF93841400E39034FF8320C1018E
S2140126F40324810183244101032901018329C100A3
S2140127041301010267800000B73720FF130710008A
S21401271423A0E702B73720FF9387C70283A70700E2
S21401272493F71700638C0700373720FF1307C70298
S2140127348327070093F71700E39C07FE67800000D2
S214012744130101FF23261100232481002322910073
S21401275403A7C195B7C72B009387C7392322F70070
S214012764EFF09FFA83A7C19583A7070023AAF198E0
S214012774EFF05FF303A7C195B76722009387C739C4
S2140127842322F7008327470023AAF198EFF09FF14D
S2140127948320C10003248100832441001301010125
S2140127A467800000130101FF232611003775050019
S2140127B41305C526EFA0C025377505001305852822
S2140127C4EFA0002503A3019683C6119A03C6019AB6
S2140127D4B78800009305000F130EA0056F00800153
S2140127E49306060013F6F70F23AEF19823ACE1988F
S2140127F4638AB6008327030033F71701E30607FE4F
S2140128046FF01FFEE318C6FF2380019AA380019A86
S2140128142381019A377505001305052AEFA0401F89
S2140128248320C100130101016780000003A3019600
S2140128341306000093060000B78800009305000FF6
S214012844130E90026F0080019306060013F6F70F2D
S21401285423AEF19823ACE198638AB600832703007C
S21401286433F71701E30607FE6FF01FFEE318C6FFF2
S2140128742380019AA380019A2381019A678000002C
S214012884130101FF232611009300000003AE0196F5
S21401289483C6019A03C6119A930F0000930200009F
S2140128A493030000378300009305100013056001AD
S2140128B4930EE001130F000F6F0080006308E60714
S2140128C483270E0033F76700630E070093000600A4
S2140128D41386060093F6F70F938F0500938205007F
S2140128E49383050023AEF19823ACE198E388A6FC14
S2140128F4E398D6FDE316E6FD63860F001307E001B1
S2140129042380E19A638402002381119A638603007B
S214012914130700FFA380E19A377505001305452CBC
S214012924EFA0000F130510006F00400363860F002D
S214012934130760012380E19A638402002381119ABC
S21401294463860300130700FFA380E19A3775050029
S2140129541305052BEFA0C00B130500002380019A75
S214012964A380019A2381019A8320C10013010101E6
S21401297467800000130101FF232611009300000065
S21401298403AE019683C6019A03C6119A930F0000FB
S21401299493020000930300003783000093051000A0
S2140129A413056001930EE001130F000F6F00800002
S2140129B46308E60783270E0033F76700630E0700F4
S2140129C4930006001386060093F6F70F938F05000F
S2140129D4938205009383050023AEF19823ACE19816
S2140129E4E388A6FCE398D6FDE316E6FD63860F00AE
S2140129F41307E0012380E19A638402002381119A7C
S214012A0463860300130700FFA380E19A3775050068
S214012A141305452CEF90D07F130510006F0040037B
S214012A2463860F00130760012380E19A6384020022
S214012A342381119A63860300130700FFA380E19A9A
S214012A44377505001305852DEF90907C130500005E
S214012A542380019AA380019A2381019A8320C100CD
S214012A64130101016780000083A7019683A707006D
S214012A7423AEF1983787000033F7E70023ACE198DB
S214012A8413050000630C070203C7119A2381E19A18
S214012A9483C6019AA380D19A93F7F70F2380F19AFC
S214012AA41306000E630EC7009307E001130500002A
S214012AB46316F7009307000F6384F60C6780000023
S214012AC4130750076384E6066362D7029307B006CA
S214012AD46384F606930740076398F600B7470D002C
S214012AE403A5471D67800000678000001307000FD9
S214012AF4639AE602130750076386E7041307200761
S214012B046388E7041307B0066386E70613074007DE
S214012B1413050000E394E7FAB7470D0003A5071E63
S214012B24678000001305000067800000B7470D00AA
S214012B3403A5871D67800000B7470D0003A5071D81
S214012B4467800000B7470D0003A5471E6780000095
S214012B54130101FF23261100377505001305452FC0
S214012B64EF90106B130500008320C10013010101CF
S214012B7467800000B7470D0003A5C71D67800000E6
S214012B84B7470D0003A5871E6780000083A701963B
S214012B9483A7070023AEF1983787000033F7E700D1
S214012BA423ACE198130500006308070683C6119A4F
S214012BB42381D19A03C7019AA380E19A93F7F70F69
S214012BC42380F19A1306000E6380C60293079002CF
S214012BD4130500006392F6046304F70A9307000FD3
S214012BE4630EF70E67800000930640076308D70656
S214012BF463F6E602930650076306D7049306000FAE
S214012C04631ED702130750076380E70613072007DE
S214012C14130500006380E706678000009307B0068B
S214012C246308F702930720076318F700B7470D00F8
S214012C3403A5C71F67800000678000001305000016
S214012C4467800000B7470D0003A5471F6780000093
S214012C54B7470D0003A5071F67800000B7470D009F
S214012C6403A5C71E67800000B7470D0003A5871F8D
S214012C7467800000B7470D0003A5072067800000A2
S214012C84130101FF232611002324810003A60185D5
S214012C9483A6418503A501AA83A541AAEF60503303
S214012CA423A0A1AA23A2B1AA03A6818583A6C185CE
S214012CB4EF705037631E0500B7470D0003A5872044
S214012CC48320C100032481001301010167800000F1
S214012CD4B7470D0003A547206FF09FFEB7470D00C9
S214012CE403A587206780000003A7419A9306100670
S214012CF42300D70083A7419A23A2070023A4070031
S214012D0423860700678000001306050093871500D5
S214012D1493854500930830009306800033E5170336
S214012D24131725003307E600032707000328470384
S214012D346318D800232CD70293871700E390B7FEB5
S214012D4467800000372735001307C7399306C70085
S214012D54138806009305000013060000130580007F
S214012D648327070083A74703B387A74093B71700B2
S214012D743306F60083A7060083A74703B387A74055
S214012D8493B71700B385F5001307470093864600EB
S214012D94E31807FD9307200063C2C70263D6B7048E
S214012DA493073000130580076394F50483A7419ABB
S214012DB423860700130710046F00400393073000AF
S214012DC4E310F6FE638AF50083A7419A238607007B
S214012DD4130720046F00800183A7419A2386070006
S214012DE4130740056F008000130790042382E196C1
S214012DF467800000130101FF2326110083A70199B0
S214012E04639A070283A7C198638E0702130710000B
S214012E14638CE700130720006396E702EFF08FE563
S214012E24EFF04FED6F000002EFF0CFDFEFF08FEC25
S214012E346F004001130710006380E70213072000A8
S214012E446380E70403A7019923A6E1988320C100C0
S214012E54130101016780000083A7C198638C0700F2
S214012E6413072000E390E7FEEFF0CFE0EFF08FF1D9
S214012E746FF05FFDEFF00FD6EFF0CFF06FF09FFC31
S214012E8483A7C198638C070013071000E39CE7FA35
S214012E94EFF04FD9EFF00FF86FF0DFFAEFF08FD3C2
S214012EA4EFF04FF76FF01FFAB72735009387C7394E
S214012EB41385C700930580006F00C0009387470001
S214012EC46386A70203A7070083264703E388B6FEA3
S214012ED40326070403260600E342C0FE232CD7027A
S214012EE493068000232AD7026FF05FFDB7263500CC
S214012EF49386C6399387C600938686011305800098
S214012F046F00C000938747006384D70203A70700B6
S214012F1403264703E308A6FE8325070483A50500C5
S214012F24E342B0FE232CC702232AA7026FF09FFDBB
S214012F3467800000372735001307C7399306C70093
S214012F449385060013050000130610008327070067
S214012F5483A7C705B387C74093B717003305F500A2
S214012F6483A7060083A7C705B387C74093B717008F
S214012F743305F5001307470093864600E318B7FCAC
S214012F8467800000130101F4232E110A232C810A01
S214012F94232A910A2328210B2326310B2324410BB0
S214012FA42322510B2381019AA380019A2380019A3B
S214012FB483A7419A83C6070013071006638CE60E9F
S214012FC403A7870013172700B72735009387C73948
S214012FD4B387E70083A7C70003A7070523A8E198DB
S214012FE4EFF05FE183A7419A83A787006394070004
S214012FF46F204022130710006394E7006F204028D7
S214013004130720006394E7006F20402E03A5C1A791
S214013014EFD09F9103A5C1A6EFD01F9103A5C1A52B
S214013024EFD09F900325C105EFD01F90032501061D
S214013034EFD09F8F03254106EFD01F8F377505000C
S2140130441305C562EF90D01C83A7419A03A6870097
S21401305483C507003775050013050542EF9010096F
S214013064EFF01F822320A104631405006F20C02EF5
S21401307403A9419AB72435001385C43983258900E9
S2140130841305C500EFF05FC82324A90083A7419A5E
S214013094130710062380E7009384C4391304000041
S2140130A493098000377A0500B77A050013093000C2
S2140130B46F40401803A7470013172700B7273500AA
S2140130C49387C739B387E70083A7070003A70705D4
S2140130D423A8E198EFF01FD283A7419A83A747005C
S2140130E4638A070A13071000638AE7101307200090
S2140130F4638CE71603A5C1A7EFD01F8303A5C1A65A
S214013104EFD09F8203A5C1A5EFD01F820325C10579
S214013114EFD09F8103250106EFD01F8103254106C9
S214013124EFD09F803775050013050541EF90500ECB
S21401313483A7419A03A6470083C507003775050090
S21401314413050542EF90807AEFF08FF32320A10454
S2140131546302051803A9419AB7243500832549005B
S2140131641385C439EFF05FBA2322A90083A7419AD5
S214013174130720062380E7009384C4391304000050
S21401318493098000377A0500B77A050013093000E1
S2140131946F10D07F378405001308000293070001DF
S2140131A41307B00C930660121306000093054490AF
S2140131B41305C105EFD0DFFB1308000293070001D6
S2140131C41307B00C9306602613060000930544907B
S2140131D413050106EFD0DFF9130800029307000177
S2140131E41307B00C9306603A130600009305449047
S2140131F413054106EFD0DFF76FF0DFEF37840500E4
S214013204130444D013080002930700011307B00CFB
S2140132149306601213060000930504001305C10506
S214013224EFD01FF513080002930700011307B00C33
S2140132349306602613060000930504001305010691
S214013244EFD01FF313080002930700011307B00C15
S2140132549306603A1306000093050400130541061D
S214013264EFD01FF16FF01FE93784050013044410F3
S21401327413080002930700011307B00C93066012AB
S21401328413060000930504001305C105EFD05FEE95
S21401329413080002930700011307B00C9306602677
S2140132A4130600009305040013050106EFD05FEC36
S2140132B413080002930700011307B00C9306603A43
S2140132C4130600009305040013054106EFD05FEAD8
S2140132D46FF05FE22320610B232E7109232C8109F1
S2140132E4232A91092328A1092326B10903A541A765
S2140132F4EFD08FE303A541A6EFD00FE303A541A5C5
S214013304EFD08FE20325C105EFD00FE203250106B6
S214013314EFD08FE103254106EFD00FE137750500A5
S21401332413058545EF90C06EB78405009384445019
S214013334372435001304C439930800001308E00D3C
S2140133449307A00C130790019306E00013062000D0
S2140133549385040013058401EF50807793080000D9
S2140133641308E00D9307A020130790019306E000CD
S214013374130620009385040013058403EF5040755B
S214013384930800001308E00D9307A0341307900177
S2140133949306E000130620009385040013058405B4
S2140133A4EF500073377505001305C547EF90406667
S2140133B483A7419A83A74700939727003304F40011
S2140133C48327040083A7070283A70700232EF1009F
S2140133D4930C0000B7273500938DC73983A7018660
S2140133E403A841862324F1022326010383A701852A
S2140133F403A841852328F102232A010383A7018513
S2140134042324F10483A741852326F10483A7818518
S21401341403A8C185232CF102232E010393878D0172
S2140134242322F1046F00802B83274703232CF70202
S21401343403A7460013172700B72735009387C73914
S214013444B387E70083A707001307800023AAE702D0
S21401345483A746006386070A130710006380E70EF6
S21401346413072000930610002320D1046386E71077
S214013474372435001304C43983254403130984010E
S2140134849385F5FF13050900EF505009832544037E
S214013494930484039385F5FF13850400EF50100805
S2140134A483254403130484059385F5FF130504005B
S2140134B4EF50D00613050900EF50900C1385040055
S2140134C4EF50100C13050400EF50900BEFE01FC9EA
S2140134D42380019AA380019A2381019A83270104F8
S2140134E46380074A032B010A832BC109032C810934
S2140134F4832C4109032D0109832DC1086FF09FC553
S21401350403A501A0EFD04FC203A5419FEFD0CFC1C1
S21401351403A5819EEFD04FC103A501A0EFD05FD8CC
S21401352403A5419FEFD0DFD703A5819EEFD05FD7D8
S214013534930710002320F1046FF09FF303A5C19FA6
S214013544EFD08FBE03A5019FEFD00FBE03A5419E0A
S214013554EFD08FBD03A5C19FEFD09FD403A5019FD4
S214013564EFD01FD403A5419EEFD09FD3930710003D
S2140135742320F1046FF0DFEF03A5819FEFD0CFBACC
S21401358403A5C19EEFD04FBA03A5019EEFD0CFB9D4
S21401359403A5819FEFD0DFD003A5C19EEFD05FD0F6
S2140135A403A5019EEFD0DFCF930710002320F1047B
S2140135B46FF01FEC83A7419A83A7470093972700D0
S2140135C4B387FD0083A5040003A50700EFE08F98E9
S2140135D46306050023268A01930B0C00130444009A
S2140135E4130A4A0093844400630CA40383A7419AF4
S2140135F483A7470093972700B387FD0003A5070019
S21401360483250400E308B5FAEFE0CF94E30405FA52
S214013614930710002320FA00930B10006FF09FF914
S21401362463940B1883A7419A83A7470093972700AF
S214013634B387FD009305000003A50700EFE00FD84C
S21401364483A7419A83A7470093972700B387FD0072
S21401365483A7070003A7070523A8E1980329010404
S21401366463C60C2813850C00EF80404B03268102A9
S2140136748326C102EF6050229304050013840500DB
S2140136840326010383264103EF7080226356A000BC
S214013694832481040324C104032681038326C103EE
S2140136A41385040093050400EF700041EF80C03ECB
S2140136B49309050083A44D036344952463C2A42897
S2140136C49385090003254104EF50C064630409008F
S2140136D4B30C9041EFF04F83EFF0CFF113850C005C
S2140136E4EF80C043EFD0DFC103A6018683A64186DF
S2140136F4EF70002CE35E05D6EFF00FB793050500D7
S214013704B7470D009387071D83A78701E382A7D6D2
S21401371483A7419A83A7470093972700B387FD00A1
S2140137241306000003A50700EFE00FEB83A6419AFA
S21401373483A7460093972700B387FD0003A70700D6
S2140137448327470203A607009307D011E3CEC7CC0D
S2140137548327070283A707002320F1020327C10159
S214013764B38CE740232401062326010623280106F9
S214013774232A0106232C0106232E0106B72735002A
S214013784938AC739130981069389CA00138D0900E0
S21401379493840900130A09001384C739930B0000A4
S2140137A4130C10006FF09FE4938B0A00138B09002F
S2140137B4130A090093045000130C20006F004006FE
S2140137C4138D0B0003A54B018327450503A7C701EA
S2140137D46358E0021304000083A7070013172400AC
S2140137E4B387E70003A50700EFD0CFE21304140064
S2140137F403254D018327450503A7C701E34EE4FCD2
S214013804EFE00F886F00800283274A01639E070258
S2140138149384F4FF130ACAFF130BCBFF938BCBFFDE
S214013824E3449CFE83274A01E39C07F89384F4FF50
S2140138349307F0FF638EF404130ACAFF130BCBFF3E
S214013844938BCBFF6FF0DFFD130D0B0003258B006D
S2140138548327450503A7C7016358E0021304000044
S21401386483A7070013172400B387E70003A50700FF
S214013874EFD04FDA1304140003258D008327450582
S21401388403A7C701E34EE4FCEFD09FFF6FF05FF898
S21401389483A7419A83A7470093972700B387FD0020
S2140138A49305000003A50700EFE04FB113040000E1
S2140138B493042000130A60006F30503283270900F6
S2140138C4639E070013041400E30C44D7938A4A004A
S2140138D493894900130949006F305030930500005D
S2140138E403A549FFEFE08FAD6FF0DFFD8327C1012C
S2140138F403270102B38CE740130910006FF09FD62B
S2140139041394240083A78D01B387870003A50700BA
S214013914EFD04FD083A78D03B387870003A5070095
S214013924EFD04FCF83A78D05B387870003A5070084
S214013934EFD04FCE9384F4FFE3D434FD6FF05FD819
S2140139441394240083A78D01B387870003A507007A
S214013954EFC09FFD83A78D03B387870003A50700E8
S214013964EFC09FFC83A78D05B387870003A50700D7
S214013974EFC09FFB93841400E39499FC6FF05FD42B
S21401398483A7419A03A6470083C507003775050038
S2140139941305054AEF80907503A581A7EFC0DFF8EC
S2140139A403A581A6EFC05FF803A581A5EFC0DFF7E5
S2140139B40325C105EFC05FF703250106EFC0DFF657
S2140139C403254106EFC05FF6EFE0DFFA6304050066
S2140139D46F10807803A501A7EFC01FF503A501A604
S2140139E4EFC09FF403A501A5EFC01FF483A70199B7
S2140139F46382070E13071000638CE7101307200079
S214013A046386E7143775050013054550EF904000AB
S214013A14130700009307000023A4E1AA23A6F1AA32
S214013A2423A0E1AA23A2F1AA83A7419A03A74700E8
S214013A3413172700B72735009387C739B387E700DD
S214013A4483A7070003A7470283A7070283A60700E5
S214013A54130800029307000203270700938686FFD4
S214013A6413060000B7F5080093850511138541A0D8
S214013A74EFD00FF003A541A0EFC01FEB130C10000D
S214013A84930400001304000003AB818083ABC18060
S214013A9403A8C18683A781862320F102232201037A
S214013AA403A8418783A701872324F1022326010360
S214013AB403AD018A83AD418A03AA018583AA4185A0
S214013AC403A70185232EE10083A741852320F10462
S214013AD46F00401D377505001305054EEF805073C2
S214013AE4930800001308D00D9307201013079001C4
S214013AF49306E00013062000B7850500938545501C
S214013B043725350013054541EF40907C6FF09FEF54
S214013B14377505001305C54EEF80906F93080000B6
S214013B241308D00D93072024130790019306E00091
S214013B3413062000B78505009385455037253500C3
S214013B4413054541EF40D0786FF0DFEB377505007C
S214013B541305854FEF80D06B930800001308D00D32
S214013B6493072038130790019306E00013062000FC
S214013B74B78505009385455037253500130545411E
S214013B84EF4010756FF01FE803A541A0EFD08FA892
S214013B9403A541A0EFD0CFF063120C2883A7419A66
S214013BA403A7470013172700B72735009387C7399C
S214013BB4B387E70083A7070003A7470283A7070283
S214013BC483A60700130800029307000203270700D1
S214013BD4938686FF13060000B765080093850511D2
S214013BE4138541A0EFD0CFD803A541A0EFC0DFD302
S214013BF493840C0013840900B7470D0083A7871F1D
S214013C04E3862701B7470D0083A70720E38A270524
S214013C14B7470D0083A7C71EE38E2709B7470D00D4
S214013C2483A7071FE38C2711B7470D0083A78720B7
S214013C34E38A271903A6818583A6C18503A501AA5C
S214013C4483A541AAEF604045130905009389050041
S214013C5413060A0093860A00EF6090456356A00097
S214013C640329C1018329010403A6818583A6C1858D
S214013C741305090093850900EF601064EF70D061A5
S214013C8493090500B727350003A90743E34E2531F9
S214013C94E340A934938509003725350013054541CA
S214013CA4EF504007EFE09FEE1309050083AC81AAAD
S214013CB483A9C1AA138604009306040013850C0085
S214013CC493850900EF601036E30805F21306000039
S214013CD49306000013850C0093850900EF60903469
S214013CE4E30405EA13060B0093860B0013850C0008
S214013CF493850900EF601033630A05160326010253
S214013D048326410213850C0093850900EF609031E8
S214013D1463080520032681028326C10213850C004D
S214013D2493850900EF6010306306052A03A6818790
S214013D3483A6C18713850C0093850900EF60902E36
S214013D446304053403A6018883A6418813850C0001
S214013D5493850900EF60102D6302053E03A6818852
S214013D6483A6C18813850C0093850900EF60902B08
S214013D746300054803A6018983A6418913850C00BF
S214013D8493850900EF60102A630E055003A6818906
S214013D9483A6C18913850C0093850900EF609028DA
S214013DA4630C055A03A6018A83A6418A13850C006F
S214013DB493850900EF601027E31805E203A541A0E7
S214013DC4EFD04F8503A541A0EFD08FCD83A7419AAD
S214013DD403A7470013172700B72735009387C7396A
S214013DE4B387E70083A7070003A7470283A7070251
S214013DF483A607001308000293070002032707009F
S214013E04938686FF13060000B7B5080093850591CF
S214013E14138541A0EFD0CFB56FF01FDD83A7419A7C
S214013E2403A7470013172700B72735009387C73919
S214013E34B387E70083A7070003A7470283A7070200
S214013E4483A607001308000293070002032707004E
S214013E54938686FF13060000B7F5080093850511BF
S214013E64138541A0EFD0CFB06FF01FD803A541A0B2
S214013E74EFC05FFA03A541A0EFD08FC2631A0C040A
S214013E8483A7419A03A7470013172700B7273500CE
S214013E949387C739B387E70083A7070003A74702B9
S214013EA483A7070283A607001308000293070002EC
S214013EB403270700938686FF13060000B7750800DC
S214013EC493850591138541A0EFD08FAA6FF0DFD1BA
S214013ED483A7419A03A7470013172700B72735007E
S214013EE49387C739B387E70083A7070003A7470269
S214013EF483A7070283A6070013080002930700029C
S214013F0403270700938686FF13060000B7F508000B
S214013F1493850591138541A0EFD08FA56FF0DFCC73
S214013F2403A541A0EFC01FEF03A541A0EFD04FB7F3
S214013F34631A0C0483A7419A03A7470013172700A3
S214013F44B72735009387C739B387E70083A70700E8
S214013F5403A7470283A7070283A6070013080002E4
S214013F649307000203270700938686FF13060000C3
S214013F74B775080093850511138541A0EFD04F9FAF
S214013F846FF09FC683A7419A03A74700131727001C
S214013F94B72735009387C739B387E70083A7070098
S214013FA403A7470283A7070283A607001308000294
S214013FB49307000203270700938686FF1306000073
S214013FC4B7E5080093850511138541A0EFD04F9AF4
S214013FD46FF09FC103A541A0EFC0DFE303A541A095
S214013FE4EFD00FAC631A0C0483A7419A03A74700CA
S214013FF413172700B72735009387C739B387E70018
S21401400483A7070003A7470283A7070283A607001F
S214014014130800029307000203270700938686FF0E
S21401402413060000B785080093850591138541A002
S214014034EFD00F946FF05FBB83A7419A03A74700A5
S21401404413172700B72735009387C739B387E700C7
S21401405483A7070003A7470283A7070283A60700CF
S214014064130800029307000203270700938686FFBE
S21401407413060000B7E5080093850591138541A052
S214014084EFD00F8F6FF05FB603A541A0EFC09FD8A6
S21401409403A541A0EFD0CFA0631A0C0483A7419ACD
S2140140A403A7470013172700B72735009387C73997
S2140140B4B387E70083A7070003A7470283A707027E
S2140140C483A60700130800029307000203270700CC
S2140140D4938686FF13060000B785080093850511AD
S2140140E4138541A0EFD0CF886FF01FB083A7419A04
S2140140F403A7470013172700B72735009387C73947
S214014104B387E70083A7070003A7470283A707022D
S21401411483A607001308000293070002032707007B
S214014124938686FF13060000B7D50800938505110C
S214014134138541A0EFD0CF836FF01FAB03A541A039
S214014144EFC05FCD03A541A0EFD08F95631A0C0491
S21401415483A7419A03A7470013172700B7273500FB
S2140141649387C739B387E70083A7070003A74702E6
S21401417483A7070283A60700130800029307000219
S21401418403270700938686FF13060000B7950800E9
S21401419493850591138541A0EFC09FFD6FF0DFA4C1
S2140141A483A7419A03A7470013172700B7273500AB
S2140141B49387C739B387E70083A7070003A7470296
S2140141C483A7070283A607001308000293070002C9
S2140141D403270700938686FF13060000B7D5080059
S2140141E493850591138541A0EFC09FF86FF0DF9F7B
S2140141F403A541A0EFC01FC203A541A0EFD04F8A7B
S214014204631A0C0483A7419A03A7470013172700D0
S214014214B72735009387C739B387E70083A7070015
S21401422403A7470283A7070283A607001308000211
S2140142349307000203270700938686FF13060000F0
S214014244B795080093850511138541A0EFC05FF269
S2140142546FF09F9983A7419A03A747001317270076
S214014264B72735009387C739B387E70083A70700C5
S21401427403A7470283A7070283A6070013080002C1
S2140142849307000203270700938686FF13060000A0
S214014294B7C5080093850511138541A0EFC05FEDEE
S2140142A46FF09F9403A541A0EFC0DFB603A541A01C
S2140142B4EFC01FFF631A0C0483A7419A03A74700A4
S2140142C413172700B72735009387C739B387E70045
S2140142D483A7070003A7470283A7070283A607004D
S2140142E4130800029307000203270700938686FF3C
S2140142F413060000B7A5080093850591138541A010
S214014304EFC01FE76FF05F8E83A7419A03A74700AC
S21401431413172700B72735009387C739B387E700F4
S21401432483A7070003A7470283A7070283A60700FC
S214014334130800029307000203270700938686FFEB
S21401434413060000B7C5080093850591138541A09F
S214014354EFC01FE26FF05F8903A541A0EFC09FABDA
S21401436403A541A0EFC0DFF3631A0C0483A7419AA7
S21401437403A7470013172700B72735009387C739C4
S214014384B387E70083A7070003A7470283A70702AB
S21401439483A60700130800029307000203270700F9
S2140143A4938686FF13060000B7A5080093850511BA
S2140143B4138541A0EFC0DFDB6FF01F8383A7419A0B
S2140143C403A7470013172700B72735009387C73974
S2140143D4B387E70083A7070003A7470283A707025B
S2140143E483A60700130800029307000203270700A9
S2140143F4938686FF13060000B7B50800938505115A
S214014404138541A0EFC0DFD66FF00FFE03A981AA82
S21401441483A9C1AA13060D0093860D00130509008E
S21401442493850900EF600040E306058003A68180BA
S21401443483A6C1801305090093850900EF5040390E
S21401444423A4A1AA23A6B1AA1306050093860500F0
S2140144543775050013054552EF8040496FF08FFD0F
S21401446403A981AA83A9C1AA130600009306000022
S2140144741305090093850900EF60C03A630C05FA39
S21401448403A6818083A6C1801305090093850900CC
S214014494EF60105023A4A1AA23A6B1AA130605000F
S2140144A4938605003775050013054552EF800044D1
S2140144B46FF04FF8130600009306000023A4C1AA68
S2140144C423A6D1AA3775050013058553EF804054FA
S2140144D403A541A0EFC01F9403A541A0EFC05FDC74
S2140144E483A7419A03A7470013172700B727350068
S2140144F49387C739B387E70083A7070003A7470253
S21401450483A7070283A60700130800029307000285
S21401451403270700938686FF13060000B7F50800F5
S21401452493850511138541A0EFC09FC403A541A03F
S214014534EFC08FBF130C10006FF0CFEF130600000F
S2140145449306000023A4C1AA23A6D1AA03A541A0C9
S214014554EFC05F8C03A541A0EFC09FD483A7419A07
S21401456403A7470013172700B72735009387C739D2
S214014574B387E70083A7070003A7470283A70702B9
S21401458483A6070013080002930700020327070007
S214014594938686FF13060000B76508009385051108
S2140145A4138541A0EFC0DFBC03A541A0EFC0CFB780
S2140145B4377505001305C554EF808045130C0000BC
S2140145C46FF04FE703A601AA83A641AA3775050033
S2140145D413050556EF80803103A601AA83A641AAD6
S2140145E43775050013058558EF80403037243500AC
S2140145F41304C43983A7419A83A7470093972700D6
S214014604B307F40083A7070003A74702032607009E
S21401461483A7070283A507002320810103A801AA13
S21401462483A841AA03A781AA83A7C1AAB7860500BE
S2140146349386C6531306760093858500130584096D
S214014644EF40902E83254409930484079385F5FF50
S21401465413850400EF40806C03258409EFC0CFACBA
S21401466403A541A0EFC00FFB03A541A0EFC05FC3A4
S2140146742380019AA380019A2381019A1385040059
S214014684EF40007023A801AA9304800C138A070044
S21401469493092000372435001304C4391309840907
S2140146A4930A403D83A701AB63C8F9040325840933
S2140146B4EFC04FF613050900EF40505313050900E8
S2140146C4EF409061032584098327050083A707002B
S2140146D49387A70063F4FA006F20D04BEFC0CFA4F2
S2140146E48327440A23A8F198EFE0CFF0EFE0CF81C7
S2140146F49384F4FFE39804FA377505001305C5633C
S214014704EF800031372435001304C43903258409A6
S214014714EFC04FF0032984098327490003A5070046
S214014724EF70C03F03A6818583A6C185EF6050263E
S214014734EF708036130405008327090003A50700DC
S214014744EF70C03D03A6818583A6C185EF60502422
S214014754EF708034930605001308200393072003A3
S2140147641307040013060000B70509009385059195
S214014774138581A4EFC0DF9F03A581A4EFC0CF9A60
S214014784EFD09FF81304C00003A581A4EFC08FE8FF
S2140147941304F4FF6302040603A581A4EFC0CF98B3
S2140147A4EFD09FF66FF05FFEB72C3500938CCC39B3
S2140147B483A78C0713172900B387E70003A507000F
S2140147C4EFC04FE51309F9FFE35439FF6FF08FCCBF
S2140147D4B72C3500938CCC3983A78C071317290083
S2140147E4B387E70003A50700EFC00F941309190068
S2140147F4E39429FF6FF00FCAEFD01FF103A581A43C
S214014804EFC01FAA377505001305C559EF80402070
S214014814372435001305C4399304C50013860400F0
S2140148249305C43913058509EF40505DEFE0CFE7E2
S214014834EFE04FF0930505002320A102377505002C
S2140148441305855BEF80800A130BC439232091047A
S2140148541304C4391309000093098000130A3000B5
S214014864930A10006F0040118327C505639C5711F6
S214014874EFD00F81630A0902930710006300F9065B
S214014884930720006306F90803A5040003274503DC
S21401489493078000630EF70E1309190013044400EE
S2140148A4938444006F00400D03A501A0EFC0CF8799
S2140148B403A5419FEFC04F8703A5819EEFC0CF8616
S2140148C403A501A0EFC0DF9D03A5419FEFC05F9D37
S2140148D403A5819EEFC0DF9C6FF01FFB03A5C19F5C
S2140148E4EFC08F8403A5019FEFC00F8403A5419EEB
S2140148F4EFC08F8303A5C19FEFC09F9A03A5019FB5
S214014904EFC01F9A03A5419EEFC09F996FF0DFF792
S21401491403A5819FEFC04F8103A5C19EEFC0CF8041
S21401492403A5019EEFC04F8003A5819FEFC05F974B
S21401493403A5C19EEFC0DF9603A5019EEFC05F9657
S21401494403A5040003274503930780006304F700C7
S2140149546F2010220327C505930710006314F70080
S2140149646F20D01D13091900631449016F205020CC
S2140149741304440093844400032504008327450359
S214014984E38437EF03A5040083274503E39C37FD3F
S2140149948327C505E39857FDEFC09FEE630409021C
S2140149A493071000630AF904930720006314F900BF
S2140149B46F2010191309190013044400938444004A
S2140149C46FF09FFB03A5C19DEFB01FF603A5019DE4
S2140149D4EFB09FF503A5419CEFB01FF503A5C19D5C
S2140149E4EFC01F8C03A5019DEFC09F8B03A5419CBF
S2140149F4EFC01F8B6FF01FFC03A5819DEFB0DFF2A4
S214014A0403A5C19CEFB05FF203A5019CEFB0DFF1F3
S214014A1403A5819DEFC0DF8803A5C19CEFC05F8815
S214014A2403A5019CEFC0DF876FF0DFF8EFC01FC757
S214014A348325040003A7450393078000630EF7004C
S214014A4403A7C503930710006312F70403A705061B
S214014A549307300163DCE702130B1B0023240106D2
S214014A642326010623280106232A0106232C0106F0
S214014A74232E0106130C8106832C0104930D0C00CE
S214014A84832BC101232401026F00C0110325810376
S214014A94EF40D05193050500032509000326C503FD
S214014AA4EFD0CFEC8327090003A74702832607002C
S214014AB41307D011E354D7FA03A7470323ACE7023D
S214014AC41307800023AAE7026384040493071000F3
S214014AD4638AF40693072000E392F4F803A5819F02
S214014AE4EFB09FE403A5C19EEFB01FE403A5019EAA
S214014AF4EFB09FE303A5819FEFC08FFA03A5C19E84
S214014B04EFC00FFA03A5019EEFC08FF96FF01FF5F2
S214014B1403A501A0EFB05FE103A5419FEFB0DFE07D
S214014B2403A5819EEFB05FE003A501A0EFC04FF798
S214014B3403A5419FEFC0CFF603A5819EEFC04FF6B4
S214014B446FF0DFF103A5C19FEFB01FDE03A5019F40
S214014B54EFB09FDD03A5419EEFB01FDD03A5C19F06
S214014B64EFC00FF403A5019FEFC08FF303A5419E89
S214014B74EFC00FF36FF09FEE83A50C000325090029
S214014B84EFC05FBD630805009307100023A6FD0070
S214014B9423245103938B4B00938D4D00938C4C002F
S214014BA463047D030325090083A50B00E306B5FC16
S214014BB4EFC05FBAE30205FC9307100023A0FD00D3
S214014BC4232451036FF05FFB83278102639A070056
S214014BD49305000003250900EFC05FFE6F00004A3D
S214014BE4832DC101832701042324F102930C0C00B5
S214014BF4930B50006F0000072328B10303A54D0152
S214014C048327450503A7C701635AE002930A0000F8
S214014C1483A7070013972A00B387E70003A50700B5
S214014C24EFC04F9F938A1A008327010303A5470108
S214014C348327450503A7C701E3CCEAFCEFC05FC49D
S214014C446F00400383A74C0163980704938BFBFF13
S214014C54938CCCFF832781029387C7FF2324F10219
S214014C64938DCDFF93072000E3CE77FD83A74C01F8
S214014C74E39407F8938BFBFF9307F0FF6386FB0629
S214014C84938CCCFF832781029387C7FF2324F102E9
S214014C94938DCDFF6FF01FFD832781022328F10238
S214014CA403A587008327450503A7C701635AE002C6
S214014CB4930A000083A7070013972A00B387E70027
S214014CC403A50700EFC00F95938A1A0083270103F3
S214014CD403A587008327450503A7C701E3CCEAFCA0
S214014CE4EFC01FBA6FF09FF6930500000325090075
S214014CF4EFC0DFEC832B0104832AC10113090000F2
S214014D04930C20006F20806183270C0063900702B8
S214014D1413091900930760006302F936938A4A005F
S214014D24938B4B00130C4C006F20405F93050000DF
S214014D3403A54BFFEFC09FE86FF09FFDEFC01F96E2
S214014D448325040003A7450393078000630EF70039
S214014D5403A7C503930710006312F70403A7050608
S214014D649307300163DCE702130B1B0023240106BF
S214014D742326010623280106232A0106232C0106DD
S214014D84232E0106130C8106832C0104930D0C00BB
S214014D94832BC101232401026F0000100325810324
S214014DA4EF40D02093050500032509000326C5031B
S214014DB4EFD0CFBB8327090003A74702832607004A
S214014DC41307D011E354D7FA03A7470323ACE7022A
S214014DD41307800023AAE7026384040493071000E0
S214014DE4638AF40693072000E392F4F803A5419D31
S214014DF4EFB09FB303A5819CEFB01FB303A5C19B7E
S214014E04EFB09FB203A5419DEFC08FC903A5819C56
S214014E14EFC00FC903A5C19BEFC08FC86FF01FF584
S214014E2403A5C19DEFB05FB003A5019DEFB0DFAF51
S214014E3403A5419CEFB05FAF03A5C19DEFC04FC66C
S214014E4403A5019DEFC0CFC503A5419CEFC04FC587
S214014E546FF0DFF103A5819DEFB01FAD03A5C19CE3
S214014E64EFB09FAC03A5019CEFB01FAC03A5819DD9
S214014E74EFC00FC303A5C19CEFC08FC203A5019C5D
S214014E84EFC00FC26FF09FEE938B4B00938D4D00D6
S214014E94938C4C0063027D0583A50B000325090052
S214014EA4EFC05F8B630805009307100023A0FD0085
S214014EB4232451030325090083A50C00E306B5FC4E
S214014EC4EFC05F89E30205FC9307100023A6FD00EB
S214014ED4232451036FF05FFB83278102639A070043
S214014EE49305000003250900EFC05FCD6F00C01BCA
S214014EF4832DC101832701042324F102930C0C00A2
S214014F04930B50006F0000072328B10303A54D013E
S214014F148327450503A7C701635AE002930A0000E5
S214014F2483A7070013972A00B387E70003A50700A2
S214014F34EFB05FEE938A1A008327010303A54701A6
S214014F448327450503A7C701E3CCEAFCEFC05F93BB
S214014F546F00400383A74C0163980704938BFBFF00
S214014F64938CCCFF832781029387C7FF2324F10206
S214014F74938DCDFF93072000E3CE77FD83A74C01E5
S214014F84E39407F8938BFBFF9307F0FF6386FB0616
S214014F94938CCCFF832781029387C7FF2324F102D6
S214014FA4938DCDFF6FF01FFD832781022328F10225
S214014FB403A587008327450503A7C701635AE002B3
S214014FC4930A000083A7070013972A00B387E70014
S214014FD403A50700EFB01FE4938A1A008327010391
S214014FE403A587008327450503A7C701E3CCEAFC8D
S214014FF4EFC01F896FF09FF6930500000325090093
S214015004EFC0DFBB832B0104832AC101130900000F
S214015014930C20006F20802D83270C0063900702D9
S21401502413091900930760006300F908938A4A007C
S214015034938B4B00130C4C006F20402B9305000000
S21401504403A54BFFEFC09FB76FF09FFDEFD0CFEBEB
S214015054832701026302FB060324C10193040000B3
S214015064130B0000130A10009309300013090400FF
S21401507403250400832AC505E38A4A9B9384140006
S21401508413044400E39434FF03240104930400004E
S214015094130A1000930930001309040003250400C1
S2140150A4832AC505E38C4AC9938414001304440077
S2140150B4E39434FF6FF09FF9032BC10137253500C4
S2140150C413054543EF30105E1306CB00130710009B
S2140150D41305000093050000832701046F00C00236
S2140150E423AE060483A6860223A0A60023A2B60046
S2140150F483260B0023A006066F00C001130B4B008A
S21401510493874700630C660383260B0003A8C60532
S214015114E308E8FC83A6070003A8C605E310E8FE37
S21401512423AE060483A6860223A0A60023A2B60005
S21401513483A6070023A006066FF05FFC032B010A73
S214015144832BC109032C8109832C4109032D0109F1
S214015154832DC1086FE00F80032B010A832BC1093D
S214015164032C8109832C4109032D0109832DC108D0
S2140151746FD05FFE9305040013850A5DEF70007718
S21401518413041400938444006300240383A70400D7
S21401519483A74703E38037FF9305040013050A5EDC
S2140151A4EF70C0746FF0DFFDB72435009384843A42
S2140151B41304000093098000377A0500B77A0500C6
S2140151C4130930006F00C0019305040013850A5FBC
S2140151D4EF70C07113041400938444006300240325
S2140151E483A7040083A74703E38037FF93050400DE
S2140151F413050A60EF70806F6FF0DFFDEFD09FB488
S214015204930505003775050013050561EF70006EFB
S2140152146F20800A378405001304C455130800025E
S214015224930700011307B00C9306601213060000DF
S214015234930504001305C105EFB09FF3130800029C
S214015244930700011307B00C9306602613060000AB
S2140152549305040013050106EFB09FF1130800023D
S214015264930700011307B00C9306603A1306000077
S2140152749305040013054106EFB09FEF6FD01FD9C5
S214015284379405001304C49513080002930700011C
S2140152941307B00C9306601213060000930504006E
S2140152A41305C105EFB0DFEC1308000293070001F4
S2140152B41307B00C9306602613060000930504003A
S2140152C413050106EFB0DFEA130800029307000195
S2140152D41307B00C9306603A130600009305040006
S2140152E413054106EFB0DFE86FD05FD237940500AF
S2140152F41304C4D513080002930700011307B00C66
S2140153049306601213060000930504001305C105F5
S214015314EFB01FE613080002930700011307B00C51
S2140153249306602613060000930504001305010680
S214015334EFB01FE413080002930700011307B00C33
S2140153449306603A1306000093050400130541060C
S214015354EFB01FE26FD09FCB2320610B232E710980
S214015364232C8109232A91092328A1092326B1097B
S21401537403A541A7EFB04FDB03A541A6EFB0CFDAF3
S21401538403A541A5EFB04FDA0325C105EFB0CFD988
S21401539403250106EFB04FD903254106EFB0CFD858
S2140153A4B784050093844450372435001304C43964
S2140153B4930800001308E00D9307A00C130790014F
S2140153C49306E00013062000938504001305840168
S2140153D4EF300070930800001308E00D9307A02037
S2140153E4130790019306E00013062000938504003A
S2140153F413058403EF30C06D930800001308E00D15
S2140154049307A034130790019306E00013062000C7
S2140154149385040013058405EF30806B83A7419AB6
S21401542483A78700939727003304F4008327C400D7
S21401543483A7070283A70700232EF100930C00001D
S214015444B7273500938DC73983A7018603A84186FC
S2140154542324F1022326010383A7018503A841859A
S2140154642328F102232A010383A701852324F104B7
S21401547483A741852326F10483A7818503A8C185D3
S214015484232CF102232E010393878D012322F10499
S2140154946F00802B83274703232CF70203A786007C
S2140154A413172700B72735009387C739B387E70053
S2140154B483A7C7001307800023AAE70283A78600F1
S2140154C46386070A130710006380E70E130720009C
S2140154D4930610002320D1046386E7103724350091
S2140154E41304C43983254403130984019385F5FF02
S2140154F413050900EF3090028325440393048403C3
S2140155049385F5FF13850400EF305001832544038A
S214015514130484059385F5FF13050400EF3010008A
S21401552413050900EF30D00513850400EF3050054C
S21401553413050400EF30D004EFC05FC22380019A44
S214015544A380019A2381019A832701046380074A71
S214015554032B010A832BC109032C8109832C4109DE
S214015564032D0109832DC1086FD09FB003A5C19DEA
S214015574EFB08FBB03A5019DEFB00FBB03A5419C04
S214015584EFB08FBA03A5C19DEFB09FD103A5019DCE
S214015594EFB01FD103A5419CEFB09FD09307100035
S2140155A42320F1046FF09FF303A5819DEFB0CFB7DD
S2140155B403A5C19CEFB04FB703A5019CEFB0CFB6CE
S2140155C403A5819DEFB0DFCD03A5C19CEFB05FCDF0
S2140155D403A5019CEFB0DFCC930710002320F10450
S2140155E46FF0DFEF03A5419DEFB00FB403A5819CD7
S2140155F4EFB08FB303A5C19BEFB00FB303A5419DD5
S214015604EFB01FCA03A5819CEFB09FC903A5C19B38
S214015614EFB01FC9930710002320F1046FF01FECAD
S21401562413044400130A4A00938444006300A40745
S21401563483A7419A83A7870093972700B387FD0022
S2140156448325040003A5C700EFC0CF9063060500B9
S21401565423208A01930B0C0083A7419A83A7870012
S21401566493972700B387FD0003A5C70083A504000D
S214015674E308B5FAEFC00F8EE30405FA93071000AA
S2140156842326FA00930B10006FF09FF963940B180E
S21401569483A7419A83A7870093972700B387FD00C2
S2140156A49305000003A5C700EFC04FD183A7419A15
S2140156B483A7870093972700B387FD0083A7C700B6
S2140156C403A7070523A8E1980329010463C60C2848
S2140156D413850C00EF608044032681028326C102F1
S2140156E4EF40901B93040500138405000326010371
S2140156F483264103EF50C01B6356A0008324810414
S2140157040324C104032681038326C10313850400ED
S21401571493050400EF50403AEF6000389309050002
S21401572483A44D036344952463C2A4289385090086
S21401573403254104EF30005E63040900B30C904175
S214015744EFC09FFCEFD00FEB13850C00EF60003D1C
S214015754EFB01FBB03A6018683A64186EF50402502
S214015764E35E05D6EFD04FB093050500B7470D00AD
S2140157749387071D83A78701E382A7D683A7419A48
S21401578483A7870093972700B387FD0013060000BD
S21401579403A5C700EFC04FE483A6419A83A78600FA
S2140157A493972700B387FD0003A7C7008327470203
S2140157B403A607009307D011E3CEC7CC83270702BD
S2140157C483A707002320F1020327C101B38CE74016
S2140157D4232401062326010623280106232A01067B
S2140157E4232C0106232E0106B7273500938AC739D1
S2140157F4130981069389CA00138D0900938409004D
S214015804130A09001384C739930B0000130C100004
S2140158146FF01FE2938B0A00138B0900130A090029
S21401582493045000130C20006F004006138D0B00E8
S21401583403A54B018327450503A7C7016358E00267
S2140158441304000083A7070013172400B387E70097
S21401585403A50700EFB00FDC1304140003254D0164
S2140158648327450503A7C701E34EE4FCEFC04F8138
S2140158746F00800283274A01639E07029384F4FF24
S214015884130ACAFF130BCBFF938BCBFFE3449CFE97
S21401589483274A01E39C07F89384F4FF9307F0FFF8
S2140158A4638EF404130ACAFF130BCBFF938BCBFF4F
S2140158B46FF0DFFD130D0B0003258B0083274505D1
S2140158C403A7C7016358E0021304000083A7070077
S2140158D413172400B387E70003A50700EFB08FD39F
S2140158E41304140003258D008327450503A7C70168
S2140158F4E34EE4FCEFB0DFF86FF05FF883A7419A5C
S21401590483A7870093972700B387FD0093050000BC
S21401591403A5C700EFC08FAA130400009304200058
S214015924130A60006F10D03C83270900639E0700AA
S21401593413041400E30C44D7938A4A00938949005C
S214015944130949006F10D03A9305000003A549FFD7
S214015954EFC0CFA66FF0DFFD8327C1010327010245
